{
	"data": {
		"bytecode": {
			"linkReferences": {},
			"object": "6080604052600a60095534801562000015575f80fd5b506040518060400160405280600681526020017f4d79204e667400000000000000000000000000000000000000000000000000008152506040518060400160405280600481526020017f4d4e465400000000000000000000000000000000000000000000000000000000815250815f908162000092919062000351565b508060019081620000a4919062000351565b50505033600a5f6101000a81548173ffffffffffffffffffffffffffffffffffffffff021916908373ffffffffffffffffffffffffffffffffffffffff16021790555062000435565b5f81519050919050565b7f4e487b71000000000000000000000000000000000000000000000000000000005f52604160045260245ffd5b7f4e487b71000000000000000000000000000000000000000000000000000000005f52602260045260245ffd5b5f60028204905060018216806200016957607f821691505b6020821081036200017f576200017e62000124565b5b50919050565b5f819050815f5260205f209050919050565b5f6020601f8301049050919050565b5f82821b905092915050565b5f60088302620001e37fffffffffffffffffffffffffffffffffffffffffffffffffffffffffffffffff82620001a6565b620001ef8683620001a6565b95508019841693508086168417925050509392505050565b5f819050919050565b5f819050919050565b5f62000239620002336200022d8462000207565b62000210565b62000207565b9050919050565b5f819050919050565b620002548362000219565b6200026c620002638262000240565b848454620001b2565b825550505050565b5f90565b6200028262000274565b6200028f81848462000249565b505050565b5b81811015620002b657620002aa5f8262000278565b60018101905062000295565b5050565b601f8211156200030557620002cf8162000185565b620002da8462000197565b81016020851015620002ea578190505b62000302620002f98562000197565b83018262000294565b50505b505050565b5f82821c905092915050565b5f620003275f19846008026200030a565b1980831691505092915050565b5f62000341838362000316565b9150826002028217905092915050565b6200035c82620000ed565b67ffffffffffffffff811115620003785762000377620000f7565b5b62000384825462000151565b62000391828285620002ba565b5f60209050601f831160018114620003c7575f8415620003b2578287015190505b620003be858262000334565b8655506200042d565b601f198416620003d78662000185565b5f5b828110156200040057848901518255600182019150602085019450602081019050620003d9565b868310156200042057848901516200041c601f89168262000316565b8355505b6001600288020188555050505b505050505050565b61319b80620004435f395ff3fe608060405260043610610180575f3560e01c806370a08231116100d0578063a90d14e211610089578063d547cfb711610063578063d547cfb7146105a6578063e985e9c5146105d0578063f2a413b51461060c578063f8b2cb4f1461064857610180565b8063a90d14e21461051a578063b88d4fde14610542578063c87b56dd1461056a57610180565b806370a082311461040a5780637d7f1f3e146104465780638a71bb2d1461048257806395d89b41146104ac578063a22cb465146104d6578063a37365e0146104fe57610180565b80632a55205a1161013d57806355f804b31161011757806355f804b3146103425780635a51a8851461036a5780635afa3a72146103a65780636352211e146103ce57610180565b80632a55205a146102b35780633d0673d4146102f057806342842e0e1461031a57610180565b806301ffc9a71461018457806306fdde03146101c0578063081812fc146101ea578063095ea7b31461022657806323b872dd1461024e578063265aa62114610276575b5f80fd5b34801561018f575f80fd5b506101aa60048036038101906101a591906123d2565b610684565b6040516101b79190612417565b60405180910390f35b3480156101cb575f80fd5b506101d46106e4565b6040516101e191906124ba565b60405180910390f35b3480156101f5575f80fd5b50610210600480360381019061020b919061250d565b610773565b60405161021d9190612577565b60405180910390f35b348015610231575f80fd5b5061024c600480360381019061024791906125ba565b61078e565b005b348015610259575f80fd5b50610274600480360381019061026f91906125f8565b6107a4565b005b348015610281575f80fd5b5061029c6004803603810190610297919061250d565b6108a3565b6040516102aa929190612657565b60405180910390f35b3480156102be575f80fd5b506102d960048036038101906102d4919061267e565b6108e2565b6040516102e7929190612657565b60405180910390f35b3480156102fb575f80fd5b50610304610930565b60405161031191906126bc565b60405180910390f35b348015610325575f80fd5b50610340600480360381019061033b91906125f8565b610940565b005b34801561034d575f80fd5b5061036860048036038101906103639190612801565b61095f565b005b348015610375575f80fd5b50610390600480360381019061038b919061250d565b610972565b60405161039d91906126bc565b60405180910390f35b3480156103b1575f80fd5b506103cc60048036038101906103c79190612848565b6109fd565b005b3480156103d9575f80fd5b506103f460048036038101906103ef919061250d565b610b1d565b6040516104019190612577565b60405180910390f35b348015610415575f80fd5b50610430600480360381019061042b91906128a2565b610b2e565b60405161043d91906126bc565b60405180910390f35b348015610451575f80fd5b5061046c6004803603810190610467919061250d565b610be4565b6040516104799190612417565b60405180910390f35b34801561048d575f80fd5b50610496610c52565b6040516104a391906126bc565b60405180910390f35b3480156104b7575f80fd5b506104c0610c58565b6040516104cd91906124ba565b60405180910390f35b3480156104e1575f80fd5b506104fc60048036038101906104f791906128f7565b610ce8565b005b6105186004803603810190610513919061250d565b610cfe565b005b348015610525575f80fd5b50610540600480360381019061053b919061250d565b610f58565b005b34801561054d575f80fd5b50610568600480360381019061056391906129d3565b611035565b005b348015610575575f80fd5b50610590600480360381019061058b919061250d565b611052565b60405161059d91906124ba565b60405180910390f35b3480156105b1575f80fd5b506105ba61115d565b6040516105c791906124ba565b60405180910390f35b3480156105db575f80fd5b506105f660048036038101906105f19190612a53565b6111e9565b6040516106039190612417565b60405180910390f35b348015610617575f80fd5b50610632600480360381019061062d919061250d565b611277565b60405161063f9190612417565b60405180910390f35b348015610653575f80fd5b5061066e600480360381019061066991906128a2565b6112e5565b60405161067b91906126bc565b60405180910390f35b5f634906490660e01b7bffffffffffffffffffffffffffffffffffffffffffffffffffffffff1916827bffffffffffffffffffffffffffffffffffffffffffffffffffffffff191614806106dd57506106dc82611305565b5b9050919050565b60605f80546106f290612abe565b80601f016020809104026020016040519081016040528092919081815260200182805461071e90612abe565b80156107695780601f1061074057610100808354040283529160200191610769565b820191905f5260205f20905b81548152906001019060200180831161074c57829003601f168201915b5050505050905090565b5f61077d826113e6565b506107878261146c565b9050919050565b6107a0828261079b6114a5565b6114ac565b5050565b5f73ffffffffffffffffffffffffffffffffffffffff168273ffffffffffffffffffffffffffffffffffffffff1603610814575f6040517f64a0ae9200000000000000000000000000000000000000000000000000000000815260040161080b9190612577565b60405180910390fd5b5f61082783836108226114a5565b6114be565b90508373ffffffffffffffffffffffffffffffffffffffff168173ffffffffffffffffffffffffffffffffffffffff161461089d578382826040517f64283d7b00000000000000000000000000000000000000000000000000000000815260040161089493929190612aee565b60405180910390fd5b50505050565b600d602052805f5260405f205f91509050805f015f9054906101000a900473ffffffffffffffffffffffffffffffffffffffff16908060010154905082565b5f805f6064600954856108f59190612b50565b6108ff9190612bbe565b9050600a5f9054906101000a900473ffffffffffffffffffffffffffffffffffffffff168192509250509250929050565b5f61093b60076116c9565b905090565b61095a83838360405180602001604052805f815250611035565b505050565b806008908161096e9190612d8b565b5050565b5f80600d5f8481526020019081526020015f206040518060400160405290815f82015f9054906101000a900473ffffffffffffffffffffffffffffffffffffffff1673ffffffffffffffffffffffffffffffffffffffff1673ffffffffffffffffffffffffffffffffffffffff16815260200160018201548152505090508060200151915050919050565b5f610a0860076116c9565b9050610a1433826116d5565b610a1e81846116f2565b60405180604001604052803373ffffffffffffffffffffffffffffffffffffffff16815260200183815250600d5f8381526020019081526020015f205f820151815f015f6101000a81548173ffffffffffffffffffffffffffffffffffffffff021916908373ffffffffffffffffffffffffffffffffffffffff160217905550602082015181600101559050505f600c5f3373ffffffffffffffffffffffffffffffffffffffff1673ffffffffffffffffffffffffffffffffffffffff1681526020019081526020015f205f8381526020019081526020015f205f6101000a81548160ff021916908315150217905550610b18600761174c565b505050565b5f610b27826113e6565b9050919050565b5f8073ffffffffffffffffffffffffffffffffffffffff168273ffffffffffffffffffffffffffffffffffffffff1603610b9f575f6040517f89c62b64000000000000000000000000000000000000000000000000000000008152600401610b969190612577565b60405180910390fd5b60035f8373ffffffffffffffffffffffffffffffffffffffff1673ffffffffffffffffffffffffffffffffffffffff1681526020019081526020015f20549050919050565b5f80610bef83610b1d565b9050600c5f8273ffffffffffffffffffffffffffffffffffffffff1673ffffffffffffffffffffffffffffffffffffffff1681526020019081526020015f205f8481526020019081526020015f205f9054906101000a900460ff16915050919050565b60095481565b606060018054610c6790612abe565b80601f0160208091040260200160405190810160405280929190818152602001828054610c9390612abe565b8015610cde5780601f10610cb557610100808354040283529160200191610cde565b820191905f5260205f20905b815481529060010190602001808311610cc157829003601f168201915b5050505050905090565b610cfa610cf36114a5565b8383611760565b5050565b5f610d0882610b1d565b905060011515600b5f8373ffffffffffffffffffffffffffffffffffffffff1673ffffffffffffffffffffffffffffffffffffffff1681526020019081526020015f205f8481526020019081526020015f205f9054906101000a900460ff16151514610da9576040517f08c379a0000000000000000000000000000000000000000000000000000000008152600401610da090612ea4565b60405180910390fd5b5f3390505f600d5f8581526020019081526020015f206001015490508173ffffffffffffffffffffffffffffffffffffffff168373ffffffffffffffffffffffffffffffffffffffff1603610e33576040517f08c379a0000000000000000000000000000000000000000000000000000000008152600401610e2a90612f0c565b60405180910390fd5b803414610e75576040517f08c379a0000000000000000000000000000000000000000000000000000000008152600401610e6c90612f74565b60405180910390fd5b610e808383866118c9565b5f606460095483610e919190612b50565b610e9b9190612bbe565b9050600a5f9054906101000a900473ffffffffffffffffffffffffffffffffffffffff1673ffffffffffffffffffffffffffffffffffffffff166108fc8290811502906040515f60405180830381858888f19350505050158015610f01573d5f803e3d5ffd5b508373ffffffffffffffffffffffffffffffffffffffff166108fc8284610f289190612f92565b90811502906040515f60405180830381858888f19350505050158015610f50573d5f803e3d5ffd5b505050505050565b610f6181610b1d565b73ffffffffffffffffffffffffffffffffffffffff163373ffffffffffffffffffffffffffffffffffffffff1614610fce576040517f08c379a0000000000000000000000000000000000000000000000000000000008152600401610fc59061300f565b60405180910390fd5b6001600b5f3373ffffffffffffffffffffffffffffffffffffffff1673ffffffffffffffffffffffffffffffffffffffff1681526020019081526020015f205f8381526020019081526020015f205f6101000a81548160ff02191690831515021790555050565b6110408484846107a4565b61104c84848484611a31565b50505050565b606061105d826113e6565b505f60065f8481526020019081526020015f20805461107b90612abe565b80601f01602080910402602001604051908101604052809291908181526020018280546110a790612abe565b80156110f25780601f106110c9576101008083540402835291602001916110f2565b820191905f5260205f20905b8154815290600101906020018083116110d557829003601f168201915b505050505090505f611102611be3565b90505f815103611116578192505050611158565b5f8251111561114a578082604051602001611132929190613067565b60405160208183030381529060405292505050611158565b61115384611bf9565b925050505b919050565b6008805461116a90612abe565b80601f016020809104026020016040519081016040528092919081815260200182805461119690612abe565b80156111e15780601f106111b8576101008083540402835291602001916111e1565b820191905f5260205f20905b8154815290600101906020018083116111c457829003601f168201915b505050505081565b5f60055f8473ffffffffffffffffffffffffffffffffffffffff1673ffffffffffffffffffffffffffffffffffffffff1681526020019081526020015f205f8373ffffffffffffffffffffffffffffffffffffffff1673ffffffffffffffffffffffffffffffffffffffff1681526020019081526020015f205f9054906101000a900460ff16905092915050565b5f8061128283610b1d565b9050600b5f8273ffffffffffffffffffffffffffffffffffffffff1673ffffffffffffffffffffffffffffffffffffffff1681526020019081526020015f205f8481526020019081526020015f205f9054906101000a900460ff16915050919050565b5f8173ffffffffffffffffffffffffffffffffffffffff16319050919050565b5f7f80ac58cd000000000000000000000000000000000000000000000000000000007bffffffffffffffffffffffffffffffffffffffffffffffffffffffff1916827bffffffffffffffffffffffffffffffffffffffffffffffffffffffff191614806113cf57507f5b5e139f000000000000000000000000000000000000000000000000000000007bffffffffffffffffffffffffffffffffffffffffffffffffffffffff1916827bffffffffffffffffffffffffffffffffffffffffffffffffffffffff1916145b806113df57506113de82611c5f565b5b9050919050565b5f806113f183611cc8565b90505f73ffffffffffffffffffffffffffffffffffffffff168173ffffffffffffffffffffffffffffffffffffffff160361146357826040517f7e27328900000000000000000000000000000000000000000000000000000000815260040161145a91906126bc565b60405180910390fd5b80915050919050565b5f60045f8381526020019081526020015f205f9054906101000a900473ffffffffffffffffffffffffffffffffffffffff169050919050565b5f33905090565b6114b98383836001611d01565b505050565b5f806114c984611cc8565b90505f73ffffffffffffffffffffffffffffffffffffffff168373ffffffffffffffffffffffffffffffffffffffff161461150a57611509818486611ec0565b5b5f73ffffffffffffffffffffffffffffffffffffffff168173ffffffffffffffffffffffffffffffffffffffff1614611595576115495f855f80611d01565b600160035f8373ffffffffffffffffffffffffffffffffffffffff1673ffffffffffffffffffffffffffffffffffffffff1681526020019081526020015f205f82825403925050819055505b5f73ffffffffffffffffffffffffffffffffffffffff168573ffffffffffffffffffffffffffffffffffffffff161461161457600160035f8773ffffffffffffffffffffffffffffffffffffffff1673ffffffffffffffffffffffffffffffffffffffff1681526020019081526020015f205f82825401925050819055505b8460025f8681526020019081526020015f205f6101000a81548173ffffffffffffffffffffffffffffffffffffffff021916908373ffffffffffffffffffffffffffffffffffffffff160217905550838573ffffffffffffffffffffffffffffffffffffffff168273ffffffffffffffffffffffffffffffffffffffff167fddf252ad1be2c89b69c2b068fc378daa952ba7f163c4a11628f55a4df523b3ef60405160405180910390a4809150509392505050565b5f815f01549050919050565b6116ee828260405180602001604052805f815250611f83565b5050565b8060065f8481526020019081526020015f2090816117109190612d8b565b507ff8e1a15aba9398e019f0b49df1a4fde98ee17ae345cb5f6b5e2c27f5033e8ce78260405161174091906126bc565b60405180910390a15050565b6001815f015f828254019250508190555050565b5f73ffffffffffffffffffffffffffffffffffffffff168273ffffffffffffffffffffffffffffffffffffffff16036117d057816040517f5b08ba180000000000000000000000000000000000000000000000000000000081526004016117c79190612577565b60405180910390fd5b8060055f8573ffffffffffffffffffffffffffffffffffffffff1673ffffffffffffffffffffffffffffffffffffffff1681526020019081526020015f205f8473ffffffffffffffffffffffffffffffffffffffff1673ffffffffffffffffffffffffffffffffffffffff1681526020019081526020015f205f6101000a81548160ff0219169083151502179055508173ffffffffffffffffffffffffffffffffffffffff168373ffffffffffffffffffffffffffffffffffffffff167f17307eab39ab6107e8899845ad3d59bd9653f200f220920489ca2b5937696c31836040516118bc9190612417565b60405180910390a3505050565b5f73ffffffffffffffffffffffffffffffffffffffff168273ffffffffffffffffffffffffffffffffffffffff1603611939575f6040517f64a0ae920000000000000000000000000000000000000000000000000000000081526004016119309190612577565b60405180910390fd5b5f61194583835f6114be565b90505f73ffffffffffffffffffffffffffffffffffffffff168173ffffffffffffffffffffffffffffffffffffffff16036119b757816040517f7e2732890000000000000000000000000000000000000000000000000000000081526004016119ae91906126bc565b60405180910390fd5b8373ffffffffffffffffffffffffffffffffffffffff168173ffffffffffffffffffffffffffffffffffffffff1614611a2b578382826040517f64283d7b000000000000000000000000000000000000000000000000000000008152600401611a2293929190612aee565b60405180910390fd5b50505050565b5f8373ffffffffffffffffffffffffffffffffffffffff163b1115611bdd578273ffffffffffffffffffffffffffffffffffffffff1663150b7a02611a746114a5565b8685856040518563ffffffff1660e01b8152600401611a9694939291906130dc565b6020604051808303815f875af1925050508015611ad157506040513d601f19601f82011682018060405250810190611ace919061313a565b60015b611b52573d805f8114611aff576040519150601f19603f3d011682016040523d82523d5f602084013e611b04565b606091505b505f815103611b4a57836040517f64a0ae92000000000000000000000000000000000000000000000000000000008152600401611b419190612577565b60405180910390fd5b805181602001fd5b63150b7a0260e01b7bffffffffffffffffffffffffffffffffffffffffffffffffffffffff1916817bffffffffffffffffffffffffffffffffffffffffffffffffffffffff191614611bdb57836040517f64a0ae92000000000000000000000000000000000000000000000000000000008152600401611bd29190612577565b60405180910390fd5b505b50505050565b606060405180602001604052805f815250905090565b6060611c04826113e6565b505f611c0e611be3565b90505f815111611c2c5760405180602001604052805f815250611c57565b80611c3684611f9e565b604051602001611c47929190613067565b6040516020818303038152906040525b915050919050565b5f7f01ffc9a7000000000000000000000000000000000000000000000000000000007bffffffffffffffffffffffffffffffffffffffffffffffffffffffff1916827bffffffffffffffffffffffffffffffffffffffffffffffffffffffff1916149050919050565b5f60025f8381526020019081526020015f205f9054906101000a900473ffffffffffffffffffffffffffffffffffffffff169050919050565b8080611d3957505f73ffffffffffffffffffffffffffffffffffffffff168273ffffffffffffffffffffffffffffffffffffffff1614155b15611e6b575f611d48846113e6565b90505f73ffffffffffffffffffffffffffffffffffffffff168373ffffffffffffffffffffffffffffffffffffffff1614158015611db257508273ffffffffffffffffffffffffffffffffffffffff168173ffffffffffffffffffffffffffffffffffffffff1614155b8015611dc55750611dc381846111e9565b155b15611e0757826040517fa9fbf51f000000000000000000000000000000000000000000000000000000008152600401611dfe9190612577565b60405180910390fd5b8115611e6957838573ffffffffffffffffffffffffffffffffffffffff168273ffffffffffffffffffffffffffffffffffffffff167f8c5be1e5ebec7d5bd14f71427d1e84f3dd0314c0f7b2291e5b200ac8c7c3b92560405160405180910390a45b505b8360045f8581526020019081526020015f205f6101000a81548173ffffffffffffffffffffffffffffffffffffffff021916908373ffffffffffffffffffffffffffffffffffffffff16021790555050505050565b611ecb838383612068565b611f7e575f73ffffffffffffffffffffffffffffffffffffffff168373ffffffffffffffffffffffffffffffffffffffff1603611f3f57806040517f7e273289000000000000000000000000000000000000000000000000000000008152600401611f3691906126bc565b60405180910390fd5b81816040517f177e802f000000000000000000000000000000000000000000000000000000008152600401611f75929190612657565b60405180910390fd5b505050565b611f8d8383612128565b611f995f848484611a31565b505050565b60605f6001611fac8461221b565b0190505f8167ffffffffffffffff811115611fca57611fc96126dd565b5b6040519080825280601f01601f191660200182016040528015611ffc5781602001600182028036833780820191505090505b5090505f82602001820190505b60011561205d578080600190039150507f3031323334353637383961626364656600000000000000000000000000000000600a86061a8153600a858161205257612051612b91565b5b0494505f8503612009575b819350505050919050565b5f8073ffffffffffffffffffffffffffffffffffffffff168373ffffffffffffffffffffffffffffffffffffffff161415801561211f57508273ffffffffffffffffffffffffffffffffffffffff168473ffffffffffffffffffffffffffffffffffffffff1614806120e057506120df84846111e9565b5b8061211e57508273ffffffffffffffffffffffffffffffffffffffff166121068361146c565b73ffffffffffffffffffffffffffffffffffffffff16145b5b90509392505050565b5f73ffffffffffffffffffffffffffffffffffffffff168273ffffffffffffffffffffffffffffffffffffffff1603612198575f6040517f64a0ae9200000000000000000000000000000000000000000000000000000000815260040161218f9190612577565b60405180910390fd5b5f6121a483835f6114be565b90505f73ffffffffffffffffffffffffffffffffffffffff168173ffffffffffffffffffffffffffffffffffffffff1614612216575f6040517f73c6ac6e00000000000000000000000000000000000000000000000000000000815260040161220d9190612577565b60405180910390fd5b505050565b5f805f90507a184f03e93ff9f4daa797ed6e38ed64bf6a1f0100000000000000008310612277577a184f03e93ff9f4daa797ed6e38ed64bf6a1f010000000000000000838161226d5761226c612b91565b5b0492506040810190505b6d04ee2d6d415b85acef810000000083106122b4576d04ee2d6d415b85acef810000000083816122aa576122a9612b91565b5b0492506020810190505b662386f26fc1000083106122e357662386f26fc1000083816122d9576122d8612b91565b5b0492506010810190505b6305f5e100831061230c576305f5e100838161230257612301612b91565b5b0492506008810190505b612710831061233157612710838161232757612326612b91565b5b0492506004810190505b60648310612354576064838161234a57612349612b91565b5b0492506002810190505b600a8310612363576001810190505b80915050919050565b5f604051905090565b5f80fd5b5f80fd5b5f7fffffffff0000000000000000000000000000000000000000000000000000000082169050919050565b6123b18161237d565b81146123bb575f80fd5b50565b5f813590506123cc816123a8565b92915050565b5f602082840312156123e7576123e6612375565b5b5f6123f4848285016123be565b91505092915050565b5f8115159050919050565b612411816123fd565b82525050565b5f60208201905061242a5f830184612408565b92915050565b5f81519050919050565b5f82825260208201905092915050565b5f5b8381101561246757808201518184015260208101905061244c565b5f8484015250505050565b5f601f19601f8301169050919050565b5f61248c82612430565b612496818561243a565b93506124a681856020860161244a565b6124af81612472565b840191505092915050565b5f6020820190508181035f8301526124d28184612482565b905092915050565b5f819050919050565b6124ec816124da565b81146124f6575f80fd5b50565b5f81359050612507816124e3565b92915050565b5f6020828403121561252257612521612375565b5b5f61252f848285016124f9565b91505092915050565b5f73ffffffffffffffffffffffffffffffffffffffff82169050919050565b5f61256182612538565b9050919050565b61257181612557565b82525050565b5f60208201905061258a5f830184612568565b92915050565b61259981612557565b81146125a3575f80fd5b50565b5f813590506125b481612590565b92915050565b5f80604083850312156125d0576125cf612375565b5b5f6125dd858286016125a6565b92505060206125ee858286016124f9565b9150509250929050565b5f805f6060848603121561260f5761260e612375565b5b5f61261c868287016125a6565b935050602061262d868287016125a6565b925050604061263e868287016124f9565b9150509250925092565b612651816124da565b82525050565b5f60408201905061266a5f830185612568565b6126776020830184612648565b9392505050565b5f806040838503121561269457612693612375565b5b5f6126a1858286016124f9565b92505060206126b2858286016124f9565b9150509250929050565b5f6020820190506126cf5f830184612648565b92915050565b5f80fd5b5f80fd5b7f4e487b71000000000000000000000000000000000000000000000000000000005f52604160045260245ffd5b61271382612472565b810181811067ffffffffffffffff82111715612732576127316126dd565b5b80604052505050565b5f61274461236c565b9050612750828261270a565b919050565b5f67ffffffffffffffff82111561276f5761276e6126dd565b5b61277882612472565b9050602081019050919050565b828183375f83830152505050565b5f6127a56127a084612755565b61273b565b9050828152602081018484840111156127c1576127c06126d9565b5b6127cc848285612785565b509392505050565b5f82601f8301126127e8576127e76126d5565b5b81356127f8848260208601612793565b91505092915050565b5f6020828403121561281657612815612375565b5b5f82013567ffffffffffffffff81111561283357612832612379565b5b61283f848285016127d4565b91505092915050565b5f806040838503121561285e5761285d612375565b5b5f83013567ffffffffffffffff81111561287b5761287a612379565b5b612887858286016127d4565b9250506020612898858286016124f9565b9150509250929050565b5f602082840312156128b7576128b6612375565b5b5f6128c4848285016125a6565b91505092915050565b6128d6816123fd565b81146128e0575f80fd5b50565b5f813590506128f1816128cd565b92915050565b5f806040838503121561290d5761290c612375565b5b5f61291a858286016125a6565b925050602061292b858286016128e3565b9150509250929050565b5f67ffffffffffffffff82111561294f5761294e6126dd565b5b61295882612472565b9050602081019050919050565b5f61297761297284612935565b61273b565b905082815260208101848484011115612993576129926126d9565b5b61299e848285612785565b509392505050565b5f82601f8301126129ba576129b96126d5565b5b81356129ca848260208601612965565b91505092915050565b5f805f80608085870312156129eb576129ea612375565b5b5f6129f8878288016125a6565b9450506020612a09878288016125a6565b9350506040612a1a878288016124f9565b925050606085013567ffffffffffffffff811115612a3b57612a3a612379565b5b612a47878288016129a6565b91505092959194509250565b5f8060408385031215612a6957612a68612375565b5b5f612a76858286016125a6565b9250506020612a87858286016125a6565b9150509250929050565b7f4e487b71000000000000000000000000000000000000000000000000000000005f52602260045260245ffd5b5f6002820490506001821680612ad557607f821691505b602082108103612ae857612ae7612a91565b5b50919050565b5f606082019050612b015f830186612568565b612b0e6020830185612648565b612b1b6040830184612568565b949350505050565b7f4e487b71000000000000000000000000000000000000000000000000000000005f52601160045260245ffd5b5f612b5a826124da565b9150612b65836124da565b9250828202612b73816124da565b91508282048414831517612b8a57612b89612b23565b5b5092915050565b7f4e487b71000000000000000000000000000000000000000000000000000000005f52601260045260245ffd5b5f612bc8826124da565b9150612bd3836124da565b925082612be357612be2612b91565b5b828204905092915050565b5f819050815f5260205f209050919050565b5f6020601f8301049050919050565b5f82821b905092915050565b5f60088302612c4a7fffffffffffffffffffffffffffffffffffffffffffffffffffffffffffffffff82612c0f565b612c548683612c0f565b95508019841693508086168417925050509392505050565b5f819050919050565b5f612c8f612c8a612c85846124da565b612c6c565b6124da565b9050919050565b5f819050919050565b612ca883612c75565b612cbc612cb482612c96565b848454612c1b565b825550505050565b5f90565b612cd0612cc4565b612cdb818484612c9f565b505050565b5b81811015612cfe57612cf35f82612cc8565b600181019050612ce1565b5050565b601f821115612d4357612d1481612bee565b612d1d84612c00565b81016020851015612d2c578190505b612d40612d3885612c00565b830182612ce0565b50505b505050565b5f82821c905092915050565b5f612d635f1984600802612d48565b1980831691505092915050565b5f612d7b8383612d54565b9150826002028217905092915050565b612d9482612430565b67ffffffffffffffff811115612dad57612dac6126dd565b5b612db78254612abe565b612dc2828285612d02565b5f60209050601f831160018114612df3575f8415612de1578287015190505b612deb8582612d70565b865550612e52565b601f198416612e0186612bee565b5f5b82811015612e2857848901518255600182019150602085019450602081019050612e03565b86831015612e455784890151612e41601f891682612d54565b8355505b6001600288020188555050505b505050505050565b7f546f6b656e206973206e6f742061742073616c650000000000000000000000005f82015250565b5f612e8e60148361243a565b9150612e9982612e5a565b602082019050919050565b5f6020820190508181035f830152612ebb81612e82565b9050919050565b7f43616e6e6f742062757920796f7572206f776e204e46540000000000000000005f82015250565b5f612ef660178361243a565b9150612f0182612ec2565b602082019050919050565b5f6020820190508181035f830152612f2381612eea565b9050919050565b7f537570706c792045786163742066756e640000000000000000000000000000005f82015250565b5f612f5e60118361243a565b9150612f6982612f2a565b602082019050919050565b5f6020820190508181035f830152612f8b81612f52565b9050919050565b5f612f9c826124da565b9150612fa7836124da565b9250828203905081811115612fbf57612fbe612b23565b5b92915050565b7f596f75722061726520417574686f72697a6520746f2073656c6c0000000000005f82015250565b5f612ff9601a8361243a565b915061300482612fc5565b602082019050919050565b5f6020820190508181035f83015261302681612fed565b9050919050565b5f81905092915050565b5f61304182612430565b61304b818561302d565b935061305b81856020860161244a565b80840191505092915050565b5f6130728285613037565b915061307e8284613037565b91508190509392505050565b5f81519050919050565b5f82825260208201905092915050565b5f6130ae8261308a565b6130b88185613094565b93506130c881856020860161244a565b6130d181612472565b840191505092915050565b5f6080820190506130ef5f830187612568565b6130fc6020830186612568565b6131096040830185612648565b818103606083015261311b81846130a4565b905095945050505050565b5f81519050613134816123a8565b92915050565b5f6020828403121561314f5761314e612375565b5b5f61315c84828501613126565b9150509291505056fea26469706673582212203d93fe0637cda1104ee0513e327b409f091b38c42803bcee7f8795ba464bc6b964736f6c63430008150033",
			"opcodes": "PUSH1 0x80 PUSH1 0x40 MSTORE PUSH1 0xA PUSH1 0x9 SSTORE CALLVALUE DUP1 ISZERO PUSH3 0x15 JUMPI PUSH0 DUP1 REVERT JUMPDEST POP PUSH1 0x40 MLOAD DUP1 PUSH1 0x40 ADD PUSH1 0x40 MSTORE DUP1 PUSH1 0x6 DUP2 MSTORE PUSH1 0x20 ADD PUSH32 0x4D79204E66740000000000000000000000000000000000000000000000000000 DUP2 MSTORE POP PUSH1 0x40 MLOAD DUP1 PUSH1 0x40 ADD PUSH1 0x40 MSTORE DUP1 PUSH1 0x4 DUP2 MSTORE PUSH1 0x20 ADD PUSH32 0x4D4E465400000000000000000000000000000000000000000000000000000000 DUP2 MSTORE POP DUP2 PUSH0 SWAP1 DUP2 PUSH3 0x92 SWAP2 SWAP1 PUSH3 0x351 JUMP JUMPDEST POP DUP1 PUSH1 0x1 SWAP1 DUP2 PUSH3 0xA4 SWAP2 SWAP1 PUSH3 0x351 JUMP JUMPDEST POP POP POP CALLER PUSH1 0xA PUSH0 PUSH2 0x100 EXP DUP2 SLOAD DUP2 PUSH20 0xFFFFFFFFFFFFFFFFFFFFFFFFFFFFFFFFFFFFFFFF MUL NOT AND SWAP1 DUP4 PUSH20 0xFFFFFFFFFFFFFFFFFFFFFFFFFFFFFFFFFFFFFFFF AND MUL OR SWAP1 SSTORE POP PUSH3 0x435 JUMP JUMPDEST PUSH0 DUP2 MLOAD SWAP1 POP SWAP2 SWAP1 POP JUMP JUMPDEST PUSH32 0x4E487B7100000000000000000000000000000000000000000000000000000000 PUSH0 MSTORE PUSH1 0x41 PUSH1 0x4 MSTORE PUSH1 0x24 PUSH0 REVERT JUMPDEST PUSH32 0x4E487B7100000000000000000000000000000000000000000000000000000000 PUSH0 MSTORE PUSH1 0x22 PUSH1 0x4 MSTORE PUSH1 0x24 PUSH0 REVERT JUMPDEST PUSH0 PUSH1 0x2 DUP3 DIV SWAP1 POP PUSH1 0x1 DUP3 AND DUP1 PUSH3 0x169 JUMPI PUSH1 0x7F DUP3 AND SWAP2 POP JUMPDEST PUSH1 0x20 DUP3 LT DUP2 SUB PUSH3 0x17F JUMPI PUSH3 0x17E PUSH3 0x124 JUMP JUMPDEST JUMPDEST POP SWAP2 SWAP1 POP JUMP JUMPDEST PUSH0 DUP2 SWAP1 POP DUP2 PUSH0 MSTORE PUSH1 0x20 PUSH0 KECCAK256 SWAP1 POP SWAP2 SWAP1 POP JUMP JUMPDEST PUSH0 PUSH1 0x20 PUSH1 0x1F DUP4 ADD DIV SWAP1 POP SWAP2 SWAP1 POP JUMP JUMPDEST PUSH0 DUP3 DUP3 SHL SWAP1 POP SWAP3 SWAP2 POP POP JUMP JUMPDEST PUSH0 PUSH1 0x8 DUP4 MUL PUSH3 0x1E3 PUSH32 0xFFFFFFFFFFFFFFFFFFFFFFFFFFFFFFFFFFFFFFFFFFFFFFFFFFFFFFFFFFFFFFFF DUP3 PUSH3 0x1A6 JUMP JUMPDEST PUSH3 0x1EF DUP7 DUP4 PUSH3 0x1A6 JUMP JUMPDEST SWAP6 POP DUP1 NOT DUP5 AND SWAP4 POP DUP1 DUP7 AND DUP5 OR SWAP3 POP POP POP SWAP4 SWAP3 POP POP POP JUMP JUMPDEST PUSH0 DUP2 SWAP1 POP SWAP2 SWAP1 POP JUMP JUMPDEST PUSH0 DUP2 SWAP1 POP SWAP2 SWAP1 POP JUMP JUMPDEST PUSH0 PUSH3 0x239 PUSH3 0x233 PUSH3 0x22D DUP5 PUSH3 0x207 JUMP JUMPDEST PUSH3 0x210 JUMP JUMPDEST PUSH3 0x207 JUMP JUMPDEST SWAP1 POP SWAP2 SWAP1 POP JUMP JUMPDEST PUSH0 DUP2 SWAP1 POP SWAP2 SWAP1 POP JUMP JUMPDEST PUSH3 0x254 DUP4 PUSH3 0x219 JUMP JUMPDEST PUSH3 0x26C PUSH3 0x263 DUP3 PUSH3 0x240 JUMP JUMPDEST DUP5 DUP5 SLOAD PUSH3 0x1B2 JUMP JUMPDEST DUP3 SSTORE POP POP POP POP JUMP JUMPDEST PUSH0 SWAP1 JUMP JUMPDEST PUSH3 0x282 PUSH3 0x274 JUMP JUMPDEST PUSH3 0x28F DUP2 DUP5 DUP5 PUSH3 0x249 JUMP JUMPDEST POP POP POP JUMP JUMPDEST JUMPDEST DUP2 DUP2 LT ISZERO PUSH3 0x2B6 JUMPI PUSH3 0x2AA PUSH0 DUP3 PUSH3 0x278 JUMP JUMPDEST PUSH1 0x1 DUP2 ADD SWAP1 POP PUSH3 0x295 JUMP JUMPDEST POP POP JUMP JUMPDEST PUSH1 0x1F DUP3 GT ISZERO PUSH3 0x305 JUMPI PUSH3 0x2CF DUP2 PUSH3 0x185 JUMP JUMPDEST PUSH3 0x2DA DUP5 PUSH3 0x197 JUMP JUMPDEST DUP2 ADD PUSH1 0x20 DUP6 LT ISZERO PUSH3 0x2EA JUMPI DUP2 SWAP1 POP JUMPDEST PUSH3 0x302 PUSH3 0x2F9 DUP6 PUSH3 0x197 JUMP JUMPDEST DUP4 ADD DUP3 PUSH3 0x294 JUMP JUMPDEST POP POP JUMPDEST POP POP POP JUMP JUMPDEST PUSH0 DUP3 DUP3 SHR SWAP1 POP SWAP3 SWAP2 POP POP JUMP JUMPDEST PUSH0 PUSH3 0x327 PUSH0 NOT DUP5 PUSH1 0x8 MUL PUSH3 0x30A JUMP JUMPDEST NOT DUP1 DUP4 AND SWAP2 POP POP SWAP3 SWAP2 POP POP JUMP JUMPDEST PUSH0 PUSH3 0x341 DUP4 DUP4 PUSH3 0x316 JUMP JUMPDEST SWAP2 POP DUP3 PUSH1 0x2 MUL DUP3 OR SWAP1 POP SWAP3 SWAP2 POP POP JUMP JUMPDEST PUSH3 0x35C DUP3 PUSH3 0xED JUMP JUMPDEST PUSH8 0xFFFFFFFFFFFFFFFF DUP2 GT ISZERO PUSH3 0x378 JUMPI PUSH3 0x377 PUSH3 0xF7 JUMP JUMPDEST JUMPDEST PUSH3 0x384 DUP3 SLOAD PUSH3 0x151 JUMP JUMPDEST PUSH3 0x391 DUP3 DUP3 DUP6 PUSH3 0x2BA JUMP JUMPDEST PUSH0 PUSH1 0x20 SWAP1 POP PUSH1 0x1F DUP4 GT PUSH1 0x1 DUP2 EQ PUSH3 0x3C7 JUMPI PUSH0 DUP5 ISZERO PUSH3 0x3B2 JUMPI DUP3 DUP8 ADD MLOAD SWAP1 POP JUMPDEST PUSH3 0x3BE DUP6 DUP3 PUSH3 0x334 JUMP JUMPDEST DUP7 SSTORE POP PUSH3 0x42D JUMP JUMPDEST PUSH1 0x1F NOT DUP5 AND PUSH3 0x3D7 DUP7 PUSH3 0x185 JUMP JUMPDEST PUSH0 JUMPDEST DUP3 DUP2 LT ISZERO PUSH3 0x400 JUMPI DUP5 DUP10 ADD MLOAD DUP3 SSTORE PUSH1 0x1 DUP3 ADD SWAP2 POP PUSH1 0x20 DUP6 ADD SWAP5 POP PUSH1 0x20 DUP2 ADD SWAP1 POP PUSH3 0x3D9 JUMP JUMPDEST DUP7 DUP4 LT ISZERO PUSH3 0x420 JUMPI DUP5 DUP10 ADD MLOAD PUSH3 0x41C PUSH1 0x1F DUP10 AND DUP3 PUSH3 0x316 JUMP JUMPDEST DUP4 SSTORE POP JUMPDEST PUSH1 0x1 PUSH1 0x2 DUP9 MUL ADD DUP9 SSTORE POP POP POP JUMPDEST POP POP POP POP POP POP JUMP JUMPDEST PUSH2 0x319B DUP1 PUSH3 0x443 PUSH0 CODECOPY PUSH0 RETURN INVALID PUSH1 0x80 PUSH1 0x40 MSTORE PUSH1 0x4 CALLDATASIZE LT PUSH2 0x180 JUMPI PUSH0 CALLDATALOAD PUSH1 0xE0 SHR DUP1 PUSH4 0x70A08231 GT PUSH2 0xD0 JUMPI DUP1 PUSH4 0xA90D14E2 GT PUSH2 0x89 JUMPI DUP1 PUSH4 0xD547CFB7 GT PUSH2 0x63 JUMPI DUP1 PUSH4 0xD547CFB7 EQ PUSH2 0x5A6 JUMPI DUP1 PUSH4 0xE985E9C5 EQ PUSH2 0x5D0 JUMPI DUP1 PUSH4 0xF2A413B5 EQ PUSH2 0x60C JUMPI DUP1 PUSH4 0xF8B2CB4F EQ PUSH2 0x648 JUMPI PUSH2 0x180 JUMP JUMPDEST DUP1 PUSH4 0xA90D14E2 EQ PUSH2 0x51A JUMPI DUP1 PUSH4 0xB88D4FDE EQ PUSH2 0x542 JUMPI DUP1 PUSH4 0xC87B56DD EQ PUSH2 0x56A JUMPI PUSH2 0x180 JUMP JUMPDEST DUP1 PUSH4 0x70A08231 EQ PUSH2 0x40A JUMPI DUP1 PUSH4 0x7D7F1F3E EQ PUSH2 0x446 JUMPI DUP1 PUSH4 0x8A71BB2D EQ PUSH2 0x482 JUMPI DUP1 PUSH4 0x95D89B41 EQ PUSH2 0x4AC JUMPI DUP1 PUSH4 0xA22CB465 EQ PUSH2 0x4D6 JUMPI DUP1 PUSH4 0xA37365E0 EQ PUSH2 0x4FE JUMPI PUSH2 0x180 JUMP JUMPDEST DUP1 PUSH4 0x2A55205A GT PUSH2 0x13D JUMPI DUP1 PUSH4 0x55F804B3 GT PUSH2 0x117 JUMPI DUP1 PUSH4 0x55F804B3 EQ PUSH2 0x342 JUMPI DUP1 PUSH4 0x5A51A885 EQ PUSH2 0x36A JUMPI DUP1 PUSH4 0x5AFA3A72 EQ PUSH2 0x3A6 JUMPI DUP1 PUSH4 0x6352211E EQ PUSH2 0x3CE JUMPI PUSH2 0x180 JUMP JUMPDEST DUP1 PUSH4 0x2A55205A EQ PUSH2 0x2B3 JUMPI DUP1 PUSH4 0x3D0673D4 EQ PUSH2 0x2F0 JUMPI DUP1 PUSH4 0x42842E0E EQ PUSH2 0x31A JUMPI PUSH2 0x180 JUMP JUMPDEST DUP1 PUSH4 0x1FFC9A7 EQ PUSH2 0x184 JUMPI DUP1 PUSH4 0x6FDDE03 EQ PUSH2 0x1C0 JUMPI DUP1 PUSH4 0x81812FC EQ PUSH2 0x1EA JUMPI DUP1 PUSH4 0x95EA7B3 EQ PUSH2 0x226 JUMPI DUP1 PUSH4 0x23B872DD EQ PUSH2 0x24E JUMPI DUP1 PUSH4 0x265AA621 EQ PUSH2 0x276 JUMPI JUMPDEST PUSH0 DUP1 REVERT JUMPDEST CALLVALUE DUP1 ISZERO PUSH2 0x18F JUMPI PUSH0 DUP1 REVERT JUMPDEST POP PUSH2 0x1AA PUSH1 0x4 DUP1 CALLDATASIZE SUB DUP2 ADD SWAP1 PUSH2 0x1A5 SWAP2 SWAP1 PUSH2 0x23D2 JUMP JUMPDEST PUSH2 0x684 JUMP JUMPDEST PUSH1 0x40 MLOAD PUSH2 0x1B7 SWAP2 SWAP1 PUSH2 0x2417 JUMP JUMPDEST PUSH1 0x40 MLOAD DUP1 SWAP2 SUB SWAP1 RETURN JUMPDEST CALLVALUE DUP1 ISZERO PUSH2 0x1CB JUMPI PUSH0 DUP1 REVERT JUMPDEST POP PUSH2 0x1D4 PUSH2 0x6E4 JUMP JUMPDEST PUSH1 0x40 MLOAD PUSH2 0x1E1 SWAP2 SWAP1 PUSH2 0x24BA JUMP JUMPDEST PUSH1 0x40 MLOAD DUP1 SWAP2 SUB SWAP1 RETURN JUMPDEST CALLVALUE DUP1 ISZERO PUSH2 0x1F5 JUMPI PUSH0 DUP1 REVERT JUMPDEST POP PUSH2 0x210 PUSH1 0x4 DUP1 CALLDATASIZE SUB DUP2 ADD SWAP1 PUSH2 0x20B SWAP2 SWAP1 PUSH2 0x250D JUMP JUMPDEST PUSH2 0x773 JUMP JUMPDEST PUSH1 0x40 MLOAD PUSH2 0x21D SWAP2 SWAP1 PUSH2 0x2577 JUMP JUMPDEST PUSH1 0x40 MLOAD DUP1 SWAP2 SUB SWAP1 RETURN JUMPDEST CALLVALUE DUP1 ISZERO PUSH2 0x231 JUMPI PUSH0 DUP1 REVERT JUMPDEST POP PUSH2 0x24C PUSH1 0x4 DUP1 CALLDATASIZE SUB DUP2 ADD SWAP1 PUSH2 0x247 SWAP2 SWAP1 PUSH2 0x25BA JUMP JUMPDEST PUSH2 0x78E JUMP JUMPDEST STOP JUMPDEST CALLVALUE DUP1 ISZERO PUSH2 0x259 JUMPI PUSH0 DUP1 REVERT JUMPDEST POP PUSH2 0x274 PUSH1 0x4 DUP1 CALLDATASIZE SUB DUP2 ADD SWAP1 PUSH2 0x26F SWAP2 SWAP1 PUSH2 0x25F8 JUMP JUMPDEST PUSH2 0x7A4 JUMP JUMPDEST STOP JUMPDEST CALLVALUE DUP1 ISZERO PUSH2 0x281 JUMPI PUSH0 DUP1 REVERT JUMPDEST POP PUSH2 0x29C PUSH1 0x4 DUP1 CALLDATASIZE SUB DUP2 ADD SWAP1 PUSH2 0x297 SWAP2 SWAP1 PUSH2 0x250D JUMP JUMPDEST PUSH2 0x8A3 JUMP JUMPDEST PUSH1 0x40 MLOAD PUSH2 0x2AA SWAP3 SWAP2 SWAP1 PUSH2 0x2657 JUMP JUMPDEST PUSH1 0x40 MLOAD DUP1 SWAP2 SUB SWAP1 RETURN JUMPDEST CALLVALUE DUP1 ISZERO PUSH2 0x2BE JUMPI PUSH0 DUP1 REVERT JUMPDEST POP PUSH2 0x2D9 PUSH1 0x4 DUP1 CALLDATASIZE SUB DUP2 ADD SWAP1 PUSH2 0x2D4 SWAP2 SWAP1 PUSH2 0x267E JUMP JUMPDEST PUSH2 0x8E2 JUMP JUMPDEST PUSH1 0x40 MLOAD PUSH2 0x2E7 SWAP3 SWAP2 SWAP1 PUSH2 0x2657 JUMP JUMPDEST PUSH1 0x40 MLOAD DUP1 SWAP2 SUB SWAP1 RETURN JUMPDEST CALLVALUE DUP1 ISZERO PUSH2 0x2FB JUMPI PUSH0 DUP1 REVERT JUMPDEST POP PUSH2 0x304 PUSH2 0x930 JUMP JUMPDEST PUSH1 0x40 MLOAD PUSH2 0x311 SWAP2 SWAP1 PUSH2 0x26BC JUMP JUMPDEST PUSH1 0x40 MLOAD DUP1 SWAP2 SUB SWAP1 RETURN JUMPDEST CALLVALUE DUP1 ISZERO PUSH2 0x325 JUMPI PUSH0 DUP1 REVERT JUMPDEST POP PUSH2 0x340 PUSH1 0x4 DUP1 CALLDATASIZE SUB DUP2 ADD SWAP1 PUSH2 0x33B SWAP2 SWAP1 PUSH2 0x25F8 JUMP JUMPDEST PUSH2 0x940 JUMP JUMPDEST STOP JUMPDEST CALLVALUE DUP1 ISZERO PUSH2 0x34D JUMPI PUSH0 DUP1 REVERT JUMPDEST POP PUSH2 0x368 PUSH1 0x4 DUP1 CALLDATASIZE SUB DUP2 ADD SWAP1 PUSH2 0x363 SWAP2 SWAP1 PUSH2 0x2801 JUMP JUMPDEST PUSH2 0x95F JUMP JUMPDEST STOP JUMPDEST CALLVALUE DUP1 ISZERO PUSH2 0x375 JUMPI PUSH0 DUP1 REVERT JUMPDEST POP PUSH2 0x390 PUSH1 0x4 DUP1 CALLDATASIZE SUB DUP2 ADD SWAP1 PUSH2 0x38B SWAP2 SWAP1 PUSH2 0x250D JUMP JUMPDEST PUSH2 0x972 JUMP JUMPDEST PUSH1 0x40 MLOAD PUSH2 0x39D SWAP2 SWAP1 PUSH2 0x26BC JUMP JUMPDEST PUSH1 0x40 MLOAD DUP1 SWAP2 SUB SWAP1 RETURN JUMPDEST CALLVALUE DUP1 ISZERO PUSH2 0x3B1 JUMPI PUSH0 DUP1 REVERT JUMPDEST POP PUSH2 0x3CC PUSH1 0x4 DUP1 CALLDATASIZE SUB DUP2 ADD SWAP1 PUSH2 0x3C7 SWAP2 SWAP1 PUSH2 0x2848 JUMP JUMPDEST PUSH2 0x9FD JUMP JUMPDEST STOP JUMPDEST CALLVALUE DUP1 ISZERO PUSH2 0x3D9 JUMPI PUSH0 DUP1 REVERT JUMPDEST POP PUSH2 0x3F4 PUSH1 0x4 DUP1 CALLDATASIZE SUB DUP2 ADD SWAP1 PUSH2 0x3EF SWAP2 SWAP1 PUSH2 0x250D JUMP JUMPDEST PUSH2 0xB1D JUMP JUMPDEST PUSH1 0x40 MLOAD PUSH2 0x401 SWAP2 SWAP1 PUSH2 0x2577 JUMP JUMPDEST PUSH1 0x40 MLOAD DUP1 SWAP2 SUB SWAP1 RETURN JUMPDEST CALLVALUE DUP1 ISZERO PUSH2 0x415 JUMPI PUSH0 DUP1 REVERT JUMPDEST POP PUSH2 0x430 PUSH1 0x4 DUP1 CALLDATASIZE SUB DUP2 ADD SWAP1 PUSH2 0x42B SWAP2 SWAP1 PUSH2 0x28A2 JUMP JUMPDEST PUSH2 0xB2E JUMP JUMPDEST PUSH1 0x40 MLOAD PUSH2 0x43D SWAP2 SWAP1 PUSH2 0x26BC JUMP JUMPDEST PUSH1 0x40 MLOAD DUP1 SWAP2 SUB SWAP1 RETURN JUMPDEST CALLVALUE DUP1 ISZERO PUSH2 0x451 JUMPI PUSH0 DUP1 REVERT JUMPDEST POP PUSH2 0x46C PUSH1 0x4 DUP1 CALLDATASIZE SUB DUP2 ADD SWAP1 PUSH2 0x467 SWAP2 SWAP1 PUSH2 0x250D JUMP JUMPDEST PUSH2 0xBE4 JUMP JUMPDEST PUSH1 0x40 MLOAD PUSH2 0x479 SWAP2 SWAP1 PUSH2 0x2417 JUMP JUMPDEST PUSH1 0x40 MLOAD DUP1 SWAP2 SUB SWAP1 RETURN JUMPDEST CALLVALUE DUP1 ISZERO PUSH2 0x48D JUMPI PUSH0 DUP1 REVERT JUMPDEST POP PUSH2 0x496 PUSH2 0xC52 JUMP JUMPDEST PUSH1 0x40 MLOAD PUSH2 0x4A3 SWAP2 SWAP1 PUSH2 0x26BC JUMP JUMPDEST PUSH1 0x40 MLOAD DUP1 SWAP2 SUB SWAP1 RETURN JUMPDEST CALLVALUE DUP1 ISZERO PUSH2 0x4B7 JUMPI PUSH0 DUP1 REVERT JUMPDEST POP PUSH2 0x4C0 PUSH2 0xC58 JUMP JUMPDEST PUSH1 0x40 MLOAD PUSH2 0x4CD SWAP2 SWAP1 PUSH2 0x24BA JUMP JUMPDEST PUSH1 0x40 MLOAD DUP1 SWAP2 SUB SWAP1 RETURN JUMPDEST CALLVALUE DUP1 ISZERO PUSH2 0x4E1 JUMPI PUSH0 DUP1 REVERT JUMPDEST POP PUSH2 0x4FC PUSH1 0x4 DUP1 CALLDATASIZE SUB DUP2 ADD SWAP1 PUSH2 0x4F7 SWAP2 SWAP1 PUSH2 0x28F7 JUMP JUMPDEST PUSH2 0xCE8 JUMP JUMPDEST STOP JUMPDEST PUSH2 0x518 PUSH1 0x4 DUP1 CALLDATASIZE SUB DUP2 ADD SWAP1 PUSH2 0x513 SWAP2 SWAP1 PUSH2 0x250D JUMP JUMPDEST PUSH2 0xCFE JUMP JUMPDEST STOP JUMPDEST CALLVALUE DUP1 ISZERO PUSH2 0x525 JUMPI PUSH0 DUP1 REVERT JUMPDEST POP PUSH2 0x540 PUSH1 0x4 DUP1 CALLDATASIZE SUB DUP2 ADD SWAP1 PUSH2 0x53B SWAP2 SWAP1 PUSH2 0x250D JUMP JUMPDEST PUSH2 0xF58 JUMP JUMPDEST STOP JUMPDEST CALLVALUE DUP1 ISZERO PUSH2 0x54D JUMPI PUSH0 DUP1 REVERT JUMPDEST POP PUSH2 0x568 PUSH1 0x4 DUP1 CALLDATASIZE SUB DUP2 ADD SWAP1 PUSH2 0x563 SWAP2 SWAP1 PUSH2 0x29D3 JUMP JUMPDEST PUSH2 0x1035 JUMP JUMPDEST STOP JUMPDEST CALLVALUE DUP1 ISZERO PUSH2 0x575 JUMPI PUSH0 DUP1 REVERT JUMPDEST POP PUSH2 0x590 PUSH1 0x4 DUP1 CALLDATASIZE SUB DUP2 ADD SWAP1 PUSH2 0x58B SWAP2 SWAP1 PUSH2 0x250D JUMP JUMPDEST PUSH2 0x1052 JUMP JUMPDEST PUSH1 0x40 MLOAD PUSH2 0x59D SWAP2 SWAP1 PUSH2 0x24BA JUMP JUMPDEST PUSH1 0x40 MLOAD DUP1 SWAP2 SUB SWAP1 RETURN JUMPDEST CALLVALUE DUP1 ISZERO PUSH2 0x5B1 JUMPI PUSH0 DUP1 REVERT JUMPDEST POP PUSH2 0x5BA PUSH2 0x115D JUMP JUMPDEST PUSH1 0x40 MLOAD PUSH2 0x5C7 SWAP2 SWAP1 PUSH2 0x24BA JUMP JUMPDEST PUSH1 0x40 MLOAD DUP1 SWAP2 SUB SWAP1 RETURN JUMPDEST CALLVALUE DUP1 ISZERO PUSH2 0x5DB JUMPI PUSH0 DUP1 REVERT JUMPDEST POP PUSH2 0x5F6 PUSH1 0x4 DUP1 CALLDATASIZE SUB DUP2 ADD SWAP1 PUSH2 0x5F1 SWAP2 SWAP1 PUSH2 0x2A53 JUMP JUMPDEST PUSH2 0x11E9 JUMP JUMPDEST PUSH1 0x40 MLOAD PUSH2 0x603 SWAP2 SWAP1 PUSH2 0x2417 JUMP JUMPDEST PUSH1 0x40 MLOAD DUP1 SWAP2 SUB SWAP1 RETURN JUMPDEST CALLVALUE DUP1 ISZERO PUSH2 0x617 JUMPI PUSH0 DUP1 REVERT JUMPDEST POP PUSH2 0x632 PUSH1 0x4 DUP1 CALLDATASIZE SUB DUP2 ADD SWAP1 PUSH2 0x62D SWAP2 SWAP1 PUSH2 0x250D JUMP JUMPDEST PUSH2 0x1277 JUMP JUMPDEST PUSH1 0x40 MLOAD PUSH2 0x63F SWAP2 SWAP1 PUSH2 0x2417 JUMP JUMPDEST PUSH1 0x40 MLOAD DUP1 SWAP2 SUB SWAP1 RETURN JUMPDEST CALLVALUE DUP1 ISZERO PUSH2 0x653 JUMPI PUSH0 DUP1 REVERT JUMPDEST POP PUSH2 0x66E PUSH1 0x4 DUP1 CALLDATASIZE SUB DUP2 ADD SWAP1 PUSH2 0x669 SWAP2 SWAP1 PUSH2 0x28A2 JUMP JUMPDEST PUSH2 0x12E5 JUMP JUMPDEST PUSH1 0x40 MLOAD PUSH2 0x67B SWAP2 SWAP1 PUSH2 0x26BC JUMP JUMPDEST PUSH1 0x40 MLOAD DUP1 SWAP2 SUB SWAP1 RETURN JUMPDEST PUSH0 PUSH4 0x49064906 PUSH1 0xE0 SHL PUSH28 0xFFFFFFFFFFFFFFFFFFFFFFFFFFFFFFFFFFFFFFFFFFFFFFFFFFFFFFFF NOT AND DUP3 PUSH28 0xFFFFFFFFFFFFFFFFFFFFFFFFFFFFFFFFFFFFFFFFFFFFFFFFFFFFFFFF NOT AND EQ DUP1 PUSH2 0x6DD JUMPI POP PUSH2 0x6DC DUP3 PUSH2 0x1305 JUMP JUMPDEST JUMPDEST SWAP1 POP SWAP2 SWAP1 POP JUMP JUMPDEST PUSH1 0x60 PUSH0 DUP1 SLOAD PUSH2 0x6F2 SWAP1 PUSH2 0x2ABE JUMP JUMPDEST DUP1 PUSH1 0x1F ADD PUSH1 0x20 DUP1 SWAP2 DIV MUL PUSH1 0x20 ADD PUSH1 0x40 MLOAD SWAP1 DUP2 ADD PUSH1 0x40 MSTORE DUP1 SWAP3 SWAP2 SWAP1 DUP2 DUP2 MSTORE PUSH1 0x20 ADD DUP3 DUP1 SLOAD PUSH2 0x71E SWAP1 PUSH2 0x2ABE JUMP JUMPDEST DUP1 ISZERO PUSH2 0x769 JUMPI DUP1 PUSH1 0x1F LT PUSH2 0x740 JUMPI PUSH2 0x100 DUP1 DUP4 SLOAD DIV MUL DUP4 MSTORE SWAP2 PUSH1 0x20 ADD SWAP2 PUSH2 0x769 JUMP JUMPDEST DUP3 ADD SWAP2 SWAP1 PUSH0 MSTORE PUSH1 0x20 PUSH0 KECCAK256 SWAP1 JUMPDEST DUP2 SLOAD DUP2 MSTORE SWAP1 PUSH1 0x1 ADD SWAP1 PUSH1 0x20 ADD DUP1 DUP4 GT PUSH2 0x74C JUMPI DUP3 SWAP1 SUB PUSH1 0x1F AND DUP3 ADD SWAP2 JUMPDEST POP POP POP POP POP SWAP1 POP SWAP1 JUMP JUMPDEST PUSH0 PUSH2 0x77D DUP3 PUSH2 0x13E6 JUMP JUMPDEST POP PUSH2 0x787 DUP3 PUSH2 0x146C JUMP JUMPDEST SWAP1 POP SWAP2 SWAP1 POP JUMP JUMPDEST PUSH2 0x7A0 DUP3 DUP3 PUSH2 0x79B PUSH2 0x14A5 JUMP JUMPDEST PUSH2 0x14AC JUMP JUMPDEST POP POP JUMP JUMPDEST PUSH0 PUSH20 0xFFFFFFFFFFFFFFFFFFFFFFFFFFFFFFFFFFFFFFFF AND DUP3 PUSH20 0xFFFFFFFFFFFFFFFFFFFFFFFFFFFFFFFFFFFFFFFF AND SUB PUSH2 0x814 JUMPI PUSH0 PUSH1 0x40 MLOAD PUSH32 0x64A0AE9200000000000000000000000000000000000000000000000000000000 DUP2 MSTORE PUSH1 0x4 ADD PUSH2 0x80B SWAP2 SWAP1 PUSH2 0x2577 JUMP JUMPDEST PUSH1 0x40 MLOAD DUP1 SWAP2 SUB SWAP1 REVERT JUMPDEST PUSH0 PUSH2 0x827 DUP4 DUP4 PUSH2 0x822 PUSH2 0x14A5 JUMP JUMPDEST PUSH2 0x14BE JUMP JUMPDEST SWAP1 POP DUP4 PUSH20 0xFFFFFFFFFFFFFFFFFFFFFFFFFFFFFFFFFFFFFFFF AND DUP2 PUSH20 0xFFFFFFFFFFFFFFFFFFFFFFFFFFFFFFFFFFFFFFFF AND EQ PUSH2 0x89D JUMPI DUP4 DUP3 DUP3 PUSH1 0x40 MLOAD PUSH32 0x64283D7B00000000000000000000000000000000000000000000000000000000 DUP2 MSTORE PUSH1 0x4 ADD PUSH2 0x894 SWAP4 SWAP3 SWAP2 SWAP1 PUSH2 0x2AEE JUMP JUMPDEST PUSH1 0x40 MLOAD DUP1 SWAP2 SUB SWAP1 REVERT JUMPDEST POP POP POP POP JUMP JUMPDEST PUSH1 0xD PUSH1 0x20 MSTORE DUP1 PUSH0 MSTORE PUSH1 0x40 PUSH0 KECCAK256 PUSH0 SWAP2 POP SWAP1 POP DUP1 PUSH0 ADD PUSH0 SWAP1 SLOAD SWAP1 PUSH2 0x100 EXP SWAP1 DIV PUSH20 0xFFFFFFFFFFFFFFFFFFFFFFFFFFFFFFFFFFFFFFFF AND SWAP1 DUP1 PUSH1 0x1 ADD SLOAD SWAP1 POP DUP3 JUMP JUMPDEST PUSH0 DUP1 PUSH0 PUSH1 0x64 PUSH1 0x9 SLOAD DUP6 PUSH2 0x8F5 SWAP2 SWAP1 PUSH2 0x2B50 JUMP JUMPDEST PUSH2 0x8FF SWAP2 SWAP1 PUSH2 0x2BBE JUMP JUMPDEST SWAP1 POP PUSH1 0xA PUSH0 SWAP1 SLOAD SWAP1 PUSH2 0x100 EXP SWAP1 DIV PUSH20 0xFFFFFFFFFFFFFFFFFFFFFFFFFFFFFFFFFFFFFFFF AND DUP2 SWAP3 POP SWAP3 POP POP SWAP3 POP SWAP3 SWAP1 POP JUMP JUMPDEST PUSH0 PUSH2 0x93B PUSH1 0x7 PUSH2 0x16C9 JUMP JUMPDEST SWAP1 POP SWAP1 JUMP JUMPDEST PUSH2 0x95A DUP4 DUP4 DUP4 PUSH1 0x40 MLOAD DUP1 PUSH1 0x20 ADD PUSH1 0x40 MSTORE DUP1 PUSH0 DUP2 MSTORE POP PUSH2 0x1035 JUMP JUMPDEST POP POP POP JUMP JUMPDEST DUP1 PUSH1 0x8 SWAP1 DUP2 PUSH2 0x96E SWAP2 SWAP1 PUSH2 0x2D8B JUMP JUMPDEST POP POP JUMP JUMPDEST PUSH0 DUP1 PUSH1 0xD PUSH0 DUP5 DUP2 MSTORE PUSH1 0x20 ADD SWAP1 DUP2 MSTORE PUSH1 0x20 ADD PUSH0 KECCAK256 PUSH1 0x40 MLOAD DUP1 PUSH1 0x40 ADD PUSH1 0x40 MSTORE SWAP1 DUP2 PUSH0 DUP3 ADD PUSH0 SWAP1 SLOAD SWAP1 PUSH2 0x100 EXP SWAP1 DIV PUSH20 0xFFFFFFFFFFFFFFFFFFFFFFFFFFFFFFFFFFFFFFFF AND PUSH20 0xFFFFFFFFFFFFFFFFFFFFFFFFFFFFFFFFFFFFFFFF AND PUSH20 0xFFFFFFFFFFFFFFFFFFFFFFFFFFFFFFFFFFFFFFFF AND DUP2 MSTORE PUSH1 0x20 ADD PUSH1 0x1 DUP3 ADD SLOAD DUP2 MSTORE POP POP SWAP1 POP DUP1 PUSH1 0x20 ADD MLOAD SWAP2 POP POP SWAP2 SWAP1 POP JUMP JUMPDEST PUSH0 PUSH2 0xA08 PUSH1 0x7 PUSH2 0x16C9 JUMP JUMPDEST SWAP1 POP PUSH2 0xA14 CALLER DUP3 PUSH2 0x16D5 JUMP JUMPDEST PUSH2 0xA1E DUP2 DUP5 PUSH2 0x16F2 JUMP JUMPDEST PUSH1 0x40 MLOAD DUP1 PUSH1 0x40 ADD PUSH1 0x40 MSTORE DUP1 CALLER PUSH20 0xFFFFFFFFFFFFFFFFFFFFFFFFFFFFFFFFFFFFFFFF AND DUP2 MSTORE PUSH1 0x20 ADD DUP4 DUP2 MSTORE POP PUSH1 0xD PUSH0 DUP4 DUP2 MSTORE PUSH1 0x20 ADD SWAP1 DUP2 MSTORE PUSH1 0x20 ADD PUSH0 KECCAK256 PUSH0 DUP3 ADD MLOAD DUP2 PUSH0 ADD PUSH0 PUSH2 0x100 EXP DUP2 SLOAD DUP2 PUSH20 0xFFFFFFFFFFFFFFFFFFFFFFFFFFFFFFFFFFFFFFFF MUL NOT AND SWAP1 DUP4 PUSH20 0xFFFFFFFFFFFFFFFFFFFFFFFFFFFFFFFFFFFFFFFF AND MUL OR SWAP1 SSTORE POP PUSH1 0x20 DUP3 ADD MLOAD DUP2 PUSH1 0x1 ADD SSTORE SWAP1 POP POP PUSH0 PUSH1 0xC PUSH0 CALLER PUSH20 0xFFFFFFFFFFFFFFFFFFFFFFFFFFFFFFFFFFFFFFFF AND PUSH20 0xFFFFFFFFFFFFFFFFFFFFFFFFFFFFFFFFFFFFFFFF AND DUP2 MSTORE PUSH1 0x20 ADD SWAP1 DUP2 MSTORE PUSH1 0x20 ADD PUSH0 KECCAK256 PUSH0 DUP4 DUP2 MSTORE PUSH1 0x20 ADD SWAP1 DUP2 MSTORE PUSH1 0x20 ADD PUSH0 KECCAK256 PUSH0 PUSH2 0x100 EXP DUP2 SLOAD DUP2 PUSH1 0xFF MUL NOT AND SWAP1 DUP4 ISZERO ISZERO MUL OR SWAP1 SSTORE POP PUSH2 0xB18 PUSH1 0x7 PUSH2 0x174C JUMP JUMPDEST POP POP POP JUMP JUMPDEST PUSH0 PUSH2 0xB27 DUP3 PUSH2 0x13E6 JUMP JUMPDEST SWAP1 POP SWAP2 SWAP1 POP JUMP JUMPDEST PUSH0 DUP1 PUSH20 0xFFFFFFFFFFFFFFFFFFFFFFFFFFFFFFFFFFFFFFFF AND DUP3 PUSH20 0xFFFFFFFFFFFFFFFFFFFFFFFFFFFFFFFFFFFFFFFF AND SUB PUSH2 0xB9F JUMPI PUSH0 PUSH1 0x40 MLOAD PUSH32 0x89C62B6400000000000000000000000000000000000000000000000000000000 DUP2 MSTORE PUSH1 0x4 ADD PUSH2 0xB96 SWAP2 SWAP1 PUSH2 0x2577 JUMP JUMPDEST PUSH1 0x40 MLOAD DUP1 SWAP2 SUB SWAP1 REVERT JUMPDEST PUSH1 0x3 PUSH0 DUP4 PUSH20 0xFFFFFFFFFFFFFFFFFFFFFFFFFFFFFFFFFFFFFFFF AND PUSH20 0xFFFFFFFFFFFFFFFFFFFFFFFFFFFFFFFFFFFFFFFF AND DUP2 MSTORE PUSH1 0x20 ADD SWAP1 DUP2 MSTORE PUSH1 0x20 ADD PUSH0 KECCAK256 SLOAD SWAP1 POP SWAP2 SWAP1 POP JUMP JUMPDEST PUSH0 DUP1 PUSH2 0xBEF DUP4 PUSH2 0xB1D JUMP JUMPDEST SWAP1 POP PUSH1 0xC PUSH0 DUP3 PUSH20 0xFFFFFFFFFFFFFFFFFFFFFFFFFFFFFFFFFFFFFFFF AND PUSH20 0xFFFFFFFFFFFFFFFFFFFFFFFFFFFFFFFFFFFFFFFF AND DUP2 MSTORE PUSH1 0x20 ADD SWAP1 DUP2 MSTORE PUSH1 0x20 ADD PUSH0 KECCAK256 PUSH0 DUP5 DUP2 MSTORE PUSH1 0x20 ADD SWAP1 DUP2 MSTORE PUSH1 0x20 ADD PUSH0 KECCAK256 PUSH0 SWAP1 SLOAD SWAP1 PUSH2 0x100 EXP SWAP1 DIV PUSH1 0xFF AND SWAP2 POP POP SWAP2 SWAP1 POP JUMP JUMPDEST PUSH1 0x9 SLOAD DUP2 JUMP JUMPDEST PUSH1 0x60 PUSH1 0x1 DUP1 SLOAD PUSH2 0xC67 SWAP1 PUSH2 0x2ABE JUMP JUMPDEST DUP1 PUSH1 0x1F ADD PUSH1 0x20 DUP1 SWAP2 DIV MUL PUSH1 0x20 ADD PUSH1 0x40 MLOAD SWAP1 DUP2 ADD PUSH1 0x40 MSTORE DUP1 SWAP3 SWAP2 SWAP1 DUP2 DUP2 MSTORE PUSH1 0x20 ADD DUP3 DUP1 SLOAD PUSH2 0xC93 SWAP1 PUSH2 0x2ABE JUMP JUMPDEST DUP1 ISZERO PUSH2 0xCDE JUMPI DUP1 PUSH1 0x1F LT PUSH2 0xCB5 JUMPI PUSH2 0x100 DUP1 DUP4 SLOAD DIV MUL DUP4 MSTORE SWAP2 PUSH1 0x20 ADD SWAP2 PUSH2 0xCDE JUMP JUMPDEST DUP3 ADD SWAP2 SWAP1 PUSH0 MSTORE PUSH1 0x20 PUSH0 KECCAK256 SWAP1 JUMPDEST DUP2 SLOAD DUP2 MSTORE SWAP1 PUSH1 0x1 ADD SWAP1 PUSH1 0x20 ADD DUP1 DUP4 GT PUSH2 0xCC1 JUMPI DUP3 SWAP1 SUB PUSH1 0x1F AND DUP3 ADD SWAP2 JUMPDEST POP POP POP POP POP SWAP1 POP SWAP1 JUMP JUMPDEST PUSH2 0xCFA PUSH2 0xCF3 PUSH2 0x14A5 JUMP JUMPDEST DUP4 DUP4 PUSH2 0x1760 JUMP JUMPDEST POP POP JUMP JUMPDEST PUSH0 PUSH2 0xD08 DUP3 PUSH2 0xB1D JUMP JUMPDEST SWAP1 POP PUSH1 0x1 ISZERO ISZERO PUSH1 0xB PUSH0 DUP4 PUSH20 0xFFFFFFFFFFFFFFFFFFFFFFFFFFFFFFFFFFFFFFFF AND PUSH20 0xFFFFFFFFFFFFFFFFFFFFFFFFFFFFFFFFFFFFFFFF AND DUP2 MSTORE PUSH1 0x20 ADD SWAP1 DUP2 MSTORE PUSH1 0x20 ADD PUSH0 KECCAK256 PUSH0 DUP5 DUP2 MSTORE PUSH1 0x20 ADD SWAP1 DUP2 MSTORE PUSH1 0x20 ADD PUSH0 KECCAK256 PUSH0 SWAP1 SLOAD SWAP1 PUSH2 0x100 EXP SWAP1 DIV PUSH1 0xFF AND ISZERO ISZERO EQ PUSH2 0xDA9 JUMPI PUSH1 0x40 MLOAD PUSH32 0x8C379A000000000000000000000000000000000000000000000000000000000 DUP2 MSTORE PUSH1 0x4 ADD PUSH2 0xDA0 SWAP1 PUSH2 0x2EA4 JUMP JUMPDEST PUSH1 0x40 MLOAD DUP1 SWAP2 SUB SWAP1 REVERT JUMPDEST PUSH0 CALLER SWAP1 POP PUSH0 PUSH1 0xD PUSH0 DUP6 DUP2 MSTORE PUSH1 0x20 ADD SWAP1 DUP2 MSTORE PUSH1 0x20 ADD PUSH0 KECCAK256 PUSH1 0x1 ADD SLOAD SWAP1 POP DUP2 PUSH20 0xFFFFFFFFFFFFFFFFFFFFFFFFFFFFFFFFFFFFFFFF AND DUP4 PUSH20 0xFFFFFFFFFFFFFFFFFFFFFFFFFFFFFFFFFFFFFFFF AND SUB PUSH2 0xE33 JUMPI PUSH1 0x40 MLOAD PUSH32 0x8C379A000000000000000000000000000000000000000000000000000000000 DUP2 MSTORE PUSH1 0x4 ADD PUSH2 0xE2A SWAP1 PUSH2 0x2F0C JUMP JUMPDEST PUSH1 0x40 MLOAD DUP1 SWAP2 SUB SWAP1 REVERT JUMPDEST DUP1 CALLVALUE EQ PUSH2 0xE75 JUMPI PUSH1 0x40 MLOAD PUSH32 0x8C379A000000000000000000000000000000000000000000000000000000000 DUP2 MSTORE PUSH1 0x4 ADD PUSH2 0xE6C SWAP1 PUSH2 0x2F74 JUMP JUMPDEST PUSH1 0x40 MLOAD DUP1 SWAP2 SUB SWAP1 REVERT JUMPDEST PUSH2 0xE80 DUP4 DUP4 DUP7 PUSH2 0x18C9 JUMP JUMPDEST PUSH0 PUSH1 0x64 PUSH1 0x9 SLOAD DUP4 PUSH2 0xE91 SWAP2 SWAP1 PUSH2 0x2B50 JUMP JUMPDEST PUSH2 0xE9B SWAP2 SWAP1 PUSH2 0x2BBE JUMP JUMPDEST SWAP1 POP PUSH1 0xA PUSH0 SWAP1 SLOAD SWAP1 PUSH2 0x100 EXP SWAP1 DIV PUSH20 0xFFFFFFFFFFFFFFFFFFFFFFFFFFFFFFFFFFFFFFFF AND PUSH20 0xFFFFFFFFFFFFFFFFFFFFFFFFFFFFFFFFFFFFFFFF AND PUSH2 0x8FC DUP3 SWAP1 DUP2 ISZERO MUL SWAP1 PUSH1 0x40 MLOAD PUSH0 PUSH1 0x40 MLOAD DUP1 DUP4 SUB DUP2 DUP6 DUP9 DUP9 CALL SWAP4 POP POP POP POP ISZERO DUP1 ISZERO PUSH2 0xF01 JUMPI RETURNDATASIZE PUSH0 DUP1 RETURNDATACOPY RETURNDATASIZE PUSH0 REVERT JUMPDEST POP DUP4 PUSH20 0xFFFFFFFFFFFFFFFFFFFFFFFFFFFFFFFFFFFFFFFF AND PUSH2 0x8FC DUP3 DUP5 PUSH2 0xF28 SWAP2 SWAP1 PUSH2 0x2F92 JUMP JUMPDEST SWAP1 DUP2 ISZERO MUL SWAP1 PUSH1 0x40 MLOAD PUSH0 PUSH1 0x40 MLOAD DUP1 DUP4 SUB DUP2 DUP6 DUP9 DUP9 CALL SWAP4 POP POP POP POP ISZERO DUP1 ISZERO PUSH2 0xF50 JUMPI RETURNDATASIZE PUSH0 DUP1 RETURNDATACOPY RETURNDATASIZE PUSH0 REVERT JUMPDEST POP POP POP POP POP POP JUMP JUMPDEST PUSH2 0xF61 DUP2 PUSH2 0xB1D JUMP JUMPDEST PUSH20 0xFFFFFFFFFFFFFFFFFFFFFFFFFFFFFFFFFFFFFFFF AND CALLER PUSH20 0xFFFFFFFFFFFFFFFFFFFFFFFFFFFFFFFFFFFFFFFF AND EQ PUSH2 0xFCE JUMPI PUSH1 0x40 MLOAD PUSH32 0x8C379A000000000000000000000000000000000000000000000000000000000 DUP2 MSTORE PUSH1 0x4 ADD PUSH2 0xFC5 SWAP1 PUSH2 0x300F JUMP JUMPDEST PUSH1 0x40 MLOAD DUP1 SWAP2 SUB SWAP1 REVERT JUMPDEST PUSH1 0x1 PUSH1 0xB PUSH0 CALLER PUSH20 0xFFFFFFFFFFFFFFFFFFFFFFFFFFFFFFFFFFFFFFFF AND PUSH20 0xFFFFFFFFFFFFFFFFFFFFFFFFFFFFFFFFFFFFFFFF AND DUP2 MSTORE PUSH1 0x20 ADD SWAP1 DUP2 MSTORE PUSH1 0x20 ADD PUSH0 KECCAK256 PUSH0 DUP4 DUP2 MSTORE PUSH1 0x20 ADD SWAP1 DUP2 MSTORE PUSH1 0x20 ADD PUSH0 KECCAK256 PUSH0 PUSH2 0x100 EXP DUP2 SLOAD DUP2 PUSH1 0xFF MUL NOT AND SWAP1 DUP4 ISZERO ISZERO MUL OR SWAP1 SSTORE POP POP JUMP JUMPDEST PUSH2 0x1040 DUP5 DUP5 DUP5 PUSH2 0x7A4 JUMP JUMPDEST PUSH2 0x104C DUP5 DUP5 DUP5 DUP5 PUSH2 0x1A31 JUMP JUMPDEST POP POP POP POP JUMP JUMPDEST PUSH1 0x60 PUSH2 0x105D DUP3 PUSH2 0x13E6 JUMP JUMPDEST POP PUSH0 PUSH1 0x6 PUSH0 DUP5 DUP2 MSTORE PUSH1 0x20 ADD SWAP1 DUP2 MSTORE PUSH1 0x20 ADD PUSH0 KECCAK256 DUP1 SLOAD PUSH2 0x107B SWAP1 PUSH2 0x2ABE JUMP JUMPDEST DUP1 PUSH1 0x1F ADD PUSH1 0x20 DUP1 SWAP2 DIV MUL PUSH1 0x20 ADD PUSH1 0x40 MLOAD SWAP1 DUP2 ADD PUSH1 0x40 MSTORE DUP1 SWAP3 SWAP2 SWAP1 DUP2 DUP2 MSTORE PUSH1 0x20 ADD DUP3 DUP1 SLOAD PUSH2 0x10A7 SWAP1 PUSH2 0x2ABE JUMP JUMPDEST DUP1 ISZERO PUSH2 0x10F2 JUMPI DUP1 PUSH1 0x1F LT PUSH2 0x10C9 JUMPI PUSH2 0x100 DUP1 DUP4 SLOAD DIV MUL DUP4 MSTORE SWAP2 PUSH1 0x20 ADD SWAP2 PUSH2 0x10F2 JUMP JUMPDEST DUP3 ADD SWAP2 SWAP1 PUSH0 MSTORE PUSH1 0x20 PUSH0 KECCAK256 SWAP1 JUMPDEST DUP2 SLOAD DUP2 MSTORE SWAP1 PUSH1 0x1 ADD SWAP1 PUSH1 0x20 ADD DUP1 DUP4 GT PUSH2 0x10D5 JUMPI DUP3 SWAP1 SUB PUSH1 0x1F AND DUP3 ADD SWAP2 JUMPDEST POP POP POP POP POP SWAP1 POP PUSH0 PUSH2 0x1102 PUSH2 0x1BE3 JUMP JUMPDEST SWAP1 POP PUSH0 DUP2 MLOAD SUB PUSH2 0x1116 JUMPI DUP2 SWAP3 POP POP POP PUSH2 0x1158 JUMP JUMPDEST PUSH0 DUP3 MLOAD GT ISZERO PUSH2 0x114A JUMPI DUP1 DUP3 PUSH1 0x40 MLOAD PUSH1 0x20 ADD PUSH2 0x1132 SWAP3 SWAP2 SWAP1 PUSH2 0x3067 JUMP JUMPDEST PUSH1 0x40 MLOAD PUSH1 0x20 DUP2 DUP4 SUB SUB DUP2 MSTORE SWAP1 PUSH1 0x40 MSTORE SWAP3 POP POP POP PUSH2 0x1158 JUMP JUMPDEST PUSH2 0x1153 DUP5 PUSH2 0x1BF9 JUMP JUMPDEST SWAP3 POP POP POP JUMPDEST SWAP2 SWAP1 POP JUMP JUMPDEST PUSH1 0x8 DUP1 SLOAD PUSH2 0x116A SWAP1 PUSH2 0x2ABE JUMP JUMPDEST DUP1 PUSH1 0x1F ADD PUSH1 0x20 DUP1 SWAP2 DIV MUL PUSH1 0x20 ADD PUSH1 0x40 MLOAD SWAP1 DUP2 ADD PUSH1 0x40 MSTORE DUP1 SWAP3 SWAP2 SWAP1 DUP2 DUP2 MSTORE PUSH1 0x20 ADD DUP3 DUP1 SLOAD PUSH2 0x1196 SWAP1 PUSH2 0x2ABE JUMP JUMPDEST DUP1 ISZERO PUSH2 0x11E1 JUMPI DUP1 PUSH1 0x1F LT PUSH2 0x11B8 JUMPI PUSH2 0x100 DUP1 DUP4 SLOAD DIV MUL DUP4 MSTORE SWAP2 PUSH1 0x20 ADD SWAP2 PUSH2 0x11E1 JUMP JUMPDEST DUP3 ADD SWAP2 SWAP1 PUSH0 MSTORE PUSH1 0x20 PUSH0 KECCAK256 SWAP1 JUMPDEST DUP2 SLOAD DUP2 MSTORE SWAP1 PUSH1 0x1 ADD SWAP1 PUSH1 0x20 ADD DUP1 DUP4 GT PUSH2 0x11C4 JUMPI DUP3 SWAP1 SUB PUSH1 0x1F AND DUP3 ADD SWAP2 JUMPDEST POP POP POP POP POP DUP2 JUMP JUMPDEST PUSH0 PUSH1 0x5 PUSH0 DUP5 PUSH20 0xFFFFFFFFFFFFFFFFFFFFFFFFFFFFFFFFFFFFFFFF AND PUSH20 0xFFFFFFFFFFFFFFFFFFFFFFFFFFFFFFFFFFFFFFFF AND DUP2 MSTORE PUSH1 0x20 ADD SWAP1 DUP2 MSTORE PUSH1 0x20 ADD PUSH0 KECCAK256 PUSH0 DUP4 PUSH20 0xFFFFFFFFFFFFFFFFFFFFFFFFFFFFFFFFFFFFFFFF AND PUSH20 0xFFFFFFFFFFFFFFFFFFFFFFFFFFFFFFFFFFFFFFFF AND DUP2 MSTORE PUSH1 0x20 ADD SWAP1 DUP2 MSTORE PUSH1 0x20 ADD PUSH0 KECCAK256 PUSH0 SWAP1 SLOAD SWAP1 PUSH2 0x100 EXP SWAP1 DIV PUSH1 0xFF AND SWAP1 POP SWAP3 SWAP2 POP POP JUMP JUMPDEST PUSH0 DUP1 PUSH2 0x1282 DUP4 PUSH2 0xB1D JUMP JUMPDEST SWAP1 POP PUSH1 0xB PUSH0 DUP3 PUSH20 0xFFFFFFFFFFFFFFFFFFFFFFFFFFFFFFFFFFFFFFFF AND PUSH20 0xFFFFFFFFFFFFFFFFFFFFFFFFFFFFFFFFFFFFFFFF AND DUP2 MSTORE PUSH1 0x20 ADD SWAP1 DUP2 MSTORE PUSH1 0x20 ADD PUSH0 KECCAK256 PUSH0 DUP5 DUP2 MSTORE PUSH1 0x20 ADD SWAP1 DUP2 MSTORE PUSH1 0x20 ADD PUSH0 KECCAK256 PUSH0 SWAP1 SLOAD SWAP1 PUSH2 0x100 EXP SWAP1 DIV PUSH1 0xFF AND SWAP2 POP POP SWAP2 SWAP1 POP JUMP JUMPDEST PUSH0 DUP2 PUSH20 0xFFFFFFFFFFFFFFFFFFFFFFFFFFFFFFFFFFFFFFFF AND BALANCE SWAP1 POP SWAP2 SWAP1 POP JUMP JUMPDEST PUSH0 PUSH32 0x80AC58CD00000000000000000000000000000000000000000000000000000000 PUSH28 0xFFFFFFFFFFFFFFFFFFFFFFFFFFFFFFFFFFFFFFFFFFFFFFFFFFFFFFFF NOT AND DUP3 PUSH28 0xFFFFFFFFFFFFFFFFFFFFFFFFFFFFFFFFFFFFFFFFFFFFFFFFFFFFFFFF NOT AND EQ DUP1 PUSH2 0x13CF JUMPI POP PUSH32 0x5B5E139F00000000000000000000000000000000000000000000000000000000 PUSH28 0xFFFFFFFFFFFFFFFFFFFFFFFFFFFFFFFFFFFFFFFFFFFFFFFFFFFFFFFF NOT AND DUP3 PUSH28 0xFFFFFFFFFFFFFFFFFFFFFFFFFFFFFFFFFFFFFFFFFFFFFFFFFFFFFFFF NOT AND EQ JUMPDEST DUP1 PUSH2 0x13DF JUMPI POP PUSH2 0x13DE DUP3 PUSH2 0x1C5F JUMP JUMPDEST JUMPDEST SWAP1 POP SWAP2 SWAP1 POP JUMP JUMPDEST PUSH0 DUP1 PUSH2 0x13F1 DUP4 PUSH2 0x1CC8 JUMP JUMPDEST SWAP1 POP PUSH0 PUSH20 0xFFFFFFFFFFFFFFFFFFFFFFFFFFFFFFFFFFFFFFFF AND DUP2 PUSH20 0xFFFFFFFFFFFFFFFFFFFFFFFFFFFFFFFFFFFFFFFF AND SUB PUSH2 0x1463 JUMPI DUP3 PUSH1 0x40 MLOAD PUSH32 0x7E27328900000000000000000000000000000000000000000000000000000000 DUP2 MSTORE PUSH1 0x4 ADD PUSH2 0x145A SWAP2 SWAP1 PUSH2 0x26BC JUMP JUMPDEST PUSH1 0x40 MLOAD DUP1 SWAP2 SUB SWAP1 REVERT JUMPDEST DUP1 SWAP2 POP POP SWAP2 SWAP1 POP JUMP JUMPDEST PUSH0 PUSH1 0x4 PUSH0 DUP4 DUP2 MSTORE PUSH1 0x20 ADD SWAP1 DUP2 MSTORE PUSH1 0x20 ADD PUSH0 KECCAK256 PUSH0 SWAP1 SLOAD SWAP1 PUSH2 0x100 EXP SWAP1 DIV PUSH20 0xFFFFFFFFFFFFFFFFFFFFFFFFFFFFFFFFFFFFFFFF AND SWAP1 POP SWAP2 SWAP1 POP JUMP JUMPDEST PUSH0 CALLER SWAP1 POP SWAP1 JUMP JUMPDEST PUSH2 0x14B9 DUP4 DUP4 DUP4 PUSH1 0x1 PUSH2 0x1D01 JUMP JUMPDEST POP POP POP JUMP JUMPDEST PUSH0 DUP1 PUSH2 0x14C9 DUP5 PUSH2 0x1CC8 JUMP JUMPDEST SWAP1 POP PUSH0 PUSH20 0xFFFFFFFFFFFFFFFFFFFFFFFFFFFFFFFFFFFFFFFF AND DUP4 PUSH20 0xFFFFFFFFFFFFFFFFFFFFFFFFFFFFFFFFFFFFFFFF AND EQ PUSH2 0x150A JUMPI PUSH2 0x1509 DUP2 DUP5 DUP7 PUSH2 0x1EC0 JUMP JUMPDEST JUMPDEST PUSH0 PUSH20 0xFFFFFFFFFFFFFFFFFFFFFFFFFFFFFFFFFFFFFFFF AND DUP2 PUSH20 0xFFFFFFFFFFFFFFFFFFFFFFFFFFFFFFFFFFFFFFFF AND EQ PUSH2 0x1595 JUMPI PUSH2 0x1549 PUSH0 DUP6 PUSH0 DUP1 PUSH2 0x1D01 JUMP JUMPDEST PUSH1 0x1 PUSH1 0x3 PUSH0 DUP4 PUSH20 0xFFFFFFFFFFFFFFFFFFFFFFFFFFFFFFFFFFFFFFFF AND PUSH20 0xFFFFFFFFFFFFFFFFFFFFFFFFFFFFFFFFFFFFFFFF AND DUP2 MSTORE PUSH1 0x20 ADD SWAP1 DUP2 MSTORE PUSH1 0x20 ADD PUSH0 KECCAK256 PUSH0 DUP3 DUP3 SLOAD SUB SWAP3 POP POP DUP2 SWAP1 SSTORE POP JUMPDEST PUSH0 PUSH20 0xFFFFFFFFFFFFFFFFFFFFFFFFFFFFFFFFFFFFFFFF AND DUP6 PUSH20 0xFFFFFFFFFFFFFFFFFFFFFFFFFFFFFFFFFFFFFFFF AND EQ PUSH2 0x1614 JUMPI PUSH1 0x1 PUSH1 0x3 PUSH0 DUP8 PUSH20 0xFFFFFFFFFFFFFFFFFFFFFFFFFFFFFFFFFFFFFFFF AND PUSH20 0xFFFFFFFFFFFFFFFFFFFFFFFFFFFFFFFFFFFFFFFF AND DUP2 MSTORE PUSH1 0x20 ADD SWAP1 DUP2 MSTORE PUSH1 0x20 ADD PUSH0 KECCAK256 PUSH0 DUP3 DUP3 SLOAD ADD SWAP3 POP POP DUP2 SWAP1 SSTORE POP JUMPDEST DUP5 PUSH1 0x2 PUSH0 DUP7 DUP2 MSTORE PUSH1 0x20 ADD SWAP1 DUP2 MSTORE PUSH1 0x20 ADD PUSH0 KECCAK256 PUSH0 PUSH2 0x100 EXP DUP2 SLOAD DUP2 PUSH20 0xFFFFFFFFFFFFFFFFFFFFFFFFFFFFFFFFFFFFFFFF MUL NOT AND SWAP1 DUP4 PUSH20 0xFFFFFFFFFFFFFFFFFFFFFFFFFFFFFFFFFFFFFFFF AND MUL OR SWAP1 SSTORE POP DUP4 DUP6 PUSH20 0xFFFFFFFFFFFFFFFFFFFFFFFFFFFFFFFFFFFFFFFF AND DUP3 PUSH20 0xFFFFFFFFFFFFFFFFFFFFFFFFFFFFFFFFFFFFFFFF AND PUSH32 0xDDF252AD1BE2C89B69C2B068FC378DAA952BA7F163C4A11628F55A4DF523B3EF PUSH1 0x40 MLOAD PUSH1 0x40 MLOAD DUP1 SWAP2 SUB SWAP1 LOG4 DUP1 SWAP2 POP POP SWAP4 SWAP3 POP POP POP JUMP JUMPDEST PUSH0 DUP2 PUSH0 ADD SLOAD SWAP1 POP SWAP2 SWAP1 POP JUMP JUMPDEST PUSH2 0x16EE DUP3 DUP3 PUSH1 0x40 MLOAD DUP1 PUSH1 0x20 ADD PUSH1 0x40 MSTORE DUP1 PUSH0 DUP2 MSTORE POP PUSH2 0x1F83 JUMP JUMPDEST POP POP JUMP JUMPDEST DUP1 PUSH1 0x6 PUSH0 DUP5 DUP2 MSTORE PUSH1 0x20 ADD SWAP1 DUP2 MSTORE PUSH1 0x20 ADD PUSH0 KECCAK256 SWAP1 DUP2 PUSH2 0x1710 SWAP2 SWAP1 PUSH2 0x2D8B JUMP JUMPDEST POP PUSH32 0xF8E1A15ABA9398E019F0B49DF1A4FDE98EE17AE345CB5F6B5E2C27F5033E8CE7 DUP3 PUSH1 0x40 MLOAD PUSH2 0x1740 SWAP2 SWAP1 PUSH2 0x26BC JUMP JUMPDEST PUSH1 0x40 MLOAD DUP1 SWAP2 SUB SWAP1 LOG1 POP POP JUMP JUMPDEST PUSH1 0x1 DUP2 PUSH0 ADD PUSH0 DUP3 DUP3 SLOAD ADD SWAP3 POP POP DUP2 SWAP1 SSTORE POP POP JUMP JUMPDEST PUSH0 PUSH20 0xFFFFFFFFFFFFFFFFFFFFFFFFFFFFFFFFFFFFFFFF AND DUP3 PUSH20 0xFFFFFFFFFFFFFFFFFFFFFFFFFFFFFFFFFFFFFFFF AND SUB PUSH2 0x17D0 JUMPI DUP2 PUSH1 0x40 MLOAD PUSH32 0x5B08BA1800000000000000000000000000000000000000000000000000000000 DUP2 MSTORE PUSH1 0x4 ADD PUSH2 0x17C7 SWAP2 SWAP1 PUSH2 0x2577 JUMP JUMPDEST PUSH1 0x40 MLOAD DUP1 SWAP2 SUB SWAP1 REVERT JUMPDEST DUP1 PUSH1 0x5 PUSH0 DUP6 PUSH20 0xFFFFFFFFFFFFFFFFFFFFFFFFFFFFFFFFFFFFFFFF AND PUSH20 0xFFFFFFFFFFFFFFFFFFFFFFFFFFFFFFFFFFFFFFFF AND DUP2 MSTORE PUSH1 0x20 ADD SWAP1 DUP2 MSTORE PUSH1 0x20 ADD PUSH0 KECCAK256 PUSH0 DUP5 PUSH20 0xFFFFFFFFFFFFFFFFFFFFFFFFFFFFFFFFFFFFFFFF AND PUSH20 0xFFFFFFFFFFFFFFFFFFFFFFFFFFFFFFFFFFFFFFFF AND DUP2 MSTORE PUSH1 0x20 ADD SWAP1 DUP2 MSTORE PUSH1 0x20 ADD PUSH0 KECCAK256 PUSH0 PUSH2 0x100 EXP DUP2 SLOAD DUP2 PUSH1 0xFF MUL NOT AND SWAP1 DUP4 ISZERO ISZERO MUL OR SWAP1 SSTORE POP DUP2 PUSH20 0xFFFFFFFFFFFFFFFFFFFFFFFFFFFFFFFFFFFFFFFF AND DUP4 PUSH20 0xFFFFFFFFFFFFFFFFFFFFFFFFFFFFFFFFFFFFFFFF AND PUSH32 0x17307EAB39AB6107E8899845AD3D59BD9653F200F220920489CA2B5937696C31 DUP4 PUSH1 0x40 MLOAD PUSH2 0x18BC SWAP2 SWAP1 PUSH2 0x2417 JUMP JUMPDEST PUSH1 0x40 MLOAD DUP1 SWAP2 SUB SWAP1 LOG3 POP POP POP JUMP JUMPDEST PUSH0 PUSH20 0xFFFFFFFFFFFFFFFFFFFFFFFFFFFFFFFFFFFFFFFF AND DUP3 PUSH20 0xFFFFFFFFFFFFFFFFFFFFFFFFFFFFFFFFFFFFFFFF AND SUB PUSH2 0x1939 JUMPI PUSH0 PUSH1 0x40 MLOAD PUSH32 0x64A0AE9200000000000000000000000000000000000000000000000000000000 DUP2 MSTORE PUSH1 0x4 ADD PUSH2 0x1930 SWAP2 SWAP1 PUSH2 0x2577 JUMP JUMPDEST PUSH1 0x40 MLOAD DUP1 SWAP2 SUB SWAP1 REVERT JUMPDEST PUSH0 PUSH2 0x1945 DUP4 DUP4 PUSH0 PUSH2 0x14BE JUMP JUMPDEST SWAP1 POP PUSH0 PUSH20 0xFFFFFFFFFFFFFFFFFFFFFFFFFFFFFFFFFFFFFFFF AND DUP2 PUSH20 0xFFFFFFFFFFFFFFFFFFFFFFFFFFFFFFFFFFFFFFFF AND SUB PUSH2 0x19B7 JUMPI DUP2 PUSH1 0x40 MLOAD PUSH32 0x7E27328900000000000000000000000000000000000000000000000000000000 DUP2 MSTORE PUSH1 0x4 ADD PUSH2 0x19AE SWAP2 SWAP1 PUSH2 0x26BC JUMP JUMPDEST PUSH1 0x40 MLOAD DUP1 SWAP2 SUB SWAP1 REVERT JUMPDEST DUP4 PUSH20 0xFFFFFFFFFFFFFFFFFFFFFFFFFFFFFFFFFFFFFFFF AND DUP2 PUSH20 0xFFFFFFFFFFFFFFFFFFFFFFFFFFFFFFFFFFFFFFFF AND EQ PUSH2 0x1A2B JUMPI DUP4 DUP3 DUP3 PUSH1 0x40 MLOAD PUSH32 0x64283D7B00000000000000000000000000000000000000000000000000000000 DUP2 MSTORE PUSH1 0x4 ADD PUSH2 0x1A22 SWAP4 SWAP3 SWAP2 SWAP1 PUSH2 0x2AEE JUMP JUMPDEST PUSH1 0x40 MLOAD DUP1 SWAP2 SUB SWAP1 REVERT JUMPDEST POP POP POP POP JUMP JUMPDEST PUSH0 DUP4 PUSH20 0xFFFFFFFFFFFFFFFFFFFFFFFFFFFFFFFFFFFFFFFF AND EXTCODESIZE GT ISZERO PUSH2 0x1BDD JUMPI DUP3 PUSH20 0xFFFFFFFFFFFFFFFFFFFFFFFFFFFFFFFFFFFFFFFF AND PUSH4 0x150B7A02 PUSH2 0x1A74 PUSH2 0x14A5 JUMP JUMPDEST DUP7 DUP6 DUP6 PUSH1 0x40 MLOAD DUP6 PUSH4 0xFFFFFFFF AND PUSH1 0xE0 SHL DUP2 MSTORE PUSH1 0x4 ADD PUSH2 0x1A96 SWAP5 SWAP4 SWAP3 SWAP2 SWAP1 PUSH2 0x30DC JUMP JUMPDEST PUSH1 0x20 PUSH1 0x40 MLOAD DUP1 DUP4 SUB DUP2 PUSH0 DUP8 GAS CALL SWAP3 POP POP POP DUP1 ISZERO PUSH2 0x1AD1 JUMPI POP PUSH1 0x40 MLOAD RETURNDATASIZE PUSH1 0x1F NOT PUSH1 0x1F DUP3 ADD AND DUP3 ADD DUP1 PUSH1 0x40 MSTORE POP DUP2 ADD SWAP1 PUSH2 0x1ACE SWAP2 SWAP1 PUSH2 0x313A JUMP JUMPDEST PUSH1 0x1 JUMPDEST PUSH2 0x1B52 JUMPI RETURNDATASIZE DUP1 PUSH0 DUP2 EQ PUSH2 0x1AFF JUMPI PUSH1 0x40 MLOAD SWAP2 POP PUSH1 0x1F NOT PUSH1 0x3F RETURNDATASIZE ADD AND DUP3 ADD PUSH1 0x40 MSTORE RETURNDATASIZE DUP3 MSTORE RETURNDATASIZE PUSH0 PUSH1 0x20 DUP5 ADD RETURNDATACOPY PUSH2 0x1B04 JUMP JUMPDEST PUSH1 0x60 SWAP2 POP JUMPDEST POP PUSH0 DUP2 MLOAD SUB PUSH2 0x1B4A JUMPI DUP4 PUSH1 0x40 MLOAD PUSH32 0x64A0AE9200000000000000000000000000000000000000000000000000000000 DUP2 MSTORE PUSH1 0x4 ADD PUSH2 0x1B41 SWAP2 SWAP1 PUSH2 0x2577 JUMP JUMPDEST PUSH1 0x40 MLOAD DUP1 SWAP2 SUB SWAP1 REVERT JUMPDEST DUP1 MLOAD DUP2 PUSH1 0x20 ADD REVERT JUMPDEST PUSH4 0x150B7A02 PUSH1 0xE0 SHL PUSH28 0xFFFFFFFFFFFFFFFFFFFFFFFFFFFFFFFFFFFFFFFFFFFFFFFFFFFFFFFF NOT AND DUP2 PUSH28 0xFFFFFFFFFFFFFFFFFFFFFFFFFFFFFFFFFFFFFFFFFFFFFFFFFFFFFFFF NOT AND EQ PUSH2 0x1BDB JUMPI DUP4 PUSH1 0x40 MLOAD PUSH32 0x64A0AE9200000000000000000000000000000000000000000000000000000000 DUP2 MSTORE PUSH1 0x4 ADD PUSH2 0x1BD2 SWAP2 SWAP1 PUSH2 0x2577 JUMP JUMPDEST PUSH1 0x40 MLOAD DUP1 SWAP2 SUB SWAP1 REVERT JUMPDEST POP JUMPDEST POP POP POP POP JUMP JUMPDEST PUSH1 0x60 PUSH1 0x40 MLOAD DUP1 PUSH1 0x20 ADD PUSH1 0x40 MSTORE DUP1 PUSH0 DUP2 MSTORE POP SWAP1 POP SWAP1 JUMP JUMPDEST PUSH1 0x60 PUSH2 0x1C04 DUP3 PUSH2 0x13E6 JUMP JUMPDEST POP PUSH0 PUSH2 0x1C0E PUSH2 0x1BE3 JUMP JUMPDEST SWAP1 POP PUSH0 DUP2 MLOAD GT PUSH2 0x1C2C JUMPI PUSH1 0x40 MLOAD DUP1 PUSH1 0x20 ADD PUSH1 0x40 MSTORE DUP1 PUSH0 DUP2 MSTORE POP PUSH2 0x1C57 JUMP JUMPDEST DUP1 PUSH2 0x1C36 DUP5 PUSH2 0x1F9E JUMP JUMPDEST PUSH1 0x40 MLOAD PUSH1 0x20 ADD PUSH2 0x1C47 SWAP3 SWAP2 SWAP1 PUSH2 0x3067 JUMP JUMPDEST PUSH1 0x40 MLOAD PUSH1 0x20 DUP2 DUP4 SUB SUB DUP2 MSTORE SWAP1 PUSH1 0x40 MSTORE JUMPDEST SWAP2 POP POP SWAP2 SWAP1 POP JUMP JUMPDEST PUSH0 PUSH32 0x1FFC9A700000000000000000000000000000000000000000000000000000000 PUSH28 0xFFFFFFFFFFFFFFFFFFFFFFFFFFFFFFFFFFFFFFFFFFFFFFFFFFFFFFFF NOT AND DUP3 PUSH28 0xFFFFFFFFFFFFFFFFFFFFFFFFFFFFFFFFFFFFFFFFFFFFFFFFFFFFFFFF NOT AND EQ SWAP1 POP SWAP2 SWAP1 POP JUMP JUMPDEST PUSH0 PUSH1 0x2 PUSH0 DUP4 DUP2 MSTORE PUSH1 0x20 ADD SWAP1 DUP2 MSTORE PUSH1 0x20 ADD PUSH0 KECCAK256 PUSH0 SWAP1 SLOAD SWAP1 PUSH2 0x100 EXP SWAP1 DIV PUSH20 0xFFFFFFFFFFFFFFFFFFFFFFFFFFFFFFFFFFFFFFFF AND SWAP1 POP SWAP2 SWAP1 POP JUMP JUMPDEST DUP1 DUP1 PUSH2 0x1D39 JUMPI POP PUSH0 PUSH20 0xFFFFFFFFFFFFFFFFFFFFFFFFFFFFFFFFFFFFFFFF AND DUP3 PUSH20 0xFFFFFFFFFFFFFFFFFFFFFFFFFFFFFFFFFFFFFFFF AND EQ ISZERO JUMPDEST ISZERO PUSH2 0x1E6B JUMPI PUSH0 PUSH2 0x1D48 DUP5 PUSH2 0x13E6 JUMP JUMPDEST SWAP1 POP PUSH0 PUSH20 0xFFFFFFFFFFFFFFFFFFFFFFFFFFFFFFFFFFFFFFFF AND DUP4 PUSH20 0xFFFFFFFFFFFFFFFFFFFFFFFFFFFFFFFFFFFFFFFF AND EQ ISZERO DUP1 ISZERO PUSH2 0x1DB2 JUMPI POP DUP3 PUSH20 0xFFFFFFFFFFFFFFFFFFFFFFFFFFFFFFFFFFFFFFFF AND DUP2 PUSH20 0xFFFFFFFFFFFFFFFFFFFFFFFFFFFFFFFFFFFFFFFF AND EQ ISZERO JUMPDEST DUP1 ISZERO PUSH2 0x1DC5 JUMPI POP PUSH2 0x1DC3 DUP2 DUP5 PUSH2 0x11E9 JUMP JUMPDEST ISZERO JUMPDEST ISZERO PUSH2 0x1E07 JUMPI DUP3 PUSH1 0x40 MLOAD PUSH32 0xA9FBF51F00000000000000000000000000000000000000000000000000000000 DUP2 MSTORE PUSH1 0x4 ADD PUSH2 0x1DFE SWAP2 SWAP1 PUSH2 0x2577 JUMP JUMPDEST PUSH1 0x40 MLOAD DUP1 SWAP2 SUB SWAP1 REVERT JUMPDEST DUP2 ISZERO PUSH2 0x1E69 JUMPI DUP4 DUP6 PUSH20 0xFFFFFFFFFFFFFFFFFFFFFFFFFFFFFFFFFFFFFFFF AND DUP3 PUSH20 0xFFFFFFFFFFFFFFFFFFFFFFFFFFFFFFFFFFFFFFFF AND PUSH32 0x8C5BE1E5EBEC7D5BD14F71427D1E84F3DD0314C0F7B2291E5B200AC8C7C3B925 PUSH1 0x40 MLOAD PUSH1 0x40 MLOAD DUP1 SWAP2 SUB SWAP1 LOG4 JUMPDEST POP JUMPDEST DUP4 PUSH1 0x4 PUSH0 DUP6 DUP2 MSTORE PUSH1 0x20 ADD SWAP1 DUP2 MSTORE PUSH1 0x20 ADD PUSH0 KECCAK256 PUSH0 PUSH2 0x100 EXP DUP2 SLOAD DUP2 PUSH20 0xFFFFFFFFFFFFFFFFFFFFFFFFFFFFFFFFFFFFFFFF MUL NOT AND SWAP1 DUP4 PUSH20 0xFFFFFFFFFFFFFFFFFFFFFFFFFFFFFFFFFFFFFFFF AND MUL OR SWAP1 SSTORE POP POP POP POP POP JUMP JUMPDEST PUSH2 0x1ECB DUP4 DUP4 DUP4 PUSH2 0x2068 JUMP JUMPDEST PUSH2 0x1F7E JUMPI PUSH0 PUSH20 0xFFFFFFFFFFFFFFFFFFFFFFFFFFFFFFFFFFFFFFFF AND DUP4 PUSH20 0xFFFFFFFFFFFFFFFFFFFFFFFFFFFFFFFFFFFFFFFF AND SUB PUSH2 0x1F3F JUMPI DUP1 PUSH1 0x40 MLOAD PUSH32 0x7E27328900000000000000000000000000000000000000000000000000000000 DUP2 MSTORE PUSH1 0x4 ADD PUSH2 0x1F36 SWAP2 SWAP1 PUSH2 0x26BC JUMP JUMPDEST PUSH1 0x40 MLOAD DUP1 SWAP2 SUB SWAP1 REVERT JUMPDEST DUP2 DUP2 PUSH1 0x40 MLOAD PUSH32 0x177E802F00000000000000000000000000000000000000000000000000000000 DUP2 MSTORE PUSH1 0x4 ADD PUSH2 0x1F75 SWAP3 SWAP2 SWAP1 PUSH2 0x2657 JUMP JUMPDEST PUSH1 0x40 MLOAD DUP1 SWAP2 SUB SWAP1 REVERT JUMPDEST POP POP POP JUMP JUMPDEST PUSH2 0x1F8D DUP4 DUP4 PUSH2 0x2128 JUMP JUMPDEST PUSH2 0x1F99 PUSH0 DUP5 DUP5 DUP5 PUSH2 0x1A31 JUMP JUMPDEST POP POP POP JUMP JUMPDEST PUSH1 0x60 PUSH0 PUSH1 0x1 PUSH2 0x1FAC DUP5 PUSH2 0x221B JUMP JUMPDEST ADD SWAP1 POP PUSH0 DUP2 PUSH8 0xFFFFFFFFFFFFFFFF DUP2 GT ISZERO PUSH2 0x1FCA JUMPI PUSH2 0x1FC9 PUSH2 0x26DD JUMP JUMPDEST JUMPDEST PUSH1 0x40 MLOAD SWAP1 DUP1 DUP3 MSTORE DUP1 PUSH1 0x1F ADD PUSH1 0x1F NOT AND PUSH1 0x20 ADD DUP3 ADD PUSH1 0x40 MSTORE DUP1 ISZERO PUSH2 0x1FFC JUMPI DUP2 PUSH1 0x20 ADD PUSH1 0x1 DUP3 MUL DUP1 CALLDATASIZE DUP4 CALLDATACOPY DUP1 DUP3 ADD SWAP2 POP POP SWAP1 POP JUMPDEST POP SWAP1 POP PUSH0 DUP3 PUSH1 0x20 ADD DUP3 ADD SWAP1 POP JUMPDEST PUSH1 0x1 ISZERO PUSH2 0x205D JUMPI DUP1 DUP1 PUSH1 0x1 SWAP1 SUB SWAP2 POP POP PUSH32 0x3031323334353637383961626364656600000000000000000000000000000000 PUSH1 0xA DUP7 MOD BYTE DUP2 MSTORE8 PUSH1 0xA DUP6 DUP2 PUSH2 0x2052 JUMPI PUSH2 0x2051 PUSH2 0x2B91 JUMP JUMPDEST JUMPDEST DIV SWAP5 POP PUSH0 DUP6 SUB PUSH2 0x2009 JUMPI JUMPDEST DUP2 SWAP4 POP POP POP POP SWAP2 SWAP1 POP JUMP JUMPDEST PUSH0 DUP1 PUSH20 0xFFFFFFFFFFFFFFFFFFFFFFFFFFFFFFFFFFFFFFFF AND DUP4 PUSH20 0xFFFFFFFFFFFFFFFFFFFFFFFFFFFFFFFFFFFFFFFF AND EQ ISZERO DUP1 ISZERO PUSH2 0x211F JUMPI POP DUP3 PUSH20 0xFFFFFFFFFFFFFFFFFFFFFFFFFFFFFFFFFFFFFFFF AND DUP5 PUSH20 0xFFFFFFFFFFFFFFFFFFFFFFFFFFFFFFFFFFFFFFFF AND EQ DUP1 PUSH2 0x20E0 JUMPI POP PUSH2 0x20DF DUP5 DUP5 PUSH2 0x11E9 JUMP JUMPDEST JUMPDEST DUP1 PUSH2 0x211E JUMPI POP DUP3 PUSH20 0xFFFFFFFFFFFFFFFFFFFFFFFFFFFFFFFFFFFFFFFF AND PUSH2 0x2106 DUP4 PUSH2 0x146C JUMP JUMPDEST PUSH20 0xFFFFFFFFFFFFFFFFFFFFFFFFFFFFFFFFFFFFFFFF AND EQ JUMPDEST JUMPDEST SWAP1 POP SWAP4 SWAP3 POP POP POP JUMP JUMPDEST PUSH0 PUSH20 0xFFFFFFFFFFFFFFFFFFFFFFFFFFFFFFFFFFFFFFFF AND DUP3 PUSH20 0xFFFFFFFFFFFFFFFFFFFFFFFFFFFFFFFFFFFFFFFF AND SUB PUSH2 0x2198 JUMPI PUSH0 PUSH1 0x40 MLOAD PUSH32 0x64A0AE9200000000000000000000000000000000000000000000000000000000 DUP2 MSTORE PUSH1 0x4 ADD PUSH2 0x218F SWAP2 SWAP1 PUSH2 0x2577 JUMP JUMPDEST PUSH1 0x40 MLOAD DUP1 SWAP2 SUB SWAP1 REVERT JUMPDEST PUSH0 PUSH2 0x21A4 DUP4 DUP4 PUSH0 PUSH2 0x14BE JUMP JUMPDEST SWAP1 POP PUSH0 PUSH20 0xFFFFFFFFFFFFFFFFFFFFFFFFFFFFFFFFFFFFFFFF AND DUP2 PUSH20 0xFFFFFFFFFFFFFFFFFFFFFFFFFFFFFFFFFFFFFFFF AND EQ PUSH2 0x2216 JUMPI PUSH0 PUSH1 0x40 MLOAD PUSH32 0x73C6AC6E00000000000000000000000000000000000000000000000000000000 DUP2 MSTORE PUSH1 0x4 ADD PUSH2 0x220D SWAP2 SWAP1 PUSH2 0x2577 JUMP JUMPDEST PUSH1 0x40 MLOAD DUP1 SWAP2 SUB SWAP1 REVERT JUMPDEST POP POP POP JUMP JUMPDEST PUSH0 DUP1 PUSH0 SWAP1 POP PUSH27 0x184F03E93FF9F4DAA797ED6E38ED64BF6A1F010000000000000000 DUP4 LT PUSH2 0x2277 JUMPI PUSH27 0x184F03E93FF9F4DAA797ED6E38ED64BF6A1F010000000000000000 DUP4 DUP2 PUSH2 0x226D JUMPI PUSH2 0x226C PUSH2 0x2B91 JUMP JUMPDEST JUMPDEST DIV SWAP3 POP PUSH1 0x40 DUP2 ADD SWAP1 POP JUMPDEST PUSH14 0x4EE2D6D415B85ACEF8100000000 DUP4 LT PUSH2 0x22B4 JUMPI PUSH14 0x4EE2D6D415B85ACEF8100000000 DUP4 DUP2 PUSH2 0x22AA JUMPI PUSH2 0x22A9 PUSH2 0x2B91 JUMP JUMPDEST JUMPDEST DIV SWAP3 POP PUSH1 0x20 DUP2 ADD SWAP1 POP JUMPDEST PUSH7 0x2386F26FC10000 DUP4 LT PUSH2 0x22E3 JUMPI PUSH7 0x2386F26FC10000 DUP4 DUP2 PUSH2 0x22D9 JUMPI PUSH2 0x22D8 PUSH2 0x2B91 JUMP JUMPDEST JUMPDEST DIV SWAP3 POP PUSH1 0x10 DUP2 ADD SWAP1 POP JUMPDEST PUSH4 0x5F5E100 DUP4 LT PUSH2 0x230C JUMPI PUSH4 0x5F5E100 DUP4 DUP2 PUSH2 0x2302 JUMPI PUSH2 0x2301 PUSH2 0x2B91 JUMP JUMPDEST JUMPDEST DIV SWAP3 POP PUSH1 0x8 DUP2 ADD SWAP1 POP JUMPDEST PUSH2 0x2710 DUP4 LT PUSH2 0x2331 JUMPI PUSH2 0x2710 DUP4 DUP2 PUSH2 0x2327 JUMPI PUSH2 0x2326 PUSH2 0x2B91 JUMP JUMPDEST JUMPDEST DIV SWAP3 POP PUSH1 0x4 DUP2 ADD SWAP1 POP JUMPDEST PUSH1 0x64 DUP4 LT PUSH2 0x2354 JUMPI PUSH1 0x64 DUP4 DUP2 PUSH2 0x234A JUMPI PUSH2 0x2349 PUSH2 0x2B91 JUMP JUMPDEST JUMPDEST DIV SWAP3 POP PUSH1 0x2 DUP2 ADD SWAP1 POP JUMPDEST PUSH1 0xA DUP4 LT PUSH2 0x2363 JUMPI PUSH1 0x1 DUP2 ADD SWAP1 POP JUMPDEST DUP1 SWAP2 POP POP SWAP2 SWAP1 POP JUMP JUMPDEST PUSH0 PUSH1 0x40 MLOAD SWAP1 POP SWAP1 JUMP JUMPDEST PUSH0 DUP1 REVERT JUMPDEST PUSH0 DUP1 REVERT JUMPDEST PUSH0 PUSH32 0xFFFFFFFF00000000000000000000000000000000000000000000000000000000 DUP3 AND SWAP1 POP SWAP2 SWAP1 POP JUMP JUMPDEST PUSH2 0x23B1 DUP2 PUSH2 0x237D JUMP JUMPDEST DUP2 EQ PUSH2 0x23BB JUMPI PUSH0 DUP1 REVERT JUMPDEST POP JUMP JUMPDEST PUSH0 DUP2 CALLDATALOAD SWAP1 POP PUSH2 0x23CC DUP2 PUSH2 0x23A8 JUMP JUMPDEST SWAP3 SWAP2 POP POP JUMP JUMPDEST PUSH0 PUSH1 0x20 DUP3 DUP5 SUB SLT ISZERO PUSH2 0x23E7 JUMPI PUSH2 0x23E6 PUSH2 0x2375 JUMP JUMPDEST JUMPDEST PUSH0 PUSH2 0x23F4 DUP5 DUP3 DUP6 ADD PUSH2 0x23BE JUMP JUMPDEST SWAP2 POP POP SWAP3 SWAP2 POP POP JUMP JUMPDEST PUSH0 DUP2 ISZERO ISZERO SWAP1 POP SWAP2 SWAP1 POP JUMP JUMPDEST PUSH2 0x2411 DUP2 PUSH2 0x23FD JUMP JUMPDEST DUP3 MSTORE POP POP JUMP JUMPDEST PUSH0 PUSH1 0x20 DUP3 ADD SWAP1 POP PUSH2 0x242A PUSH0 DUP4 ADD DUP5 PUSH2 0x2408 JUMP JUMPDEST SWAP3 SWAP2 POP POP JUMP JUMPDEST PUSH0 DUP2 MLOAD SWAP1 POP SWAP2 SWAP1 POP JUMP JUMPDEST PUSH0 DUP3 DUP3 MSTORE PUSH1 0x20 DUP3 ADD SWAP1 POP SWAP3 SWAP2 POP POP JUMP JUMPDEST PUSH0 JUMPDEST DUP4 DUP2 LT ISZERO PUSH2 0x2467 JUMPI DUP1 DUP3 ADD MLOAD DUP2 DUP5 ADD MSTORE PUSH1 0x20 DUP2 ADD SWAP1 POP PUSH2 0x244C JUMP JUMPDEST PUSH0 DUP5 DUP5 ADD MSTORE POP POP POP POP JUMP JUMPDEST PUSH0 PUSH1 0x1F NOT PUSH1 0x1F DUP4 ADD AND SWAP1 POP SWAP2 SWAP1 POP JUMP JUMPDEST PUSH0 PUSH2 0x248C DUP3 PUSH2 0x2430 JUMP JUMPDEST PUSH2 0x2496 DUP2 DUP6 PUSH2 0x243A JUMP JUMPDEST SWAP4 POP PUSH2 0x24A6 DUP2 DUP6 PUSH1 0x20 DUP7 ADD PUSH2 0x244A JUMP JUMPDEST PUSH2 0x24AF DUP2 PUSH2 0x2472 JUMP JUMPDEST DUP5 ADD SWAP2 POP POP SWAP3 SWAP2 POP POP JUMP JUMPDEST PUSH0 PUSH1 0x20 DUP3 ADD SWAP1 POP DUP2 DUP2 SUB PUSH0 DUP4 ADD MSTORE PUSH2 0x24D2 DUP2 DUP5 PUSH2 0x2482 JUMP JUMPDEST SWAP1 POP SWAP3 SWAP2 POP POP JUMP JUMPDEST PUSH0 DUP2 SWAP1 POP SWAP2 SWAP1 POP JUMP JUMPDEST PUSH2 0x24EC DUP2 PUSH2 0x24DA JUMP JUMPDEST DUP2 EQ PUSH2 0x24F6 JUMPI PUSH0 DUP1 REVERT JUMPDEST POP JUMP JUMPDEST PUSH0 DUP2 CALLDATALOAD SWAP1 POP PUSH2 0x2507 DUP2 PUSH2 0x24E3 JUMP JUMPDEST SWAP3 SWAP2 POP POP JUMP JUMPDEST PUSH0 PUSH1 0x20 DUP3 DUP5 SUB SLT ISZERO PUSH2 0x2522 JUMPI PUSH2 0x2521 PUSH2 0x2375 JUMP JUMPDEST JUMPDEST PUSH0 PUSH2 0x252F DUP5 DUP3 DUP6 ADD PUSH2 0x24F9 JUMP JUMPDEST SWAP2 POP POP SWAP3 SWAP2 POP POP JUMP JUMPDEST PUSH0 PUSH20 0xFFFFFFFFFFFFFFFFFFFFFFFFFFFFFFFFFFFFFFFF DUP3 AND SWAP1 POP SWAP2 SWAP1 POP JUMP JUMPDEST PUSH0 PUSH2 0x2561 DUP3 PUSH2 0x2538 JUMP JUMPDEST SWAP1 POP SWAP2 SWAP1 POP JUMP JUMPDEST PUSH2 0x2571 DUP2 PUSH2 0x2557 JUMP JUMPDEST DUP3 MSTORE POP POP JUMP JUMPDEST PUSH0 PUSH1 0x20 DUP3 ADD SWAP1 POP PUSH2 0x258A PUSH0 DUP4 ADD DUP5 PUSH2 0x2568 JUMP JUMPDEST SWAP3 SWAP2 POP POP JUMP JUMPDEST PUSH2 0x2599 DUP2 PUSH2 0x2557 JUMP JUMPDEST DUP2 EQ PUSH2 0x25A3 JUMPI PUSH0 DUP1 REVERT JUMPDEST POP JUMP JUMPDEST PUSH0 DUP2 CALLDATALOAD SWAP1 POP PUSH2 0x25B4 DUP2 PUSH2 0x2590 JUMP JUMPDEST SWAP3 SWAP2 POP POP JUMP JUMPDEST PUSH0 DUP1 PUSH1 0x40 DUP4 DUP6 SUB SLT ISZERO PUSH2 0x25D0 JUMPI PUSH2 0x25CF PUSH2 0x2375 JUMP JUMPDEST JUMPDEST PUSH0 PUSH2 0x25DD DUP6 DUP3 DUP7 ADD PUSH2 0x25A6 JUMP JUMPDEST SWAP3 POP POP PUSH1 0x20 PUSH2 0x25EE DUP6 DUP3 DUP7 ADD PUSH2 0x24F9 JUMP JUMPDEST SWAP2 POP POP SWAP3 POP SWAP3 SWAP1 POP JUMP JUMPDEST PUSH0 DUP1 PUSH0 PUSH1 0x60 DUP5 DUP7 SUB SLT ISZERO PUSH2 0x260F JUMPI PUSH2 0x260E PUSH2 0x2375 JUMP JUMPDEST JUMPDEST PUSH0 PUSH2 0x261C DUP7 DUP3 DUP8 ADD PUSH2 0x25A6 JUMP JUMPDEST SWAP4 POP POP PUSH1 0x20 PUSH2 0x262D DUP7 DUP3 DUP8 ADD PUSH2 0x25A6 JUMP JUMPDEST SWAP3 POP POP PUSH1 0x40 PUSH2 0x263E DUP7 DUP3 DUP8 ADD PUSH2 0x24F9 JUMP JUMPDEST SWAP2 POP POP SWAP3 POP SWAP3 POP SWAP3 JUMP JUMPDEST PUSH2 0x2651 DUP2 PUSH2 0x24DA JUMP JUMPDEST DUP3 MSTORE POP POP JUMP JUMPDEST PUSH0 PUSH1 0x40 DUP3 ADD SWAP1 POP PUSH2 0x266A PUSH0 DUP4 ADD DUP6 PUSH2 0x2568 JUMP JUMPDEST PUSH2 0x2677 PUSH1 0x20 DUP4 ADD DUP5 PUSH2 0x2648 JUMP JUMPDEST SWAP4 SWAP3 POP POP POP JUMP JUMPDEST PUSH0 DUP1 PUSH1 0x40 DUP4 DUP6 SUB SLT ISZERO PUSH2 0x2694 JUMPI PUSH2 0x2693 PUSH2 0x2375 JUMP JUMPDEST JUMPDEST PUSH0 PUSH2 0x26A1 DUP6 DUP3 DUP7 ADD PUSH2 0x24F9 JUMP JUMPDEST SWAP3 POP POP PUSH1 0x20 PUSH2 0x26B2 DUP6 DUP3 DUP7 ADD PUSH2 0x24F9 JUMP JUMPDEST SWAP2 POP POP SWAP3 POP SWAP3 SWAP1 POP JUMP JUMPDEST PUSH0 PUSH1 0x20 DUP3 ADD SWAP1 POP PUSH2 0x26CF PUSH0 DUP4 ADD DUP5 PUSH2 0x2648 JUMP JUMPDEST SWAP3 SWAP2 POP POP JUMP JUMPDEST PUSH0 DUP1 REVERT JUMPDEST PUSH0 DUP1 REVERT JUMPDEST PUSH32 0x4E487B7100000000000000000000000000000000000000000000000000000000 PUSH0 MSTORE PUSH1 0x41 PUSH1 0x4 MSTORE PUSH1 0x24 PUSH0 REVERT JUMPDEST PUSH2 0x2713 DUP3 PUSH2 0x2472 JUMP JUMPDEST DUP2 ADD DUP2 DUP2 LT PUSH8 0xFFFFFFFFFFFFFFFF DUP3 GT OR ISZERO PUSH2 0x2732 JUMPI PUSH2 0x2731 PUSH2 0x26DD JUMP JUMPDEST JUMPDEST DUP1 PUSH1 0x40 MSTORE POP POP POP JUMP JUMPDEST PUSH0 PUSH2 0x2744 PUSH2 0x236C JUMP JUMPDEST SWAP1 POP PUSH2 0x2750 DUP3 DUP3 PUSH2 0x270A JUMP JUMPDEST SWAP2 SWAP1 POP JUMP JUMPDEST PUSH0 PUSH8 0xFFFFFFFFFFFFFFFF DUP3 GT ISZERO PUSH2 0x276F JUMPI PUSH2 0x276E PUSH2 0x26DD JUMP JUMPDEST JUMPDEST PUSH2 0x2778 DUP3 PUSH2 0x2472 JUMP JUMPDEST SWAP1 POP PUSH1 0x20 DUP2 ADD SWAP1 POP SWAP2 SWAP1 POP JUMP JUMPDEST DUP3 DUP2 DUP4 CALLDATACOPY PUSH0 DUP4 DUP4 ADD MSTORE POP POP POP JUMP JUMPDEST PUSH0 PUSH2 0x27A5 PUSH2 0x27A0 DUP5 PUSH2 0x2755 JUMP JUMPDEST PUSH2 0x273B JUMP JUMPDEST SWAP1 POP DUP3 DUP2 MSTORE PUSH1 0x20 DUP2 ADD DUP5 DUP5 DUP5 ADD GT ISZERO PUSH2 0x27C1 JUMPI PUSH2 0x27C0 PUSH2 0x26D9 JUMP JUMPDEST JUMPDEST PUSH2 0x27CC DUP5 DUP3 DUP6 PUSH2 0x2785 JUMP JUMPDEST POP SWAP4 SWAP3 POP POP POP JUMP JUMPDEST PUSH0 DUP3 PUSH1 0x1F DUP4 ADD SLT PUSH2 0x27E8 JUMPI PUSH2 0x27E7 PUSH2 0x26D5 JUMP JUMPDEST JUMPDEST DUP2 CALLDATALOAD PUSH2 0x27F8 DUP5 DUP3 PUSH1 0x20 DUP7 ADD PUSH2 0x2793 JUMP JUMPDEST SWAP2 POP POP SWAP3 SWAP2 POP POP JUMP JUMPDEST PUSH0 PUSH1 0x20 DUP3 DUP5 SUB SLT ISZERO PUSH2 0x2816 JUMPI PUSH2 0x2815 PUSH2 0x2375 JUMP JUMPDEST JUMPDEST PUSH0 DUP3 ADD CALLDATALOAD PUSH8 0xFFFFFFFFFFFFFFFF DUP2 GT ISZERO PUSH2 0x2833 JUMPI PUSH2 0x2832 PUSH2 0x2379 JUMP JUMPDEST JUMPDEST PUSH2 0x283F DUP5 DUP3 DUP6 ADD PUSH2 0x27D4 JUMP JUMPDEST SWAP2 POP POP SWAP3 SWAP2 POP POP JUMP JUMPDEST PUSH0 DUP1 PUSH1 0x40 DUP4 DUP6 SUB SLT ISZERO PUSH2 0x285E JUMPI PUSH2 0x285D PUSH2 0x2375 JUMP JUMPDEST JUMPDEST PUSH0 DUP4 ADD CALLDATALOAD PUSH8 0xFFFFFFFFFFFFFFFF DUP2 GT ISZERO PUSH2 0x287B JUMPI PUSH2 0x287A PUSH2 0x2379 JUMP JUMPDEST JUMPDEST PUSH2 0x2887 DUP6 DUP3 DUP7 ADD PUSH2 0x27D4 JUMP JUMPDEST SWAP3 POP POP PUSH1 0x20 PUSH2 0x2898 DUP6 DUP3 DUP7 ADD PUSH2 0x24F9 JUMP JUMPDEST SWAP2 POP POP SWAP3 POP SWAP3 SWAP1 POP JUMP JUMPDEST PUSH0 PUSH1 0x20 DUP3 DUP5 SUB SLT ISZERO PUSH2 0x28B7 JUMPI PUSH2 0x28B6 PUSH2 0x2375 JUMP JUMPDEST JUMPDEST PUSH0 PUSH2 0x28C4 DUP5 DUP3 DUP6 ADD PUSH2 0x25A6 JUMP JUMPDEST SWAP2 POP POP SWAP3 SWAP2 POP POP JUMP JUMPDEST PUSH2 0x28D6 DUP2 PUSH2 0x23FD JUMP JUMPDEST DUP2 EQ PUSH2 0x28E0 JUMPI PUSH0 DUP1 REVERT JUMPDEST POP JUMP JUMPDEST PUSH0 DUP2 CALLDATALOAD SWAP1 POP PUSH2 0x28F1 DUP2 PUSH2 0x28CD JUMP JUMPDEST SWAP3 SWAP2 POP POP JUMP JUMPDEST PUSH0 DUP1 PUSH1 0x40 DUP4 DUP6 SUB SLT ISZERO PUSH2 0x290D JUMPI PUSH2 0x290C PUSH2 0x2375 JUMP JUMPDEST JUMPDEST PUSH0 PUSH2 0x291A DUP6 DUP3 DUP7 ADD PUSH2 0x25A6 JUMP JUMPDEST SWAP3 POP POP PUSH1 0x20 PUSH2 0x292B DUP6 DUP3 DUP7 ADD PUSH2 0x28E3 JUMP JUMPDEST SWAP2 POP POP SWAP3 POP SWAP3 SWAP1 POP JUMP JUMPDEST PUSH0 PUSH8 0xFFFFFFFFFFFFFFFF DUP3 GT ISZERO PUSH2 0x294F JUMPI PUSH2 0x294E PUSH2 0x26DD JUMP JUMPDEST JUMPDEST PUSH2 0x2958 DUP3 PUSH2 0x2472 JUMP JUMPDEST SWAP1 POP PUSH1 0x20 DUP2 ADD SWAP1 POP SWAP2 SWAP1 POP JUMP JUMPDEST PUSH0 PUSH2 0x2977 PUSH2 0x2972 DUP5 PUSH2 0x2935 JUMP JUMPDEST PUSH2 0x273B JUMP JUMPDEST SWAP1 POP DUP3 DUP2 MSTORE PUSH1 0x20 DUP2 ADD DUP5 DUP5 DUP5 ADD GT ISZERO PUSH2 0x2993 JUMPI PUSH2 0x2992 PUSH2 0x26D9 JUMP JUMPDEST JUMPDEST PUSH2 0x299E DUP5 DUP3 DUP6 PUSH2 0x2785 JUMP JUMPDEST POP SWAP4 SWAP3 POP POP POP JUMP JUMPDEST PUSH0 DUP3 PUSH1 0x1F DUP4 ADD SLT PUSH2 0x29BA JUMPI PUSH2 0x29B9 PUSH2 0x26D5 JUMP JUMPDEST JUMPDEST DUP2 CALLDATALOAD PUSH2 0x29CA DUP5 DUP3 PUSH1 0x20 DUP7 ADD PUSH2 0x2965 JUMP JUMPDEST SWAP2 POP POP SWAP3 SWAP2 POP POP JUMP JUMPDEST PUSH0 DUP1 PUSH0 DUP1 PUSH1 0x80 DUP6 DUP8 SUB SLT ISZERO PUSH2 0x29EB JUMPI PUSH2 0x29EA PUSH2 0x2375 JUMP JUMPDEST JUMPDEST PUSH0 PUSH2 0x29F8 DUP8 DUP3 DUP9 ADD PUSH2 0x25A6 JUMP JUMPDEST SWAP5 POP POP PUSH1 0x20 PUSH2 0x2A09 DUP8 DUP3 DUP9 ADD PUSH2 0x25A6 JUMP JUMPDEST SWAP4 POP POP PUSH1 0x40 PUSH2 0x2A1A DUP8 DUP3 DUP9 ADD PUSH2 0x24F9 JUMP JUMPDEST SWAP3 POP POP PUSH1 0x60 DUP6 ADD CALLDATALOAD PUSH8 0xFFFFFFFFFFFFFFFF DUP2 GT ISZERO PUSH2 0x2A3B JUMPI PUSH2 0x2A3A PUSH2 0x2379 JUMP JUMPDEST JUMPDEST PUSH2 0x2A47 DUP8 DUP3 DUP9 ADD PUSH2 0x29A6 JUMP JUMPDEST SWAP2 POP POP SWAP3 SWAP6 SWAP2 SWAP5 POP SWAP3 POP JUMP JUMPDEST PUSH0 DUP1 PUSH1 0x40 DUP4 DUP6 SUB SLT ISZERO PUSH2 0x2A69 JUMPI PUSH2 0x2A68 PUSH2 0x2375 JUMP JUMPDEST JUMPDEST PUSH0 PUSH2 0x2A76 DUP6 DUP3 DUP7 ADD PUSH2 0x25A6 JUMP JUMPDEST SWAP3 POP POP PUSH1 0x20 PUSH2 0x2A87 DUP6 DUP3 DUP7 ADD PUSH2 0x25A6 JUMP JUMPDEST SWAP2 POP POP SWAP3 POP SWAP3 SWAP1 POP JUMP JUMPDEST PUSH32 0x4E487B7100000000000000000000000000000000000000000000000000000000 PUSH0 MSTORE PUSH1 0x22 PUSH1 0x4 MSTORE PUSH1 0x24 PUSH0 REVERT JUMPDEST PUSH0 PUSH1 0x2 DUP3 DIV SWAP1 POP PUSH1 0x1 DUP3 AND DUP1 PUSH2 0x2AD5 JUMPI PUSH1 0x7F DUP3 AND SWAP2 POP JUMPDEST PUSH1 0x20 DUP3 LT DUP2 SUB PUSH2 0x2AE8 JUMPI PUSH2 0x2AE7 PUSH2 0x2A91 JUMP JUMPDEST JUMPDEST POP SWAP2 SWAP1 POP JUMP JUMPDEST PUSH0 PUSH1 0x60 DUP3 ADD SWAP1 POP PUSH2 0x2B01 PUSH0 DUP4 ADD DUP7 PUSH2 0x2568 JUMP JUMPDEST PUSH2 0x2B0E PUSH1 0x20 DUP4 ADD DUP6 PUSH2 0x2648 JUMP JUMPDEST PUSH2 0x2B1B PUSH1 0x40 DUP4 ADD DUP5 PUSH2 0x2568 JUMP JUMPDEST SWAP5 SWAP4 POP POP POP POP JUMP JUMPDEST PUSH32 0x4E487B7100000000000000000000000000000000000000000000000000000000 PUSH0 MSTORE PUSH1 0x11 PUSH1 0x4 MSTORE PUSH1 0x24 PUSH0 REVERT JUMPDEST PUSH0 PUSH2 0x2B5A DUP3 PUSH2 0x24DA JUMP JUMPDEST SWAP2 POP PUSH2 0x2B65 DUP4 PUSH2 0x24DA JUMP JUMPDEST SWAP3 POP DUP3 DUP3 MUL PUSH2 0x2B73 DUP2 PUSH2 0x24DA JUMP JUMPDEST SWAP2 POP DUP3 DUP3 DIV DUP5 EQ DUP4 ISZERO OR PUSH2 0x2B8A JUMPI PUSH2 0x2B89 PUSH2 0x2B23 JUMP JUMPDEST JUMPDEST POP SWAP3 SWAP2 POP POP JUMP JUMPDEST PUSH32 0x4E487B7100000000000000000000000000000000000000000000000000000000 PUSH0 MSTORE PUSH1 0x12 PUSH1 0x4 MSTORE PUSH1 0x24 PUSH0 REVERT JUMPDEST PUSH0 PUSH2 0x2BC8 DUP3 PUSH2 0x24DA JUMP JUMPDEST SWAP2 POP PUSH2 0x2BD3 DUP4 PUSH2 0x24DA JUMP JUMPDEST SWAP3 POP DUP3 PUSH2 0x2BE3 JUMPI PUSH2 0x2BE2 PUSH2 0x2B91 JUMP JUMPDEST JUMPDEST DUP3 DUP3 DIV SWAP1 POP SWAP3 SWAP2 POP POP JUMP JUMPDEST PUSH0 DUP2 SWAP1 POP DUP2 PUSH0 MSTORE PUSH1 0x20 PUSH0 KECCAK256 SWAP1 POP SWAP2 SWAP1 POP JUMP JUMPDEST PUSH0 PUSH1 0x20 PUSH1 0x1F DUP4 ADD DIV SWAP1 POP SWAP2 SWAP1 POP JUMP JUMPDEST PUSH0 DUP3 DUP3 SHL SWAP1 POP SWAP3 SWAP2 POP POP JUMP JUMPDEST PUSH0 PUSH1 0x8 DUP4 MUL PUSH2 0x2C4A PUSH32 0xFFFFFFFFFFFFFFFFFFFFFFFFFFFFFFFFFFFFFFFFFFFFFFFFFFFFFFFFFFFFFFFF DUP3 PUSH2 0x2C0F JUMP JUMPDEST PUSH2 0x2C54 DUP7 DUP4 PUSH2 0x2C0F JUMP JUMPDEST SWAP6 POP DUP1 NOT DUP5 AND SWAP4 POP DUP1 DUP7 AND DUP5 OR SWAP3 POP POP POP SWAP4 SWAP3 POP POP POP JUMP JUMPDEST PUSH0 DUP2 SWAP1 POP SWAP2 SWAP1 POP JUMP JUMPDEST PUSH0 PUSH2 0x2C8F PUSH2 0x2C8A PUSH2 0x2C85 DUP5 PUSH2 0x24DA JUMP JUMPDEST PUSH2 0x2C6C JUMP JUMPDEST PUSH2 0x24DA JUMP JUMPDEST SWAP1 POP SWAP2 SWAP1 POP JUMP JUMPDEST PUSH0 DUP2 SWAP1 POP SWAP2 SWAP1 POP JUMP JUMPDEST PUSH2 0x2CA8 DUP4 PUSH2 0x2C75 JUMP JUMPDEST PUSH2 0x2CBC PUSH2 0x2CB4 DUP3 PUSH2 0x2C96 JUMP JUMPDEST DUP5 DUP5 SLOAD PUSH2 0x2C1B JUMP JUMPDEST DUP3 SSTORE POP POP POP POP JUMP JUMPDEST PUSH0 SWAP1 JUMP JUMPDEST PUSH2 0x2CD0 PUSH2 0x2CC4 JUMP JUMPDEST PUSH2 0x2CDB DUP2 DUP5 DUP5 PUSH2 0x2C9F JUMP JUMPDEST POP POP POP JUMP JUMPDEST JUMPDEST DUP2 DUP2 LT ISZERO PUSH2 0x2CFE JUMPI PUSH2 0x2CF3 PUSH0 DUP3 PUSH2 0x2CC8 JUMP JUMPDEST PUSH1 0x1 DUP2 ADD SWAP1 POP PUSH2 0x2CE1 JUMP JUMPDEST POP POP JUMP JUMPDEST PUSH1 0x1F DUP3 GT ISZERO PUSH2 0x2D43 JUMPI PUSH2 0x2D14 DUP2 PUSH2 0x2BEE JUMP JUMPDEST PUSH2 0x2D1D DUP5 PUSH2 0x2C00 JUMP JUMPDEST DUP2 ADD PUSH1 0x20 DUP6 LT ISZERO PUSH2 0x2D2C JUMPI DUP2 SWAP1 POP JUMPDEST PUSH2 0x2D40 PUSH2 0x2D38 DUP6 PUSH2 0x2C00 JUMP JUMPDEST DUP4 ADD DUP3 PUSH2 0x2CE0 JUMP JUMPDEST POP POP JUMPDEST POP POP POP JUMP JUMPDEST PUSH0 DUP3 DUP3 SHR SWAP1 POP SWAP3 SWAP2 POP POP JUMP JUMPDEST PUSH0 PUSH2 0x2D63 PUSH0 NOT DUP5 PUSH1 0x8 MUL PUSH2 0x2D48 JUMP JUMPDEST NOT DUP1 DUP4 AND SWAP2 POP POP SWAP3 SWAP2 POP POP JUMP JUMPDEST PUSH0 PUSH2 0x2D7B DUP4 DUP4 PUSH2 0x2D54 JUMP JUMPDEST SWAP2 POP DUP3 PUSH1 0x2 MUL DUP3 OR SWAP1 POP SWAP3 SWAP2 POP POP JUMP JUMPDEST PUSH2 0x2D94 DUP3 PUSH2 0x2430 JUMP JUMPDEST PUSH8 0xFFFFFFFFFFFFFFFF DUP2 GT ISZERO PUSH2 0x2DAD JUMPI PUSH2 0x2DAC PUSH2 0x26DD JUMP JUMPDEST JUMPDEST PUSH2 0x2DB7 DUP3 SLOAD PUSH2 0x2ABE JUMP JUMPDEST PUSH2 0x2DC2 DUP3 DUP3 DUP6 PUSH2 0x2D02 JUMP JUMPDEST PUSH0 PUSH1 0x20 SWAP1 POP PUSH1 0x1F DUP4 GT PUSH1 0x1 DUP2 EQ PUSH2 0x2DF3 JUMPI PUSH0 DUP5 ISZERO PUSH2 0x2DE1 JUMPI DUP3 DUP8 ADD MLOAD SWAP1 POP JUMPDEST PUSH2 0x2DEB DUP6 DUP3 PUSH2 0x2D70 JUMP JUMPDEST DUP7 SSTORE POP PUSH2 0x2E52 JUMP JUMPDEST PUSH1 0x1F NOT DUP5 AND PUSH2 0x2E01 DUP7 PUSH2 0x2BEE JUMP JUMPDEST PUSH0 JUMPDEST DUP3 DUP2 LT ISZERO PUSH2 0x2E28 JUMPI DUP5 DUP10 ADD MLOAD DUP3 SSTORE PUSH1 0x1 DUP3 ADD SWAP2 POP PUSH1 0x20 DUP6 ADD SWAP5 POP PUSH1 0x20 DUP2 ADD SWAP1 POP PUSH2 0x2E03 JUMP JUMPDEST DUP7 DUP4 LT ISZERO PUSH2 0x2E45 JUMPI DUP5 DUP10 ADD MLOAD PUSH2 0x2E41 PUSH1 0x1F DUP10 AND DUP3 PUSH2 0x2D54 JUMP JUMPDEST DUP4 SSTORE POP JUMPDEST PUSH1 0x1 PUSH1 0x2 DUP9 MUL ADD DUP9 SSTORE POP POP POP JUMPDEST POP POP POP POP POP POP JUMP JUMPDEST PUSH32 0x546F6B656E206973206E6F742061742073616C65000000000000000000000000 PUSH0 DUP3 ADD MSTORE POP JUMP JUMPDEST PUSH0 PUSH2 0x2E8E PUSH1 0x14 DUP4 PUSH2 0x243A JUMP JUMPDEST SWAP2 POP PUSH2 0x2E99 DUP3 PUSH2 0x2E5A JUMP JUMPDEST PUSH1 0x20 DUP3 ADD SWAP1 POP SWAP2 SWAP1 POP JUMP JUMPDEST PUSH0 PUSH1 0x20 DUP3 ADD SWAP1 POP DUP2 DUP2 SUB PUSH0 DUP4 ADD MSTORE PUSH2 0x2EBB DUP2 PUSH2 0x2E82 JUMP JUMPDEST SWAP1 POP SWAP2 SWAP1 POP JUMP JUMPDEST PUSH32 0x43616E6E6F742062757920796F7572206F776E204E4654000000000000000000 PUSH0 DUP3 ADD MSTORE POP JUMP JUMPDEST PUSH0 PUSH2 0x2EF6 PUSH1 0x17 DUP4 PUSH2 0x243A JUMP JUMPDEST SWAP2 POP PUSH2 0x2F01 DUP3 PUSH2 0x2EC2 JUMP JUMPDEST PUSH1 0x20 DUP3 ADD SWAP1 POP SWAP2 SWAP1 POP JUMP JUMPDEST PUSH0 PUSH1 0x20 DUP3 ADD SWAP1 POP DUP2 DUP2 SUB PUSH0 DUP4 ADD MSTORE PUSH2 0x2F23 DUP2 PUSH2 0x2EEA JUMP JUMPDEST SWAP1 POP SWAP2 SWAP1 POP JUMP JUMPDEST PUSH32 0x537570706C792045786163742066756E64000000000000000000000000000000 PUSH0 DUP3 ADD MSTORE POP JUMP JUMPDEST PUSH0 PUSH2 0x2F5E PUSH1 0x11 DUP4 PUSH2 0x243A JUMP JUMPDEST SWAP2 POP PUSH2 0x2F69 DUP3 PUSH2 0x2F2A JUMP JUMPDEST PUSH1 0x20 DUP3 ADD SWAP1 POP SWAP2 SWAP1 POP JUMP JUMPDEST PUSH0 PUSH1 0x20 DUP3 ADD SWAP1 POP DUP2 DUP2 SUB PUSH0 DUP4 ADD MSTORE PUSH2 0x2F8B DUP2 PUSH2 0x2F52 JUMP JUMPDEST SWAP1 POP SWAP2 SWAP1 POP JUMP JUMPDEST PUSH0 PUSH2 0x2F9C DUP3 PUSH2 0x24DA JUMP JUMPDEST SWAP2 POP PUSH2 0x2FA7 DUP4 PUSH2 0x24DA JUMP JUMPDEST SWAP3 POP DUP3 DUP3 SUB SWAP1 POP DUP2 DUP2 GT ISZERO PUSH2 0x2FBF JUMPI PUSH2 0x2FBE PUSH2 0x2B23 JUMP JUMPDEST JUMPDEST SWAP3 SWAP2 POP POP JUMP JUMPDEST PUSH32 0x596F75722061726520417574686F72697A6520746F2073656C6C000000000000 PUSH0 DUP3 ADD MSTORE POP JUMP JUMPDEST PUSH0 PUSH2 0x2FF9 PUSH1 0x1A DUP4 PUSH2 0x243A JUMP JUMPDEST SWAP2 POP PUSH2 0x3004 DUP3 PUSH2 0x2FC5 JUMP JUMPDEST PUSH1 0x20 DUP3 ADD SWAP1 POP SWAP2 SWAP1 POP JUMP JUMPDEST PUSH0 PUSH1 0x20 DUP3 ADD SWAP1 POP DUP2 DUP2 SUB PUSH0 DUP4 ADD MSTORE PUSH2 0x3026 DUP2 PUSH2 0x2FED JUMP JUMPDEST SWAP1 POP SWAP2 SWAP1 POP JUMP JUMPDEST PUSH0 DUP2 SWAP1 POP SWAP3 SWAP2 POP POP JUMP JUMPDEST PUSH0 PUSH2 0x3041 DUP3 PUSH2 0x2430 JUMP JUMPDEST PUSH2 0x304B DUP2 DUP6 PUSH2 0x302D JUMP JUMPDEST SWAP4 POP PUSH2 0x305B DUP2 DUP6 PUSH1 0x20 DUP7 ADD PUSH2 0x244A JUMP JUMPDEST DUP1 DUP5 ADD SWAP2 POP POP SWAP3 SWAP2 POP POP JUMP JUMPDEST PUSH0 PUSH2 0x3072 DUP3 DUP6 PUSH2 0x3037 JUMP JUMPDEST SWAP2 POP PUSH2 0x307E DUP3 DUP5 PUSH2 0x3037 JUMP JUMPDEST SWAP2 POP DUP2 SWAP1 POP SWAP4 SWAP3 POP POP POP JUMP JUMPDEST PUSH0 DUP2 MLOAD SWAP1 POP SWAP2 SWAP1 POP JUMP JUMPDEST PUSH0 DUP3 DUP3 MSTORE PUSH1 0x20 DUP3 ADD SWAP1 POP SWAP3 SWAP2 POP POP JUMP JUMPDEST PUSH0 PUSH2 0x30AE DUP3 PUSH2 0x308A JUMP JUMPDEST PUSH2 0x30B8 DUP2 DUP6 PUSH2 0x3094 JUMP JUMPDEST SWAP4 POP PUSH2 0x30C8 DUP2 DUP6 PUSH1 0x20 DUP7 ADD PUSH2 0x244A JUMP JUMPDEST PUSH2 0x30D1 DUP2 PUSH2 0x2472 JUMP JUMPDEST DUP5 ADD SWAP2 POP POP SWAP3 SWAP2 POP POP JUMP JUMPDEST PUSH0 PUSH1 0x80 DUP3 ADD SWAP1 POP PUSH2 0x30EF PUSH0 DUP4 ADD DUP8 PUSH2 0x2568 JUMP JUMPDEST PUSH2 0x30FC PUSH1 0x20 DUP4 ADD DUP7 PUSH2 0x2568 JUMP JUMPDEST PUSH2 0x3109 PUSH1 0x40 DUP4 ADD DUP6 PUSH2 0x2648 JUMP JUMPDEST DUP2 DUP2 SUB PUSH1 0x60 DUP4 ADD MSTORE PUSH2 0x311B DUP2 DUP5 PUSH2 0x30A4 JUMP JUMPDEST SWAP1 POP SWAP6 SWAP5 POP POP POP POP POP JUMP JUMPDEST PUSH0 DUP2 MLOAD SWAP1 POP PUSH2 0x3134 DUP2 PUSH2 0x23A8 JUMP JUMPDEST SWAP3 SWAP2 POP POP JUMP JUMPDEST PUSH0 PUSH1 0x20 DUP3 DUP5 SUB SLT ISZERO PUSH2 0x314F JUMPI PUSH2 0x314E PUSH2 0x2375 JUMP JUMPDEST JUMPDEST PUSH0 PUSH2 0x315C DUP5 DUP3 DUP6 ADD PUSH2 0x3126 JUMP JUMPDEST SWAP2 POP POP SWAP3 SWAP2 POP POP JUMP INVALID LOG2 PUSH5 0x6970667358 0x22 SLT KECCAK256 RETURNDATASIZE SWAP4 INVALID MOD CALLDATACOPY 0xCD LOG1 LT 0x4E 0xE0 MLOAD RETURNDATACOPY ORIGIN PUSH28 0x409F091B38C42803BCEE7F8795BA464BC6B964736F6C634300081500 CALLER "
		},
		"gasEstimates": {
			"creation": {
				"codeDepositCost": "2539800",
				"executionCost": "infinite",
				"totalCost": "infinite"
			},
			"external": {
				"BuyNFT(uint256)": "infinite",
				"KnowPrice(uint256)": "infinite",
				"SellNft(uint256)": "infinite",
				"SoldNft(uint256)": "infinite",
				"approve(address,uint256)": "infinite",
				"balanceOf(address)": "infinite",
				"baseTokenURI()": "infinite",
				"getApproved(uint256)": "infinite",
				"getBalance(address)": "3357",
				"getTotalToken()": "2547",
				"isApprovedForAll(address,address)": "infinite",
				"isSellNft(uint256)": "infinite",
				"mintNFT(string,uint256)": "infinite",
				"name()": "infinite",
				"nfts(uint256)": "infinite",
				"ownerOf(uint256)": "infinite",
				"royaltyInfo(uint256,uint256)": "infinite",
				"royaltyPercentage()": "2492",
				"safeTransferFrom(address,address,uint256)": "infinite",
				"safeTransferFrom(address,address,uint256,bytes)": "infinite",
				"setApprovalForAll(address,bool)": "infinite",
				"setBaseURI(string)": "infinite",
				"supportsInterface(bytes4)": "881",
				"symbol()": "infinite",
				"tokenURI(uint256)": "infinite",
				"transferFrom(address,address,uint256)": "infinite"
			}
		},
		"methodIdentifiers": {
			"BuyNFT(uint256)": "a37365e0",
			"KnowPrice(uint256)": "5a51a885",
			"SellNft(uint256)": "a90d14e2",
			"SoldNft(uint256)": "7d7f1f3e",
			"approve(address,uint256)": "095ea7b3",
			"balanceOf(address)": "70a08231",
			"baseTokenURI()": "d547cfb7",
			"getApproved(uint256)": "081812fc",
			"getBalance(address)": "f8b2cb4f",
			"getTotalToken()": "3d0673d4",
			"isApprovedForAll(address,address)": "e985e9c5",
			"isSellNft(uint256)": "f2a413b5",
			"mintNFT(string,uint256)": "5afa3a72",
			"name()": "06fdde03",
			"nfts(uint256)": "265aa621",
			"ownerOf(uint256)": "6352211e",
			"royaltyInfo(uint256,uint256)": "2a55205a",
			"royaltyPercentage()": "8a71bb2d",
			"safeTransferFrom(address,address,uint256)": "42842e0e",
			"safeTransferFrom(address,address,uint256,bytes)": "b88d4fde",
			"setApprovalForAll(address,bool)": "a22cb465",
			"setBaseURI(string)": "55f804b3",
			"supportsInterface(bytes4)": "01ffc9a7",
			"symbol()": "95d89b41",
			"tokenURI(uint256)": "c87b56dd",
			"transferFrom(address,address,uint256)": "23b872dd"
		}
	},
	"abi": [
		{
			"inputs": [],
			"stateMutability": "nonpayable",
			"type": "constructor"
		},
		{
			"inputs": [
				{
					"internalType": "address",
					"name": "sender",
					"type": "address"
				},
				{
					"internalType": "uint256",
					"name": "tokenId",
					"type": "uint256"
				},
				{
					"internalType": "address",
					"name": "owner",
					"type": "address"
				}
			],
			"name": "ERC721IncorrectOwner",
			"type": "error"
		},
		{
			"inputs": [
				{
					"internalType": "address",
					"name": "operator",
					"type": "address"
				},
				{
					"internalType": "uint256",
					"name": "tokenId",
					"type": "uint256"
				}
			],
			"name": "ERC721InsufficientApproval",
			"type": "error"
		},
		{
			"inputs": [
				{
					"internalType": "address",
					"name": "approver",
					"type": "address"
				}
			],
			"name": "ERC721InvalidApprover",
			"type": "error"
		},
		{
			"inputs": [
				{
					"internalType": "address",
					"name": "operator",
					"type": "address"
				}
			],
			"name": "ERC721InvalidOperator",
			"type": "error"
		},
		{
			"inputs": [
				{
					"internalType": "address",
					"name": "owner",
					"type": "address"
				}
			],
			"name": "ERC721InvalidOwner",
			"type": "error"
		},
		{
			"inputs": [
				{
					"internalType": "address",
					"name": "receiver",
					"type": "address"
				}
			],
			"name": "ERC721InvalidReceiver",
			"type": "error"
		},
		{
			"inputs": [
				{
					"internalType": "address",
					"name": "sender",
					"type": "address"
				}
			],
			"name": "ERC721InvalidSender",
			"type": "error"
		},
		{
			"inputs": [
				{
					"internalType": "uint256",
					"name": "tokenId",
					"type": "uint256"
				}
			],
			"name": "ERC721NonexistentToken",
			"type": "error"
		},
		{
			"anonymous": false,
			"inputs": [
				{
					"indexed": true,
					"internalType": "address",
					"name": "owner",
					"type": "address"
				},
				{
					"indexed": true,
					"internalType": "address",
					"name": "approved",
					"type": "address"
				},
				{
					"indexed": true,
					"internalType": "uint256",
					"name": "tokenId",
					"type": "uint256"
				}
			],
			"name": "Approval",
			"type": "event"
		},
		{
			"anonymous": false,
			"inputs": [
				{
					"indexed": true,
					"internalType": "address",
					"name": "owner",
					"type": "address"
				},
				{
					"indexed": true,
					"internalType": "address",
					"name": "operator",
					"type": "address"
				},
				{
					"indexed": false,
					"internalType": "bool",
					"name": "approved",
					"type": "bool"
				}
			],
			"name": "ApprovalForAll",
			"type": "event"
		},
		{
			"anonymous": false,
			"inputs": [
				{
					"indexed": false,
					"internalType": "uint256",
					"name": "_fromTokenId",
					"type": "uint256"
				},
				{
					"indexed": false,
					"internalType": "uint256",
					"name": "_toTokenId",
					"type": "uint256"
				}
			],
			"name": "BatchMetadataUpdate",
			"type": "event"
		},
		{
			"anonymous": false,
			"inputs": [
				{
					"indexed": false,
					"internalType": "uint256",
					"name": "_tokenId",
					"type": "uint256"
				}
			],
			"name": "MetadataUpdate",
			"type": "event"
		},
		{
			"anonymous": false,
			"inputs": [
				{
					"indexed": true,
					"internalType": "address",
					"name": "from",
					"type": "address"
				},
				{
					"indexed": true,
					"internalType": "address",
					"name": "to",
					"type": "address"
				},
				{
					"indexed": true,
					"internalType": "uint256",
					"name": "tokenId",
					"type": "uint256"
				}
			],
			"name": "Transfer",
			"type": "event"
		},
		{
			"inputs": [
				{
					"internalType": "uint256",
					"name": "tokenId",
					"type": "uint256"
				}
			],
			"name": "BuyNFT",
			"outputs": [],
			"stateMutability": "payable",
			"type": "function"
		},
		{
			"inputs": [
				{
					"internalType": "uint256",
					"name": "tokenIds",
					"type": "uint256"
				}
			],
			"name": "KnowPrice",
			"outputs": [
				{
					"internalType": "uint256",
					"name": "",
					"type": "uint256"
				}
			],
			"stateMutability": "view",
			"type": "function"
		},
		{
			"inputs": [
				{
					"internalType": "uint256",
					"name": "tokenId",
					"type": "uint256"
				}
			],
			"name": "SellNft",
			"outputs": [],
			"stateMutability": "nonpayable",
			"type": "function"
		},
		{
			"inputs": [
				{
					"internalType": "uint256",
					"name": "tokenids",
					"type": "uint256"
				}
			],
			"name": "SoldNft",
			"outputs": [
				{
					"internalType": "bool",
					"name": "",
					"type": "bool"
				}
			],
			"stateMutability": "view",
			"type": "function"
		},
		{
			"inputs": [
				{
					"internalType": "address",
					"name": "to",
					"type": "address"
				},
				{
					"internalType": "uint256",
					"name": "tokenId",
					"type": "uint256"
				}
			],
			"name": "approve",
			"outputs": [],
			"stateMutability": "nonpayable",
			"type": "function"
		},
		{
			"inputs": [
				{
					"internalType": "address",
					"name": "owner",
					"type": "address"
				}
			],
			"name": "balanceOf",
			"outputs": [
				{
					"internalType": "uint256",
					"name": "",
					"type": "uint256"
				}
			],
			"stateMutability": "view",
			"type": "function"
		},
		{
			"inputs": [],
			"name": "baseTokenURI",
			"outputs": [
				{
					"internalType": "string",
					"name": "",
					"type": "string"
				}
			],
			"stateMutability": "view",
			"type": "function"
		},
		{
			"inputs": [
				{
					"internalType": "uint256",
					"name": "tokenId",
					"type": "uint256"
				}
			],
			"name": "getApproved",
			"outputs": [
				{
					"internalType": "address",
					"name": "",
					"type": "address"
				}
			],
			"stateMutability": "view",
			"type": "function"
		},
		{
			"inputs": [
				{
					"internalType": "address",
					"name": "ads",
					"type": "address"
				}
			],
			"name": "getBalance",
			"outputs": [
				{
					"internalType": "uint256",
					"name": "",
					"type": "uint256"
				}
			],
			"stateMutability": "view",
			"type": "function"
		},
		{
			"inputs": [],
			"name": "getTotalToken",
			"outputs": [
				{
					"internalType": "uint256",
					"name": "",
					"type": "uint256"
				}
			],
			"stateMutability": "view",
			"type": "function"
		},
		{
			"inputs": [
				{
					"internalType": "address",
					"name": "owner",
					"type": "address"
				},
				{
					"internalType": "address",
					"name": "operator",
					"type": "address"
				}
			],
			"name": "isApprovedForAll",
			"outputs": [
				{
					"internalType": "bool",
					"name": "",
					"type": "bool"
				}
			],
			"stateMutability": "view",
			"type": "function"
		},
		{
			"inputs": [
				{
					"internalType": "uint256",
					"name": "tokenid",
					"type": "uint256"
				}
			],
			"name": "isSellNft",
			"outputs": [
				{
					"internalType": "bool",
					"name": "",
					"type": "bool"
				}
			],
			"stateMutability": "view",
			"type": "function"
		},
		{
			"inputs": [
				{
					"internalType": "string",
					"name": "tokenURI",
					"type": "string"
				},
				{
					"internalType": "uint256",
					"name": "price",
					"type": "uint256"
				}
			],
			"name": "mintNFT",
			"outputs": [],
			"stateMutability": "nonpayable",
			"type": "function"
		},
		{
			"inputs": [],
			"name": "name",
			"outputs": [
				{
					"internalType": "string",
					"name": "",
					"type": "string"
				}
			],
			"stateMutability": "view",
			"type": "function"
		},
		{
			"inputs": [
				{
					"internalType": "uint256",
					"name": "",
					"type": "uint256"
				}
			],
			"name": "nfts",
			"outputs": [
				{
					"internalType": "address",
					"name": "creator",
					"type": "address"
				},
				{
					"internalType": "uint256",
					"name": "price",
					"type": "uint256"
				}
			],
			"stateMutability": "view",
			"type": "function"
		},
		{
			"inputs": [
				{
					"internalType": "uint256",
					"name": "tokenId",
					"type": "uint256"
				}
			],
			"name": "ownerOf",
			"outputs": [
				{
					"internalType": "address",
					"name": "",
					"type": "address"
				}
			],
			"stateMutability": "view",
			"type": "function"
		},
		{
			"inputs": [
				{
					"internalType": "uint256",
					"name": "tokenId",
					"type": "uint256"
				},
				{
					"internalType": "uint256",
					"name": "value",
					"type": "uint256"
				}
			],
			"name": "royaltyInfo",
			"outputs": [
				{
					"internalType": "address",
					"name": "receiver",
					"type": "address"
				},
				{
					"internalType": "uint256",
					"name": "royaltyAmount",
					"type": "uint256"
				}
			],
			"stateMutability": "view",
			"type": "function"
		},
		{
			"inputs": [],
			"name": "royaltyPercentage",
			"outputs": [
				{
					"internalType": "uint256",
					"name": "",
					"type": "uint256"
				}
			],
			"stateMutability": "view",
			"type": "function"
		},
		{
			"inputs": [
				{
					"internalType": "address",
					"name": "from",
					"type": "address"
				},
				{
					"internalType": "address",
					"name": "to",
					"type": "address"
				},
				{
					"internalType": "uint256",
					"name": "tokenId",
					"type": "uint256"
				}
			],
			"name": "safeTransferFrom",
			"outputs": [],
			"stateMutability": "nonpayable",
			"type": "function"
		},
		{
			"inputs": [
				{
					"internalType": "address",
					"name": "from",
					"type": "address"
				},
				{
					"internalType": "address",
					"name": "to",
					"type": "address"
				},
				{
					"internalType": "uint256",
					"name": "tokenId",
					"type": "uint256"
				},
				{
					"internalType": "bytes",
					"name": "data",
					"type": "bytes"
				}
			],
			"name": "safeTransferFrom",
			"outputs": [],
			"stateMutability": "nonpayable",
			"type": "function"
		},
		{
			"inputs": [
				{
					"internalType": "address",
					"name": "operator",
					"type": "address"
				},
				{
					"internalType": "bool",
					"name": "approved",
					"type": "bool"
				}
			],
			"name": "setApprovalForAll",
			"outputs": [],
			"stateMutability": "nonpayable",
			"type": "function"
		},
		{
			"inputs": [
				{
					"internalType": "string",
					"name": "newBaseTokenURI",
					"type": "string"
				}
			],
			"name": "setBaseURI",
			"outputs": [],
			"stateMutability": "nonpayable",
			"type": "function"
		},
		{
			"inputs": [
				{
					"internalType": "bytes4",
					"name": "interfaceId",
					"type": "bytes4"
				}
			],
			"name": "supportsInterface",
			"outputs": [
				{
					"internalType": "bool",
					"name": "",
					"type": "bool"
				}
			],
			"stateMutability": "view",
			"type": "function"
		},
		{
			"inputs": [],
			"name": "symbol",
			"outputs": [
				{
					"internalType": "string",
					"name": "",
					"type": "string"
				}
			],
			"stateMutability": "view",
			"type": "function"
		},
		{
			"inputs": [
				{
					"internalType": "uint256",
					"name": "tokenId",
					"type": "uint256"
				}
			],
			"name": "tokenURI",
			"outputs": [
				{
					"internalType": "string",
					"name": "",
					"type": "string"
				}
			],
			"stateMutability": "view",
			"type": "function"
		},
		{
			"inputs": [
				{
					"internalType": "address",
					"name": "from",
					"type": "address"
				},
				{
					"internalType": "address",
					"name": "to",
					"type": "address"
				},
				{
					"internalType": "uint256",
					"name": "tokenId",
					"type": "uint256"
				}
			],
			"name": "transferFrom",
			"outputs": [],
			"stateMutability": "nonpayable",
			"type": "function"
		}
	]
}