{
	"nftmarket.sol": {
		"NFTMarketplace": {
			"abi": [
				{
					"inputs": [
						{
							"internalType": "string",
							"name": "_baseTokenURI",
							"type": "string"
						}
					],
					"stateMutability": "nonpayable",
					"type": "constructor"
				},
				{
					"inputs": [
						{
							"internalType": "address",
							"name": "sender",
							"type": "address"
						},
						{
							"internalType": "uint256",
							"name": "tokenId",
							"type": "uint256"
						},
						{
							"internalType": "address",
							"name": "owner",
							"type": "address"
						}
					],
					"name": "ERC721IncorrectOwner",
					"type": "error"
				},
				{
					"inputs": [
						{
							"internalType": "address",
							"name": "operator",
							"type": "address"
						},
						{
							"internalType": "uint256",
							"name": "tokenId",
							"type": "uint256"
						}
					],
					"name": "ERC721InsufficientApproval",
					"type": "error"
				},
				{
					"inputs": [
						{
							"internalType": "address",
							"name": "approver",
							"type": "address"
						}
					],
					"name": "ERC721InvalidApprover",
					"type": "error"
				},
				{
					"inputs": [
						{
							"internalType": "address",
							"name": "operator",
							"type": "address"
						}
					],
					"name": "ERC721InvalidOperator",
					"type": "error"
				},
				{
					"inputs": [
						{
							"internalType": "address",
							"name": "owner",
							"type": "address"
						}
					],
					"name": "ERC721InvalidOwner",
					"type": "error"
				},
				{
					"inputs": [
						{
							"internalType": "address",
							"name": "receiver",
							"type": "address"
						}
					],
					"name": "ERC721InvalidReceiver",
					"type": "error"
				},
				{
					"inputs": [
						{
							"internalType": "address",
							"name": "sender",
							"type": "address"
						}
					],
					"name": "ERC721InvalidSender",
					"type": "error"
				},
				{
					"inputs": [
						{
							"internalType": "uint256",
							"name": "tokenId",
							"type": "uint256"
						}
					],
					"name": "ERC721NonexistentToken",
					"type": "error"
				},
				{
					"inputs": [
						{
							"internalType": "address",
							"name": "owner",
							"type": "address"
						}
					],
					"name": "OwnableInvalidOwner",
					"type": "error"
				},
				{
					"inputs": [
						{
							"internalType": "address",
							"name": "account",
							"type": "address"
						}
					],
					"name": "OwnableUnauthorizedAccount",
					"type": "error"
				},
				{
					"anonymous": false,
					"inputs": [
						{
							"indexed": true,
							"internalType": "address",
							"name": "owner",
							"type": "address"
						},
						{
							"indexed": true,
							"internalType": "address",
							"name": "approved",
							"type": "address"
						},
						{
							"indexed": true,
							"internalType": "uint256",
							"name": "tokenId",
							"type": "uint256"
						}
					],
					"name": "Approval",
					"type": "event"
				},
				{
					"anonymous": false,
					"inputs": [
						{
							"indexed": true,
							"internalType": "address",
							"name": "owner",
							"type": "address"
						},
						{
							"indexed": true,
							"internalType": "address",
							"name": "operator",
							"type": "address"
						},
						{
							"indexed": false,
							"internalType": "bool",
							"name": "approved",
							"type": "bool"
						}
					],
					"name": "ApprovalForAll",
					"type": "event"
				},
				{
					"anonymous": false,
					"inputs": [
						{
							"indexed": true,
							"internalType": "address",
							"name": "previousOwner",
							"type": "address"
						},
						{
							"indexed": true,
							"internalType": "address",
							"name": "newOwner",
							"type": "address"
						}
					],
					"name": "OwnershipTransferred",
					"type": "event"
				},
				{
					"anonymous": false,
					"inputs": [
						{
							"indexed": true,
							"internalType": "address",
							"name": "from",
							"type": "address"
						},
						{
							"indexed": true,
							"internalType": "address",
							"name": "to",
							"type": "address"
						},
						{
							"indexed": true,
							"internalType": "uint256",
							"name": "tokenId",
							"type": "uint256"
						}
					],
					"name": "Transfer",
					"type": "event"
				},
				{
					"inputs": [
						{
							"internalType": "address",
							"name": "to",
							"type": "address"
						},
						{
							"internalType": "uint256",
							"name": "tokenId",
							"type": "uint256"
						}
					],
					"name": "approve",
					"outputs": [],
					"stateMutability": "nonpayable",
					"type": "function"
				},
				{
					"inputs": [
						{
							"internalType": "address",
							"name": "owner",
							"type": "address"
						}
					],
					"name": "balanceOf",
					"outputs": [
						{
							"internalType": "uint256",
							"name": "",
							"type": "uint256"
						}
					],
					"stateMutability": "view",
					"type": "function"
				},
				{
					"inputs": [
						{
							"internalType": "uint256",
							"name": "tokenId",
							"type": "uint256"
						}
					],
					"name": "getApproved",
					"outputs": [
						{
							"internalType": "address",
							"name": "",
							"type": "address"
						}
					],
					"stateMutability": "view",
					"type": "function"
				},
				{
					"inputs": [
						{
							"internalType": "address",
							"name": "owner",
							"type": "address"
						},
						{
							"internalType": "address",
							"name": "operator",
							"type": "address"
						}
					],
					"name": "isApprovedForAll",
					"outputs": [
						{
							"internalType": "bool",
							"name": "",
							"type": "bool"
						}
					],
					"stateMutability": "view",
					"type": "function"
				},
				{
					"inputs": [
						{
							"internalType": "string",
							"name": "tokenURI",
							"type": "string"
						},
						{
							"internalType": "uint256",
							"name": "price",
							"type": "uint256"
						}
					],
					"name": "mintNFT",
					"outputs": [],
					"stateMutability": "nonpayable",
					"type": "function"
				},
				{
					"inputs": [],
					"name": "name",
					"outputs": [
						{
							"internalType": "string",
							"name": "",
							"type": "string"
						}
					],
					"stateMutability": "view",
					"type": "function"
				},
				{
					"inputs": [
						{
							"internalType": "uint256",
							"name": "",
							"type": "uint256"
						}
					],
					"name": "nfts",
					"outputs": [
						{
							"internalType": "address",
							"name": "owner",
							"type": "address"
						},
						{
							"internalType": "uint256",
							"name": "price",
							"type": "uint256"
						}
					],
					"stateMutability": "view",
					"type": "function"
				},
				{
					"inputs": [],
					"name": "owner",
					"outputs": [
						{
							"internalType": "address",
							"name": "",
							"type": "address"
						}
					],
					"stateMutability": "view",
					"type": "function"
				},
				{
					"inputs": [
						{
							"internalType": "uint256",
							"name": "tokenId",
							"type": "uint256"
						}
					],
					"name": "ownerOf",
					"outputs": [
						{
							"internalType": "address",
							"name": "",
							"type": "address"
						}
					],
					"stateMutability": "view",
					"type": "function"
				},
				{
					"inputs": [],
					"name": "renounceOwnership",
					"outputs": [],
					"stateMutability": "nonpayable",
					"type": "function"
				},
				{
					"inputs": [],
					"name": "royaltyRate",
					"outputs": [
						{
							"internalType": "uint256",
							"name": "",
							"type": "uint256"
						}
					],
					"stateMutability": "view",
					"type": "function"
				},
				{
					"inputs": [
						{
							"internalType": "address",
							"name": "from",
							"type": "address"
						},
						{
							"internalType": "address",
							"name": "to",
							"type": "address"
						},
						{
							"internalType": "uint256",
							"name": "tokenId",
							"type": "uint256"
						}
					],
					"name": "safeTransferFrom",
					"outputs": [],
					"stateMutability": "nonpayable",
					"type": "function"
				},
				{
					"inputs": [
						{
							"internalType": "address",
							"name": "from",
							"type": "address"
						},
						{
							"internalType": "address",
							"name": "to",
							"type": "address"
						},
						{
							"internalType": "uint256",
							"name": "tokenId",
							"type": "uint256"
						},
						{
							"internalType": "bytes",
							"name": "data",
							"type": "bytes"
						}
					],
					"name": "safeTransferFrom",
					"outputs": [],
					"stateMutability": "nonpayable",
					"type": "function"
				},
				{
					"inputs": [
						{
							"internalType": "uint256",
							"name": "tokenId",
							"type": "uint256"
						}
					],
					"name": "sellNFT",
					"outputs": [],
					"stateMutability": "payable",
					"type": "function"
				},
				{
					"inputs": [
						{
							"internalType": "address",
							"name": "operator",
							"type": "address"
						},
						{
							"internalType": "bool",
							"name": "approved",
							"type": "bool"
						}
					],
					"name": "setApprovalForAll",
					"outputs": [],
					"stateMutability": "nonpayable",
					"type": "function"
				},
				{
					"inputs": [
						{
							"internalType": "string",
							"name": "newBaseTokenURI",
							"type": "string"
						}
					],
					"name": "setBaseURI",
					"outputs": [],
					"stateMutability": "nonpayable",
					"type": "function"
				},
				{
					"inputs": [
						{
							"internalType": "bytes4",
							"name": "interfaceId",
							"type": "bytes4"
						}
					],
					"name": "supportsInterface",
					"outputs": [
						{
							"internalType": "bool",
							"name": "",
							"type": "bool"
						}
					],
					"stateMutability": "view",
					"type": "function"
				},
				{
					"inputs": [],
					"name": "symbol",
					"outputs": [
						{
							"internalType": "string",
							"name": "",
							"type": "string"
						}
					],
					"stateMutability": "view",
					"type": "function"
				},
				{
					"inputs": [
						{
							"internalType": "uint256",
							"name": "tokenId",
							"type": "uint256"
						}
					],
					"name": "tokenURI",
					"outputs": [
						{
							"internalType": "string",
							"name": "",
							"type": "string"
						}
					],
					"stateMutability": "view",
					"type": "function"
				},
				{
					"inputs": [
						{
							"internalType": "address",
							"name": "from",
							"type": "address"
						},
						{
							"internalType": "address",
							"name": "to",
							"type": "address"
						},
						{
							"internalType": "uint256",
							"name": "tokenId",
							"type": "uint256"
						}
					],
					"name": "transferFrom",
					"outputs": [],
					"stateMutability": "nonpayable",
					"type": "function"
				},
				{
					"inputs": [
						{
							"internalType": "address",
							"name": "newOwner",
							"type": "address"
						}
					],
					"name": "transferOwnership",
					"outputs": [],
					"stateMutability": "nonpayable",
					"type": "function"
				}
			],
			"devdoc": {
				"errors": {
					"ERC721IncorrectOwner(address,uint256,address)": [
						{
							"details": "Indicates an error related to the ownership over a particular token. Used in transfers.",
							"params": {
								"owner": "Address of the current owner of a token.",
								"sender": "Address whose tokens are being transferred.",
								"tokenId": "Identifier number of a token."
							}
						}
					],
					"ERC721InsufficientApproval(address,uint256)": [
						{
							"details": "Indicates a failure with the `operator`’s approval. Used in transfers.",
							"params": {
								"operator": "Address that may be allowed to operate on tokens without being their owner.",
								"tokenId": "Identifier number of a token."
							}
						}
					],
					"ERC721InvalidApprover(address)": [
						{
							"details": "Indicates a failure with the `approver` of a token to be approved. Used in approvals.",
							"params": {
								"approver": "Address initiating an approval operation."
							}
						}
					],
					"ERC721InvalidOperator(address)": [
						{
							"details": "Indicates a failure with the `operator` to be approved. Used in approvals.",
							"params": {
								"operator": "Address that may be allowed to operate on tokens without being their owner."
							}
						}
					],
					"ERC721InvalidOwner(address)": [
						{
							"details": "Indicates that an address can't be an owner. For example, `address(0)` is a forbidden owner in EIP-20. Used in balance queries.",
							"params": {
								"owner": "Address of the current owner of a token."
							}
						}
					],
					"ERC721InvalidReceiver(address)": [
						{
							"details": "Indicates a failure with the token `receiver`. Used in transfers.",
							"params": {
								"receiver": "Address to which tokens are being transferred."
							}
						}
					],
					"ERC721InvalidSender(address)": [
						{
							"details": "Indicates a failure with the token `sender`. Used in transfers.",
							"params": {
								"sender": "Address whose tokens are being transferred."
							}
						}
					],
					"ERC721NonexistentToken(uint256)": [
						{
							"details": "Indicates a `tokenId` whose `owner` is the zero address.",
							"params": {
								"tokenId": "Identifier number of a token."
							}
						}
					],
					"OwnableInvalidOwner(address)": [
						{
							"details": "The owner is not a valid owner account. (eg. `address(0)`)"
						}
					],
					"OwnableUnauthorizedAccount(address)": [
						{
							"details": "The caller account is not authorized to perform an operation."
						}
					]
				},
				"events": {
					"Approval(address,address,uint256)": {
						"details": "Emitted when `owner` enables `approved` to manage the `tokenId` token."
					},
					"ApprovalForAll(address,address,bool)": {
						"details": "Emitted when `owner` enables or disables (`approved`) `operator` to manage all of its assets."
					},
					"Transfer(address,address,uint256)": {
						"details": "Emitted when `tokenId` token is transferred from `from` to `to`."
					}
				},
				"kind": "dev",
				"methods": {
					"approve(address,uint256)": {
						"details": "See {IERC721-approve}."
					},
					"balanceOf(address)": {
						"details": "See {IERC721-balanceOf}."
					},
					"getApproved(uint256)": {
						"details": "See {IERC721-getApproved}."
					},
					"isApprovedForAll(address,address)": {
						"details": "See {IERC721-isApprovedForAll}."
					},
					"name()": {
						"details": "See {IERC721Metadata-name}."
					},
					"owner()": {
						"details": "Returns the address of the current owner."
					},
					"ownerOf(uint256)": {
						"details": "See {IERC721-ownerOf}."
					},
					"renounceOwnership()": {
						"details": "Leaves the contract without owner. It will not be possible to call `onlyOwner` functions. Can only be called by the current owner. NOTE: Renouncing ownership will leave the contract without an owner, thereby disabling any functionality that is only available to the owner."
					},
					"safeTransferFrom(address,address,uint256)": {
						"details": "See {IERC721-safeTransferFrom}."
					},
					"safeTransferFrom(address,address,uint256,bytes)": {
						"details": "See {IERC721-safeTransferFrom}."
					},
					"setApprovalForAll(address,bool)": {
						"details": "See {IERC721-setApprovalForAll}."
					},
					"supportsInterface(bytes4)": {
						"details": "See {IERC165-supportsInterface}."
					},
					"symbol()": {
						"details": "See {IERC721Metadata-symbol}."
					},
					"tokenURI(uint256)": {
						"details": "See {IERC721Metadata-tokenURI}."
					},
					"transferFrom(address,address,uint256)": {
						"details": "See {IERC721-transferFrom}."
					},
					"transferOwnership(address)": {
						"details": "Transfers ownership of the contract to a new account (`newOwner`). Can only be called by the current owner."
					}
				},
				"version": 1
			},
			"evm": {
				"assembly": "    /* \"nftmarket.sol\":229:2159  contract NFTMarketplace is ERC721, Ownable {... */\n  mstore(0x40, 0x80)\n    /* \"nftmarket.sol\":433:435  10 */\n  0x0a\n    /* \"nftmarket.sol\":404:435  uint256 public royaltyRate = 10 */\n  0x09\n  sstore\n    /* \"nftmarket.sol\":604:754  constructor(string memory _baseTokenURI)... */\n  callvalue\n  dup1\n  iszero\n  tag_1\n  jumpi\n  0x00\n  dup1\n  revert\ntag_1:\n  pop\n  mload(0x40)\n  sub(codesize, bytecodeSize)\n  dup1\n  bytecodeSize\n  dup4\n  codecopy\n  dup2\n  dup2\n  add\n  0x40\n  mstore\n  dup2\n  add\n  swap1\n  tag_2\n  swap2\n  swap1\n  tag_3\n  jump\t// in\ntag_2:\n    /* \"nftmarket.sol\":693:703  msg.sender */\n  caller\n    /* \"@openzeppelin/contracts/token/ERC721/ERC721.sol\":1381:1494  constructor(string memory name_, string memory symbol_) {... */\n  mload(0x40)\n  dup1\n  0x40\n  add\n  0x40\n  mstore\n  dup1\n  0x08\n  dup2\n  mstore\n  0x20\n  add\n  0x596f7572204e4654000000000000000000000000000000000000000000000000\n  dup2\n  mstore\n  pop\n  mload(0x40)\n  dup1\n  0x40\n  add\n  0x40\n  mstore\n  dup1\n  0x04\n  dup2\n  mstore\n  0x20\n  add\n  0x594e465400000000000000000000000000000000000000000000000000000000\n  dup2\n  mstore\n  pop\n    /* \"@openzeppelin/contracts/token/ERC721/ERC721.sol\":1455:1460  name_ */\n  dup2\n    /* \"@openzeppelin/contracts/token/ERC721/ERC721.sol\":1447:1452  _name */\n  0x00\n    /* \"@openzeppelin/contracts/token/ERC721/ERC721.sol\":1447:1460  _name = name_ */\n  swap1\n  dup2\n  tag_8\n  swap2\n  swap1\n  tag_9\n  jump\t// in\ntag_8:\n  pop\n    /* \"@openzeppelin/contracts/token/ERC721/ERC721.sol\":1480:1487  symbol_ */\n  dup1\n    /* \"@openzeppelin/contracts/token/ERC721/ERC721.sol\":1470:1477  _symbol */\n  0x01\n    /* \"@openzeppelin/contracts/token/ERC721/ERC721.sol\":1470:1487  _symbol = symbol_ */\n  swap1\n  dup2\n  tag_10\n  swap2\n  swap1\n  tag_9\n  jump\t// in\ntag_10:\n  pop\n    /* \"@openzeppelin/contracts/token/ERC721/ERC721.sol\":1381:1494  constructor(string memory name_, string memory symbol_) {... */\n  pop\n  pop\n    /* \"@openzeppelin/contracts/access/Ownable.sol\":1297:1298  0 */\n  0x00\n    /* \"@openzeppelin/contracts/access/Ownable.sol\":1273:1299  initialOwner == address(0) */\n  0xffffffffffffffffffffffffffffffffffffffff\n  and\n    /* \"@openzeppelin/contracts/access/Ownable.sol\":1273:1285  initialOwner */\n  dup2\n    /* \"@openzeppelin/contracts/access/Ownable.sol\":1273:1299  initialOwner == address(0) */\n  0xffffffffffffffffffffffffffffffffffffffff\n  and\n  sub\n    /* \"@openzeppelin/contracts/access/Ownable.sol\":1269:1364  if (initialOwner == address(0)) {... */\n  tag_12\n  jumpi\n    /* \"@openzeppelin/contracts/access/Ownable.sol\":1350:1351  0 */\n  0x00\n    /* \"@openzeppelin/contracts/access/Ownable.sol\":1322:1353  OwnableInvalidOwner(address(0)) */\n  mload(0x40)\n  0x1e4fbdf700000000000000000000000000000000000000000000000000000000\n  dup2\n  mstore\n  0x04\n  add\n  tag_13\n  swap2\n  swap1\n  tag_14\n  jump\t// in\ntag_13:\n  mload(0x40)\n  dup1\n  swap2\n  sub\n  swap1\n  revert\n    /* \"@openzeppelin/contracts/access/Ownable.sol\":1269:1364  if (initialOwner == address(0)) {... */\ntag_12:\n    /* \"@openzeppelin/contracts/access/Ownable.sol\":1373:1405  _transferOwnership(initialOwner) */\n  tag_15\n    /* \"@openzeppelin/contracts/access/Ownable.sol\":1392:1404  initialOwner */\n  dup2\n    /* \"@openzeppelin/contracts/access/Ownable.sol\":1373:1391  _transferOwnership */\n  shl(0x20, tag_16)\n    /* \"@openzeppelin/contracts/access/Ownable.sol\":1373:1405  _transferOwnership(initialOwner) */\n  0x20\n  shr\n  jump\t// in\ntag_15:\n    /* \"@openzeppelin/contracts/access/Ownable.sol\":1225:1412  constructor(address initialOwner) {... */\n  pop\n    /* \"nftmarket.sol\":733:746  _baseTokenURI */\n  dup1\n    /* \"nftmarket.sol\":718:730  baseTokenURI */\n  0x08\n    /* \"nftmarket.sol\":718:746  baseTokenURI = _baseTokenURI */\n  swap1\n  dup2\n  tag_18\n  swap2\n  swap1\n  tag_9\n  jump\t// in\ntag_18:\n  pop\n    /* \"nftmarket.sol\":604:754  constructor(string memory _baseTokenURI)... */\n  pop\n    /* \"nftmarket.sol\":229:2159  contract NFTMarketplace is ERC721, Ownable {... */\n  jump(tag_19)\n    /* \"@openzeppelin/contracts/access/Ownable.sol\":2912:3099  function _transferOwnership(address newOwner) internal virtual {... */\ntag_16:\n    /* \"@openzeppelin/contracts/access/Ownable.sol\":2985:3001  address oldOwner */\n  0x00\n    /* \"@openzeppelin/contracts/access/Ownable.sol\":3004:3010  _owner */\n  0x06\n  0x00\n  swap1\n  sload\n  swap1\n  0x0100\n  exp\n  swap1\n  div\n  0xffffffffffffffffffffffffffffffffffffffff\n  and\n    /* \"@openzeppelin/contracts/access/Ownable.sol\":2985:3010  address oldOwner = _owner */\n  swap1\n  pop\n    /* \"@openzeppelin/contracts/access/Ownable.sol\":3029:3037  newOwner */\n  dup2\n    /* \"@openzeppelin/contracts/access/Ownable.sol\":3020:3026  _owner */\n  0x06\n  0x00\n    /* \"@openzeppelin/contracts/access/Ownable.sol\":3020:3037  _owner = newOwner */\n  0x0100\n  exp\n  dup2\n  sload\n  dup2\n  0xffffffffffffffffffffffffffffffffffffffff\n  mul\n  not\n  and\n  swap1\n  dup4\n  0xffffffffffffffffffffffffffffffffffffffff\n  and\n  mul\n  or\n  swap1\n  sstore\n  pop\n    /* \"@openzeppelin/contracts/access/Ownable.sol\":3083:3091  newOwner */\n  dup2\n    /* \"@openzeppelin/contracts/access/Ownable.sol\":3052:3092  OwnershipTransferred(oldOwner, newOwner) */\n  0xffffffffffffffffffffffffffffffffffffffff\n  and\n    /* \"@openzeppelin/contracts/access/Ownable.sol\":3073:3081  oldOwner */\n  dup2\n    /* \"@openzeppelin/contracts/access/Ownable.sol\":3052:3092  OwnershipTransferred(oldOwner, newOwner) */\n  0xffffffffffffffffffffffffffffffffffffffff\n  and\n  0x8be0079c531659141344cd1fd0a4f28419497f9722a3daafe3b4186f6b6457e0\n  mload(0x40)\n  mload(0x40)\n  dup1\n  swap2\n  sub\n  swap1\n  log3\n    /* \"@openzeppelin/contracts/access/Ownable.sol\":2975:3099  {... */\n  pop\n    /* \"@openzeppelin/contracts/access/Ownable.sol\":2912:3099  function _transferOwnership(address newOwner) internal virtual {... */\n  pop\n  jump\t// out\n    /* \"#utility.yul\":7:82   */\ntag_21:\n    /* \"#utility.yul\":40:46   */\n  0x00\n    /* \"#utility.yul\":73:75   */\n  0x40\n    /* \"#utility.yul\":67:76   */\n  mload\n    /* \"#utility.yul\":57:76   */\n  swap1\n  pop\n    /* \"#utility.yul\":7:82   */\n  swap1\n  jump\t// out\n    /* \"#utility.yul\":88:205   */\ntag_22:\n    /* \"#utility.yul\":197:198   */\n  0x00\n    /* \"#utility.yul\":194:195   */\n  dup1\n    /* \"#utility.yul\":187:199   */\n  revert\n    /* \"#utility.yul\":211:328   */\ntag_23:\n    /* \"#utility.yul\":320:321   */\n  0x00\n    /* \"#utility.yul\":317:318   */\n  dup1\n    /* \"#utility.yul\":310:322   */\n  revert\n    /* \"#utility.yul\":334:451   */\ntag_24:\n    /* \"#utility.yul\":443:444   */\n  0x00\n    /* \"#utility.yul\":440:441   */\n  dup1\n    /* \"#utility.yul\":433:445   */\n  revert\n    /* \"#utility.yul\":457:574   */\ntag_25:\n    /* \"#utility.yul\":566:567   */\n  0x00\n    /* \"#utility.yul\":563:564   */\n  dup1\n    /* \"#utility.yul\":556:568   */\n  revert\n    /* \"#utility.yul\":580:682   */\ntag_26:\n    /* \"#utility.yul\":621:627   */\n  0x00\n    /* \"#utility.yul\":672:674   */\n  0x1f\n    /* \"#utility.yul\":668:675   */\n  not\n    /* \"#utility.yul\":663:665   */\n  0x1f\n    /* \"#utility.yul\":656:661   */\n  dup4\n    /* \"#utility.yul\":652:666   */\n  add\n    /* \"#utility.yul\":648:676   */\n  and\n    /* \"#utility.yul\":638:676   */\n  swap1\n  pop\n    /* \"#utility.yul\":580:682   */\n  swap2\n  swap1\n  pop\n  jump\t// out\n    /* \"#utility.yul\":688:868   */\ntag_27:\n    /* \"#utility.yul\":736:813   */\n  0x4e487b7100000000000000000000000000000000000000000000000000000000\n    /* \"#utility.yul\":733:734   */\n  0x00\n    /* \"#utility.yul\":726:814   */\n  mstore\n    /* \"#utility.yul\":833:837   */\n  0x41\n    /* \"#utility.yul\":830:831   */\n  0x04\n    /* \"#utility.yul\":823:838   */\n  mstore\n    /* \"#utility.yul\":857:861   */\n  0x24\n    /* \"#utility.yul\":854:855   */\n  0x00\n    /* \"#utility.yul\":847:862   */\n  revert\n    /* \"#utility.yul\":874:1155   */\ntag_28:\n    /* \"#utility.yul\":957:984   */\n  tag_65\n    /* \"#utility.yul\":979:983   */\n  dup3\n    /* \"#utility.yul\":957:984   */\n  tag_26\n  jump\t// in\ntag_65:\n    /* \"#utility.yul\":949:955   */\n  dup2\n    /* \"#utility.yul\":945:985   */\n  add\n    /* \"#utility.yul\":1087:1093   */\n  dup2\n    /* \"#utility.yul\":1075:1085   */\n  dup2\n    /* \"#utility.yul\":1072:1094   */\n  lt\n    /* \"#utility.yul\":1051:1069   */\n  0xffffffffffffffff\n    /* \"#utility.yul\":1039:1049   */\n  dup3\n    /* \"#utility.yul\":1036:1070   */\n  gt\n    /* \"#utility.yul\":1033:1095   */\n  or\n    /* \"#utility.yul\":1030:1118   */\n  iszero\n  tag_66\n  jumpi\n    /* \"#utility.yul\":1098:1116   */\n  tag_67\n  tag_27\n  jump\t// in\ntag_67:\n    /* \"#utility.yul\":1030:1118   */\ntag_66:\n    /* \"#utility.yul\":1138:1148   */\n  dup1\n    /* \"#utility.yul\":1134:1136   */\n  0x40\n    /* \"#utility.yul\":1127:1149   */\n  mstore\n    /* \"#utility.yul\":917:1155   */\n  pop\n    /* \"#utility.yul\":874:1155   */\n  pop\n  pop\n  jump\t// out\n    /* \"#utility.yul\":1161:1290   */\ntag_29:\n    /* \"#utility.yul\":1195:1201   */\n  0x00\n    /* \"#utility.yul\":1222:1242   */\n  tag_69\n  tag_21\n  jump\t// in\ntag_69:\n    /* \"#utility.yul\":1212:1242   */\n  swap1\n  pop\n    /* \"#utility.yul\":1251:1284   */\n  tag_70\n    /* \"#utility.yul\":1279:1283   */\n  dup3\n    /* \"#utility.yul\":1271:1277   */\n  dup3\n    /* \"#utility.yul\":1251:1284   */\n  tag_28\n  jump\t// in\ntag_70:\n    /* \"#utility.yul\":1161:1290   */\n  swap2\n  swap1\n  pop\n  jump\t// out\n    /* \"#utility.yul\":1296:1604   */\ntag_30:\n    /* \"#utility.yul\":1358:1362   */\n  0x00\n    /* \"#utility.yul\":1448:1466   */\n  0xffffffffffffffff\n    /* \"#utility.yul\":1440:1446   */\n  dup3\n    /* \"#utility.yul\":1437:1467   */\n  gt\n    /* \"#utility.yul\":1434:1490   */\n  iszero\n  tag_72\n  jumpi\n    /* \"#utility.yul\":1470:1488   */\n  tag_73\n  tag_27\n  jump\t// in\ntag_73:\n    /* \"#utility.yul\":1434:1490   */\ntag_72:\n    /* \"#utility.yul\":1508:1537   */\n  tag_74\n    /* \"#utility.yul\":1530:1536   */\n  dup3\n    /* \"#utility.yul\":1508:1537   */\n  tag_26\n  jump\t// in\ntag_74:\n    /* \"#utility.yul\":1500:1537   */\n  swap1\n  pop\n    /* \"#utility.yul\":1592:1596   */\n  0x20\n    /* \"#utility.yul\":1586:1590   */\n  dup2\n    /* \"#utility.yul\":1582:1597   */\n  add\n    /* \"#utility.yul\":1574:1597   */\n  swap1\n  pop\n    /* \"#utility.yul\":1296:1604   */\n  swap2\n  swap1\n  pop\n  jump\t// out\n    /* \"#utility.yul\":1610:1856   */\ntag_31:\n    /* \"#utility.yul\":1691:1692   */\n  0x00\n    /* \"#utility.yul\":1701:1814   */\ntag_76:\n    /* \"#utility.yul\":1715:1721   */\n  dup4\n    /* \"#utility.yul\":1712:1713   */\n  dup2\n    /* \"#utility.yul\":1709:1722   */\n  lt\n    /* \"#utility.yul\":1701:1814   */\n  iszero\n  tag_78\n  jumpi\n    /* \"#utility.yul\":1800:1801   */\n  dup1\n    /* \"#utility.yul\":1795:1798   */\n  dup3\n    /* \"#utility.yul\":1791:1802   */\n  add\n    /* \"#utility.yul\":1785:1803   */\n  mload\n    /* \"#utility.yul\":1781:1782   */\n  dup2\n    /* \"#utility.yul\":1776:1779   */\n  dup5\n    /* \"#utility.yul\":1772:1783   */\n  add\n    /* \"#utility.yul\":1765:1804   */\n  mstore\n    /* \"#utility.yul\":1737:1739   */\n  0x20\n    /* \"#utility.yul\":1734:1735   */\n  dup2\n    /* \"#utility.yul\":1730:1740   */\n  add\n    /* \"#utility.yul\":1725:1740   */\n  swap1\n  pop\n    /* \"#utility.yul\":1701:1814   */\n  jump(tag_76)\ntag_78:\n    /* \"#utility.yul\":1848:1849   */\n  0x00\n    /* \"#utility.yul\":1839:1845   */\n  dup5\n    /* \"#utility.yul\":1834:1837   */\n  dup5\n    /* \"#utility.yul\":1830:1846   */\n  add\n    /* \"#utility.yul\":1823:1850   */\n  mstore\n    /* \"#utility.yul\":1672:1856   */\n  pop\n    /* \"#utility.yul\":1610:1856   */\n  pop\n  pop\n  pop\n  jump\t// out\n    /* \"#utility.yul\":1862:2296   */\ntag_32:\n    /* \"#utility.yul\":1951:1956   */\n  0x00\n    /* \"#utility.yul\":1976:2042   */\n  tag_80\n    /* \"#utility.yul\":1992:2041   */\n  tag_81\n    /* \"#utility.yul\":2034:2040   */\n  dup5\n    /* \"#utility.yul\":1992:2041   */\n  tag_30\n  jump\t// in\ntag_81:\n    /* \"#utility.yul\":1976:2042   */\n  tag_29\n  jump\t// in\ntag_80:\n    /* \"#utility.yul\":1967:2042   */\n  swap1\n  pop\n    /* \"#utility.yul\":2065:2071   */\n  dup3\n    /* \"#utility.yul\":2058:2063   */\n  dup2\n    /* \"#utility.yul\":2051:2072   */\n  mstore\n    /* \"#utility.yul\":2103:2107   */\n  0x20\n    /* \"#utility.yul\":2096:2101   */\n  dup2\n    /* \"#utility.yul\":2092:2108   */\n  add\n    /* \"#utility.yul\":2141:2144   */\n  dup5\n    /* \"#utility.yul\":2132:2138   */\n  dup5\n    /* \"#utility.yul\":2127:2130   */\n  dup5\n    /* \"#utility.yul\":2123:2139   */\n  add\n    /* \"#utility.yul\":2120:2145   */\n  gt\n    /* \"#utility.yul\":2117:2229   */\n  iszero\n  tag_82\n  jumpi\n    /* \"#utility.yul\":2148:2227   */\n  tag_83\n  tag_25\n  jump\t// in\ntag_83:\n    /* \"#utility.yul\":2117:2229   */\ntag_82:\n    /* \"#utility.yul\":2238:2290   */\n  tag_84\n    /* \"#utility.yul\":2283:2289   */\n  dup5\n    /* \"#utility.yul\":2278:2281   */\n  dup3\n    /* \"#utility.yul\":2273:2276   */\n  dup6\n    /* \"#utility.yul\":2238:2290   */\n  tag_31\n  jump\t// in\ntag_84:\n    /* \"#utility.yul\":1957:2296   */\n  pop\n    /* \"#utility.yul\":1862:2296   */\n  swap4\n  swap3\n  pop\n  pop\n  pop\n  jump\t// out\n    /* \"#utility.yul\":2316:2671   */\ntag_33:\n    /* \"#utility.yul\":2383:2388   */\n  0x00\n    /* \"#utility.yul\":2432:2435   */\n  dup3\n    /* \"#utility.yul\":2425:2429   */\n  0x1f\n    /* \"#utility.yul\":2417:2423   */\n  dup4\n    /* \"#utility.yul\":2413:2430   */\n  add\n    /* \"#utility.yul\":2409:2436   */\n  slt\n    /* \"#utility.yul\":2399:2521   */\n  tag_86\n  jumpi\n    /* \"#utility.yul\":2440:2519   */\n  tag_87\n  tag_24\n  jump\t// in\ntag_87:\n    /* \"#utility.yul\":2399:2521   */\ntag_86:\n    /* \"#utility.yul\":2550:2556   */\n  dup2\n    /* \"#utility.yul\":2544:2557   */\n  mload\n    /* \"#utility.yul\":2575:2665   */\n  tag_88\n    /* \"#utility.yul\":2661:2664   */\n  dup5\n    /* \"#utility.yul\":2653:2659   */\n  dup3\n    /* \"#utility.yul\":2646:2650   */\n  0x20\n    /* \"#utility.yul\":2638:2644   */\n  dup7\n    /* \"#utility.yul\":2634:2651   */\n  add\n    /* \"#utility.yul\":2575:2665   */\n  tag_32\n  jump\t// in\ntag_88:\n    /* \"#utility.yul\":2566:2665   */\n  swap2\n  pop\n    /* \"#utility.yul\":2389:2671   */\n  pop\n    /* \"#utility.yul\":2316:2671   */\n  swap3\n  swap2\n  pop\n  pop\n  jump\t// out\n    /* \"#utility.yul\":2677:3201   */\ntag_3:\n    /* \"#utility.yul\":2757:2763   */\n  0x00\n    /* \"#utility.yul\":2806:2808   */\n  0x20\n    /* \"#utility.yul\":2794:2803   */\n  dup3\n    /* \"#utility.yul\":2785:2792   */\n  dup5\n    /* \"#utility.yul\":2781:2804   */\n  sub\n    /* \"#utility.yul\":2777:2809   */\n  slt\n    /* \"#utility.yul\":2774:2893   */\n  iszero\n  tag_90\n  jumpi\n    /* \"#utility.yul\":2812:2891   */\n  tag_91\n  tag_22\n  jump\t// in\ntag_91:\n    /* \"#utility.yul\":2774:2893   */\ntag_90:\n    /* \"#utility.yul\":2953:2954   */\n  0x00\n    /* \"#utility.yul\":2942:2951   */\n  dup3\n    /* \"#utility.yul\":2938:2955   */\n  add\n    /* \"#utility.yul\":2932:2956   */\n  mload\n    /* \"#utility.yul\":2983:3001   */\n  0xffffffffffffffff\n    /* \"#utility.yul\":2975:2981   */\n  dup2\n    /* \"#utility.yul\":2972:3002   */\n  gt\n    /* \"#utility.yul\":2969:3086   */\n  iszero\n  tag_92\n  jumpi\n    /* \"#utility.yul\":3005:3084   */\n  tag_93\n  tag_23\n  jump\t// in\ntag_93:\n    /* \"#utility.yul\":2969:3086   */\ntag_92:\n    /* \"#utility.yul\":3110:3184   */\n  tag_94\n    /* \"#utility.yul\":3176:3183   */\n  dup5\n    /* \"#utility.yul\":3167:3173   */\n  dup3\n    /* \"#utility.yul\":3156:3165   */\n  dup6\n    /* \"#utility.yul\":3152:3174   */\n  add\n    /* \"#utility.yul\":3110:3184   */\n  tag_33\n  jump\t// in\ntag_94:\n    /* \"#utility.yul\":3100:3184   */\n  swap2\n  pop\n    /* \"#utility.yul\":2903:3194   */\n  pop\n    /* \"#utility.yul\":2677:3201   */\n  swap3\n  swap2\n  pop\n  pop\n  jump\t// out\n    /* \"#utility.yul\":3207:3306   */\ntag_34:\n    /* \"#utility.yul\":3259:3265   */\n  0x00\n    /* \"#utility.yul\":3293:3298   */\n  dup2\n    /* \"#utility.yul\":3287:3299   */\n  mload\n    /* \"#utility.yul\":3277:3299   */\n  swap1\n  pop\n    /* \"#utility.yul\":3207:3306   */\n  swap2\n  swap1\n  pop\n  jump\t// out\n    /* \"#utility.yul\":3312:3492   */\ntag_35:\n    /* \"#utility.yul\":3360:3437   */\n  0x4e487b7100000000000000000000000000000000000000000000000000000000\n    /* \"#utility.yul\":3357:3358   */\n  0x00\n    /* \"#utility.yul\":3350:3438   */\n  mstore\n    /* \"#utility.yul\":3457:3461   */\n  0x22\n    /* \"#utility.yul\":3454:3455   */\n  0x04\n    /* \"#utility.yul\":3447:3462   */\n  mstore\n    /* \"#utility.yul\":3481:3485   */\n  0x24\n    /* \"#utility.yul\":3478:3479   */\n  0x00\n    /* \"#utility.yul\":3471:3486   */\n  revert\n    /* \"#utility.yul\":3498:3818   */\ntag_36:\n    /* \"#utility.yul\":3542:3548   */\n  0x00\n    /* \"#utility.yul\":3579:3580   */\n  0x02\n    /* \"#utility.yul\":3573:3577   */\n  dup3\n    /* \"#utility.yul\":3569:3581   */\n  div\n    /* \"#utility.yul\":3559:3581   */\n  swap1\n  pop\n    /* \"#utility.yul\":3626:3627   */\n  0x01\n    /* \"#utility.yul\":3620:3624   */\n  dup3\n    /* \"#utility.yul\":3616:3628   */\n  and\n    /* \"#utility.yul\":3647:3665   */\n  dup1\n    /* \"#utility.yul\":3637:3718   */\n  tag_98\n  jumpi\n    /* \"#utility.yul\":3703:3707   */\n  0x7f\n    /* \"#utility.yul\":3695:3701   */\n  dup3\n    /* \"#utility.yul\":3691:3708   */\n  and\n    /* \"#utility.yul\":3681:3708   */\n  swap2\n  pop\n    /* \"#utility.yul\":3637:3718   */\ntag_98:\n    /* \"#utility.yul\":3765:3767   */\n  0x20\n    /* \"#utility.yul\":3757:3763   */\n  dup3\n    /* \"#utility.yul\":3754:3768   */\n  lt\n    /* \"#utility.yul\":3734:3752   */\n  dup2\n    /* \"#utility.yul\":3731:3769   */\n  sub\n    /* \"#utility.yul\":3728:3812   */\n  tag_99\n  jumpi\n    /* \"#utility.yul\":3784:3802   */\n  tag_100\n  tag_35\n  jump\t// in\ntag_100:\n    /* \"#utility.yul\":3728:3812   */\ntag_99:\n    /* \"#utility.yul\":3549:3818   */\n  pop\n    /* \"#utility.yul\":3498:3818   */\n  swap2\n  swap1\n  pop\n  jump\t// out\n    /* \"#utility.yul\":3824:3965   */\ntag_37:\n    /* \"#utility.yul\":3873:3877   */\n  0x00\n    /* \"#utility.yul\":3896:3899   */\n  dup2\n    /* \"#utility.yul\":3888:3899   */\n  swap1\n  pop\n    /* \"#utility.yul\":3919:3922   */\n  dup2\n    /* \"#utility.yul\":3916:3917   */\n  0x00\n    /* \"#utility.yul\":3909:3923   */\n  mstore\n    /* \"#utility.yul\":3953:3957   */\n  0x20\n    /* \"#utility.yul\":3950:3951   */\n  0x00\n    /* \"#utility.yul\":3940:3958   */\n  keccak256\n    /* \"#utility.yul\":3932:3958   */\n  swap1\n  pop\n    /* \"#utility.yul\":3824:3965   */\n  swap2\n  swap1\n  pop\n  jump\t// out\n    /* \"#utility.yul\":3971:4064   */\ntag_38:\n    /* \"#utility.yul\":4008:4014   */\n  0x00\n    /* \"#utility.yul\":4055:4057   */\n  0x20\n    /* \"#utility.yul\":4050:4052   */\n  0x1f\n    /* \"#utility.yul\":4043:4048   */\n  dup4\n    /* \"#utility.yul\":4039:4053   */\n  add\n    /* \"#utility.yul\":4035:4058   */\n  div\n    /* \"#utility.yul\":4025:4058   */\n  swap1\n  pop\n    /* \"#utility.yul\":3971:4064   */\n  swap2\n  swap1\n  pop\n  jump\t// out\n    /* \"#utility.yul\":4070:4177   */\ntag_39:\n    /* \"#utility.yul\":4114:4122   */\n  0x00\n    /* \"#utility.yul\":4164:4169   */\n  dup3\n    /* \"#utility.yul\":4158:4162   */\n  dup3\n    /* \"#utility.yul\":4154:4170   */\n  shl\n    /* \"#utility.yul\":4133:4170   */\n  swap1\n  pop\n    /* \"#utility.yul\":4070:4177   */\n  swap3\n  swap2\n  pop\n  pop\n  jump\t// out\n    /* \"#utility.yul\":4183:4576   */\ntag_40:\n    /* \"#utility.yul\":4252:4258   */\n  0x00\n    /* \"#utility.yul\":4302:4303   */\n  0x08\n    /* \"#utility.yul\":4290:4300   */\n  dup4\n    /* \"#utility.yul\":4286:4304   */\n  mul\n    /* \"#utility.yul\":4325:4422   */\n  tag_105\n    /* \"#utility.yul\":4355:4421   */\n  0xffffffffffffffffffffffffffffffffffffffffffffffffffffffffffffffff\n    /* \"#utility.yul\":4344:4353   */\n  dup3\n    /* \"#utility.yul\":4325:4422   */\n  tag_39\n  jump\t// in\ntag_105:\n    /* \"#utility.yul\":4443:4482   */\n  tag_106\n    /* \"#utility.yul\":4473:4481   */\n  dup7\n    /* \"#utility.yul\":4462:4471   */\n  dup4\n    /* \"#utility.yul\":4443:4482   */\n  tag_39\n  jump\t// in\ntag_106:\n    /* \"#utility.yul\":4431:4482   */\n  swap6\n  pop\n    /* \"#utility.yul\":4515:4519   */\n  dup1\n    /* \"#utility.yul\":4511:4520   */\n  not\n    /* \"#utility.yul\":4504:4509   */\n  dup5\n    /* \"#utility.yul\":4500:4521   */\n  and\n    /* \"#utility.yul\":4491:4521   */\n  swap4\n  pop\n    /* \"#utility.yul\":4564:4568   */\n  dup1\n    /* \"#utility.yul\":4554:4562   */\n  dup7\n    /* \"#utility.yul\":4550:4569   */\n  and\n    /* \"#utility.yul\":4543:4548   */\n  dup5\n    /* \"#utility.yul\":4540:4570   */\n  or\n    /* \"#utility.yul\":4530:4570   */\n  swap3\n  pop\n    /* \"#utility.yul\":4259:4576   */\n  pop\n  pop\n    /* \"#utility.yul\":4183:4576   */\n  swap4\n  swap3\n  pop\n  pop\n  pop\n  jump\t// out\n    /* \"#utility.yul\":4582:4659   */\ntag_41:\n    /* \"#utility.yul\":4619:4626   */\n  0x00\n    /* \"#utility.yul\":4648:4653   */\n  dup2\n    /* \"#utility.yul\":4637:4653   */\n  swap1\n  pop\n    /* \"#utility.yul\":4582:4659   */\n  swap2\n  swap1\n  pop\n  jump\t// out\n    /* \"#utility.yul\":4665:4725   */\ntag_42:\n    /* \"#utility.yul\":4693:4696   */\n  0x00\n    /* \"#utility.yul\":4714:4719   */\n  dup2\n    /* \"#utility.yul\":4707:4719   */\n  swap1\n  pop\n    /* \"#utility.yul\":4665:4725   */\n  swap2\n  swap1\n  pop\n  jump\t// out\n    /* \"#utility.yul\":4731:4873   */\ntag_43:\n    /* \"#utility.yul\":4781:4790   */\n  0x00\n    /* \"#utility.yul\":4814:4867   */\n  tag_110\n    /* \"#utility.yul\":4832:4866   */\n  tag_111\n    /* \"#utility.yul\":4841:4865   */\n  tag_112\n    /* \"#utility.yul\":4859:4864   */\n  dup5\n    /* \"#utility.yul\":4841:4865   */\n  tag_41\n  jump\t// in\ntag_112:\n    /* \"#utility.yul\":4832:4866   */\n  tag_42\n  jump\t// in\ntag_111:\n    /* \"#utility.yul\":4814:4867   */\n  tag_41\n  jump\t// in\ntag_110:\n    /* \"#utility.yul\":4801:4867   */\n  swap1\n  pop\n    /* \"#utility.yul\":4731:4873   */\n  swap2\n  swap1\n  pop\n  jump\t// out\n    /* \"#utility.yul\":4879:4954   */\ntag_44:\n    /* \"#utility.yul\":4922:4925   */\n  0x00\n    /* \"#utility.yul\":4943:4948   */\n  dup2\n    /* \"#utility.yul\":4936:4948   */\n  swap1\n  pop\n    /* \"#utility.yul\":4879:4954   */\n  swap2\n  swap1\n  pop\n  jump\t// out\n    /* \"#utility.yul\":4960:5229   */\ntag_45:\n    /* \"#utility.yul\":5070:5109   */\n  tag_115\n    /* \"#utility.yul\":5101:5108   */\n  dup4\n    /* \"#utility.yul\":5070:5109   */\n  tag_43\n  jump\t// in\ntag_115:\n    /* \"#utility.yul\":5131:5222   */\n  tag_116\n    /* \"#utility.yul\":5180:5221   */\n  tag_117\n    /* \"#utility.yul\":5204:5220   */\n  dup3\n    /* \"#utility.yul\":5180:5221   */\n  tag_44\n  jump\t// in\ntag_117:\n    /* \"#utility.yul\":5172:5178   */\n  dup5\n    /* \"#utility.yul\":5165:5169   */\n  dup5\n    /* \"#utility.yul\":5159:5170   */\n  sload\n    /* \"#utility.yul\":5131:5222   */\n  tag_40\n  jump\t// in\ntag_116:\n    /* \"#utility.yul\":5125:5129   */\n  dup3\n    /* \"#utility.yul\":5118:5223   */\n  sstore\n    /* \"#utility.yul\":5036:5229   */\n  pop\n    /* \"#utility.yul\":4960:5229   */\n  pop\n  pop\n  pop\n  jump\t// out\n    /* \"#utility.yul\":5235:5308   */\ntag_46:\n    /* \"#utility.yul\":5280:5283   */\n  0x00\n    /* \"#utility.yul\":5235:5308   */\n  swap1\n  jump\t// out\n    /* \"#utility.yul\":5314:5503   */\ntag_47:\n    /* \"#utility.yul\":5391:5423   */\n  tag_120\n  tag_46\n  jump\t// in\ntag_120:\n    /* \"#utility.yul\":5432:5497   */\n  tag_121\n    /* \"#utility.yul\":5490:5496   */\n  dup2\n    /* \"#utility.yul\":5482:5488   */\n  dup5\n    /* \"#utility.yul\":5476:5480   */\n  dup5\n    /* \"#utility.yul\":5432:5497   */\n  tag_45\n  jump\t// in\ntag_121:\n    /* \"#utility.yul\":5367:5503   */\n  pop\n    /* \"#utility.yul\":5314:5503   */\n  pop\n  pop\n  jump\t// out\n    /* \"#utility.yul\":5509:5695   */\ntag_48:\n    /* \"#utility.yul\":5569:5689   */\ntag_123:\n    /* \"#utility.yul\":5586:5589   */\n  dup2\n    /* \"#utility.yul\":5579:5584   */\n  dup2\n    /* \"#utility.yul\":5576:5590   */\n  lt\n    /* \"#utility.yul\":5569:5689   */\n  iszero\n  tag_125\n  jumpi\n    /* \"#utility.yul\":5640:5679   */\n  tag_126\n    /* \"#utility.yul\":5677:5678   */\n  0x00\n    /* \"#utility.yul\":5670:5675   */\n  dup3\n    /* \"#utility.yul\":5640:5679   */\n  tag_47\n  jump\t// in\ntag_126:\n    /* \"#utility.yul\":5613:5614   */\n  0x01\n    /* \"#utility.yul\":5606:5611   */\n  dup2\n    /* \"#utility.yul\":5602:5615   */\n  add\n    /* \"#utility.yul\":5593:5615   */\n  swap1\n  pop\n    /* \"#utility.yul\":5569:5689   */\n  jump(tag_123)\ntag_125:\n    /* \"#utility.yul\":5509:5695   */\n  pop\n  pop\n  jump\t// out\n    /* \"#utility.yul\":5701:6244   */\ntag_49:\n    /* \"#utility.yul\":5802:5804   */\n  0x1f\n    /* \"#utility.yul\":5797:5800   */\n  dup3\n    /* \"#utility.yul\":5794:5805   */\n  gt\n    /* \"#utility.yul\":5791:6237   */\n  iszero\n  tag_128\n  jumpi\n    /* \"#utility.yul\":5836:5874   */\n  tag_129\n    /* \"#utility.yul\":5868:5873   */\n  dup2\n    /* \"#utility.yul\":5836:5874   */\n  tag_37\n  jump\t// in\ntag_129:\n    /* \"#utility.yul\":5920:5949   */\n  tag_130\n    /* \"#utility.yul\":5938:5948   */\n  dup5\n    /* \"#utility.yul\":5920:5949   */\n  tag_38\n  jump\t// in\ntag_130:\n    /* \"#utility.yul\":5910:5918   */\n  dup2\n    /* \"#utility.yul\":5906:5950   */\n  add\n    /* \"#utility.yul\":6103:6105   */\n  0x20\n    /* \"#utility.yul\":6091:6101   */\n  dup6\n    /* \"#utility.yul\":6088:6106   */\n  lt\n    /* \"#utility.yul\":6085:6134   */\n  iszero\n  tag_131\n  jumpi\n    /* \"#utility.yul\":6124:6132   */\n  dup2\n    /* \"#utility.yul\":6109:6132   */\n  swap1\n  pop\n    /* \"#utility.yul\":6085:6134   */\ntag_131:\n    /* \"#utility.yul\":6147:6227   */\n  tag_132\n    /* \"#utility.yul\":6203:6225   */\n  tag_133\n    /* \"#utility.yul\":6221:6224   */\n  dup6\n    /* \"#utility.yul\":6203:6225   */\n  tag_38\n  jump\t// in\ntag_133:\n    /* \"#utility.yul\":6193:6201   */\n  dup4\n    /* \"#utility.yul\":6189:6226   */\n  add\n    /* \"#utility.yul\":6176:6187   */\n  dup3\n    /* \"#utility.yul\":6147:6227   */\n  tag_48\n  jump\t// in\ntag_132:\n    /* \"#utility.yul\":5806:6237   */\n  pop\n  pop\n    /* \"#utility.yul\":5791:6237   */\ntag_128:\n    /* \"#utility.yul\":5701:6244   */\n  pop\n  pop\n  pop\n  jump\t// out\n    /* \"#utility.yul\":6250:6367   */\ntag_50:\n    /* \"#utility.yul\":6304:6312   */\n  0x00\n    /* \"#utility.yul\":6354:6359   */\n  dup3\n    /* \"#utility.yul\":6348:6352   */\n  dup3\n    /* \"#utility.yul\":6344:6360   */\n  shr\n    /* \"#utility.yul\":6323:6360   */\n  swap1\n  pop\n    /* \"#utility.yul\":6250:6367   */\n  swap3\n  swap2\n  pop\n  pop\n  jump\t// out\n    /* \"#utility.yul\":6373:6542   */\ntag_51:\n    /* \"#utility.yul\":6417:6423   */\n  0x00\n    /* \"#utility.yul\":6450:6501   */\n  tag_136\n    /* \"#utility.yul\":6498:6499   */\n  0x00\n    /* \"#utility.yul\":6494:6500   */\n  not\n    /* \"#utility.yul\":6486:6491   */\n  dup5\n    /* \"#utility.yul\":6483:6484   */\n  0x08\n    /* \"#utility.yul\":6479:6492   */\n  mul\n    /* \"#utility.yul\":6450:6501   */\n  tag_50\n  jump\t// in\ntag_136:\n    /* \"#utility.yul\":6446:6502   */\n  not\n    /* \"#utility.yul\":6531:6535   */\n  dup1\n    /* \"#utility.yul\":6525:6529   */\n  dup4\n    /* \"#utility.yul\":6521:6536   */\n  and\n    /* \"#utility.yul\":6511:6536   */\n  swap2\n  pop\n    /* \"#utility.yul\":6424:6542   */\n  pop\n    /* \"#utility.yul\":6373:6542   */\n  swap3\n  swap2\n  pop\n  pop\n  jump\t// out\n    /* \"#utility.yul\":6547:6842   */\ntag_52:\n    /* \"#utility.yul\":6623:6627   */\n  0x00\n    /* \"#utility.yul\":6769:6798   */\n  tag_138\n    /* \"#utility.yul\":6794:6797   */\n  dup4\n    /* \"#utility.yul\":6788:6792   */\n  dup4\n    /* \"#utility.yul\":6769:6798   */\n  tag_51\n  jump\t// in\ntag_138:\n    /* \"#utility.yul\":6761:6798   */\n  swap2\n  pop\n    /* \"#utility.yul\":6831:6834   */\n  dup3\n    /* \"#utility.yul\":6828:6829   */\n  0x02\n    /* \"#utility.yul\":6824:6835   */\n  mul\n    /* \"#utility.yul\":6818:6822   */\n  dup3\n    /* \"#utility.yul\":6815:6836   */\n  or\n    /* \"#utility.yul\":6807:6836   */\n  swap1\n  pop\n    /* \"#utility.yul\":6547:6842   */\n  swap3\n  swap2\n  pop\n  pop\n  jump\t// out\n    /* \"#utility.yul\":6847:8242   */\ntag_9:\n    /* \"#utility.yul\":6964:7001   */\n  tag_140\n    /* \"#utility.yul\":6997:7000   */\n  dup3\n    /* \"#utility.yul\":6964:7001   */\n  tag_34\n  jump\t// in\ntag_140:\n    /* \"#utility.yul\":7066:7084   */\n  0xffffffffffffffff\n    /* \"#utility.yul\":7058:7064   */\n  dup2\n    /* \"#utility.yul\":7055:7085   */\n  gt\n    /* \"#utility.yul\":7052:7108   */\n  iszero\n  tag_141\n  jumpi\n    /* \"#utility.yul\":7088:7106   */\n  tag_142\n  tag_27\n  jump\t// in\ntag_142:\n    /* \"#utility.yul\":7052:7108   */\ntag_141:\n    /* \"#utility.yul\":7132:7170   */\n  tag_143\n    /* \"#utility.yul\":7164:7168   */\n  dup3\n    /* \"#utility.yul\":7158:7169   */\n  sload\n    /* \"#utility.yul\":7132:7170   */\n  tag_36\n  jump\t// in\ntag_143:\n    /* \"#utility.yul\":7217:7284   */\n  tag_144\n    /* \"#utility.yul\":7277:7283   */\n  dup3\n    /* \"#utility.yul\":7269:7275   */\n  dup3\n    /* \"#utility.yul\":7263:7267   */\n  dup6\n    /* \"#utility.yul\":7217:7284   */\n  tag_49\n  jump\t// in\ntag_144:\n    /* \"#utility.yul\":7311:7312   */\n  0x00\n    /* \"#utility.yul\":7335:7339   */\n  0x20\n    /* \"#utility.yul\":7322:7339   */\n  swap1\n  pop\n    /* \"#utility.yul\":7367:7369   */\n  0x1f\n    /* \"#utility.yul\":7359:7365   */\n  dup4\n    /* \"#utility.yul\":7356:7370   */\n  gt\n    /* \"#utility.yul\":7384:7385   */\n  0x01\n    /* \"#utility.yul\":7379:7997   */\n  dup2\n  eq\n  tag_146\n  jumpi\n    /* \"#utility.yul\":8041:8042   */\n  0x00\n    /* \"#utility.yul\":8058:8064   */\n  dup5\n    /* \"#utility.yul\":8055:8132   */\n  iszero\n  tag_147\n  jumpi\n    /* \"#utility.yul\":8107:8116   */\n  dup3\n    /* \"#utility.yul\":8102:8105   */\n  dup8\n    /* \"#utility.yul\":8098:8117   */\n  add\n    /* \"#utility.yul\":8092:8118   */\n  mload\n    /* \"#utility.yul\":8083:8118   */\n  swap1\n  pop\n    /* \"#utility.yul\":8055:8132   */\ntag_147:\n    /* \"#utility.yul\":8158:8225   */\n  tag_148\n    /* \"#utility.yul\":8218:8224   */\n  dup6\n    /* \"#utility.yul\":8211:8216   */\n  dup3\n    /* \"#utility.yul\":8158:8225   */\n  tag_52\n  jump\t// in\ntag_148:\n    /* \"#utility.yul\":8152:8156   */\n  dup7\n    /* \"#utility.yul\":8145:8226   */\n  sstore\n    /* \"#utility.yul\":8014:8236   */\n  pop\n    /* \"#utility.yul\":7349:8236   */\n  jump(tag_145)\n    /* \"#utility.yul\":7379:7997   */\ntag_146:\n    /* \"#utility.yul\":7431:7435   */\n  0x1f\n    /* \"#utility.yul\":7427:7436   */\n  not\n    /* \"#utility.yul\":7419:7425   */\n  dup5\n    /* \"#utility.yul\":7415:7437   */\n  and\n    /* \"#utility.yul\":7465:7502   */\n  tag_149\n    /* \"#utility.yul\":7497:7501   */\n  dup7\n    /* \"#utility.yul\":7465:7502   */\n  tag_37\n  jump\t// in\ntag_149:\n    /* \"#utility.yul\":7524:7525   */\n  0x00\n    /* \"#utility.yul\":7538:7746   */\ntag_150:\n    /* \"#utility.yul\":7552:7559   */\n  dup3\n    /* \"#utility.yul\":7549:7550   */\n  dup2\n    /* \"#utility.yul\":7546:7560   */\n  lt\n    /* \"#utility.yul\":7538:7746   */\n  iszero\n  tag_152\n  jumpi\n    /* \"#utility.yul\":7631:7640   */\n  dup5\n    /* \"#utility.yul\":7626:7629   */\n  dup10\n    /* \"#utility.yul\":7622:7641   */\n  add\n    /* \"#utility.yul\":7616:7642   */\n  mload\n    /* \"#utility.yul\":7608:7614   */\n  dup3\n    /* \"#utility.yul\":7601:7643   */\n  sstore\n    /* \"#utility.yul\":7682:7683   */\n  0x01\n    /* \"#utility.yul\":7674:7680   */\n  dup3\n    /* \"#utility.yul\":7670:7684   */\n  add\n    /* \"#utility.yul\":7660:7684   */\n  swap2\n  pop\n    /* \"#utility.yul\":7729:7731   */\n  0x20\n    /* \"#utility.yul\":7718:7727   */\n  dup6\n    /* \"#utility.yul\":7714:7732   */\n  add\n    /* \"#utility.yul\":7701:7732   */\n  swap5\n  pop\n    /* \"#utility.yul\":7575:7579   */\n  0x20\n    /* \"#utility.yul\":7572:7573   */\n  dup2\n    /* \"#utility.yul\":7568:7580   */\n  add\n    /* \"#utility.yul\":7563:7580   */\n  swap1\n  pop\n    /* \"#utility.yul\":7538:7746   */\n  jump(tag_150)\ntag_152:\n    /* \"#utility.yul\":7774:7780   */\n  dup7\n    /* \"#utility.yul\":7765:7772   */\n  dup4\n    /* \"#utility.yul\":7762:7781   */\n  lt\n    /* \"#utility.yul\":7759:7938   */\n  iszero\n  tag_153\n  jumpi\n    /* \"#utility.yul\":7832:7841   */\n  dup5\n    /* \"#utility.yul\":7827:7830   */\n  dup10\n    /* \"#utility.yul\":7823:7842   */\n  add\n    /* \"#utility.yul\":7817:7843   */\n  mload\n    /* \"#utility.yul\":7875:7923   */\n  tag_154\n    /* \"#utility.yul\":7917:7921   */\n  0x1f\n    /* \"#utility.yul\":7909:7915   */\n  dup10\n    /* \"#utility.yul\":7905:7922   */\n  and\n    /* \"#utility.yul\":7894:7903   */\n  dup3\n    /* \"#utility.yul\":7875:7923   */\n  tag_51\n  jump\t// in\ntag_154:\n    /* \"#utility.yul\":7867:7873   */\n  dup4\n    /* \"#utility.yul\":7860:7924   */\n  sstore\n    /* \"#utility.yul\":7782:7938   */\n  pop\n    /* \"#utility.yul\":7759:7938   */\ntag_153:\n    /* \"#utility.yul\":7984:7985   */\n  0x01\n    /* \"#utility.yul\":7980:7981   */\n  0x02\n    /* \"#utility.yul\":7972:7978   */\n  dup9\n    /* \"#utility.yul\":7968:7982   */\n  mul\n    /* \"#utility.yul\":7964:7986   */\n  add\n    /* \"#utility.yul\":7958:7962   */\n  dup9\n    /* \"#utility.yul\":7951:7987   */\n  sstore\n    /* \"#utility.yul\":7386:7997   */\n  pop\n  pop\n  pop\n    /* \"#utility.yul\":7349:8236   */\ntag_145:\n  pop\n    /* \"#utility.yul\":6939:8242   */\n  pop\n  pop\n  pop\n    /* \"#utility.yul\":6847:8242   */\n  pop\n  pop\n  jump\t// out\n    /* \"#utility.yul\":8248:8374   */\ntag_53:\n    /* \"#utility.yul\":8285:8292   */\n  0x00\n    /* \"#utility.yul\":8325:8367   */\n  0xffffffffffffffffffffffffffffffffffffffff\n    /* \"#utility.yul\":8318:8323   */\n  dup3\n    /* \"#utility.yul\":8314:8368   */\n  and\n    /* \"#utility.yul\":8303:8368   */\n  swap1\n  pop\n    /* \"#utility.yul\":8248:8374   */\n  swap2\n  swap1\n  pop\n  jump\t// out\n    /* \"#utility.yul\":8380:8476   */\ntag_54:\n    /* \"#utility.yul\":8417:8424   */\n  0x00\n    /* \"#utility.yul\":8446:8470   */\n  tag_157\n    /* \"#utility.yul\":8464:8469   */\n  dup3\n    /* \"#utility.yul\":8446:8470   */\n  tag_53\n  jump\t// in\ntag_157:\n    /* \"#utility.yul\":8435:8470   */\n  swap1\n  pop\n    /* \"#utility.yul\":8380:8476   */\n  swap2\n  swap1\n  pop\n  jump\t// out\n    /* \"#utility.yul\":8482:8600   */\ntag_55:\n    /* \"#utility.yul\":8569:8593   */\n  tag_159\n    /* \"#utility.yul\":8587:8592   */\n  dup2\n    /* \"#utility.yul\":8569:8593   */\n  tag_54\n  jump\t// in\ntag_159:\n    /* \"#utility.yul\":8564:8567   */\n  dup3\n    /* \"#utility.yul\":8557:8594   */\n  mstore\n    /* \"#utility.yul\":8482:8600   */\n  pop\n  pop\n  jump\t// out\n    /* \"#utility.yul\":8606:8828   */\ntag_14:\n    /* \"#utility.yul\":8699:8703   */\n  0x00\n    /* \"#utility.yul\":8737:8739   */\n  0x20\n    /* \"#utility.yul\":8726:8735   */\n  dup3\n    /* \"#utility.yul\":8722:8740   */\n  add\n    /* \"#utility.yul\":8714:8740   */\n  swap1\n  pop\n    /* \"#utility.yul\":8750:8821   */\n  tag_161\n    /* \"#utility.yul\":8818:8819   */\n  0x00\n    /* \"#utility.yul\":8807:8816   */\n  dup4\n    /* \"#utility.yul\":8803:8820   */\n  add\n    /* \"#utility.yul\":8794:8800   */\n  dup5\n    /* \"#utility.yul\":8750:8821   */\n  tag_55\n  jump\t// in\ntag_161:\n    /* \"#utility.yul\":8606:8828   */\n  swap3\n  swap2\n  pop\n  pop\n  jump\t// out\n    /* \"nftmarket.sol\":229:2159  contract NFTMarketplace is ERC721, Ownable {... */\ntag_19:\n  dataSize(sub_0)\n  dup1\n  dataOffset(sub_0)\n  0x00\n  codecopy\n  0x00\n  return\nstop\n\nsub_0: assembly {\n        /* \"nftmarket.sol\":229:2159  contract NFTMarketplace is ERC721, Ownable {... */\n      mstore(0x40, 0x80)\n      jumpi(tag_1, lt(calldatasize, 0x04))\n      shr(0xe0, calldataload(0x00))\n      dup1\n      0x70a08231\n      gt\n      tag_23\n      jumpi\n      dup1\n      0xb88d4fde\n      gt\n      tag_24\n      jumpi\n      dup1\n      0xb88d4fde\n      eq\n      tag_17\n      jumpi\n      dup1\n      0xc4d1510d\n      eq\n      tag_18\n      jumpi\n      dup1\n      0xc87b56dd\n      eq\n      tag_19\n      jumpi\n      dup1\n      0xe985e9c5\n      eq\n      tag_20\n      jumpi\n      dup1\n      0xee9cdfb3\n      eq\n      tag_21\n      jumpi\n      dup1\n      0xf2fde38b\n      eq\n      tag_22\n      jumpi\n      jump(tag_1)\n    tag_24:\n      dup1\n      0x70a08231\n      eq\n      tag_12\n      jumpi\n      dup1\n      0x715018a6\n      eq\n      tag_13\n      jumpi\n      dup1\n      0x8da5cb5b\n      eq\n      tag_14\n      jumpi\n      dup1\n      0x95d89b41\n      eq\n      tag_15\n      jumpi\n      dup1\n      0xa22cb465\n      eq\n      tag_16\n      jumpi\n      jump(tag_1)\n    tag_23:\n      dup1\n      0x265aa621\n      gt\n      tag_25\n      jumpi\n      dup1\n      0x265aa621\n      eq\n      tag_7\n      jumpi\n      dup1\n      0x42842e0e\n      eq\n      tag_8\n      jumpi\n      dup1\n      0x55f804b3\n      eq\n      tag_9\n      jumpi\n      dup1\n      0x5afa3a72\n      eq\n      tag_10\n      jumpi\n      dup1\n      0x6352211e\n      eq\n      tag_11\n      jumpi\n      jump(tag_1)\n    tag_25:\n      dup1\n      0x01ffc9a7\n      eq\n      tag_2\n      jumpi\n      dup1\n      0x06fdde03\n      eq\n      tag_3\n      jumpi\n      dup1\n      0x081812fc\n      eq\n      tag_4\n      jumpi\n      dup1\n      0x095ea7b3\n      eq\n      tag_5\n      jumpi\n      dup1\n      0x23b872dd\n      eq\n      tag_6\n      jumpi\n    tag_1:\n      0x00\n      dup1\n      revert\n        /* \"@openzeppelin/contracts/token/ERC721/ERC721.sol\":1561:1861  function supportsInterface(bytes4 interfaceId) public view virtual override(ERC165, IERC165) returns (bool) {... */\n    tag_2:\n      callvalue\n      dup1\n      iszero\n      tag_26\n      jumpi\n      0x00\n      dup1\n      revert\n    tag_26:\n      pop\n      tag_27\n      0x04\n      dup1\n      calldatasize\n      sub\n      dup2\n      add\n      swap1\n      tag_28\n      swap2\n      swap1\n      tag_29\n      jump\t// in\n    tag_28:\n      tag_30\n      jump\t// in\n    tag_27:\n      mload(0x40)\n      tag_31\n      swap2\n      swap1\n      tag_32\n      jump\t// in\n    tag_31:\n      mload(0x40)\n      dup1\n      swap2\n      sub\n      swap1\n      return\n        /* \"@openzeppelin/contracts/token/ERC721/ERC721.sol\":2365:2454  function name() public view virtual returns (string memory) {... */\n    tag_3:\n      callvalue\n      dup1\n      iszero\n      tag_33\n      jumpi\n      0x00\n      dup1\n      revert\n    tag_33:\n      pop\n      tag_34\n      tag_35\n      jump\t// in\n    tag_34:\n      mload(0x40)\n      tag_36\n      swap2\n      swap1\n      tag_37\n      jump\t// in\n    tag_36:\n      mload(0x40)\n      dup1\n      swap2\n      sub\n      swap1\n      return\n        /* \"@openzeppelin/contracts/token/ERC721/ERC721.sol\":3497:3651  function getApproved(uint256 tokenId) public view virtual returns (address) {... */\n    tag_4:\n      callvalue\n      dup1\n      iszero\n      tag_38\n      jumpi\n      0x00\n      dup1\n      revert\n    tag_38:\n      pop\n      tag_39\n      0x04\n      dup1\n      calldatasize\n      sub\n      dup2\n      add\n      swap1\n      tag_40\n      swap2\n      swap1\n      tag_41\n      jump\t// in\n    tag_40:\n      tag_42\n      jump\t// in\n    tag_39:\n      mload(0x40)\n      tag_43\n      swap2\n      swap1\n      tag_44\n      jump\t// in\n    tag_43:\n      mload(0x40)\n      dup1\n      swap2\n      sub\n      swap1\n      return\n        /* \"@openzeppelin/contracts/token/ERC721/ERC721.sol\":3323:3436  function approve(address to, uint256 tokenId) public virtual {... */\n    tag_5:\n      callvalue\n      dup1\n      iszero\n      tag_45\n      jumpi\n      0x00\n      dup1\n      revert\n    tag_45:\n      pop\n      tag_46\n      0x04\n      dup1\n      calldatasize\n      sub\n      dup2\n      add\n      swap1\n      tag_47\n      swap2\n      swap1\n      tag_48\n      jump\t// in\n    tag_47:\n      tag_49\n      jump\t// in\n    tag_46:\n      stop\n        /* \"@openzeppelin/contracts/token/ERC721/ERC721.sol\":4143:4721  function transferFrom(address from, address to, uint256 tokenId) public virtual {... */\n    tag_6:\n      callvalue\n      dup1\n      iszero\n      tag_50\n      jumpi\n      0x00\n      dup1\n      revert\n    tag_50:\n      pop\n      tag_51\n      0x04\n      dup1\n      calldatasize\n      sub\n      dup2\n      add\n      swap1\n      tag_52\n      swap2\n      swap1\n      tag_53\n      jump\t// in\n    tag_52:\n      tag_54\n      jump\t// in\n    tag_51:\n      stop\n        /* \"nftmarket.sol\":560:595  mapping(uint256 => NFT) public nfts */\n    tag_7:\n      callvalue\n      dup1\n      iszero\n      tag_55\n      jumpi\n      0x00\n      dup1\n      revert\n    tag_55:\n      pop\n      tag_56\n      0x04\n      dup1\n      calldatasize\n      sub\n      dup2\n      add\n      swap1\n      tag_57\n      swap2\n      swap1\n      tag_41\n      jump\t// in\n    tag_57:\n      tag_58\n      jump\t// in\n    tag_56:\n      mload(0x40)\n      tag_59\n      swap3\n      swap2\n      swap1\n      tag_60\n      jump\t// in\n    tag_59:\n      mload(0x40)\n      dup1\n      swap2\n      sub\n      swap1\n      return\n        /* \"@openzeppelin/contracts/token/ERC721/ERC721.sol\":4787:4919  function safeTransferFrom(address from, address to, uint256 tokenId) public {... */\n    tag_8:\n      callvalue\n      dup1\n      iszero\n      tag_61\n      jumpi\n      0x00\n      dup1\n      revert\n    tag_61:\n      pop\n      tag_62\n      0x04\n      dup1\n      calldatasize\n      sub\n      dup2\n      add\n      swap1\n      tag_63\n      swap2\n      swap1\n      tag_53\n      jump\t// in\n    tag_63:\n      tag_64\n      jump\t// in\n    tag_62:\n      stop\n        /* \"nftmarket.sol\":762:879  function setBaseURI(string memory newBaseTokenURI) public onlyOwner {... */\n    tag_9:\n      callvalue\n      dup1\n      iszero\n      tag_65\n      jumpi\n      0x00\n      dup1\n      revert\n    tag_65:\n      pop\n      tag_66\n      0x04\n      dup1\n      calldatasize\n      sub\n      dup2\n      add\n      swap1\n      tag_67\n      swap2\n      swap1\n      tag_68\n      jump\t// in\n    tag_67:\n      tag_69\n      jump\t// in\n    tag_66:\n      stop\n        /* \"nftmarket.sol\":887:1178  function mintNFT(string memory tokenURI, uint256 price) public {... */\n    tag_10:\n      callvalue\n      dup1\n      iszero\n      tag_70\n      jumpi\n      0x00\n      dup1\n      revert\n    tag_70:\n      pop\n      tag_71\n      0x04\n      dup1\n      calldatasize\n      sub\n      dup2\n      add\n      swap1\n      tag_72\n      swap2\n      swap1\n      tag_73\n      jump\t// in\n    tag_72:\n      tag_74\n      jump\t// in\n    tag_71:\n      stop\n        /* \"@openzeppelin/contracts/token/ERC721/ERC721.sol\":2185:2303  function ownerOf(uint256 tokenId) public view virtual returns (address) {... */\n    tag_11:\n      callvalue\n      dup1\n      iszero\n      tag_75\n      jumpi\n      0x00\n      dup1\n      revert\n    tag_75:\n      pop\n      tag_76\n      0x04\n      dup1\n      calldatasize\n      sub\n      dup2\n      add\n      swap1\n      tag_77\n      swap2\n      swap1\n      tag_41\n      jump\t// in\n    tag_77:\n      tag_78\n      jump\t// in\n    tag_76:\n      mload(0x40)\n      tag_79\n      swap2\n      swap1\n      tag_44\n      jump\t// in\n    tag_79:\n      mload(0x40)\n      dup1\n      swap2\n      sub\n      swap1\n      return\n        /* \"@openzeppelin/contracts/token/ERC721/ERC721.sol\":1920:2128  function balanceOf(address owner) public view virtual returns (uint256) {... */\n    tag_12:\n      callvalue\n      dup1\n      iszero\n      tag_80\n      jumpi\n      0x00\n      dup1\n      revert\n    tag_80:\n      pop\n      tag_81\n      0x04\n      dup1\n      calldatasize\n      sub\n      dup2\n      add\n      swap1\n      tag_82\n      swap2\n      swap1\n      tag_83\n      jump\t// in\n    tag_82:\n      tag_84\n      jump\t// in\n    tag_81:\n      mload(0x40)\n      tag_85\n      swap2\n      swap1\n      tag_86\n      jump\t// in\n    tag_85:\n      mload(0x40)\n      dup1\n      swap2\n      sub\n      swap1\n      return\n        /* \"@openzeppelin/contracts/access/Ownable.sol\":2293:2394  function renounceOwnership() public virtual onlyOwner {... */\n    tag_13:\n      callvalue\n      dup1\n      iszero\n      tag_87\n      jumpi\n      0x00\n      dup1\n      revert\n    tag_87:\n      pop\n      tag_88\n      tag_89\n      jump\t// in\n    tag_88:\n      stop\n        /* \"@openzeppelin/contracts/access/Ownable.sol\":1638:1723  function owner() public view virtual returns (address) {... */\n    tag_14:\n      callvalue\n      dup1\n      iszero\n      tag_90\n      jumpi\n      0x00\n      dup1\n      revert\n    tag_90:\n      pop\n      tag_91\n      tag_92\n      jump\t// in\n    tag_91:\n      mload(0x40)\n      tag_93\n      swap2\n      swap1\n      tag_44\n      jump\t// in\n    tag_93:\n      mload(0x40)\n      dup1\n      swap2\n      sub\n      swap1\n      return\n        /* \"@openzeppelin/contracts/token/ERC721/ERC721.sol\":2518:2611  function symbol() public view virtual returns (string memory) {... */\n    tag_15:\n      callvalue\n      dup1\n      iszero\n      tag_94\n      jumpi\n      0x00\n      dup1\n      revert\n    tag_94:\n      pop\n      tag_95\n      tag_96\n      jump\t// in\n    tag_95:\n      mload(0x40)\n      tag_97\n      swap2\n      swap1\n      tag_37\n      jump\t// in\n    tag_97:\n      mload(0x40)\n      dup1\n      swap2\n      sub\n      swap1\n      return\n        /* \"@openzeppelin/contracts/token/ERC721/ERC721.sol\":3718:3862  function setApprovalForAll(address operator, bool approved) public virtual {... */\n    tag_16:\n      callvalue\n      dup1\n      iszero\n      tag_98\n      jumpi\n      0x00\n      dup1\n      revert\n    tag_98:\n      pop\n      tag_99\n      0x04\n      dup1\n      calldatasize\n      sub\n      dup2\n      add\n      swap1\n      tag_100\n      swap2\n      swap1\n      tag_101\n      jump\t// in\n    tag_100:\n      tag_102\n      jump\t// in\n    tag_99:\n      stop\n        /* \"@openzeppelin/contracts/token/ERC721/ERC721.sol\":4985:5193  function safeTransferFrom(address from, address to, uint256 tokenId, bytes memory data) public virtual {... */\n    tag_17:\n      callvalue\n      dup1\n      iszero\n      tag_103\n      jumpi\n      0x00\n      dup1\n      revert\n    tag_103:\n      pop\n      tag_104\n      0x04\n      dup1\n      calldatasize\n      sub\n      dup2\n      add\n      swap1\n      tag_105\n      swap2\n      swap1\n      tag_106\n      jump\t// in\n    tag_105:\n      tag_107\n      jump\t// in\n    tag_104:\n      stop\n        /* \"nftmarket.sol\":404:435  uint256 public royaltyRate = 10 */\n    tag_18:\n      callvalue\n      dup1\n      iszero\n      tag_108\n      jumpi\n      0x00\n      dup1\n      revert\n    tag_108:\n      pop\n      tag_109\n      tag_110\n      jump\t// in\n    tag_109:\n      mload(0x40)\n      tag_111\n      swap2\n      swap1\n      tag_86\n      jump\t// in\n    tag_111:\n      mload(0x40)\n      dup1\n      swap2\n      sub\n      swap1\n      return\n        /* \"@openzeppelin/contracts/token/ERC721/ERC721.sol\":2677:2932  function tokenURI(uint256 tokenId) public view virtual returns (string memory) {... */\n    tag_19:\n      callvalue\n      dup1\n      iszero\n      tag_112\n      jumpi\n      0x00\n      dup1\n      revert\n    tag_112:\n      pop\n      tag_113\n      0x04\n      dup1\n      calldatasize\n      sub\n      dup2\n      add\n      swap1\n      tag_114\n      swap2\n      swap1\n      tag_41\n      jump\t// in\n    tag_114:\n      tag_115\n      jump\t// in\n    tag_113:\n      mload(0x40)\n      tag_116\n      swap2\n      swap1\n      tag_37\n      jump\t// in\n    tag_116:\n      mload(0x40)\n      dup1\n      swap2\n      sub\n      swap1\n      return\n        /* \"@openzeppelin/contracts/token/ERC721/ERC721.sol\":3928:4081  function isApprovedForAll(address owner, address operator) public view virtual returns (bool) {... */\n    tag_20:\n      callvalue\n      dup1\n      iszero\n      tag_117\n      jumpi\n      0x00\n      dup1\n      revert\n    tag_117:\n      pop\n      tag_118\n      0x04\n      dup1\n      calldatasize\n      sub\n      dup2\n      add\n      swap1\n      tag_119\n      swap2\n      swap1\n      tag_120\n      jump\t// in\n    tag_119:\n      tag_121\n      jump\t// in\n    tag_118:\n      mload(0x40)\n      tag_122\n      swap2\n      swap1\n      tag_32\n      jump\t// in\n    tag_122:\n      mload(0x40)\n      dup1\n      swap2\n      sub\n      swap1\n      return\n        /* \"nftmarket.sol\":1186:1913  function sellNFT(uint256 tokenId) public payable {... */\n    tag_21:\n      tag_123\n      0x04\n      dup1\n      calldatasize\n      sub\n      dup2\n      add\n      swap1\n      tag_124\n      swap2\n      swap1\n      tag_41\n      jump\t// in\n    tag_124:\n      tag_125\n      jump\t// in\n    tag_123:\n      stop\n        /* \"@openzeppelin/contracts/access/Ownable.sol\":2543:2758  function transferOwnership(address newOwner) public virtual onlyOwner {... */\n    tag_22:\n      callvalue\n      dup1\n      iszero\n      tag_126\n      jumpi\n      0x00\n      dup1\n      revert\n    tag_126:\n      pop\n      tag_127\n      0x04\n      dup1\n      calldatasize\n      sub\n      dup2\n      add\n      swap1\n      tag_128\n      swap2\n      swap1\n      tag_83\n      jump\t// in\n    tag_128:\n      tag_129\n      jump\t// in\n    tag_127:\n      stop\n        /* \"@openzeppelin/contracts/token/ERC721/ERC721.sol\":1561:1861  function supportsInterface(bytes4 interfaceId) public view virtual override(ERC165, IERC165) returns (bool) {... */\n    tag_30:\n        /* \"@openzeppelin/contracts/token/ERC721/ERC721.sol\":1663:1667  bool */\n      0x00\n        /* \"@openzeppelin/contracts/token/ERC721/ERC721.sol\":1713:1738  type(IERC721).interfaceId */\n      0x80ac58cd00000000000000000000000000000000000000000000000000000000\n        /* \"@openzeppelin/contracts/token/ERC721/ERC721.sol\":1698:1738  interfaceId == type(IERC721).interfaceId */\n      not(0xffffffffffffffffffffffffffffffffffffffffffffffffffffffff)\n      and\n        /* \"@openzeppelin/contracts/token/ERC721/ERC721.sol\":1698:1709  interfaceId */\n      dup3\n        /* \"@openzeppelin/contracts/token/ERC721/ERC721.sol\":1698:1738  interfaceId == type(IERC721).interfaceId */\n      not(0xffffffffffffffffffffffffffffffffffffffffffffffffffffffff)\n      and\n      eq\n        /* \"@openzeppelin/contracts/token/ERC721/ERC721.sol\":1698:1802  interfaceId == type(IERC721).interfaceId ||... */\n      dup1\n      tag_131\n      jumpi\n      pop\n        /* \"@openzeppelin/contracts/token/ERC721/ERC721.sol\":1769:1802  type(IERC721Metadata).interfaceId */\n      0x5b5e139f00000000000000000000000000000000000000000000000000000000\n        /* \"@openzeppelin/contracts/token/ERC721/ERC721.sol\":1754:1802  interfaceId == type(IERC721Metadata).interfaceId */\n      not(0xffffffffffffffffffffffffffffffffffffffffffffffffffffffff)\n      and\n        /* \"@openzeppelin/contracts/token/ERC721/ERC721.sol\":1754:1765  interfaceId */\n      dup3\n        /* \"@openzeppelin/contracts/token/ERC721/ERC721.sol\":1754:1802  interfaceId == type(IERC721Metadata).interfaceId */\n      not(0xffffffffffffffffffffffffffffffffffffffffffffffffffffffff)\n      and\n      eq\n        /* \"@openzeppelin/contracts/token/ERC721/ERC721.sol\":1698:1802  interfaceId == type(IERC721).interfaceId ||... */\n    tag_131:\n        /* \"@openzeppelin/contracts/token/ERC721/ERC721.sol\":1698:1854  interfaceId == type(IERC721).interfaceId ||... */\n      dup1\n      tag_132\n      jumpi\n      pop\n        /* \"@openzeppelin/contracts/token/ERC721/ERC721.sol\":1818:1854  super.supportsInterface(interfaceId) */\n      tag_133\n        /* \"@openzeppelin/contracts/token/ERC721/ERC721.sol\":1842:1853  interfaceId */\n      dup3\n        /* \"@openzeppelin/contracts/token/ERC721/ERC721.sol\":1818:1841  super.supportsInterface */\n      tag_134\n        /* \"@openzeppelin/contracts/token/ERC721/ERC721.sol\":1818:1854  super.supportsInterface(interfaceId) */\n      jump\t// in\n    tag_133:\n        /* \"@openzeppelin/contracts/token/ERC721/ERC721.sol\":1698:1854  interfaceId == type(IERC721).interfaceId ||... */\n    tag_132:\n        /* \"@openzeppelin/contracts/token/ERC721/ERC721.sol\":1679:1854  return... */\n      swap1\n      pop\n        /* \"@openzeppelin/contracts/token/ERC721/ERC721.sol\":1561:1861  function supportsInterface(bytes4 interfaceId) public view virtual override(ERC165, IERC165) returns (bool) {... */\n      swap2\n      swap1\n      pop\n      jump\t// out\n        /* \"@openzeppelin/contracts/token/ERC721/ERC721.sol\":2365:2454  function name() public view virtual returns (string memory) {... */\n    tag_35:\n        /* \"@openzeppelin/contracts/token/ERC721/ERC721.sol\":2410:2423  string memory */\n      0x60\n        /* \"@openzeppelin/contracts/token/ERC721/ERC721.sol\":2442:2447  _name */\n      0x00\n        /* \"@openzeppelin/contracts/token/ERC721/ERC721.sol\":2435:2447  return _name */\n      dup1\n      sload\n      tag_136\n      swap1\n      tag_137\n      jump\t// in\n    tag_136:\n      dup1\n      0x1f\n      add\n      0x20\n      dup1\n      swap2\n      div\n      mul\n      0x20\n      add\n      mload(0x40)\n      swap1\n      dup2\n      add\n      0x40\n      mstore\n      dup1\n      swap3\n      swap2\n      swap1\n      dup2\n      dup2\n      mstore\n      0x20\n      add\n      dup3\n      dup1\n      sload\n      tag_138\n      swap1\n      tag_137\n      jump\t// in\n    tag_138:\n      dup1\n      iszero\n      tag_139\n      jumpi\n      dup1\n      0x1f\n      lt\n      tag_140\n      jumpi\n      0x0100\n      dup1\n      dup4\n      sload\n      div\n      mul\n      dup4\n      mstore\n      swap2\n      0x20\n      add\n      swap2\n      jump(tag_139)\n    tag_140:\n      dup3\n      add\n      swap2\n      swap1\n      0x00\n      mstore\n      keccak256(0x00, 0x20)\n      swap1\n    tag_141:\n      dup2\n      sload\n      dup2\n      mstore\n      swap1\n      0x01\n      add\n      swap1\n      0x20\n      add\n      dup1\n      dup4\n      gt\n      tag_141\n      jumpi\n      dup3\n      swap1\n      sub\n      0x1f\n      and\n      dup3\n      add\n      swap2\n    tag_139:\n      pop\n      pop\n      pop\n      pop\n      pop\n      swap1\n      pop\n        /* \"@openzeppelin/contracts/token/ERC721/ERC721.sol\":2365:2454  function name() public view virtual returns (string memory) {... */\n      swap1\n      jump\t// out\n        /* \"@openzeppelin/contracts/token/ERC721/ERC721.sol\":3497:3651  function getApproved(uint256 tokenId) public view virtual returns (address) {... */\n    tag_42:\n        /* \"@openzeppelin/contracts/token/ERC721/ERC721.sol\":3564:3571  address */\n      0x00\n        /* \"@openzeppelin/contracts/token/ERC721/ERC721.sol\":3583:3605  _requireOwned(tokenId) */\n      tag_143\n        /* \"@openzeppelin/contracts/token/ERC721/ERC721.sol\":3597:3604  tokenId */\n      dup3\n        /* \"@openzeppelin/contracts/token/ERC721/ERC721.sol\":3583:3596  _requireOwned */\n      tag_144\n        /* \"@openzeppelin/contracts/token/ERC721/ERC721.sol\":3583:3605  _requireOwned(tokenId) */\n      jump\t// in\n    tag_143:\n      pop\n        /* \"@openzeppelin/contracts/token/ERC721/ERC721.sol\":3623:3644  _getApproved(tokenId) */\n      tag_145\n        /* \"@openzeppelin/contracts/token/ERC721/ERC721.sol\":3636:3643  tokenId */\n      dup3\n        /* \"@openzeppelin/contracts/token/ERC721/ERC721.sol\":3623:3635  _getApproved */\n      tag_146\n        /* \"@openzeppelin/contracts/token/ERC721/ERC721.sol\":3623:3644  _getApproved(tokenId) */\n      jump\t// in\n    tag_145:\n        /* \"@openzeppelin/contracts/token/ERC721/ERC721.sol\":3616:3644  return _getApproved(tokenId) */\n      swap1\n      pop\n        /* \"@openzeppelin/contracts/token/ERC721/ERC721.sol\":3497:3651  function getApproved(uint256 tokenId) public view virtual returns (address) {... */\n      swap2\n      swap1\n      pop\n      jump\t// out\n        /* \"@openzeppelin/contracts/token/ERC721/ERC721.sol\":3323:3436  function approve(address to, uint256 tokenId) public virtual {... */\n    tag_49:\n        /* \"@openzeppelin/contracts/token/ERC721/ERC721.sol\":3394:3429  _approve(to, tokenId, _msgSender()) */\n      tag_148\n        /* \"@openzeppelin/contracts/token/ERC721/ERC721.sol\":3403:3405  to */\n      dup3\n        /* \"@openzeppelin/contracts/token/ERC721/ERC721.sol\":3407:3414  tokenId */\n      dup3\n        /* \"@openzeppelin/contracts/token/ERC721/ERC721.sol\":3416:3428  _msgSender() */\n      tag_149\n        /* \"@openzeppelin/contracts/token/ERC721/ERC721.sol\":3416:3426  _msgSender */\n      tag_150\n        /* \"@openzeppelin/contracts/token/ERC721/ERC721.sol\":3416:3428  _msgSender() */\n      jump\t// in\n    tag_149:\n        /* \"@openzeppelin/contracts/token/ERC721/ERC721.sol\":3394:3402  _approve */\n      tag_151\n        /* \"@openzeppelin/contracts/token/ERC721/ERC721.sol\":3394:3429  _approve(to, tokenId, _msgSender()) */\n      jump\t// in\n    tag_148:\n        /* \"@openzeppelin/contracts/token/ERC721/ERC721.sol\":3323:3436  function approve(address to, uint256 tokenId) public virtual {... */\n      pop\n      pop\n      jump\t// out\n        /* \"@openzeppelin/contracts/token/ERC721/ERC721.sol\":4143:4721  function transferFrom(address from, address to, uint256 tokenId) public virtual {... */\n    tag_54:\n        /* \"@openzeppelin/contracts/token/ERC721/ERC721.sol\":4251:4252  0 */\n      0x00\n        /* \"@openzeppelin/contracts/token/ERC721/ERC721.sol\":4237:4253  to == address(0) */\n      0xffffffffffffffffffffffffffffffffffffffff\n      and\n        /* \"@openzeppelin/contracts/token/ERC721/ERC721.sol\":4237:4239  to */\n      dup3\n        /* \"@openzeppelin/contracts/token/ERC721/ERC721.sol\":4237:4253  to == address(0) */\n      0xffffffffffffffffffffffffffffffffffffffff\n      and\n      sub\n        /* \"@openzeppelin/contracts/token/ERC721/ERC721.sol\":4233:4320  if (to == address(0)) {... */\n      tag_153\n      jumpi\n        /* \"@openzeppelin/contracts/token/ERC721/ERC721.sol\":4306:4307  0 */\n      0x00\n        /* \"@openzeppelin/contracts/token/ERC721/ERC721.sol\":4276:4309  ERC721InvalidReceiver(address(0)) */\n      mload(0x40)\n      0x64a0ae9200000000000000000000000000000000000000000000000000000000\n      dup2\n      mstore\n      0x04\n      add\n      tag_154\n      swap2\n      swap1\n      tag_44\n      jump\t// in\n    tag_154:\n      mload(0x40)\n      dup1\n      swap2\n      sub\n      swap1\n      revert\n        /* \"@openzeppelin/contracts/token/ERC721/ERC721.sol\":4233:4320  if (to == address(0)) {... */\n    tag_153:\n        /* \"@openzeppelin/contracts/token/ERC721/ERC721.sol\":4538:4559  address previousOwner */\n      0x00\n        /* \"@openzeppelin/contracts/token/ERC721/ERC721.sol\":4562:4596  _update(to, tokenId, _msgSender()) */\n      tag_155\n        /* \"@openzeppelin/contracts/token/ERC721/ERC721.sol\":4570:4572  to */\n      dup4\n        /* \"@openzeppelin/contracts/token/ERC721/ERC721.sol\":4574:4581  tokenId */\n      dup4\n        /* \"@openzeppelin/contracts/token/ERC721/ERC721.sol\":4583:4595  _msgSender() */\n      tag_156\n        /* \"@openzeppelin/contracts/token/ERC721/ERC721.sol\":4583:4593  _msgSender */\n      tag_150\n        /* \"@openzeppelin/contracts/token/ERC721/ERC721.sol\":4583:4595  _msgSender() */\n      jump\t// in\n    tag_156:\n        /* \"@openzeppelin/contracts/token/ERC721/ERC721.sol\":4562:4569  _update */\n      tag_157\n        /* \"@openzeppelin/contracts/token/ERC721/ERC721.sol\":4562:4596  _update(to, tokenId, _msgSender()) */\n      jump\t// in\n    tag_155:\n        /* \"@openzeppelin/contracts/token/ERC721/ERC721.sol\":4538:4596  address previousOwner = _update(to, tokenId, _msgSender()) */\n      swap1\n      pop\n        /* \"@openzeppelin/contracts/token/ERC721/ERC721.sol\":4627:4631  from */\n      dup4\n        /* \"@openzeppelin/contracts/token/ERC721/ERC721.sol\":4610:4631  previousOwner != from */\n      0xffffffffffffffffffffffffffffffffffffffff\n      and\n        /* \"@openzeppelin/contracts/token/ERC721/ERC721.sol\":4610:4623  previousOwner */\n      dup2\n        /* \"@openzeppelin/contracts/token/ERC721/ERC721.sol\":4610:4631  previousOwner != from */\n      0xffffffffffffffffffffffffffffffffffffffff\n      and\n      eq\n        /* \"@openzeppelin/contracts/token/ERC721/ERC721.sol\":4606:4715  if (previousOwner != from) {... */\n      tag_158\n      jumpi\n        /* \"@openzeppelin/contracts/token/ERC721/ERC721.sol\":4675:4679  from */\n      dup4\n        /* \"@openzeppelin/contracts/token/ERC721/ERC721.sol\":4681:4688  tokenId */\n      dup3\n        /* \"@openzeppelin/contracts/token/ERC721/ERC721.sol\":4690:4703  previousOwner */\n      dup3\n        /* \"@openzeppelin/contracts/token/ERC721/ERC721.sol\":4654:4704  ERC721IncorrectOwner(from, tokenId, previousOwner) */\n      mload(0x40)\n      0x64283d7b00000000000000000000000000000000000000000000000000000000\n      dup2\n      mstore\n      0x04\n      add\n      tag_159\n      swap4\n      swap3\n      swap2\n      swap1\n      tag_160\n      jump\t// in\n    tag_159:\n      mload(0x40)\n      dup1\n      swap2\n      sub\n      swap1\n      revert\n        /* \"@openzeppelin/contracts/token/ERC721/ERC721.sol\":4606:4715  if (previousOwner != from) {... */\n    tag_158:\n        /* \"@openzeppelin/contracts/token/ERC721/ERC721.sol\":4223:4721  {... */\n      pop\n        /* \"@openzeppelin/contracts/token/ERC721/ERC721.sol\":4143:4721  function transferFrom(address from, address to, uint256 tokenId) public virtual {... */\n      pop\n      pop\n      pop\n      jump\t// out\n        /* \"nftmarket.sol\":560:595  mapping(uint256 => NFT) public nfts */\n    tag_58:\n      mstore(0x20, 0x0a)\n      dup1\n      0x00\n      mstore\n      keccak256(0x00, 0x40)\n      0x00\n      swap2\n      pop\n      swap1\n      pop\n      dup1\n      0x00\n      add\n      0x00\n      swap1\n      sload\n      swap1\n      0x0100\n      exp\n      swap1\n      div\n      0xffffffffffffffffffffffffffffffffffffffff\n      and\n      swap1\n      dup1\n      0x01\n      add\n      sload\n      swap1\n      pop\n      dup3\n      jump\t// out\n        /* \"@openzeppelin/contracts/token/ERC721/ERC721.sol\":4787:4919  function safeTransferFrom(address from, address to, uint256 tokenId) public {... */\n    tag_64:\n        /* \"@openzeppelin/contracts/token/ERC721/ERC721.sol\":4873:4912  safeTransferFrom(from, to, tokenId, \"\") */\n      tag_162\n        /* \"@openzeppelin/contracts/token/ERC721/ERC721.sol\":4890:4894  from */\n      dup4\n        /* \"@openzeppelin/contracts/token/ERC721/ERC721.sol\":4896:4898  to */\n      dup4\n        /* \"@openzeppelin/contracts/token/ERC721/ERC721.sol\":4900:4907  tokenId */\n      dup4\n        /* \"@openzeppelin/contracts/token/ERC721/ERC721.sol\":4873:4912  safeTransferFrom(from, to, tokenId, \"\") */\n      mload(0x40)\n      dup1\n      0x20\n      add\n      0x40\n      mstore\n      dup1\n      0x00\n      dup2\n      mstore\n      pop\n        /* \"@openzeppelin/contracts/token/ERC721/ERC721.sol\":4873:4889  safeTransferFrom */\n      tag_107\n        /* \"@openzeppelin/contracts/token/ERC721/ERC721.sol\":4873:4912  safeTransferFrom(from, to, tokenId, \"\") */\n      jump\t// in\n    tag_162:\n        /* \"@openzeppelin/contracts/token/ERC721/ERC721.sol\":4787:4919  function safeTransferFrom(address from, address to, uint256 tokenId) public {... */\n      pop\n      pop\n      pop\n      jump\t// out\n        /* \"nftmarket.sol\":762:879  function setBaseURI(string memory newBaseTokenURI) public onlyOwner {... */\n    tag_69:\n        /* \"@openzeppelin/contracts/access/Ownable.sol\":1531:1544  _checkOwner() */\n      tag_164\n        /* \"@openzeppelin/contracts/access/Ownable.sol\":1531:1542  _checkOwner */\n      tag_165\n        /* \"@openzeppelin/contracts/access/Ownable.sol\":1531:1544  _checkOwner() */\n      jump\t// in\n    tag_164:\n        /* \"nftmarket.sol\":856:871  newBaseTokenURI */\n      dup1\n        /* \"nftmarket.sol\":841:853  baseTokenURI */\n      0x08\n        /* \"nftmarket.sol\":841:871  baseTokenURI = newBaseTokenURI */\n      swap1\n      dup2\n      tag_167\n      swap2\n      swap1\n      tag_168\n      jump\t// in\n    tag_167:\n      pop\n        /* \"nftmarket.sol\":762:879  function setBaseURI(string memory newBaseTokenURI) public onlyOwner {... */\n      pop\n      jump\t// out\n        /* \"nftmarket.sol\":887:1178  function mintNFT(string memory tokenURI, uint256 price) public {... */\n    tag_74:\n        /* \"nftmarket.sol\":961:976  uint256 tokenId */\n      0x00\n        /* \"nftmarket.sol\":979:1004  _tokenIdCounter.current() */\n      tag_170\n        /* \"nftmarket.sol\":979:994  _tokenIdCounter */\n      0x07\n        /* \"nftmarket.sol\":979:1002  _tokenIdCounter.current */\n      tag_171\n        /* \"nftmarket.sol\":979:1004  _tokenIdCounter.current() */\n      jump\t// in\n    tag_170:\n        /* \"nftmarket.sol\":961:1004  uint256 tokenId = _tokenIdCounter.current() */\n      swap1\n      pop\n        /* \"nftmarket.sol\":1031:1053  NFT(msg.sender, price) */\n      mload(0x40)\n      dup1\n      0x40\n      add\n      0x40\n      mstore\n      dup1\n        /* \"nftmarket.sol\":1035:1045  msg.sender */\n      caller\n        /* \"nftmarket.sol\":1031:1053  NFT(msg.sender, price) */\n      0xffffffffffffffffffffffffffffffffffffffff\n      and\n      dup2\n      mstore\n      0x20\n      add\n        /* \"nftmarket.sol\":1047:1052  price */\n      dup4\n        /* \"nftmarket.sol\":1031:1053  NFT(msg.sender, price) */\n      dup2\n      mstore\n      pop\n        /* \"nftmarket.sol\":1015:1019  nfts */\n      0x0a\n        /* \"nftmarket.sol\":1015:1028  nfts[tokenId] */\n      0x00\n        /* \"nftmarket.sol\":1020:1027  tokenId */\n      dup4\n        /* \"nftmarket.sol\":1015:1028  nfts[tokenId] */\n      dup2\n      mstore\n      0x20\n      add\n      swap1\n      dup2\n      mstore\n      0x20\n      add\n      0x00\n      keccak256\n        /* \"nftmarket.sol\":1015:1053  nfts[tokenId] = NFT(msg.sender, price) */\n      0x00\n      dup3\n      add\n      mload\n      dup2\n      0x00\n      add\n      exp(0x0100, 0x00)\n      dup2\n      sload\n      dup2\n      0xffffffffffffffffffffffffffffffffffffffff\n      mul\n      not\n      and\n      swap1\n      dup4\n      0xffffffffffffffffffffffffffffffffffffffff\n      and\n      mul\n      or\n      swap1\n      sstore\n      pop\n      0x20\n      dup3\n      add\n      mload\n      dup2\n      0x01\n      add\n      sstore\n      swap1\n      pop\n      pop\n        /* \"nftmarket.sol\":1064:1090  _mint(msg.sender, tokenId) */\n      tag_172\n        /* \"nftmarket.sol\":1070:1080  msg.sender */\n      caller\n        /* \"nftmarket.sol\":1082:1089  tokenId */\n      dup3\n        /* \"nftmarket.sol\":1064:1069  _mint */\n      tag_173\n        /* \"nftmarket.sol\":1064:1090  _mint(msg.sender, tokenId) */\n      jump\t// in\n    tag_172:\n        /* \"nftmarket.sol\":1101:1132  _setTokenURI(tokenId, tokenURI) */\n      tag_174\n        /* \"nftmarket.sol\":1114:1121  tokenId */\n      dup2\n        /* \"nftmarket.sol\":1123:1131  tokenURI */\n      dup5\n        /* \"nftmarket.sol\":1101:1113  _setTokenURI */\n      tag_175\n        /* \"nftmarket.sol\":1101:1132  _setTokenURI(tokenId, tokenURI) */\n      jump\t// in\n    tag_174:\n        /* \"nftmarket.sol\":1143:1170  _tokenIdCounter.increment() */\n      tag_176\n        /* \"nftmarket.sol\":1143:1158  _tokenIdCounter */\n      0x07\n        /* \"nftmarket.sol\":1143:1168  _tokenIdCounter.increment */\n      tag_177\n        /* \"nftmarket.sol\":1143:1170  _tokenIdCounter.increment() */\n      jump\t// in\n    tag_176:\n        /* \"nftmarket.sol\":950:1178  {... */\n      pop\n        /* \"nftmarket.sol\":887:1178  function mintNFT(string memory tokenURI, uint256 price) public {... */\n      pop\n      pop\n      jump\t// out\n        /* \"@openzeppelin/contracts/token/ERC721/ERC721.sol\":2185:2303  function ownerOf(uint256 tokenId) public view virtual returns (address) {... */\n    tag_78:\n        /* \"@openzeppelin/contracts/token/ERC721/ERC721.sol\":2248:2255  address */\n      0x00\n        /* \"@openzeppelin/contracts/token/ERC721/ERC721.sol\":2274:2296  _requireOwned(tokenId) */\n      tag_179\n        /* \"@openzeppelin/contracts/token/ERC721/ERC721.sol\":2288:2295  tokenId */\n      dup3\n        /* \"@openzeppelin/contracts/token/ERC721/ERC721.sol\":2274:2287  _requireOwned */\n      tag_144\n        /* \"@openzeppelin/contracts/token/ERC721/ERC721.sol\":2274:2296  _requireOwned(tokenId) */\n      jump\t// in\n    tag_179:\n        /* \"@openzeppelin/contracts/token/ERC721/ERC721.sol\":2267:2296  return _requireOwned(tokenId) */\n      swap1\n      pop\n        /* \"@openzeppelin/contracts/token/ERC721/ERC721.sol\":2185:2303  function ownerOf(uint256 tokenId) public view virtual returns (address) {... */\n      swap2\n      swap1\n      pop\n      jump\t// out\n        /* \"@openzeppelin/contracts/token/ERC721/ERC721.sol\":1920:2128  function balanceOf(address owner) public view virtual returns (uint256) {... */\n    tag_84:\n        /* \"@openzeppelin/contracts/token/ERC721/ERC721.sol\":1983:1990  uint256 */\n      0x00\n        /* \"@openzeppelin/contracts/token/ERC721/ERC721.sol\":2023:2024  0 */\n      dup1\n        /* \"@openzeppelin/contracts/token/ERC721/ERC721.sol\":2006:2025  owner == address(0) */\n      0xffffffffffffffffffffffffffffffffffffffff\n      and\n        /* \"@openzeppelin/contracts/token/ERC721/ERC721.sol\":2006:2011  owner */\n      dup3\n        /* \"@openzeppelin/contracts/token/ERC721/ERC721.sol\":2006:2025  owner == address(0) */\n      0xffffffffffffffffffffffffffffffffffffffff\n      and\n      sub\n        /* \"@openzeppelin/contracts/token/ERC721/ERC721.sol\":2002:2089  if (owner == address(0)) {... */\n      tag_181\n      jumpi\n        /* \"@openzeppelin/contracts/token/ERC721/ERC721.sol\":2075:2076  0 */\n      0x00\n        /* \"@openzeppelin/contracts/token/ERC721/ERC721.sol\":2048:2078  ERC721InvalidOwner(address(0)) */\n      mload(0x40)\n      0x89c62b6400000000000000000000000000000000000000000000000000000000\n      dup2\n      mstore\n      0x04\n      add\n      tag_182\n      swap2\n      swap1\n      tag_44\n      jump\t// in\n    tag_182:\n      mload(0x40)\n      dup1\n      swap2\n      sub\n      swap1\n      revert\n        /* \"@openzeppelin/contracts/token/ERC721/ERC721.sol\":2002:2089  if (owner == address(0)) {... */\n    tag_181:\n        /* \"@openzeppelin/contracts/token/ERC721/ERC721.sol\":2105:2114  _balances */\n      0x03\n        /* \"@openzeppelin/contracts/token/ERC721/ERC721.sol\":2105:2121  _balances[owner] */\n      0x00\n        /* \"@openzeppelin/contracts/token/ERC721/ERC721.sol\":2115:2120  owner */\n      dup4\n        /* \"@openzeppelin/contracts/token/ERC721/ERC721.sol\":2105:2121  _balances[owner] */\n      0xffffffffffffffffffffffffffffffffffffffff\n      and\n      0xffffffffffffffffffffffffffffffffffffffff\n      and\n      dup2\n      mstore\n      0x20\n      add\n      swap1\n      dup2\n      mstore\n      0x20\n      add\n      0x00\n      keccak256\n      sload\n        /* \"@openzeppelin/contracts/token/ERC721/ERC721.sol\":2098:2121  return _balances[owner] */\n      swap1\n      pop\n        /* \"@openzeppelin/contracts/token/ERC721/ERC721.sol\":1920:2128  function balanceOf(address owner) public view virtual returns (uint256) {... */\n      swap2\n      swap1\n      pop\n      jump\t// out\n        /* \"@openzeppelin/contracts/access/Ownable.sol\":2293:2394  function renounceOwnership() public virtual onlyOwner {... */\n    tag_89:\n        /* \"@openzeppelin/contracts/access/Ownable.sol\":1531:1544  _checkOwner() */\n      tag_184\n        /* \"@openzeppelin/contracts/access/Ownable.sol\":1531:1542  _checkOwner */\n      tag_165\n        /* \"@openzeppelin/contracts/access/Ownable.sol\":1531:1544  _checkOwner() */\n      jump\t// in\n    tag_184:\n        /* \"@openzeppelin/contracts/access/Ownable.sol\":2357:2387  _transferOwnership(address(0)) */\n      tag_186\n        /* \"@openzeppelin/contracts/access/Ownable.sol\":2384:2385  0 */\n      0x00\n        /* \"@openzeppelin/contracts/access/Ownable.sol\":2357:2375  _transferOwnership */\n      tag_187\n        /* \"@openzeppelin/contracts/access/Ownable.sol\":2357:2387  _transferOwnership(address(0)) */\n      jump\t// in\n    tag_186:\n        /* \"@openzeppelin/contracts/access/Ownable.sol\":2293:2394  function renounceOwnership() public virtual onlyOwner {... */\n      jump\t// out\n        /* \"@openzeppelin/contracts/access/Ownable.sol\":1638:1723  function owner() public view virtual returns (address) {... */\n    tag_92:\n        /* \"@openzeppelin/contracts/access/Ownable.sol\":1684:1691  address */\n      0x00\n        /* \"@openzeppelin/contracts/access/Ownable.sol\":1710:1716  _owner */\n      0x06\n      0x00\n      swap1\n      sload\n      swap1\n      0x0100\n      exp\n      swap1\n      div\n      0xffffffffffffffffffffffffffffffffffffffff\n      and\n        /* \"@openzeppelin/contracts/access/Ownable.sol\":1703:1716  return _owner */\n      swap1\n      pop\n        /* \"@openzeppelin/contracts/access/Ownable.sol\":1638:1723  function owner() public view virtual returns (address) {... */\n      swap1\n      jump\t// out\n        /* \"@openzeppelin/contracts/token/ERC721/ERC721.sol\":2518:2611  function symbol() public view virtual returns (string memory) {... */\n    tag_96:\n        /* \"@openzeppelin/contracts/token/ERC721/ERC721.sol\":2565:2578  string memory */\n      0x60\n        /* \"@openzeppelin/contracts/token/ERC721/ERC721.sol\":2597:2604  _symbol */\n      0x01\n        /* \"@openzeppelin/contracts/token/ERC721/ERC721.sol\":2590:2604  return _symbol */\n      dup1\n      sload\n      tag_190\n      swap1\n      tag_137\n      jump\t// in\n    tag_190:\n      dup1\n      0x1f\n      add\n      0x20\n      dup1\n      swap2\n      div\n      mul\n      0x20\n      add\n      mload(0x40)\n      swap1\n      dup2\n      add\n      0x40\n      mstore\n      dup1\n      swap3\n      swap2\n      swap1\n      dup2\n      dup2\n      mstore\n      0x20\n      add\n      dup3\n      dup1\n      sload\n      tag_191\n      swap1\n      tag_137\n      jump\t// in\n    tag_191:\n      dup1\n      iszero\n      tag_192\n      jumpi\n      dup1\n      0x1f\n      lt\n      tag_193\n      jumpi\n      0x0100\n      dup1\n      dup4\n      sload\n      div\n      mul\n      dup4\n      mstore\n      swap2\n      0x20\n      add\n      swap2\n      jump(tag_192)\n    tag_193:\n      dup3\n      add\n      swap2\n      swap1\n      0x00\n      mstore\n      keccak256(0x00, 0x20)\n      swap1\n    tag_194:\n      dup2\n      sload\n      dup2\n      mstore\n      swap1\n      0x01\n      add\n      swap1\n      0x20\n      add\n      dup1\n      dup4\n      gt\n      tag_194\n      jumpi\n      dup3\n      swap1\n      sub\n      0x1f\n      and\n      dup3\n      add\n      swap2\n    tag_192:\n      pop\n      pop\n      pop\n      pop\n      pop\n      swap1\n      pop\n        /* \"@openzeppelin/contracts/token/ERC721/ERC721.sol\":2518:2611  function symbol() public view virtual returns (string memory) {... */\n      swap1\n      jump\t// out\n        /* \"@openzeppelin/contracts/token/ERC721/ERC721.sol\":3718:3862  function setApprovalForAll(address operator, bool approved) public virtual {... */\n    tag_102:\n        /* \"@openzeppelin/contracts/token/ERC721/ERC721.sol\":3803:3855  _setApprovalForAll(_msgSender(), operator, approved) */\n      tag_196\n        /* \"@openzeppelin/contracts/token/ERC721/ERC721.sol\":3822:3834  _msgSender() */\n      tag_197\n        /* \"@openzeppelin/contracts/token/ERC721/ERC721.sol\":3822:3832  _msgSender */\n      tag_150\n        /* \"@openzeppelin/contracts/token/ERC721/ERC721.sol\":3822:3834  _msgSender() */\n      jump\t// in\n    tag_197:\n        /* \"@openzeppelin/contracts/token/ERC721/ERC721.sol\":3836:3844  operator */\n      dup4\n        /* \"@openzeppelin/contracts/token/ERC721/ERC721.sol\":3846:3854  approved */\n      dup4\n        /* \"@openzeppelin/contracts/token/ERC721/ERC721.sol\":3803:3821  _setApprovalForAll */\n      tag_198\n        /* \"@openzeppelin/contracts/token/ERC721/ERC721.sol\":3803:3855  _setApprovalForAll(_msgSender(), operator, approved) */\n      jump\t// in\n    tag_196:\n        /* \"@openzeppelin/contracts/token/ERC721/ERC721.sol\":3718:3862  function setApprovalForAll(address operator, bool approved) public virtual {... */\n      pop\n      pop\n      jump\t// out\n        /* \"@openzeppelin/contracts/token/ERC721/ERC721.sol\":4985:5193  function safeTransferFrom(address from, address to, uint256 tokenId, bytes memory data) public virtual {... */\n    tag_107:\n        /* \"@openzeppelin/contracts/token/ERC721/ERC721.sol\":5098:5129  transferFrom(from, to, tokenId) */\n      tag_200\n        /* \"@openzeppelin/contracts/token/ERC721/ERC721.sol\":5111:5115  from */\n      dup5\n        /* \"@openzeppelin/contracts/token/ERC721/ERC721.sol\":5117:5119  to */\n      dup5\n        /* \"@openzeppelin/contracts/token/ERC721/ERC721.sol\":5121:5128  tokenId */\n      dup5\n        /* \"@openzeppelin/contracts/token/ERC721/ERC721.sol\":5098:5110  transferFrom */\n      tag_54\n        /* \"@openzeppelin/contracts/token/ERC721/ERC721.sol\":5098:5129  transferFrom(from, to, tokenId) */\n      jump\t// in\n    tag_200:\n        /* \"@openzeppelin/contracts/token/ERC721/ERC721.sol\":5139:5186  _checkOnERC721Received(from, to, tokenId, data) */\n      tag_201\n        /* \"@openzeppelin/contracts/token/ERC721/ERC721.sol\":5162:5166  from */\n      dup5\n        /* \"@openzeppelin/contracts/token/ERC721/ERC721.sol\":5168:5170  to */\n      dup5\n        /* \"@openzeppelin/contracts/token/ERC721/ERC721.sol\":5172:5179  tokenId */\n      dup5\n        /* \"@openzeppelin/contracts/token/ERC721/ERC721.sol\":5181:5185  data */\n      dup5\n        /* \"@openzeppelin/contracts/token/ERC721/ERC721.sol\":5139:5161  _checkOnERC721Received */\n      tag_202\n        /* \"@openzeppelin/contracts/token/ERC721/ERC721.sol\":5139:5186  _checkOnERC721Received(from, to, tokenId, data) */\n      jump\t// in\n    tag_201:\n        /* \"@openzeppelin/contracts/token/ERC721/ERC721.sol\":4985:5193  function safeTransferFrom(address from, address to, uint256 tokenId, bytes memory data) public virtual {... */\n      pop\n      pop\n      pop\n      pop\n      jump\t// out\n        /* \"nftmarket.sol\":404:435  uint256 public royaltyRate = 10 */\n    tag_110:\n      sload(0x09)\n      dup2\n      jump\t// out\n        /* \"@openzeppelin/contracts/token/ERC721/ERC721.sol\":2677:2932  function tokenURI(uint256 tokenId) public view virtual returns (string memory) {... */\n    tag_115:\n        /* \"@openzeppelin/contracts/token/ERC721/ERC721.sol\":2741:2754  string memory */\n      0x60\n        /* \"@openzeppelin/contracts/token/ERC721/ERC721.sol\":2766:2788  _requireOwned(tokenId) */\n      tag_204\n        /* \"@openzeppelin/contracts/token/ERC721/ERC721.sol\":2780:2787  tokenId */\n      dup3\n        /* \"@openzeppelin/contracts/token/ERC721/ERC721.sol\":2766:2779  _requireOwned */\n      tag_144\n        /* \"@openzeppelin/contracts/token/ERC721/ERC721.sol\":2766:2788  _requireOwned(tokenId) */\n      jump\t// in\n    tag_204:\n      pop\n        /* \"@openzeppelin/contracts/token/ERC721/ERC721.sol\":2799:2820  string memory baseURI */\n      0x00\n        /* \"@openzeppelin/contracts/token/ERC721/ERC721.sol\":2823:2833  _baseURI() */\n      tag_205\n        /* \"@openzeppelin/contracts/token/ERC721/ERC721.sol\":2823:2831  _baseURI */\n      tag_206\n        /* \"@openzeppelin/contracts/token/ERC721/ERC721.sol\":2823:2833  _baseURI() */\n      jump\t// in\n    tag_205:\n        /* \"@openzeppelin/contracts/token/ERC721/ERC721.sol\":2799:2833  string memory baseURI = _baseURI() */\n      swap1\n      pop\n        /* \"@openzeppelin/contracts/token/ERC721/ERC721.sol\":2874:2875  0 */\n      0x00\n        /* \"@openzeppelin/contracts/token/ERC721/ERC721.sol\":2856:2863  baseURI */\n      dup2\n        /* \"@openzeppelin/contracts/token/ERC721/ERC721.sol\":2850:2871  bytes(baseURI).length */\n      mload\n        /* \"@openzeppelin/contracts/token/ERC721/ERC721.sol\":2850:2875  bytes(baseURI).length > 0 */\n      gt\n        /* \"@openzeppelin/contracts/token/ERC721/ERC721.sol\":2850:2925  bytes(baseURI).length > 0 ? string.concat(baseURI, tokenId.toString()) : \"\" */\n      tag_207\n      jumpi\n      mload(0x40)\n      dup1\n      0x20\n      add\n      0x40\n      mstore\n      dup1\n      0x00\n      dup2\n      mstore\n      pop\n      jump(tag_208)\n    tag_207:\n        /* \"@openzeppelin/contracts/token/ERC721/ERC721.sol\":2892:2899  baseURI */\n      dup1\n        /* \"@openzeppelin/contracts/token/ERC721/ERC721.sol\":2901:2919  tokenId.toString() */\n      tag_209\n        /* \"@openzeppelin/contracts/token/ERC721/ERC721.sol\":2901:2908  tokenId */\n      dup5\n        /* \"@openzeppelin/contracts/token/ERC721/ERC721.sol\":2901:2917  tokenId.toString */\n      tag_210\n        /* \"@openzeppelin/contracts/token/ERC721/ERC721.sol\":2901:2919  tokenId.toString() */\n      jump\t// in\n    tag_209:\n        /* \"@openzeppelin/contracts/token/ERC721/ERC721.sol\":2878:2920  string.concat(baseURI, tokenId.toString()) */\n      add(0x20, mload(0x40))\n      tag_211\n      swap3\n      swap2\n      swap1\n      tag_212\n      jump\t// in\n    tag_211:\n      mload(0x40)\n      0x20\n      dup2\n      dup4\n      sub\n      sub\n      dup2\n      mstore\n      swap1\n      0x40\n      mstore\n        /* \"@openzeppelin/contracts/token/ERC721/ERC721.sol\":2850:2925  bytes(baseURI).length > 0 ? string.concat(baseURI, tokenId.toString()) : \"\" */\n    tag_208:\n        /* \"@openzeppelin/contracts/token/ERC721/ERC721.sol\":2843:2925  return bytes(baseURI).length > 0 ? string.concat(baseURI, tokenId.toString()) : \"\" */\n      swap2\n      pop\n      pop\n        /* \"@openzeppelin/contracts/token/ERC721/ERC721.sol\":2677:2932  function tokenURI(uint256 tokenId) public view virtual returns (string memory) {... */\n      swap2\n      swap1\n      pop\n      jump\t// out\n        /* \"@openzeppelin/contracts/token/ERC721/ERC721.sol\":3928:4081  function isApprovedForAll(address owner, address operator) public view virtual returns (bool) {... */\n    tag_121:\n        /* \"@openzeppelin/contracts/token/ERC721/ERC721.sol\":4016:4020  bool */\n      0x00\n        /* \"@openzeppelin/contracts/token/ERC721/ERC721.sol\":4039:4057  _operatorApprovals */\n      0x05\n        /* \"@openzeppelin/contracts/token/ERC721/ERC721.sol\":4039:4064  _operatorApprovals[owner] */\n      0x00\n        /* \"@openzeppelin/contracts/token/ERC721/ERC721.sol\":4058:4063  owner */\n      dup5\n        /* \"@openzeppelin/contracts/token/ERC721/ERC721.sol\":4039:4064  _operatorApprovals[owner] */\n      0xffffffffffffffffffffffffffffffffffffffff\n      and\n      0xffffffffffffffffffffffffffffffffffffffff\n      and\n      dup2\n      mstore\n      0x20\n      add\n      swap1\n      dup2\n      mstore\n      0x20\n      add\n      0x00\n      keccak256\n        /* \"@openzeppelin/contracts/token/ERC721/ERC721.sol\":4039:4074  _operatorApprovals[owner][operator] */\n      0x00\n        /* \"@openzeppelin/contracts/token/ERC721/ERC721.sol\":4065:4073  operator */\n      dup4\n        /* \"@openzeppelin/contracts/token/ERC721/ERC721.sol\":4039:4074  _operatorApprovals[owner][operator] */\n      0xffffffffffffffffffffffffffffffffffffffff\n      and\n      0xffffffffffffffffffffffffffffffffffffffff\n      and\n      dup2\n      mstore\n      0x20\n      add\n      swap1\n      dup2\n      mstore\n      0x20\n      add\n      0x00\n      keccak256\n      0x00\n      swap1\n      sload\n      swap1\n      0x0100\n      exp\n      swap1\n      div\n      0xff\n      and\n        /* \"@openzeppelin/contracts/token/ERC721/ERC721.sol\":4032:4074  return _operatorApprovals[owner][operator] */\n      swap1\n      pop\n        /* \"@openzeppelin/contracts/token/ERC721/ERC721.sol\":3928:4081  function isApprovedForAll(address owner, address operator) public view virtual returns (bool) {... */\n      swap3\n      swap2\n      pop\n      pop\n      jump\t// out\n        /* \"nftmarket.sol\":1186:1913  function sellNFT(uint256 tokenId) public payable {... */\n    tag_125:\n        /* \"nftmarket.sol\":1254:1270  _exists(tokenId) */\n      tag_215\n        /* \"nftmarket.sol\":1262:1269  tokenId */\n      dup2\n        /* \"nftmarket.sol\":1254:1261  _exists */\n      tag_216\n        /* \"nftmarket.sol\":1254:1270  _exists(tokenId) */\n      jump\t// in\n    tag_215:\n        /* \"nftmarket.sol\":1246:1295  require(_exists(tokenId), \"Token does not exist\") */\n      tag_217\n      jumpi\n      mload(0x40)\n      0x08c379a000000000000000000000000000000000000000000000000000000000\n      dup2\n      mstore\n      0x04\n      add\n      tag_218\n      swap1\n      tag_219\n      jump\t// in\n    tag_218:\n      mload(0x40)\n      dup1\n      swap2\n      sub\n      swap1\n      revert\n    tag_217:\n        /* \"nftmarket.sol\":1306:1324  address tokenOwner */\n      0x00\n        /* \"nftmarket.sol\":1327:1343  ownerOf(tokenId) */\n      tag_220\n        /* \"nftmarket.sol\":1335:1342  tokenId */\n      dup3\n        /* \"nftmarket.sol\":1327:1334  ownerOf */\n      tag_78\n        /* \"nftmarket.sol\":1327:1343  ownerOf(tokenId) */\n      jump\t// in\n    tag_220:\n        /* \"nftmarket.sol\":1306:1343  address tokenOwner = ownerOf(tokenId) */\n      swap1\n      pop\n        /* \"nftmarket.sol\":1354:1367  address buyer */\n      0x00\n        /* \"nftmarket.sol\":1370:1380  msg.sender */\n      caller\n        /* \"nftmarket.sol\":1354:1380  address buyer = msg.sender */\n      swap1\n      pop\n        /* \"nftmarket.sol\":1391:1404  uint256 price */\n      0x00\n        /* \"nftmarket.sol\":1407:1411  nfts */\n      0x0a\n        /* \"nftmarket.sol\":1407:1420  nfts[tokenId] */\n      0x00\n        /* \"nftmarket.sol\":1412:1419  tokenId */\n      dup6\n        /* \"nftmarket.sol\":1407:1420  nfts[tokenId] */\n      dup2\n      mstore\n      0x20\n      add\n      swap1\n      dup2\n      mstore\n      0x20\n      add\n      0x00\n      keccak256\n        /* \"nftmarket.sol\":1407:1426  nfts[tokenId].price */\n      0x01\n      add\n      sload\n        /* \"nftmarket.sol\":1391:1426  uint256 price = nfts[tokenId].price */\n      swap1\n      pop\n        /* \"nftmarket.sol\":1459:1464  buyer */\n      dup2\n        /* \"nftmarket.sol\":1445:1464  tokenOwner != buyer */\n      0xffffffffffffffffffffffffffffffffffffffff\n      and\n        /* \"nftmarket.sol\":1445:1455  tokenOwner */\n      dup4\n        /* \"nftmarket.sol\":1445:1464  tokenOwner != buyer */\n      0xffffffffffffffffffffffffffffffffffffffff\n      and\n      sub\n        /* \"nftmarket.sol\":1437:1492  require(tokenOwner != buyer, \"Cannot buy your own NFT\") */\n      tag_221\n      jumpi\n      mload(0x40)\n      0x08c379a000000000000000000000000000000000000000000000000000000000\n      dup2\n      mstore\n      0x04\n      add\n      tag_222\n      swap1\n      tag_223\n      jump\t// in\n    tag_222:\n      mload(0x40)\n      dup1\n      swap2\n      sub\n      swap1\n      revert\n    tag_221:\n        /* \"nftmarket.sol\":1524:1529  price */\n      dup1\n        /* \"nftmarket.sol\":1511:1520  msg.value */\n      callvalue\n        /* \"nftmarket.sol\":1511:1529  msg.value >= price */\n      lt\n      iszero\n        /* \"nftmarket.sol\":1503:1552  require(msg.value >= price, \"Insufficient funds\") */\n      tag_224\n      jumpi\n      mload(0x40)\n      0x08c379a000000000000000000000000000000000000000000000000000000000\n      dup2\n      mstore\n      0x04\n      add\n      tag_225\n      swap1\n      tag_226\n      jump\t// in\n    tag_225:\n      mload(0x40)\n      dup1\n      swap2\n      sub\n      swap1\n      revert\n    tag_224:\n        /* \"nftmarket.sol\":1607:1644  _transfer(tokenOwner, buyer, tokenId) */\n      tag_227\n        /* \"nftmarket.sol\":1617:1627  tokenOwner */\n      dup4\n        /* \"nftmarket.sol\":1629:1634  buyer */\n      dup4\n        /* \"nftmarket.sol\":1636:1643  tokenId */\n      dup7\n        /* \"nftmarket.sol\":1607:1616  _transfer */\n      tag_228\n        /* \"nftmarket.sol\":1607:1644  _transfer(tokenOwner, buyer, tokenId) */\n      jump\t// in\n    tag_227:\n        /* \"nftmarket.sol\":1709:1724  uint256 royalty */\n      0x00\n        /* \"nftmarket.sol\":1751:1754  100 */\n      0x64\n        /* \"nftmarket.sol\":1736:1747  royaltyRate */\n      sload(0x09)\n        /* \"nftmarket.sol\":1728:1733  price */\n      dup4\n        /* \"nftmarket.sol\":1728:1747  price * royaltyRate */\n      tag_229\n      swap2\n      swap1\n      tag_230\n      jump\t// in\n    tag_229:\n        /* \"nftmarket.sol\":1727:1754  (price * royaltyRate) / 100 */\n      tag_231\n      swap2\n      swap1\n      tag_232\n      jump\t// in\n    tag_231:\n        /* \"nftmarket.sol\":1709:1754  uint256 royalty = (price * royaltyRate) / 100 */\n      swap1\n      pop\n        /* \"nftmarket.sol\":1773:1780  owner() */\n      tag_233\n        /* \"nftmarket.sol\":1773:1778  owner */\n      tag_92\n        /* \"nftmarket.sol\":1773:1780  owner() */\n      jump\t// in\n    tag_233:\n        /* \"nftmarket.sol\":1765:1790  payable(owner()).transfer */\n      0xffffffffffffffffffffffffffffffffffffffff\n      and\n        /* \"nftmarket.sol\":1765:1799  payable(owner()).transfer(royalty) */\n      0x08fc\n        /* \"nftmarket.sol\":1791:1798  royalty */\n      dup3\n        /* \"nftmarket.sol\":1765:1799  payable(owner()).transfer(royalty) */\n      swap1\n      dup2\n      iszero\n      mul\n      swap1\n      mload(0x40)\n      0x00\n      mload(0x40)\n      dup1\n      dup4\n      sub\n      dup2\n      dup6\n      dup9\n      dup9\n      call\n      swap4\n      pop\n      pop\n      pop\n      pop\n      iszero\n      dup1\n      iszero\n      tag_235\n      jumpi\n      returndatasize\n      0x00\n      dup1\n      returndatacopy\n      revert(0x00, returndatasize)\n    tag_235:\n      pop\n        /* \"nftmarket.sol\":1868:1878  tokenOwner */\n      dup4\n        /* \"nftmarket.sol\":1860:1888  payable(tokenOwner).transfer */\n      0xffffffffffffffffffffffffffffffffffffffff\n      and\n        /* \"nftmarket.sol\":1860:1905  payable(tokenOwner).transfer(price - royalty) */\n      0x08fc\n        /* \"nftmarket.sol\":1897:1904  royalty */\n      dup3\n        /* \"nftmarket.sol\":1889:1894  price */\n      dup5\n        /* \"nftmarket.sol\":1889:1904  price - royalty */\n      tag_236\n      swap2\n      swap1\n      tag_237\n      jump\t// in\n    tag_236:\n        /* \"nftmarket.sol\":1860:1905  payable(tokenOwner).transfer(price - royalty) */\n      swap1\n      dup2\n      iszero\n      mul\n      swap1\n      mload(0x40)\n      0x00\n      mload(0x40)\n      dup1\n      dup4\n      sub\n      dup2\n      dup6\n      dup9\n      dup9\n      call\n      swap4\n      pop\n      pop\n      pop\n      pop\n      iszero\n      dup1\n      iszero\n      tag_239\n      jumpi\n      returndatasize\n      0x00\n      dup1\n      returndatacopy\n      revert(0x00, returndatasize)\n    tag_239:\n      pop\n        /* \"nftmarket.sol\":1235:1913  {... */\n      pop\n      pop\n      pop\n      pop\n        /* \"nftmarket.sol\":1186:1913  function sellNFT(uint256 tokenId) public payable {... */\n      pop\n      jump\t// out\n        /* \"@openzeppelin/contracts/access/Ownable.sol\":2543:2758  function transferOwnership(address newOwner) public virtual onlyOwner {... */\n    tag_129:\n        /* \"@openzeppelin/contracts/access/Ownable.sol\":1531:1544  _checkOwner() */\n      tag_241\n        /* \"@openzeppelin/contracts/access/Ownable.sol\":1531:1542  _checkOwner */\n      tag_165\n        /* \"@openzeppelin/contracts/access/Ownable.sol\":1531:1544  _checkOwner() */\n      jump\t// in\n    tag_241:\n        /* \"@openzeppelin/contracts/access/Ownable.sol\":2647:2648  0 */\n      0x00\n        /* \"@openzeppelin/contracts/access/Ownable.sol\":2627:2649  newOwner == address(0) */\n      0xffffffffffffffffffffffffffffffffffffffff\n      and\n        /* \"@openzeppelin/contracts/access/Ownable.sol\":2627:2635  newOwner */\n      dup2\n        /* \"@openzeppelin/contracts/access/Ownable.sol\":2627:2649  newOwner == address(0) */\n      0xffffffffffffffffffffffffffffffffffffffff\n      and\n      sub\n        /* \"@openzeppelin/contracts/access/Ownable.sol\":2623:2714  if (newOwner == address(0)) {... */\n      tag_243\n      jumpi\n        /* \"@openzeppelin/contracts/access/Ownable.sol\":2700:2701  0 */\n      0x00\n        /* \"@openzeppelin/contracts/access/Ownable.sol\":2672:2703  OwnableInvalidOwner(address(0)) */\n      mload(0x40)\n      0x1e4fbdf700000000000000000000000000000000000000000000000000000000\n      dup2\n      mstore\n      0x04\n      add\n      tag_244\n      swap2\n      swap1\n      tag_44\n      jump\t// in\n    tag_244:\n      mload(0x40)\n      dup1\n      swap2\n      sub\n      swap1\n      revert\n        /* \"@openzeppelin/contracts/access/Ownable.sol\":2623:2714  if (newOwner == address(0)) {... */\n    tag_243:\n        /* \"@openzeppelin/contracts/access/Ownable.sol\":2723:2751  _transferOwnership(newOwner) */\n      tag_245\n        /* \"@openzeppelin/contracts/access/Ownable.sol\":2742:2750  newOwner */\n      dup2\n        /* \"@openzeppelin/contracts/access/Ownable.sol\":2723:2741  _transferOwnership */\n      tag_187\n        /* \"@openzeppelin/contracts/access/Ownable.sol\":2723:2751  _transferOwnership(newOwner) */\n      jump\t// in\n    tag_245:\n        /* \"@openzeppelin/contracts/access/Ownable.sol\":2543:2758  function transferOwnership(address newOwner) public virtual onlyOwner {... */\n      pop\n      jump\t// out\n        /* \"@openzeppelin/contracts/utils/introspection/ERC165.sol\":762:908  function supportsInterface(bytes4 interfaceId) public view virtual returns (bool) {... */\n    tag_134:\n        /* \"@openzeppelin/contracts/utils/introspection/ERC165.sol\":838:842  bool */\n      0x00\n        /* \"@openzeppelin/contracts/utils/introspection/ERC165.sol\":876:901  type(IERC165).interfaceId */\n      0x01ffc9a700000000000000000000000000000000000000000000000000000000\n        /* \"@openzeppelin/contracts/utils/introspection/ERC165.sol\":861:901  interfaceId == type(IERC165).interfaceId */\n      not(0xffffffffffffffffffffffffffffffffffffffffffffffffffffffff)\n      and\n        /* \"@openzeppelin/contracts/utils/introspection/ERC165.sol\":861:872  interfaceId */\n      dup3\n        /* \"@openzeppelin/contracts/utils/introspection/ERC165.sol\":861:901  interfaceId == type(IERC165).interfaceId */\n      not(0xffffffffffffffffffffffffffffffffffffffffffffffffffffffff)\n      and\n      eq\n        /* \"@openzeppelin/contracts/utils/introspection/ERC165.sol\":854:901  return interfaceId == type(IERC165).interfaceId */\n      swap1\n      pop\n        /* \"@openzeppelin/contracts/utils/introspection/ERC165.sol\":762:908  function supportsInterface(bytes4 interfaceId) public view virtual returns (bool) {... */\n      swap2\n      swap1\n      pop\n      jump\t// out\n        /* \"@openzeppelin/contracts/token/ERC721/ERC721.sol\":16138:16379  function _requireOwned(uint256 tokenId) internal view returns (address) {... */\n    tag_144:\n        /* \"@openzeppelin/contracts/token/ERC721/ERC721.sol\":16201:16208  address */\n      0x00\n        /* \"@openzeppelin/contracts/token/ERC721/ERC721.sol\":16220:16233  address owner */\n      dup1\n        /* \"@openzeppelin/contracts/token/ERC721/ERC721.sol\":16236:16253  _ownerOf(tokenId) */\n      tag_248\n        /* \"@openzeppelin/contracts/token/ERC721/ERC721.sol\":16245:16252  tokenId */\n      dup4\n        /* \"@openzeppelin/contracts/token/ERC721/ERC721.sol\":16236:16244  _ownerOf */\n      tag_249\n        /* \"@openzeppelin/contracts/token/ERC721/ERC721.sol\":16236:16253  _ownerOf(tokenId) */\n      jump\t// in\n    tag_248:\n        /* \"@openzeppelin/contracts/token/ERC721/ERC721.sol\":16220:16253  address owner = _ownerOf(tokenId) */\n      swap1\n      pop\n        /* \"@openzeppelin/contracts/token/ERC721/ERC721.sol\":16284:16285  0 */\n      0x00\n        /* \"@openzeppelin/contracts/token/ERC721/ERC721.sol\":16267:16286  owner == address(0) */\n      0xffffffffffffffffffffffffffffffffffffffff\n      and\n        /* \"@openzeppelin/contracts/token/ERC721/ERC721.sol\":16267:16272  owner */\n      dup2\n        /* \"@openzeppelin/contracts/token/ERC721/ERC721.sol\":16267:16286  owner == address(0) */\n      0xffffffffffffffffffffffffffffffffffffffff\n      and\n      sub\n        /* \"@openzeppelin/contracts/token/ERC721/ERC721.sol\":16263:16351  if (owner == address(0)) {... */\n      tag_250\n      jumpi\n        /* \"@openzeppelin/contracts/token/ERC721/ERC721.sol\":16332:16339  tokenId */\n      dup3\n        /* \"@openzeppelin/contracts/token/ERC721/ERC721.sol\":16309:16340  ERC721NonexistentToken(tokenId) */\n      mload(0x40)\n      0x7e27328900000000000000000000000000000000000000000000000000000000\n      dup2\n      mstore\n      0x04\n      add\n      tag_251\n      swap2\n      swap1\n      tag_86\n      jump\t// in\n    tag_251:\n      mload(0x40)\n      dup1\n      swap2\n      sub\n      swap1\n      revert\n        /* \"@openzeppelin/contracts/token/ERC721/ERC721.sol\":16263:16351  if (owner == address(0)) {... */\n    tag_250:\n        /* \"@openzeppelin/contracts/token/ERC721/ERC721.sol\":16367:16372  owner */\n      dup1\n        /* \"@openzeppelin/contracts/token/ERC721/ERC721.sol\":16360:16372  return owner */\n      swap2\n      pop\n      pop\n        /* \"@openzeppelin/contracts/token/ERC721/ERC721.sol\":16138:16379  function _requireOwned(uint256 tokenId) internal view returns (address) {... */\n      swap2\n      swap1\n      pop\n      jump\t// out\n        /* \"@openzeppelin/contracts/token/ERC721/ERC721.sol\":5938:6065  function _getApproved(uint256 tokenId) internal view virtual returns (address) {... */\n    tag_146:\n        /* \"@openzeppelin/contracts/token/ERC721/ERC721.sol\":6008:6015  address */\n      0x00\n        /* \"@openzeppelin/contracts/token/ERC721/ERC721.sol\":6034:6049  _tokenApprovals */\n      0x04\n        /* \"@openzeppelin/contracts/token/ERC721/ERC721.sol\":6034:6058  _tokenApprovals[tokenId] */\n      0x00\n        /* \"@openzeppelin/contracts/token/ERC721/ERC721.sol\":6050:6057  tokenId */\n      dup4\n        /* \"@openzeppelin/contracts/token/ERC721/ERC721.sol\":6034:6058  _tokenApprovals[tokenId] */\n      dup2\n      mstore\n      0x20\n      add\n      swap1\n      dup2\n      mstore\n      0x20\n      add\n      0x00\n      keccak256\n      0x00\n      swap1\n      sload\n      swap1\n      0x0100\n      exp\n      swap1\n      div\n      0xffffffffffffffffffffffffffffffffffffffff\n      and\n        /* \"@openzeppelin/contracts/token/ERC721/ERC721.sol\":6027:6058  return _tokenApprovals[tokenId] */\n      swap1\n      pop\n        /* \"@openzeppelin/contracts/token/ERC721/ERC721.sol\":5938:6065  function _getApproved(uint256 tokenId) internal view virtual returns (address) {... */\n      swap2\n      swap1\n      pop\n      jump\t// out\n        /* \"@openzeppelin/contracts/utils/Context.sol\":656:752  function _msgSender() internal view virtual returns (address) {... */\n    tag_150:\n        /* \"@openzeppelin/contracts/utils/Context.sol\":709:716  address */\n      0x00\n        /* \"@openzeppelin/contracts/utils/Context.sol\":735:745  msg.sender */\n      caller\n        /* \"@openzeppelin/contracts/utils/Context.sol\":728:745  return msg.sender */\n      swap1\n      pop\n        /* \"@openzeppelin/contracts/utils/Context.sol\":656:752  function _msgSender() internal view virtual returns (address) {... */\n      swap1\n      jump\t// out\n        /* \"@openzeppelin/contracts/token/ERC721/ERC721.sol\":14418:14538  function _approve(address to, uint256 tokenId, address auth) internal {... */\n    tag_151:\n        /* \"@openzeppelin/contracts/token/ERC721/ERC721.sol\":14498:14531  _approve(to, tokenId, auth, true) */\n      tag_255\n        /* \"@openzeppelin/contracts/token/ERC721/ERC721.sol\":14507:14509  to */\n      dup4\n        /* \"@openzeppelin/contracts/token/ERC721/ERC721.sol\":14511:14518  tokenId */\n      dup4\n        /* \"@openzeppelin/contracts/token/ERC721/ERC721.sol\":14520:14524  auth */\n      dup4\n        /* \"@openzeppelin/contracts/token/ERC721/ERC721.sol\":14526:14530  true */\n      0x01\n        /* \"@openzeppelin/contracts/token/ERC721/ERC721.sol\":14498:14506  _approve */\n      tag_256\n        /* \"@openzeppelin/contracts/token/ERC721/ERC721.sol\":14498:14531  _approve(to, tokenId, auth, true) */\n      jump\t// in\n    tag_255:\n        /* \"@openzeppelin/contracts/token/ERC721/ERC721.sol\":14418:14538  function _approve(address to, uint256 tokenId, address auth) internal {... */\n      pop\n      pop\n      pop\n      jump\t// out\n        /* \"@openzeppelin/contracts/token/ERC721/ERC721.sol\":8838:9633  function _update(address to, uint256 tokenId, address auth) internal virtual returns (address) {... */\n    tag_157:\n        /* \"@openzeppelin/contracts/token/ERC721/ERC721.sol\":8924:8931  address */\n      0x00\n        /* \"@openzeppelin/contracts/token/ERC721/ERC721.sol\":8943:8955  address from */\n      dup1\n        /* \"@openzeppelin/contracts/token/ERC721/ERC721.sol\":8958:8975  _ownerOf(tokenId) */\n      tag_258\n        /* \"@openzeppelin/contracts/token/ERC721/ERC721.sol\":8967:8974  tokenId */\n      dup5\n        /* \"@openzeppelin/contracts/token/ERC721/ERC721.sol\":8958:8966  _ownerOf */\n      tag_249\n        /* \"@openzeppelin/contracts/token/ERC721/ERC721.sol\":8958:8975  _ownerOf(tokenId) */\n      jump\t// in\n    tag_258:\n        /* \"@openzeppelin/contracts/token/ERC721/ERC721.sol\":8943:8975  address from = _ownerOf(tokenId) */\n      swap1\n      pop\n        /* \"@openzeppelin/contracts/token/ERC721/ERC721.sol\":9051:9052  0 */\n      0x00\n        /* \"@openzeppelin/contracts/token/ERC721/ERC721.sol\":9035:9053  auth != address(0) */\n      0xffffffffffffffffffffffffffffffffffffffff\n      and\n        /* \"@openzeppelin/contracts/token/ERC721/ERC721.sol\":9035:9039  auth */\n      dup4\n        /* \"@openzeppelin/contracts/token/ERC721/ERC721.sol\":9035:9053  auth != address(0) */\n      0xffffffffffffffffffffffffffffffffffffffff\n      and\n      eq\n        /* \"@openzeppelin/contracts/token/ERC721/ERC721.sol\":9031:9117  if (auth != address(0)) {... */\n      tag_259\n      jumpi\n        /* \"@openzeppelin/contracts/token/ERC721/ERC721.sol\":9069:9106  _checkAuthorized(from, auth, tokenId) */\n      tag_260\n        /* \"@openzeppelin/contracts/token/ERC721/ERC721.sol\":9086:9090  from */\n      dup2\n        /* \"@openzeppelin/contracts/token/ERC721/ERC721.sol\":9092:9096  auth */\n      dup5\n        /* \"@openzeppelin/contracts/token/ERC721/ERC721.sol\":9098:9105  tokenId */\n      dup7\n        /* \"@openzeppelin/contracts/token/ERC721/ERC721.sol\":9069:9085  _checkAuthorized */\n      tag_261\n        /* \"@openzeppelin/contracts/token/ERC721/ERC721.sol\":9069:9106  _checkAuthorized(from, auth, tokenId) */\n      jump\t// in\n    tag_260:\n        /* \"@openzeppelin/contracts/token/ERC721/ERC721.sol\":9031:9117  if (auth != address(0)) {... */\n    tag_259:\n        /* \"@openzeppelin/contracts/token/ERC721/ERC721.sol\":9177:9178  0 */\n      0x00\n        /* \"@openzeppelin/contracts/token/ERC721/ERC721.sol\":9161:9179  from != address(0) */\n      0xffffffffffffffffffffffffffffffffffffffff\n      and\n        /* \"@openzeppelin/contracts/token/ERC721/ERC721.sol\":9161:9165  from */\n      dup2\n        /* \"@openzeppelin/contracts/token/ERC721/ERC721.sol\":9161:9179  from != address(0) */\n      0xffffffffffffffffffffffffffffffffffffffff\n      and\n      eq\n        /* \"@openzeppelin/contracts/token/ERC721/ERC721.sol\":9157:9413  if (from != address(0)) {... */\n      tag_262\n      jumpi\n        /* \"@openzeppelin/contracts/token/ERC721/ERC721.sol\":9277:9325  _approve(address(0), tokenId, address(0), false) */\n      tag_263\n        /* \"@openzeppelin/contracts/token/ERC721/ERC721.sol\":9294:9295  0 */\n      0x00\n        /* \"@openzeppelin/contracts/token/ERC721/ERC721.sol\":9298:9305  tokenId */\n      dup6\n        /* \"@openzeppelin/contracts/token/ERC721/ERC721.sol\":9315:9316  0 */\n      0x00\n        /* \"@openzeppelin/contracts/token/ERC721/ERC721.sol\":9319:9324  false */\n      dup1\n        /* \"@openzeppelin/contracts/token/ERC721/ERC721.sol\":9277:9285  _approve */\n      tag_256\n        /* \"@openzeppelin/contracts/token/ERC721/ERC721.sol\":9277:9325  _approve(address(0), tokenId, address(0), false) */\n      jump\t// in\n    tag_263:\n        /* \"@openzeppelin/contracts/token/ERC721/ERC721.sol\":9387:9388  1 */\n      0x01\n        /* \"@openzeppelin/contracts/token/ERC721/ERC721.sol\":9368:9377  _balances */\n      0x03\n        /* \"@openzeppelin/contracts/token/ERC721/ERC721.sol\":9368:9383  _balances[from] */\n      0x00\n        /* \"@openzeppelin/contracts/token/ERC721/ERC721.sol\":9378:9382  from */\n      dup4\n        /* \"@openzeppelin/contracts/token/ERC721/ERC721.sol\":9368:9383  _balances[from] */\n      0xffffffffffffffffffffffffffffffffffffffff\n      and\n      0xffffffffffffffffffffffffffffffffffffffff\n      and\n      dup2\n      mstore\n      0x20\n      add\n      swap1\n      dup2\n      mstore\n      0x20\n      add\n      0x00\n      keccak256\n      0x00\n        /* \"@openzeppelin/contracts/token/ERC721/ERC721.sol\":9368:9388  _balances[from] -= 1 */\n      dup3\n      dup3\n      sload\n      sub\n      swap3\n      pop\n      pop\n      dup2\n      swap1\n      sstore\n      pop\n        /* \"@openzeppelin/contracts/token/ERC721/ERC721.sol\":9157:9413  if (from != address(0)) {... */\n    tag_262:\n        /* \"@openzeppelin/contracts/token/ERC721/ERC721.sol\":9441:9442  0 */\n      0x00\n        /* \"@openzeppelin/contracts/token/ERC721/ERC721.sol\":9427:9443  to != address(0) */\n      0xffffffffffffffffffffffffffffffffffffffff\n      and\n        /* \"@openzeppelin/contracts/token/ERC721/ERC721.sol\":9427:9429  to */\n      dup6\n        /* \"@openzeppelin/contracts/token/ERC721/ERC721.sol\":9427:9443  to != address(0) */\n      0xffffffffffffffffffffffffffffffffffffffff\n      and\n      eq\n        /* \"@openzeppelin/contracts/token/ERC721/ERC721.sol\":9423:9530  if (to != address(0)) {... */\n      tag_264\n      jumpi\n        /* \"@openzeppelin/contracts/token/ERC721/ERC721.sol\":9504:9505  1 */\n      0x01\n        /* \"@openzeppelin/contracts/token/ERC721/ERC721.sol\":9487:9496  _balances */\n      0x03\n        /* \"@openzeppelin/contracts/token/ERC721/ERC721.sol\":9487:9500  _balances[to] */\n      0x00\n        /* \"@openzeppelin/contracts/token/ERC721/ERC721.sol\":9497:9499  to */\n      dup8\n        /* \"@openzeppelin/contracts/token/ERC721/ERC721.sol\":9487:9500  _balances[to] */\n      0xffffffffffffffffffffffffffffffffffffffff\n      and\n      0xffffffffffffffffffffffffffffffffffffffff\n      and\n      dup2\n      mstore\n      0x20\n      add\n      swap1\n      dup2\n      mstore\n      0x20\n      add\n      0x00\n      keccak256\n      0x00\n        /* \"@openzeppelin/contracts/token/ERC721/ERC721.sol\":9487:9505  _balances[to] += 1 */\n      dup3\n      dup3\n      sload\n      add\n      swap3\n      pop\n      pop\n      dup2\n      swap1\n      sstore\n      pop\n        /* \"@openzeppelin/contracts/token/ERC721/ERC721.sol\":9423:9530  if (to != address(0)) {... */\n    tag_264:\n        /* \"@openzeppelin/contracts/token/ERC721/ERC721.sol\":9559:9561  to */\n      dup5\n        /* \"@openzeppelin/contracts/token/ERC721/ERC721.sol\":9540:9547  _owners */\n      0x02\n        /* \"@openzeppelin/contracts/token/ERC721/ERC721.sol\":9540:9556  _owners[tokenId] */\n      0x00\n        /* \"@openzeppelin/contracts/token/ERC721/ERC721.sol\":9548:9555  tokenId */\n      dup7\n        /* \"@openzeppelin/contracts/token/ERC721/ERC721.sol\":9540:9556  _owners[tokenId] */\n      dup2\n      mstore\n      0x20\n      add\n      swap1\n      dup2\n      mstore\n      0x20\n      add\n      0x00\n      keccak256\n      0x00\n        /* \"@openzeppelin/contracts/token/ERC721/ERC721.sol\":9540:9561  _owners[tokenId] = to */\n      0x0100\n      exp\n      dup2\n      sload\n      dup2\n      0xffffffffffffffffffffffffffffffffffffffff\n      mul\n      not\n      and\n      swap1\n      dup4\n      0xffffffffffffffffffffffffffffffffffffffff\n      and\n      mul\n      or\n      swap1\n      sstore\n      pop\n        /* \"@openzeppelin/contracts/token/ERC721/ERC721.sol\":9596:9603  tokenId */\n      dup4\n        /* \"@openzeppelin/contracts/token/ERC721/ERC721.sol\":9592:9594  to */\n      dup6\n        /* \"@openzeppelin/contracts/token/ERC721/ERC721.sol\":9577:9604  Transfer(from, to, tokenId) */\n      0xffffffffffffffffffffffffffffffffffffffff\n      and\n        /* \"@openzeppelin/contracts/token/ERC721/ERC721.sol\":9586:9590  from */\n      dup3\n        /* \"@openzeppelin/contracts/token/ERC721/ERC721.sol\":9577:9604  Transfer(from, to, tokenId) */\n      0xffffffffffffffffffffffffffffffffffffffff\n      and\n      0xddf252ad1be2c89b69c2b068fc378daa952ba7f163c4a11628f55a4df523b3ef\n      mload(0x40)\n      mload(0x40)\n      dup1\n      swap2\n      sub\n      swap1\n      log4\n        /* \"@openzeppelin/contracts/token/ERC721/ERC721.sol\":9622:9626  from */\n      dup1\n        /* \"@openzeppelin/contracts/token/ERC721/ERC721.sol\":9615:9626  return from */\n      swap2\n      pop\n      pop\n        /* \"@openzeppelin/contracts/token/ERC721/ERC721.sol\":8838:9633  function _update(address to, uint256 tokenId, address auth) internal virtual returns (address) {... */\n      swap4\n      swap3\n      pop\n      pop\n      pop\n      jump\t// out\n        /* \"@openzeppelin/contracts/access/Ownable.sol\":1796:1958  function _checkOwner() internal view virtual {... */\n    tag_165:\n        /* \"@openzeppelin/contracts/access/Ownable.sol\":1866:1878  _msgSender() */\n      tag_266\n        /* \"@openzeppelin/contracts/access/Ownable.sol\":1866:1876  _msgSender */\n      tag_150\n        /* \"@openzeppelin/contracts/access/Ownable.sol\":1866:1878  _msgSender() */\n      jump\t// in\n    tag_266:\n        /* \"@openzeppelin/contracts/access/Ownable.sol\":1855:1878  owner() != _msgSender() */\n      0xffffffffffffffffffffffffffffffffffffffff\n      and\n        /* \"@openzeppelin/contracts/access/Ownable.sol\":1855:1862  owner() */\n      tag_267\n        /* \"@openzeppelin/contracts/access/Ownable.sol\":1855:1860  owner */\n      tag_92\n        /* \"@openzeppelin/contracts/access/Ownable.sol\":1855:1862  owner() */\n      jump\t// in\n    tag_267:\n        /* \"@openzeppelin/contracts/access/Ownable.sol\":1855:1878  owner() != _msgSender() */\n      0xffffffffffffffffffffffffffffffffffffffff\n      and\n      eq\n        /* \"@openzeppelin/contracts/access/Ownable.sol\":1851:1952  if (owner() != _msgSender()) {... */\n      tag_268\n      jumpi\n        /* \"@openzeppelin/contracts/access/Ownable.sol\":1928:1940  _msgSender() */\n      tag_269\n        /* \"@openzeppelin/contracts/access/Ownable.sol\":1928:1938  _msgSender */\n      tag_150\n        /* \"@openzeppelin/contracts/access/Ownable.sol\":1928:1940  _msgSender() */\n      jump\t// in\n    tag_269:\n        /* \"@openzeppelin/contracts/access/Ownable.sol\":1901:1941  OwnableUnauthorizedAccount(_msgSender()) */\n      mload(0x40)\n      0x118cdaa700000000000000000000000000000000000000000000000000000000\n      dup2\n      mstore\n      0x04\n      add\n      tag_270\n      swap2\n      swap1\n      tag_44\n      jump\t// in\n    tag_270:\n      mload(0x40)\n      dup1\n      swap2\n      sub\n      swap1\n      revert\n        /* \"@openzeppelin/contracts/access/Ownable.sol\":1851:1952  if (owner() != _msgSender()) {... */\n    tag_268:\n        /* \"@openzeppelin/contracts/access/Ownable.sol\":1796:1958  function _checkOwner() internal view virtual {... */\n      jump\t// out\n        /* \"@openzeppelin/contracts/utils/Counters.sol\":827:939  function current(Counter storage counter) internal view returns (uint256) {... */\n    tag_171:\n        /* \"@openzeppelin/contracts/utils/Counters.sol\":892:899  uint256 */\n      0x00\n        /* \"@openzeppelin/contracts/utils/Counters.sol\":918:925  counter */\n      dup2\n        /* \"@openzeppelin/contracts/utils/Counters.sol\":918:932  counter._value */\n      0x00\n      add\n      sload\n        /* \"@openzeppelin/contracts/utils/Counters.sol\":911:932  return counter._value */\n      swap1\n      pop\n        /* \"@openzeppelin/contracts/utils/Counters.sol\":827:939  function current(Counter storage counter) internal view returns (uint256) {... */\n      swap2\n      swap1\n      pop\n      jump\t// out\n        /* \"@openzeppelin/contracts/token/ERC721/ERC721.sol\":9955:10282  function _mint(address to, uint256 tokenId) internal {... */\n    tag_173:\n        /* \"@openzeppelin/contracts/token/ERC721/ERC721.sol\":10036:10037  0 */\n      0x00\n        /* \"@openzeppelin/contracts/token/ERC721/ERC721.sol\":10022:10038  to == address(0) */\n      0xffffffffffffffffffffffffffffffffffffffff\n      and\n        /* \"@openzeppelin/contracts/token/ERC721/ERC721.sol\":10022:10024  to */\n      dup3\n        /* \"@openzeppelin/contracts/token/ERC721/ERC721.sol\":10022:10038  to == address(0) */\n      0xffffffffffffffffffffffffffffffffffffffff\n      and\n      sub\n        /* \"@openzeppelin/contracts/token/ERC721/ERC721.sol\":10018:10105  if (to == address(0)) {... */\n      tag_273\n      jumpi\n        /* \"@openzeppelin/contracts/token/ERC721/ERC721.sol\":10091:10092  0 */\n      0x00\n        /* \"@openzeppelin/contracts/token/ERC721/ERC721.sol\":10061:10094  ERC721InvalidReceiver(address(0)) */\n      mload(0x40)\n      0x64a0ae9200000000000000000000000000000000000000000000000000000000\n      dup2\n      mstore\n      0x04\n      add\n      tag_274\n      swap2\n      swap1\n      tag_44\n      jump\t// in\n    tag_274:\n      mload(0x40)\n      dup1\n      swap2\n      sub\n      swap1\n      revert\n        /* \"@openzeppelin/contracts/token/ERC721/ERC721.sol\":10018:10105  if (to == address(0)) {... */\n    tag_273:\n        /* \"@openzeppelin/contracts/token/ERC721/ERC721.sol\":10114:10135  address previousOwner */\n      0x00\n        /* \"@openzeppelin/contracts/token/ERC721/ERC721.sol\":10138:10170  _update(to, tokenId, address(0)) */\n      tag_275\n        /* \"@openzeppelin/contracts/token/ERC721/ERC721.sol\":10146:10148  to */\n      dup4\n        /* \"@openzeppelin/contracts/token/ERC721/ERC721.sol\":10150:10157  tokenId */\n      dup4\n        /* \"@openzeppelin/contracts/token/ERC721/ERC721.sol\":10167:10168  0 */\n      0x00\n        /* \"@openzeppelin/contracts/token/ERC721/ERC721.sol\":10138:10145  _update */\n      tag_157\n        /* \"@openzeppelin/contracts/token/ERC721/ERC721.sol\":10138:10170  _update(to, tokenId, address(0)) */\n      jump\t// in\n    tag_275:\n        /* \"@openzeppelin/contracts/token/ERC721/ERC721.sol\":10114:10170  address previousOwner = _update(to, tokenId, address(0)) */\n      swap1\n      pop\n        /* \"@openzeppelin/contracts/token/ERC721/ERC721.sol\":10209:10210  0 */\n      0x00\n        /* \"@openzeppelin/contracts/token/ERC721/ERC721.sol\":10184:10211  previousOwner != address(0) */\n      0xffffffffffffffffffffffffffffffffffffffff\n      and\n        /* \"@openzeppelin/contracts/token/ERC721/ERC721.sol\":10184:10197  previousOwner */\n      dup2\n        /* \"@openzeppelin/contracts/token/ERC721/ERC721.sol\":10184:10211  previousOwner != address(0) */\n      0xffffffffffffffffffffffffffffffffffffffff\n      and\n      eq\n        /* \"@openzeppelin/contracts/token/ERC721/ERC721.sol\":10180:10276  if (previousOwner != address(0)) {... */\n      tag_276\n      jumpi\n        /* \"@openzeppelin/contracts/token/ERC721/ERC721.sol\":10262:10263  0 */\n      0x00\n        /* \"@openzeppelin/contracts/token/ERC721/ERC721.sol\":10234:10265  ERC721InvalidSender(address(0)) */\n      mload(0x40)\n      0x73c6ac6e00000000000000000000000000000000000000000000000000000000\n      dup2\n      mstore\n      0x04\n      add\n      tag_277\n      swap2\n      swap1\n      tag_44\n      jump\t// in\n    tag_277:\n      mload(0x40)\n      dup1\n      swap2\n      sub\n      swap1\n      revert\n        /* \"@openzeppelin/contracts/token/ERC721/ERC721.sol\":10180:10276  if (previousOwner != address(0)) {... */\n    tag_276:\n        /* \"@openzeppelin/contracts/token/ERC721/ERC721.sol\":10008:10282  {... */\n      pop\n        /* \"@openzeppelin/contracts/token/ERC721/ERC721.sol\":9955:10282  function _mint(address to, uint256 tokenId) internal {... */\n      pop\n      pop\n      jump\t// out\n        /* \"nftmarket.sol\":1921:2043  function _setTokenURI(uint256 tokenId, string memory tokenURI) internal {... */\n    tag_175:\n        /* \"nftmarket.sol\":2004:2035  _setTokenURI(tokenId, tokenURI) */\n      tag_279\n        /* \"nftmarket.sol\":2017:2024  tokenId */\n      dup3\n        /* \"nftmarket.sol\":2026:2034  tokenURI */\n      dup3\n        /* \"nftmarket.sol\":2004:2016  _setTokenURI */\n      tag_175\n        /* \"nftmarket.sol\":2004:2035  _setTokenURI(tokenId, tokenURI) */\n      jump\t// in\n    tag_279:\n        /* \"nftmarket.sol\":1921:2043  function _setTokenURI(uint256 tokenId, string memory tokenURI) internal {... */\n      pop\n      pop\n      jump\t// out\n        /* \"@openzeppelin/contracts/utils/Counters.sol\":945:1068  function increment(Counter storage counter) internal {... */\n    tag_177:\n        /* \"@openzeppelin/contracts/utils/Counters.sol\":1050:1051  1 */\n      0x01\n        /* \"@openzeppelin/contracts/utils/Counters.sol\":1032:1039  counter */\n      dup2\n        /* \"@openzeppelin/contracts/utils/Counters.sol\":1032:1046  counter._value */\n      0x00\n      add\n      0x00\n        /* \"@openzeppelin/contracts/utils/Counters.sol\":1032:1051  counter._value += 1 */\n      dup3\n      dup3\n      sload\n      add\n      swap3\n      pop\n      pop\n      dup2\n      swap1\n      sstore\n      pop\n        /* \"@openzeppelin/contracts/utils/Counters.sol\":945:1068  function increment(Counter storage counter) internal {... */\n      pop\n      jump\t// out\n        /* \"@openzeppelin/contracts/access/Ownable.sol\":2912:3099  function _transferOwnership(address newOwner) internal virtual {... */\n    tag_187:\n        /* \"@openzeppelin/contracts/access/Ownable.sol\":2985:3001  address oldOwner */\n      0x00\n        /* \"@openzeppelin/contracts/access/Ownable.sol\":3004:3010  _owner */\n      0x06\n      0x00\n      swap1\n      sload\n      swap1\n      0x0100\n      exp\n      swap1\n      div\n      0xffffffffffffffffffffffffffffffffffffffff\n      and\n        /* \"@openzeppelin/contracts/access/Ownable.sol\":2985:3010  address oldOwner = _owner */\n      swap1\n      pop\n        /* \"@openzeppelin/contracts/access/Ownable.sol\":3029:3037  newOwner */\n      dup2\n        /* \"@openzeppelin/contracts/access/Ownable.sol\":3020:3026  _owner */\n      0x06\n      0x00\n        /* \"@openzeppelin/contracts/access/Ownable.sol\":3020:3037  _owner = newOwner */\n      0x0100\n      exp\n      dup2\n      sload\n      dup2\n      0xffffffffffffffffffffffffffffffffffffffff\n      mul\n      not\n      and\n      swap1\n      dup4\n      0xffffffffffffffffffffffffffffffffffffffff\n      and\n      mul\n      or\n      swap1\n      sstore\n      pop\n        /* \"@openzeppelin/contracts/access/Ownable.sol\":3083:3091  newOwner */\n      dup2\n        /* \"@openzeppelin/contracts/access/Ownable.sol\":3052:3092  OwnershipTransferred(oldOwner, newOwner) */\n      0xffffffffffffffffffffffffffffffffffffffff\n      and\n        /* \"@openzeppelin/contracts/access/Ownable.sol\":3073:3081  oldOwner */\n      dup2\n        /* \"@openzeppelin/contracts/access/Ownable.sol\":3052:3092  OwnershipTransferred(oldOwner, newOwner) */\n      0xffffffffffffffffffffffffffffffffffffffff\n      and\n      0x8be0079c531659141344cd1fd0a4f28419497f9722a3daafe3b4186f6b6457e0\n      mload(0x40)\n      mload(0x40)\n      dup1\n      swap2\n      sub\n      swap1\n      log3\n        /* \"@openzeppelin/contracts/access/Ownable.sol\":2975:3099  {... */\n      pop\n        /* \"@openzeppelin/contracts/access/Ownable.sol\":2912:3099  function _transferOwnership(address newOwner) internal virtual {... */\n      pop\n      jump\t// out\n        /* \"@openzeppelin/contracts/token/ERC721/ERC721.sol\":15591:15903  function _setApprovalForAll(address owner, address operator, bool approved) internal virtual {... */\n    tag_198:\n        /* \"@openzeppelin/contracts/token/ERC721/ERC721.sol\":15718:15719  0 */\n      0x00\n        /* \"@openzeppelin/contracts/token/ERC721/ERC721.sol\":15698:15720  operator == address(0) */\n      0xffffffffffffffffffffffffffffffffffffffff\n      and\n        /* \"@openzeppelin/contracts/token/ERC721/ERC721.sol\":15698:15706  operator */\n      dup3\n        /* \"@openzeppelin/contracts/token/ERC721/ERC721.sol\":15698:15720  operator == address(0) */\n      0xffffffffffffffffffffffffffffffffffffffff\n      and\n      sub\n        /* \"@openzeppelin/contracts/token/ERC721/ERC721.sol\":15694:15785  if (operator == address(0)) {... */\n      tag_283\n      jumpi\n        /* \"@openzeppelin/contracts/token/ERC721/ERC721.sol\":15765:15773  operator */\n      dup2\n        /* \"@openzeppelin/contracts/token/ERC721/ERC721.sol\":15743:15774  ERC721InvalidOperator(operator) */\n      mload(0x40)\n      0x5b08ba1800000000000000000000000000000000000000000000000000000000\n      dup2\n      mstore\n      0x04\n      add\n      tag_284\n      swap2\n      swap1\n      tag_44\n      jump\t// in\n    tag_284:\n      mload(0x40)\n      dup1\n      swap2\n      sub\n      swap1\n      revert\n        /* \"@openzeppelin/contracts/token/ERC721/ERC721.sol\":15694:15785  if (operator == address(0)) {... */\n    tag_283:\n        /* \"@openzeppelin/contracts/token/ERC721/ERC721.sol\":15832:15840  approved */\n      dup1\n        /* \"@openzeppelin/contracts/token/ERC721/ERC721.sol\":15794:15812  _operatorApprovals */\n      0x05\n        /* \"@openzeppelin/contracts/token/ERC721/ERC721.sol\":15794:15819  _operatorApprovals[owner] */\n      0x00\n        /* \"@openzeppelin/contracts/token/ERC721/ERC721.sol\":15813:15818  owner */\n      dup6\n        /* \"@openzeppelin/contracts/token/ERC721/ERC721.sol\":15794:15819  _operatorApprovals[owner] */\n      0xffffffffffffffffffffffffffffffffffffffff\n      and\n      0xffffffffffffffffffffffffffffffffffffffff\n      and\n      dup2\n      mstore\n      0x20\n      add\n      swap1\n      dup2\n      mstore\n      0x20\n      add\n      0x00\n      keccak256\n        /* \"@openzeppelin/contracts/token/ERC721/ERC721.sol\":15794:15829  _operatorApprovals[owner][operator] */\n      0x00\n        /* \"@openzeppelin/contracts/token/ERC721/ERC721.sol\":15820:15828  operator */\n      dup5\n        /* \"@openzeppelin/contracts/token/ERC721/ERC721.sol\":15794:15829  _operatorApprovals[owner][operator] */\n      0xffffffffffffffffffffffffffffffffffffffff\n      and\n      0xffffffffffffffffffffffffffffffffffffffff\n      and\n      dup2\n      mstore\n      0x20\n      add\n      swap1\n      dup2\n      mstore\n      0x20\n      add\n      0x00\n      keccak256\n      0x00\n        /* \"@openzeppelin/contracts/token/ERC721/ERC721.sol\":15794:15840  _operatorApprovals[owner][operator] = approved */\n      0x0100\n      exp\n      dup2\n      sload\n      dup2\n      0xff\n      mul\n      not\n      and\n      swap1\n      dup4\n      iszero\n      iszero\n      mul\n      or\n      swap1\n      sstore\n      pop\n        /* \"@openzeppelin/contracts/token/ERC721/ERC721.sol\":15877:15885  operator */\n      dup2\n        /* \"@openzeppelin/contracts/token/ERC721/ERC721.sol\":15855:15896  ApprovalForAll(owner, operator, approved) */\n      0xffffffffffffffffffffffffffffffffffffffff\n      and\n        /* \"@openzeppelin/contracts/token/ERC721/ERC721.sol\":15870:15875  owner */\n      dup4\n        /* \"@openzeppelin/contracts/token/ERC721/ERC721.sol\":15855:15896  ApprovalForAll(owner, operator, approved) */\n      0xffffffffffffffffffffffffffffffffffffffff\n      and\n      0x17307eab39ab6107e8899845ad3d59bd9653f200f220920489ca2b5937696c31\n        /* \"@openzeppelin/contracts/token/ERC721/ERC721.sol\":15887:15895  approved */\n      dup4\n        /* \"@openzeppelin/contracts/token/ERC721/ERC721.sol\":15855:15896  ApprovalForAll(owner, operator, approved) */\n      mload(0x40)\n      tag_285\n      swap2\n      swap1\n      tag_32\n      jump\t// in\n    tag_285:\n      mload(0x40)\n      dup1\n      swap2\n      sub\n      swap1\n      log3\n        /* \"@openzeppelin/contracts/token/ERC721/ERC721.sol\":15591:15903  function _setApprovalForAll(address owner, address operator, bool approved) internal virtual {... */\n      pop\n      pop\n      pop\n      jump\t// out\n        /* \"@openzeppelin/contracts/token/ERC721/ERC721.sol\":16918:17700  function _checkOnERC721Received(address from, address to, uint256 tokenId, bytes memory data) private {... */\n    tag_202:\n        /* \"@openzeppelin/contracts/token/ERC721/ERC721.sol\":17051:17052  0 */\n      0x00\n        /* \"@openzeppelin/contracts/token/ERC721/ERC721.sol\":17034:17036  to */\n      dup4\n        /* \"@openzeppelin/contracts/token/ERC721/ERC721.sol\":17034:17048  to.code.length */\n      0xffffffffffffffffffffffffffffffffffffffff\n      and\n      extcodesize\n        /* \"@openzeppelin/contracts/token/ERC721/ERC721.sol\":17034:17052  to.code.length > 0 */\n      gt\n        /* \"@openzeppelin/contracts/token/ERC721/ERC721.sol\":17030:17694  if (to.code.length > 0) {... */\n      iszero\n      tag_287\n      jumpi\n        /* \"@openzeppelin/contracts/token/ERC721/ERC721.sol\":17088:17090  to */\n      dup3\n        /* \"@openzeppelin/contracts/token/ERC721/ERC721.sol\":17072:17108  IERC721Receiver(to).onERC721Received */\n      0xffffffffffffffffffffffffffffffffffffffff\n      and\n      0x150b7a02\n        /* \"@openzeppelin/contracts/token/ERC721/ERC721.sol\":17109:17121  _msgSender() */\n      tag_288\n        /* \"@openzeppelin/contracts/token/ERC721/ERC721.sol\":17109:17119  _msgSender */\n      tag_150\n        /* \"@openzeppelin/contracts/token/ERC721/ERC721.sol\":17109:17121  _msgSender() */\n      jump\t// in\n    tag_288:\n        /* \"@openzeppelin/contracts/token/ERC721/ERC721.sol\":17123:17127  from */\n      dup7\n        /* \"@openzeppelin/contracts/token/ERC721/ERC721.sol\":17129:17136  tokenId */\n      dup6\n        /* \"@openzeppelin/contracts/token/ERC721/ERC721.sol\":17138:17142  data */\n      dup6\n        /* \"@openzeppelin/contracts/token/ERC721/ERC721.sol\":17072:17143  IERC721Receiver(to).onERC721Received(_msgSender(), from, tokenId, data) */\n      mload(0x40)\n      dup6\n      0xffffffff\n      and\n      0xe0\n      shl\n      dup2\n      mstore\n      0x04\n      add\n      tag_289\n      swap5\n      swap4\n      swap3\n      swap2\n      swap1\n      tag_290\n      jump\t// in\n    tag_289:\n      0x20\n      mload(0x40)\n      dup1\n      dup4\n      sub\n      dup2\n      0x00\n      dup8\n      gas\n      call\n      swap3\n      pop\n      pop\n      pop\n      dup1\n      iszero\n      tag_291\n      jumpi\n      pop\n      mload(0x40)\n      returndatasize\n      not(0x1f)\n      0x1f\n      dup3\n      add\n      and\n      dup3\n      add\n      dup1\n      0x40\n      mstore\n      pop\n      dup2\n      add\n      swap1\n      tag_292\n      swap2\n      swap1\n      tag_293\n      jump\t// in\n    tag_292:\n      0x01\n    tag_291:\n        /* \"@openzeppelin/contracts/token/ERC721/ERC721.sol\":17068:17684  try IERC721Receiver(to).onERC721Received(_msgSender(), from, tokenId, data) returns (bytes4 retval) {... */\n      tag_294\n      jumpi\n      returndatasize\n      dup1\n      0x00\n      dup2\n      eq\n      tag_299\n      jumpi\n      mload(0x40)\n      swap2\n      pop\n      and(add(returndatasize, 0x3f), not(0x1f))\n      dup3\n      add\n      0x40\n      mstore\n      returndatasize\n      dup3\n      mstore\n      returndatasize\n      0x00\n      0x20\n      dup5\n      add\n      returndatacopy\n      jump(tag_298)\n    tag_299:\n      0x60\n      swap2\n      pop\n    tag_298:\n      pop\n        /* \"@openzeppelin/contracts/token/ERC721/ERC721.sol\":17398:17399  0 */\n      0x00\n        /* \"@openzeppelin/contracts/token/ERC721/ERC721.sol\":17381:17387  reason */\n      dup2\n        /* \"@openzeppelin/contracts/token/ERC721/ERC721.sol\":17381:17394  reason.length */\n      mload\n        /* \"@openzeppelin/contracts/token/ERC721/ERC721.sol\":17381:17399  reason.length == 0 */\n      sub\n        /* \"@openzeppelin/contracts/token/ERC721/ERC721.sol\":17377:17670  if (reason.length == 0) {... */\n      tag_300\n      jumpi\n        /* \"@openzeppelin/contracts/token/ERC721/ERC721.sol\":17452:17454  to */\n      dup4\n        /* \"@openzeppelin/contracts/token/ERC721/ERC721.sol\":17430:17455  ERC721InvalidReceiver(to) */\n      mload(0x40)\n      0x64a0ae9200000000000000000000000000000000000000000000000000000000\n      dup2\n      mstore\n      0x04\n      add\n      tag_301\n      swap2\n      swap1\n      tag_44\n      jump\t// in\n    tag_301:\n      mload(0x40)\n      dup1\n      swap2\n      sub\n      swap1\n      revert\n        /* \"@openzeppelin/contracts/token/ERC721/ERC721.sol\":17377:17670  if (reason.length == 0) {... */\n    tag_300:\n        /* \"@openzeppelin/contracts/token/ERC721/ERC721.sol\":17622:17628  reason */\n      dup1\n        /* \"@openzeppelin/contracts/token/ERC721/ERC721.sol\":17616:17629  mload(reason) */\n      mload\n        /* \"@openzeppelin/contracts/token/ERC721/ERC721.sol\":17607:17613  reason */\n      dup2\n        /* \"@openzeppelin/contracts/token/ERC721/ERC721.sol\":17603:17605  32 */\n      0x20\n        /* \"@openzeppelin/contracts/token/ERC721/ERC721.sol\":17599:17614  add(32, reason) */\n      add\n        /* \"@openzeppelin/contracts/token/ERC721/ERC721.sol\":17592:17630  revert(add(32, reason), mload(reason)) */\n      revert\n        /* \"@openzeppelin/contracts/token/ERC721/ERC721.sol\":17068:17684  try IERC721Receiver(to).onERC721Received(_msgSender(), from, tokenId, data) returns (bytes4 retval) {... */\n    tag_294:\n        /* \"@openzeppelin/contracts/token/ERC721/ERC721.sol\":17200:17241  IERC721Receiver.onERC721Received.selector */\n      shl(0xe0, 0x150b7a02)\n        /* \"@openzeppelin/contracts/token/ERC721/ERC721.sol\":17190:17241  retval != IERC721Receiver.onERC721Received.selector */\n      not(0xffffffffffffffffffffffffffffffffffffffffffffffffffffffff)\n      and\n        /* \"@openzeppelin/contracts/token/ERC721/ERC721.sol\":17190:17196  retval */\n      dup2\n        /* \"@openzeppelin/contracts/token/ERC721/ERC721.sol\":17190:17241  retval != IERC721Receiver.onERC721Received.selector */\n      not(0xffffffffffffffffffffffffffffffffffffffffffffffffffffffff)\n      and\n      eq\n        /* \"@openzeppelin/contracts/token/ERC721/ERC721.sol\":17186:17316  if (retval != IERC721Receiver.onERC721Received.selector) {... */\n      tag_304\n      jumpi\n        /* \"@openzeppelin/contracts/token/ERC721/ERC721.sol\":17294:17296  to */\n      dup4\n        /* \"@openzeppelin/contracts/token/ERC721/ERC721.sol\":17272:17297  ERC721InvalidReceiver(to) */\n      mload(0x40)\n      0x64a0ae9200000000000000000000000000000000000000000000000000000000\n      dup2\n      mstore\n      0x04\n      add\n      tag_305\n      swap2\n      swap1\n      tag_44\n      jump\t// in\n    tag_305:\n      mload(0x40)\n      dup1\n      swap2\n      sub\n      swap1\n      revert\n        /* \"@openzeppelin/contracts/token/ERC721/ERC721.sol\":17186:17316  if (retval != IERC721Receiver.onERC721Received.selector) {... */\n    tag_304:\n        /* \"@openzeppelin/contracts/token/ERC721/ERC721.sol\":17144:17330  returns (bytes4 retval) {... */\n      pop\n        /* \"@openzeppelin/contracts/token/ERC721/ERC721.sol\":17030:17694  if (to.code.length > 0) {... */\n    tag_287:\n        /* \"@openzeppelin/contracts/token/ERC721/ERC721.sol\":16918:17700  function _checkOnERC721Received(address from, address to, uint256 tokenId, bytes memory data) private {... */\n      pop\n      pop\n      pop\n      pop\n      jump\t// out\n        /* \"@openzeppelin/contracts/token/ERC721/ERC721.sol\":3174:3266  function _baseURI() internal view virtual returns (string memory) {... */\n    tag_206:\n        /* \"@openzeppelin/contracts/token/ERC721/ERC721.sol\":3225:3238  string memory */\n      0x60\n        /* \"@openzeppelin/contracts/token/ERC721/ERC721.sol\":3250:3259  return \"\" */\n      mload(0x40)\n      dup1\n      0x20\n      add\n      0x40\n      mstore\n      dup1\n      0x00\n      dup2\n      mstore\n      pop\n      swap1\n      pop\n        /* \"@openzeppelin/contracts/token/ERC721/ERC721.sol\":3174:3266  function _baseURI() internal view virtual returns (string memory) {... */\n      swap1\n      jump\t// out\n        /* \"@openzeppelin/contracts/utils/Strings.sol\":637:1335  function toString(uint256 value) internal pure returns (string memory) {... */\n    tag_210:\n        /* \"@openzeppelin/contracts/utils/Strings.sol\":693:706  string memory */\n      0x60\n        /* \"@openzeppelin/contracts/utils/Strings.sol\":742:756  uint256 length */\n      0x00\n        /* \"@openzeppelin/contracts/utils/Strings.sol\":779:780  1 */\n      0x01\n        /* \"@openzeppelin/contracts/utils/Strings.sol\":759:776  Math.log10(value) */\n      tag_308\n        /* \"@openzeppelin/contracts/utils/Strings.sol\":770:775  value */\n      dup5\n        /* \"@openzeppelin/contracts/utils/Strings.sol\":759:769  Math.log10 */\n      tag_309\n        /* \"@openzeppelin/contracts/utils/Strings.sol\":759:776  Math.log10(value) */\n      jump\t// in\n    tag_308:\n        /* \"@openzeppelin/contracts/utils/Strings.sol\":759:780  Math.log10(value) + 1 */\n      add\n        /* \"@openzeppelin/contracts/utils/Strings.sol\":742:780  uint256 length = Math.log10(value) + 1 */\n      swap1\n      pop\n        /* \"@openzeppelin/contracts/utils/Strings.sol\":794:814  string memory buffer */\n      0x00\n        /* \"@openzeppelin/contracts/utils/Strings.sol\":828:834  length */\n      dup2\n        /* \"@openzeppelin/contracts/utils/Strings.sol\":817:835  new string(length) */\n      0xffffffffffffffff\n      dup2\n      gt\n      iszero\n      tag_310\n      jumpi\n      tag_311\n      tag_312\n      jump\t// in\n    tag_311:\n    tag_310:\n      mload(0x40)\n      swap1\n      dup1\n      dup3\n      mstore\n      dup1\n      0x1f\n      add\n      not(0x1f)\n      and\n      0x20\n      add\n      dup3\n      add\n      0x40\n      mstore\n      dup1\n      iszero\n      tag_313\n      jumpi\n      dup2\n      0x20\n      add\n      0x01\n      dup3\n      mul\n      dup1\n      calldatasize\n      dup4\n      calldatacopy\n      dup1\n      dup3\n      add\n      swap2\n      pop\n      pop\n      swap1\n      pop\n    tag_313:\n      pop\n        /* \"@openzeppelin/contracts/utils/Strings.sol\":794:835  string memory buffer = new string(length) */\n      swap1\n      pop\n        /* \"@openzeppelin/contracts/utils/Strings.sol\":849:860  uint256 ptr */\n      0x00\n        /* \"@openzeppelin/contracts/utils/Strings.sol\":975:981  length */\n      dup3\n        /* \"@openzeppelin/contracts/utils/Strings.sol\":971:973  32 */\n      0x20\n        /* \"@openzeppelin/contracts/utils/Strings.sol\":967:982  add(32, length) */\n      add\n        /* \"@openzeppelin/contracts/utils/Strings.sol\":959:965  buffer */\n      dup3\n        /* \"@openzeppelin/contracts/utils/Strings.sol\":955:983  add(buffer, add(32, length)) */\n      add\n        /* \"@openzeppelin/contracts/utils/Strings.sol\":948:983  ptr := add(buffer, add(32, length)) */\n      swap1\n      pop\n        /* \"@openzeppelin/contracts/utils/Strings.sol\":1010:1292  while (true) {... */\n    tag_314:\n        /* \"@openzeppelin/contracts/utils/Strings.sol\":1017:1021  true */\n      0x01\n        /* \"@openzeppelin/contracts/utils/Strings.sol\":1010:1292  while (true) {... */\n      iszero\n      tag_315\n      jumpi\n        /* \"@openzeppelin/contracts/utils/Strings.sol\":1041:1046  ptr-- */\n      dup1\n      dup1\n      0x01\n      swap1\n      sub\n      swap2\n      pop\n      pop\n        /* \"@openzeppelin/contracts/utils/Strings.sol\":1180:1190  HEX_DIGITS */\n      0x3031323334353637383961626364656600000000000000000000000000000000\n        /* \"@openzeppelin/contracts/utils/Strings.sol\":1175:1177  10 */\n      0x0a\n        /* \"@openzeppelin/contracts/utils/Strings.sol\":1168:1173  value */\n      dup7\n        /* \"@openzeppelin/contracts/utils/Strings.sol\":1164:1178  mod(value, 10) */\n      mod\n        /* \"@openzeppelin/contracts/utils/Strings.sol\":1159:1191  byte(mod(value, 10), HEX_DIGITS) */\n      byte\n        /* \"@openzeppelin/contracts/utils/Strings.sol\":1154:1157  ptr */\n      dup2\n        /* \"@openzeppelin/contracts/utils/Strings.sol\":1146:1192  mstore8(ptr, byte(mod(value, 10), HEX_DIGITS)) */\n      mstore8\n        /* \"@openzeppelin/contracts/utils/Strings.sol\":1236:1238  10 */\n      0x0a\n        /* \"@openzeppelin/contracts/utils/Strings.sol\":1227:1238  value /= 10 */\n      dup6\n      dup2\n      tag_316\n      jumpi\n      tag_317\n      tag_318\n      jump\t// in\n    tag_317:\n    tag_316:\n      div\n      swap5\n      pop\n        /* \"@openzeppelin/contracts/utils/Strings.sol\":1269:1270  0 */\n      0x00\n        /* \"@openzeppelin/contracts/utils/Strings.sol\":1260:1265  value */\n      dup6\n        /* \"@openzeppelin/contracts/utils/Strings.sol\":1260:1270  value == 0 */\n      sub\n        /* \"@openzeppelin/contracts/utils/Strings.sol\":1010:1292  while (true) {... */\n      tag_314\n        /* \"@openzeppelin/contracts/utils/Strings.sol\":1256:1277  if (value == 0) break */\n      jumpi\n        /* \"@openzeppelin/contracts/utils/Strings.sol\":1010:1292  while (true) {... */\n    tag_315:\n        /* \"@openzeppelin/contracts/utils/Strings.sol\":1312:1318  buffer */\n      dup2\n        /* \"@openzeppelin/contracts/utils/Strings.sol\":1305:1318  return buffer */\n      swap4\n      pop\n      pop\n      pop\n      pop\n        /* \"@openzeppelin/contracts/utils/Strings.sol\":637:1335  function toString(uint256 value) internal pure returns (string memory) {... */\n      swap2\n      swap1\n      pop\n      jump\t// out\n        /* \"nftmarket.sol\":2051:2156  function _exists(uint256 tokenId) internal view returns (bool) {... */\n    tag_216:\n        /* \"nftmarket.sol\":2108:2112  bool */\n      0x00\n        /* \"nftmarket.sol\":2132:2148  _exists(tokenId) */\n      tag_321\n        /* \"nftmarket.sol\":2140:2147  tokenId */\n      dup3\n        /* \"nftmarket.sol\":2132:2139  _exists */\n      tag_216\n        /* \"nftmarket.sol\":2132:2148  _exists(tokenId) */\n      jump\t// in\n    tag_321:\n        /* \"nftmarket.sol\":2125:2148  return _exists(tokenId) */\n      swap1\n      pop\n        /* \"nftmarket.sol\":2051:2156  function _exists(uint256 tokenId) internal view returns (bool) {... */\n      swap2\n      swap1\n      pop\n      jump\t// out\n        /* \"@openzeppelin/contracts/token/ERC721/ERC721.sol\":12013:12473  function _transfer(address from, address to, uint256 tokenId) internal {... */\n    tag_228:\n        /* \"@openzeppelin/contracts/token/ERC721/ERC721.sol\":12112:12113  0 */\n      0x00\n        /* \"@openzeppelin/contracts/token/ERC721/ERC721.sol\":12098:12114  to == address(0) */\n      0xffffffffffffffffffffffffffffffffffffffff\n      and\n        /* \"@openzeppelin/contracts/token/ERC721/ERC721.sol\":12098:12100  to */\n      dup3\n        /* \"@openzeppelin/contracts/token/ERC721/ERC721.sol\":12098:12114  to == address(0) */\n      0xffffffffffffffffffffffffffffffffffffffff\n      and\n      sub\n        /* \"@openzeppelin/contracts/token/ERC721/ERC721.sol\":12094:12181  if (to == address(0)) {... */\n      tag_323\n      jumpi\n        /* \"@openzeppelin/contracts/token/ERC721/ERC721.sol\":12167:12168  0 */\n      0x00\n        /* \"@openzeppelin/contracts/token/ERC721/ERC721.sol\":12137:12170  ERC721InvalidReceiver(address(0)) */\n      mload(0x40)\n      0x64a0ae9200000000000000000000000000000000000000000000000000000000\n      dup2\n      mstore\n      0x04\n      add\n      tag_324\n      swap2\n      swap1\n      tag_44\n      jump\t// in\n    tag_324:\n      mload(0x40)\n      dup1\n      swap2\n      sub\n      swap1\n      revert\n        /* \"@openzeppelin/contracts/token/ERC721/ERC721.sol\":12094:12181  if (to == address(0)) {... */\n    tag_323:\n        /* \"@openzeppelin/contracts/token/ERC721/ERC721.sol\":12190:12211  address previousOwner */\n      0x00\n        /* \"@openzeppelin/contracts/token/ERC721/ERC721.sol\":12214:12246  _update(to, tokenId, address(0)) */\n      tag_325\n        /* \"@openzeppelin/contracts/token/ERC721/ERC721.sol\":12222:12224  to */\n      dup4\n        /* \"@openzeppelin/contracts/token/ERC721/ERC721.sol\":12226:12233  tokenId */\n      dup4\n        /* \"@openzeppelin/contracts/token/ERC721/ERC721.sol\":12243:12244  0 */\n      0x00\n        /* \"@openzeppelin/contracts/token/ERC721/ERC721.sol\":12214:12221  _update */\n      tag_157\n        /* \"@openzeppelin/contracts/token/ERC721/ERC721.sol\":12214:12246  _update(to, tokenId, address(0)) */\n      jump\t// in\n    tag_325:\n        /* \"@openzeppelin/contracts/token/ERC721/ERC721.sol\":12190:12246  address previousOwner = _update(to, tokenId, address(0)) */\n      swap1\n      pop\n        /* \"@openzeppelin/contracts/token/ERC721/ERC721.sol\":12285:12286  0 */\n      0x00\n        /* \"@openzeppelin/contracts/token/ERC721/ERC721.sol\":12260:12287  previousOwner == address(0) */\n      0xffffffffffffffffffffffffffffffffffffffff\n      and\n        /* \"@openzeppelin/contracts/token/ERC721/ERC721.sol\":12260:12273  previousOwner */\n      dup2\n        /* \"@openzeppelin/contracts/token/ERC721/ERC721.sol\":12260:12287  previousOwner == address(0) */\n      0xffffffffffffffffffffffffffffffffffffffff\n      and\n      sub\n        /* \"@openzeppelin/contracts/token/ERC721/ERC721.sol\":12256:12467  if (previousOwner == address(0)) {... */\n      tag_326\n      jumpi\n        /* \"@openzeppelin/contracts/token/ERC721/ERC721.sol\":12333:12340  tokenId */\n      dup2\n        /* \"@openzeppelin/contracts/token/ERC721/ERC721.sol\":12310:12341  ERC721NonexistentToken(tokenId) */\n      mload(0x40)\n      0x7e27328900000000000000000000000000000000000000000000000000000000\n      dup2\n      mstore\n      0x04\n      add\n      tag_327\n      swap2\n      swap1\n      tag_86\n      jump\t// in\n    tag_327:\n      mload(0x40)\n      dup1\n      swap2\n      sub\n      swap1\n      revert\n        /* \"@openzeppelin/contracts/token/ERC721/ERC721.sol\":12256:12467  if (previousOwner == address(0)) {... */\n    tag_326:\n        /* \"@openzeppelin/contracts/token/ERC721/ERC721.sol\":12379:12383  from */\n      dup4\n        /* \"@openzeppelin/contracts/token/ERC721/ERC721.sol\":12362:12383  previousOwner != from */\n      0xffffffffffffffffffffffffffffffffffffffff\n      and\n        /* \"@openzeppelin/contracts/token/ERC721/ERC721.sol\":12362:12375  previousOwner */\n      dup2\n        /* \"@openzeppelin/contracts/token/ERC721/ERC721.sol\":12362:12383  previousOwner != from */\n      0xffffffffffffffffffffffffffffffffffffffff\n      and\n      eq\n        /* \"@openzeppelin/contracts/token/ERC721/ERC721.sol\":12358:12467  if (previousOwner != from) {... */\n      tag_329\n      jumpi\n        /* \"@openzeppelin/contracts/token/ERC721/ERC721.sol\":12427:12431  from */\n      dup4\n        /* \"@openzeppelin/contracts/token/ERC721/ERC721.sol\":12433:12440  tokenId */\n      dup3\n        /* \"@openzeppelin/contracts/token/ERC721/ERC721.sol\":12442:12455  previousOwner */\n      dup3\n        /* \"@openzeppelin/contracts/token/ERC721/ERC721.sol\":12406:12456  ERC721IncorrectOwner(from, tokenId, previousOwner) */\n      mload(0x40)\n      0x64283d7b00000000000000000000000000000000000000000000000000000000\n      dup2\n      mstore\n      0x04\n      add\n      tag_330\n      swap4\n      swap3\n      swap2\n      swap1\n      tag_160\n      jump\t// in\n    tag_330:\n      mload(0x40)\n      dup1\n      swap2\n      sub\n      swap1\n      revert\n        /* \"@openzeppelin/contracts/token/ERC721/ERC721.sol\":12358:12467  if (previousOwner != from) {... */\n    tag_329:\n        /* \"@openzeppelin/contracts/token/ERC721/ERC721.sol\":12084:12473  {... */\n      pop\n        /* \"@openzeppelin/contracts/token/ERC721/ERC721.sol\":12013:12473  function _transfer(address from, address to, uint256 tokenId) internal {... */\n      pop\n      pop\n      pop\n      jump\t// out\n        /* \"@openzeppelin/contracts/token/ERC721/ERC721.sol\":5707:5822  function _ownerOf(uint256 tokenId) internal view virtual returns (address) {... */\n    tag_249:\n        /* \"@openzeppelin/contracts/token/ERC721/ERC721.sol\":5773:5780  address */\n      0x00\n        /* \"@openzeppelin/contracts/token/ERC721/ERC721.sol\":5799:5806  _owners */\n      0x02\n        /* \"@openzeppelin/contracts/token/ERC721/ERC721.sol\":5799:5815  _owners[tokenId] */\n      0x00\n        /* \"@openzeppelin/contracts/token/ERC721/ERC721.sol\":5807:5814  tokenId */\n      dup4\n        /* \"@openzeppelin/contracts/token/ERC721/ERC721.sol\":5799:5815  _owners[tokenId] */\n      dup2\n      mstore\n      0x20\n      add\n      swap1\n      dup2\n      mstore\n      0x20\n      add\n      0x00\n      keccak256\n      0x00\n      swap1\n      sload\n      swap1\n      0x0100\n      exp\n      swap1\n      div\n      0xffffffffffffffffffffffffffffffffffffffff\n      and\n        /* \"@openzeppelin/contracts/token/ERC721/ERC721.sol\":5792:5815  return _owners[tokenId] */\n      swap1\n      pop\n        /* \"@openzeppelin/contracts/token/ERC721/ERC721.sol\":5707:5822  function _ownerOf(uint256 tokenId) internal view virtual returns (address) {... */\n      swap2\n      swap1\n      pop\n      jump\t// out\n        /* \"@openzeppelin/contracts/token/ERC721/ERC721.sol\":14720:15382  function _approve(address to, uint256 tokenId, address auth, bool emitEvent) internal virtual {... */\n    tag_256:\n        /* \"@openzeppelin/contracts/token/ERC721/ERC721.sol\":14880:14889  emitEvent */\n      dup1\n        /* \"@openzeppelin/contracts/token/ERC721/ERC721.sol\":14880:14911  emitEvent || auth != address(0) */\n      dup1\n      tag_333\n      jumpi\n      pop\n        /* \"@openzeppelin/contracts/token/ERC721/ERC721.sol\":14909:14910  0 */\n      0x00\n        /* \"@openzeppelin/contracts/token/ERC721/ERC721.sol\":14893:14911  auth != address(0) */\n      0xffffffffffffffffffffffffffffffffffffffff\n      and\n        /* \"@openzeppelin/contracts/token/ERC721/ERC721.sol\":14893:14897  auth */\n      dup3\n        /* \"@openzeppelin/contracts/token/ERC721/ERC721.sol\":14893:14911  auth != address(0) */\n      0xffffffffffffffffffffffffffffffffffffffff\n      and\n      eq\n      iszero\n        /* \"@openzeppelin/contracts/token/ERC721/ERC721.sol\":14880:14911  emitEvent || auth != address(0) */\n    tag_333:\n        /* \"@openzeppelin/contracts/token/ERC721/ERC721.sol\":14876:15336  if (emitEvent || auth != address(0)) {... */\n      iszero\n      tag_334\n      jumpi\n        /* \"@openzeppelin/contracts/token/ERC721/ERC721.sol\":14927:14940  address owner */\n      0x00\n        /* \"@openzeppelin/contracts/token/ERC721/ERC721.sol\":14943:14965  _requireOwned(tokenId) */\n      tag_335\n        /* \"@openzeppelin/contracts/token/ERC721/ERC721.sol\":14957:14964  tokenId */\n      dup5\n        /* \"@openzeppelin/contracts/token/ERC721/ERC721.sol\":14943:14956  _requireOwned */\n      tag_144\n        /* \"@openzeppelin/contracts/token/ERC721/ERC721.sol\":14943:14965  _requireOwned(tokenId) */\n      jump\t// in\n    tag_335:\n        /* \"@openzeppelin/contracts/token/ERC721/ERC721.sol\":14927:14965  address owner = _requireOwned(tokenId) */\n      swap1\n      pop\n        /* \"@openzeppelin/contracts/token/ERC721/ERC721.sol\":15109:15110  0 */\n      0x00\n        /* \"@openzeppelin/contracts/token/ERC721/ERC721.sol\":15093:15111  auth != address(0) */\n      0xffffffffffffffffffffffffffffffffffffffff\n      and\n        /* \"@openzeppelin/contracts/token/ERC721/ERC721.sol\":15093:15097  auth */\n      dup4\n        /* \"@openzeppelin/contracts/token/ERC721/ERC721.sol\":15093:15111  auth != address(0) */\n      0xffffffffffffffffffffffffffffffffffffffff\n      and\n      eq\n      iszero\n        /* \"@openzeppelin/contracts/token/ERC721/ERC721.sol\":15093:15128  auth != address(0) && owner != auth */\n      dup1\n      iszero\n      tag_336\n      jumpi\n      pop\n        /* \"@openzeppelin/contracts/token/ERC721/ERC721.sol\":15124:15128  auth */\n      dup3\n        /* \"@openzeppelin/contracts/token/ERC721/ERC721.sol\":15115:15128  owner != auth */\n      0xffffffffffffffffffffffffffffffffffffffff\n      and\n        /* \"@openzeppelin/contracts/token/ERC721/ERC721.sol\":15115:15120  owner */\n      dup2\n        /* \"@openzeppelin/contracts/token/ERC721/ERC721.sol\":15115:15128  owner != auth */\n      0xffffffffffffffffffffffffffffffffffffffff\n      and\n      eq\n      iszero\n        /* \"@openzeppelin/contracts/token/ERC721/ERC721.sol\":15093:15128  auth != address(0) && owner != auth */\n    tag_336:\n        /* \"@openzeppelin/contracts/token/ERC721/ERC721.sol\":15093:15162  auth != address(0) && owner != auth && !isApprovedForAll(owner, auth) */\n      dup1\n      iszero\n      tag_337\n      jumpi\n      pop\n        /* \"@openzeppelin/contracts/token/ERC721/ERC721.sol\":15133:15162  isApprovedForAll(owner, auth) */\n      tag_338\n        /* \"@openzeppelin/contracts/token/ERC721/ERC721.sol\":15150:15155  owner */\n      dup2\n        /* \"@openzeppelin/contracts/token/ERC721/ERC721.sol\":15157:15161  auth */\n      dup5\n        /* \"@openzeppelin/contracts/token/ERC721/ERC721.sol\":15133:15149  isApprovedForAll */\n      tag_121\n        /* \"@openzeppelin/contracts/token/ERC721/ERC721.sol\":15133:15162  isApprovedForAll(owner, auth) */\n      jump\t// in\n    tag_338:\n        /* \"@openzeppelin/contracts/token/ERC721/ERC721.sol\":15132:15162  !isApprovedForAll(owner, auth) */\n      iszero\n        /* \"@openzeppelin/contracts/token/ERC721/ERC721.sol\":15093:15162  auth != address(0) && owner != auth && !isApprovedForAll(owner, auth) */\n    tag_337:\n        /* \"@openzeppelin/contracts/token/ERC721/ERC721.sol\":15089:15231  if (auth != address(0) && owner != auth && !isApprovedForAll(owner, auth)) {... */\n      iszero\n      tag_339\n      jumpi\n        /* \"@openzeppelin/contracts/token/ERC721/ERC721.sol\":15211:15215  auth */\n      dup3\n        /* \"@openzeppelin/contracts/token/ERC721/ERC721.sol\":15189:15216  ERC721InvalidApprover(auth) */\n      mload(0x40)\n      0xa9fbf51f00000000000000000000000000000000000000000000000000000000\n      dup2\n      mstore\n      0x04\n      add\n      tag_340\n      swap2\n      swap1\n      tag_44\n      jump\t// in\n    tag_340:\n      mload(0x40)\n      dup1\n      swap2\n      sub\n      swap1\n      revert\n        /* \"@openzeppelin/contracts/token/ERC721/ERC721.sol\":15089:15231  if (auth != address(0) && owner != auth && !isApprovedForAll(owner, auth)) {... */\n    tag_339:\n        /* \"@openzeppelin/contracts/token/ERC721/ERC721.sol\":15249:15258  emitEvent */\n      dup2\n        /* \"@openzeppelin/contracts/token/ERC721/ERC721.sol\":15245:15326  if (emitEvent) {... */\n      iszero\n      tag_341\n      jumpi\n        /* \"@openzeppelin/contracts/token/ERC721/ERC721.sol\":15303:15310  tokenId */\n      dup4\n        /* \"@openzeppelin/contracts/token/ERC721/ERC721.sol\":15299:15301  to */\n      dup6\n        /* \"@openzeppelin/contracts/token/ERC721/ERC721.sol\":15283:15311  Approval(owner, to, tokenId) */\n      0xffffffffffffffffffffffffffffffffffffffff\n      and\n        /* \"@openzeppelin/contracts/token/ERC721/ERC721.sol\":15292:15297  owner */\n      dup3\n        /* \"@openzeppelin/contracts/token/ERC721/ERC721.sol\":15283:15311  Approval(owner, to, tokenId) */\n      0xffffffffffffffffffffffffffffffffffffffff\n      and\n      0x8c5be1e5ebec7d5bd14f71427d1e84f3dd0314c0f7b2291e5b200ac8c7c3b925\n      mload(0x40)\n      mload(0x40)\n      dup1\n      swap2\n      sub\n      swap1\n      log4\n        /* \"@openzeppelin/contracts/token/ERC721/ERC721.sol\":15245:15326  if (emitEvent) {... */\n    tag_341:\n        /* \"@openzeppelin/contracts/token/ERC721/ERC721.sol\":14913:15336  {... */\n      pop\n        /* \"@openzeppelin/contracts/token/ERC721/ERC721.sol\":14876:15336  if (emitEvent || auth != address(0)) {... */\n    tag_334:\n        /* \"@openzeppelin/contracts/token/ERC721/ERC721.sol\":15373:15375  to */\n      dup4\n        /* \"@openzeppelin/contracts/token/ERC721/ERC721.sol\":15346:15361  _tokenApprovals */\n      0x04\n        /* \"@openzeppelin/contracts/token/ERC721/ERC721.sol\":15346:15370  _tokenApprovals[tokenId] */\n      0x00\n        /* \"@openzeppelin/contracts/token/ERC721/ERC721.sol\":15362:15369  tokenId */\n      dup6\n        /* \"@openzeppelin/contracts/token/ERC721/ERC721.sol\":15346:15370  _tokenApprovals[tokenId] */\n      dup2\n      mstore\n      0x20\n      add\n      swap1\n      dup2\n      mstore\n      0x20\n      add\n      0x00\n      keccak256\n      0x00\n        /* \"@openzeppelin/contracts/token/ERC721/ERC721.sol\":15346:15375  _tokenApprovals[tokenId] = to */\n      0x0100\n      exp\n      dup2\n      sload\n      dup2\n      0xffffffffffffffffffffffffffffffffffffffff\n      mul\n      not\n      and\n      swap1\n      dup4\n      0xffffffffffffffffffffffffffffffffffffffff\n      and\n      mul\n      or\n      swap1\n      sstore\n      pop\n        /* \"@openzeppelin/contracts/token/ERC721/ERC721.sol\":14720:15382  function _approve(address to, uint256 tokenId, address auth, bool emitEvent) internal virtual {... */\n      pop\n      pop\n      pop\n      pop\n      jump\t// out\n        /* \"@openzeppelin/contracts/token/ERC721/ERC721.sol\":7082:7450  function _checkAuthorized(address owner, address spender, uint256 tokenId) internal view virtual {... */\n    tag_261:\n        /* \"@openzeppelin/contracts/token/ERC721/ERC721.sol\":7194:7232  _isAuthorized(owner, spender, tokenId) */\n      tag_343\n        /* \"@openzeppelin/contracts/token/ERC721/ERC721.sol\":7208:7213  owner */\n      dup4\n        /* \"@openzeppelin/contracts/token/ERC721/ERC721.sol\":7215:7222  spender */\n      dup4\n        /* \"@openzeppelin/contracts/token/ERC721/ERC721.sol\":7224:7231  tokenId */\n      dup4\n        /* \"@openzeppelin/contracts/token/ERC721/ERC721.sol\":7194:7207  _isAuthorized */\n      tag_344\n        /* \"@openzeppelin/contracts/token/ERC721/ERC721.sol\":7194:7232  _isAuthorized(owner, spender, tokenId) */\n      jump\t// in\n    tag_343:\n        /* \"@openzeppelin/contracts/token/ERC721/ERC721.sol\":7189:7444  if (!_isAuthorized(owner, spender, tokenId)) {... */\n      tag_345\n      jumpi\n        /* \"@openzeppelin/contracts/token/ERC721/ERC721.sol\":7269:7270  0 */\n      0x00\n        /* \"@openzeppelin/contracts/token/ERC721/ERC721.sol\":7252:7271  owner == address(0) */\n      0xffffffffffffffffffffffffffffffffffffffff\n      and\n        /* \"@openzeppelin/contracts/token/ERC721/ERC721.sol\":7252:7257  owner */\n      dup4\n        /* \"@openzeppelin/contracts/token/ERC721/ERC721.sol\":7252:7271  owner == address(0) */\n      0xffffffffffffffffffffffffffffffffffffffff\n      and\n      sub\n        /* \"@openzeppelin/contracts/token/ERC721/ERC721.sol\":7248:7434  if (owner == address(0)) {... */\n      tag_346\n      jumpi\n        /* \"@openzeppelin/contracts/token/ERC721/ERC721.sol\":7321:7328  tokenId */\n      dup1\n        /* \"@openzeppelin/contracts/token/ERC721/ERC721.sol\":7298:7329  ERC721NonexistentToken(tokenId) */\n      mload(0x40)\n      0x7e27328900000000000000000000000000000000000000000000000000000000\n      dup2\n      mstore\n      0x04\n      add\n      tag_347\n      swap2\n      swap1\n      tag_86\n      jump\t// in\n    tag_347:\n      mload(0x40)\n      dup1\n      swap2\n      sub\n      swap1\n      revert\n        /* \"@openzeppelin/contracts/token/ERC721/ERC721.sol\":7248:7434  if (owner == address(0)) {... */\n    tag_346:\n        /* \"@openzeppelin/contracts/token/ERC721/ERC721.sol\":7402:7409  spender */\n      dup2\n        /* \"@openzeppelin/contracts/token/ERC721/ERC721.sol\":7411:7418  tokenId */\n      dup2\n        /* \"@openzeppelin/contracts/token/ERC721/ERC721.sol\":7375:7419  ERC721InsufficientApproval(spender, tokenId) */\n      mload(0x40)\n      0x177e802f00000000000000000000000000000000000000000000000000000000\n      dup2\n      mstore\n      0x04\n      add\n      tag_349\n      swap3\n      swap2\n      swap1\n      tag_60\n      jump\t// in\n    tag_349:\n      mload(0x40)\n      dup1\n      swap2\n      sub\n      swap1\n      revert\n        /* \"@openzeppelin/contracts/token/ERC721/ERC721.sol\":7189:7444  if (!_isAuthorized(owner, spender, tokenId)) {... */\n    tag_345:\n        /* \"@openzeppelin/contracts/token/ERC721/ERC721.sol\":7082:7450  function _checkAuthorized(address owner, address spender, uint256 tokenId) internal view virtual {... */\n      pop\n      pop\n      pop\n      jump\t// out\n        /* \"@openzeppelin/contracts/utils/math/Math.sol\":12214:13130  function log10(uint256 value) internal pure returns (uint256) {... */\n    tag_309:\n        /* \"@openzeppelin/contracts/utils/math/Math.sol\":12267:12274  uint256 */\n      0x00\n        /* \"@openzeppelin/contracts/utils/math/Math.sol\":12286:12300  uint256 result */\n      dup1\n        /* \"@openzeppelin/contracts/utils/math/Math.sol\":12303:12304  0 */\n      0x00\n        /* \"@openzeppelin/contracts/utils/math/Math.sol\":12286:12304  uint256 result = 0 */\n      swap1\n      pop\n        /* \"@openzeppelin/contracts/utils/math/Math.sol\":12351:12359  10 ** 64 */\n      0x184f03e93ff9f4daa797ed6e38ed64bf6a1f010000000000000000\n        /* \"@openzeppelin/contracts/utils/math/Math.sol\":12342:12347  value */\n      dup4\n        /* \"@openzeppelin/contracts/utils/math/Math.sol\":12342:12359  value >= 10 ** 64 */\n      lt\n        /* \"@openzeppelin/contracts/utils/math/Math.sol\":12338:12441  if (value >= 10 ** 64) {... */\n      tag_351\n      jumpi\n        /* \"@openzeppelin/contracts/utils/math/Math.sol\":12388:12396  10 ** 64 */\n      0x184f03e93ff9f4daa797ed6e38ed64bf6a1f010000000000000000\n        /* \"@openzeppelin/contracts/utils/math/Math.sol\":12379:12396  value /= 10 ** 64 */\n      dup4\n      dup2\n      tag_352\n      jumpi\n      tag_353\n      tag_318\n      jump\t// in\n    tag_353:\n    tag_352:\n      div\n      swap3\n      pop\n        /* \"@openzeppelin/contracts/utils/math/Math.sol\":12424:12426  64 */\n      0x40\n        /* \"@openzeppelin/contracts/utils/math/Math.sol\":12414:12426  result += 64 */\n      dup2\n      add\n      swap1\n      pop\n        /* \"@openzeppelin/contracts/utils/math/Math.sol\":12338:12441  if (value >= 10 ** 64) {... */\n    tag_351:\n        /* \"@openzeppelin/contracts/utils/math/Math.sol\":12467:12475  10 ** 32 */\n      0x04ee2d6d415b85acef8100000000\n        /* \"@openzeppelin/contracts/utils/math/Math.sol\":12458:12463  value */\n      dup4\n        /* \"@openzeppelin/contracts/utils/math/Math.sol\":12458:12475  value >= 10 ** 32 */\n      lt\n        /* \"@openzeppelin/contracts/utils/math/Math.sol\":12454:12557  if (value >= 10 ** 32) {... */\n      tag_354\n      jumpi\n        /* \"@openzeppelin/contracts/utils/math/Math.sol\":12504:12512  10 ** 32 */\n      0x04ee2d6d415b85acef8100000000\n        /* \"@openzeppelin/contracts/utils/math/Math.sol\":12495:12512  value /= 10 ** 32 */\n      dup4\n      dup2\n      tag_355\n      jumpi\n      tag_356\n      tag_318\n      jump\t// in\n    tag_356:\n    tag_355:\n      div\n      swap3\n      pop\n        /* \"@openzeppelin/contracts/utils/math/Math.sol\":12540:12542  32 */\n      0x20\n        /* \"@openzeppelin/contracts/utils/math/Math.sol\":12530:12542  result += 32 */\n      dup2\n      add\n      swap1\n      pop\n        /* \"@openzeppelin/contracts/utils/math/Math.sol\":12454:12557  if (value >= 10 ** 32) {... */\n    tag_354:\n        /* \"@openzeppelin/contracts/utils/math/Math.sol\":12583:12591  10 ** 16 */\n      0x2386f26fc10000\n        /* \"@openzeppelin/contracts/utils/math/Math.sol\":12574:12579  value */\n      dup4\n        /* \"@openzeppelin/contracts/utils/math/Math.sol\":12574:12591  value >= 10 ** 16 */\n      lt\n        /* \"@openzeppelin/contracts/utils/math/Math.sol\":12570:12673  if (value >= 10 ** 16) {... */\n      tag_357\n      jumpi\n        /* \"@openzeppelin/contracts/utils/math/Math.sol\":12620:12628  10 ** 16 */\n      0x2386f26fc10000\n        /* \"@openzeppelin/contracts/utils/math/Math.sol\":12611:12628  value /= 10 ** 16 */\n      dup4\n      dup2\n      tag_358\n      jumpi\n      tag_359\n      tag_318\n      jump\t// in\n    tag_359:\n    tag_358:\n      div\n      swap3\n      pop\n        /* \"@openzeppelin/contracts/utils/math/Math.sol\":12656:12658  16 */\n      0x10\n        /* \"@openzeppelin/contracts/utils/math/Math.sol\":12646:12658  result += 16 */\n      dup2\n      add\n      swap1\n      pop\n        /* \"@openzeppelin/contracts/utils/math/Math.sol\":12570:12673  if (value >= 10 ** 16) {... */\n    tag_357:\n        /* \"@openzeppelin/contracts/utils/math/Math.sol\":12699:12706  10 ** 8 */\n      0x05f5e100\n        /* \"@openzeppelin/contracts/utils/math/Math.sol\":12690:12695  value */\n      dup4\n        /* \"@openzeppelin/contracts/utils/math/Math.sol\":12690:12706  value >= 10 ** 8 */\n      lt\n        /* \"@openzeppelin/contracts/utils/math/Math.sol\":12686:12786  if (value >= 10 ** 8) {... */\n      tag_360\n      jumpi\n        /* \"@openzeppelin/contracts/utils/math/Math.sol\":12735:12742  10 ** 8 */\n      0x05f5e100\n        /* \"@openzeppelin/contracts/utils/math/Math.sol\":12726:12742  value /= 10 ** 8 */\n      dup4\n      dup2\n      tag_361\n      jumpi\n      tag_362\n      tag_318\n      jump\t// in\n    tag_362:\n    tag_361:\n      div\n      swap3\n      pop\n        /* \"@openzeppelin/contracts/utils/math/Math.sol\":12770:12771  8 */\n      0x08\n        /* \"@openzeppelin/contracts/utils/math/Math.sol\":12760:12771  result += 8 */\n      dup2\n      add\n      swap1\n      pop\n        /* \"@openzeppelin/contracts/utils/math/Math.sol\":12686:12786  if (value >= 10 ** 8) {... */\n    tag_360:\n        /* \"@openzeppelin/contracts/utils/math/Math.sol\":12812:12819  10 ** 4 */\n      0x2710\n        /* \"@openzeppelin/contracts/utils/math/Math.sol\":12803:12808  value */\n      dup4\n        /* \"@openzeppelin/contracts/utils/math/Math.sol\":12803:12819  value >= 10 ** 4 */\n      lt\n        /* \"@openzeppelin/contracts/utils/math/Math.sol\":12799:12899  if (value >= 10 ** 4) {... */\n      tag_363\n      jumpi\n        /* \"@openzeppelin/contracts/utils/math/Math.sol\":12848:12855  10 ** 4 */\n      0x2710\n        /* \"@openzeppelin/contracts/utils/math/Math.sol\":12839:12855  value /= 10 ** 4 */\n      dup4\n      dup2\n      tag_364\n      jumpi\n      tag_365\n      tag_318\n      jump\t// in\n    tag_365:\n    tag_364:\n      div\n      swap3\n      pop\n        /* \"@openzeppelin/contracts/utils/math/Math.sol\":12883:12884  4 */\n      0x04\n        /* \"@openzeppelin/contracts/utils/math/Math.sol\":12873:12884  result += 4 */\n      dup2\n      add\n      swap1\n      pop\n        /* \"@openzeppelin/contracts/utils/math/Math.sol\":12799:12899  if (value >= 10 ** 4) {... */\n    tag_363:\n        /* \"@openzeppelin/contracts/utils/math/Math.sol\":12925:12932  10 ** 2 */\n      0x64\n        /* \"@openzeppelin/contracts/utils/math/Math.sol\":12916:12921  value */\n      dup4\n        /* \"@openzeppelin/contracts/utils/math/Math.sol\":12916:12932  value >= 10 ** 2 */\n      lt\n        /* \"@openzeppelin/contracts/utils/math/Math.sol\":12912:13012  if (value >= 10 ** 2) {... */\n      tag_366\n      jumpi\n        /* \"@openzeppelin/contracts/utils/math/Math.sol\":12961:12968  10 ** 2 */\n      0x64\n        /* \"@openzeppelin/contracts/utils/math/Math.sol\":12952:12968  value /= 10 ** 2 */\n      dup4\n      dup2\n      tag_367\n      jumpi\n      tag_368\n      tag_318\n      jump\t// in\n    tag_368:\n    tag_367:\n      div\n      swap3\n      pop\n        /* \"@openzeppelin/contracts/utils/math/Math.sol\":12996:12997  2 */\n      0x02\n        /* \"@openzeppelin/contracts/utils/math/Math.sol\":12986:12997  result += 2 */\n      dup2\n      add\n      swap1\n      pop\n        /* \"@openzeppelin/contracts/utils/math/Math.sol\":12912:13012  if (value >= 10 ** 2) {... */\n    tag_366:\n        /* \"@openzeppelin/contracts/utils/math/Math.sol\":13038:13045  10 ** 1 */\n      0x0a\n        /* \"@openzeppelin/contracts/utils/math/Math.sol\":13029:13034  value */\n      dup4\n        /* \"@openzeppelin/contracts/utils/math/Math.sol\":13029:13045  value >= 10 ** 1 */\n      lt\n        /* \"@openzeppelin/contracts/utils/math/Math.sol\":13025:13091  if (value >= 10 ** 1) {... */\n      tag_369\n      jumpi\n        /* \"@openzeppelin/contracts/utils/math/Math.sol\":13075:13076  1 */\n      0x01\n        /* \"@openzeppelin/contracts/utils/math/Math.sol\":13065:13076  result += 1 */\n      dup2\n      add\n      swap1\n      pop\n        /* \"@openzeppelin/contracts/utils/math/Math.sol\":13025:13091  if (value >= 10 ** 1) {... */\n    tag_369:\n        /* \"@openzeppelin/contracts/utils/math/Math.sol\":13117:13123  result */\n      dup1\n        /* \"@openzeppelin/contracts/utils/math/Math.sol\":13110:13123  return result */\n      swap2\n      pop\n      pop\n        /* \"@openzeppelin/contracts/utils/math/Math.sol\":12214:13130  function log10(uint256 value) internal pure returns (uint256) {... */\n      swap2\n      swap1\n      pop\n      jump\t// out\n        /* \"@openzeppelin/contracts/token/ERC721/ERC721.sol\":6376:6648  function _isAuthorized(address owner, address spender, uint256 tokenId) internal view virtual returns (bool) {... */\n    tag_344:\n        /* \"@openzeppelin/contracts/token/ERC721/ERC721.sol\":6479:6483  bool */\n      0x00\n        /* \"@openzeppelin/contracts/token/ERC721/ERC721.sol\":6533:6534  0 */\n      dup1\n        /* \"@openzeppelin/contracts/token/ERC721/ERC721.sol\":6514:6535  spender != address(0) */\n      0xffffffffffffffffffffffffffffffffffffffff\n      and\n        /* \"@openzeppelin/contracts/token/ERC721/ERC721.sol\":6514:6521  spender */\n      dup4\n        /* \"@openzeppelin/contracts/token/ERC721/ERC721.sol\":6514:6535  spender != address(0) */\n      0xffffffffffffffffffffffffffffffffffffffff\n      and\n      eq\n      iszero\n        /* \"@openzeppelin/contracts/token/ERC721/ERC721.sol\":6514:6641  spender != address(0) &&... */\n      dup1\n      iszero\n      tag_371\n      jumpi\n      pop\n        /* \"@openzeppelin/contracts/token/ERC721/ERC721.sol\":6561:6568  spender */\n      dup3\n        /* \"@openzeppelin/contracts/token/ERC721/ERC721.sol\":6552:6568  owner == spender */\n      0xffffffffffffffffffffffffffffffffffffffff\n      and\n        /* \"@openzeppelin/contracts/token/ERC721/ERC721.sol\":6552:6557  owner */\n      dup5\n        /* \"@openzeppelin/contracts/token/ERC721/ERC721.sol\":6552:6568  owner == spender */\n      0xffffffffffffffffffffffffffffffffffffffff\n      and\n      eq\n        /* \"@openzeppelin/contracts/token/ERC721/ERC721.sol\":6552:6604  owner == spender || isApprovedForAll(owner, spender) */\n      dup1\n      tag_372\n      jumpi\n      pop\n        /* \"@openzeppelin/contracts/token/ERC721/ERC721.sol\":6572:6604  isApprovedForAll(owner, spender) */\n      tag_373\n        /* \"@openzeppelin/contracts/token/ERC721/ERC721.sol\":6589:6594  owner */\n      dup5\n        /* \"@openzeppelin/contracts/token/ERC721/ERC721.sol\":6596:6603  spender */\n      dup5\n        /* \"@openzeppelin/contracts/token/ERC721/ERC721.sol\":6572:6588  isApprovedForAll */\n      tag_121\n        /* \"@openzeppelin/contracts/token/ERC721/ERC721.sol\":6572:6604  isApprovedForAll(owner, spender) */\n      jump\t// in\n    tag_373:\n        /* \"@openzeppelin/contracts/token/ERC721/ERC721.sol\":6552:6604  owner == spender || isApprovedForAll(owner, spender) */\n    tag_372:\n        /* \"@openzeppelin/contracts/token/ERC721/ERC721.sol\":6552:6640  owner == spender || isApprovedForAll(owner, spender) || _getApproved(tokenId) == spender */\n      dup1\n      tag_374\n      jumpi\n      pop\n        /* \"@openzeppelin/contracts/token/ERC721/ERC721.sol\":6633:6640  spender */\n      dup3\n        /* \"@openzeppelin/contracts/token/ERC721/ERC721.sol\":6608:6640  _getApproved(tokenId) == spender */\n      0xffffffffffffffffffffffffffffffffffffffff\n      and\n        /* \"@openzeppelin/contracts/token/ERC721/ERC721.sol\":6608:6629  _getApproved(tokenId) */\n      tag_375\n        /* \"@openzeppelin/contracts/token/ERC721/ERC721.sol\":6621:6628  tokenId */\n      dup4\n        /* \"@openzeppelin/contracts/token/ERC721/ERC721.sol\":6608:6620  _getApproved */\n      tag_146\n        /* \"@openzeppelin/contracts/token/ERC721/ERC721.sol\":6608:6629  _getApproved(tokenId) */\n      jump\t// in\n    tag_375:\n        /* \"@openzeppelin/contracts/token/ERC721/ERC721.sol\":6608:6640  _getApproved(tokenId) == spender */\n      0xffffffffffffffffffffffffffffffffffffffff\n      and\n      eq\n        /* \"@openzeppelin/contracts/token/ERC721/ERC721.sol\":6552:6640  owner == spender || isApprovedForAll(owner, spender) || _getApproved(tokenId) == spender */\n    tag_374:\n        /* \"@openzeppelin/contracts/token/ERC721/ERC721.sol\":6514:6641  spender != address(0) &&... */\n    tag_371:\n        /* \"@openzeppelin/contracts/token/ERC721/ERC721.sol\":6495:6641  return... */\n      swap1\n      pop\n        /* \"@openzeppelin/contracts/token/ERC721/ERC721.sol\":6376:6648  function _isAuthorized(address owner, address spender, uint256 tokenId) internal view virtual returns (bool) {... */\n      swap4\n      swap3\n      pop\n      pop\n      pop\n      jump\t// out\n        /* \"#utility.yul\":7:82   */\n    tag_376:\n        /* \"#utility.yul\":40:46   */\n      0x00\n        /* \"#utility.yul\":73:75   */\n      0x40\n        /* \"#utility.yul\":67:76   */\n      mload\n        /* \"#utility.yul\":57:76   */\n      swap1\n      pop\n        /* \"#utility.yul\":7:82   */\n      swap1\n      jump\t// out\n        /* \"#utility.yul\":88:205   */\n    tag_377:\n        /* \"#utility.yul\":197:198   */\n      0x00\n        /* \"#utility.yul\":194:195   */\n      dup1\n        /* \"#utility.yul\":187:199   */\n      revert\n        /* \"#utility.yul\":211:328   */\n    tag_378:\n        /* \"#utility.yul\":320:321   */\n      0x00\n        /* \"#utility.yul\":317:318   */\n      dup1\n        /* \"#utility.yul\":310:322   */\n      revert\n        /* \"#utility.yul\":334:483   */\n    tag_379:\n        /* \"#utility.yul\":370:377   */\n      0x00\n        /* \"#utility.yul\":410:476   */\n      0xffffffff00000000000000000000000000000000000000000000000000000000\n        /* \"#utility.yul\":403:408   */\n      dup3\n        /* \"#utility.yul\":399:477   */\n      and\n        /* \"#utility.yul\":388:477   */\n      swap1\n      pop\n        /* \"#utility.yul\":334:483   */\n      swap2\n      swap1\n      pop\n      jump\t// out\n        /* \"#utility.yul\":489:609   */\n    tag_380:\n        /* \"#utility.yul\":561:584   */\n      tag_446\n        /* \"#utility.yul\":578:583   */\n      dup2\n        /* \"#utility.yul\":561:584   */\n      tag_379\n      jump\t// in\n    tag_446:\n        /* \"#utility.yul\":554:559   */\n      dup2\n        /* \"#utility.yul\":551:585   */\n      eq\n        /* \"#utility.yul\":541:603   */\n      tag_447\n      jumpi\n        /* \"#utility.yul\":599:600   */\n      0x00\n        /* \"#utility.yul\":596:597   */\n      dup1\n        /* \"#utility.yul\":589:601   */\n      revert\n        /* \"#utility.yul\":541:603   */\n    tag_447:\n        /* \"#utility.yul\":489:609   */\n      pop\n      jump\t// out\n        /* \"#utility.yul\":615:752   */\n    tag_381:\n        /* \"#utility.yul\":660:665   */\n      0x00\n        /* \"#utility.yul\":698:704   */\n      dup2\n        /* \"#utility.yul\":685:705   */\n      calldataload\n        /* \"#utility.yul\":676:705   */\n      swap1\n      pop\n        /* \"#utility.yul\":714:746   */\n      tag_449\n        /* \"#utility.yul\":740:745   */\n      dup2\n        /* \"#utility.yul\":714:746   */\n      tag_380\n      jump\t// in\n    tag_449:\n        /* \"#utility.yul\":615:752   */\n      swap3\n      swap2\n      pop\n      pop\n      jump\t// out\n        /* \"#utility.yul\":758:1085   */\n    tag_29:\n        /* \"#utility.yul\":816:822   */\n      0x00\n        /* \"#utility.yul\":865:867   */\n      0x20\n        /* \"#utility.yul\":853:862   */\n      dup3\n        /* \"#utility.yul\":844:851   */\n      dup5\n        /* \"#utility.yul\":840:863   */\n      sub\n        /* \"#utility.yul\":836:868   */\n      slt\n        /* \"#utility.yul\":833:952   */\n      iszero\n      tag_451\n      jumpi\n        /* \"#utility.yul\":871:950   */\n      tag_452\n      tag_377\n      jump\t// in\n    tag_452:\n        /* \"#utility.yul\":833:952   */\n    tag_451:\n        /* \"#utility.yul\":991:992   */\n      0x00\n        /* \"#utility.yul\":1016:1068   */\n      tag_453\n        /* \"#utility.yul\":1060:1067   */\n      dup5\n        /* \"#utility.yul\":1051:1057   */\n      dup3\n        /* \"#utility.yul\":1040:1049   */\n      dup6\n        /* \"#utility.yul\":1036:1058   */\n      add\n        /* \"#utility.yul\":1016:1068   */\n      tag_381\n      jump\t// in\n    tag_453:\n        /* \"#utility.yul\":1006:1068   */\n      swap2\n      pop\n        /* \"#utility.yul\":962:1078   */\n      pop\n        /* \"#utility.yul\":758:1085   */\n      swap3\n      swap2\n      pop\n      pop\n      jump\t// out\n        /* \"#utility.yul\":1091:1181   */\n    tag_382:\n        /* \"#utility.yul\":1125:1132   */\n      0x00\n        /* \"#utility.yul\":1168:1173   */\n      dup2\n        /* \"#utility.yul\":1161:1174   */\n      iszero\n        /* \"#utility.yul\":1154:1175   */\n      iszero\n        /* \"#utility.yul\":1143:1175   */\n      swap1\n      pop\n        /* \"#utility.yul\":1091:1181   */\n      swap2\n      swap1\n      pop\n      jump\t// out\n        /* \"#utility.yul\":1187:1296   */\n    tag_383:\n        /* \"#utility.yul\":1268:1289   */\n      tag_456\n        /* \"#utility.yul\":1283:1288   */\n      dup2\n        /* \"#utility.yul\":1268:1289   */\n      tag_382\n      jump\t// in\n    tag_456:\n        /* \"#utility.yul\":1263:1266   */\n      dup3\n        /* \"#utility.yul\":1256:1290   */\n      mstore\n        /* \"#utility.yul\":1187:1296   */\n      pop\n      pop\n      jump\t// out\n        /* \"#utility.yul\":1302:1512   */\n    tag_32:\n        /* \"#utility.yul\":1389:1393   */\n      0x00\n        /* \"#utility.yul\":1427:1429   */\n      0x20\n        /* \"#utility.yul\":1416:1425   */\n      dup3\n        /* \"#utility.yul\":1412:1430   */\n      add\n        /* \"#utility.yul\":1404:1430   */\n      swap1\n      pop\n        /* \"#utility.yul\":1440:1505   */\n      tag_458\n        /* \"#utility.yul\":1502:1503   */\n      0x00\n        /* \"#utility.yul\":1491:1500   */\n      dup4\n        /* \"#utility.yul\":1487:1504   */\n      add\n        /* \"#utility.yul\":1478:1484   */\n      dup5\n        /* \"#utility.yul\":1440:1505   */\n      tag_383\n      jump\t// in\n    tag_458:\n        /* \"#utility.yul\":1302:1512   */\n      swap3\n      swap2\n      pop\n      pop\n      jump\t// out\n        /* \"#utility.yul\":1518:1617   */\n    tag_384:\n        /* \"#utility.yul\":1570:1576   */\n      0x00\n        /* \"#utility.yul\":1604:1609   */\n      dup2\n        /* \"#utility.yul\":1598:1610   */\n      mload\n        /* \"#utility.yul\":1588:1610   */\n      swap1\n      pop\n        /* \"#utility.yul\":1518:1617   */\n      swap2\n      swap1\n      pop\n      jump\t// out\n        /* \"#utility.yul\":1623:1792   */\n    tag_385:\n        /* \"#utility.yul\":1707:1718   */\n      0x00\n        /* \"#utility.yul\":1741:1747   */\n      dup3\n        /* \"#utility.yul\":1736:1739   */\n      dup3\n        /* \"#utility.yul\":1729:1748   */\n      mstore\n        /* \"#utility.yul\":1781:1785   */\n      0x20\n        /* \"#utility.yul\":1776:1779   */\n      dup3\n        /* \"#utility.yul\":1772:1786   */\n      add\n        /* \"#utility.yul\":1757:1786   */\n      swap1\n      pop\n        /* \"#utility.yul\":1623:1792   */\n      swap3\n      swap2\n      pop\n      pop\n      jump\t// out\n        /* \"#utility.yul\":1798:2044   */\n    tag_386:\n        /* \"#utility.yul\":1879:1880   */\n      0x00\n        /* \"#utility.yul\":1889:2002   */\n    tag_462:\n        /* \"#utility.yul\":1903:1909   */\n      dup4\n        /* \"#utility.yul\":1900:1901   */\n      dup2\n        /* \"#utility.yul\":1897:1910   */\n      lt\n        /* \"#utility.yul\":1889:2002   */\n      iszero\n      tag_464\n      jumpi\n        /* \"#utility.yul\":1988:1989   */\n      dup1\n        /* \"#utility.yul\":1983:1986   */\n      dup3\n        /* \"#utility.yul\":1979:1990   */\n      add\n        /* \"#utility.yul\":1973:1991   */\n      mload\n        /* \"#utility.yul\":1969:1970   */\n      dup2\n        /* \"#utility.yul\":1964:1967   */\n      dup5\n        /* \"#utility.yul\":1960:1971   */\n      add\n        /* \"#utility.yul\":1953:1992   */\n      mstore\n        /* \"#utility.yul\":1925:1927   */\n      0x20\n        /* \"#utility.yul\":1922:1923   */\n      dup2\n        /* \"#utility.yul\":1918:1928   */\n      add\n        /* \"#utility.yul\":1913:1928   */\n      swap1\n      pop\n        /* \"#utility.yul\":1889:2002   */\n      jump(tag_462)\n    tag_464:\n        /* \"#utility.yul\":2036:2037   */\n      0x00\n        /* \"#utility.yul\":2027:2033   */\n      dup5\n        /* \"#utility.yul\":2022:2025   */\n      dup5\n        /* \"#utility.yul\":2018:2034   */\n      add\n        /* \"#utility.yul\":2011:2038   */\n      mstore\n        /* \"#utility.yul\":1860:2044   */\n      pop\n        /* \"#utility.yul\":1798:2044   */\n      pop\n      pop\n      pop\n      jump\t// out\n        /* \"#utility.yul\":2050:2152   */\n    tag_387:\n        /* \"#utility.yul\":2091:2097   */\n      0x00\n        /* \"#utility.yul\":2142:2144   */\n      0x1f\n        /* \"#utility.yul\":2138:2145   */\n      not\n        /* \"#utility.yul\":2133:2135   */\n      0x1f\n        /* \"#utility.yul\":2126:2131   */\n      dup4\n        /* \"#utility.yul\":2122:2136   */\n      add\n        /* \"#utility.yul\":2118:2146   */\n      and\n        /* \"#utility.yul\":2108:2146   */\n      swap1\n      pop\n        /* \"#utility.yul\":2050:2152   */\n      swap2\n      swap1\n      pop\n      jump\t// out\n        /* \"#utility.yul\":2158:2535   */\n    tag_388:\n        /* \"#utility.yul\":2246:2249   */\n      0x00\n        /* \"#utility.yul\":2274:2313   */\n      tag_467\n        /* \"#utility.yul\":2307:2312   */\n      dup3\n        /* \"#utility.yul\":2274:2313   */\n      tag_384\n      jump\t// in\n    tag_467:\n        /* \"#utility.yul\":2329:2400   */\n      tag_468\n        /* \"#utility.yul\":2393:2399   */\n      dup2\n        /* \"#utility.yul\":2388:2391   */\n      dup6\n        /* \"#utility.yul\":2329:2400   */\n      tag_385\n      jump\t// in\n    tag_468:\n        /* \"#utility.yul\":2322:2400   */\n      swap4\n      pop\n        /* \"#utility.yul\":2409:2474   */\n      tag_469\n        /* \"#utility.yul\":2467:2473   */\n      dup2\n        /* \"#utility.yul\":2462:2465   */\n      dup6\n        /* \"#utility.yul\":2455:2459   */\n      0x20\n        /* \"#utility.yul\":2448:2453   */\n      dup7\n        /* \"#utility.yul\":2444:2460   */\n      add\n        /* \"#utility.yul\":2409:2474   */\n      tag_386\n      jump\t// in\n    tag_469:\n        /* \"#utility.yul\":2499:2528   */\n      tag_470\n        /* \"#utility.yul\":2521:2527   */\n      dup2\n        /* \"#utility.yul\":2499:2528   */\n      tag_387\n      jump\t// in\n    tag_470:\n        /* \"#utility.yul\":2494:2497   */\n      dup5\n        /* \"#utility.yul\":2490:2529   */\n      add\n        /* \"#utility.yul\":2483:2529   */\n      swap2\n      pop\n        /* \"#utility.yul\":2250:2535   */\n      pop\n        /* \"#utility.yul\":2158:2535   */\n      swap3\n      swap2\n      pop\n      pop\n      jump\t// out\n        /* \"#utility.yul\":2541:2854   */\n    tag_37:\n        /* \"#utility.yul\":2654:2658   */\n      0x00\n        /* \"#utility.yul\":2692:2694   */\n      0x20\n        /* \"#utility.yul\":2681:2690   */\n      dup3\n        /* \"#utility.yul\":2677:2695   */\n      add\n        /* \"#utility.yul\":2669:2695   */\n      swap1\n      pop\n        /* \"#utility.yul\":2741:2750   */\n      dup2\n        /* \"#utility.yul\":2735:2739   */\n      dup2\n        /* \"#utility.yul\":2731:2751   */\n      sub\n        /* \"#utility.yul\":2727:2728   */\n      0x00\n        /* \"#utility.yul\":2716:2725   */\n      dup4\n        /* \"#utility.yul\":2712:2729   */\n      add\n        /* \"#utility.yul\":2705:2752   */\n      mstore\n        /* \"#utility.yul\":2769:2847   */\n      tag_472\n        /* \"#utility.yul\":2842:2846   */\n      dup2\n        /* \"#utility.yul\":2833:2839   */\n      dup5\n        /* \"#utility.yul\":2769:2847   */\n      tag_388\n      jump\t// in\n    tag_472:\n        /* \"#utility.yul\":2761:2847   */\n      swap1\n      pop\n        /* \"#utility.yul\":2541:2854   */\n      swap3\n      swap2\n      pop\n      pop\n      jump\t// out\n        /* \"#utility.yul\":2860:2937   */\n    tag_389:\n        /* \"#utility.yul\":2897:2904   */\n      0x00\n        /* \"#utility.yul\":2926:2931   */\n      dup2\n        /* \"#utility.yul\":2915:2931   */\n      swap1\n      pop\n        /* \"#utility.yul\":2860:2937   */\n      swap2\n      swap1\n      pop\n      jump\t// out\n        /* \"#utility.yul\":2943:3065   */\n    tag_390:\n        /* \"#utility.yul\":3016:3040   */\n      tag_475\n        /* \"#utility.yul\":3034:3039   */\n      dup2\n        /* \"#utility.yul\":3016:3040   */\n      tag_389\n      jump\t// in\n    tag_475:\n        /* \"#utility.yul\":3009:3014   */\n      dup2\n        /* \"#utility.yul\":3006:3041   */\n      eq\n        /* \"#utility.yul\":2996:3059   */\n      tag_476\n      jumpi\n        /* \"#utility.yul\":3055:3056   */\n      0x00\n        /* \"#utility.yul\":3052:3053   */\n      dup1\n        /* \"#utility.yul\":3045:3057   */\n      revert\n        /* \"#utility.yul\":2996:3059   */\n    tag_476:\n        /* \"#utility.yul\":2943:3065   */\n      pop\n      jump\t// out\n        /* \"#utility.yul\":3071:3210   */\n    tag_391:\n        /* \"#utility.yul\":3117:3122   */\n      0x00\n        /* \"#utility.yul\":3155:3161   */\n      dup2\n        /* \"#utility.yul\":3142:3162   */\n      calldataload\n        /* \"#utility.yul\":3133:3162   */\n      swap1\n      pop\n        /* \"#utility.yul\":3171:3204   */\n      tag_478\n        /* \"#utility.yul\":3198:3203   */\n      dup2\n        /* \"#utility.yul\":3171:3204   */\n      tag_390\n      jump\t// in\n    tag_478:\n        /* \"#utility.yul\":3071:3210   */\n      swap3\n      swap2\n      pop\n      pop\n      jump\t// out\n        /* \"#utility.yul\":3216:3545   */\n    tag_41:\n        /* \"#utility.yul\":3275:3281   */\n      0x00\n        /* \"#utility.yul\":3324:3326   */\n      0x20\n        /* \"#utility.yul\":3312:3321   */\n      dup3\n        /* \"#utility.yul\":3303:3310   */\n      dup5\n        /* \"#utility.yul\":3299:3322   */\n      sub\n        /* \"#utility.yul\":3295:3327   */\n      slt\n        /* \"#utility.yul\":3292:3411   */\n      iszero\n      tag_480\n      jumpi\n        /* \"#utility.yul\":3330:3409   */\n      tag_481\n      tag_377\n      jump\t// in\n    tag_481:\n        /* \"#utility.yul\":3292:3411   */\n    tag_480:\n        /* \"#utility.yul\":3450:3451   */\n      0x00\n        /* \"#utility.yul\":3475:3528   */\n      tag_482\n        /* \"#utility.yul\":3520:3527   */\n      dup5\n        /* \"#utility.yul\":3511:3517   */\n      dup3\n        /* \"#utility.yul\":3500:3509   */\n      dup6\n        /* \"#utility.yul\":3496:3518   */\n      add\n        /* \"#utility.yul\":3475:3528   */\n      tag_391\n      jump\t// in\n    tag_482:\n        /* \"#utility.yul\":3465:3528   */\n      swap2\n      pop\n        /* \"#utility.yul\":3421:3538   */\n      pop\n        /* \"#utility.yul\":3216:3545   */\n      swap3\n      swap2\n      pop\n      pop\n      jump\t// out\n        /* \"#utility.yul\":3551:3677   */\n    tag_392:\n        /* \"#utility.yul\":3588:3595   */\n      0x00\n        /* \"#utility.yul\":3628:3670   */\n      0xffffffffffffffffffffffffffffffffffffffff\n        /* \"#utility.yul\":3621:3626   */\n      dup3\n        /* \"#utility.yul\":3617:3671   */\n      and\n        /* \"#utility.yul\":3606:3671   */\n      swap1\n      pop\n        /* \"#utility.yul\":3551:3677   */\n      swap2\n      swap1\n      pop\n      jump\t// out\n        /* \"#utility.yul\":3683:3779   */\n    tag_393:\n        /* \"#utility.yul\":3720:3727   */\n      0x00\n        /* \"#utility.yul\":3749:3773   */\n      tag_485\n        /* \"#utility.yul\":3767:3772   */\n      dup3\n        /* \"#utility.yul\":3749:3773   */\n      tag_392\n      jump\t// in\n    tag_485:\n        /* \"#utility.yul\":3738:3773   */\n      swap1\n      pop\n        /* \"#utility.yul\":3683:3779   */\n      swap2\n      swap1\n      pop\n      jump\t// out\n        /* \"#utility.yul\":3785:3903   */\n    tag_394:\n        /* \"#utility.yul\":3872:3896   */\n      tag_487\n        /* \"#utility.yul\":3890:3895   */\n      dup2\n        /* \"#utility.yul\":3872:3896   */\n      tag_393\n      jump\t// in\n    tag_487:\n        /* \"#utility.yul\":3867:3870   */\n      dup3\n        /* \"#utility.yul\":3860:3897   */\n      mstore\n        /* \"#utility.yul\":3785:3903   */\n      pop\n      pop\n      jump\t// out\n        /* \"#utility.yul\":3909:4131   */\n    tag_44:\n        /* \"#utility.yul\":4002:4006   */\n      0x00\n        /* \"#utility.yul\":4040:4042   */\n      0x20\n        /* \"#utility.yul\":4029:4038   */\n      dup3\n        /* \"#utility.yul\":4025:4043   */\n      add\n        /* \"#utility.yul\":4017:4043   */\n      swap1\n      pop\n        /* \"#utility.yul\":4053:4124   */\n      tag_489\n        /* \"#utility.yul\":4121:4122   */\n      0x00\n        /* \"#utility.yul\":4110:4119   */\n      dup4\n        /* \"#utility.yul\":4106:4123   */\n      add\n        /* \"#utility.yul\":4097:4103   */\n      dup5\n        /* \"#utility.yul\":4053:4124   */\n      tag_394\n      jump\t// in\n    tag_489:\n        /* \"#utility.yul\":3909:4131   */\n      swap3\n      swap2\n      pop\n      pop\n      jump\t// out\n        /* \"#utility.yul\":4137:4259   */\n    tag_395:\n        /* \"#utility.yul\":4210:4234   */\n      tag_491\n        /* \"#utility.yul\":4228:4233   */\n      dup2\n        /* \"#utility.yul\":4210:4234   */\n      tag_393\n      jump\t// in\n    tag_491:\n        /* \"#utility.yul\":4203:4208   */\n      dup2\n        /* \"#utility.yul\":4200:4235   */\n      eq\n        /* \"#utility.yul\":4190:4253   */\n      tag_492\n      jumpi\n        /* \"#utility.yul\":4249:4250   */\n      0x00\n        /* \"#utility.yul\":4246:4247   */\n      dup1\n        /* \"#utility.yul\":4239:4251   */\n      revert\n        /* \"#utility.yul\":4190:4253   */\n    tag_492:\n        /* \"#utility.yul\":4137:4259   */\n      pop\n      jump\t// out\n        /* \"#utility.yul\":4265:4404   */\n    tag_396:\n        /* \"#utility.yul\":4311:4316   */\n      0x00\n        /* \"#utility.yul\":4349:4355   */\n      dup2\n        /* \"#utility.yul\":4336:4356   */\n      calldataload\n        /* \"#utility.yul\":4327:4356   */\n      swap1\n      pop\n        /* \"#utility.yul\":4365:4398   */\n      tag_494\n        /* \"#utility.yul\":4392:4397   */\n      dup2\n        /* \"#utility.yul\":4365:4398   */\n      tag_395\n      jump\t// in\n    tag_494:\n        /* \"#utility.yul\":4265:4404   */\n      swap3\n      swap2\n      pop\n      pop\n      jump\t// out\n        /* \"#utility.yul\":4410:4884   */\n    tag_48:\n        /* \"#utility.yul\":4478:4484   */\n      0x00\n        /* \"#utility.yul\":4486:4492   */\n      dup1\n        /* \"#utility.yul\":4535:4537   */\n      0x40\n        /* \"#utility.yul\":4523:4532   */\n      dup4\n        /* \"#utility.yul\":4514:4521   */\n      dup6\n        /* \"#utility.yul\":4510:4533   */\n      sub\n        /* \"#utility.yul\":4506:4538   */\n      slt\n        /* \"#utility.yul\":4503:4622   */\n      iszero\n      tag_496\n      jumpi\n        /* \"#utility.yul\":4541:4620   */\n      tag_497\n      tag_377\n      jump\t// in\n    tag_497:\n        /* \"#utility.yul\":4503:4622   */\n    tag_496:\n        /* \"#utility.yul\":4661:4662   */\n      0x00\n        /* \"#utility.yul\":4686:4739   */\n      tag_498\n        /* \"#utility.yul\":4731:4738   */\n      dup6\n        /* \"#utility.yul\":4722:4728   */\n      dup3\n        /* \"#utility.yul\":4711:4720   */\n      dup7\n        /* \"#utility.yul\":4707:4729   */\n      add\n        /* \"#utility.yul\":4686:4739   */\n      tag_396\n      jump\t// in\n    tag_498:\n        /* \"#utility.yul\":4676:4739   */\n      swap3\n      pop\n        /* \"#utility.yul\":4632:4749   */\n      pop\n        /* \"#utility.yul\":4788:4790   */\n      0x20\n        /* \"#utility.yul\":4814:4867   */\n      tag_499\n        /* \"#utility.yul\":4859:4866   */\n      dup6\n        /* \"#utility.yul\":4850:4856   */\n      dup3\n        /* \"#utility.yul\":4839:4848   */\n      dup7\n        /* \"#utility.yul\":4835:4857   */\n      add\n        /* \"#utility.yul\":4814:4867   */\n      tag_391\n      jump\t// in\n    tag_499:\n        /* \"#utility.yul\":4804:4867   */\n      swap2\n      pop\n        /* \"#utility.yul\":4759:4877   */\n      pop\n        /* \"#utility.yul\":4410:4884   */\n      swap3\n      pop\n      swap3\n      swap1\n      pop\n      jump\t// out\n        /* \"#utility.yul\":4890:5509   */\n    tag_53:\n        /* \"#utility.yul\":4967:4973   */\n      0x00\n        /* \"#utility.yul\":4975:4981   */\n      dup1\n        /* \"#utility.yul\":4983:4989   */\n      0x00\n        /* \"#utility.yul\":5032:5034   */\n      0x60\n        /* \"#utility.yul\":5020:5029   */\n      dup5\n        /* \"#utility.yul\":5011:5018   */\n      dup7\n        /* \"#utility.yul\":5007:5030   */\n      sub\n        /* \"#utility.yul\":5003:5035   */\n      slt\n        /* \"#utility.yul\":5000:5119   */\n      iszero\n      tag_501\n      jumpi\n        /* \"#utility.yul\":5038:5117   */\n      tag_502\n      tag_377\n      jump\t// in\n    tag_502:\n        /* \"#utility.yul\":5000:5119   */\n    tag_501:\n        /* \"#utility.yul\":5158:5159   */\n      0x00\n        /* \"#utility.yul\":5183:5236   */\n      tag_503\n        /* \"#utility.yul\":5228:5235   */\n      dup7\n        /* \"#utility.yul\":5219:5225   */\n      dup3\n        /* \"#utility.yul\":5208:5217   */\n      dup8\n        /* \"#utility.yul\":5204:5226   */\n      add\n        /* \"#utility.yul\":5183:5236   */\n      tag_396\n      jump\t// in\n    tag_503:\n        /* \"#utility.yul\":5173:5236   */\n      swap4\n      pop\n        /* \"#utility.yul\":5129:5246   */\n      pop\n        /* \"#utility.yul\":5285:5287   */\n      0x20\n        /* \"#utility.yul\":5311:5364   */\n      tag_504\n        /* \"#utility.yul\":5356:5363   */\n      dup7\n        /* \"#utility.yul\":5347:5353   */\n      dup3\n        /* \"#utility.yul\":5336:5345   */\n      dup8\n        /* \"#utility.yul\":5332:5354   */\n      add\n        /* \"#utility.yul\":5311:5364   */\n      tag_396\n      jump\t// in\n    tag_504:\n        /* \"#utility.yul\":5301:5364   */\n      swap3\n      pop\n        /* \"#utility.yul\":5256:5374   */\n      pop\n        /* \"#utility.yul\":5413:5415   */\n      0x40\n        /* \"#utility.yul\":5439:5492   */\n      tag_505\n        /* \"#utility.yul\":5484:5491   */\n      dup7\n        /* \"#utility.yul\":5475:5481   */\n      dup3\n        /* \"#utility.yul\":5464:5473   */\n      dup8\n        /* \"#utility.yul\":5460:5482   */\n      add\n        /* \"#utility.yul\":5439:5492   */\n      tag_391\n      jump\t// in\n    tag_505:\n        /* \"#utility.yul\":5429:5492   */\n      swap2\n      pop\n        /* \"#utility.yul\":5384:5502   */\n      pop\n        /* \"#utility.yul\":4890:5509   */\n      swap3\n      pop\n      swap3\n      pop\n      swap3\n      jump\t// out\n        /* \"#utility.yul\":5515:5633   */\n    tag_397:\n        /* \"#utility.yul\":5602:5626   */\n      tag_507\n        /* \"#utility.yul\":5620:5625   */\n      dup2\n        /* \"#utility.yul\":5602:5626   */\n      tag_389\n      jump\t// in\n    tag_507:\n        /* \"#utility.yul\":5597:5600   */\n      dup3\n        /* \"#utility.yul\":5590:5627   */\n      mstore\n        /* \"#utility.yul\":5515:5633   */\n      pop\n      pop\n      jump\t// out\n        /* \"#utility.yul\":5639:5971   */\n    tag_60:\n        /* \"#utility.yul\":5760:5764   */\n      0x00\n        /* \"#utility.yul\":5798:5800   */\n      0x40\n        /* \"#utility.yul\":5787:5796   */\n      dup3\n        /* \"#utility.yul\":5783:5801   */\n      add\n        /* \"#utility.yul\":5775:5801   */\n      swap1\n      pop\n        /* \"#utility.yul\":5811:5882   */\n      tag_509\n        /* \"#utility.yul\":5879:5880   */\n      0x00\n        /* \"#utility.yul\":5868:5877   */\n      dup4\n        /* \"#utility.yul\":5864:5881   */\n      add\n        /* \"#utility.yul\":5855:5861   */\n      dup6\n        /* \"#utility.yul\":5811:5882   */\n      tag_394\n      jump\t// in\n    tag_509:\n        /* \"#utility.yul\":5892:5964   */\n      tag_510\n        /* \"#utility.yul\":5960:5962   */\n      0x20\n        /* \"#utility.yul\":5949:5958   */\n      dup4\n        /* \"#utility.yul\":5945:5963   */\n      add\n        /* \"#utility.yul\":5936:5942   */\n      dup5\n        /* \"#utility.yul\":5892:5964   */\n      tag_397\n      jump\t// in\n    tag_510:\n        /* \"#utility.yul\":5639:5971   */\n      swap4\n      swap3\n      pop\n      pop\n      pop\n      jump\t// out\n        /* \"#utility.yul\":5977:6094   */\n    tag_398:\n        /* \"#utility.yul\":6086:6087   */\n      0x00\n        /* \"#utility.yul\":6083:6084   */\n      dup1\n        /* \"#utility.yul\":6076:6088   */\n      revert\n        /* \"#utility.yul\":6100:6217   */\n    tag_399:\n        /* \"#utility.yul\":6209:6210   */\n      0x00\n        /* \"#utility.yul\":6206:6207   */\n      dup1\n        /* \"#utility.yul\":6199:6211   */\n      revert\n        /* \"#utility.yul\":6223:6403   */\n    tag_312:\n        /* \"#utility.yul\":6271:6348   */\n      0x4e487b7100000000000000000000000000000000000000000000000000000000\n        /* \"#utility.yul\":6268:6269   */\n      0x00\n        /* \"#utility.yul\":6261:6349   */\n      mstore\n        /* \"#utility.yul\":6368:6372   */\n      0x41\n        /* \"#utility.yul\":6365:6366   */\n      0x04\n        /* \"#utility.yul\":6358:6373   */\n      mstore\n        /* \"#utility.yul\":6392:6396   */\n      0x24\n        /* \"#utility.yul\":6389:6390   */\n      0x00\n        /* \"#utility.yul\":6382:6397   */\n      revert\n        /* \"#utility.yul\":6409:6690   */\n    tag_400:\n        /* \"#utility.yul\":6492:6519   */\n      tag_515\n        /* \"#utility.yul\":6514:6518   */\n      dup3\n        /* \"#utility.yul\":6492:6519   */\n      tag_387\n      jump\t// in\n    tag_515:\n        /* \"#utility.yul\":6484:6490   */\n      dup2\n        /* \"#utility.yul\":6480:6520   */\n      add\n        /* \"#utility.yul\":6622:6628   */\n      dup2\n        /* \"#utility.yul\":6610:6620   */\n      dup2\n        /* \"#utility.yul\":6607:6629   */\n      lt\n        /* \"#utility.yul\":6586:6604   */\n      0xffffffffffffffff\n        /* \"#utility.yul\":6574:6584   */\n      dup3\n        /* \"#utility.yul\":6571:6605   */\n      gt\n        /* \"#utility.yul\":6568:6630   */\n      or\n        /* \"#utility.yul\":6565:6653   */\n      iszero\n      tag_516\n      jumpi\n        /* \"#utility.yul\":6633:6651   */\n      tag_517\n      tag_312\n      jump\t// in\n    tag_517:\n        /* \"#utility.yul\":6565:6653   */\n    tag_516:\n        /* \"#utility.yul\":6673:6683   */\n      dup1\n        /* \"#utility.yul\":6669:6671   */\n      0x40\n        /* \"#utility.yul\":6662:6684   */\n      mstore\n        /* \"#utility.yul\":6452:6690   */\n      pop\n        /* \"#utility.yul\":6409:6690   */\n      pop\n      pop\n      jump\t// out\n        /* \"#utility.yul\":6696:6825   */\n    tag_401:\n        /* \"#utility.yul\":6730:6736   */\n      0x00\n        /* \"#utility.yul\":6757:6777   */\n      tag_519\n      tag_376\n      jump\t// in\n    tag_519:\n        /* \"#utility.yul\":6747:6777   */\n      swap1\n      pop\n        /* \"#utility.yul\":6786:6819   */\n      tag_520\n        /* \"#utility.yul\":6814:6818   */\n      dup3\n        /* \"#utility.yul\":6806:6812   */\n      dup3\n        /* \"#utility.yul\":6786:6819   */\n      tag_400\n      jump\t// in\n    tag_520:\n        /* \"#utility.yul\":6696:6825   */\n      swap2\n      swap1\n      pop\n      jump\t// out\n        /* \"#utility.yul\":6831:7139   */\n    tag_402:\n        /* \"#utility.yul\":6893:6897   */\n      0x00\n        /* \"#utility.yul\":6983:7001   */\n      0xffffffffffffffff\n        /* \"#utility.yul\":6975:6981   */\n      dup3\n        /* \"#utility.yul\":6972:7002   */\n      gt\n        /* \"#utility.yul\":6969:7025   */\n      iszero\n      tag_522\n      jumpi\n        /* \"#utility.yul\":7005:7023   */\n      tag_523\n      tag_312\n      jump\t// in\n    tag_523:\n        /* \"#utility.yul\":6969:7025   */\n    tag_522:\n        /* \"#utility.yul\":7043:7072   */\n      tag_524\n        /* \"#utility.yul\":7065:7071   */\n      dup3\n        /* \"#utility.yul\":7043:7072   */\n      tag_387\n      jump\t// in\n    tag_524:\n        /* \"#utility.yul\":7035:7072   */\n      swap1\n      pop\n        /* \"#utility.yul\":7127:7131   */\n      0x20\n        /* \"#utility.yul\":7121:7125   */\n      dup2\n        /* \"#utility.yul\":7117:7132   */\n      add\n        /* \"#utility.yul\":7109:7132   */\n      swap1\n      pop\n        /* \"#utility.yul\":6831:7139   */\n      swap2\n      swap1\n      pop\n      jump\t// out\n        /* \"#utility.yul\":7145:7291   */\n    tag_403:\n        /* \"#utility.yul\":7242:7248   */\n      dup3\n        /* \"#utility.yul\":7237:7240   */\n      dup2\n        /* \"#utility.yul\":7232:7235   */\n      dup4\n        /* \"#utility.yul\":7219:7249   */\n      calldatacopy\n        /* \"#utility.yul\":7283:7284   */\n      0x00\n        /* \"#utility.yul\":7274:7280   */\n      dup4\n        /* \"#utility.yul\":7269:7272   */\n      dup4\n        /* \"#utility.yul\":7265:7281   */\n      add\n        /* \"#utility.yul\":7258:7285   */\n      mstore\n        /* \"#utility.yul\":7145:7291   */\n      pop\n      pop\n      pop\n      jump\t// out\n        /* \"#utility.yul\":7297:7722   */\n    tag_404:\n        /* \"#utility.yul\":7375:7380   */\n      0x00\n        /* \"#utility.yul\":7400:7466   */\n      tag_527\n        /* \"#utility.yul\":7416:7465   */\n      tag_528\n        /* \"#utility.yul\":7458:7464   */\n      dup5\n        /* \"#utility.yul\":7416:7465   */\n      tag_402\n      jump\t// in\n    tag_528:\n        /* \"#utility.yul\":7400:7466   */\n      tag_401\n      jump\t// in\n    tag_527:\n        /* \"#utility.yul\":7391:7466   */\n      swap1\n      pop\n        /* \"#utility.yul\":7489:7495   */\n      dup3\n        /* \"#utility.yul\":7482:7487   */\n      dup2\n        /* \"#utility.yul\":7475:7496   */\n      mstore\n        /* \"#utility.yul\":7527:7531   */\n      0x20\n        /* \"#utility.yul\":7520:7525   */\n      dup2\n        /* \"#utility.yul\":7516:7532   */\n      add\n        /* \"#utility.yul\":7565:7568   */\n      dup5\n        /* \"#utility.yul\":7556:7562   */\n      dup5\n        /* \"#utility.yul\":7551:7554   */\n      dup5\n        /* \"#utility.yul\":7547:7563   */\n      add\n        /* \"#utility.yul\":7544:7569   */\n      gt\n        /* \"#utility.yul\":7541:7653   */\n      iszero\n      tag_529\n      jumpi\n        /* \"#utility.yul\":7572:7651   */\n      tag_530\n      tag_399\n      jump\t// in\n    tag_530:\n        /* \"#utility.yul\":7541:7653   */\n    tag_529:\n        /* \"#utility.yul\":7662:7716   */\n      tag_531\n        /* \"#utility.yul\":7709:7715   */\n      dup5\n        /* \"#utility.yul\":7704:7707   */\n      dup3\n        /* \"#utility.yul\":7699:7702   */\n      dup6\n        /* \"#utility.yul\":7662:7716   */\n      tag_403\n      jump\t// in\n    tag_531:\n        /* \"#utility.yul\":7381:7722   */\n      pop\n        /* \"#utility.yul\":7297:7722   */\n      swap4\n      swap3\n      pop\n      pop\n      pop\n      jump\t// out\n        /* \"#utility.yul\":7742:8082   */\n    tag_405:\n        /* \"#utility.yul\":7798:7803   */\n      0x00\n        /* \"#utility.yul\":7847:7850   */\n      dup3\n        /* \"#utility.yul\":7840:7844   */\n      0x1f\n        /* \"#utility.yul\":7832:7838   */\n      dup4\n        /* \"#utility.yul\":7828:7845   */\n      add\n        /* \"#utility.yul\":7824:7851   */\n      slt\n        /* \"#utility.yul\":7814:7936   */\n      tag_533\n      jumpi\n        /* \"#utility.yul\":7855:7934   */\n      tag_534\n      tag_398\n      jump\t// in\n    tag_534:\n        /* \"#utility.yul\":7814:7936   */\n    tag_533:\n        /* \"#utility.yul\":7972:7978   */\n      dup2\n        /* \"#utility.yul\":7959:7979   */\n      calldataload\n        /* \"#utility.yul\":7997:8076   */\n      tag_535\n        /* \"#utility.yul\":8072:8075   */\n      dup5\n        /* \"#utility.yul\":8064:8070   */\n      dup3\n        /* \"#utility.yul\":8057:8061   */\n      0x20\n        /* \"#utility.yul\":8049:8055   */\n      dup7\n        /* \"#utility.yul\":8045:8062   */\n      add\n        /* \"#utility.yul\":7997:8076   */\n      tag_404\n      jump\t// in\n    tag_535:\n        /* \"#utility.yul\":7988:8076   */\n      swap2\n      pop\n        /* \"#utility.yul\":7804:8082   */\n      pop\n        /* \"#utility.yul\":7742:8082   */\n      swap3\n      swap2\n      pop\n      pop\n      jump\t// out\n        /* \"#utility.yul\":8088:8597   */\n    tag_68:\n        /* \"#utility.yul\":8157:8163   */\n      0x00\n        /* \"#utility.yul\":8206:8208   */\n      0x20\n        /* \"#utility.yul\":8194:8203   */\n      dup3\n        /* \"#utility.yul\":8185:8192   */\n      dup5\n        /* \"#utility.yul\":8181:8204   */\n      sub\n        /* \"#utility.yul\":8177:8209   */\n      slt\n        /* \"#utility.yul\":8174:8293   */\n      iszero\n      tag_537\n      jumpi\n        /* \"#utility.yul\":8212:8291   */\n      tag_538\n      tag_377\n      jump\t// in\n    tag_538:\n        /* \"#utility.yul\":8174:8293   */\n    tag_537:\n        /* \"#utility.yul\":8360:8361   */\n      0x00\n        /* \"#utility.yul\":8349:8358   */\n      dup3\n        /* \"#utility.yul\":8345:8362   */\n      add\n        /* \"#utility.yul\":8332:8363   */\n      calldataload\n        /* \"#utility.yul\":8390:8408   */\n      0xffffffffffffffff\n        /* \"#utility.yul\":8382:8388   */\n      dup2\n        /* \"#utility.yul\":8379:8409   */\n      gt\n        /* \"#utility.yul\":8376:8493   */\n      iszero\n      tag_539\n      jumpi\n        /* \"#utility.yul\":8412:8491   */\n      tag_540\n      tag_378\n      jump\t// in\n    tag_540:\n        /* \"#utility.yul\":8376:8493   */\n    tag_539:\n        /* \"#utility.yul\":8517:8580   */\n      tag_541\n        /* \"#utility.yul\":8572:8579   */\n      dup5\n        /* \"#utility.yul\":8563:8569   */\n      dup3\n        /* \"#utility.yul\":8552:8561   */\n      dup6\n        /* \"#utility.yul\":8548:8570   */\n      add\n        /* \"#utility.yul\":8517:8580   */\n      tag_405\n      jump\t// in\n    tag_541:\n        /* \"#utility.yul\":8507:8580   */\n      swap2\n      pop\n        /* \"#utility.yul\":8303:8590   */\n      pop\n        /* \"#utility.yul\":8088:8597   */\n      swap3\n      swap2\n      pop\n      pop\n      jump\t// out\n        /* \"#utility.yul\":8603:9257   */\n    tag_73:\n        /* \"#utility.yul\":8681:8687   */\n      0x00\n        /* \"#utility.yul\":8689:8695   */\n      dup1\n        /* \"#utility.yul\":8738:8740   */\n      0x40\n        /* \"#utility.yul\":8726:8735   */\n      dup4\n        /* \"#utility.yul\":8717:8724   */\n      dup6\n        /* \"#utility.yul\":8713:8736   */\n      sub\n        /* \"#utility.yul\":8709:8741   */\n      slt\n        /* \"#utility.yul\":8706:8825   */\n      iszero\n      tag_543\n      jumpi\n        /* \"#utility.yul\":8744:8823   */\n      tag_544\n      tag_377\n      jump\t// in\n    tag_544:\n        /* \"#utility.yul\":8706:8825   */\n    tag_543:\n        /* \"#utility.yul\":8892:8893   */\n      0x00\n        /* \"#utility.yul\":8881:8890   */\n      dup4\n        /* \"#utility.yul\":8877:8894   */\n      add\n        /* \"#utility.yul\":8864:8895   */\n      calldataload\n        /* \"#utility.yul\":8922:8940   */\n      0xffffffffffffffff\n        /* \"#utility.yul\":8914:8920   */\n      dup2\n        /* \"#utility.yul\":8911:8941   */\n      gt\n        /* \"#utility.yul\":8908:9025   */\n      iszero\n      tag_545\n      jumpi\n        /* \"#utility.yul\":8944:9023   */\n      tag_546\n      tag_378\n      jump\t// in\n    tag_546:\n        /* \"#utility.yul\":8908:9025   */\n    tag_545:\n        /* \"#utility.yul\":9049:9112   */\n      tag_547\n        /* \"#utility.yul\":9104:9111   */\n      dup6\n        /* \"#utility.yul\":9095:9101   */\n      dup3\n        /* \"#utility.yul\":9084:9093   */\n      dup7\n        /* \"#utility.yul\":9080:9102   */\n      add\n        /* \"#utility.yul\":9049:9112   */\n      tag_405\n      jump\t// in\n    tag_547:\n        /* \"#utility.yul\":9039:9112   */\n      swap3\n      pop\n        /* \"#utility.yul\":8835:9122   */\n      pop\n        /* \"#utility.yul\":9161:9163   */\n      0x20\n        /* \"#utility.yul\":9187:9240   */\n      tag_548\n        /* \"#utility.yul\":9232:9239   */\n      dup6\n        /* \"#utility.yul\":9223:9229   */\n      dup3\n        /* \"#utility.yul\":9212:9221   */\n      dup7\n        /* \"#utility.yul\":9208:9230   */\n      add\n        /* \"#utility.yul\":9187:9240   */\n      tag_391\n      jump\t// in\n    tag_548:\n        /* \"#utility.yul\":9177:9240   */\n      swap2\n      pop\n        /* \"#utility.yul\":9132:9250   */\n      pop\n        /* \"#utility.yul\":8603:9257   */\n      swap3\n      pop\n      swap3\n      swap1\n      pop\n      jump\t// out\n        /* \"#utility.yul\":9263:9592   */\n    tag_83:\n        /* \"#utility.yul\":9322:9328   */\n      0x00\n        /* \"#utility.yul\":9371:9373   */\n      0x20\n        /* \"#utility.yul\":9359:9368   */\n      dup3\n        /* \"#utility.yul\":9350:9357   */\n      dup5\n        /* \"#utility.yul\":9346:9369   */\n      sub\n        /* \"#utility.yul\":9342:9374   */\n      slt\n        /* \"#utility.yul\":9339:9458   */\n      iszero\n      tag_550\n      jumpi\n        /* \"#utility.yul\":9377:9456   */\n      tag_551\n      tag_377\n      jump\t// in\n    tag_551:\n        /* \"#utility.yul\":9339:9458   */\n    tag_550:\n        /* \"#utility.yul\":9497:9498   */\n      0x00\n        /* \"#utility.yul\":9522:9575   */\n      tag_552\n        /* \"#utility.yul\":9567:9574   */\n      dup5\n        /* \"#utility.yul\":9558:9564   */\n      dup3\n        /* \"#utility.yul\":9547:9556   */\n      dup6\n        /* \"#utility.yul\":9543:9565   */\n      add\n        /* \"#utility.yul\":9522:9575   */\n      tag_396\n      jump\t// in\n    tag_552:\n        /* \"#utility.yul\":9512:9575   */\n      swap2\n      pop\n        /* \"#utility.yul\":9468:9585   */\n      pop\n        /* \"#utility.yul\":9263:9592   */\n      swap3\n      swap2\n      pop\n      pop\n      jump\t// out\n        /* \"#utility.yul\":9598:9820   */\n    tag_86:\n        /* \"#utility.yul\":9691:9695   */\n      0x00\n        /* \"#utility.yul\":9729:9731   */\n      0x20\n        /* \"#utility.yul\":9718:9727   */\n      dup3\n        /* \"#utility.yul\":9714:9732   */\n      add\n        /* \"#utility.yul\":9706:9732   */\n      swap1\n      pop\n        /* \"#utility.yul\":9742:9813   */\n      tag_554\n        /* \"#utility.yul\":9810:9811   */\n      0x00\n        /* \"#utility.yul\":9799:9808   */\n      dup4\n        /* \"#utility.yul\":9795:9812   */\n      add\n        /* \"#utility.yul\":9786:9792   */\n      dup5\n        /* \"#utility.yul\":9742:9813   */\n      tag_397\n      jump\t// in\n    tag_554:\n        /* \"#utility.yul\":9598:9820   */\n      swap3\n      swap2\n      pop\n      pop\n      jump\t// out\n        /* \"#utility.yul\":9826:9942   */\n    tag_406:\n        /* \"#utility.yul\":9896:9917   */\n      tag_556\n        /* \"#utility.yul\":9911:9916   */\n      dup2\n        /* \"#utility.yul\":9896:9917   */\n      tag_382\n      jump\t// in\n    tag_556:\n        /* \"#utility.yul\":9889:9894   */\n      dup2\n        /* \"#utility.yul\":9886:9918   */\n      eq\n        /* \"#utility.yul\":9876:9936   */\n      tag_557\n      jumpi\n        /* \"#utility.yul\":9932:9933   */\n      0x00\n        /* \"#utility.yul\":9929:9930   */\n      dup1\n        /* \"#utility.yul\":9922:9934   */\n      revert\n        /* \"#utility.yul\":9876:9936   */\n    tag_557:\n        /* \"#utility.yul\":9826:9942   */\n      pop\n      jump\t// out\n        /* \"#utility.yul\":9948:10081   */\n    tag_407:\n        /* \"#utility.yul\":9991:9996   */\n      0x00\n        /* \"#utility.yul\":10029:10035   */\n      dup2\n        /* \"#utility.yul\":10016:10036   */\n      calldataload\n        /* \"#utility.yul\":10007:10036   */\n      swap1\n      pop\n        /* \"#utility.yul\":10045:10075   */\n      tag_559\n        /* \"#utility.yul\":10069:10074   */\n      dup2\n        /* \"#utility.yul\":10045:10075   */\n      tag_406\n      jump\t// in\n    tag_559:\n        /* \"#utility.yul\":9948:10081   */\n      swap3\n      swap2\n      pop\n      pop\n      jump\t// out\n        /* \"#utility.yul\":10087:10555   */\n    tag_101:\n        /* \"#utility.yul\":10152:10158   */\n      0x00\n        /* \"#utility.yul\":10160:10166   */\n      dup1\n        /* \"#utility.yul\":10209:10211   */\n      0x40\n        /* \"#utility.yul\":10197:10206   */\n      dup4\n        /* \"#utility.yul\":10188:10195   */\n      dup6\n        /* \"#utility.yul\":10184:10207   */\n      sub\n        /* \"#utility.yul\":10180:10212   */\n      slt\n        /* \"#utility.yul\":10177:10296   */\n      iszero\n      tag_561\n      jumpi\n        /* \"#utility.yul\":10215:10294   */\n      tag_562\n      tag_377\n      jump\t// in\n    tag_562:\n        /* \"#utility.yul\":10177:10296   */\n    tag_561:\n        /* \"#utility.yul\":10335:10336   */\n      0x00\n        /* \"#utility.yul\":10360:10413   */\n      tag_563\n        /* \"#utility.yul\":10405:10412   */\n      dup6\n        /* \"#utility.yul\":10396:10402   */\n      dup3\n        /* \"#utility.yul\":10385:10394   */\n      dup7\n        /* \"#utility.yul\":10381:10403   */\n      add\n        /* \"#utility.yul\":10360:10413   */\n      tag_396\n      jump\t// in\n    tag_563:\n        /* \"#utility.yul\":10350:10413   */\n      swap3\n      pop\n        /* \"#utility.yul\":10306:10423   */\n      pop\n        /* \"#utility.yul\":10462:10464   */\n      0x20\n        /* \"#utility.yul\":10488:10538   */\n      tag_564\n        /* \"#utility.yul\":10530:10537   */\n      dup6\n        /* \"#utility.yul\":10521:10527   */\n      dup3\n        /* \"#utility.yul\":10510:10519   */\n      dup7\n        /* \"#utility.yul\":10506:10528   */\n      add\n        /* \"#utility.yul\":10488:10538   */\n      tag_407\n      jump\t// in\n    tag_564:\n        /* \"#utility.yul\":10478:10538   */\n      swap2\n      pop\n        /* \"#utility.yul\":10433:10548   */\n      pop\n        /* \"#utility.yul\":10087:10555   */\n      swap3\n      pop\n      swap3\n      swap1\n      pop\n      jump\t// out\n        /* \"#utility.yul\":10561:10868   */\n    tag_408:\n        /* \"#utility.yul\":10622:10626   */\n      0x00\n        /* \"#utility.yul\":10712:10730   */\n      0xffffffffffffffff\n        /* \"#utility.yul\":10704:10710   */\n      dup3\n        /* \"#utility.yul\":10701:10731   */\n      gt\n        /* \"#utility.yul\":10698:10754   */\n      iszero\n      tag_566\n      jumpi\n        /* \"#utility.yul\":10734:10752   */\n      tag_567\n      tag_312\n      jump\t// in\n    tag_567:\n        /* \"#utility.yul\":10698:10754   */\n    tag_566:\n        /* \"#utility.yul\":10772:10801   */\n      tag_568\n        /* \"#utility.yul\":10794:10800   */\n      dup3\n        /* \"#utility.yul\":10772:10801   */\n      tag_387\n      jump\t// in\n    tag_568:\n        /* \"#utility.yul\":10764:10801   */\n      swap1\n      pop\n        /* \"#utility.yul\":10856:10860   */\n      0x20\n        /* \"#utility.yul\":10850:10854   */\n      dup2\n        /* \"#utility.yul\":10846:10861   */\n      add\n        /* \"#utility.yul\":10838:10861   */\n      swap1\n      pop\n        /* \"#utility.yul\":10561:10868   */\n      swap2\n      swap1\n      pop\n      jump\t// out\n        /* \"#utility.yul\":10874:11297   */\n    tag_409:\n        /* \"#utility.yul\":10951:10956   */\n      0x00\n        /* \"#utility.yul\":10976:11041   */\n      tag_570\n        /* \"#utility.yul\":10992:11040   */\n      tag_571\n        /* \"#utility.yul\":11033:11039   */\n      dup5\n        /* \"#utility.yul\":10992:11040   */\n      tag_408\n      jump\t// in\n    tag_571:\n        /* \"#utility.yul\":10976:11041   */\n      tag_401\n      jump\t// in\n    tag_570:\n        /* \"#utility.yul\":10967:11041   */\n      swap1\n      pop\n        /* \"#utility.yul\":11064:11070   */\n      dup3\n        /* \"#utility.yul\":11057:11062   */\n      dup2\n        /* \"#utility.yul\":11050:11071   */\n      mstore\n        /* \"#utility.yul\":11102:11106   */\n      0x20\n        /* \"#utility.yul\":11095:11100   */\n      dup2\n        /* \"#utility.yul\":11091:11107   */\n      add\n        /* \"#utility.yul\":11140:11143   */\n      dup5\n        /* \"#utility.yul\":11131:11137   */\n      dup5\n        /* \"#utility.yul\":11126:11129   */\n      dup5\n        /* \"#utility.yul\":11122:11138   */\n      add\n        /* \"#utility.yul\":11119:11144   */\n      gt\n        /* \"#utility.yul\":11116:11228   */\n      iszero\n      tag_572\n      jumpi\n        /* \"#utility.yul\":11147:11226   */\n      tag_573\n      tag_399\n      jump\t// in\n    tag_573:\n        /* \"#utility.yul\":11116:11228   */\n    tag_572:\n        /* \"#utility.yul\":11237:11291   */\n      tag_574\n        /* \"#utility.yul\":11284:11290   */\n      dup5\n        /* \"#utility.yul\":11279:11282   */\n      dup3\n        /* \"#utility.yul\":11274:11277   */\n      dup6\n        /* \"#utility.yul\":11237:11291   */\n      tag_403\n      jump\t// in\n    tag_574:\n        /* \"#utility.yul\":10957:11297   */\n      pop\n        /* \"#utility.yul\":10874:11297   */\n      swap4\n      swap3\n      pop\n      pop\n      pop\n      jump\t// out\n        /* \"#utility.yul\":11316:11654   */\n    tag_410:\n        /* \"#utility.yul\":11371:11376   */\n      0x00\n        /* \"#utility.yul\":11420:11423   */\n      dup3\n        /* \"#utility.yul\":11413:11417   */\n      0x1f\n        /* \"#utility.yul\":11405:11411   */\n      dup4\n        /* \"#utility.yul\":11401:11418   */\n      add\n        /* \"#utility.yul\":11397:11424   */\n      slt\n        /* \"#utility.yul\":11387:11509   */\n      tag_576\n      jumpi\n        /* \"#utility.yul\":11428:11507   */\n      tag_577\n      tag_398\n      jump\t// in\n    tag_577:\n        /* \"#utility.yul\":11387:11509   */\n    tag_576:\n        /* \"#utility.yul\":11545:11551   */\n      dup2\n        /* \"#utility.yul\":11532:11552   */\n      calldataload\n        /* \"#utility.yul\":11570:11648   */\n      tag_578\n        /* \"#utility.yul\":11644:11647   */\n      dup5\n        /* \"#utility.yul\":11636:11642   */\n      dup3\n        /* \"#utility.yul\":11629:11633   */\n      0x20\n        /* \"#utility.yul\":11621:11627   */\n      dup7\n        /* \"#utility.yul\":11617:11634   */\n      add\n        /* \"#utility.yul\":11570:11648   */\n      tag_409\n      jump\t// in\n    tag_578:\n        /* \"#utility.yul\":11561:11648   */\n      swap2\n      pop\n        /* \"#utility.yul\":11377:11654   */\n      pop\n        /* \"#utility.yul\":11316:11654   */\n      swap3\n      swap2\n      pop\n      pop\n      jump\t// out\n        /* \"#utility.yul\":11660:12603   */\n    tag_106:\n        /* \"#utility.yul\":11755:11761   */\n      0x00\n        /* \"#utility.yul\":11763:11769   */\n      dup1\n        /* \"#utility.yul\":11771:11777   */\n      0x00\n        /* \"#utility.yul\":11779:11785   */\n      dup1\n        /* \"#utility.yul\":11828:11831   */\n      0x80\n        /* \"#utility.yul\":11816:11825   */\n      dup6\n        /* \"#utility.yul\":11807:11814   */\n      dup8\n        /* \"#utility.yul\":11803:11826   */\n      sub\n        /* \"#utility.yul\":11799:11832   */\n      slt\n        /* \"#utility.yul\":11796:11916   */\n      iszero\n      tag_580\n      jumpi\n        /* \"#utility.yul\":11835:11914   */\n      tag_581\n      tag_377\n      jump\t// in\n    tag_581:\n        /* \"#utility.yul\":11796:11916   */\n    tag_580:\n        /* \"#utility.yul\":11955:11956   */\n      0x00\n        /* \"#utility.yul\":11980:12033   */\n      tag_582\n        /* \"#utility.yul\":12025:12032   */\n      dup8\n        /* \"#utility.yul\":12016:12022   */\n      dup3\n        /* \"#utility.yul\":12005:12014   */\n      dup9\n        /* \"#utility.yul\":12001:12023   */\n      add\n        /* \"#utility.yul\":11980:12033   */\n      tag_396\n      jump\t// in\n    tag_582:\n        /* \"#utility.yul\":11970:12033   */\n      swap5\n      pop\n        /* \"#utility.yul\":11926:12043   */\n      pop\n        /* \"#utility.yul\":12082:12084   */\n      0x20\n        /* \"#utility.yul\":12108:12161   */\n      tag_583\n        /* \"#utility.yul\":12153:12160   */\n      dup8\n        /* \"#utility.yul\":12144:12150   */\n      dup3\n        /* \"#utility.yul\":12133:12142   */\n      dup9\n        /* \"#utility.yul\":12129:12151   */\n      add\n        /* \"#utility.yul\":12108:12161   */\n      tag_396\n      jump\t// in\n    tag_583:\n        /* \"#utility.yul\":12098:12161   */\n      swap4\n      pop\n        /* \"#utility.yul\":12053:12171   */\n      pop\n        /* \"#utility.yul\":12210:12212   */\n      0x40\n        /* \"#utility.yul\":12236:12289   */\n      tag_584\n        /* \"#utility.yul\":12281:12288   */\n      dup8\n        /* \"#utility.yul\":12272:12278   */\n      dup3\n        /* \"#utility.yul\":12261:12270   */\n      dup9\n        /* \"#utility.yul\":12257:12279   */\n      add\n        /* \"#utility.yul\":12236:12289   */\n      tag_391\n      jump\t// in\n    tag_584:\n        /* \"#utility.yul\":12226:12289   */\n      swap3\n      pop\n        /* \"#utility.yul\":12181:12299   */\n      pop\n        /* \"#utility.yul\":12366:12368   */\n      0x60\n        /* \"#utility.yul\":12355:12364   */\n      dup6\n        /* \"#utility.yul\":12351:12369   */\n      add\n        /* \"#utility.yul\":12338:12370   */\n      calldataload\n        /* \"#utility.yul\":12397:12415   */\n      0xffffffffffffffff\n        /* \"#utility.yul\":12389:12395   */\n      dup2\n        /* \"#utility.yul\":12386:12416   */\n      gt\n        /* \"#utility.yul\":12383:12500   */\n      iszero\n      tag_585\n      jumpi\n        /* \"#utility.yul\":12419:12498   */\n      tag_586\n      tag_378\n      jump\t// in\n    tag_586:\n        /* \"#utility.yul\":12383:12500   */\n    tag_585:\n        /* \"#utility.yul\":12524:12586   */\n      tag_587\n        /* \"#utility.yul\":12578:12585   */\n      dup8\n        /* \"#utility.yul\":12569:12575   */\n      dup3\n        /* \"#utility.yul\":12558:12567   */\n      dup9\n        /* \"#utility.yul\":12554:12576   */\n      add\n        /* \"#utility.yul\":12524:12586   */\n      tag_410\n      jump\t// in\n    tag_587:\n        /* \"#utility.yul\":12514:12586   */\n      swap2\n      pop\n        /* \"#utility.yul\":12309:12596   */\n      pop\n        /* \"#utility.yul\":11660:12603   */\n      swap3\n      swap6\n      swap2\n      swap5\n      pop\n      swap3\n      pop\n      jump\t// out\n        /* \"#utility.yul\":12609:13083   */\n    tag_120:\n        /* \"#utility.yul\":12677:12683   */\n      0x00\n        /* \"#utility.yul\":12685:12691   */\n      dup1\n        /* \"#utility.yul\":12734:12736   */\n      0x40\n        /* \"#utility.yul\":12722:12731   */\n      dup4\n        /* \"#utility.yul\":12713:12720   */\n      dup6\n        /* \"#utility.yul\":12709:12732   */\n      sub\n        /* \"#utility.yul\":12705:12737   */\n      slt\n        /* \"#utility.yul\":12702:12821   */\n      iszero\n      tag_589\n      jumpi\n        /* \"#utility.yul\":12740:12819   */\n      tag_590\n      tag_377\n      jump\t// in\n    tag_590:\n        /* \"#utility.yul\":12702:12821   */\n    tag_589:\n        /* \"#utility.yul\":12860:12861   */\n      0x00\n        /* \"#utility.yul\":12885:12938   */\n      tag_591\n        /* \"#utility.yul\":12930:12937   */\n      dup6\n        /* \"#utility.yul\":12921:12927   */\n      dup3\n        /* \"#utility.yul\":12910:12919   */\n      dup7\n        /* \"#utility.yul\":12906:12928   */\n      add\n        /* \"#utility.yul\":12885:12938   */\n      tag_396\n      jump\t// in\n    tag_591:\n        /* \"#utility.yul\":12875:12938   */\n      swap3\n      pop\n        /* \"#utility.yul\":12831:12948   */\n      pop\n        /* \"#utility.yul\":12987:12989   */\n      0x20\n        /* \"#utility.yul\":13013:13066   */\n      tag_592\n        /* \"#utility.yul\":13058:13065   */\n      dup6\n        /* \"#utility.yul\":13049:13055   */\n      dup3\n        /* \"#utility.yul\":13038:13047   */\n      dup7\n        /* \"#utility.yul\":13034:13056   */\n      add\n        /* \"#utility.yul\":13013:13066   */\n      tag_396\n      jump\t// in\n    tag_592:\n        /* \"#utility.yul\":13003:13066   */\n      swap2\n      pop\n        /* \"#utility.yul\":12958:13076   */\n      pop\n        /* \"#utility.yul\":12609:13083   */\n      swap3\n      pop\n      swap3\n      swap1\n      pop\n      jump\t// out\n        /* \"#utility.yul\":13089:13269   */\n    tag_411:\n        /* \"#utility.yul\":13137:13214   */\n      0x4e487b7100000000000000000000000000000000000000000000000000000000\n        /* \"#utility.yul\":13134:13135   */\n      0x00\n        /* \"#utility.yul\":13127:13215   */\n      mstore\n        /* \"#utility.yul\":13234:13238   */\n      0x22\n        /* \"#utility.yul\":13231:13232   */\n      0x04\n        /* \"#utility.yul\":13224:13239   */\n      mstore\n        /* \"#utility.yul\":13258:13262   */\n      0x24\n        /* \"#utility.yul\":13255:13256   */\n      0x00\n        /* \"#utility.yul\":13248:13263   */\n      revert\n        /* \"#utility.yul\":13275:13595   */\n    tag_137:\n        /* \"#utility.yul\":13319:13325   */\n      0x00\n        /* \"#utility.yul\":13356:13357   */\n      0x02\n        /* \"#utility.yul\":13350:13354   */\n      dup3\n        /* \"#utility.yul\":13346:13358   */\n      div\n        /* \"#utility.yul\":13336:13358   */\n      swap1\n      pop\n        /* \"#utility.yul\":13403:13404   */\n      0x01\n        /* \"#utility.yul\":13397:13401   */\n      dup3\n        /* \"#utility.yul\":13393:13405   */\n      and\n        /* \"#utility.yul\":13424:13442   */\n      dup1\n        /* \"#utility.yul\":13414:13495   */\n      tag_595\n      jumpi\n        /* \"#utility.yul\":13480:13484   */\n      0x7f\n        /* \"#utility.yul\":13472:13478   */\n      dup3\n        /* \"#utility.yul\":13468:13485   */\n      and\n        /* \"#utility.yul\":13458:13485   */\n      swap2\n      pop\n        /* \"#utility.yul\":13414:13495   */\n    tag_595:\n        /* \"#utility.yul\":13542:13544   */\n      0x20\n        /* \"#utility.yul\":13534:13540   */\n      dup3\n        /* \"#utility.yul\":13531:13545   */\n      lt\n        /* \"#utility.yul\":13511:13529   */\n      dup2\n        /* \"#utility.yul\":13508:13546   */\n      sub\n        /* \"#utility.yul\":13505:13589   */\n      tag_596\n      jumpi\n        /* \"#utility.yul\":13561:13579   */\n      tag_597\n      tag_411\n      jump\t// in\n    tag_597:\n        /* \"#utility.yul\":13505:13589   */\n    tag_596:\n        /* \"#utility.yul\":13326:13595   */\n      pop\n        /* \"#utility.yul\":13275:13595   */\n      swap2\n      swap1\n      pop\n      jump\t// out\n        /* \"#utility.yul\":13601:14043   */\n    tag_160:\n        /* \"#utility.yul\":13750:13754   */\n      0x00\n        /* \"#utility.yul\":13788:13790   */\n      0x60\n        /* \"#utility.yul\":13777:13786   */\n      dup3\n        /* \"#utility.yul\":13773:13791   */\n      add\n        /* \"#utility.yul\":13765:13791   */\n      swap1\n      pop\n        /* \"#utility.yul\":13801:13872   */\n      tag_599\n        /* \"#utility.yul\":13869:13870   */\n      0x00\n        /* \"#utility.yul\":13858:13867   */\n      dup4\n        /* \"#utility.yul\":13854:13871   */\n      add\n        /* \"#utility.yul\":13845:13851   */\n      dup7\n        /* \"#utility.yul\":13801:13872   */\n      tag_394\n      jump\t// in\n    tag_599:\n        /* \"#utility.yul\":13882:13954   */\n      tag_600\n        /* \"#utility.yul\":13950:13952   */\n      0x20\n        /* \"#utility.yul\":13939:13948   */\n      dup4\n        /* \"#utility.yul\":13935:13953   */\n      add\n        /* \"#utility.yul\":13926:13932   */\n      dup6\n        /* \"#utility.yul\":13882:13954   */\n      tag_397\n      jump\t// in\n    tag_600:\n        /* \"#utility.yul\":13964:14036   */\n      tag_601\n        /* \"#utility.yul\":14032:14034   */\n      0x40\n        /* \"#utility.yul\":14021:14030   */\n      dup4\n        /* \"#utility.yul\":14017:14035   */\n      add\n        /* \"#utility.yul\":14008:14014   */\n      dup5\n        /* \"#utility.yul\":13964:14036   */\n      tag_394\n      jump\t// in\n    tag_601:\n        /* \"#utility.yul\":13601:14043   */\n      swap5\n      swap4\n      pop\n      pop\n      pop\n      pop\n      jump\t// out\n        /* \"#utility.yul\":14049:14190   */\n    tag_412:\n        /* \"#utility.yul\":14098:14102   */\n      0x00\n        /* \"#utility.yul\":14121:14124   */\n      dup2\n        /* \"#utility.yul\":14113:14124   */\n      swap1\n      pop\n        /* \"#utility.yul\":14144:14147   */\n      dup2\n        /* \"#utility.yul\":14141:14142   */\n      0x00\n        /* \"#utility.yul\":14134:14148   */\n      mstore\n        /* \"#utility.yul\":14178:14182   */\n      0x20\n        /* \"#utility.yul\":14175:14176   */\n      0x00\n        /* \"#utility.yul\":14165:14183   */\n      keccak256\n        /* \"#utility.yul\":14157:14183   */\n      swap1\n      pop\n        /* \"#utility.yul\":14049:14190   */\n      swap2\n      swap1\n      pop\n      jump\t// out\n        /* \"#utility.yul\":14196:14289   */\n    tag_413:\n        /* \"#utility.yul\":14233:14239   */\n      0x00\n        /* \"#utility.yul\":14280:14282   */\n      0x20\n        /* \"#utility.yul\":14275:14277   */\n      0x1f\n        /* \"#utility.yul\":14268:14273   */\n      dup4\n        /* \"#utility.yul\":14264:14278   */\n      add\n        /* \"#utility.yul\":14260:14283   */\n      div\n        /* \"#utility.yul\":14250:14283   */\n      swap1\n      pop\n        /* \"#utility.yul\":14196:14289   */\n      swap2\n      swap1\n      pop\n      jump\t// out\n        /* \"#utility.yul\":14295:14402   */\n    tag_414:\n        /* \"#utility.yul\":14339:14347   */\n      0x00\n        /* \"#utility.yul\":14389:14394   */\n      dup3\n        /* \"#utility.yul\":14383:14387   */\n      dup3\n        /* \"#utility.yul\":14379:14395   */\n      shl\n        /* \"#utility.yul\":14358:14395   */\n      swap1\n      pop\n        /* \"#utility.yul\":14295:14402   */\n      swap3\n      swap2\n      pop\n      pop\n      jump\t// out\n        /* \"#utility.yul\":14408:14801   */\n    tag_415:\n        /* \"#utility.yul\":14477:14483   */\n      0x00\n        /* \"#utility.yul\":14527:14528   */\n      0x08\n        /* \"#utility.yul\":14515:14525   */\n      dup4\n        /* \"#utility.yul\":14511:14529   */\n      mul\n        /* \"#utility.yul\":14550:14647   */\n      tag_606\n        /* \"#utility.yul\":14580:14646   */\n      0xffffffffffffffffffffffffffffffffffffffffffffffffffffffffffffffff\n        /* \"#utility.yul\":14569:14578   */\n      dup3\n        /* \"#utility.yul\":14550:14647   */\n      tag_414\n      jump\t// in\n    tag_606:\n        /* \"#utility.yul\":14668:14707   */\n      tag_607\n        /* \"#utility.yul\":14698:14706   */\n      dup7\n        /* \"#utility.yul\":14687:14696   */\n      dup4\n        /* \"#utility.yul\":14668:14707   */\n      tag_414\n      jump\t// in\n    tag_607:\n        /* \"#utility.yul\":14656:14707   */\n      swap6\n      pop\n        /* \"#utility.yul\":14740:14744   */\n      dup1\n        /* \"#utility.yul\":14736:14745   */\n      not\n        /* \"#utility.yul\":14729:14734   */\n      dup5\n        /* \"#utility.yul\":14725:14746   */\n      and\n        /* \"#utility.yul\":14716:14746   */\n      swap4\n      pop\n        /* \"#utility.yul\":14789:14793   */\n      dup1\n        /* \"#utility.yul\":14779:14787   */\n      dup7\n        /* \"#utility.yul\":14775:14794   */\n      and\n        /* \"#utility.yul\":14768:14773   */\n      dup5\n        /* \"#utility.yul\":14765:14795   */\n      or\n        /* \"#utility.yul\":14755:14795   */\n      swap3\n      pop\n        /* \"#utility.yul\":14484:14801   */\n      pop\n      pop\n        /* \"#utility.yul\":14408:14801   */\n      swap4\n      swap3\n      pop\n      pop\n      pop\n      jump\t// out\n        /* \"#utility.yul\":14807:14867   */\n    tag_416:\n        /* \"#utility.yul\":14835:14838   */\n      0x00\n        /* \"#utility.yul\":14856:14861   */\n      dup2\n        /* \"#utility.yul\":14849:14861   */\n      swap1\n      pop\n        /* \"#utility.yul\":14807:14867   */\n      swap2\n      swap1\n      pop\n      jump\t// out\n        /* \"#utility.yul\":14873:15015   */\n    tag_417:\n        /* \"#utility.yul\":14923:14932   */\n      0x00\n        /* \"#utility.yul\":14956:15009   */\n      tag_610\n        /* \"#utility.yul\":14974:15008   */\n      tag_611\n        /* \"#utility.yul\":14983:15007   */\n      tag_612\n        /* \"#utility.yul\":15001:15006   */\n      dup5\n        /* \"#utility.yul\":14983:15007   */\n      tag_389\n      jump\t// in\n    tag_612:\n        /* \"#utility.yul\":14974:15008   */\n      tag_416\n      jump\t// in\n    tag_611:\n        /* \"#utility.yul\":14956:15009   */\n      tag_389\n      jump\t// in\n    tag_610:\n        /* \"#utility.yul\":14943:15009   */\n      swap1\n      pop\n        /* \"#utility.yul\":14873:15015   */\n      swap2\n      swap1\n      pop\n      jump\t// out\n        /* \"#utility.yul\":15021:15096   */\n    tag_418:\n        /* \"#utility.yul\":15064:15067   */\n      0x00\n        /* \"#utility.yul\":15085:15090   */\n      dup2\n        /* \"#utility.yul\":15078:15090   */\n      swap1\n      pop\n        /* \"#utility.yul\":15021:15096   */\n      swap2\n      swap1\n      pop\n      jump\t// out\n        /* \"#utility.yul\":15102:15371   */\n    tag_419:\n        /* \"#utility.yul\":15212:15251   */\n      tag_615\n        /* \"#utility.yul\":15243:15250   */\n      dup4\n        /* \"#utility.yul\":15212:15251   */\n      tag_417\n      jump\t// in\n    tag_615:\n        /* \"#utility.yul\":15273:15364   */\n      tag_616\n        /* \"#utility.yul\":15322:15363   */\n      tag_617\n        /* \"#utility.yul\":15346:15362   */\n      dup3\n        /* \"#utility.yul\":15322:15363   */\n      tag_418\n      jump\t// in\n    tag_617:\n        /* \"#utility.yul\":15314:15320   */\n      dup5\n        /* \"#utility.yul\":15307:15311   */\n      dup5\n        /* \"#utility.yul\":15301:15312   */\n      sload\n        /* \"#utility.yul\":15273:15364   */\n      tag_415\n      jump\t// in\n    tag_616:\n        /* \"#utility.yul\":15267:15271   */\n      dup3\n        /* \"#utility.yul\":15260:15365   */\n      sstore\n        /* \"#utility.yul\":15178:15371   */\n      pop\n        /* \"#utility.yul\":15102:15371   */\n      pop\n      pop\n      pop\n      jump\t// out\n        /* \"#utility.yul\":15377:15450   */\n    tag_420:\n        /* \"#utility.yul\":15422:15425   */\n      0x00\n        /* \"#utility.yul\":15377:15450   */\n      swap1\n      jump\t// out\n        /* \"#utility.yul\":15456:15645   */\n    tag_421:\n        /* \"#utility.yul\":15533:15565   */\n      tag_620\n      tag_420\n      jump\t// in\n    tag_620:\n        /* \"#utility.yul\":15574:15639   */\n      tag_621\n        /* \"#utility.yul\":15632:15638   */\n      dup2\n        /* \"#utility.yul\":15624:15630   */\n      dup5\n        /* \"#utility.yul\":15618:15622   */\n      dup5\n        /* \"#utility.yul\":15574:15639   */\n      tag_419\n      jump\t// in\n    tag_621:\n        /* \"#utility.yul\":15509:15645   */\n      pop\n        /* \"#utility.yul\":15456:15645   */\n      pop\n      pop\n      jump\t// out\n        /* \"#utility.yul\":15651:15837   */\n    tag_422:\n        /* \"#utility.yul\":15711:15831   */\n    tag_623:\n        /* \"#utility.yul\":15728:15731   */\n      dup2\n        /* \"#utility.yul\":15721:15726   */\n      dup2\n        /* \"#utility.yul\":15718:15732   */\n      lt\n        /* \"#utility.yul\":15711:15831   */\n      iszero\n      tag_625\n      jumpi\n        /* \"#utility.yul\":15782:15821   */\n      tag_626\n        /* \"#utility.yul\":15819:15820   */\n      0x00\n        /* \"#utility.yul\":15812:15817   */\n      dup3\n        /* \"#utility.yul\":15782:15821   */\n      tag_421\n      jump\t// in\n    tag_626:\n        /* \"#utility.yul\":15755:15756   */\n      0x01\n        /* \"#utility.yul\":15748:15753   */\n      dup2\n        /* \"#utility.yul\":15744:15757   */\n      add\n        /* \"#utility.yul\":15735:15757   */\n      swap1\n      pop\n        /* \"#utility.yul\":15711:15831   */\n      jump(tag_623)\n    tag_625:\n        /* \"#utility.yul\":15651:15837   */\n      pop\n      pop\n      jump\t// out\n        /* \"#utility.yul\":15843:16386   */\n    tag_423:\n        /* \"#utility.yul\":15944:15946   */\n      0x1f\n        /* \"#utility.yul\":15939:15942   */\n      dup3\n        /* \"#utility.yul\":15936:15947   */\n      gt\n        /* \"#utility.yul\":15933:16379   */\n      iszero\n      tag_628\n      jumpi\n        /* \"#utility.yul\":15978:16016   */\n      tag_629\n        /* \"#utility.yul\":16010:16015   */\n      dup2\n        /* \"#utility.yul\":15978:16016   */\n      tag_412\n      jump\t// in\n    tag_629:\n        /* \"#utility.yul\":16062:16091   */\n      tag_630\n        /* \"#utility.yul\":16080:16090   */\n      dup5\n        /* \"#utility.yul\":16062:16091   */\n      tag_413\n      jump\t// in\n    tag_630:\n        /* \"#utility.yul\":16052:16060   */\n      dup2\n        /* \"#utility.yul\":16048:16092   */\n      add\n        /* \"#utility.yul\":16245:16247   */\n      0x20\n        /* \"#utility.yul\":16233:16243   */\n      dup6\n        /* \"#utility.yul\":16230:16248   */\n      lt\n        /* \"#utility.yul\":16227:16276   */\n      iszero\n      tag_631\n      jumpi\n        /* \"#utility.yul\":16266:16274   */\n      dup2\n        /* \"#utility.yul\":16251:16274   */\n      swap1\n      pop\n        /* \"#utility.yul\":16227:16276   */\n    tag_631:\n        /* \"#utility.yul\":16289:16369   */\n      tag_632\n        /* \"#utility.yul\":16345:16367   */\n      tag_633\n        /* \"#utility.yul\":16363:16366   */\n      dup6\n        /* \"#utility.yul\":16345:16367   */\n      tag_413\n      jump\t// in\n    tag_633:\n        /* \"#utility.yul\":16335:16343   */\n      dup4\n        /* \"#utility.yul\":16331:16368   */\n      add\n        /* \"#utility.yul\":16318:16329   */\n      dup3\n        /* \"#utility.yul\":16289:16369   */\n      tag_422\n      jump\t// in\n    tag_632:\n        /* \"#utility.yul\":15948:16379   */\n      pop\n      pop\n        /* \"#utility.yul\":15933:16379   */\n    tag_628:\n        /* \"#utility.yul\":15843:16386   */\n      pop\n      pop\n      pop\n      jump\t// out\n        /* \"#utility.yul\":16392:16509   */\n    tag_424:\n        /* \"#utility.yul\":16446:16454   */\n      0x00\n        /* \"#utility.yul\":16496:16501   */\n      dup3\n        /* \"#utility.yul\":16490:16494   */\n      dup3\n        /* \"#utility.yul\":16486:16502   */\n      shr\n        /* \"#utility.yul\":16465:16502   */\n      swap1\n      pop\n        /* \"#utility.yul\":16392:16509   */\n      swap3\n      swap2\n      pop\n      pop\n      jump\t// out\n        /* \"#utility.yul\":16515:16684   */\n    tag_425:\n        /* \"#utility.yul\":16559:16565   */\n      0x00\n        /* \"#utility.yul\":16592:16643   */\n      tag_636\n        /* \"#utility.yul\":16640:16641   */\n      0x00\n        /* \"#utility.yul\":16636:16642   */\n      not\n        /* \"#utility.yul\":16628:16633   */\n      dup5\n        /* \"#utility.yul\":16625:16626   */\n      0x08\n        /* \"#utility.yul\":16621:16634   */\n      mul\n        /* \"#utility.yul\":16592:16643   */\n      tag_424\n      jump\t// in\n    tag_636:\n        /* \"#utility.yul\":16588:16644   */\n      not\n        /* \"#utility.yul\":16673:16677   */\n      dup1\n        /* \"#utility.yul\":16667:16671   */\n      dup4\n        /* \"#utility.yul\":16663:16678   */\n      and\n        /* \"#utility.yul\":16653:16678   */\n      swap2\n      pop\n        /* \"#utility.yul\":16566:16684   */\n      pop\n        /* \"#utility.yul\":16515:16684   */\n      swap3\n      swap2\n      pop\n      pop\n      jump\t// out\n        /* \"#utility.yul\":16689:16984   */\n    tag_426:\n        /* \"#utility.yul\":16765:16769   */\n      0x00\n        /* \"#utility.yul\":16911:16940   */\n      tag_638\n        /* \"#utility.yul\":16936:16939   */\n      dup4\n        /* \"#utility.yul\":16930:16934   */\n      dup4\n        /* \"#utility.yul\":16911:16940   */\n      tag_425\n      jump\t// in\n    tag_638:\n        /* \"#utility.yul\":16903:16940   */\n      swap2\n      pop\n        /* \"#utility.yul\":16973:16976   */\n      dup3\n        /* \"#utility.yul\":16970:16971   */\n      0x02\n        /* \"#utility.yul\":16966:16977   */\n      mul\n        /* \"#utility.yul\":16960:16964   */\n      dup3\n        /* \"#utility.yul\":16957:16978   */\n      or\n        /* \"#utility.yul\":16949:16978   */\n      swap1\n      pop\n        /* \"#utility.yul\":16689:16984   */\n      swap3\n      swap2\n      pop\n      pop\n      jump\t// out\n        /* \"#utility.yul\":16989:18384   */\n    tag_168:\n        /* \"#utility.yul\":17106:17143   */\n      tag_640\n        /* \"#utility.yul\":17139:17142   */\n      dup3\n        /* \"#utility.yul\":17106:17143   */\n      tag_384\n      jump\t// in\n    tag_640:\n        /* \"#utility.yul\":17208:17226   */\n      0xffffffffffffffff\n        /* \"#utility.yul\":17200:17206   */\n      dup2\n        /* \"#utility.yul\":17197:17227   */\n      gt\n        /* \"#utility.yul\":17194:17250   */\n      iszero\n      tag_641\n      jumpi\n        /* \"#utility.yul\":17230:17248   */\n      tag_642\n      tag_312\n      jump\t// in\n    tag_642:\n        /* \"#utility.yul\":17194:17250   */\n    tag_641:\n        /* \"#utility.yul\":17274:17312   */\n      tag_643\n        /* \"#utility.yul\":17306:17310   */\n      dup3\n        /* \"#utility.yul\":17300:17311   */\n      sload\n        /* \"#utility.yul\":17274:17312   */\n      tag_137\n      jump\t// in\n    tag_643:\n        /* \"#utility.yul\":17359:17426   */\n      tag_644\n        /* \"#utility.yul\":17419:17425   */\n      dup3\n        /* \"#utility.yul\":17411:17417   */\n      dup3\n        /* \"#utility.yul\":17405:17409   */\n      dup6\n        /* \"#utility.yul\":17359:17426   */\n      tag_423\n      jump\t// in\n    tag_644:\n        /* \"#utility.yul\":17453:17454   */\n      0x00\n        /* \"#utility.yul\":17477:17481   */\n      0x20\n        /* \"#utility.yul\":17464:17481   */\n      swap1\n      pop\n        /* \"#utility.yul\":17509:17511   */\n      0x1f\n        /* \"#utility.yul\":17501:17507   */\n      dup4\n        /* \"#utility.yul\":17498:17512   */\n      gt\n        /* \"#utility.yul\":17526:17527   */\n      0x01\n        /* \"#utility.yul\":17521:18139   */\n      dup2\n      eq\n      tag_646\n      jumpi\n        /* \"#utility.yul\":18183:18184   */\n      0x00\n        /* \"#utility.yul\":18200:18206   */\n      dup5\n        /* \"#utility.yul\":18197:18274   */\n      iszero\n      tag_647\n      jumpi\n        /* \"#utility.yul\":18249:18258   */\n      dup3\n        /* \"#utility.yul\":18244:18247   */\n      dup8\n        /* \"#utility.yul\":18240:18259   */\n      add\n        /* \"#utility.yul\":18234:18260   */\n      mload\n        /* \"#utility.yul\":18225:18260   */\n      swap1\n      pop\n        /* \"#utility.yul\":18197:18274   */\n    tag_647:\n        /* \"#utility.yul\":18300:18367   */\n      tag_648\n        /* \"#utility.yul\":18360:18366   */\n      dup6\n        /* \"#utility.yul\":18353:18358   */\n      dup3\n        /* \"#utility.yul\":18300:18367   */\n      tag_426\n      jump\t// in\n    tag_648:\n        /* \"#utility.yul\":18294:18298   */\n      dup7\n        /* \"#utility.yul\":18287:18368   */\n      sstore\n        /* \"#utility.yul\":18156:18378   */\n      pop\n        /* \"#utility.yul\":17491:18378   */\n      jump(tag_645)\n        /* \"#utility.yul\":17521:18139   */\n    tag_646:\n        /* \"#utility.yul\":17573:17577   */\n      0x1f\n        /* \"#utility.yul\":17569:17578   */\n      not\n        /* \"#utility.yul\":17561:17567   */\n      dup5\n        /* \"#utility.yul\":17557:17579   */\n      and\n        /* \"#utility.yul\":17607:17644   */\n      tag_649\n        /* \"#utility.yul\":17639:17643   */\n      dup7\n        /* \"#utility.yul\":17607:17644   */\n      tag_412\n      jump\t// in\n    tag_649:\n        /* \"#utility.yul\":17666:17667   */\n      0x00\n        /* \"#utility.yul\":17680:17888   */\n    tag_650:\n        /* \"#utility.yul\":17694:17701   */\n      dup3\n        /* \"#utility.yul\":17691:17692   */\n      dup2\n        /* \"#utility.yul\":17688:17702   */\n      lt\n        /* \"#utility.yul\":17680:17888   */\n      iszero\n      tag_652\n      jumpi\n        /* \"#utility.yul\":17773:17782   */\n      dup5\n        /* \"#utility.yul\":17768:17771   */\n      dup10\n        /* \"#utility.yul\":17764:17783   */\n      add\n        /* \"#utility.yul\":17758:17784   */\n      mload\n        /* \"#utility.yul\":17750:17756   */\n      dup3\n        /* \"#utility.yul\":17743:17785   */\n      sstore\n        /* \"#utility.yul\":17824:17825   */\n      0x01\n        /* \"#utility.yul\":17816:17822   */\n      dup3\n        /* \"#utility.yul\":17812:17826   */\n      add\n        /* \"#utility.yul\":17802:17826   */\n      swap2\n      pop\n        /* \"#utility.yul\":17871:17873   */\n      0x20\n        /* \"#utility.yul\":17860:17869   */\n      dup6\n        /* \"#utility.yul\":17856:17874   */\n      add\n        /* \"#utility.yul\":17843:17874   */\n      swap5\n      pop\n        /* \"#utility.yul\":17717:17721   */\n      0x20\n        /* \"#utility.yul\":17714:17715   */\n      dup2\n        /* \"#utility.yul\":17710:17722   */\n      add\n        /* \"#utility.yul\":17705:17722   */\n      swap1\n      pop\n        /* \"#utility.yul\":17680:17888   */\n      jump(tag_650)\n    tag_652:\n        /* \"#utility.yul\":17916:17922   */\n      dup7\n        /* \"#utility.yul\":17907:17914   */\n      dup4\n        /* \"#utility.yul\":17904:17923   */\n      lt\n        /* \"#utility.yul\":17901:18080   */\n      iszero\n      tag_653\n      jumpi\n        /* \"#utility.yul\":17974:17983   */\n      dup5\n        /* \"#utility.yul\":17969:17972   */\n      dup10\n        /* \"#utility.yul\":17965:17984   */\n      add\n        /* \"#utility.yul\":17959:17985   */\n      mload\n        /* \"#utility.yul\":18017:18065   */\n      tag_654\n        /* \"#utility.yul\":18059:18063   */\n      0x1f\n        /* \"#utility.yul\":18051:18057   */\n      dup10\n        /* \"#utility.yul\":18047:18064   */\n      and\n        /* \"#utility.yul\":18036:18045   */\n      dup3\n        /* \"#utility.yul\":18017:18065   */\n      tag_425\n      jump\t// in\n    tag_654:\n        /* \"#utility.yul\":18009:18015   */\n      dup4\n        /* \"#utility.yul\":18002:18066   */\n      sstore\n        /* \"#utility.yul\":17924:18080   */\n      pop\n        /* \"#utility.yul\":17901:18080   */\n    tag_653:\n        /* \"#utility.yul\":18126:18127   */\n      0x01\n        /* \"#utility.yul\":18122:18123   */\n      0x02\n        /* \"#utility.yul\":18114:18120   */\n      dup9\n        /* \"#utility.yul\":18110:18124   */\n      mul\n        /* \"#utility.yul\":18106:18128   */\n      add\n        /* \"#utility.yul\":18100:18104   */\n      dup9\n        /* \"#utility.yul\":18093:18129   */\n      sstore\n        /* \"#utility.yul\":17528:18139   */\n      pop\n      pop\n      pop\n        /* \"#utility.yul\":17491:18378   */\n    tag_645:\n      pop\n        /* \"#utility.yul\":17081:18384   */\n      pop\n      pop\n      pop\n        /* \"#utility.yul\":16989:18384   */\n      pop\n      pop\n      jump\t// out\n        /* \"#utility.yul\":18390:18538   */\n    tag_427:\n        /* \"#utility.yul\":18492:18503   */\n      0x00\n        /* \"#utility.yul\":18529:18532   */\n      dup2\n        /* \"#utility.yul\":18514:18532   */\n      swap1\n      pop\n        /* \"#utility.yul\":18390:18538   */\n      swap3\n      swap2\n      pop\n      pop\n      jump\t// out\n        /* \"#utility.yul\":18544:18934   */\n    tag_428:\n        /* \"#utility.yul\":18650:18653   */\n      0x00\n        /* \"#utility.yul\":18678:18717   */\n      tag_657\n        /* \"#utility.yul\":18711:18716   */\n      dup3\n        /* \"#utility.yul\":18678:18717   */\n      tag_384\n      jump\t// in\n    tag_657:\n        /* \"#utility.yul\":18733:18822   */\n      tag_658\n        /* \"#utility.yul\":18815:18821   */\n      dup2\n        /* \"#utility.yul\":18810:18813   */\n      dup6\n        /* \"#utility.yul\":18733:18822   */\n      tag_427\n      jump\t// in\n    tag_658:\n        /* \"#utility.yul\":18726:18822   */\n      swap4\n      pop\n        /* \"#utility.yul\":18831:18896   */\n      tag_659\n        /* \"#utility.yul\":18889:18895   */\n      dup2\n        /* \"#utility.yul\":18884:18887   */\n      dup6\n        /* \"#utility.yul\":18877:18881   */\n      0x20\n        /* \"#utility.yul\":18870:18875   */\n      dup7\n        /* \"#utility.yul\":18866:18882   */\n      add\n        /* \"#utility.yul\":18831:18896   */\n      tag_386\n      jump\t// in\n    tag_659:\n        /* \"#utility.yul\":18921:18927   */\n      dup1\n        /* \"#utility.yul\":18916:18919   */\n      dup5\n        /* \"#utility.yul\":18912:18928   */\n      add\n        /* \"#utility.yul\":18905:18928   */\n      swap2\n      pop\n        /* \"#utility.yul\":18654:18934   */\n      pop\n        /* \"#utility.yul\":18544:18934   */\n      swap3\n      swap2\n      pop\n      pop\n      jump\t// out\n        /* \"#utility.yul\":18940:19375   */\n    tag_212:\n        /* \"#utility.yul\":19120:19123   */\n      0x00\n        /* \"#utility.yul\":19142:19237   */\n      tag_661\n        /* \"#utility.yul\":19233:19236   */\n      dup3\n        /* \"#utility.yul\":19224:19230   */\n      dup6\n        /* \"#utility.yul\":19142:19237   */\n      tag_428\n      jump\t// in\n    tag_661:\n        /* \"#utility.yul\":19135:19237   */\n      swap2\n      pop\n        /* \"#utility.yul\":19254:19349   */\n      tag_662\n        /* \"#utility.yul\":19345:19348   */\n      dup3\n        /* \"#utility.yul\":19336:19342   */\n      dup5\n        /* \"#utility.yul\":19254:19349   */\n      tag_428\n      jump\t// in\n    tag_662:\n        /* \"#utility.yul\":19247:19349   */\n      swap2\n      pop\n        /* \"#utility.yul\":19366:19369   */\n      dup2\n        /* \"#utility.yul\":19359:19369   */\n      swap1\n      pop\n        /* \"#utility.yul\":18940:19375   */\n      swap4\n      swap3\n      pop\n      pop\n      pop\n      jump\t// out\n        /* \"#utility.yul\":19381:19551   */\n    tag_429:\n        /* \"#utility.yul\":19521:19543   */\n      0x546f6b656e20646f6573206e6f74206578697374000000000000000000000000\n        /* \"#utility.yul\":19517:19518   */\n      0x00\n        /* \"#utility.yul\":19509:19515   */\n      dup3\n        /* \"#utility.yul\":19505:19519   */\n      add\n        /* \"#utility.yul\":19498:19544   */\n      mstore\n        /* \"#utility.yul\":19381:19551   */\n      pop\n      jump\t// out\n        /* \"#utility.yul\":19557:19923   */\n    tag_430:\n        /* \"#utility.yul\":19699:19702   */\n      0x00\n        /* \"#utility.yul\":19720:19787   */\n      tag_665\n        /* \"#utility.yul\":19784:19786   */\n      0x14\n        /* \"#utility.yul\":19779:19782   */\n      dup4\n        /* \"#utility.yul\":19720:19787   */\n      tag_385\n      jump\t// in\n    tag_665:\n        /* \"#utility.yul\":19713:19787   */\n      swap2\n      pop\n        /* \"#utility.yul\":19796:19889   */\n      tag_666\n        /* \"#utility.yul\":19885:19888   */\n      dup3\n        /* \"#utility.yul\":19796:19889   */\n      tag_429\n      jump\t// in\n    tag_666:\n        /* \"#utility.yul\":19914:19916   */\n      0x20\n        /* \"#utility.yul\":19909:19912   */\n      dup3\n        /* \"#utility.yul\":19905:19917   */\n      add\n        /* \"#utility.yul\":19898:19917   */\n      swap1\n      pop\n        /* \"#utility.yul\":19557:19923   */\n      swap2\n      swap1\n      pop\n      jump\t// out\n        /* \"#utility.yul\":19929:20348   */\n    tag_219:\n        /* \"#utility.yul\":20095:20099   */\n      0x00\n        /* \"#utility.yul\":20133:20135   */\n      0x20\n        /* \"#utility.yul\":20122:20131   */\n      dup3\n        /* \"#utility.yul\":20118:20136   */\n      add\n        /* \"#utility.yul\":20110:20136   */\n      swap1\n      pop\n        /* \"#utility.yul\":20182:20191   */\n      dup2\n        /* \"#utility.yul\":20176:20180   */\n      dup2\n        /* \"#utility.yul\":20172:20192   */\n      sub\n        /* \"#utility.yul\":20168:20169   */\n      0x00\n        /* \"#utility.yul\":20157:20166   */\n      dup4\n        /* \"#utility.yul\":20153:20170   */\n      add\n        /* \"#utility.yul\":20146:20193   */\n      mstore\n        /* \"#utility.yul\":20210:20341   */\n      tag_668\n        /* \"#utility.yul\":20336:20340   */\n      dup2\n        /* \"#utility.yul\":20210:20341   */\n      tag_430\n      jump\t// in\n    tag_668:\n        /* \"#utility.yul\":20202:20341   */\n      swap1\n      pop\n        /* \"#utility.yul\":19929:20348   */\n      swap2\n      swap1\n      pop\n      jump\t// out\n        /* \"#utility.yul\":20354:20527   */\n    tag_431:\n        /* \"#utility.yul\":20494:20519   */\n      0x43616e6e6f742062757920796f7572206f776e204e4654000000000000000000\n        /* \"#utility.yul\":20490:20491   */\n      0x00\n        /* \"#utility.yul\":20482:20488   */\n      dup3\n        /* \"#utility.yul\":20478:20492   */\n      add\n        /* \"#utility.yul\":20471:20520   */\n      mstore\n        /* \"#utility.yul\":20354:20527   */\n      pop\n      jump\t// out\n        /* \"#utility.yul\":20533:20899   */\n    tag_432:\n        /* \"#utility.yul\":20675:20678   */\n      0x00\n        /* \"#utility.yul\":20696:20763   */\n      tag_671\n        /* \"#utility.yul\":20760:20762   */\n      0x17\n        /* \"#utility.yul\":20755:20758   */\n      dup4\n        /* \"#utility.yul\":20696:20763   */\n      tag_385\n      jump\t// in\n    tag_671:\n        /* \"#utility.yul\":20689:20763   */\n      swap2\n      pop\n        /* \"#utility.yul\":20772:20865   */\n      tag_672\n        /* \"#utility.yul\":20861:20864   */\n      dup3\n        /* \"#utility.yul\":20772:20865   */\n      tag_431\n      jump\t// in\n    tag_672:\n        /* \"#utility.yul\":20890:20892   */\n      0x20\n        /* \"#utility.yul\":20885:20888   */\n      dup3\n        /* \"#utility.yul\":20881:20893   */\n      add\n        /* \"#utility.yul\":20874:20893   */\n      swap1\n      pop\n        /* \"#utility.yul\":20533:20899   */\n      swap2\n      swap1\n      pop\n      jump\t// out\n        /* \"#utility.yul\":20905:21324   */\n    tag_223:\n        /* \"#utility.yul\":21071:21075   */\n      0x00\n        /* \"#utility.yul\":21109:21111   */\n      0x20\n        /* \"#utility.yul\":21098:21107   */\n      dup3\n        /* \"#utility.yul\":21094:21112   */\n      add\n        /* \"#utility.yul\":21086:21112   */\n      swap1\n      pop\n        /* \"#utility.yul\":21158:21167   */\n      dup2\n        /* \"#utility.yul\":21152:21156   */\n      dup2\n        /* \"#utility.yul\":21148:21168   */\n      sub\n        /* \"#utility.yul\":21144:21145   */\n      0x00\n        /* \"#utility.yul\":21133:21142   */\n      dup4\n        /* \"#utility.yul\":21129:21146   */\n      add\n        /* \"#utility.yul\":21122:21169   */\n      mstore\n        /* \"#utility.yul\":21186:21317   */\n      tag_674\n        /* \"#utility.yul\":21312:21316   */\n      dup2\n        /* \"#utility.yul\":21186:21317   */\n      tag_432\n      jump\t// in\n    tag_674:\n        /* \"#utility.yul\":21178:21317   */\n      swap1\n      pop\n        /* \"#utility.yul\":20905:21324   */\n      swap2\n      swap1\n      pop\n      jump\t// out\n        /* \"#utility.yul\":21330:21498   */\n    tag_433:\n        /* \"#utility.yul\":21470:21490   */\n      0x496e73756666696369656e742066756e64730000000000000000000000000000\n        /* \"#utility.yul\":21466:21467   */\n      0x00\n        /* \"#utility.yul\":21458:21464   */\n      dup3\n        /* \"#utility.yul\":21454:21468   */\n      add\n        /* \"#utility.yul\":21447:21491   */\n      mstore\n        /* \"#utility.yul\":21330:21498   */\n      pop\n      jump\t// out\n        /* \"#utility.yul\":21504:21870   */\n    tag_434:\n        /* \"#utility.yul\":21646:21649   */\n      0x00\n        /* \"#utility.yul\":21667:21734   */\n      tag_677\n        /* \"#utility.yul\":21731:21733   */\n      0x12\n        /* \"#utility.yul\":21726:21729   */\n      dup4\n        /* \"#utility.yul\":21667:21734   */\n      tag_385\n      jump\t// in\n    tag_677:\n        /* \"#utility.yul\":21660:21734   */\n      swap2\n      pop\n        /* \"#utility.yul\":21743:21836   */\n      tag_678\n        /* \"#utility.yul\":21832:21835   */\n      dup3\n        /* \"#utility.yul\":21743:21836   */\n      tag_433\n      jump\t// in\n    tag_678:\n        /* \"#utility.yul\":21861:21863   */\n      0x20\n        /* \"#utility.yul\":21856:21859   */\n      dup3\n        /* \"#utility.yul\":21852:21864   */\n      add\n        /* \"#utility.yul\":21845:21864   */\n      swap1\n      pop\n        /* \"#utility.yul\":21504:21870   */\n      swap2\n      swap1\n      pop\n      jump\t// out\n        /* \"#utility.yul\":21876:22295   */\n    tag_226:\n        /* \"#utility.yul\":22042:22046   */\n      0x00\n        /* \"#utility.yul\":22080:22082   */\n      0x20\n        /* \"#utility.yul\":22069:22078   */\n      dup3\n        /* \"#utility.yul\":22065:22083   */\n      add\n        /* \"#utility.yul\":22057:22083   */\n      swap1\n      pop\n        /* \"#utility.yul\":22129:22138   */\n      dup2\n        /* \"#utility.yul\":22123:22127   */\n      dup2\n        /* \"#utility.yul\":22119:22139   */\n      sub\n        /* \"#utility.yul\":22115:22116   */\n      0x00\n        /* \"#utility.yul\":22104:22113   */\n      dup4\n        /* \"#utility.yul\":22100:22117   */\n      add\n        /* \"#utility.yul\":22093:22140   */\n      mstore\n        /* \"#utility.yul\":22157:22288   */\n      tag_680\n        /* \"#utility.yul\":22283:22287   */\n      dup2\n        /* \"#utility.yul\":22157:22288   */\n      tag_434\n      jump\t// in\n    tag_680:\n        /* \"#utility.yul\":22149:22288   */\n      swap1\n      pop\n        /* \"#utility.yul\":21876:22295   */\n      swap2\n      swap1\n      pop\n      jump\t// out\n        /* \"#utility.yul\":22301:22481   */\n    tag_435:\n        /* \"#utility.yul\":22349:22426   */\n      0x4e487b7100000000000000000000000000000000000000000000000000000000\n        /* \"#utility.yul\":22346:22347   */\n      0x00\n        /* \"#utility.yul\":22339:22427   */\n      mstore\n        /* \"#utility.yul\":22446:22450   */\n      0x11\n        /* \"#utility.yul\":22443:22444   */\n      0x04\n        /* \"#utility.yul\":22436:22451   */\n      mstore\n        /* \"#utility.yul\":22470:22474   */\n      0x24\n        /* \"#utility.yul\":22467:22468   */\n      0x00\n        /* \"#utility.yul\":22460:22475   */\n      revert\n        /* \"#utility.yul\":22487:22897   */\n    tag_230:\n        /* \"#utility.yul\":22527:22534   */\n      0x00\n        /* \"#utility.yul\":22550:22570   */\n      tag_683\n        /* \"#utility.yul\":22568:22569   */\n      dup3\n        /* \"#utility.yul\":22550:22570   */\n      tag_389\n      jump\t// in\n    tag_683:\n        /* \"#utility.yul\":22545:22570   */\n      swap2\n      pop\n        /* \"#utility.yul\":22584:22604   */\n      tag_684\n        /* \"#utility.yul\":22602:22603   */\n      dup4\n        /* \"#utility.yul\":22584:22604   */\n      tag_389\n      jump\t// in\n    tag_684:\n        /* \"#utility.yul\":22579:22604   */\n      swap3\n      pop\n        /* \"#utility.yul\":22639:22640   */\n      dup3\n        /* \"#utility.yul\":22636:22637   */\n      dup3\n        /* \"#utility.yul\":22632:22641   */\n      mul\n        /* \"#utility.yul\":22661:22691   */\n      tag_685\n        /* \"#utility.yul\":22679:22690   */\n      dup2\n        /* \"#utility.yul\":22661:22691   */\n      tag_389\n      jump\t// in\n    tag_685:\n        /* \"#utility.yul\":22650:22691   */\n      swap2\n      pop\n        /* \"#utility.yul\":22840:22841   */\n      dup3\n        /* \"#utility.yul\":22831:22838   */\n      dup3\n        /* \"#utility.yul\":22827:22842   */\n      div\n        /* \"#utility.yul\":22824:22825   */\n      dup5\n        /* \"#utility.yul\":22821:22843   */\n      eq\n        /* \"#utility.yul\":22801:22802   */\n      dup4\n        /* \"#utility.yul\":22794:22803   */\n      iszero\n        /* \"#utility.yul\":22774:22857   */\n      or\n        /* \"#utility.yul\":22751:22890   */\n      tag_686\n      jumpi\n        /* \"#utility.yul\":22870:22888   */\n      tag_687\n      tag_435\n      jump\t// in\n    tag_687:\n        /* \"#utility.yul\":22751:22890   */\n    tag_686:\n        /* \"#utility.yul\":22535:22897   */\n      pop\n        /* \"#utility.yul\":22487:22897   */\n      swap3\n      swap2\n      pop\n      pop\n      jump\t// out\n        /* \"#utility.yul\":22903:23083   */\n    tag_318:\n        /* \"#utility.yul\":22951:23028   */\n      0x4e487b7100000000000000000000000000000000000000000000000000000000\n        /* \"#utility.yul\":22948:22949   */\n      0x00\n        /* \"#utility.yul\":22941:23029   */\n      mstore\n        /* \"#utility.yul\":23048:23052   */\n      0x12\n        /* \"#utility.yul\":23045:23046   */\n      0x04\n        /* \"#utility.yul\":23038:23053   */\n      mstore\n        /* \"#utility.yul\":23072:23076   */\n      0x24\n        /* \"#utility.yul\":23069:23070   */\n      0x00\n        /* \"#utility.yul\":23062:23077   */\n      revert\n        /* \"#utility.yul\":23089:23274   */\n    tag_232:\n        /* \"#utility.yul\":23129:23130   */\n      0x00\n        /* \"#utility.yul\":23146:23166   */\n      tag_690\n        /* \"#utility.yul\":23164:23165   */\n      dup3\n        /* \"#utility.yul\":23146:23166   */\n      tag_389\n      jump\t// in\n    tag_690:\n        /* \"#utility.yul\":23141:23166   */\n      swap2\n      pop\n        /* \"#utility.yul\":23180:23200   */\n      tag_691\n        /* \"#utility.yul\":23198:23199   */\n      dup4\n        /* \"#utility.yul\":23180:23200   */\n      tag_389\n      jump\t// in\n    tag_691:\n        /* \"#utility.yul\":23175:23200   */\n      swap3\n      pop\n        /* \"#utility.yul\":23219:23220   */\n      dup3\n        /* \"#utility.yul\":23209:23244   */\n      tag_692\n      jumpi\n        /* \"#utility.yul\":23224:23242   */\n      tag_693\n      tag_318\n      jump\t// in\n    tag_693:\n        /* \"#utility.yul\":23209:23244   */\n    tag_692:\n        /* \"#utility.yul\":23266:23267   */\n      dup3\n        /* \"#utility.yul\":23263:23264   */\n      dup3\n        /* \"#utility.yul\":23259:23268   */\n      div\n        /* \"#utility.yul\":23254:23268   */\n      swap1\n      pop\n        /* \"#utility.yul\":23089:23274   */\n      swap3\n      swap2\n      pop\n      pop\n      jump\t// out\n        /* \"#utility.yul\":23280:23474   */\n    tag_237:\n        /* \"#utility.yul\":23320:23324   */\n      0x00\n        /* \"#utility.yul\":23340:23360   */\n      tag_695\n        /* \"#utility.yul\":23358:23359   */\n      dup3\n        /* \"#utility.yul\":23340:23360   */\n      tag_389\n      jump\t// in\n    tag_695:\n        /* \"#utility.yul\":23335:23360   */\n      swap2\n      pop\n        /* \"#utility.yul\":23374:23394   */\n      tag_696\n        /* \"#utility.yul\":23392:23393   */\n      dup4\n        /* \"#utility.yul\":23374:23394   */\n      tag_389\n      jump\t// in\n    tag_696:\n        /* \"#utility.yul\":23369:23394   */\n      swap3\n      pop\n        /* \"#utility.yul\":23418:23419   */\n      dup3\n        /* \"#utility.yul\":23415:23416   */\n      dup3\n        /* \"#utility.yul\":23411:23420   */\n      sub\n        /* \"#utility.yul\":23403:23420   */\n      swap1\n      pop\n        /* \"#utility.yul\":23442:23443   */\n      dup2\n        /* \"#utility.yul\":23436:23440   */\n      dup2\n        /* \"#utility.yul\":23433:23444   */\n      gt\n        /* \"#utility.yul\":23430:23467   */\n      iszero\n      tag_697\n      jumpi\n        /* \"#utility.yul\":23447:23465   */\n      tag_698\n      tag_435\n      jump\t// in\n    tag_698:\n        /* \"#utility.yul\":23430:23467   */\n    tag_697:\n        /* \"#utility.yul\":23280:23474   */\n      swap3\n      swap2\n      pop\n      pop\n      jump\t// out\n        /* \"#utility.yul\":23480:23578   */\n    tag_436:\n        /* \"#utility.yul\":23531:23537   */\n      0x00\n        /* \"#utility.yul\":23565:23570   */\n      dup2\n        /* \"#utility.yul\":23559:23571   */\n      mload\n        /* \"#utility.yul\":23549:23571   */\n      swap1\n      pop\n        /* \"#utility.yul\":23480:23578   */\n      swap2\n      swap1\n      pop\n      jump\t// out\n        /* \"#utility.yul\":23584:23752   */\n    tag_437:\n        /* \"#utility.yul\":23667:23678   */\n      0x00\n        /* \"#utility.yul\":23701:23707   */\n      dup3\n        /* \"#utility.yul\":23696:23699   */\n      dup3\n        /* \"#utility.yul\":23689:23708   */\n      mstore\n        /* \"#utility.yul\":23741:23745   */\n      0x20\n        /* \"#utility.yul\":23736:23739   */\n      dup3\n        /* \"#utility.yul\":23732:23746   */\n      add\n        /* \"#utility.yul\":23717:23746   */\n      swap1\n      pop\n        /* \"#utility.yul\":23584:23752   */\n      swap3\n      swap2\n      pop\n      pop\n      jump\t// out\n        /* \"#utility.yul\":23758:24131   */\n    tag_438:\n        /* \"#utility.yul\":23844:23847   */\n      0x00\n        /* \"#utility.yul\":23872:23910   */\n      tag_702\n        /* \"#utility.yul\":23904:23909   */\n      dup3\n        /* \"#utility.yul\":23872:23910   */\n      tag_436\n      jump\t// in\n    tag_702:\n        /* \"#utility.yul\":23926:23996   */\n      tag_703\n        /* \"#utility.yul\":23989:23995   */\n      dup2\n        /* \"#utility.yul\":23984:23987   */\n      dup6\n        /* \"#utility.yul\":23926:23996   */\n      tag_437\n      jump\t// in\n    tag_703:\n        /* \"#utility.yul\":23919:23996   */\n      swap4\n      pop\n        /* \"#utility.yul\":24005:24070   */\n      tag_704\n        /* \"#utility.yul\":24063:24069   */\n      dup2\n        /* \"#utility.yul\":24058:24061   */\n      dup6\n        /* \"#utility.yul\":24051:24055   */\n      0x20\n        /* \"#utility.yul\":24044:24049   */\n      dup7\n        /* \"#utility.yul\":24040:24056   */\n      add\n        /* \"#utility.yul\":24005:24070   */\n      tag_386\n      jump\t// in\n    tag_704:\n        /* \"#utility.yul\":24095:24124   */\n      tag_705\n        /* \"#utility.yul\":24117:24123   */\n      dup2\n        /* \"#utility.yul\":24095:24124   */\n      tag_387\n      jump\t// in\n    tag_705:\n        /* \"#utility.yul\":24090:24093   */\n      dup5\n        /* \"#utility.yul\":24086:24125   */\n      add\n        /* \"#utility.yul\":24079:24125   */\n      swap2\n      pop\n        /* \"#utility.yul\":23848:24131   */\n      pop\n        /* \"#utility.yul\":23758:24131   */\n      swap3\n      swap2\n      pop\n      pop\n      jump\t// out\n        /* \"#utility.yul\":24137:24777   */\n    tag_290:\n        /* \"#utility.yul\":24332:24336   */\n      0x00\n        /* \"#utility.yul\":24370:24373   */\n      0x80\n        /* \"#utility.yul\":24359:24368   */\n      dup3\n        /* \"#utility.yul\":24355:24374   */\n      add\n        /* \"#utility.yul\":24347:24374   */\n      swap1\n      pop\n        /* \"#utility.yul\":24384:24455   */\n      tag_707\n        /* \"#utility.yul\":24452:24453   */\n      0x00\n        /* \"#utility.yul\":24441:24450   */\n      dup4\n        /* \"#utility.yul\":24437:24454   */\n      add\n        /* \"#utility.yul\":24428:24434   */\n      dup8\n        /* \"#utility.yul\":24384:24455   */\n      tag_394\n      jump\t// in\n    tag_707:\n        /* \"#utility.yul\":24465:24537   */\n      tag_708\n        /* \"#utility.yul\":24533:24535   */\n      0x20\n        /* \"#utility.yul\":24522:24531   */\n      dup4\n        /* \"#utility.yul\":24518:24536   */\n      add\n        /* \"#utility.yul\":24509:24515   */\n      dup7\n        /* \"#utility.yul\":24465:24537   */\n      tag_394\n      jump\t// in\n    tag_708:\n        /* \"#utility.yul\":24547:24619   */\n      tag_709\n        /* \"#utility.yul\":24615:24617   */\n      0x40\n        /* \"#utility.yul\":24604:24613   */\n      dup4\n        /* \"#utility.yul\":24600:24618   */\n      add\n        /* \"#utility.yul\":24591:24597   */\n      dup6\n        /* \"#utility.yul\":24547:24619   */\n      tag_397\n      jump\t// in\n    tag_709:\n        /* \"#utility.yul\":24666:24675   */\n      dup2\n        /* \"#utility.yul\":24660:24664   */\n      dup2\n        /* \"#utility.yul\":24656:24676   */\n      sub\n        /* \"#utility.yul\":24651:24653   */\n      0x60\n        /* \"#utility.yul\":24640:24649   */\n      dup4\n        /* \"#utility.yul\":24636:24654   */\n      add\n        /* \"#utility.yul\":24629:24677   */\n      mstore\n        /* \"#utility.yul\":24694:24770   */\n      tag_710\n        /* \"#utility.yul\":24765:24769   */\n      dup2\n        /* \"#utility.yul\":24756:24762   */\n      dup5\n        /* \"#utility.yul\":24694:24770   */\n      tag_438\n      jump\t// in\n    tag_710:\n        /* \"#utility.yul\":24686:24770   */\n      swap1\n      pop\n        /* \"#utility.yul\":24137:24777   */\n      swap6\n      swap5\n      pop\n      pop\n      pop\n      pop\n      pop\n      jump\t// out\n        /* \"#utility.yul\":24783:24924   */\n    tag_439:\n        /* \"#utility.yul\":24839:24844   */\n      0x00\n        /* \"#utility.yul\":24870:24876   */\n      dup2\n        /* \"#utility.yul\":24864:24877   */\n      mload\n        /* \"#utility.yul\":24855:24877   */\n      swap1\n      pop\n        /* \"#utility.yul\":24886:24918   */\n      tag_712\n        /* \"#utility.yul\":24912:24917   */\n      dup2\n        /* \"#utility.yul\":24886:24918   */\n      tag_380\n      jump\t// in\n    tag_712:\n        /* \"#utility.yul\":24783:24924   */\n      swap3\n      swap2\n      pop\n      pop\n      jump\t// out\n        /* \"#utility.yul\":24930:25279   */\n    tag_293:\n        /* \"#utility.yul\":24999:25005   */\n      0x00\n        /* \"#utility.yul\":25048:25050   */\n      0x20\n        /* \"#utility.yul\":25036:25045   */\n      dup3\n        /* \"#utility.yul\":25027:25034   */\n      dup5\n        /* \"#utility.yul\":25023:25046   */\n      sub\n        /* \"#utility.yul\":25019:25051   */\n      slt\n        /* \"#utility.yul\":25016:25135   */\n      iszero\n      tag_714\n      jumpi\n        /* \"#utility.yul\":25054:25133   */\n      tag_715\n      tag_377\n      jump\t// in\n    tag_715:\n        /* \"#utility.yul\":25016:25135   */\n    tag_714:\n        /* \"#utility.yul\":25174:25175   */\n      0x00\n        /* \"#utility.yul\":25199:25262   */\n      tag_716\n        /* \"#utility.yul\":25254:25261   */\n      dup5\n        /* \"#utility.yul\":25245:25251   */\n      dup3\n        /* \"#utility.yul\":25234:25243   */\n      dup6\n        /* \"#utility.yul\":25230:25252   */\n      add\n        /* \"#utility.yul\":25199:25262   */\n      tag_439\n      jump\t// in\n    tag_716:\n        /* \"#utility.yul\":25189:25262   */\n      swap2\n      pop\n        /* \"#utility.yul\":25145:25272   */\n      pop\n        /* \"#utility.yul\":24930:25279   */\n      swap3\n      swap2\n      pop\n      pop\n      jump\t// out\n\n    auxdata: 0xa26469706673582212209659d9a928b353700acd3cb0a5e544c2905c887fbfc04cf2621b94cb6b58049f64736f6c63430008150033\n}\n",
				"bytecode": {
					"linkReferences": {},
					"object": "6080604052600a60095534801562000015575f80fd5b50604051620032f8380380620032f883398181016040528101906200003b9190620003b3565b336040518060400160405280600881526020017f596f7572204e46540000000000000000000000000000000000000000000000008152506040518060400160405280600481526020017f594e465400000000000000000000000000000000000000000000000000000000815250815f9081620000b8919062000639565b508060019081620000ca919062000639565b5050505f73ffffffffffffffffffffffffffffffffffffffff168173ffffffffffffffffffffffffffffffffffffffff160362000140575f6040517f1e4fbdf700000000000000000000000000000000000000000000000000000000815260040162000137919062000760565b60405180910390fd5b62000151816200016b60201b60201c565b50806008908162000163919062000639565b50506200077b565b5f60065f9054906101000a900473ffffffffffffffffffffffffffffffffffffffff1690508160065f6101000a81548173ffffffffffffffffffffffffffffffffffffffff021916908373ffffffffffffffffffffffffffffffffffffffff1602179055508173ffffffffffffffffffffffffffffffffffffffff168173ffffffffffffffffffffffffffffffffffffffff167f8be0079c531659141344cd1fd0a4f28419497f9722a3daafe3b4186f6b6457e060405160405180910390a35050565b5f604051905090565b5f80fd5b5f80fd5b5f80fd5b5f80fd5b5f601f19601f8301169050919050565b7f4e487b71000000000000000000000000000000000000000000000000000000005f52604160045260245ffd5b6200028f8262000247565b810181811067ffffffffffffffff82111715620002b157620002b062000257565b5b80604052505050565b5f620002c56200022e565b9050620002d3828262000284565b919050565b5f67ffffffffffffffff821115620002f557620002f462000257565b5b620003008262000247565b9050602081019050919050565b5f5b838110156200032c5780820151818401526020810190506200030f565b5f8484015250505050565b5f6200034d6200034784620002d8565b620002ba565b9050828152602081018484840111156200036c576200036b62000243565b5b620003798482856200030d565b509392505050565b5f82601f8301126200039857620003976200023f565b5b8151620003aa84826020860162000337565b91505092915050565b5f60208284031215620003cb57620003ca62000237565b5b5f82015167ffffffffffffffff811115620003eb57620003ea6200023b565b5b620003f98482850162000381565b91505092915050565b5f81519050919050565b7f4e487b71000000000000000000000000000000000000000000000000000000005f52602260045260245ffd5b5f60028204905060018216806200045157607f821691505b6020821081036200046757620004666200040c565b5b50919050565b5f819050815f5260205f209050919050565b5f6020601f8301049050919050565b5f82821b905092915050565b5f60088302620004cb7fffffffffffffffffffffffffffffffffffffffffffffffffffffffffffffffff826200048e565b620004d786836200048e565b95508019841693508086168417925050509392505050565b5f819050919050565b5f819050919050565b5f620005216200051b6200051584620004ef565b620004f8565b620004ef565b9050919050565b5f819050919050565b6200053c8362000501565b620005546200054b8262000528565b8484546200049a565b825550505050565b5f90565b6200056a6200055c565b6200057781848462000531565b505050565b5b818110156200059e57620005925f8262000560565b6001810190506200057d565b5050565b601f821115620005ed57620005b7816200046d565b620005c2846200047f565b81016020851015620005d2578190505b620005ea620005e1856200047f565b8301826200057c565b50505b505050565b5f82821c905092915050565b5f6200060f5f1984600802620005f2565b1980831691505092915050565b5f620006298383620005fe565b9150826002028217905092915050565b620006448262000402565b67ffffffffffffffff81111562000660576200065f62000257565b5b6200066c825462000439565b62000679828285620005a2565b5f60209050601f831160018114620006af575f84156200069a578287015190505b620006a685826200061c565b86555062000715565b601f198416620006bf866200046d565b5f5b82811015620006e857848901518255600182019150602085019450602081019050620006c1565b8683101562000708578489015162000704601f891682620005fe565b8355505b6001600288020188555050505b505050505050565b5f73ffffffffffffffffffffffffffffffffffffffff82169050919050565b5f62000748826200071d565b9050919050565b6200075a816200073c565b82525050565b5f602082019050620007755f8301846200074f565b92915050565b612b6f80620007895f395ff3fe608060405260043610610129575f3560e01c806370a08231116100aa578063b88d4fde1161006e578063b88d4fde146103de578063c4d1510d14610406578063c87b56dd14610430578063e985e9c51461046c578063ee9cdfb3146104a8578063f2fde38b146104c457610129565b806370a0823114610310578063715018a61461034c5780638da5cb5b1461036257806395d89b411461038c578063a22cb465146103b657610129565b8063265aa621116100f1578063265aa6211461021f57806342842e0e1461025c57806355f804b3146102845780635afa3a72146102ac5780636352211e146102d457610129565b806301ffc9a71461012d57806306fdde0314610169578063081812fc14610193578063095ea7b3146101cf57806323b872dd146101f7575b5f80fd5b348015610138575f80fd5b50610153600480360381019061014e9190611e4c565b6104ec565b6040516101609190611e91565b60405180910390f35b348015610174575f80fd5b5061017d6105cd565b60405161018a9190611f34565b60405180910390f35b34801561019e575f80fd5b506101b960048036038101906101b49190611f87565b61065c565b6040516101c69190611ff1565b60405180910390f35b3480156101da575f80fd5b506101f560048036038101906101f09190612034565b610677565b005b348015610202575f80fd5b5061021d60048036038101906102189190612072565b61068d565b005b34801561022a575f80fd5b5061024560048036038101906102409190611f87565b61078c565b6040516102539291906120d1565b60405180910390f35b348015610267575f80fd5b50610282600480360381019061027d9190612072565b6107cb565b005b34801561028f575f80fd5b506102aa60048036038101906102a59190612224565b6107ea565b005b3480156102b7575f80fd5b506102d260048036038101906102cd919061226b565b610805565b005b3480156102df575f80fd5b506102fa60048036038101906102f59190611f87565b6108c2565b6040516103079190611ff1565b60405180910390f35b34801561031b575f80fd5b50610336600480360381019061033191906122c5565b6108d3565b60405161034391906122f0565b60405180910390f35b348015610357575f80fd5b50610360610989565b005b34801561036d575f80fd5b5061037661099c565b6040516103839190611ff1565b60405180910390f35b348015610397575f80fd5b506103a06109c4565b6040516103ad9190611f34565b60405180910390f35b3480156103c1575f80fd5b506103dc60048036038101906103d79190612333565b610a54565b005b3480156103e9575f80fd5b5061040460048036038101906103ff919061240f565b610a6a565b005b348015610411575f80fd5b5061041a610a87565b60405161042791906122f0565b60405180910390f35b34801561043b575f80fd5b5061045660048036038101906104519190611f87565b610a8d565b6040516104639190611f34565b60405180910390f35b348015610477575f80fd5b50610492600480360381019061048d919061248f565b610af3565b60405161049f9190611e91565b60405180910390f35b6104c260048036038101906104bd9190611f87565b610b81565b005b3480156104cf575f80fd5b506104ea60048036038101906104e591906122c5565b610d6b565b005b5f7f80ac58cd000000000000000000000000000000000000000000000000000000007bffffffffffffffffffffffffffffffffffffffffffffffffffffffff1916827bffffffffffffffffffffffffffffffffffffffffffffffffffffffff191614806105b657507f5b5e139f000000000000000000000000000000000000000000000000000000007bffffffffffffffffffffffffffffffffffffffffffffffffffffffff1916827bffffffffffffffffffffffffffffffffffffffffffffffffffffffff1916145b806105c657506105c582610def565b5b9050919050565b60605f80546105db906124fa565b80601f0160208091040260200160405190810160405280929190818152602001828054610607906124fa565b80156106525780601f1061062957610100808354040283529160200191610652565b820191905f5260205f20905b81548152906001019060200180831161063557829003601f168201915b5050505050905090565b5f61066682610e58565b5061067082610ede565b9050919050565b6106898282610684610f17565b610f1e565b5050565b5f73ffffffffffffffffffffffffffffffffffffffff168273ffffffffffffffffffffffffffffffffffffffff16036106fd575f6040517f64a0ae920000000000000000000000000000000000000000000000000000000081526004016106f49190611ff1565b60405180910390fd5b5f610710838361070b610f17565b610f30565b90508373ffffffffffffffffffffffffffffffffffffffff168173ffffffffffffffffffffffffffffffffffffffff1614610786578382826040517f64283d7b00000000000000000000000000000000000000000000000000000000815260040161077d9392919061252a565b60405180910390fd5b50505050565b600a602052805f5260405f205f91509050805f015f9054906101000a900473ffffffffffffffffffffffffffffffffffffffff16908060010154905082565b6107e583838360405180602001604052805f815250610a6a565b505050565b6107f261113b565b806008908161080191906126fc565b5050565b5f61081060076111c2565b905060405180604001604052803373ffffffffffffffffffffffffffffffffffffffff16815260200183815250600a5f8381526020019081526020015f205f820151815f015f6101000a81548173ffffffffffffffffffffffffffffffffffffffff021916908373ffffffffffffffffffffffffffffffffffffffff160217905550602082015181600101559050506108a933826111ce565b6108b381846112c1565b6108bd60076112cf565b505050565b5f6108cc82610e58565b9050919050565b5f8073ffffffffffffffffffffffffffffffffffffffff168273ffffffffffffffffffffffffffffffffffffffff1603610944575f6040517f89c62b6400000000000000000000000000000000000000000000000000000000815260040161093b9190611ff1565b60405180910390fd5b60035f8373ffffffffffffffffffffffffffffffffffffffff1673ffffffffffffffffffffffffffffffffffffffff1681526020019081526020015f20549050919050565b61099161113b565b61099a5f6112e3565b565b5f60065f9054906101000a900473ffffffffffffffffffffffffffffffffffffffff16905090565b6060600180546109d3906124fa565b80601f01602080910402602001604051908101604052809291908181526020018280546109ff906124fa565b8015610a4a5780601f10610a2157610100808354040283529160200191610a4a565b820191905f5260205f20905b815481529060010190602001808311610a2d57829003601f168201915b5050505050905090565b610a66610a5f610f17565b83836113a6565b5050565b610a7584848461068d565b610a818484848461150f565b50505050565b60095481565b6060610a9882610e58565b505f610aa26116c1565b90505f815111610ac05760405180602001604052805f815250610aeb565b80610aca846116d7565b604051602001610adb929190612805565b6040516020818303038152906040525b915050919050565b5f60055f8473ffffffffffffffffffffffffffffffffffffffff1673ffffffffffffffffffffffffffffffffffffffff1681526020019081526020015f205f8373ffffffffffffffffffffffffffffffffffffffff1673ffffffffffffffffffffffffffffffffffffffff1681526020019081526020015f205f9054906101000a900460ff16905092915050565b610b8a816117a1565b610bc9576040517f08c379a0000000000000000000000000000000000000000000000000000000008152600401610bc090612872565b60405180910390fd5b5f610bd3826108c2565b90505f3390505f600a5f8581526020019081526020015f206001015490508173ffffffffffffffffffffffffffffffffffffffff168373ffffffffffffffffffffffffffffffffffffffff1603610c5f576040517f08c379a0000000000000000000000000000000000000000000000000000000008152600401610c56906128da565b60405180910390fd5b80341015610ca2576040517f08c379a0000000000000000000000000000000000000000000000000000000008152600401610c9990612942565b60405180910390fd5b610cad8383866117b2565b5f606460095483610cbe919061298d565b610cc891906129fb565b9050610cd261099c565b73ffffffffffffffffffffffffffffffffffffffff166108fc8290811502906040515f60405180830381858888f19350505050158015610d14573d5f803e3d5ffd5b508373ffffffffffffffffffffffffffffffffffffffff166108fc8284610d3b9190612a2b565b90811502906040515f60405180830381858888f19350505050158015610d63573d5f803e3d5ffd5b505050505050565b610d7361113b565b5f73ffffffffffffffffffffffffffffffffffffffff168173ffffffffffffffffffffffffffffffffffffffff1603610de3575f6040517f1e4fbdf7000000000000000000000000000000000000000000000000000000008152600401610dda9190611ff1565b60405180910390fd5b610dec816112e3565b50565b5f7f01ffc9a7000000000000000000000000000000000000000000000000000000007bffffffffffffffffffffffffffffffffffffffffffffffffffffffff1916827bffffffffffffffffffffffffffffffffffffffffffffffffffffffff1916149050919050565b5f80610e638361191a565b90505f73ffffffffffffffffffffffffffffffffffffffff168173ffffffffffffffffffffffffffffffffffffffff1603610ed557826040517f7e273289000000000000000000000000000000000000000000000000000000008152600401610ecc91906122f0565b60405180910390fd5b80915050919050565b5f60045f8381526020019081526020015f205f9054906101000a900473ffffffffffffffffffffffffffffffffffffffff169050919050565b5f33905090565b610f2b8383836001611953565b505050565b5f80610f3b8461191a565b90505f73ffffffffffffffffffffffffffffffffffffffff168373ffffffffffffffffffffffffffffffffffffffff1614610f7c57610f7b818486611b12565b5b5f73ffffffffffffffffffffffffffffffffffffffff168173ffffffffffffffffffffffffffffffffffffffff161461100757610fbb5f855f80611953565b600160035f8373ffffffffffffffffffffffffffffffffffffffff1673ffffffffffffffffffffffffffffffffffffffff1681526020019081526020015f205f82825403925050819055505b5f73ffffffffffffffffffffffffffffffffffffffff168573ffffffffffffffffffffffffffffffffffffffff161461108657600160035f8773ffffffffffffffffffffffffffffffffffffffff1673ffffffffffffffffffffffffffffffffffffffff1681526020019081526020015f205f82825401925050819055505b8460025f8681526020019081526020015f205f6101000a81548173ffffffffffffffffffffffffffffffffffffffff021916908373ffffffffffffffffffffffffffffffffffffffff160217905550838573ffffffffffffffffffffffffffffffffffffffff168273ffffffffffffffffffffffffffffffffffffffff167fddf252ad1be2c89b69c2b068fc378daa952ba7f163c4a11628f55a4df523b3ef60405160405180910390a4809150509392505050565b611143610f17565b73ffffffffffffffffffffffffffffffffffffffff1661116161099c565b73ffffffffffffffffffffffffffffffffffffffff16146111c057611184610f17565b6040517f118cdaa70000000000000000000000000000000000000000000000000000000081526004016111b79190611ff1565b60405180910390fd5b565b5f815f01549050919050565b5f73ffffffffffffffffffffffffffffffffffffffff168273ffffffffffffffffffffffffffffffffffffffff160361123e575f6040517f64a0ae920000000000000000000000000000000000000000000000000000000081526004016112359190611ff1565b60405180910390fd5b5f61124a83835f610f30565b90505f73ffffffffffffffffffffffffffffffffffffffff168173ffffffffffffffffffffffffffffffffffffffff16146112bc575f6040517f73c6ac6e0000000000000000000000000000000000000000000000000000000081526004016112b39190611ff1565b60405180910390fd5b505050565b6112cb82826112c1565b5050565b6001815f015f828254019250508190555050565b5f60065f9054906101000a900473ffffffffffffffffffffffffffffffffffffffff1690508160065f6101000a81548173ffffffffffffffffffffffffffffffffffffffff021916908373ffffffffffffffffffffffffffffffffffffffff1602179055508173ffffffffffffffffffffffffffffffffffffffff168173ffffffffffffffffffffffffffffffffffffffff167f8be0079c531659141344cd1fd0a4f28419497f9722a3daafe3b4186f6b6457e060405160405180910390a35050565b5f73ffffffffffffffffffffffffffffffffffffffff168273ffffffffffffffffffffffffffffffffffffffff160361141657816040517f5b08ba1800000000000000000000000000000000000000000000000000000000815260040161140d9190611ff1565b60405180910390fd5b8060055f8573ffffffffffffffffffffffffffffffffffffffff1673ffffffffffffffffffffffffffffffffffffffff1681526020019081526020015f205f8473ffffffffffffffffffffffffffffffffffffffff1673ffffffffffffffffffffffffffffffffffffffff1681526020019081526020015f205f6101000a81548160ff0219169083151502179055508173ffffffffffffffffffffffffffffffffffffffff168373ffffffffffffffffffffffffffffffffffffffff167f17307eab39ab6107e8899845ad3d59bd9653f200f220920489ca2b5937696c31836040516115029190611e91565b60405180910390a3505050565b5f8373ffffffffffffffffffffffffffffffffffffffff163b11156116bb578273ffffffffffffffffffffffffffffffffffffffff1663150b7a02611552610f17565b8685856040518563ffffffff1660e01b81526004016115749493929190612ab0565b6020604051808303815f875af19250505080156115af57506040513d601f19601f820116820180604052508101906115ac9190612b0e565b60015b611630573d805f81146115dd576040519150601f19603f3d011682016040523d82523d5f602084013e6115e2565b606091505b505f81510361162857836040517f64a0ae9200000000000000000000000000000000000000000000000000000000815260040161161f9190611ff1565b60405180910390fd5b805181602001fd5b63150b7a0260e01b7bffffffffffffffffffffffffffffffffffffffffffffffffffffffff1916817bffffffffffffffffffffffffffffffffffffffffffffffffffffffff1916146116b957836040517f64a0ae920000000000000000000000000000000000000000000000000000000081526004016116b09190611ff1565b60405180910390fd5b505b50505050565b606060405180602001604052805f815250905090565b60605f60016116e584611bd5565b0190505f8167ffffffffffffffff81111561170357611702612100565b5b6040519080825280601f01601f1916602001820160405280156117355781602001600182028036833780820191505090505b5090505f82602001820190505b600115611796578080600190039150507f3031323334353637383961626364656600000000000000000000000000000000600a86061a8153600a858161178b5761178a6129ce565b5b0494505f8503611742575b819350505050919050565b5f6117ab826117a1565b9050919050565b5f73ffffffffffffffffffffffffffffffffffffffff168273ffffffffffffffffffffffffffffffffffffffff1603611822575f6040517f64a0ae920000000000000000000000000000000000000000000000000000000081526004016118199190611ff1565b60405180910390fd5b5f61182e83835f610f30565b90505f73ffffffffffffffffffffffffffffffffffffffff168173ffffffffffffffffffffffffffffffffffffffff16036118a057816040517f7e27328900000000000000000000000000000000000000000000000000000000815260040161189791906122f0565b60405180910390fd5b8373ffffffffffffffffffffffffffffffffffffffff168173ffffffffffffffffffffffffffffffffffffffff1614611914578382826040517f64283d7b00000000000000000000000000000000000000000000000000000000815260040161190b9392919061252a565b60405180910390fd5b50505050565b5f60025f8381526020019081526020015f205f9054906101000a900473ffffffffffffffffffffffffffffffffffffffff169050919050565b808061198b57505f73ffffffffffffffffffffffffffffffffffffffff168273ffffffffffffffffffffffffffffffffffffffff1614155b15611abd575f61199a84610e58565b90505f73ffffffffffffffffffffffffffffffffffffffff168373ffffffffffffffffffffffffffffffffffffffff1614158015611a0457508273ffffffffffffffffffffffffffffffffffffffff168173ffffffffffffffffffffffffffffffffffffffff1614155b8015611a175750611a158184610af3565b155b15611a5957826040517fa9fbf51f000000000000000000000000000000000000000000000000000000008152600401611a509190611ff1565b60405180910390fd5b8115611abb57838573ffffffffffffffffffffffffffffffffffffffff168273ffffffffffffffffffffffffffffffffffffffff167f8c5be1e5ebec7d5bd14f71427d1e84f3dd0314c0f7b2291e5b200ac8c7c3b92560405160405180910390a45b505b8360045f8581526020019081526020015f205f6101000a81548173ffffffffffffffffffffffffffffffffffffffff021916908373ffffffffffffffffffffffffffffffffffffffff16021790555050505050565b611b1d838383611d26565b611bd0575f73ffffffffffffffffffffffffffffffffffffffff168373ffffffffffffffffffffffffffffffffffffffff1603611b9157806040517f7e273289000000000000000000000000000000000000000000000000000000008152600401611b8891906122f0565b60405180910390fd5b81816040517f177e802f000000000000000000000000000000000000000000000000000000008152600401611bc79291906120d1565b60405180910390fd5b505050565b5f805f90507a184f03e93ff9f4daa797ed6e38ed64bf6a1f0100000000000000008310611c31577a184f03e93ff9f4daa797ed6e38ed64bf6a1f0100000000000000008381611c2757611c266129ce565b5b0492506040810190505b6d04ee2d6d415b85acef81000000008310611c6e576d04ee2d6d415b85acef81000000008381611c6457611c636129ce565b5b0492506020810190505b662386f26fc100008310611c9d57662386f26fc100008381611c9357611c926129ce565b5b0492506010810190505b6305f5e1008310611cc6576305f5e1008381611cbc57611cbb6129ce565b5b0492506008810190505b6127108310611ceb576127108381611ce157611ce06129ce565b5b0492506004810190505b60648310611d0e5760648381611d0457611d036129ce565b5b0492506002810190505b600a8310611d1d576001810190505b80915050919050565b5f8073ffffffffffffffffffffffffffffffffffffffff168373ffffffffffffffffffffffffffffffffffffffff1614158015611ddd57508273ffffffffffffffffffffffffffffffffffffffff168473ffffffffffffffffffffffffffffffffffffffff161480611d9e5750611d9d8484610af3565b5b80611ddc57508273ffffffffffffffffffffffffffffffffffffffff16611dc483610ede565b73ffffffffffffffffffffffffffffffffffffffff16145b5b90509392505050565b5f604051905090565b5f80fd5b5f80fd5b5f7fffffffff0000000000000000000000000000000000000000000000000000000082169050919050565b611e2b81611df7565b8114611e35575f80fd5b50565b5f81359050611e4681611e22565b92915050565b5f60208284031215611e6157611e60611def565b5b5f611e6e84828501611e38565b91505092915050565b5f8115159050919050565b611e8b81611e77565b82525050565b5f602082019050611ea45f830184611e82565b92915050565b5f81519050919050565b5f82825260208201905092915050565b5f5b83811015611ee1578082015181840152602081019050611ec6565b5f8484015250505050565b5f601f19601f8301169050919050565b5f611f0682611eaa565b611f108185611eb4565b9350611f20818560208601611ec4565b611f2981611eec565b840191505092915050565b5f6020820190508181035f830152611f4c8184611efc565b905092915050565b5f819050919050565b611f6681611f54565b8114611f70575f80fd5b50565b5f81359050611f8181611f5d565b92915050565b5f60208284031215611f9c57611f9b611def565b5b5f611fa984828501611f73565b91505092915050565b5f73ffffffffffffffffffffffffffffffffffffffff82169050919050565b5f611fdb82611fb2565b9050919050565b611feb81611fd1565b82525050565b5f6020820190506120045f830184611fe2565b92915050565b61201381611fd1565b811461201d575f80fd5b50565b5f8135905061202e8161200a565b92915050565b5f806040838503121561204a57612049611def565b5b5f61205785828601612020565b925050602061206885828601611f73565b9150509250929050565b5f805f6060848603121561208957612088611def565b5b5f61209686828701612020565b93505060206120a786828701612020565b92505060406120b886828701611f73565b9150509250925092565b6120cb81611f54565b82525050565b5f6040820190506120e45f830185611fe2565b6120f160208301846120c2565b9392505050565b5f80fd5b5f80fd5b7f4e487b71000000000000000000000000000000000000000000000000000000005f52604160045260245ffd5b61213682611eec565b810181811067ffffffffffffffff8211171561215557612154612100565b5b80604052505050565b5f612167611de6565b9050612173828261212d565b919050565b5f67ffffffffffffffff82111561219257612191612100565b5b61219b82611eec565b9050602081019050919050565b828183375f83830152505050565b5f6121c86121c384612178565b61215e565b9050828152602081018484840111156121e4576121e36120fc565b5b6121ef8482856121a8565b509392505050565b5f82601f83011261220b5761220a6120f8565b5b813561221b8482602086016121b6565b91505092915050565b5f6020828403121561223957612238611def565b5b5f82013567ffffffffffffffff81111561225657612255611df3565b5b612262848285016121f7565b91505092915050565b5f806040838503121561228157612280611def565b5b5f83013567ffffffffffffffff81111561229e5761229d611df3565b5b6122aa858286016121f7565b92505060206122bb85828601611f73565b9150509250929050565b5f602082840312156122da576122d9611def565b5b5f6122e784828501612020565b91505092915050565b5f6020820190506123035f8301846120c2565b92915050565b61231281611e77565b811461231c575f80fd5b50565b5f8135905061232d81612309565b92915050565b5f806040838503121561234957612348611def565b5b5f61235685828601612020565b92505060206123678582860161231f565b9150509250929050565b5f67ffffffffffffffff82111561238b5761238a612100565b5b61239482611eec565b9050602081019050919050565b5f6123b36123ae84612371565b61215e565b9050828152602081018484840111156123cf576123ce6120fc565b5b6123da8482856121a8565b509392505050565b5f82601f8301126123f6576123f56120f8565b5b81356124068482602086016123a1565b91505092915050565b5f805f806080858703121561242757612426611def565b5b5f61243487828801612020565b945050602061244587828801612020565b935050604061245687828801611f73565b925050606085013567ffffffffffffffff81111561247757612476611df3565b5b612483878288016123e2565b91505092959194509250565b5f80604083850312156124a5576124a4611def565b5b5f6124b285828601612020565b92505060206124c385828601612020565b9150509250929050565b7f4e487b71000000000000000000000000000000000000000000000000000000005f52602260045260245ffd5b5f600282049050600182168061251157607f821691505b602082108103612524576125236124cd565b5b50919050565b5f60608201905061253d5f830186611fe2565b61254a60208301856120c2565b6125576040830184611fe2565b949350505050565b5f819050815f5260205f209050919050565b5f6020601f8301049050919050565b5f82821b905092915050565b5f600883026125bb7fffffffffffffffffffffffffffffffffffffffffffffffffffffffffffffffff82612580565b6125c58683612580565b95508019841693508086168417925050509392505050565b5f819050919050565b5f6126006125fb6125f684611f54565b6125dd565b611f54565b9050919050565b5f819050919050565b612619836125e6565b61262d61262582612607565b84845461258c565b825550505050565b5f90565b612641612635565b61264c818484612610565b505050565b5b8181101561266f576126645f82612639565b600181019050612652565b5050565b601f8211156126b4576126858161255f565b61268e84612571565b8101602085101561269d578190505b6126b16126a985612571565b830182612651565b50505b505050565b5f82821c905092915050565b5f6126d45f19846008026126b9565b1980831691505092915050565b5f6126ec83836126c5565b9150826002028217905092915050565b61270582611eaa565b67ffffffffffffffff81111561271e5761271d612100565b5b61272882546124fa565b612733828285612673565b5f60209050601f831160018114612764575f8415612752578287015190505b61275c85826126e1565b8655506127c3565b601f1984166127728661255f565b5f5b8281101561279957848901518255600182019150602085019450602081019050612774565b868310156127b657848901516127b2601f8916826126c5565b8355505b6001600288020188555050505b505050505050565b5f81905092915050565b5f6127df82611eaa565b6127e981856127cb565b93506127f9818560208601611ec4565b80840191505092915050565b5f61281082856127d5565b915061281c82846127d5565b91508190509392505050565b7f546f6b656e20646f6573206e6f742065786973740000000000000000000000005f82015250565b5f61285c601483611eb4565b915061286782612828565b602082019050919050565b5f6020820190508181035f83015261288981612850565b9050919050565b7f43616e6e6f742062757920796f7572206f776e204e46540000000000000000005f82015250565b5f6128c4601783611eb4565b91506128cf82612890565b602082019050919050565b5f6020820190508181035f8301526128f1816128b8565b9050919050565b7f496e73756666696369656e742066756e647300000000000000000000000000005f82015250565b5f61292c601283611eb4565b9150612937826128f8565b602082019050919050565b5f6020820190508181035f83015261295981612920565b9050919050565b7f4e487b71000000000000000000000000000000000000000000000000000000005f52601160045260245ffd5b5f61299782611f54565b91506129a283611f54565b92508282026129b081611f54565b915082820484148315176129c7576129c6612960565b5b5092915050565b7f4e487b71000000000000000000000000000000000000000000000000000000005f52601260045260245ffd5b5f612a0582611f54565b9150612a1083611f54565b925082612a2057612a1f6129ce565b5b828204905092915050565b5f612a3582611f54565b9150612a4083611f54565b9250828203905081811115612a5857612a57612960565b5b92915050565b5f81519050919050565b5f82825260208201905092915050565b5f612a8282612a5e565b612a8c8185612a68565b9350612a9c818560208601611ec4565b612aa581611eec565b840191505092915050565b5f608082019050612ac35f830187611fe2565b612ad06020830186611fe2565b612add60408301856120c2565b8181036060830152612aef8184612a78565b905095945050505050565b5f81519050612b0881611e22565b92915050565b5f60208284031215612b2357612b22611def565b5b5f612b3084828501612afa565b9150509291505056fea26469706673582212209659d9a928b353700acd3cb0a5e544c2905c887fbfc04cf2621b94cb6b58049f64736f6c63430008150033",
					"opcodes": "PUSH1 0x80 PUSH1 0x40 MSTORE PUSH1 0xA PUSH1 0x9 SSTORE CALLVALUE DUP1 ISZERO PUSH3 0x15 JUMPI PUSH0 DUP1 REVERT JUMPDEST POP PUSH1 0x40 MLOAD PUSH3 0x32F8 CODESIZE SUB DUP1 PUSH3 0x32F8 DUP4 CODECOPY DUP2 DUP2 ADD PUSH1 0x40 MSTORE DUP2 ADD SWAP1 PUSH3 0x3B SWAP2 SWAP1 PUSH3 0x3B3 JUMP JUMPDEST CALLER PUSH1 0x40 MLOAD DUP1 PUSH1 0x40 ADD PUSH1 0x40 MSTORE DUP1 PUSH1 0x8 DUP2 MSTORE PUSH1 0x20 ADD PUSH32 0x596F7572204E4654000000000000000000000000000000000000000000000000 DUP2 MSTORE POP PUSH1 0x40 MLOAD DUP1 PUSH1 0x40 ADD PUSH1 0x40 MSTORE DUP1 PUSH1 0x4 DUP2 MSTORE PUSH1 0x20 ADD PUSH32 0x594E465400000000000000000000000000000000000000000000000000000000 DUP2 MSTORE POP DUP2 PUSH0 SWAP1 DUP2 PUSH3 0xB8 SWAP2 SWAP1 PUSH3 0x639 JUMP JUMPDEST POP DUP1 PUSH1 0x1 SWAP1 DUP2 PUSH3 0xCA SWAP2 SWAP1 PUSH3 0x639 JUMP JUMPDEST POP POP POP PUSH0 PUSH20 0xFFFFFFFFFFFFFFFFFFFFFFFFFFFFFFFFFFFFFFFF AND DUP2 PUSH20 0xFFFFFFFFFFFFFFFFFFFFFFFFFFFFFFFFFFFFFFFF AND SUB PUSH3 0x140 JUMPI PUSH0 PUSH1 0x40 MLOAD PUSH32 0x1E4FBDF700000000000000000000000000000000000000000000000000000000 DUP2 MSTORE PUSH1 0x4 ADD PUSH3 0x137 SWAP2 SWAP1 PUSH3 0x760 JUMP JUMPDEST PUSH1 0x40 MLOAD DUP1 SWAP2 SUB SWAP1 REVERT JUMPDEST PUSH3 0x151 DUP2 PUSH3 0x16B PUSH1 0x20 SHL PUSH1 0x20 SHR JUMP JUMPDEST POP DUP1 PUSH1 0x8 SWAP1 DUP2 PUSH3 0x163 SWAP2 SWAP1 PUSH3 0x639 JUMP JUMPDEST POP POP PUSH3 0x77B JUMP JUMPDEST PUSH0 PUSH1 0x6 PUSH0 SWAP1 SLOAD SWAP1 PUSH2 0x100 EXP SWAP1 DIV PUSH20 0xFFFFFFFFFFFFFFFFFFFFFFFFFFFFFFFFFFFFFFFF AND SWAP1 POP DUP2 PUSH1 0x6 PUSH0 PUSH2 0x100 EXP DUP2 SLOAD DUP2 PUSH20 0xFFFFFFFFFFFFFFFFFFFFFFFFFFFFFFFFFFFFFFFF MUL NOT AND SWAP1 DUP4 PUSH20 0xFFFFFFFFFFFFFFFFFFFFFFFFFFFFFFFFFFFFFFFF AND MUL OR SWAP1 SSTORE POP DUP2 PUSH20 0xFFFFFFFFFFFFFFFFFFFFFFFFFFFFFFFFFFFFFFFF AND DUP2 PUSH20 0xFFFFFFFFFFFFFFFFFFFFFFFFFFFFFFFFFFFFFFFF AND PUSH32 0x8BE0079C531659141344CD1FD0A4F28419497F9722A3DAAFE3B4186F6B6457E0 PUSH1 0x40 MLOAD PUSH1 0x40 MLOAD DUP1 SWAP2 SUB SWAP1 LOG3 POP POP JUMP JUMPDEST PUSH0 PUSH1 0x40 MLOAD SWAP1 POP SWAP1 JUMP JUMPDEST PUSH0 DUP1 REVERT JUMPDEST PUSH0 DUP1 REVERT JUMPDEST PUSH0 DUP1 REVERT JUMPDEST PUSH0 DUP1 REVERT JUMPDEST PUSH0 PUSH1 0x1F NOT PUSH1 0x1F DUP4 ADD AND SWAP1 POP SWAP2 SWAP1 POP JUMP JUMPDEST PUSH32 0x4E487B7100000000000000000000000000000000000000000000000000000000 PUSH0 MSTORE PUSH1 0x41 PUSH1 0x4 MSTORE PUSH1 0x24 PUSH0 REVERT JUMPDEST PUSH3 0x28F DUP3 PUSH3 0x247 JUMP JUMPDEST DUP2 ADD DUP2 DUP2 LT PUSH8 0xFFFFFFFFFFFFFFFF DUP3 GT OR ISZERO PUSH3 0x2B1 JUMPI PUSH3 0x2B0 PUSH3 0x257 JUMP JUMPDEST JUMPDEST DUP1 PUSH1 0x40 MSTORE POP POP POP JUMP JUMPDEST PUSH0 PUSH3 0x2C5 PUSH3 0x22E JUMP JUMPDEST SWAP1 POP PUSH3 0x2D3 DUP3 DUP3 PUSH3 0x284 JUMP JUMPDEST SWAP2 SWAP1 POP JUMP JUMPDEST PUSH0 PUSH8 0xFFFFFFFFFFFFFFFF DUP3 GT ISZERO PUSH3 0x2F5 JUMPI PUSH3 0x2F4 PUSH3 0x257 JUMP JUMPDEST JUMPDEST PUSH3 0x300 DUP3 PUSH3 0x247 JUMP JUMPDEST SWAP1 POP PUSH1 0x20 DUP2 ADD SWAP1 POP SWAP2 SWAP1 POP JUMP JUMPDEST PUSH0 JUMPDEST DUP4 DUP2 LT ISZERO PUSH3 0x32C JUMPI DUP1 DUP3 ADD MLOAD DUP2 DUP5 ADD MSTORE PUSH1 0x20 DUP2 ADD SWAP1 POP PUSH3 0x30F JUMP JUMPDEST PUSH0 DUP5 DUP5 ADD MSTORE POP POP POP POP JUMP JUMPDEST PUSH0 PUSH3 0x34D PUSH3 0x347 DUP5 PUSH3 0x2D8 JUMP JUMPDEST PUSH3 0x2BA JUMP JUMPDEST SWAP1 POP DUP3 DUP2 MSTORE PUSH1 0x20 DUP2 ADD DUP5 DUP5 DUP5 ADD GT ISZERO PUSH3 0x36C JUMPI PUSH3 0x36B PUSH3 0x243 JUMP JUMPDEST JUMPDEST PUSH3 0x379 DUP5 DUP3 DUP6 PUSH3 0x30D JUMP JUMPDEST POP SWAP4 SWAP3 POP POP POP JUMP JUMPDEST PUSH0 DUP3 PUSH1 0x1F DUP4 ADD SLT PUSH3 0x398 JUMPI PUSH3 0x397 PUSH3 0x23F JUMP JUMPDEST JUMPDEST DUP2 MLOAD PUSH3 0x3AA DUP5 DUP3 PUSH1 0x20 DUP7 ADD PUSH3 0x337 JUMP JUMPDEST SWAP2 POP POP SWAP3 SWAP2 POP POP JUMP JUMPDEST PUSH0 PUSH1 0x20 DUP3 DUP5 SUB SLT ISZERO PUSH3 0x3CB JUMPI PUSH3 0x3CA PUSH3 0x237 JUMP JUMPDEST JUMPDEST PUSH0 DUP3 ADD MLOAD PUSH8 0xFFFFFFFFFFFFFFFF DUP2 GT ISZERO PUSH3 0x3EB JUMPI PUSH3 0x3EA PUSH3 0x23B JUMP JUMPDEST JUMPDEST PUSH3 0x3F9 DUP5 DUP3 DUP6 ADD PUSH3 0x381 JUMP JUMPDEST SWAP2 POP POP SWAP3 SWAP2 POP POP JUMP JUMPDEST PUSH0 DUP2 MLOAD SWAP1 POP SWAP2 SWAP1 POP JUMP JUMPDEST PUSH32 0x4E487B7100000000000000000000000000000000000000000000000000000000 PUSH0 MSTORE PUSH1 0x22 PUSH1 0x4 MSTORE PUSH1 0x24 PUSH0 REVERT JUMPDEST PUSH0 PUSH1 0x2 DUP3 DIV SWAP1 POP PUSH1 0x1 DUP3 AND DUP1 PUSH3 0x451 JUMPI PUSH1 0x7F DUP3 AND SWAP2 POP JUMPDEST PUSH1 0x20 DUP3 LT DUP2 SUB PUSH3 0x467 JUMPI PUSH3 0x466 PUSH3 0x40C JUMP JUMPDEST JUMPDEST POP SWAP2 SWAP1 POP JUMP JUMPDEST PUSH0 DUP2 SWAP1 POP DUP2 PUSH0 MSTORE PUSH1 0x20 PUSH0 KECCAK256 SWAP1 POP SWAP2 SWAP1 POP JUMP JUMPDEST PUSH0 PUSH1 0x20 PUSH1 0x1F DUP4 ADD DIV SWAP1 POP SWAP2 SWAP1 POP JUMP JUMPDEST PUSH0 DUP3 DUP3 SHL SWAP1 POP SWAP3 SWAP2 POP POP JUMP JUMPDEST PUSH0 PUSH1 0x8 DUP4 MUL PUSH3 0x4CB PUSH32 0xFFFFFFFFFFFFFFFFFFFFFFFFFFFFFFFFFFFFFFFFFFFFFFFFFFFFFFFFFFFFFFFF DUP3 PUSH3 0x48E JUMP JUMPDEST PUSH3 0x4D7 DUP7 DUP4 PUSH3 0x48E JUMP JUMPDEST SWAP6 POP DUP1 NOT DUP5 AND SWAP4 POP DUP1 DUP7 AND DUP5 OR SWAP3 POP POP POP SWAP4 SWAP3 POP POP POP JUMP JUMPDEST PUSH0 DUP2 SWAP1 POP SWAP2 SWAP1 POP JUMP JUMPDEST PUSH0 DUP2 SWAP1 POP SWAP2 SWAP1 POP JUMP JUMPDEST PUSH0 PUSH3 0x521 PUSH3 0x51B PUSH3 0x515 DUP5 PUSH3 0x4EF JUMP JUMPDEST PUSH3 0x4F8 JUMP JUMPDEST PUSH3 0x4EF JUMP JUMPDEST SWAP1 POP SWAP2 SWAP1 POP JUMP JUMPDEST PUSH0 DUP2 SWAP1 POP SWAP2 SWAP1 POP JUMP JUMPDEST PUSH3 0x53C DUP4 PUSH3 0x501 JUMP JUMPDEST PUSH3 0x554 PUSH3 0x54B DUP3 PUSH3 0x528 JUMP JUMPDEST DUP5 DUP5 SLOAD PUSH3 0x49A JUMP JUMPDEST DUP3 SSTORE POP POP POP POP JUMP JUMPDEST PUSH0 SWAP1 JUMP JUMPDEST PUSH3 0x56A PUSH3 0x55C JUMP JUMPDEST PUSH3 0x577 DUP2 DUP5 DUP5 PUSH3 0x531 JUMP JUMPDEST POP POP POP JUMP JUMPDEST JUMPDEST DUP2 DUP2 LT ISZERO PUSH3 0x59E JUMPI PUSH3 0x592 PUSH0 DUP3 PUSH3 0x560 JUMP JUMPDEST PUSH1 0x1 DUP2 ADD SWAP1 POP PUSH3 0x57D JUMP JUMPDEST POP POP JUMP JUMPDEST PUSH1 0x1F DUP3 GT ISZERO PUSH3 0x5ED JUMPI PUSH3 0x5B7 DUP2 PUSH3 0x46D JUMP JUMPDEST PUSH3 0x5C2 DUP5 PUSH3 0x47F JUMP JUMPDEST DUP2 ADD PUSH1 0x20 DUP6 LT ISZERO PUSH3 0x5D2 JUMPI DUP2 SWAP1 POP JUMPDEST PUSH3 0x5EA PUSH3 0x5E1 DUP6 PUSH3 0x47F JUMP JUMPDEST DUP4 ADD DUP3 PUSH3 0x57C JUMP JUMPDEST POP POP JUMPDEST POP POP POP JUMP JUMPDEST PUSH0 DUP3 DUP3 SHR SWAP1 POP SWAP3 SWAP2 POP POP JUMP JUMPDEST PUSH0 PUSH3 0x60F PUSH0 NOT DUP5 PUSH1 0x8 MUL PUSH3 0x5F2 JUMP JUMPDEST NOT DUP1 DUP4 AND SWAP2 POP POP SWAP3 SWAP2 POP POP JUMP JUMPDEST PUSH0 PUSH3 0x629 DUP4 DUP4 PUSH3 0x5FE JUMP JUMPDEST SWAP2 POP DUP3 PUSH1 0x2 MUL DUP3 OR SWAP1 POP SWAP3 SWAP2 POP POP JUMP JUMPDEST PUSH3 0x644 DUP3 PUSH3 0x402 JUMP JUMPDEST PUSH8 0xFFFFFFFFFFFFFFFF DUP2 GT ISZERO PUSH3 0x660 JUMPI PUSH3 0x65F PUSH3 0x257 JUMP JUMPDEST JUMPDEST PUSH3 0x66C DUP3 SLOAD PUSH3 0x439 JUMP JUMPDEST PUSH3 0x679 DUP3 DUP3 DUP6 PUSH3 0x5A2 JUMP JUMPDEST PUSH0 PUSH1 0x20 SWAP1 POP PUSH1 0x1F DUP4 GT PUSH1 0x1 DUP2 EQ PUSH3 0x6AF JUMPI PUSH0 DUP5 ISZERO PUSH3 0x69A JUMPI DUP3 DUP8 ADD MLOAD SWAP1 POP JUMPDEST PUSH3 0x6A6 DUP6 DUP3 PUSH3 0x61C JUMP JUMPDEST DUP7 SSTORE POP PUSH3 0x715 JUMP JUMPDEST PUSH1 0x1F NOT DUP5 AND PUSH3 0x6BF DUP7 PUSH3 0x46D JUMP JUMPDEST PUSH0 JUMPDEST DUP3 DUP2 LT ISZERO PUSH3 0x6E8 JUMPI DUP5 DUP10 ADD MLOAD DUP3 SSTORE PUSH1 0x1 DUP3 ADD SWAP2 POP PUSH1 0x20 DUP6 ADD SWAP5 POP PUSH1 0x20 DUP2 ADD SWAP1 POP PUSH3 0x6C1 JUMP JUMPDEST DUP7 DUP4 LT ISZERO PUSH3 0x708 JUMPI DUP5 DUP10 ADD MLOAD PUSH3 0x704 PUSH1 0x1F DUP10 AND DUP3 PUSH3 0x5FE JUMP JUMPDEST DUP4 SSTORE POP JUMPDEST PUSH1 0x1 PUSH1 0x2 DUP9 MUL ADD DUP9 SSTORE POP POP POP JUMPDEST POP POP POP POP POP POP JUMP JUMPDEST PUSH0 PUSH20 0xFFFFFFFFFFFFFFFFFFFFFFFFFFFFFFFFFFFFFFFF DUP3 AND SWAP1 POP SWAP2 SWAP1 POP JUMP JUMPDEST PUSH0 PUSH3 0x748 DUP3 PUSH3 0x71D JUMP JUMPDEST SWAP1 POP SWAP2 SWAP1 POP JUMP JUMPDEST PUSH3 0x75A DUP2 PUSH3 0x73C JUMP JUMPDEST DUP3 MSTORE POP POP JUMP JUMPDEST PUSH0 PUSH1 0x20 DUP3 ADD SWAP1 POP PUSH3 0x775 PUSH0 DUP4 ADD DUP5 PUSH3 0x74F JUMP JUMPDEST SWAP3 SWAP2 POP POP JUMP JUMPDEST PUSH2 0x2B6F DUP1 PUSH3 0x789 PUSH0 CODECOPY PUSH0 RETURN INVALID PUSH1 0x80 PUSH1 0x40 MSTORE PUSH1 0x4 CALLDATASIZE LT PUSH2 0x129 JUMPI PUSH0 CALLDATALOAD PUSH1 0xE0 SHR DUP1 PUSH4 0x70A08231 GT PUSH2 0xAA JUMPI DUP1 PUSH4 0xB88D4FDE GT PUSH2 0x6E JUMPI DUP1 PUSH4 0xB88D4FDE EQ PUSH2 0x3DE JUMPI DUP1 PUSH4 0xC4D1510D EQ PUSH2 0x406 JUMPI DUP1 PUSH4 0xC87B56DD EQ PUSH2 0x430 JUMPI DUP1 PUSH4 0xE985E9C5 EQ PUSH2 0x46C JUMPI DUP1 PUSH4 0xEE9CDFB3 EQ PUSH2 0x4A8 JUMPI DUP1 PUSH4 0xF2FDE38B EQ PUSH2 0x4C4 JUMPI PUSH2 0x129 JUMP JUMPDEST DUP1 PUSH4 0x70A08231 EQ PUSH2 0x310 JUMPI DUP1 PUSH4 0x715018A6 EQ PUSH2 0x34C JUMPI DUP1 PUSH4 0x8DA5CB5B EQ PUSH2 0x362 JUMPI DUP1 PUSH4 0x95D89B41 EQ PUSH2 0x38C JUMPI DUP1 PUSH4 0xA22CB465 EQ PUSH2 0x3B6 JUMPI PUSH2 0x129 JUMP JUMPDEST DUP1 PUSH4 0x265AA621 GT PUSH2 0xF1 JUMPI DUP1 PUSH4 0x265AA621 EQ PUSH2 0x21F JUMPI DUP1 PUSH4 0x42842E0E EQ PUSH2 0x25C JUMPI DUP1 PUSH4 0x55F804B3 EQ PUSH2 0x284 JUMPI DUP1 PUSH4 0x5AFA3A72 EQ PUSH2 0x2AC JUMPI DUP1 PUSH4 0x6352211E EQ PUSH2 0x2D4 JUMPI PUSH2 0x129 JUMP JUMPDEST DUP1 PUSH4 0x1FFC9A7 EQ PUSH2 0x12D JUMPI DUP1 PUSH4 0x6FDDE03 EQ PUSH2 0x169 JUMPI DUP1 PUSH4 0x81812FC EQ PUSH2 0x193 JUMPI DUP1 PUSH4 0x95EA7B3 EQ PUSH2 0x1CF JUMPI DUP1 PUSH4 0x23B872DD EQ PUSH2 0x1F7 JUMPI JUMPDEST PUSH0 DUP1 REVERT JUMPDEST CALLVALUE DUP1 ISZERO PUSH2 0x138 JUMPI PUSH0 DUP1 REVERT JUMPDEST POP PUSH2 0x153 PUSH1 0x4 DUP1 CALLDATASIZE SUB DUP2 ADD SWAP1 PUSH2 0x14E SWAP2 SWAP1 PUSH2 0x1E4C JUMP JUMPDEST PUSH2 0x4EC JUMP JUMPDEST PUSH1 0x40 MLOAD PUSH2 0x160 SWAP2 SWAP1 PUSH2 0x1E91 JUMP JUMPDEST PUSH1 0x40 MLOAD DUP1 SWAP2 SUB SWAP1 RETURN JUMPDEST CALLVALUE DUP1 ISZERO PUSH2 0x174 JUMPI PUSH0 DUP1 REVERT JUMPDEST POP PUSH2 0x17D PUSH2 0x5CD JUMP JUMPDEST PUSH1 0x40 MLOAD PUSH2 0x18A SWAP2 SWAP1 PUSH2 0x1F34 JUMP JUMPDEST PUSH1 0x40 MLOAD DUP1 SWAP2 SUB SWAP1 RETURN JUMPDEST CALLVALUE DUP1 ISZERO PUSH2 0x19E JUMPI PUSH0 DUP1 REVERT JUMPDEST POP PUSH2 0x1B9 PUSH1 0x4 DUP1 CALLDATASIZE SUB DUP2 ADD SWAP1 PUSH2 0x1B4 SWAP2 SWAP1 PUSH2 0x1F87 JUMP JUMPDEST PUSH2 0x65C JUMP JUMPDEST PUSH1 0x40 MLOAD PUSH2 0x1C6 SWAP2 SWAP1 PUSH2 0x1FF1 JUMP JUMPDEST PUSH1 0x40 MLOAD DUP1 SWAP2 SUB SWAP1 RETURN JUMPDEST CALLVALUE DUP1 ISZERO PUSH2 0x1DA JUMPI PUSH0 DUP1 REVERT JUMPDEST POP PUSH2 0x1F5 PUSH1 0x4 DUP1 CALLDATASIZE SUB DUP2 ADD SWAP1 PUSH2 0x1F0 SWAP2 SWAP1 PUSH2 0x2034 JUMP JUMPDEST PUSH2 0x677 JUMP JUMPDEST STOP JUMPDEST CALLVALUE DUP1 ISZERO PUSH2 0x202 JUMPI PUSH0 DUP1 REVERT JUMPDEST POP PUSH2 0x21D PUSH1 0x4 DUP1 CALLDATASIZE SUB DUP2 ADD SWAP1 PUSH2 0x218 SWAP2 SWAP1 PUSH2 0x2072 JUMP JUMPDEST PUSH2 0x68D JUMP JUMPDEST STOP JUMPDEST CALLVALUE DUP1 ISZERO PUSH2 0x22A JUMPI PUSH0 DUP1 REVERT JUMPDEST POP PUSH2 0x245 PUSH1 0x4 DUP1 CALLDATASIZE SUB DUP2 ADD SWAP1 PUSH2 0x240 SWAP2 SWAP1 PUSH2 0x1F87 JUMP JUMPDEST PUSH2 0x78C JUMP JUMPDEST PUSH1 0x40 MLOAD PUSH2 0x253 SWAP3 SWAP2 SWAP1 PUSH2 0x20D1 JUMP JUMPDEST PUSH1 0x40 MLOAD DUP1 SWAP2 SUB SWAP1 RETURN JUMPDEST CALLVALUE DUP1 ISZERO PUSH2 0x267 JUMPI PUSH0 DUP1 REVERT JUMPDEST POP PUSH2 0x282 PUSH1 0x4 DUP1 CALLDATASIZE SUB DUP2 ADD SWAP1 PUSH2 0x27D SWAP2 SWAP1 PUSH2 0x2072 JUMP JUMPDEST PUSH2 0x7CB JUMP JUMPDEST STOP JUMPDEST CALLVALUE DUP1 ISZERO PUSH2 0x28F JUMPI PUSH0 DUP1 REVERT JUMPDEST POP PUSH2 0x2AA PUSH1 0x4 DUP1 CALLDATASIZE SUB DUP2 ADD SWAP1 PUSH2 0x2A5 SWAP2 SWAP1 PUSH2 0x2224 JUMP JUMPDEST PUSH2 0x7EA JUMP JUMPDEST STOP JUMPDEST CALLVALUE DUP1 ISZERO PUSH2 0x2B7 JUMPI PUSH0 DUP1 REVERT JUMPDEST POP PUSH2 0x2D2 PUSH1 0x4 DUP1 CALLDATASIZE SUB DUP2 ADD SWAP1 PUSH2 0x2CD SWAP2 SWAP1 PUSH2 0x226B JUMP JUMPDEST PUSH2 0x805 JUMP JUMPDEST STOP JUMPDEST CALLVALUE DUP1 ISZERO PUSH2 0x2DF JUMPI PUSH0 DUP1 REVERT JUMPDEST POP PUSH2 0x2FA PUSH1 0x4 DUP1 CALLDATASIZE SUB DUP2 ADD SWAP1 PUSH2 0x2F5 SWAP2 SWAP1 PUSH2 0x1F87 JUMP JUMPDEST PUSH2 0x8C2 JUMP JUMPDEST PUSH1 0x40 MLOAD PUSH2 0x307 SWAP2 SWAP1 PUSH2 0x1FF1 JUMP JUMPDEST PUSH1 0x40 MLOAD DUP1 SWAP2 SUB SWAP1 RETURN JUMPDEST CALLVALUE DUP1 ISZERO PUSH2 0x31B JUMPI PUSH0 DUP1 REVERT JUMPDEST POP PUSH2 0x336 PUSH1 0x4 DUP1 CALLDATASIZE SUB DUP2 ADD SWAP1 PUSH2 0x331 SWAP2 SWAP1 PUSH2 0x22C5 JUMP JUMPDEST PUSH2 0x8D3 JUMP JUMPDEST PUSH1 0x40 MLOAD PUSH2 0x343 SWAP2 SWAP1 PUSH2 0x22F0 JUMP JUMPDEST PUSH1 0x40 MLOAD DUP1 SWAP2 SUB SWAP1 RETURN JUMPDEST CALLVALUE DUP1 ISZERO PUSH2 0x357 JUMPI PUSH0 DUP1 REVERT JUMPDEST POP PUSH2 0x360 PUSH2 0x989 JUMP JUMPDEST STOP JUMPDEST CALLVALUE DUP1 ISZERO PUSH2 0x36D JUMPI PUSH0 DUP1 REVERT JUMPDEST POP PUSH2 0x376 PUSH2 0x99C JUMP JUMPDEST PUSH1 0x40 MLOAD PUSH2 0x383 SWAP2 SWAP1 PUSH2 0x1FF1 JUMP JUMPDEST PUSH1 0x40 MLOAD DUP1 SWAP2 SUB SWAP1 RETURN JUMPDEST CALLVALUE DUP1 ISZERO PUSH2 0x397 JUMPI PUSH0 DUP1 REVERT JUMPDEST POP PUSH2 0x3A0 PUSH2 0x9C4 JUMP JUMPDEST PUSH1 0x40 MLOAD PUSH2 0x3AD SWAP2 SWAP1 PUSH2 0x1F34 JUMP JUMPDEST PUSH1 0x40 MLOAD DUP1 SWAP2 SUB SWAP1 RETURN JUMPDEST CALLVALUE DUP1 ISZERO PUSH2 0x3C1 JUMPI PUSH0 DUP1 REVERT JUMPDEST POP PUSH2 0x3DC PUSH1 0x4 DUP1 CALLDATASIZE SUB DUP2 ADD SWAP1 PUSH2 0x3D7 SWAP2 SWAP1 PUSH2 0x2333 JUMP JUMPDEST PUSH2 0xA54 JUMP JUMPDEST STOP JUMPDEST CALLVALUE DUP1 ISZERO PUSH2 0x3E9 JUMPI PUSH0 DUP1 REVERT JUMPDEST POP PUSH2 0x404 PUSH1 0x4 DUP1 CALLDATASIZE SUB DUP2 ADD SWAP1 PUSH2 0x3FF SWAP2 SWAP1 PUSH2 0x240F JUMP JUMPDEST PUSH2 0xA6A JUMP JUMPDEST STOP JUMPDEST CALLVALUE DUP1 ISZERO PUSH2 0x411 JUMPI PUSH0 DUP1 REVERT JUMPDEST POP PUSH2 0x41A PUSH2 0xA87 JUMP JUMPDEST PUSH1 0x40 MLOAD PUSH2 0x427 SWAP2 SWAP1 PUSH2 0x22F0 JUMP JUMPDEST PUSH1 0x40 MLOAD DUP1 SWAP2 SUB SWAP1 RETURN JUMPDEST CALLVALUE DUP1 ISZERO PUSH2 0x43B JUMPI PUSH0 DUP1 REVERT JUMPDEST POP PUSH2 0x456 PUSH1 0x4 DUP1 CALLDATASIZE SUB DUP2 ADD SWAP1 PUSH2 0x451 SWAP2 SWAP1 PUSH2 0x1F87 JUMP JUMPDEST PUSH2 0xA8D JUMP JUMPDEST PUSH1 0x40 MLOAD PUSH2 0x463 SWAP2 SWAP1 PUSH2 0x1F34 JUMP JUMPDEST PUSH1 0x40 MLOAD DUP1 SWAP2 SUB SWAP1 RETURN JUMPDEST CALLVALUE DUP1 ISZERO PUSH2 0x477 JUMPI PUSH0 DUP1 REVERT JUMPDEST POP PUSH2 0x492 PUSH1 0x4 DUP1 CALLDATASIZE SUB DUP2 ADD SWAP1 PUSH2 0x48D SWAP2 SWAP1 PUSH2 0x248F JUMP JUMPDEST PUSH2 0xAF3 JUMP JUMPDEST PUSH1 0x40 MLOAD PUSH2 0x49F SWAP2 SWAP1 PUSH2 0x1E91 JUMP JUMPDEST PUSH1 0x40 MLOAD DUP1 SWAP2 SUB SWAP1 RETURN JUMPDEST PUSH2 0x4C2 PUSH1 0x4 DUP1 CALLDATASIZE SUB DUP2 ADD SWAP1 PUSH2 0x4BD SWAP2 SWAP1 PUSH2 0x1F87 JUMP JUMPDEST PUSH2 0xB81 JUMP JUMPDEST STOP JUMPDEST CALLVALUE DUP1 ISZERO PUSH2 0x4CF JUMPI PUSH0 DUP1 REVERT JUMPDEST POP PUSH2 0x4EA PUSH1 0x4 DUP1 CALLDATASIZE SUB DUP2 ADD SWAP1 PUSH2 0x4E5 SWAP2 SWAP1 PUSH2 0x22C5 JUMP JUMPDEST PUSH2 0xD6B JUMP JUMPDEST STOP JUMPDEST PUSH0 PUSH32 0x80AC58CD00000000000000000000000000000000000000000000000000000000 PUSH28 0xFFFFFFFFFFFFFFFFFFFFFFFFFFFFFFFFFFFFFFFFFFFFFFFFFFFFFFFF NOT AND DUP3 PUSH28 0xFFFFFFFFFFFFFFFFFFFFFFFFFFFFFFFFFFFFFFFFFFFFFFFFFFFFFFFF NOT AND EQ DUP1 PUSH2 0x5B6 JUMPI POP PUSH32 0x5B5E139F00000000000000000000000000000000000000000000000000000000 PUSH28 0xFFFFFFFFFFFFFFFFFFFFFFFFFFFFFFFFFFFFFFFFFFFFFFFFFFFFFFFF NOT AND DUP3 PUSH28 0xFFFFFFFFFFFFFFFFFFFFFFFFFFFFFFFFFFFFFFFFFFFFFFFFFFFFFFFF NOT AND EQ JUMPDEST DUP1 PUSH2 0x5C6 JUMPI POP PUSH2 0x5C5 DUP3 PUSH2 0xDEF JUMP JUMPDEST JUMPDEST SWAP1 POP SWAP2 SWAP1 POP JUMP JUMPDEST PUSH1 0x60 PUSH0 DUP1 SLOAD PUSH2 0x5DB SWAP1 PUSH2 0x24FA JUMP JUMPDEST DUP1 PUSH1 0x1F ADD PUSH1 0x20 DUP1 SWAP2 DIV MUL PUSH1 0x20 ADD PUSH1 0x40 MLOAD SWAP1 DUP2 ADD PUSH1 0x40 MSTORE DUP1 SWAP3 SWAP2 SWAP1 DUP2 DUP2 MSTORE PUSH1 0x20 ADD DUP3 DUP1 SLOAD PUSH2 0x607 SWAP1 PUSH2 0x24FA JUMP JUMPDEST DUP1 ISZERO PUSH2 0x652 JUMPI DUP1 PUSH1 0x1F LT PUSH2 0x629 JUMPI PUSH2 0x100 DUP1 DUP4 SLOAD DIV MUL DUP4 MSTORE SWAP2 PUSH1 0x20 ADD SWAP2 PUSH2 0x652 JUMP JUMPDEST DUP3 ADD SWAP2 SWAP1 PUSH0 MSTORE PUSH1 0x20 PUSH0 KECCAK256 SWAP1 JUMPDEST DUP2 SLOAD DUP2 MSTORE SWAP1 PUSH1 0x1 ADD SWAP1 PUSH1 0x20 ADD DUP1 DUP4 GT PUSH2 0x635 JUMPI DUP3 SWAP1 SUB PUSH1 0x1F AND DUP3 ADD SWAP2 JUMPDEST POP POP POP POP POP SWAP1 POP SWAP1 JUMP JUMPDEST PUSH0 PUSH2 0x666 DUP3 PUSH2 0xE58 JUMP JUMPDEST POP PUSH2 0x670 DUP3 PUSH2 0xEDE JUMP JUMPDEST SWAP1 POP SWAP2 SWAP1 POP JUMP JUMPDEST PUSH2 0x689 DUP3 DUP3 PUSH2 0x684 PUSH2 0xF17 JUMP JUMPDEST PUSH2 0xF1E JUMP JUMPDEST POP POP JUMP JUMPDEST PUSH0 PUSH20 0xFFFFFFFFFFFFFFFFFFFFFFFFFFFFFFFFFFFFFFFF AND DUP3 PUSH20 0xFFFFFFFFFFFFFFFFFFFFFFFFFFFFFFFFFFFFFFFF AND SUB PUSH2 0x6FD JUMPI PUSH0 PUSH1 0x40 MLOAD PUSH32 0x64A0AE9200000000000000000000000000000000000000000000000000000000 DUP2 MSTORE PUSH1 0x4 ADD PUSH2 0x6F4 SWAP2 SWAP1 PUSH2 0x1FF1 JUMP JUMPDEST PUSH1 0x40 MLOAD DUP1 SWAP2 SUB SWAP1 REVERT JUMPDEST PUSH0 PUSH2 0x710 DUP4 DUP4 PUSH2 0x70B PUSH2 0xF17 JUMP JUMPDEST PUSH2 0xF30 JUMP JUMPDEST SWAP1 POP DUP4 PUSH20 0xFFFFFFFFFFFFFFFFFFFFFFFFFFFFFFFFFFFFFFFF AND DUP2 PUSH20 0xFFFFFFFFFFFFFFFFFFFFFFFFFFFFFFFFFFFFFFFF AND EQ PUSH2 0x786 JUMPI DUP4 DUP3 DUP3 PUSH1 0x40 MLOAD PUSH32 0x64283D7B00000000000000000000000000000000000000000000000000000000 DUP2 MSTORE PUSH1 0x4 ADD PUSH2 0x77D SWAP4 SWAP3 SWAP2 SWAP1 PUSH2 0x252A JUMP JUMPDEST PUSH1 0x40 MLOAD DUP1 SWAP2 SUB SWAP1 REVERT JUMPDEST POP POP POP POP JUMP JUMPDEST PUSH1 0xA PUSH1 0x20 MSTORE DUP1 PUSH0 MSTORE PUSH1 0x40 PUSH0 KECCAK256 PUSH0 SWAP2 POP SWAP1 POP DUP1 PUSH0 ADD PUSH0 SWAP1 SLOAD SWAP1 PUSH2 0x100 EXP SWAP1 DIV PUSH20 0xFFFFFFFFFFFFFFFFFFFFFFFFFFFFFFFFFFFFFFFF AND SWAP1 DUP1 PUSH1 0x1 ADD SLOAD SWAP1 POP DUP3 JUMP JUMPDEST PUSH2 0x7E5 DUP4 DUP4 DUP4 PUSH1 0x40 MLOAD DUP1 PUSH1 0x20 ADD PUSH1 0x40 MSTORE DUP1 PUSH0 DUP2 MSTORE POP PUSH2 0xA6A JUMP JUMPDEST POP POP POP JUMP JUMPDEST PUSH2 0x7F2 PUSH2 0x113B JUMP JUMPDEST DUP1 PUSH1 0x8 SWAP1 DUP2 PUSH2 0x801 SWAP2 SWAP1 PUSH2 0x26FC JUMP JUMPDEST POP POP JUMP JUMPDEST PUSH0 PUSH2 0x810 PUSH1 0x7 PUSH2 0x11C2 JUMP JUMPDEST SWAP1 POP PUSH1 0x40 MLOAD DUP1 PUSH1 0x40 ADD PUSH1 0x40 MSTORE DUP1 CALLER PUSH20 0xFFFFFFFFFFFFFFFFFFFFFFFFFFFFFFFFFFFFFFFF AND DUP2 MSTORE PUSH1 0x20 ADD DUP4 DUP2 MSTORE POP PUSH1 0xA PUSH0 DUP4 DUP2 MSTORE PUSH1 0x20 ADD SWAP1 DUP2 MSTORE PUSH1 0x20 ADD PUSH0 KECCAK256 PUSH0 DUP3 ADD MLOAD DUP2 PUSH0 ADD PUSH0 PUSH2 0x100 EXP DUP2 SLOAD DUP2 PUSH20 0xFFFFFFFFFFFFFFFFFFFFFFFFFFFFFFFFFFFFFFFF MUL NOT AND SWAP1 DUP4 PUSH20 0xFFFFFFFFFFFFFFFFFFFFFFFFFFFFFFFFFFFFFFFF AND MUL OR SWAP1 SSTORE POP PUSH1 0x20 DUP3 ADD MLOAD DUP2 PUSH1 0x1 ADD SSTORE SWAP1 POP POP PUSH2 0x8A9 CALLER DUP3 PUSH2 0x11CE JUMP JUMPDEST PUSH2 0x8B3 DUP2 DUP5 PUSH2 0x12C1 JUMP JUMPDEST PUSH2 0x8BD PUSH1 0x7 PUSH2 0x12CF JUMP JUMPDEST POP POP POP JUMP JUMPDEST PUSH0 PUSH2 0x8CC DUP3 PUSH2 0xE58 JUMP JUMPDEST SWAP1 POP SWAP2 SWAP1 POP JUMP JUMPDEST PUSH0 DUP1 PUSH20 0xFFFFFFFFFFFFFFFFFFFFFFFFFFFFFFFFFFFFFFFF AND DUP3 PUSH20 0xFFFFFFFFFFFFFFFFFFFFFFFFFFFFFFFFFFFFFFFF AND SUB PUSH2 0x944 JUMPI PUSH0 PUSH1 0x40 MLOAD PUSH32 0x89C62B6400000000000000000000000000000000000000000000000000000000 DUP2 MSTORE PUSH1 0x4 ADD PUSH2 0x93B SWAP2 SWAP1 PUSH2 0x1FF1 JUMP JUMPDEST PUSH1 0x40 MLOAD DUP1 SWAP2 SUB SWAP1 REVERT JUMPDEST PUSH1 0x3 PUSH0 DUP4 PUSH20 0xFFFFFFFFFFFFFFFFFFFFFFFFFFFFFFFFFFFFFFFF AND PUSH20 0xFFFFFFFFFFFFFFFFFFFFFFFFFFFFFFFFFFFFFFFF AND DUP2 MSTORE PUSH1 0x20 ADD SWAP1 DUP2 MSTORE PUSH1 0x20 ADD PUSH0 KECCAK256 SLOAD SWAP1 POP SWAP2 SWAP1 POP JUMP JUMPDEST PUSH2 0x991 PUSH2 0x113B JUMP JUMPDEST PUSH2 0x99A PUSH0 PUSH2 0x12E3 JUMP JUMPDEST JUMP JUMPDEST PUSH0 PUSH1 0x6 PUSH0 SWAP1 SLOAD SWAP1 PUSH2 0x100 EXP SWAP1 DIV PUSH20 0xFFFFFFFFFFFFFFFFFFFFFFFFFFFFFFFFFFFFFFFF AND SWAP1 POP SWAP1 JUMP JUMPDEST PUSH1 0x60 PUSH1 0x1 DUP1 SLOAD PUSH2 0x9D3 SWAP1 PUSH2 0x24FA JUMP JUMPDEST DUP1 PUSH1 0x1F ADD PUSH1 0x20 DUP1 SWAP2 DIV MUL PUSH1 0x20 ADD PUSH1 0x40 MLOAD SWAP1 DUP2 ADD PUSH1 0x40 MSTORE DUP1 SWAP3 SWAP2 SWAP1 DUP2 DUP2 MSTORE PUSH1 0x20 ADD DUP3 DUP1 SLOAD PUSH2 0x9FF SWAP1 PUSH2 0x24FA JUMP JUMPDEST DUP1 ISZERO PUSH2 0xA4A JUMPI DUP1 PUSH1 0x1F LT PUSH2 0xA21 JUMPI PUSH2 0x100 DUP1 DUP4 SLOAD DIV MUL DUP4 MSTORE SWAP2 PUSH1 0x20 ADD SWAP2 PUSH2 0xA4A JUMP JUMPDEST DUP3 ADD SWAP2 SWAP1 PUSH0 MSTORE PUSH1 0x20 PUSH0 KECCAK256 SWAP1 JUMPDEST DUP2 SLOAD DUP2 MSTORE SWAP1 PUSH1 0x1 ADD SWAP1 PUSH1 0x20 ADD DUP1 DUP4 GT PUSH2 0xA2D JUMPI DUP3 SWAP1 SUB PUSH1 0x1F AND DUP3 ADD SWAP2 JUMPDEST POP POP POP POP POP SWAP1 POP SWAP1 JUMP JUMPDEST PUSH2 0xA66 PUSH2 0xA5F PUSH2 0xF17 JUMP JUMPDEST DUP4 DUP4 PUSH2 0x13A6 JUMP JUMPDEST POP POP JUMP JUMPDEST PUSH2 0xA75 DUP5 DUP5 DUP5 PUSH2 0x68D JUMP JUMPDEST PUSH2 0xA81 DUP5 DUP5 DUP5 DUP5 PUSH2 0x150F JUMP JUMPDEST POP POP POP POP JUMP JUMPDEST PUSH1 0x9 SLOAD DUP2 JUMP JUMPDEST PUSH1 0x60 PUSH2 0xA98 DUP3 PUSH2 0xE58 JUMP JUMPDEST POP PUSH0 PUSH2 0xAA2 PUSH2 0x16C1 JUMP JUMPDEST SWAP1 POP PUSH0 DUP2 MLOAD GT PUSH2 0xAC0 JUMPI PUSH1 0x40 MLOAD DUP1 PUSH1 0x20 ADD PUSH1 0x40 MSTORE DUP1 PUSH0 DUP2 MSTORE POP PUSH2 0xAEB JUMP JUMPDEST DUP1 PUSH2 0xACA DUP5 PUSH2 0x16D7 JUMP JUMPDEST PUSH1 0x40 MLOAD PUSH1 0x20 ADD PUSH2 0xADB SWAP3 SWAP2 SWAP1 PUSH2 0x2805 JUMP JUMPDEST PUSH1 0x40 MLOAD PUSH1 0x20 DUP2 DUP4 SUB SUB DUP2 MSTORE SWAP1 PUSH1 0x40 MSTORE JUMPDEST SWAP2 POP POP SWAP2 SWAP1 POP JUMP JUMPDEST PUSH0 PUSH1 0x5 PUSH0 DUP5 PUSH20 0xFFFFFFFFFFFFFFFFFFFFFFFFFFFFFFFFFFFFFFFF AND PUSH20 0xFFFFFFFFFFFFFFFFFFFFFFFFFFFFFFFFFFFFFFFF AND DUP2 MSTORE PUSH1 0x20 ADD SWAP1 DUP2 MSTORE PUSH1 0x20 ADD PUSH0 KECCAK256 PUSH0 DUP4 PUSH20 0xFFFFFFFFFFFFFFFFFFFFFFFFFFFFFFFFFFFFFFFF AND PUSH20 0xFFFFFFFFFFFFFFFFFFFFFFFFFFFFFFFFFFFFFFFF AND DUP2 MSTORE PUSH1 0x20 ADD SWAP1 DUP2 MSTORE PUSH1 0x20 ADD PUSH0 KECCAK256 PUSH0 SWAP1 SLOAD SWAP1 PUSH2 0x100 EXP SWAP1 DIV PUSH1 0xFF AND SWAP1 POP SWAP3 SWAP2 POP POP JUMP JUMPDEST PUSH2 0xB8A DUP2 PUSH2 0x17A1 JUMP JUMPDEST PUSH2 0xBC9 JUMPI PUSH1 0x40 MLOAD PUSH32 0x8C379A000000000000000000000000000000000000000000000000000000000 DUP2 MSTORE PUSH1 0x4 ADD PUSH2 0xBC0 SWAP1 PUSH2 0x2872 JUMP JUMPDEST PUSH1 0x40 MLOAD DUP1 SWAP2 SUB SWAP1 REVERT JUMPDEST PUSH0 PUSH2 0xBD3 DUP3 PUSH2 0x8C2 JUMP JUMPDEST SWAP1 POP PUSH0 CALLER SWAP1 POP PUSH0 PUSH1 0xA PUSH0 DUP6 DUP2 MSTORE PUSH1 0x20 ADD SWAP1 DUP2 MSTORE PUSH1 0x20 ADD PUSH0 KECCAK256 PUSH1 0x1 ADD SLOAD SWAP1 POP DUP2 PUSH20 0xFFFFFFFFFFFFFFFFFFFFFFFFFFFFFFFFFFFFFFFF AND DUP4 PUSH20 0xFFFFFFFFFFFFFFFFFFFFFFFFFFFFFFFFFFFFFFFF AND SUB PUSH2 0xC5F JUMPI PUSH1 0x40 MLOAD PUSH32 0x8C379A000000000000000000000000000000000000000000000000000000000 DUP2 MSTORE PUSH1 0x4 ADD PUSH2 0xC56 SWAP1 PUSH2 0x28DA JUMP JUMPDEST PUSH1 0x40 MLOAD DUP1 SWAP2 SUB SWAP1 REVERT JUMPDEST DUP1 CALLVALUE LT ISZERO PUSH2 0xCA2 JUMPI PUSH1 0x40 MLOAD PUSH32 0x8C379A000000000000000000000000000000000000000000000000000000000 DUP2 MSTORE PUSH1 0x4 ADD PUSH2 0xC99 SWAP1 PUSH2 0x2942 JUMP JUMPDEST PUSH1 0x40 MLOAD DUP1 SWAP2 SUB SWAP1 REVERT JUMPDEST PUSH2 0xCAD DUP4 DUP4 DUP7 PUSH2 0x17B2 JUMP JUMPDEST PUSH0 PUSH1 0x64 PUSH1 0x9 SLOAD DUP4 PUSH2 0xCBE SWAP2 SWAP1 PUSH2 0x298D JUMP JUMPDEST PUSH2 0xCC8 SWAP2 SWAP1 PUSH2 0x29FB JUMP JUMPDEST SWAP1 POP PUSH2 0xCD2 PUSH2 0x99C JUMP JUMPDEST PUSH20 0xFFFFFFFFFFFFFFFFFFFFFFFFFFFFFFFFFFFFFFFF AND PUSH2 0x8FC DUP3 SWAP1 DUP2 ISZERO MUL SWAP1 PUSH1 0x40 MLOAD PUSH0 PUSH1 0x40 MLOAD DUP1 DUP4 SUB DUP2 DUP6 DUP9 DUP9 CALL SWAP4 POP POP POP POP ISZERO DUP1 ISZERO PUSH2 0xD14 JUMPI RETURNDATASIZE PUSH0 DUP1 RETURNDATACOPY RETURNDATASIZE PUSH0 REVERT JUMPDEST POP DUP4 PUSH20 0xFFFFFFFFFFFFFFFFFFFFFFFFFFFFFFFFFFFFFFFF AND PUSH2 0x8FC DUP3 DUP5 PUSH2 0xD3B SWAP2 SWAP1 PUSH2 0x2A2B JUMP JUMPDEST SWAP1 DUP2 ISZERO MUL SWAP1 PUSH1 0x40 MLOAD PUSH0 PUSH1 0x40 MLOAD DUP1 DUP4 SUB DUP2 DUP6 DUP9 DUP9 CALL SWAP4 POP POP POP POP ISZERO DUP1 ISZERO PUSH2 0xD63 JUMPI RETURNDATASIZE PUSH0 DUP1 RETURNDATACOPY RETURNDATASIZE PUSH0 REVERT JUMPDEST POP POP POP POP POP POP JUMP JUMPDEST PUSH2 0xD73 PUSH2 0x113B JUMP JUMPDEST PUSH0 PUSH20 0xFFFFFFFFFFFFFFFFFFFFFFFFFFFFFFFFFFFFFFFF AND DUP2 PUSH20 0xFFFFFFFFFFFFFFFFFFFFFFFFFFFFFFFFFFFFFFFF AND SUB PUSH2 0xDE3 JUMPI PUSH0 PUSH1 0x40 MLOAD PUSH32 0x1E4FBDF700000000000000000000000000000000000000000000000000000000 DUP2 MSTORE PUSH1 0x4 ADD PUSH2 0xDDA SWAP2 SWAP1 PUSH2 0x1FF1 JUMP JUMPDEST PUSH1 0x40 MLOAD DUP1 SWAP2 SUB SWAP1 REVERT JUMPDEST PUSH2 0xDEC DUP2 PUSH2 0x12E3 JUMP JUMPDEST POP JUMP JUMPDEST PUSH0 PUSH32 0x1FFC9A700000000000000000000000000000000000000000000000000000000 PUSH28 0xFFFFFFFFFFFFFFFFFFFFFFFFFFFFFFFFFFFFFFFFFFFFFFFFFFFFFFFF NOT AND DUP3 PUSH28 0xFFFFFFFFFFFFFFFFFFFFFFFFFFFFFFFFFFFFFFFFFFFFFFFFFFFFFFFF NOT AND EQ SWAP1 POP SWAP2 SWAP1 POP JUMP JUMPDEST PUSH0 DUP1 PUSH2 0xE63 DUP4 PUSH2 0x191A JUMP JUMPDEST SWAP1 POP PUSH0 PUSH20 0xFFFFFFFFFFFFFFFFFFFFFFFFFFFFFFFFFFFFFFFF AND DUP2 PUSH20 0xFFFFFFFFFFFFFFFFFFFFFFFFFFFFFFFFFFFFFFFF AND SUB PUSH2 0xED5 JUMPI DUP3 PUSH1 0x40 MLOAD PUSH32 0x7E27328900000000000000000000000000000000000000000000000000000000 DUP2 MSTORE PUSH1 0x4 ADD PUSH2 0xECC SWAP2 SWAP1 PUSH2 0x22F0 JUMP JUMPDEST PUSH1 0x40 MLOAD DUP1 SWAP2 SUB SWAP1 REVERT JUMPDEST DUP1 SWAP2 POP POP SWAP2 SWAP1 POP JUMP JUMPDEST PUSH0 PUSH1 0x4 PUSH0 DUP4 DUP2 MSTORE PUSH1 0x20 ADD SWAP1 DUP2 MSTORE PUSH1 0x20 ADD PUSH0 KECCAK256 PUSH0 SWAP1 SLOAD SWAP1 PUSH2 0x100 EXP SWAP1 DIV PUSH20 0xFFFFFFFFFFFFFFFFFFFFFFFFFFFFFFFFFFFFFFFF AND SWAP1 POP SWAP2 SWAP1 POP JUMP JUMPDEST PUSH0 CALLER SWAP1 POP SWAP1 JUMP JUMPDEST PUSH2 0xF2B DUP4 DUP4 DUP4 PUSH1 0x1 PUSH2 0x1953 JUMP JUMPDEST POP POP POP JUMP JUMPDEST PUSH0 DUP1 PUSH2 0xF3B DUP5 PUSH2 0x191A JUMP JUMPDEST SWAP1 POP PUSH0 PUSH20 0xFFFFFFFFFFFFFFFFFFFFFFFFFFFFFFFFFFFFFFFF AND DUP4 PUSH20 0xFFFFFFFFFFFFFFFFFFFFFFFFFFFFFFFFFFFFFFFF AND EQ PUSH2 0xF7C JUMPI PUSH2 0xF7B DUP2 DUP5 DUP7 PUSH2 0x1B12 JUMP JUMPDEST JUMPDEST PUSH0 PUSH20 0xFFFFFFFFFFFFFFFFFFFFFFFFFFFFFFFFFFFFFFFF AND DUP2 PUSH20 0xFFFFFFFFFFFFFFFFFFFFFFFFFFFFFFFFFFFFFFFF AND EQ PUSH2 0x1007 JUMPI PUSH2 0xFBB PUSH0 DUP6 PUSH0 DUP1 PUSH2 0x1953 JUMP JUMPDEST PUSH1 0x1 PUSH1 0x3 PUSH0 DUP4 PUSH20 0xFFFFFFFFFFFFFFFFFFFFFFFFFFFFFFFFFFFFFFFF AND PUSH20 0xFFFFFFFFFFFFFFFFFFFFFFFFFFFFFFFFFFFFFFFF AND DUP2 MSTORE PUSH1 0x20 ADD SWAP1 DUP2 MSTORE PUSH1 0x20 ADD PUSH0 KECCAK256 PUSH0 DUP3 DUP3 SLOAD SUB SWAP3 POP POP DUP2 SWAP1 SSTORE POP JUMPDEST PUSH0 PUSH20 0xFFFFFFFFFFFFFFFFFFFFFFFFFFFFFFFFFFFFFFFF AND DUP6 PUSH20 0xFFFFFFFFFFFFFFFFFFFFFFFFFFFFFFFFFFFFFFFF AND EQ PUSH2 0x1086 JUMPI PUSH1 0x1 PUSH1 0x3 PUSH0 DUP8 PUSH20 0xFFFFFFFFFFFFFFFFFFFFFFFFFFFFFFFFFFFFFFFF AND PUSH20 0xFFFFFFFFFFFFFFFFFFFFFFFFFFFFFFFFFFFFFFFF AND DUP2 MSTORE PUSH1 0x20 ADD SWAP1 DUP2 MSTORE PUSH1 0x20 ADD PUSH0 KECCAK256 PUSH0 DUP3 DUP3 SLOAD ADD SWAP3 POP POP DUP2 SWAP1 SSTORE POP JUMPDEST DUP5 PUSH1 0x2 PUSH0 DUP7 DUP2 MSTORE PUSH1 0x20 ADD SWAP1 DUP2 MSTORE PUSH1 0x20 ADD PUSH0 KECCAK256 PUSH0 PUSH2 0x100 EXP DUP2 SLOAD DUP2 PUSH20 0xFFFFFFFFFFFFFFFFFFFFFFFFFFFFFFFFFFFFFFFF MUL NOT AND SWAP1 DUP4 PUSH20 0xFFFFFFFFFFFFFFFFFFFFFFFFFFFFFFFFFFFFFFFF AND MUL OR SWAP1 SSTORE POP DUP4 DUP6 PUSH20 0xFFFFFFFFFFFFFFFFFFFFFFFFFFFFFFFFFFFFFFFF AND DUP3 PUSH20 0xFFFFFFFFFFFFFFFFFFFFFFFFFFFFFFFFFFFFFFFF AND PUSH32 0xDDF252AD1BE2C89B69C2B068FC378DAA952BA7F163C4A11628F55A4DF523B3EF PUSH1 0x40 MLOAD PUSH1 0x40 MLOAD DUP1 SWAP2 SUB SWAP1 LOG4 DUP1 SWAP2 POP POP SWAP4 SWAP3 POP POP POP JUMP JUMPDEST PUSH2 0x1143 PUSH2 0xF17 JUMP JUMPDEST PUSH20 0xFFFFFFFFFFFFFFFFFFFFFFFFFFFFFFFFFFFFFFFF AND PUSH2 0x1161 PUSH2 0x99C JUMP JUMPDEST PUSH20 0xFFFFFFFFFFFFFFFFFFFFFFFFFFFFFFFFFFFFFFFF AND EQ PUSH2 0x11C0 JUMPI PUSH2 0x1184 PUSH2 0xF17 JUMP JUMPDEST PUSH1 0x40 MLOAD PUSH32 0x118CDAA700000000000000000000000000000000000000000000000000000000 DUP2 MSTORE PUSH1 0x4 ADD PUSH2 0x11B7 SWAP2 SWAP1 PUSH2 0x1FF1 JUMP JUMPDEST PUSH1 0x40 MLOAD DUP1 SWAP2 SUB SWAP1 REVERT JUMPDEST JUMP JUMPDEST PUSH0 DUP2 PUSH0 ADD SLOAD SWAP1 POP SWAP2 SWAP1 POP JUMP JUMPDEST PUSH0 PUSH20 0xFFFFFFFFFFFFFFFFFFFFFFFFFFFFFFFFFFFFFFFF AND DUP3 PUSH20 0xFFFFFFFFFFFFFFFFFFFFFFFFFFFFFFFFFFFFFFFF AND SUB PUSH2 0x123E JUMPI PUSH0 PUSH1 0x40 MLOAD PUSH32 0x64A0AE9200000000000000000000000000000000000000000000000000000000 DUP2 MSTORE PUSH1 0x4 ADD PUSH2 0x1235 SWAP2 SWAP1 PUSH2 0x1FF1 JUMP JUMPDEST PUSH1 0x40 MLOAD DUP1 SWAP2 SUB SWAP1 REVERT JUMPDEST PUSH0 PUSH2 0x124A DUP4 DUP4 PUSH0 PUSH2 0xF30 JUMP JUMPDEST SWAP1 POP PUSH0 PUSH20 0xFFFFFFFFFFFFFFFFFFFFFFFFFFFFFFFFFFFFFFFF AND DUP2 PUSH20 0xFFFFFFFFFFFFFFFFFFFFFFFFFFFFFFFFFFFFFFFF AND EQ PUSH2 0x12BC JUMPI PUSH0 PUSH1 0x40 MLOAD PUSH32 0x73C6AC6E00000000000000000000000000000000000000000000000000000000 DUP2 MSTORE PUSH1 0x4 ADD PUSH2 0x12B3 SWAP2 SWAP1 PUSH2 0x1FF1 JUMP JUMPDEST PUSH1 0x40 MLOAD DUP1 SWAP2 SUB SWAP1 REVERT JUMPDEST POP POP POP JUMP JUMPDEST PUSH2 0x12CB DUP3 DUP3 PUSH2 0x12C1 JUMP JUMPDEST POP POP JUMP JUMPDEST PUSH1 0x1 DUP2 PUSH0 ADD PUSH0 DUP3 DUP3 SLOAD ADD SWAP3 POP POP DUP2 SWAP1 SSTORE POP POP JUMP JUMPDEST PUSH0 PUSH1 0x6 PUSH0 SWAP1 SLOAD SWAP1 PUSH2 0x100 EXP SWAP1 DIV PUSH20 0xFFFFFFFFFFFFFFFFFFFFFFFFFFFFFFFFFFFFFFFF AND SWAP1 POP DUP2 PUSH1 0x6 PUSH0 PUSH2 0x100 EXP DUP2 SLOAD DUP2 PUSH20 0xFFFFFFFFFFFFFFFFFFFFFFFFFFFFFFFFFFFFFFFF MUL NOT AND SWAP1 DUP4 PUSH20 0xFFFFFFFFFFFFFFFFFFFFFFFFFFFFFFFFFFFFFFFF AND MUL OR SWAP1 SSTORE POP DUP2 PUSH20 0xFFFFFFFFFFFFFFFFFFFFFFFFFFFFFFFFFFFFFFFF AND DUP2 PUSH20 0xFFFFFFFFFFFFFFFFFFFFFFFFFFFFFFFFFFFFFFFF AND PUSH32 0x8BE0079C531659141344CD1FD0A4F28419497F9722A3DAAFE3B4186F6B6457E0 PUSH1 0x40 MLOAD PUSH1 0x40 MLOAD DUP1 SWAP2 SUB SWAP1 LOG3 POP POP JUMP JUMPDEST PUSH0 PUSH20 0xFFFFFFFFFFFFFFFFFFFFFFFFFFFFFFFFFFFFFFFF AND DUP3 PUSH20 0xFFFFFFFFFFFFFFFFFFFFFFFFFFFFFFFFFFFFFFFF AND SUB PUSH2 0x1416 JUMPI DUP2 PUSH1 0x40 MLOAD PUSH32 0x5B08BA1800000000000000000000000000000000000000000000000000000000 DUP2 MSTORE PUSH1 0x4 ADD PUSH2 0x140D SWAP2 SWAP1 PUSH2 0x1FF1 JUMP JUMPDEST PUSH1 0x40 MLOAD DUP1 SWAP2 SUB SWAP1 REVERT JUMPDEST DUP1 PUSH1 0x5 PUSH0 DUP6 PUSH20 0xFFFFFFFFFFFFFFFFFFFFFFFFFFFFFFFFFFFFFFFF AND PUSH20 0xFFFFFFFFFFFFFFFFFFFFFFFFFFFFFFFFFFFFFFFF AND DUP2 MSTORE PUSH1 0x20 ADD SWAP1 DUP2 MSTORE PUSH1 0x20 ADD PUSH0 KECCAK256 PUSH0 DUP5 PUSH20 0xFFFFFFFFFFFFFFFFFFFFFFFFFFFFFFFFFFFFFFFF AND PUSH20 0xFFFFFFFFFFFFFFFFFFFFFFFFFFFFFFFFFFFFFFFF AND DUP2 MSTORE PUSH1 0x20 ADD SWAP1 DUP2 MSTORE PUSH1 0x20 ADD PUSH0 KECCAK256 PUSH0 PUSH2 0x100 EXP DUP2 SLOAD DUP2 PUSH1 0xFF MUL NOT AND SWAP1 DUP4 ISZERO ISZERO MUL OR SWAP1 SSTORE POP DUP2 PUSH20 0xFFFFFFFFFFFFFFFFFFFFFFFFFFFFFFFFFFFFFFFF AND DUP4 PUSH20 0xFFFFFFFFFFFFFFFFFFFFFFFFFFFFFFFFFFFFFFFF AND PUSH32 0x17307EAB39AB6107E8899845AD3D59BD9653F200F220920489CA2B5937696C31 DUP4 PUSH1 0x40 MLOAD PUSH2 0x1502 SWAP2 SWAP1 PUSH2 0x1E91 JUMP JUMPDEST PUSH1 0x40 MLOAD DUP1 SWAP2 SUB SWAP1 LOG3 POP POP POP JUMP JUMPDEST PUSH0 DUP4 PUSH20 0xFFFFFFFFFFFFFFFFFFFFFFFFFFFFFFFFFFFFFFFF AND EXTCODESIZE GT ISZERO PUSH2 0x16BB JUMPI DUP3 PUSH20 0xFFFFFFFFFFFFFFFFFFFFFFFFFFFFFFFFFFFFFFFF AND PUSH4 0x150B7A02 PUSH2 0x1552 PUSH2 0xF17 JUMP JUMPDEST DUP7 DUP6 DUP6 PUSH1 0x40 MLOAD DUP6 PUSH4 0xFFFFFFFF AND PUSH1 0xE0 SHL DUP2 MSTORE PUSH1 0x4 ADD PUSH2 0x1574 SWAP5 SWAP4 SWAP3 SWAP2 SWAP1 PUSH2 0x2AB0 JUMP JUMPDEST PUSH1 0x20 PUSH1 0x40 MLOAD DUP1 DUP4 SUB DUP2 PUSH0 DUP8 GAS CALL SWAP3 POP POP POP DUP1 ISZERO PUSH2 0x15AF JUMPI POP PUSH1 0x40 MLOAD RETURNDATASIZE PUSH1 0x1F NOT PUSH1 0x1F DUP3 ADD AND DUP3 ADD DUP1 PUSH1 0x40 MSTORE POP DUP2 ADD SWAP1 PUSH2 0x15AC SWAP2 SWAP1 PUSH2 0x2B0E JUMP JUMPDEST PUSH1 0x1 JUMPDEST PUSH2 0x1630 JUMPI RETURNDATASIZE DUP1 PUSH0 DUP2 EQ PUSH2 0x15DD JUMPI PUSH1 0x40 MLOAD SWAP2 POP PUSH1 0x1F NOT PUSH1 0x3F RETURNDATASIZE ADD AND DUP3 ADD PUSH1 0x40 MSTORE RETURNDATASIZE DUP3 MSTORE RETURNDATASIZE PUSH0 PUSH1 0x20 DUP5 ADD RETURNDATACOPY PUSH2 0x15E2 JUMP JUMPDEST PUSH1 0x60 SWAP2 POP JUMPDEST POP PUSH0 DUP2 MLOAD SUB PUSH2 0x1628 JUMPI DUP4 PUSH1 0x40 MLOAD PUSH32 0x64A0AE9200000000000000000000000000000000000000000000000000000000 DUP2 MSTORE PUSH1 0x4 ADD PUSH2 0x161F SWAP2 SWAP1 PUSH2 0x1FF1 JUMP JUMPDEST PUSH1 0x40 MLOAD DUP1 SWAP2 SUB SWAP1 REVERT JUMPDEST DUP1 MLOAD DUP2 PUSH1 0x20 ADD REVERT JUMPDEST PUSH4 0x150B7A02 PUSH1 0xE0 SHL PUSH28 0xFFFFFFFFFFFFFFFFFFFFFFFFFFFFFFFFFFFFFFFFFFFFFFFFFFFFFFFF NOT AND DUP2 PUSH28 0xFFFFFFFFFFFFFFFFFFFFFFFFFFFFFFFFFFFFFFFFFFFFFFFFFFFFFFFF NOT AND EQ PUSH2 0x16B9 JUMPI DUP4 PUSH1 0x40 MLOAD PUSH32 0x64A0AE9200000000000000000000000000000000000000000000000000000000 DUP2 MSTORE PUSH1 0x4 ADD PUSH2 0x16B0 SWAP2 SWAP1 PUSH2 0x1FF1 JUMP JUMPDEST PUSH1 0x40 MLOAD DUP1 SWAP2 SUB SWAP1 REVERT JUMPDEST POP JUMPDEST POP POP POP POP JUMP JUMPDEST PUSH1 0x60 PUSH1 0x40 MLOAD DUP1 PUSH1 0x20 ADD PUSH1 0x40 MSTORE DUP1 PUSH0 DUP2 MSTORE POP SWAP1 POP SWAP1 JUMP JUMPDEST PUSH1 0x60 PUSH0 PUSH1 0x1 PUSH2 0x16E5 DUP5 PUSH2 0x1BD5 JUMP JUMPDEST ADD SWAP1 POP PUSH0 DUP2 PUSH8 0xFFFFFFFFFFFFFFFF DUP2 GT ISZERO PUSH2 0x1703 JUMPI PUSH2 0x1702 PUSH2 0x2100 JUMP JUMPDEST JUMPDEST PUSH1 0x40 MLOAD SWAP1 DUP1 DUP3 MSTORE DUP1 PUSH1 0x1F ADD PUSH1 0x1F NOT AND PUSH1 0x20 ADD DUP3 ADD PUSH1 0x40 MSTORE DUP1 ISZERO PUSH2 0x1735 JUMPI DUP2 PUSH1 0x20 ADD PUSH1 0x1 DUP3 MUL DUP1 CALLDATASIZE DUP4 CALLDATACOPY DUP1 DUP3 ADD SWAP2 POP POP SWAP1 POP JUMPDEST POP SWAP1 POP PUSH0 DUP3 PUSH1 0x20 ADD DUP3 ADD SWAP1 POP JUMPDEST PUSH1 0x1 ISZERO PUSH2 0x1796 JUMPI DUP1 DUP1 PUSH1 0x1 SWAP1 SUB SWAP2 POP POP PUSH32 0x3031323334353637383961626364656600000000000000000000000000000000 PUSH1 0xA DUP7 MOD BYTE DUP2 MSTORE8 PUSH1 0xA DUP6 DUP2 PUSH2 0x178B JUMPI PUSH2 0x178A PUSH2 0x29CE JUMP JUMPDEST JUMPDEST DIV SWAP5 POP PUSH0 DUP6 SUB PUSH2 0x1742 JUMPI JUMPDEST DUP2 SWAP4 POP POP POP POP SWAP2 SWAP1 POP JUMP JUMPDEST PUSH0 PUSH2 0x17AB DUP3 PUSH2 0x17A1 JUMP JUMPDEST SWAP1 POP SWAP2 SWAP1 POP JUMP JUMPDEST PUSH0 PUSH20 0xFFFFFFFFFFFFFFFFFFFFFFFFFFFFFFFFFFFFFFFF AND DUP3 PUSH20 0xFFFFFFFFFFFFFFFFFFFFFFFFFFFFFFFFFFFFFFFF AND SUB PUSH2 0x1822 JUMPI PUSH0 PUSH1 0x40 MLOAD PUSH32 0x64A0AE9200000000000000000000000000000000000000000000000000000000 DUP2 MSTORE PUSH1 0x4 ADD PUSH2 0x1819 SWAP2 SWAP1 PUSH2 0x1FF1 JUMP JUMPDEST PUSH1 0x40 MLOAD DUP1 SWAP2 SUB SWAP1 REVERT JUMPDEST PUSH0 PUSH2 0x182E DUP4 DUP4 PUSH0 PUSH2 0xF30 JUMP JUMPDEST SWAP1 POP PUSH0 PUSH20 0xFFFFFFFFFFFFFFFFFFFFFFFFFFFFFFFFFFFFFFFF AND DUP2 PUSH20 0xFFFFFFFFFFFFFFFFFFFFFFFFFFFFFFFFFFFFFFFF AND SUB PUSH2 0x18A0 JUMPI DUP2 PUSH1 0x40 MLOAD PUSH32 0x7E27328900000000000000000000000000000000000000000000000000000000 DUP2 MSTORE PUSH1 0x4 ADD PUSH2 0x1897 SWAP2 SWAP1 PUSH2 0x22F0 JUMP JUMPDEST PUSH1 0x40 MLOAD DUP1 SWAP2 SUB SWAP1 REVERT JUMPDEST DUP4 PUSH20 0xFFFFFFFFFFFFFFFFFFFFFFFFFFFFFFFFFFFFFFFF AND DUP2 PUSH20 0xFFFFFFFFFFFFFFFFFFFFFFFFFFFFFFFFFFFFFFFF AND EQ PUSH2 0x1914 JUMPI DUP4 DUP3 DUP3 PUSH1 0x40 MLOAD PUSH32 0x64283D7B00000000000000000000000000000000000000000000000000000000 DUP2 MSTORE PUSH1 0x4 ADD PUSH2 0x190B SWAP4 SWAP3 SWAP2 SWAP1 PUSH2 0x252A JUMP JUMPDEST PUSH1 0x40 MLOAD DUP1 SWAP2 SUB SWAP1 REVERT JUMPDEST POP POP POP POP JUMP JUMPDEST PUSH0 PUSH1 0x2 PUSH0 DUP4 DUP2 MSTORE PUSH1 0x20 ADD SWAP1 DUP2 MSTORE PUSH1 0x20 ADD PUSH0 KECCAK256 PUSH0 SWAP1 SLOAD SWAP1 PUSH2 0x100 EXP SWAP1 DIV PUSH20 0xFFFFFFFFFFFFFFFFFFFFFFFFFFFFFFFFFFFFFFFF AND SWAP1 POP SWAP2 SWAP1 POP JUMP JUMPDEST DUP1 DUP1 PUSH2 0x198B JUMPI POP PUSH0 PUSH20 0xFFFFFFFFFFFFFFFFFFFFFFFFFFFFFFFFFFFFFFFF AND DUP3 PUSH20 0xFFFFFFFFFFFFFFFFFFFFFFFFFFFFFFFFFFFFFFFF AND EQ ISZERO JUMPDEST ISZERO PUSH2 0x1ABD JUMPI PUSH0 PUSH2 0x199A DUP5 PUSH2 0xE58 JUMP JUMPDEST SWAP1 POP PUSH0 PUSH20 0xFFFFFFFFFFFFFFFFFFFFFFFFFFFFFFFFFFFFFFFF AND DUP4 PUSH20 0xFFFFFFFFFFFFFFFFFFFFFFFFFFFFFFFFFFFFFFFF AND EQ ISZERO DUP1 ISZERO PUSH2 0x1A04 JUMPI POP DUP3 PUSH20 0xFFFFFFFFFFFFFFFFFFFFFFFFFFFFFFFFFFFFFFFF AND DUP2 PUSH20 0xFFFFFFFFFFFFFFFFFFFFFFFFFFFFFFFFFFFFFFFF AND EQ ISZERO JUMPDEST DUP1 ISZERO PUSH2 0x1A17 JUMPI POP PUSH2 0x1A15 DUP2 DUP5 PUSH2 0xAF3 JUMP JUMPDEST ISZERO JUMPDEST ISZERO PUSH2 0x1A59 JUMPI DUP3 PUSH1 0x40 MLOAD PUSH32 0xA9FBF51F00000000000000000000000000000000000000000000000000000000 DUP2 MSTORE PUSH1 0x4 ADD PUSH2 0x1A50 SWAP2 SWAP1 PUSH2 0x1FF1 JUMP JUMPDEST PUSH1 0x40 MLOAD DUP1 SWAP2 SUB SWAP1 REVERT JUMPDEST DUP2 ISZERO PUSH2 0x1ABB JUMPI DUP4 DUP6 PUSH20 0xFFFFFFFFFFFFFFFFFFFFFFFFFFFFFFFFFFFFFFFF AND DUP3 PUSH20 0xFFFFFFFFFFFFFFFFFFFFFFFFFFFFFFFFFFFFFFFF AND PUSH32 0x8C5BE1E5EBEC7D5BD14F71427D1E84F3DD0314C0F7B2291E5B200AC8C7C3B925 PUSH1 0x40 MLOAD PUSH1 0x40 MLOAD DUP1 SWAP2 SUB SWAP1 LOG4 JUMPDEST POP JUMPDEST DUP4 PUSH1 0x4 PUSH0 DUP6 DUP2 MSTORE PUSH1 0x20 ADD SWAP1 DUP2 MSTORE PUSH1 0x20 ADD PUSH0 KECCAK256 PUSH0 PUSH2 0x100 EXP DUP2 SLOAD DUP2 PUSH20 0xFFFFFFFFFFFFFFFFFFFFFFFFFFFFFFFFFFFFFFFF MUL NOT AND SWAP1 DUP4 PUSH20 0xFFFFFFFFFFFFFFFFFFFFFFFFFFFFFFFFFFFFFFFF AND MUL OR SWAP1 SSTORE POP POP POP POP POP JUMP JUMPDEST PUSH2 0x1B1D DUP4 DUP4 DUP4 PUSH2 0x1D26 JUMP JUMPDEST PUSH2 0x1BD0 JUMPI PUSH0 PUSH20 0xFFFFFFFFFFFFFFFFFFFFFFFFFFFFFFFFFFFFFFFF AND DUP4 PUSH20 0xFFFFFFFFFFFFFFFFFFFFFFFFFFFFFFFFFFFFFFFF AND SUB PUSH2 0x1B91 JUMPI DUP1 PUSH1 0x40 MLOAD PUSH32 0x7E27328900000000000000000000000000000000000000000000000000000000 DUP2 MSTORE PUSH1 0x4 ADD PUSH2 0x1B88 SWAP2 SWAP1 PUSH2 0x22F0 JUMP JUMPDEST PUSH1 0x40 MLOAD DUP1 SWAP2 SUB SWAP1 REVERT JUMPDEST DUP2 DUP2 PUSH1 0x40 MLOAD PUSH32 0x177E802F00000000000000000000000000000000000000000000000000000000 DUP2 MSTORE PUSH1 0x4 ADD PUSH2 0x1BC7 SWAP3 SWAP2 SWAP1 PUSH2 0x20D1 JUMP JUMPDEST PUSH1 0x40 MLOAD DUP1 SWAP2 SUB SWAP1 REVERT JUMPDEST POP POP POP JUMP JUMPDEST PUSH0 DUP1 PUSH0 SWAP1 POP PUSH27 0x184F03E93FF9F4DAA797ED6E38ED64BF6A1F010000000000000000 DUP4 LT PUSH2 0x1C31 JUMPI PUSH27 0x184F03E93FF9F4DAA797ED6E38ED64BF6A1F010000000000000000 DUP4 DUP2 PUSH2 0x1C27 JUMPI PUSH2 0x1C26 PUSH2 0x29CE JUMP JUMPDEST JUMPDEST DIV SWAP3 POP PUSH1 0x40 DUP2 ADD SWAP1 POP JUMPDEST PUSH14 0x4EE2D6D415B85ACEF8100000000 DUP4 LT PUSH2 0x1C6E JUMPI PUSH14 0x4EE2D6D415B85ACEF8100000000 DUP4 DUP2 PUSH2 0x1C64 JUMPI PUSH2 0x1C63 PUSH2 0x29CE JUMP JUMPDEST JUMPDEST DIV SWAP3 POP PUSH1 0x20 DUP2 ADD SWAP1 POP JUMPDEST PUSH7 0x2386F26FC10000 DUP4 LT PUSH2 0x1C9D JUMPI PUSH7 0x2386F26FC10000 DUP4 DUP2 PUSH2 0x1C93 JUMPI PUSH2 0x1C92 PUSH2 0x29CE JUMP JUMPDEST JUMPDEST DIV SWAP3 POP PUSH1 0x10 DUP2 ADD SWAP1 POP JUMPDEST PUSH4 0x5F5E100 DUP4 LT PUSH2 0x1CC6 JUMPI PUSH4 0x5F5E100 DUP4 DUP2 PUSH2 0x1CBC JUMPI PUSH2 0x1CBB PUSH2 0x29CE JUMP JUMPDEST JUMPDEST DIV SWAP3 POP PUSH1 0x8 DUP2 ADD SWAP1 POP JUMPDEST PUSH2 0x2710 DUP4 LT PUSH2 0x1CEB JUMPI PUSH2 0x2710 DUP4 DUP2 PUSH2 0x1CE1 JUMPI PUSH2 0x1CE0 PUSH2 0x29CE JUMP JUMPDEST JUMPDEST DIV SWAP3 POP PUSH1 0x4 DUP2 ADD SWAP1 POP JUMPDEST PUSH1 0x64 DUP4 LT PUSH2 0x1D0E JUMPI PUSH1 0x64 DUP4 DUP2 PUSH2 0x1D04 JUMPI PUSH2 0x1D03 PUSH2 0x29CE JUMP JUMPDEST JUMPDEST DIV SWAP3 POP PUSH1 0x2 DUP2 ADD SWAP1 POP JUMPDEST PUSH1 0xA DUP4 LT PUSH2 0x1D1D JUMPI PUSH1 0x1 DUP2 ADD SWAP1 POP JUMPDEST DUP1 SWAP2 POP POP SWAP2 SWAP1 POP JUMP JUMPDEST PUSH0 DUP1 PUSH20 0xFFFFFFFFFFFFFFFFFFFFFFFFFFFFFFFFFFFFFFFF AND DUP4 PUSH20 0xFFFFFFFFFFFFFFFFFFFFFFFFFFFFFFFFFFFFFFFF AND EQ ISZERO DUP1 ISZERO PUSH2 0x1DDD JUMPI POP DUP3 PUSH20 0xFFFFFFFFFFFFFFFFFFFFFFFFFFFFFFFFFFFFFFFF AND DUP5 PUSH20 0xFFFFFFFFFFFFFFFFFFFFFFFFFFFFFFFFFFFFFFFF AND EQ DUP1 PUSH2 0x1D9E JUMPI POP PUSH2 0x1D9D DUP5 DUP5 PUSH2 0xAF3 JUMP JUMPDEST JUMPDEST DUP1 PUSH2 0x1DDC JUMPI POP DUP3 PUSH20 0xFFFFFFFFFFFFFFFFFFFFFFFFFFFFFFFFFFFFFFFF AND PUSH2 0x1DC4 DUP4 PUSH2 0xEDE JUMP JUMPDEST PUSH20 0xFFFFFFFFFFFFFFFFFFFFFFFFFFFFFFFFFFFFFFFF AND EQ JUMPDEST JUMPDEST SWAP1 POP SWAP4 SWAP3 POP POP POP JUMP JUMPDEST PUSH0 PUSH1 0x40 MLOAD SWAP1 POP SWAP1 JUMP JUMPDEST PUSH0 DUP1 REVERT JUMPDEST PUSH0 DUP1 REVERT JUMPDEST PUSH0 PUSH32 0xFFFFFFFF00000000000000000000000000000000000000000000000000000000 DUP3 AND SWAP1 POP SWAP2 SWAP1 POP JUMP JUMPDEST PUSH2 0x1E2B DUP2 PUSH2 0x1DF7 JUMP JUMPDEST DUP2 EQ PUSH2 0x1E35 JUMPI PUSH0 DUP1 REVERT JUMPDEST POP JUMP JUMPDEST PUSH0 DUP2 CALLDATALOAD SWAP1 POP PUSH2 0x1E46 DUP2 PUSH2 0x1E22 JUMP JUMPDEST SWAP3 SWAP2 POP POP JUMP JUMPDEST PUSH0 PUSH1 0x20 DUP3 DUP5 SUB SLT ISZERO PUSH2 0x1E61 JUMPI PUSH2 0x1E60 PUSH2 0x1DEF JUMP JUMPDEST JUMPDEST PUSH0 PUSH2 0x1E6E DUP5 DUP3 DUP6 ADD PUSH2 0x1E38 JUMP JUMPDEST SWAP2 POP POP SWAP3 SWAP2 POP POP JUMP JUMPDEST PUSH0 DUP2 ISZERO ISZERO SWAP1 POP SWAP2 SWAP1 POP JUMP JUMPDEST PUSH2 0x1E8B DUP2 PUSH2 0x1E77 JUMP JUMPDEST DUP3 MSTORE POP POP JUMP JUMPDEST PUSH0 PUSH1 0x20 DUP3 ADD SWAP1 POP PUSH2 0x1EA4 PUSH0 DUP4 ADD DUP5 PUSH2 0x1E82 JUMP JUMPDEST SWAP3 SWAP2 POP POP JUMP JUMPDEST PUSH0 DUP2 MLOAD SWAP1 POP SWAP2 SWAP1 POP JUMP JUMPDEST PUSH0 DUP3 DUP3 MSTORE PUSH1 0x20 DUP3 ADD SWAP1 POP SWAP3 SWAP2 POP POP JUMP JUMPDEST PUSH0 JUMPDEST DUP4 DUP2 LT ISZERO PUSH2 0x1EE1 JUMPI DUP1 DUP3 ADD MLOAD DUP2 DUP5 ADD MSTORE PUSH1 0x20 DUP2 ADD SWAP1 POP PUSH2 0x1EC6 JUMP JUMPDEST PUSH0 DUP5 DUP5 ADD MSTORE POP POP POP POP JUMP JUMPDEST PUSH0 PUSH1 0x1F NOT PUSH1 0x1F DUP4 ADD AND SWAP1 POP SWAP2 SWAP1 POP JUMP JUMPDEST PUSH0 PUSH2 0x1F06 DUP3 PUSH2 0x1EAA JUMP JUMPDEST PUSH2 0x1F10 DUP2 DUP6 PUSH2 0x1EB4 JUMP JUMPDEST SWAP4 POP PUSH2 0x1F20 DUP2 DUP6 PUSH1 0x20 DUP7 ADD PUSH2 0x1EC4 JUMP JUMPDEST PUSH2 0x1F29 DUP2 PUSH2 0x1EEC JUMP JUMPDEST DUP5 ADD SWAP2 POP POP SWAP3 SWAP2 POP POP JUMP JUMPDEST PUSH0 PUSH1 0x20 DUP3 ADD SWAP1 POP DUP2 DUP2 SUB PUSH0 DUP4 ADD MSTORE PUSH2 0x1F4C DUP2 DUP5 PUSH2 0x1EFC JUMP JUMPDEST SWAP1 POP SWAP3 SWAP2 POP POP JUMP JUMPDEST PUSH0 DUP2 SWAP1 POP SWAP2 SWAP1 POP JUMP JUMPDEST PUSH2 0x1F66 DUP2 PUSH2 0x1F54 JUMP JUMPDEST DUP2 EQ PUSH2 0x1F70 JUMPI PUSH0 DUP1 REVERT JUMPDEST POP JUMP JUMPDEST PUSH0 DUP2 CALLDATALOAD SWAP1 POP PUSH2 0x1F81 DUP2 PUSH2 0x1F5D JUMP JUMPDEST SWAP3 SWAP2 POP POP JUMP JUMPDEST PUSH0 PUSH1 0x20 DUP3 DUP5 SUB SLT ISZERO PUSH2 0x1F9C JUMPI PUSH2 0x1F9B PUSH2 0x1DEF JUMP JUMPDEST JUMPDEST PUSH0 PUSH2 0x1FA9 DUP5 DUP3 DUP6 ADD PUSH2 0x1F73 JUMP JUMPDEST SWAP2 POP POP SWAP3 SWAP2 POP POP JUMP JUMPDEST PUSH0 PUSH20 0xFFFFFFFFFFFFFFFFFFFFFFFFFFFFFFFFFFFFFFFF DUP3 AND SWAP1 POP SWAP2 SWAP1 POP JUMP JUMPDEST PUSH0 PUSH2 0x1FDB DUP3 PUSH2 0x1FB2 JUMP JUMPDEST SWAP1 POP SWAP2 SWAP1 POP JUMP JUMPDEST PUSH2 0x1FEB DUP2 PUSH2 0x1FD1 JUMP JUMPDEST DUP3 MSTORE POP POP JUMP JUMPDEST PUSH0 PUSH1 0x20 DUP3 ADD SWAP1 POP PUSH2 0x2004 PUSH0 DUP4 ADD DUP5 PUSH2 0x1FE2 JUMP JUMPDEST SWAP3 SWAP2 POP POP JUMP JUMPDEST PUSH2 0x2013 DUP2 PUSH2 0x1FD1 JUMP JUMPDEST DUP2 EQ PUSH2 0x201D JUMPI PUSH0 DUP1 REVERT JUMPDEST POP JUMP JUMPDEST PUSH0 DUP2 CALLDATALOAD SWAP1 POP PUSH2 0x202E DUP2 PUSH2 0x200A JUMP JUMPDEST SWAP3 SWAP2 POP POP JUMP JUMPDEST PUSH0 DUP1 PUSH1 0x40 DUP4 DUP6 SUB SLT ISZERO PUSH2 0x204A JUMPI PUSH2 0x2049 PUSH2 0x1DEF JUMP JUMPDEST JUMPDEST PUSH0 PUSH2 0x2057 DUP6 DUP3 DUP7 ADD PUSH2 0x2020 JUMP JUMPDEST SWAP3 POP POP PUSH1 0x20 PUSH2 0x2068 DUP6 DUP3 DUP7 ADD PUSH2 0x1F73 JUMP JUMPDEST SWAP2 POP POP SWAP3 POP SWAP3 SWAP1 POP JUMP JUMPDEST PUSH0 DUP1 PUSH0 PUSH1 0x60 DUP5 DUP7 SUB SLT ISZERO PUSH2 0x2089 JUMPI PUSH2 0x2088 PUSH2 0x1DEF JUMP JUMPDEST JUMPDEST PUSH0 PUSH2 0x2096 DUP7 DUP3 DUP8 ADD PUSH2 0x2020 JUMP JUMPDEST SWAP4 POP POP PUSH1 0x20 PUSH2 0x20A7 DUP7 DUP3 DUP8 ADD PUSH2 0x2020 JUMP JUMPDEST SWAP3 POP POP PUSH1 0x40 PUSH2 0x20B8 DUP7 DUP3 DUP8 ADD PUSH2 0x1F73 JUMP JUMPDEST SWAP2 POP POP SWAP3 POP SWAP3 POP SWAP3 JUMP JUMPDEST PUSH2 0x20CB DUP2 PUSH2 0x1F54 JUMP JUMPDEST DUP3 MSTORE POP POP JUMP JUMPDEST PUSH0 PUSH1 0x40 DUP3 ADD SWAP1 POP PUSH2 0x20E4 PUSH0 DUP4 ADD DUP6 PUSH2 0x1FE2 JUMP JUMPDEST PUSH2 0x20F1 PUSH1 0x20 DUP4 ADD DUP5 PUSH2 0x20C2 JUMP JUMPDEST SWAP4 SWAP3 POP POP POP JUMP JUMPDEST PUSH0 DUP1 REVERT JUMPDEST PUSH0 DUP1 REVERT JUMPDEST PUSH32 0x4E487B7100000000000000000000000000000000000000000000000000000000 PUSH0 MSTORE PUSH1 0x41 PUSH1 0x4 MSTORE PUSH1 0x24 PUSH0 REVERT JUMPDEST PUSH2 0x2136 DUP3 PUSH2 0x1EEC JUMP JUMPDEST DUP2 ADD DUP2 DUP2 LT PUSH8 0xFFFFFFFFFFFFFFFF DUP3 GT OR ISZERO PUSH2 0x2155 JUMPI PUSH2 0x2154 PUSH2 0x2100 JUMP JUMPDEST JUMPDEST DUP1 PUSH1 0x40 MSTORE POP POP POP JUMP JUMPDEST PUSH0 PUSH2 0x2167 PUSH2 0x1DE6 JUMP JUMPDEST SWAP1 POP PUSH2 0x2173 DUP3 DUP3 PUSH2 0x212D JUMP JUMPDEST SWAP2 SWAP1 POP JUMP JUMPDEST PUSH0 PUSH8 0xFFFFFFFFFFFFFFFF DUP3 GT ISZERO PUSH2 0x2192 JUMPI PUSH2 0x2191 PUSH2 0x2100 JUMP JUMPDEST JUMPDEST PUSH2 0x219B DUP3 PUSH2 0x1EEC JUMP JUMPDEST SWAP1 POP PUSH1 0x20 DUP2 ADD SWAP1 POP SWAP2 SWAP1 POP JUMP JUMPDEST DUP3 DUP2 DUP4 CALLDATACOPY PUSH0 DUP4 DUP4 ADD MSTORE POP POP POP JUMP JUMPDEST PUSH0 PUSH2 0x21C8 PUSH2 0x21C3 DUP5 PUSH2 0x2178 JUMP JUMPDEST PUSH2 0x215E JUMP JUMPDEST SWAP1 POP DUP3 DUP2 MSTORE PUSH1 0x20 DUP2 ADD DUP5 DUP5 DUP5 ADD GT ISZERO PUSH2 0x21E4 JUMPI PUSH2 0x21E3 PUSH2 0x20FC JUMP JUMPDEST JUMPDEST PUSH2 0x21EF DUP5 DUP3 DUP6 PUSH2 0x21A8 JUMP JUMPDEST POP SWAP4 SWAP3 POP POP POP JUMP JUMPDEST PUSH0 DUP3 PUSH1 0x1F DUP4 ADD SLT PUSH2 0x220B JUMPI PUSH2 0x220A PUSH2 0x20F8 JUMP JUMPDEST JUMPDEST DUP2 CALLDATALOAD PUSH2 0x221B DUP5 DUP3 PUSH1 0x20 DUP7 ADD PUSH2 0x21B6 JUMP JUMPDEST SWAP2 POP POP SWAP3 SWAP2 POP POP JUMP JUMPDEST PUSH0 PUSH1 0x20 DUP3 DUP5 SUB SLT ISZERO PUSH2 0x2239 JUMPI PUSH2 0x2238 PUSH2 0x1DEF JUMP JUMPDEST JUMPDEST PUSH0 DUP3 ADD CALLDATALOAD PUSH8 0xFFFFFFFFFFFFFFFF DUP2 GT ISZERO PUSH2 0x2256 JUMPI PUSH2 0x2255 PUSH2 0x1DF3 JUMP JUMPDEST JUMPDEST PUSH2 0x2262 DUP5 DUP3 DUP6 ADD PUSH2 0x21F7 JUMP JUMPDEST SWAP2 POP POP SWAP3 SWAP2 POP POP JUMP JUMPDEST PUSH0 DUP1 PUSH1 0x40 DUP4 DUP6 SUB SLT ISZERO PUSH2 0x2281 JUMPI PUSH2 0x2280 PUSH2 0x1DEF JUMP JUMPDEST JUMPDEST PUSH0 DUP4 ADD CALLDATALOAD PUSH8 0xFFFFFFFFFFFFFFFF DUP2 GT ISZERO PUSH2 0x229E JUMPI PUSH2 0x229D PUSH2 0x1DF3 JUMP JUMPDEST JUMPDEST PUSH2 0x22AA DUP6 DUP3 DUP7 ADD PUSH2 0x21F7 JUMP JUMPDEST SWAP3 POP POP PUSH1 0x20 PUSH2 0x22BB DUP6 DUP3 DUP7 ADD PUSH2 0x1F73 JUMP JUMPDEST SWAP2 POP POP SWAP3 POP SWAP3 SWAP1 POP JUMP JUMPDEST PUSH0 PUSH1 0x20 DUP3 DUP5 SUB SLT ISZERO PUSH2 0x22DA JUMPI PUSH2 0x22D9 PUSH2 0x1DEF JUMP JUMPDEST JUMPDEST PUSH0 PUSH2 0x22E7 DUP5 DUP3 DUP6 ADD PUSH2 0x2020 JUMP JUMPDEST SWAP2 POP POP SWAP3 SWAP2 POP POP JUMP JUMPDEST PUSH0 PUSH1 0x20 DUP3 ADD SWAP1 POP PUSH2 0x2303 PUSH0 DUP4 ADD DUP5 PUSH2 0x20C2 JUMP JUMPDEST SWAP3 SWAP2 POP POP JUMP JUMPDEST PUSH2 0x2312 DUP2 PUSH2 0x1E77 JUMP JUMPDEST DUP2 EQ PUSH2 0x231C JUMPI PUSH0 DUP1 REVERT JUMPDEST POP JUMP JUMPDEST PUSH0 DUP2 CALLDATALOAD SWAP1 POP PUSH2 0x232D DUP2 PUSH2 0x2309 JUMP JUMPDEST SWAP3 SWAP2 POP POP JUMP JUMPDEST PUSH0 DUP1 PUSH1 0x40 DUP4 DUP6 SUB SLT ISZERO PUSH2 0x2349 JUMPI PUSH2 0x2348 PUSH2 0x1DEF JUMP JUMPDEST JUMPDEST PUSH0 PUSH2 0x2356 DUP6 DUP3 DUP7 ADD PUSH2 0x2020 JUMP JUMPDEST SWAP3 POP POP PUSH1 0x20 PUSH2 0x2367 DUP6 DUP3 DUP7 ADD PUSH2 0x231F JUMP JUMPDEST SWAP2 POP POP SWAP3 POP SWAP3 SWAP1 POP JUMP JUMPDEST PUSH0 PUSH8 0xFFFFFFFFFFFFFFFF DUP3 GT ISZERO PUSH2 0x238B JUMPI PUSH2 0x238A PUSH2 0x2100 JUMP JUMPDEST JUMPDEST PUSH2 0x2394 DUP3 PUSH2 0x1EEC JUMP JUMPDEST SWAP1 POP PUSH1 0x20 DUP2 ADD SWAP1 POP SWAP2 SWAP1 POP JUMP JUMPDEST PUSH0 PUSH2 0x23B3 PUSH2 0x23AE DUP5 PUSH2 0x2371 JUMP JUMPDEST PUSH2 0x215E JUMP JUMPDEST SWAP1 POP DUP3 DUP2 MSTORE PUSH1 0x20 DUP2 ADD DUP5 DUP5 DUP5 ADD GT ISZERO PUSH2 0x23CF JUMPI PUSH2 0x23CE PUSH2 0x20FC JUMP JUMPDEST JUMPDEST PUSH2 0x23DA DUP5 DUP3 DUP6 PUSH2 0x21A8 JUMP JUMPDEST POP SWAP4 SWAP3 POP POP POP JUMP JUMPDEST PUSH0 DUP3 PUSH1 0x1F DUP4 ADD SLT PUSH2 0x23F6 JUMPI PUSH2 0x23F5 PUSH2 0x20F8 JUMP JUMPDEST JUMPDEST DUP2 CALLDATALOAD PUSH2 0x2406 DUP5 DUP3 PUSH1 0x20 DUP7 ADD PUSH2 0x23A1 JUMP JUMPDEST SWAP2 POP POP SWAP3 SWAP2 POP POP JUMP JUMPDEST PUSH0 DUP1 PUSH0 DUP1 PUSH1 0x80 DUP6 DUP8 SUB SLT ISZERO PUSH2 0x2427 JUMPI PUSH2 0x2426 PUSH2 0x1DEF JUMP JUMPDEST JUMPDEST PUSH0 PUSH2 0x2434 DUP8 DUP3 DUP9 ADD PUSH2 0x2020 JUMP JUMPDEST SWAP5 POP POP PUSH1 0x20 PUSH2 0x2445 DUP8 DUP3 DUP9 ADD PUSH2 0x2020 JUMP JUMPDEST SWAP4 POP POP PUSH1 0x40 PUSH2 0x2456 DUP8 DUP3 DUP9 ADD PUSH2 0x1F73 JUMP JUMPDEST SWAP3 POP POP PUSH1 0x60 DUP6 ADD CALLDATALOAD PUSH8 0xFFFFFFFFFFFFFFFF DUP2 GT ISZERO PUSH2 0x2477 JUMPI PUSH2 0x2476 PUSH2 0x1DF3 JUMP JUMPDEST JUMPDEST PUSH2 0x2483 DUP8 DUP3 DUP9 ADD PUSH2 0x23E2 JUMP JUMPDEST SWAP2 POP POP SWAP3 SWAP6 SWAP2 SWAP5 POP SWAP3 POP JUMP JUMPDEST PUSH0 DUP1 PUSH1 0x40 DUP4 DUP6 SUB SLT ISZERO PUSH2 0x24A5 JUMPI PUSH2 0x24A4 PUSH2 0x1DEF JUMP JUMPDEST JUMPDEST PUSH0 PUSH2 0x24B2 DUP6 DUP3 DUP7 ADD PUSH2 0x2020 JUMP JUMPDEST SWAP3 POP POP PUSH1 0x20 PUSH2 0x24C3 DUP6 DUP3 DUP7 ADD PUSH2 0x2020 JUMP JUMPDEST SWAP2 POP POP SWAP3 POP SWAP3 SWAP1 POP JUMP JUMPDEST PUSH32 0x4E487B7100000000000000000000000000000000000000000000000000000000 PUSH0 MSTORE PUSH1 0x22 PUSH1 0x4 MSTORE PUSH1 0x24 PUSH0 REVERT JUMPDEST PUSH0 PUSH1 0x2 DUP3 DIV SWAP1 POP PUSH1 0x1 DUP3 AND DUP1 PUSH2 0x2511 JUMPI PUSH1 0x7F DUP3 AND SWAP2 POP JUMPDEST PUSH1 0x20 DUP3 LT DUP2 SUB PUSH2 0x2524 JUMPI PUSH2 0x2523 PUSH2 0x24CD JUMP JUMPDEST JUMPDEST POP SWAP2 SWAP1 POP JUMP JUMPDEST PUSH0 PUSH1 0x60 DUP3 ADD SWAP1 POP PUSH2 0x253D PUSH0 DUP4 ADD DUP7 PUSH2 0x1FE2 JUMP JUMPDEST PUSH2 0x254A PUSH1 0x20 DUP4 ADD DUP6 PUSH2 0x20C2 JUMP JUMPDEST PUSH2 0x2557 PUSH1 0x40 DUP4 ADD DUP5 PUSH2 0x1FE2 JUMP JUMPDEST SWAP5 SWAP4 POP POP POP POP JUMP JUMPDEST PUSH0 DUP2 SWAP1 POP DUP2 PUSH0 MSTORE PUSH1 0x20 PUSH0 KECCAK256 SWAP1 POP SWAP2 SWAP1 POP JUMP JUMPDEST PUSH0 PUSH1 0x20 PUSH1 0x1F DUP4 ADD DIV SWAP1 POP SWAP2 SWAP1 POP JUMP JUMPDEST PUSH0 DUP3 DUP3 SHL SWAP1 POP SWAP3 SWAP2 POP POP JUMP JUMPDEST PUSH0 PUSH1 0x8 DUP4 MUL PUSH2 0x25BB PUSH32 0xFFFFFFFFFFFFFFFFFFFFFFFFFFFFFFFFFFFFFFFFFFFFFFFFFFFFFFFFFFFFFFFF DUP3 PUSH2 0x2580 JUMP JUMPDEST PUSH2 0x25C5 DUP7 DUP4 PUSH2 0x2580 JUMP JUMPDEST SWAP6 POP DUP1 NOT DUP5 AND SWAP4 POP DUP1 DUP7 AND DUP5 OR SWAP3 POP POP POP SWAP4 SWAP3 POP POP POP JUMP JUMPDEST PUSH0 DUP2 SWAP1 POP SWAP2 SWAP1 POP JUMP JUMPDEST PUSH0 PUSH2 0x2600 PUSH2 0x25FB PUSH2 0x25F6 DUP5 PUSH2 0x1F54 JUMP JUMPDEST PUSH2 0x25DD JUMP JUMPDEST PUSH2 0x1F54 JUMP JUMPDEST SWAP1 POP SWAP2 SWAP1 POP JUMP JUMPDEST PUSH0 DUP2 SWAP1 POP SWAP2 SWAP1 POP JUMP JUMPDEST PUSH2 0x2619 DUP4 PUSH2 0x25E6 JUMP JUMPDEST PUSH2 0x262D PUSH2 0x2625 DUP3 PUSH2 0x2607 JUMP JUMPDEST DUP5 DUP5 SLOAD PUSH2 0x258C JUMP JUMPDEST DUP3 SSTORE POP POP POP POP JUMP JUMPDEST PUSH0 SWAP1 JUMP JUMPDEST PUSH2 0x2641 PUSH2 0x2635 JUMP JUMPDEST PUSH2 0x264C DUP2 DUP5 DUP5 PUSH2 0x2610 JUMP JUMPDEST POP POP POP JUMP JUMPDEST JUMPDEST DUP2 DUP2 LT ISZERO PUSH2 0x266F JUMPI PUSH2 0x2664 PUSH0 DUP3 PUSH2 0x2639 JUMP JUMPDEST PUSH1 0x1 DUP2 ADD SWAP1 POP PUSH2 0x2652 JUMP JUMPDEST POP POP JUMP JUMPDEST PUSH1 0x1F DUP3 GT ISZERO PUSH2 0x26B4 JUMPI PUSH2 0x2685 DUP2 PUSH2 0x255F JUMP JUMPDEST PUSH2 0x268E DUP5 PUSH2 0x2571 JUMP JUMPDEST DUP2 ADD PUSH1 0x20 DUP6 LT ISZERO PUSH2 0x269D JUMPI DUP2 SWAP1 POP JUMPDEST PUSH2 0x26B1 PUSH2 0x26A9 DUP6 PUSH2 0x2571 JUMP JUMPDEST DUP4 ADD DUP3 PUSH2 0x2651 JUMP JUMPDEST POP POP JUMPDEST POP POP POP JUMP JUMPDEST PUSH0 DUP3 DUP3 SHR SWAP1 POP SWAP3 SWAP2 POP POP JUMP JUMPDEST PUSH0 PUSH2 0x26D4 PUSH0 NOT DUP5 PUSH1 0x8 MUL PUSH2 0x26B9 JUMP JUMPDEST NOT DUP1 DUP4 AND SWAP2 POP POP SWAP3 SWAP2 POP POP JUMP JUMPDEST PUSH0 PUSH2 0x26EC DUP4 DUP4 PUSH2 0x26C5 JUMP JUMPDEST SWAP2 POP DUP3 PUSH1 0x2 MUL DUP3 OR SWAP1 POP SWAP3 SWAP2 POP POP JUMP JUMPDEST PUSH2 0x2705 DUP3 PUSH2 0x1EAA JUMP JUMPDEST PUSH8 0xFFFFFFFFFFFFFFFF DUP2 GT ISZERO PUSH2 0x271E JUMPI PUSH2 0x271D PUSH2 0x2100 JUMP JUMPDEST JUMPDEST PUSH2 0x2728 DUP3 SLOAD PUSH2 0x24FA JUMP JUMPDEST PUSH2 0x2733 DUP3 DUP3 DUP6 PUSH2 0x2673 JUMP JUMPDEST PUSH0 PUSH1 0x20 SWAP1 POP PUSH1 0x1F DUP4 GT PUSH1 0x1 DUP2 EQ PUSH2 0x2764 JUMPI PUSH0 DUP5 ISZERO PUSH2 0x2752 JUMPI DUP3 DUP8 ADD MLOAD SWAP1 POP JUMPDEST PUSH2 0x275C DUP6 DUP3 PUSH2 0x26E1 JUMP JUMPDEST DUP7 SSTORE POP PUSH2 0x27C3 JUMP JUMPDEST PUSH1 0x1F NOT DUP5 AND PUSH2 0x2772 DUP7 PUSH2 0x255F JUMP JUMPDEST PUSH0 JUMPDEST DUP3 DUP2 LT ISZERO PUSH2 0x2799 JUMPI DUP5 DUP10 ADD MLOAD DUP3 SSTORE PUSH1 0x1 DUP3 ADD SWAP2 POP PUSH1 0x20 DUP6 ADD SWAP5 POP PUSH1 0x20 DUP2 ADD SWAP1 POP PUSH2 0x2774 JUMP JUMPDEST DUP7 DUP4 LT ISZERO PUSH2 0x27B6 JUMPI DUP5 DUP10 ADD MLOAD PUSH2 0x27B2 PUSH1 0x1F DUP10 AND DUP3 PUSH2 0x26C5 JUMP JUMPDEST DUP4 SSTORE POP JUMPDEST PUSH1 0x1 PUSH1 0x2 DUP9 MUL ADD DUP9 SSTORE POP POP POP JUMPDEST POP POP POP POP POP POP JUMP JUMPDEST PUSH0 DUP2 SWAP1 POP SWAP3 SWAP2 POP POP JUMP JUMPDEST PUSH0 PUSH2 0x27DF DUP3 PUSH2 0x1EAA JUMP JUMPDEST PUSH2 0x27E9 DUP2 DUP6 PUSH2 0x27CB JUMP JUMPDEST SWAP4 POP PUSH2 0x27F9 DUP2 DUP6 PUSH1 0x20 DUP7 ADD PUSH2 0x1EC4 JUMP JUMPDEST DUP1 DUP5 ADD SWAP2 POP POP SWAP3 SWAP2 POP POP JUMP JUMPDEST PUSH0 PUSH2 0x2810 DUP3 DUP6 PUSH2 0x27D5 JUMP JUMPDEST SWAP2 POP PUSH2 0x281C DUP3 DUP5 PUSH2 0x27D5 JUMP JUMPDEST SWAP2 POP DUP2 SWAP1 POP SWAP4 SWAP3 POP POP POP JUMP JUMPDEST PUSH32 0x546F6B656E20646F6573206E6F74206578697374000000000000000000000000 PUSH0 DUP3 ADD MSTORE POP JUMP JUMPDEST PUSH0 PUSH2 0x285C PUSH1 0x14 DUP4 PUSH2 0x1EB4 JUMP JUMPDEST SWAP2 POP PUSH2 0x2867 DUP3 PUSH2 0x2828 JUMP JUMPDEST PUSH1 0x20 DUP3 ADD SWAP1 POP SWAP2 SWAP1 POP JUMP JUMPDEST PUSH0 PUSH1 0x20 DUP3 ADD SWAP1 POP DUP2 DUP2 SUB PUSH0 DUP4 ADD MSTORE PUSH2 0x2889 DUP2 PUSH2 0x2850 JUMP JUMPDEST SWAP1 POP SWAP2 SWAP1 POP JUMP JUMPDEST PUSH32 0x43616E6E6F742062757920796F7572206F776E204E4654000000000000000000 PUSH0 DUP3 ADD MSTORE POP JUMP JUMPDEST PUSH0 PUSH2 0x28C4 PUSH1 0x17 DUP4 PUSH2 0x1EB4 JUMP JUMPDEST SWAP2 POP PUSH2 0x28CF DUP3 PUSH2 0x2890 JUMP JUMPDEST PUSH1 0x20 DUP3 ADD SWAP1 POP SWAP2 SWAP1 POP JUMP JUMPDEST PUSH0 PUSH1 0x20 DUP3 ADD SWAP1 POP DUP2 DUP2 SUB PUSH0 DUP4 ADD MSTORE PUSH2 0x28F1 DUP2 PUSH2 0x28B8 JUMP JUMPDEST SWAP1 POP SWAP2 SWAP1 POP JUMP JUMPDEST PUSH32 0x496E73756666696369656E742066756E64730000000000000000000000000000 PUSH0 DUP3 ADD MSTORE POP JUMP JUMPDEST PUSH0 PUSH2 0x292C PUSH1 0x12 DUP4 PUSH2 0x1EB4 JUMP JUMPDEST SWAP2 POP PUSH2 0x2937 DUP3 PUSH2 0x28F8 JUMP JUMPDEST PUSH1 0x20 DUP3 ADD SWAP1 POP SWAP2 SWAP1 POP JUMP JUMPDEST PUSH0 PUSH1 0x20 DUP3 ADD SWAP1 POP DUP2 DUP2 SUB PUSH0 DUP4 ADD MSTORE PUSH2 0x2959 DUP2 PUSH2 0x2920 JUMP JUMPDEST SWAP1 POP SWAP2 SWAP1 POP JUMP JUMPDEST PUSH32 0x4E487B7100000000000000000000000000000000000000000000000000000000 PUSH0 MSTORE PUSH1 0x11 PUSH1 0x4 MSTORE PUSH1 0x24 PUSH0 REVERT JUMPDEST PUSH0 PUSH2 0x2997 DUP3 PUSH2 0x1F54 JUMP JUMPDEST SWAP2 POP PUSH2 0x29A2 DUP4 PUSH2 0x1F54 JUMP JUMPDEST SWAP3 POP DUP3 DUP3 MUL PUSH2 0x29B0 DUP2 PUSH2 0x1F54 JUMP JUMPDEST SWAP2 POP DUP3 DUP3 DIV DUP5 EQ DUP4 ISZERO OR PUSH2 0x29C7 JUMPI PUSH2 0x29C6 PUSH2 0x2960 JUMP JUMPDEST JUMPDEST POP SWAP3 SWAP2 POP POP JUMP JUMPDEST PUSH32 0x4E487B7100000000000000000000000000000000000000000000000000000000 PUSH0 MSTORE PUSH1 0x12 PUSH1 0x4 MSTORE PUSH1 0x24 PUSH0 REVERT JUMPDEST PUSH0 PUSH2 0x2A05 DUP3 PUSH2 0x1F54 JUMP JUMPDEST SWAP2 POP PUSH2 0x2A10 DUP4 PUSH2 0x1F54 JUMP JUMPDEST SWAP3 POP DUP3 PUSH2 0x2A20 JUMPI PUSH2 0x2A1F PUSH2 0x29CE JUMP JUMPDEST JUMPDEST DUP3 DUP3 DIV SWAP1 POP SWAP3 SWAP2 POP POP JUMP JUMPDEST PUSH0 PUSH2 0x2A35 DUP3 PUSH2 0x1F54 JUMP JUMPDEST SWAP2 POP PUSH2 0x2A40 DUP4 PUSH2 0x1F54 JUMP JUMPDEST SWAP3 POP DUP3 DUP3 SUB SWAP1 POP DUP2 DUP2 GT ISZERO PUSH2 0x2A58 JUMPI PUSH2 0x2A57 PUSH2 0x2960 JUMP JUMPDEST JUMPDEST SWAP3 SWAP2 POP POP JUMP JUMPDEST PUSH0 DUP2 MLOAD SWAP1 POP SWAP2 SWAP1 POP JUMP JUMPDEST PUSH0 DUP3 DUP3 MSTORE PUSH1 0x20 DUP3 ADD SWAP1 POP SWAP3 SWAP2 POP POP JUMP JUMPDEST PUSH0 PUSH2 0x2A82 DUP3 PUSH2 0x2A5E JUMP JUMPDEST PUSH2 0x2A8C DUP2 DUP6 PUSH2 0x2A68 JUMP JUMPDEST SWAP4 POP PUSH2 0x2A9C DUP2 DUP6 PUSH1 0x20 DUP7 ADD PUSH2 0x1EC4 JUMP JUMPDEST PUSH2 0x2AA5 DUP2 PUSH2 0x1EEC JUMP JUMPDEST DUP5 ADD SWAP2 POP POP SWAP3 SWAP2 POP POP JUMP JUMPDEST PUSH0 PUSH1 0x80 DUP3 ADD SWAP1 POP PUSH2 0x2AC3 PUSH0 DUP4 ADD DUP8 PUSH2 0x1FE2 JUMP JUMPDEST PUSH2 0x2AD0 PUSH1 0x20 DUP4 ADD DUP7 PUSH2 0x1FE2 JUMP JUMPDEST PUSH2 0x2ADD PUSH1 0x40 DUP4 ADD DUP6 PUSH2 0x20C2 JUMP JUMPDEST DUP2 DUP2 SUB PUSH1 0x60 DUP4 ADD MSTORE PUSH2 0x2AEF DUP2 DUP5 PUSH2 0x2A78 JUMP JUMPDEST SWAP1 POP SWAP6 SWAP5 POP POP POP POP POP JUMP JUMPDEST PUSH0 DUP2 MLOAD SWAP1 POP PUSH2 0x2B08 DUP2 PUSH2 0x1E22 JUMP JUMPDEST SWAP3 SWAP2 POP POP JUMP JUMPDEST PUSH0 PUSH1 0x20 DUP3 DUP5 SUB SLT ISZERO PUSH2 0x2B23 JUMPI PUSH2 0x2B22 PUSH2 0x1DEF JUMP JUMPDEST JUMPDEST PUSH0 PUSH2 0x2B30 DUP5 DUP3 DUP6 ADD PUSH2 0x2AFA JUMP JUMPDEST SWAP2 POP POP SWAP3 SWAP2 POP POP JUMP INVALID LOG2 PUSH5 0x6970667358 0x22 SLT KECCAK256 SWAP7 MSIZE 0xD9 0xA9 0x28 0xB3 MSTORE8 PUSH17 0xACD3CB0A5E544C2905C887FBFC04CF262 SHL SWAP5 0xCB PUSH12 0x58049F64736F6C6343000815 STOP CALLER "
				},
				"gasEstimates": {
					"creation": {
						"codeDepositCost": "2223800",
						"executionCost": "infinite",
						"totalCost": "infinite"
					},
					"external": {
						"approve(address,uint256)": "infinite",
						"balanceOf(address)": "infinite",
						"getApproved(uint256)": "infinite",
						"isApprovedForAll(address,address)": "infinite",
						"mintNFT(string,uint256)": "infinite",
						"name()": "infinite",
						"nfts(uint256)": "infinite",
						"owner()": "2582",
						"ownerOf(uint256)": "infinite",
						"renounceOwnership()": "infinite",
						"royaltyRate()": "2469",
						"safeTransferFrom(address,address,uint256)": "infinite",
						"safeTransferFrom(address,address,uint256,bytes)": "infinite",
						"sellNFT(uint256)": "infinite",
						"setApprovalForAll(address,bool)": "infinite",
						"setBaseURI(string)": "infinite",
						"supportsInterface(bytes4)": "787",
						"symbol()": "infinite",
						"tokenURI(uint256)": "infinite",
						"transferFrom(address,address,uint256)": "infinite",
						"transferOwnership(address)": "infinite"
					},
					"internal": {
						"_exists(uint256)": "infinite",
						"_setTokenURI(uint256,string memory)": "infinite"
					}
				},
				"methodIdentifiers": {
					"approve(address,uint256)": "095ea7b3",
					"balanceOf(address)": "70a08231",
					"getApproved(uint256)": "081812fc",
					"isApprovedForAll(address,address)": "e985e9c5",
					"mintNFT(string,uint256)": "5afa3a72",
					"name()": "06fdde03",
					"nfts(uint256)": "265aa621",
					"owner()": "8da5cb5b",
					"ownerOf(uint256)": "6352211e",
					"renounceOwnership()": "715018a6",
					"royaltyRate()": "c4d1510d",
					"safeTransferFrom(address,address,uint256)": "42842e0e",
					"safeTransferFrom(address,address,uint256,bytes)": "b88d4fde",
					"sellNFT(uint256)": "ee9cdfb3",
					"setApprovalForAll(address,bool)": "a22cb465",
					"setBaseURI(string)": "55f804b3",
					"supportsInterface(bytes4)": "01ffc9a7",
					"symbol()": "95d89b41",
					"tokenURI(uint256)": "c87b56dd",
					"transferFrom(address,address,uint256)": "23b872dd",
					"transferOwnership(address)": "f2fde38b"
				}
			},
			"storageLayout": {
				"storage": [
					{
						"astId": 317,
						"contract": "nftmarket.sol:NFTMarketplace",
						"label": "_name",
						"offset": 0,
						"slot": "0",
						"type": "t_string_storage"
					},
					{
						"astId": 319,
						"contract": "nftmarket.sol:NFTMarketplace",
						"label": "_symbol",
						"offset": 0,
						"slot": "1",
						"type": "t_string_storage"
					},
					{
						"astId": 323,
						"contract": "nftmarket.sol:NFTMarketplace",
						"label": "_owners",
						"offset": 0,
						"slot": "2",
						"type": "t_mapping(t_uint256,t_address)"
					},
					{
						"astId": 327,
						"contract": "nftmarket.sol:NFTMarketplace",
						"label": "_balances",
						"offset": 0,
						"slot": "3",
						"type": "t_mapping(t_address,t_uint256)"
					},
					{
						"astId": 331,
						"contract": "nftmarket.sol:NFTMarketplace",
						"label": "_tokenApprovals",
						"offset": 0,
						"slot": "4",
						"type": "t_mapping(t_uint256,t_address)"
					},
					{
						"astId": 337,
						"contract": "nftmarket.sol:NFTMarketplace",
						"label": "_operatorApprovals",
						"offset": 0,
						"slot": "5",
						"type": "t_mapping(t_address,t_mapping(t_address,t_bool))"
					},
					{
						"astId": 8,
						"contract": "nftmarket.sol:NFTMarketplace",
						"label": "_owner",
						"offset": 0,
						"slot": "6",
						"type": "t_address"
					},
					{
						"astId": 3018,
						"contract": "nftmarket.sol:NFTMarketplace",
						"label": "_tokenIdCounter",
						"offset": 0,
						"slot": "7",
						"type": "t_struct(Counter)1484_storage"
					},
					{
						"astId": 3020,
						"contract": "nftmarket.sol:NFTMarketplace",
						"label": "baseTokenURI",
						"offset": 0,
						"slot": "8",
						"type": "t_string_storage"
					},
					{
						"astId": 3023,
						"contract": "nftmarket.sol:NFTMarketplace",
						"label": "royaltyRate",
						"offset": 0,
						"slot": "9",
						"type": "t_uint256"
					},
					{
						"astId": 3033,
						"contract": "nftmarket.sol:NFTMarketplace",
						"label": "nfts",
						"offset": 0,
						"slot": "10",
						"type": "t_mapping(t_uint256,t_struct(NFT)3028_storage)"
					}
				],
				"types": {
					"t_address": {
						"encoding": "inplace",
						"label": "address",
						"numberOfBytes": "20"
					},
					"t_bool": {
						"encoding": "inplace",
						"label": "bool",
						"numberOfBytes": "1"
					},
					"t_mapping(t_address,t_bool)": {
						"encoding": "mapping",
						"key": "t_address",
						"label": "mapping(address => bool)",
						"numberOfBytes": "32",
						"value": "t_bool"
					},
					"t_mapping(t_address,t_mapping(t_address,t_bool))": {
						"encoding": "mapping",
						"key": "t_address",
						"label": "mapping(address => mapping(address => bool))",
						"numberOfBytes": "32",
						"value": "t_mapping(t_address,t_bool)"
					},
					"t_mapping(t_address,t_uint256)": {
						"encoding": "mapping",
						"key": "t_address",
						"label": "mapping(address => uint256)",
						"numberOfBytes": "32",
						"value": "t_uint256"
					},
					"t_mapping(t_uint256,t_address)": {
						"encoding": "mapping",
						"key": "t_uint256",
						"label": "mapping(uint256 => address)",
						"numberOfBytes": "32",
						"value": "t_address"
					},
					"t_mapping(t_uint256,t_struct(NFT)3028_storage)": {
						"encoding": "mapping",
						"key": "t_uint256",
						"label": "mapping(uint256 => struct NFTMarketplace.NFT)",
						"numberOfBytes": "32",
						"value": "t_struct(NFT)3028_storage"
					},
					"t_string_storage": {
						"encoding": "bytes",
						"label": "string",
						"numberOfBytes": "32"
					},
					"t_struct(Counter)1484_storage": {
						"encoding": "inplace",
						"label": "struct Counters.Counter",
						"members": [
							{
								"astId": 1483,
								"contract": "nftmarket.sol:NFTMarketplace",
								"label": "_value",
								"offset": 0,
								"slot": "0",
								"type": "t_uint256"
							}
						],
						"numberOfBytes": "32"
					},
					"t_struct(NFT)3028_storage": {
						"encoding": "inplace",
						"label": "struct NFTMarketplace.NFT",
						"members": [
							{
								"astId": 3025,
								"contract": "nftmarket.sol:NFTMarketplace",
								"label": "owner",
								"offset": 0,
								"slot": "0",
								"type": "t_address"
							},
							{
								"astId": 3027,
								"contract": "nftmarket.sol:NFTMarketplace",
								"label": "price",
								"offset": 0,
								"slot": "1",
								"type": "t_uint256"
							}
						],
						"numberOfBytes": "64"
					},
					"t_uint256": {
						"encoding": "inplace",
						"label": "uint256",
						"numberOfBytes": "32"
					}
				}
			},
			"userdoc": {
				"kind": "user",
				"methods": {},
				"version": 1
			}
		}
	}
}