{
	"nftmarket_flattened.sol": {
		"NFTMarketplace": {
			"abi": [
				{
					"inputs": [],
					"stateMutability": "nonpayable",
					"type": "constructor"
				},
				{
					"inputs": [
						{
							"internalType": "address",
							"name": "sender",
							"type": "address"
						},
						{
							"internalType": "uint256",
							"name": "tokenId",
							"type": "uint256"
						},
						{
							"internalType": "address",
							"name": "owner",
							"type": "address"
						}
					],
					"name": "ERC721IncorrectOwner",
					"type": "error"
				},
				{
					"inputs": [
						{
							"internalType": "address",
							"name": "operator",
							"type": "address"
						},
						{
							"internalType": "uint256",
							"name": "tokenId",
							"type": "uint256"
						}
					],
					"name": "ERC721InsufficientApproval",
					"type": "error"
				},
				{
					"inputs": [
						{
							"internalType": "address",
							"name": "approver",
							"type": "address"
						}
					],
					"name": "ERC721InvalidApprover",
					"type": "error"
				},
				{
					"inputs": [
						{
							"internalType": "address",
							"name": "operator",
							"type": "address"
						}
					],
					"name": "ERC721InvalidOperator",
					"type": "error"
				},
				{
					"inputs": [
						{
							"internalType": "address",
							"name": "owner",
							"type": "address"
						}
					],
					"name": "ERC721InvalidOwner",
					"type": "error"
				},
				{
					"inputs": [
						{
							"internalType": "address",
							"name": "receiver",
							"type": "address"
						}
					],
					"name": "ERC721InvalidReceiver",
					"type": "error"
				},
				{
					"inputs": [
						{
							"internalType": "address",
							"name": "sender",
							"type": "address"
						}
					],
					"name": "ERC721InvalidSender",
					"type": "error"
				},
				{
					"inputs": [
						{
							"internalType": "uint256",
							"name": "tokenId",
							"type": "uint256"
						}
					],
					"name": "ERC721NonexistentToken",
					"type": "error"
				},
				{
					"anonymous": false,
					"inputs": [
						{
							"indexed": true,
							"internalType": "address",
							"name": "owner",
							"type": "address"
						},
						{
							"indexed": true,
							"internalType": "address",
							"name": "approved",
							"type": "address"
						},
						{
							"indexed": true,
							"internalType": "uint256",
							"name": "tokenId",
							"type": "uint256"
						}
					],
					"name": "Approval",
					"type": "event"
				},
				{
					"anonymous": false,
					"inputs": [
						{
							"indexed": true,
							"internalType": "address",
							"name": "owner",
							"type": "address"
						},
						{
							"indexed": true,
							"internalType": "address",
							"name": "operator",
							"type": "address"
						},
						{
							"indexed": false,
							"internalType": "bool",
							"name": "approved",
							"type": "bool"
						}
					],
					"name": "ApprovalForAll",
					"type": "event"
				},
				{
					"anonymous": false,
					"inputs": [
						{
							"indexed": false,
							"internalType": "uint256",
							"name": "_fromTokenId",
							"type": "uint256"
						},
						{
							"indexed": false,
							"internalType": "uint256",
							"name": "_toTokenId",
							"type": "uint256"
						}
					],
					"name": "BatchMetadataUpdate",
					"type": "event"
				},
				{
					"anonymous": false,
					"inputs": [
						{
							"indexed": false,
							"internalType": "uint256",
							"name": "_tokenId",
							"type": "uint256"
						}
					],
					"name": "MetadataUpdate",
					"type": "event"
				},
				{
					"anonymous": false,
					"inputs": [
						{
							"indexed": true,
							"internalType": "address",
							"name": "from",
							"type": "address"
						},
						{
							"indexed": true,
							"internalType": "address",
							"name": "to",
							"type": "address"
						},
						{
							"indexed": true,
							"internalType": "uint256",
							"name": "tokenId",
							"type": "uint256"
						}
					],
					"name": "Transfer",
					"type": "event"
				},
				{
					"inputs": [
						{
							"internalType": "uint256",
							"name": "tokenId",
							"type": "uint256"
						}
					],
					"name": "BuyNFT",
					"outputs": [],
					"stateMutability": "payable",
					"type": "function"
				},
				{
					"inputs": [
						{
							"internalType": "uint256",
							"name": "tokenIds",
							"type": "uint256"
						}
					],
					"name": "KnowPrice",
					"outputs": [
						{
							"internalType": "uint256",
							"name": "",
							"type": "uint256"
						}
					],
					"stateMutability": "view",
					"type": "function"
				},
				{
					"inputs": [
						{
							"internalType": "uint256",
							"name": "tokenId",
							"type": "uint256"
						}
					],
					"name": "SellNft",
					"outputs": [],
					"stateMutability": "nonpayable",
					"type": "function"
				},
				{
					"inputs": [
						{
							"internalType": "uint256",
							"name": "tokenids",
							"type": "uint256"
						}
					],
					"name": "SoldNft",
					"outputs": [
						{
							"internalType": "bool",
							"name": "",
							"type": "bool"
						}
					],
					"stateMutability": "view",
					"type": "function"
				},
				{
					"inputs": [
						{
							"internalType": "address",
							"name": "to",
							"type": "address"
						},
						{
							"internalType": "uint256",
							"name": "tokenId",
							"type": "uint256"
						}
					],
					"name": "approve",
					"outputs": [],
					"stateMutability": "nonpayable",
					"type": "function"
				},
				{
					"inputs": [
						{
							"internalType": "address",
							"name": "owner",
							"type": "address"
						}
					],
					"name": "balanceOf",
					"outputs": [
						{
							"internalType": "uint256",
							"name": "",
							"type": "uint256"
						}
					],
					"stateMutability": "view",
					"type": "function"
				},
				{
					"inputs": [],
					"name": "baseTokenURI",
					"outputs": [
						{
							"internalType": "string",
							"name": "",
							"type": "string"
						}
					],
					"stateMutability": "view",
					"type": "function"
				},
				{
					"inputs": [
						{
							"internalType": "uint256",
							"name": "tokenId",
							"type": "uint256"
						}
					],
					"name": "getApproved",
					"outputs": [
						{
							"internalType": "address",
							"name": "",
							"type": "address"
						}
					],
					"stateMutability": "view",
					"type": "function"
				},
				{
					"inputs": [
						{
							"internalType": "address",
							"name": "ads",
							"type": "address"
						}
					],
					"name": "getBalance",
					"outputs": [
						{
							"internalType": "uint256",
							"name": "",
							"type": "uint256"
						}
					],
					"stateMutability": "view",
					"type": "function"
				},
				{
					"inputs": [],
					"name": "getTotalToken",
					"outputs": [
						{
							"internalType": "uint256",
							"name": "",
							"type": "uint256"
						}
					],
					"stateMutability": "view",
					"type": "function"
				},
				{
					"inputs": [
						{
							"internalType": "address",
							"name": "owner",
							"type": "address"
						},
						{
							"internalType": "address",
							"name": "operator",
							"type": "address"
						}
					],
					"name": "isApprovedForAll",
					"outputs": [
						{
							"internalType": "bool",
							"name": "",
							"type": "bool"
						}
					],
					"stateMutability": "view",
					"type": "function"
				},
				{
					"inputs": [
						{
							"internalType": "uint256",
							"name": "tokenid",
							"type": "uint256"
						}
					],
					"name": "isSellNft",
					"outputs": [
						{
							"internalType": "bool",
							"name": "",
							"type": "bool"
						}
					],
					"stateMutability": "view",
					"type": "function"
				},
				{
					"inputs": [
						{
							"internalType": "string",
							"name": "tokenURI",
							"type": "string"
						},
						{
							"internalType": "uint256",
							"name": "price",
							"type": "uint256"
						}
					],
					"name": "mintNFT",
					"outputs": [],
					"stateMutability": "nonpayable",
					"type": "function"
				},
				{
					"inputs": [],
					"name": "name",
					"outputs": [
						{
							"internalType": "string",
							"name": "",
							"type": "string"
						}
					],
					"stateMutability": "view",
					"type": "function"
				},
				{
					"inputs": [
						{
							"internalType": "uint256",
							"name": "",
							"type": "uint256"
						}
					],
					"name": "nfts",
					"outputs": [
						{
							"internalType": "address",
							"name": "creator",
							"type": "address"
						},
						{
							"internalType": "uint256",
							"name": "price",
							"type": "uint256"
						}
					],
					"stateMutability": "view",
					"type": "function"
				},
				{
					"inputs": [
						{
							"internalType": "uint256",
							"name": "tokenId",
							"type": "uint256"
						}
					],
					"name": "ownerOf",
					"outputs": [
						{
							"internalType": "address",
							"name": "",
							"type": "address"
						}
					],
					"stateMutability": "view",
					"type": "function"
				},
				{
					"inputs": [
						{
							"internalType": "uint256",
							"name": "tokenId",
							"type": "uint256"
						},
						{
							"internalType": "uint256",
							"name": "value",
							"type": "uint256"
						}
					],
					"name": "royaltyInfo",
					"outputs": [
						{
							"internalType": "address",
							"name": "receiver",
							"type": "address"
						},
						{
							"internalType": "uint256",
							"name": "royaltyAmount",
							"type": "uint256"
						}
					],
					"stateMutability": "view",
					"type": "function"
				},
				{
					"inputs": [],
					"name": "royaltyPercentage",
					"outputs": [
						{
							"internalType": "uint256",
							"name": "",
							"type": "uint256"
						}
					],
					"stateMutability": "view",
					"type": "function"
				},
				{
					"inputs": [
						{
							"internalType": "address",
							"name": "from",
							"type": "address"
						},
						{
							"internalType": "address",
							"name": "to",
							"type": "address"
						},
						{
							"internalType": "uint256",
							"name": "tokenId",
							"type": "uint256"
						}
					],
					"name": "safeTransferFrom",
					"outputs": [],
					"stateMutability": "nonpayable",
					"type": "function"
				},
				{
					"inputs": [
						{
							"internalType": "address",
							"name": "from",
							"type": "address"
						},
						{
							"internalType": "address",
							"name": "to",
							"type": "address"
						},
						{
							"internalType": "uint256",
							"name": "tokenId",
							"type": "uint256"
						},
						{
							"internalType": "bytes",
							"name": "data",
							"type": "bytes"
						}
					],
					"name": "safeTransferFrom",
					"outputs": [],
					"stateMutability": "nonpayable",
					"type": "function"
				},
				{
					"inputs": [
						{
							"internalType": "address",
							"name": "operator",
							"type": "address"
						},
						{
							"internalType": "bool",
							"name": "approved",
							"type": "bool"
						}
					],
					"name": "setApprovalForAll",
					"outputs": [],
					"stateMutability": "nonpayable",
					"type": "function"
				},
				{
					"inputs": [
						{
							"internalType": "string",
							"name": "newBaseTokenURI",
							"type": "string"
						}
					],
					"name": "setBaseURI",
					"outputs": [],
					"stateMutability": "nonpayable",
					"type": "function"
				},
				{
					"inputs": [
						{
							"internalType": "bytes4",
							"name": "interfaceId",
							"type": "bytes4"
						}
					],
					"name": "supportsInterface",
					"outputs": [
						{
							"internalType": "bool",
							"name": "",
							"type": "bool"
						}
					],
					"stateMutability": "view",
					"type": "function"
				},
				{
					"inputs": [],
					"name": "symbol",
					"outputs": [
						{
							"internalType": "string",
							"name": "",
							"type": "string"
						}
					],
					"stateMutability": "view",
					"type": "function"
				},
				{
					"inputs": [
						{
							"internalType": "uint256",
							"name": "tokenId",
							"type": "uint256"
						}
					],
					"name": "tokenURI",
					"outputs": [
						{
							"internalType": "string",
							"name": "",
							"type": "string"
						}
					],
					"stateMutability": "view",
					"type": "function"
				},
				{
					"inputs": [
						{
							"internalType": "address",
							"name": "from",
							"type": "address"
						},
						{
							"internalType": "address",
							"name": "to",
							"type": "address"
						},
						{
							"internalType": "uint256",
							"name": "tokenId",
							"type": "uint256"
						}
					],
					"name": "transferFrom",
					"outputs": [],
					"stateMutability": "nonpayable",
					"type": "function"
				}
			],
			"devdoc": {
				"errors": {
					"ERC721IncorrectOwner(address,uint256,address)": [
						{
							"details": "Indicates an error related to the ownership over a particular token. Used in transfers.",
							"params": {
								"owner": "Address of the current owner of a token.",
								"sender": "Address whose tokens are being transferred.",
								"tokenId": "Identifier number of a token."
							}
						}
					],
					"ERC721InsufficientApproval(address,uint256)": [
						{
							"details": "Indicates a failure with the `operator`’s approval. Used in transfers.",
							"params": {
								"operator": "Address that may be allowed to operate on tokens without being their owner.",
								"tokenId": "Identifier number of a token."
							}
						}
					],
					"ERC721InvalidApprover(address)": [
						{
							"details": "Indicates a failure with the `approver` of a token to be approved. Used in approvals.",
							"params": {
								"approver": "Address initiating an approval operation."
							}
						}
					],
					"ERC721InvalidOperator(address)": [
						{
							"details": "Indicates a failure with the `operator` to be approved. Used in approvals.",
							"params": {
								"operator": "Address that may be allowed to operate on tokens without being their owner."
							}
						}
					],
					"ERC721InvalidOwner(address)": [
						{
							"details": "Indicates that an address can't be an owner. For example, `address(0)` is a forbidden owner in EIP-20. Used in balance queries.",
							"params": {
								"owner": "Address of the current owner of a token."
							}
						}
					],
					"ERC721InvalidReceiver(address)": [
						{
							"details": "Indicates a failure with the token `receiver`. Used in transfers.",
							"params": {
								"receiver": "Address to which tokens are being transferred."
							}
						}
					],
					"ERC721InvalidSender(address)": [
						{
							"details": "Indicates a failure with the token `sender`. Used in transfers.",
							"params": {
								"sender": "Address whose tokens are being transferred."
							}
						}
					],
					"ERC721NonexistentToken(uint256)": [
						{
							"details": "Indicates a `tokenId` whose `owner` is the zero address.",
							"params": {
								"tokenId": "Identifier number of a token."
							}
						}
					]
				},
				"events": {
					"Approval(address,address,uint256)": {
						"details": "Emitted when `owner` enables `approved` to manage the `tokenId` token."
					},
					"ApprovalForAll(address,address,bool)": {
						"details": "Emitted when `owner` enables or disables (`approved`) `operator` to manage all of its assets."
					},
					"BatchMetadataUpdate(uint256,uint256)": {
						"details": "This event emits when the metadata of a range of tokens is changed. So that the third-party platforms such as NFT market could timely update the images and related attributes of the NFTs."
					},
					"MetadataUpdate(uint256)": {
						"details": "This event emits when the metadata of a token is changed. So that the third-party platforms such as NFT market could timely update the images and related attributes of the NFT."
					},
					"Transfer(address,address,uint256)": {
						"details": "Emitted when `tokenId` token is transferred from `from` to `to`."
					}
				},
				"kind": "dev",
				"methods": {
					"approve(address,uint256)": {
						"details": "See {IERC721-approve}."
					},
					"balanceOf(address)": {
						"details": "See {IERC721-balanceOf}."
					},
					"getApproved(uint256)": {
						"details": "See {IERC721-getApproved}."
					},
					"isApprovedForAll(address,address)": {
						"details": "See {IERC721-isApprovedForAll}."
					},
					"name()": {
						"details": "See {IERC721Metadata-name}."
					},
					"ownerOf(uint256)": {
						"details": "See {IERC721-ownerOf}."
					},
					"safeTransferFrom(address,address,uint256)": {
						"details": "See {IERC721-safeTransferFrom}."
					},
					"safeTransferFrom(address,address,uint256,bytes)": {
						"details": "See {IERC721-safeTransferFrom}."
					},
					"setApprovalForAll(address,bool)": {
						"details": "See {IERC721-setApprovalForAll}."
					},
					"supportsInterface(bytes4)": {
						"details": "See {IERC165-supportsInterface}"
					},
					"symbol()": {
						"details": "See {IERC721Metadata-symbol}."
					},
					"tokenURI(uint256)": {
						"details": "See {IERC721Metadata-tokenURI}."
					},
					"transferFrom(address,address,uint256)": {
						"details": "See {IERC721-transferFrom}."
					}
				},
				"version": 1
			},
			"evm": {
				"assembly": "    /* \"nftmarket_flattened.sol\":58306:61305  contract NFTMarketplace is  ERC721URIStorage,   IERC2981 {... */\n  mstore(0x40, 0x80)\n    /* \"nftmarket_flattened.sol\":58524:58526  10 */\n  0x0a\n    /* \"nftmarket_flattened.sol\":58489:58526  uint256 public royaltyPercentage = 10 */\n  0x09\n  sstore\n    /* \"nftmarket_flattened.sol\":58827:58914  constructor( ) ERC721(\"My Nft\", \"MNFT\")  ... */\n  callvalue\n  dup1\n  iszero\n  tag_1\n  jumpi\n  0x00\n  dup1\n  revert\ntag_1:\n  pop\n    /* \"nftmarket_flattened.sol\":39875:39988  constructor(string memory name_, string memory symbol_) {... */\n  mload(0x40)\n  dup1\n  0x40\n  add\n  0x40\n  mstore\n  dup1\n  0x06\n  dup2\n  mstore\n  0x20\n  add\n  0x4d79204e66740000000000000000000000000000000000000000000000000000\n  dup2\n  mstore\n  pop\n  mload(0x40)\n  dup1\n  0x40\n  add\n  0x40\n  mstore\n  dup1\n  0x04\n  dup2\n  mstore\n  0x20\n  add\n  0x4d4e465400000000000000000000000000000000000000000000000000000000\n  dup2\n  mstore\n  pop\n    /* \"nftmarket_flattened.sol\":39949:39954  name_ */\n  dup2\n    /* \"nftmarket_flattened.sol\":39941:39946  _name */\n  0x00\n    /* \"nftmarket_flattened.sol\":39941:39954  _name = name_ */\n  swap1\n  dup2\n  tag_5\n  swap2\n  swap1\n  tag_6\n  jump\t// in\ntag_5:\n  pop\n    /* \"nftmarket_flattened.sol\":39974:39981  symbol_ */\n  dup1\n    /* \"nftmarket_flattened.sol\":39964:39971  _symbol */\n  0x01\n    /* \"nftmarket_flattened.sol\":39964:39981  _symbol = symbol_ */\n  swap1\n  dup2\n  tag_7\n  swap2\n  swap1\n  tag_6\n  jump\t// in\ntag_7:\n  pop\n    /* \"nftmarket_flattened.sol\":39875:39988  constructor(string memory name_, string memory symbol_) {... */\n  pop\n  pop\n    /* \"nftmarket_flattened.sol\":58897:58907  msg.sender */\n  caller\n    /* \"nftmarket_flattened.sol\":58882:58895  contractOwner */\n  0x0a\n  0x00\n    /* \"nftmarket_flattened.sol\":58882:58907  contractOwner= msg.sender */\n  0x0100\n  exp\n  dup2\n  sload\n  dup2\n  0xffffffffffffffffffffffffffffffffffffffff\n  mul\n  not\n  and\n  swap1\n  dup4\n  0xffffffffffffffffffffffffffffffffffffffff\n  and\n  mul\n  or\n  swap1\n  sstore\n  pop\n    /* \"nftmarket_flattened.sol\":58306:61305  contract NFTMarketplace is  ERC721URIStorage,   IERC2981 {... */\n  jump(tag_9)\n    /* \"#utility.yul\":7:106   */\ntag_10:\n    /* \"#utility.yul\":59:65   */\n  0x00\n    /* \"#utility.yul\":93:98   */\n  dup2\n    /* \"#utility.yul\":87:99   */\n  mload\n    /* \"#utility.yul\":77:99   */\n  swap1\n  pop\n    /* \"#utility.yul\":7:106   */\n  swap2\n  swap1\n  pop\n  jump\t// out\n    /* \"#utility.yul\":112:292   */\ntag_11:\n    /* \"#utility.yul\":160:237   */\n  0x4e487b7100000000000000000000000000000000000000000000000000000000\n    /* \"#utility.yul\":157:158   */\n  0x00\n    /* \"#utility.yul\":150:238   */\n  mstore\n    /* \"#utility.yul\":257:261   */\n  0x41\n    /* \"#utility.yul\":254:255   */\n  0x04\n    /* \"#utility.yul\":247:262   */\n  mstore\n    /* \"#utility.yul\":281:285   */\n  0x24\n    /* \"#utility.yul\":278:279   */\n  0x00\n    /* \"#utility.yul\":271:286   */\n  revert\n    /* \"#utility.yul\":298:478   */\ntag_12:\n    /* \"#utility.yul\":346:423   */\n  0x4e487b7100000000000000000000000000000000000000000000000000000000\n    /* \"#utility.yul\":343:344   */\n  0x00\n    /* \"#utility.yul\":336:424   */\n  mstore\n    /* \"#utility.yul\":443:447   */\n  0x22\n    /* \"#utility.yul\":440:441   */\n  0x04\n    /* \"#utility.yul\":433:448   */\n  mstore\n    /* \"#utility.yul\":467:471   */\n  0x24\n    /* \"#utility.yul\":464:465   */\n  0x00\n    /* \"#utility.yul\":457:472   */\n  revert\n    /* \"#utility.yul\":484:804   */\ntag_13:\n    /* \"#utility.yul\":528:534   */\n  0x00\n    /* \"#utility.yul\":565:566   */\n  0x02\n    /* \"#utility.yul\":559:563   */\n  dup3\n    /* \"#utility.yul\":555:567   */\n  div\n    /* \"#utility.yul\":545:567   */\n  swap1\n  pop\n    /* \"#utility.yul\":612:613   */\n  0x01\n    /* \"#utility.yul\":606:610   */\n  dup3\n    /* \"#utility.yul\":602:614   */\n  and\n    /* \"#utility.yul\":633:651   */\n  dup1\n    /* \"#utility.yul\":623:704   */\n  tag_35\n  jumpi\n    /* \"#utility.yul\":689:693   */\n  0x7f\n    /* \"#utility.yul\":681:687   */\n  dup3\n    /* \"#utility.yul\":677:694   */\n  and\n    /* \"#utility.yul\":667:694   */\n  swap2\n  pop\n    /* \"#utility.yul\":623:704   */\ntag_35:\n    /* \"#utility.yul\":751:753   */\n  0x20\n    /* \"#utility.yul\":743:749   */\n  dup3\n    /* \"#utility.yul\":740:754   */\n  lt\n    /* \"#utility.yul\":720:738   */\n  dup2\n    /* \"#utility.yul\":717:755   */\n  sub\n    /* \"#utility.yul\":714:798   */\n  tag_36\n  jumpi\n    /* \"#utility.yul\":770:788   */\n  tag_37\n  tag_12\n  jump\t// in\ntag_37:\n    /* \"#utility.yul\":714:798   */\ntag_36:\n    /* \"#utility.yul\":535:804   */\n  pop\n    /* \"#utility.yul\":484:804   */\n  swap2\n  swap1\n  pop\n  jump\t// out\n    /* \"#utility.yul\":810:951   */\ntag_14:\n    /* \"#utility.yul\":859:863   */\n  0x00\n    /* \"#utility.yul\":882:885   */\n  dup2\n    /* \"#utility.yul\":874:885   */\n  swap1\n  pop\n    /* \"#utility.yul\":905:908   */\n  dup2\n    /* \"#utility.yul\":902:903   */\n  0x00\n    /* \"#utility.yul\":895:909   */\n  mstore\n    /* \"#utility.yul\":939:943   */\n  0x20\n    /* \"#utility.yul\":936:937   */\n  0x00\n    /* \"#utility.yul\":926:944   */\n  keccak256\n    /* \"#utility.yul\":918:944   */\n  swap1\n  pop\n    /* \"#utility.yul\":810:951   */\n  swap2\n  swap1\n  pop\n  jump\t// out\n    /* \"#utility.yul\":957:1050   */\ntag_15:\n    /* \"#utility.yul\":994:1000   */\n  0x00\n    /* \"#utility.yul\":1041:1043   */\n  0x20\n    /* \"#utility.yul\":1036:1038   */\n  0x1f\n    /* \"#utility.yul\":1029:1034   */\n  dup4\n    /* \"#utility.yul\":1025:1039   */\n  add\n    /* \"#utility.yul\":1021:1044   */\n  div\n    /* \"#utility.yul\":1011:1044   */\n  swap1\n  pop\n    /* \"#utility.yul\":957:1050   */\n  swap2\n  swap1\n  pop\n  jump\t// out\n    /* \"#utility.yul\":1056:1163   */\ntag_16:\n    /* \"#utility.yul\":1100:1108   */\n  0x00\n    /* \"#utility.yul\":1150:1155   */\n  dup3\n    /* \"#utility.yul\":1144:1148   */\n  dup3\n    /* \"#utility.yul\":1140:1156   */\n  shl\n    /* \"#utility.yul\":1119:1156   */\n  swap1\n  pop\n    /* \"#utility.yul\":1056:1163   */\n  swap3\n  swap2\n  pop\n  pop\n  jump\t// out\n    /* \"#utility.yul\":1169:1562   */\ntag_17:\n    /* \"#utility.yul\":1238:1244   */\n  0x00\n    /* \"#utility.yul\":1288:1289   */\n  0x08\n    /* \"#utility.yul\":1276:1286   */\n  dup4\n    /* \"#utility.yul\":1272:1290   */\n  mul\n    /* \"#utility.yul\":1311:1408   */\n  tag_42\n    /* \"#utility.yul\":1341:1407   */\n  0xffffffffffffffffffffffffffffffffffffffffffffffffffffffffffffffff\n    /* \"#utility.yul\":1330:1339   */\n  dup3\n    /* \"#utility.yul\":1311:1408   */\n  tag_16\n  jump\t// in\ntag_42:\n    /* \"#utility.yul\":1429:1468   */\n  tag_43\n    /* \"#utility.yul\":1459:1467   */\n  dup7\n    /* \"#utility.yul\":1448:1457   */\n  dup4\n    /* \"#utility.yul\":1429:1468   */\n  tag_16\n  jump\t// in\ntag_43:\n    /* \"#utility.yul\":1417:1468   */\n  swap6\n  pop\n    /* \"#utility.yul\":1501:1505   */\n  dup1\n    /* \"#utility.yul\":1497:1506   */\n  not\n    /* \"#utility.yul\":1490:1495   */\n  dup5\n    /* \"#utility.yul\":1486:1507   */\n  and\n    /* \"#utility.yul\":1477:1507   */\n  swap4\n  pop\n    /* \"#utility.yul\":1550:1554   */\n  dup1\n    /* \"#utility.yul\":1540:1548   */\n  dup7\n    /* \"#utility.yul\":1536:1555   */\n  and\n    /* \"#utility.yul\":1529:1534   */\n  dup5\n    /* \"#utility.yul\":1526:1556   */\n  or\n    /* \"#utility.yul\":1516:1556   */\n  swap3\n  pop\n    /* \"#utility.yul\":1245:1562   */\n  pop\n  pop\n    /* \"#utility.yul\":1169:1562   */\n  swap4\n  swap3\n  pop\n  pop\n  pop\n  jump\t// out\n    /* \"#utility.yul\":1568:1645   */\ntag_18:\n    /* \"#utility.yul\":1605:1612   */\n  0x00\n    /* \"#utility.yul\":1634:1639   */\n  dup2\n    /* \"#utility.yul\":1623:1639   */\n  swap1\n  pop\n    /* \"#utility.yul\":1568:1645   */\n  swap2\n  swap1\n  pop\n  jump\t// out\n    /* \"#utility.yul\":1651:1711   */\ntag_19:\n    /* \"#utility.yul\":1679:1682   */\n  0x00\n    /* \"#utility.yul\":1700:1705   */\n  dup2\n    /* \"#utility.yul\":1693:1705   */\n  swap1\n  pop\n    /* \"#utility.yul\":1651:1711   */\n  swap2\n  swap1\n  pop\n  jump\t// out\n    /* \"#utility.yul\":1717:1859   */\ntag_20:\n    /* \"#utility.yul\":1767:1776   */\n  0x00\n    /* \"#utility.yul\":1800:1853   */\n  tag_47\n    /* \"#utility.yul\":1818:1852   */\n  tag_48\n    /* \"#utility.yul\":1827:1851   */\n  tag_49\n    /* \"#utility.yul\":1845:1850   */\n  dup5\n    /* \"#utility.yul\":1827:1851   */\n  tag_18\n  jump\t// in\ntag_49:\n    /* \"#utility.yul\":1818:1852   */\n  tag_19\n  jump\t// in\ntag_48:\n    /* \"#utility.yul\":1800:1853   */\n  tag_18\n  jump\t// in\ntag_47:\n    /* \"#utility.yul\":1787:1853   */\n  swap1\n  pop\n    /* \"#utility.yul\":1717:1859   */\n  swap2\n  swap1\n  pop\n  jump\t// out\n    /* \"#utility.yul\":1865:1940   */\ntag_21:\n    /* \"#utility.yul\":1908:1911   */\n  0x00\n    /* \"#utility.yul\":1929:1934   */\n  dup2\n    /* \"#utility.yul\":1922:1934   */\n  swap1\n  pop\n    /* \"#utility.yul\":1865:1940   */\n  swap2\n  swap1\n  pop\n  jump\t// out\n    /* \"#utility.yul\":1946:2215   */\ntag_22:\n    /* \"#utility.yul\":2056:2095   */\n  tag_52\n    /* \"#utility.yul\":2087:2094   */\n  dup4\n    /* \"#utility.yul\":2056:2095   */\n  tag_20\n  jump\t// in\ntag_52:\n    /* \"#utility.yul\":2117:2208   */\n  tag_53\n    /* \"#utility.yul\":2166:2207   */\n  tag_54\n    /* \"#utility.yul\":2190:2206   */\n  dup3\n    /* \"#utility.yul\":2166:2207   */\n  tag_21\n  jump\t// in\ntag_54:\n    /* \"#utility.yul\":2158:2164   */\n  dup5\n    /* \"#utility.yul\":2151:2155   */\n  dup5\n    /* \"#utility.yul\":2145:2156   */\n  sload\n    /* \"#utility.yul\":2117:2208   */\n  tag_17\n  jump\t// in\ntag_53:\n    /* \"#utility.yul\":2111:2115   */\n  dup3\n    /* \"#utility.yul\":2104:2209   */\n  sstore\n    /* \"#utility.yul\":2022:2215   */\n  pop\n    /* \"#utility.yul\":1946:2215   */\n  pop\n  pop\n  pop\n  jump\t// out\n    /* \"#utility.yul\":2221:2294   */\ntag_23:\n    /* \"#utility.yul\":2266:2269   */\n  0x00\n    /* \"#utility.yul\":2221:2294   */\n  swap1\n  jump\t// out\n    /* \"#utility.yul\":2300:2489   */\ntag_24:\n    /* \"#utility.yul\":2377:2409   */\n  tag_57\n  tag_23\n  jump\t// in\ntag_57:\n    /* \"#utility.yul\":2418:2483   */\n  tag_58\n    /* \"#utility.yul\":2476:2482   */\n  dup2\n    /* \"#utility.yul\":2468:2474   */\n  dup5\n    /* \"#utility.yul\":2462:2466   */\n  dup5\n    /* \"#utility.yul\":2418:2483   */\n  tag_22\n  jump\t// in\ntag_58:\n    /* \"#utility.yul\":2353:2489   */\n  pop\n    /* \"#utility.yul\":2300:2489   */\n  pop\n  pop\n  jump\t// out\n    /* \"#utility.yul\":2495:2681   */\ntag_25:\n    /* \"#utility.yul\":2555:2675   */\ntag_60:\n    /* \"#utility.yul\":2572:2575   */\n  dup2\n    /* \"#utility.yul\":2565:2570   */\n  dup2\n    /* \"#utility.yul\":2562:2576   */\n  lt\n    /* \"#utility.yul\":2555:2675   */\n  iszero\n  tag_62\n  jumpi\n    /* \"#utility.yul\":2626:2665   */\n  tag_63\n    /* \"#utility.yul\":2663:2664   */\n  0x00\n    /* \"#utility.yul\":2656:2661   */\n  dup3\n    /* \"#utility.yul\":2626:2665   */\n  tag_24\n  jump\t// in\ntag_63:\n    /* \"#utility.yul\":2599:2600   */\n  0x01\n    /* \"#utility.yul\":2592:2597   */\n  dup2\n    /* \"#utility.yul\":2588:2601   */\n  add\n    /* \"#utility.yul\":2579:2601   */\n  swap1\n  pop\n    /* \"#utility.yul\":2555:2675   */\n  jump(tag_60)\ntag_62:\n    /* \"#utility.yul\":2495:2681   */\n  pop\n  pop\n  jump\t// out\n    /* \"#utility.yul\":2687:3230   */\ntag_26:\n    /* \"#utility.yul\":2788:2790   */\n  0x1f\n    /* \"#utility.yul\":2783:2786   */\n  dup3\n    /* \"#utility.yul\":2780:2791   */\n  gt\n    /* \"#utility.yul\":2777:3223   */\n  iszero\n  tag_65\n  jumpi\n    /* \"#utility.yul\":2822:2860   */\n  tag_66\n    /* \"#utility.yul\":2854:2859   */\n  dup2\n    /* \"#utility.yul\":2822:2860   */\n  tag_14\n  jump\t// in\ntag_66:\n    /* \"#utility.yul\":2906:2935   */\n  tag_67\n    /* \"#utility.yul\":2924:2934   */\n  dup5\n    /* \"#utility.yul\":2906:2935   */\n  tag_15\n  jump\t// in\ntag_67:\n    /* \"#utility.yul\":2896:2904   */\n  dup2\n    /* \"#utility.yul\":2892:2936   */\n  add\n    /* \"#utility.yul\":3089:3091   */\n  0x20\n    /* \"#utility.yul\":3077:3087   */\n  dup6\n    /* \"#utility.yul\":3074:3092   */\n  lt\n    /* \"#utility.yul\":3071:3120   */\n  iszero\n  tag_68\n  jumpi\n    /* \"#utility.yul\":3110:3118   */\n  dup2\n    /* \"#utility.yul\":3095:3118   */\n  swap1\n  pop\n    /* \"#utility.yul\":3071:3120   */\ntag_68:\n    /* \"#utility.yul\":3133:3213   */\n  tag_69\n    /* \"#utility.yul\":3189:3211   */\n  tag_70\n    /* \"#utility.yul\":3207:3210   */\n  dup6\n    /* \"#utility.yul\":3189:3211   */\n  tag_15\n  jump\t// in\ntag_70:\n    /* \"#utility.yul\":3179:3187   */\n  dup4\n    /* \"#utility.yul\":3175:3212   */\n  add\n    /* \"#utility.yul\":3162:3173   */\n  dup3\n    /* \"#utility.yul\":3133:3213   */\n  tag_25\n  jump\t// in\ntag_69:\n    /* \"#utility.yul\":2792:3223   */\n  pop\n  pop\n    /* \"#utility.yul\":2777:3223   */\ntag_65:\n    /* \"#utility.yul\":2687:3230   */\n  pop\n  pop\n  pop\n  jump\t// out\n    /* \"#utility.yul\":3236:3353   */\ntag_27:\n    /* \"#utility.yul\":3290:3298   */\n  0x00\n    /* \"#utility.yul\":3340:3345   */\n  dup3\n    /* \"#utility.yul\":3334:3338   */\n  dup3\n    /* \"#utility.yul\":3330:3346   */\n  shr\n    /* \"#utility.yul\":3309:3346   */\n  swap1\n  pop\n    /* \"#utility.yul\":3236:3353   */\n  swap3\n  swap2\n  pop\n  pop\n  jump\t// out\n    /* \"#utility.yul\":3359:3528   */\ntag_28:\n    /* \"#utility.yul\":3403:3409   */\n  0x00\n    /* \"#utility.yul\":3436:3487   */\n  tag_73\n    /* \"#utility.yul\":3484:3485   */\n  0x00\n    /* \"#utility.yul\":3480:3486   */\n  not\n    /* \"#utility.yul\":3472:3477   */\n  dup5\n    /* \"#utility.yul\":3469:3470   */\n  0x08\n    /* \"#utility.yul\":3465:3478   */\n  mul\n    /* \"#utility.yul\":3436:3487   */\n  tag_27\n  jump\t// in\ntag_73:\n    /* \"#utility.yul\":3432:3488   */\n  not\n    /* \"#utility.yul\":3517:3521   */\n  dup1\n    /* \"#utility.yul\":3511:3515   */\n  dup4\n    /* \"#utility.yul\":3507:3522   */\n  and\n    /* \"#utility.yul\":3497:3522   */\n  swap2\n  pop\n    /* \"#utility.yul\":3410:3528   */\n  pop\n    /* \"#utility.yul\":3359:3528   */\n  swap3\n  swap2\n  pop\n  pop\n  jump\t// out\n    /* \"#utility.yul\":3533:3828   */\ntag_29:\n    /* \"#utility.yul\":3609:3613   */\n  0x00\n    /* \"#utility.yul\":3755:3784   */\n  tag_75\n    /* \"#utility.yul\":3780:3783   */\n  dup4\n    /* \"#utility.yul\":3774:3778   */\n  dup4\n    /* \"#utility.yul\":3755:3784   */\n  tag_28\n  jump\t// in\ntag_75:\n    /* \"#utility.yul\":3747:3784   */\n  swap2\n  pop\n    /* \"#utility.yul\":3817:3820   */\n  dup3\n    /* \"#utility.yul\":3814:3815   */\n  0x02\n    /* \"#utility.yul\":3810:3821   */\n  mul\n    /* \"#utility.yul\":3804:3808   */\n  dup3\n    /* \"#utility.yul\":3801:3822   */\n  or\n    /* \"#utility.yul\":3793:3822   */\n  swap1\n  pop\n    /* \"#utility.yul\":3533:3828   */\n  swap3\n  swap2\n  pop\n  pop\n  jump\t// out\n    /* \"#utility.yul\":3833:5228   */\ntag_6:\n    /* \"#utility.yul\":3950:3987   */\n  tag_77\n    /* \"#utility.yul\":3983:3986   */\n  dup3\n    /* \"#utility.yul\":3950:3987   */\n  tag_10\n  jump\t// in\ntag_77:\n    /* \"#utility.yul\":4052:4070   */\n  0xffffffffffffffff\n    /* \"#utility.yul\":4044:4050   */\n  dup2\n    /* \"#utility.yul\":4041:4071   */\n  gt\n    /* \"#utility.yul\":4038:4094   */\n  iszero\n  tag_78\n  jumpi\n    /* \"#utility.yul\":4074:4092   */\n  tag_79\n  tag_11\n  jump\t// in\ntag_79:\n    /* \"#utility.yul\":4038:4094   */\ntag_78:\n    /* \"#utility.yul\":4118:4156   */\n  tag_80\n    /* \"#utility.yul\":4150:4154   */\n  dup3\n    /* \"#utility.yul\":4144:4155   */\n  sload\n    /* \"#utility.yul\":4118:4156   */\n  tag_13\n  jump\t// in\ntag_80:\n    /* \"#utility.yul\":4203:4270   */\n  tag_81\n    /* \"#utility.yul\":4263:4269   */\n  dup3\n    /* \"#utility.yul\":4255:4261   */\n  dup3\n    /* \"#utility.yul\":4249:4253   */\n  dup6\n    /* \"#utility.yul\":4203:4270   */\n  tag_26\n  jump\t// in\ntag_81:\n    /* \"#utility.yul\":4297:4298   */\n  0x00\n    /* \"#utility.yul\":4321:4325   */\n  0x20\n    /* \"#utility.yul\":4308:4325   */\n  swap1\n  pop\n    /* \"#utility.yul\":4353:4355   */\n  0x1f\n    /* \"#utility.yul\":4345:4351   */\n  dup4\n    /* \"#utility.yul\":4342:4356   */\n  gt\n    /* \"#utility.yul\":4370:4371   */\n  0x01\n    /* \"#utility.yul\":4365:4983   */\n  dup2\n  eq\n  tag_83\n  jumpi\n    /* \"#utility.yul\":5027:5028   */\n  0x00\n    /* \"#utility.yul\":5044:5050   */\n  dup5\n    /* \"#utility.yul\":5041:5118   */\n  iszero\n  tag_84\n  jumpi\n    /* \"#utility.yul\":5093:5102   */\n  dup3\n    /* \"#utility.yul\":5088:5091   */\n  dup8\n    /* \"#utility.yul\":5084:5103   */\n  add\n    /* \"#utility.yul\":5078:5104   */\n  mload\n    /* \"#utility.yul\":5069:5104   */\n  swap1\n  pop\n    /* \"#utility.yul\":5041:5118   */\ntag_84:\n    /* \"#utility.yul\":5144:5211   */\n  tag_85\n    /* \"#utility.yul\":5204:5210   */\n  dup6\n    /* \"#utility.yul\":5197:5202   */\n  dup3\n    /* \"#utility.yul\":5144:5211   */\n  tag_29\n  jump\t// in\ntag_85:\n    /* \"#utility.yul\":5138:5142   */\n  dup7\n    /* \"#utility.yul\":5131:5212   */\n  sstore\n    /* \"#utility.yul\":5000:5222   */\n  pop\n    /* \"#utility.yul\":4335:5222   */\n  jump(tag_82)\n    /* \"#utility.yul\":4365:4983   */\ntag_83:\n    /* \"#utility.yul\":4417:4421   */\n  0x1f\n    /* \"#utility.yul\":4413:4422   */\n  not\n    /* \"#utility.yul\":4405:4411   */\n  dup5\n    /* \"#utility.yul\":4401:4423   */\n  and\n    /* \"#utility.yul\":4451:4488   */\n  tag_86\n    /* \"#utility.yul\":4483:4487   */\n  dup7\n    /* \"#utility.yul\":4451:4488   */\n  tag_14\n  jump\t// in\ntag_86:\n    /* \"#utility.yul\":4510:4511   */\n  0x00\n    /* \"#utility.yul\":4524:4732   */\ntag_87:\n    /* \"#utility.yul\":4538:4545   */\n  dup3\n    /* \"#utility.yul\":4535:4536   */\n  dup2\n    /* \"#utility.yul\":4532:4546   */\n  lt\n    /* \"#utility.yul\":4524:4732   */\n  iszero\n  tag_89\n  jumpi\n    /* \"#utility.yul\":4617:4626   */\n  dup5\n    /* \"#utility.yul\":4612:4615   */\n  dup10\n    /* \"#utility.yul\":4608:4627   */\n  add\n    /* \"#utility.yul\":4602:4628   */\n  mload\n    /* \"#utility.yul\":4594:4600   */\n  dup3\n    /* \"#utility.yul\":4587:4629   */\n  sstore\n    /* \"#utility.yul\":4668:4669   */\n  0x01\n    /* \"#utility.yul\":4660:4666   */\n  dup3\n    /* \"#utility.yul\":4656:4670   */\n  add\n    /* \"#utility.yul\":4646:4670   */\n  swap2\n  pop\n    /* \"#utility.yul\":4715:4717   */\n  0x20\n    /* \"#utility.yul\":4704:4713   */\n  dup6\n    /* \"#utility.yul\":4700:4718   */\n  add\n    /* \"#utility.yul\":4687:4718   */\n  swap5\n  pop\n    /* \"#utility.yul\":4561:4565   */\n  0x20\n    /* \"#utility.yul\":4558:4559   */\n  dup2\n    /* \"#utility.yul\":4554:4566   */\n  add\n    /* \"#utility.yul\":4549:4566   */\n  swap1\n  pop\n    /* \"#utility.yul\":4524:4732   */\n  jump(tag_87)\ntag_89:\n    /* \"#utility.yul\":4760:4766   */\n  dup7\n    /* \"#utility.yul\":4751:4758   */\n  dup4\n    /* \"#utility.yul\":4748:4767   */\n  lt\n    /* \"#utility.yul\":4745:4924   */\n  iszero\n  tag_90\n  jumpi\n    /* \"#utility.yul\":4818:4827   */\n  dup5\n    /* \"#utility.yul\":4813:4816   */\n  dup10\n    /* \"#utility.yul\":4809:4828   */\n  add\n    /* \"#utility.yul\":4803:4829   */\n  mload\n    /* \"#utility.yul\":4861:4909   */\n  tag_91\n    /* \"#utility.yul\":4903:4907   */\n  0x1f\n    /* \"#utility.yul\":4895:4901   */\n  dup10\n    /* \"#utility.yul\":4891:4908   */\n  and\n    /* \"#utility.yul\":4880:4889   */\n  dup3\n    /* \"#utility.yul\":4861:4909   */\n  tag_28\n  jump\t// in\ntag_91:\n    /* \"#utility.yul\":4853:4859   */\n  dup4\n    /* \"#utility.yul\":4846:4910   */\n  sstore\n    /* \"#utility.yul\":4768:4924   */\n  pop\n    /* \"#utility.yul\":4745:4924   */\ntag_90:\n    /* \"#utility.yul\":4970:4971   */\n  0x01\n    /* \"#utility.yul\":4966:4967   */\n  0x02\n    /* \"#utility.yul\":4958:4964   */\n  dup9\n    /* \"#utility.yul\":4954:4968   */\n  mul\n    /* \"#utility.yul\":4950:4972   */\n  add\n    /* \"#utility.yul\":4944:4948   */\n  dup9\n    /* \"#utility.yul\":4937:4973   */\n  sstore\n    /* \"#utility.yul\":4372:4983   */\n  pop\n  pop\n  pop\n    /* \"#utility.yul\":4335:5222   */\ntag_82:\n  pop\n    /* \"#utility.yul\":3925:5228   */\n  pop\n  pop\n  pop\n    /* \"#utility.yul\":3833:5228   */\n  pop\n  pop\n  jump\t// out\n    /* \"nftmarket_flattened.sol\":58306:61305  contract NFTMarketplace is  ERC721URIStorage,   IERC2981 {... */\ntag_9:\n  dataSize(sub_0)\n  dup1\n  dataOffset(sub_0)\n  0x00\n  codecopy\n  0x00\n  return\nstop\n\nsub_0: assembly {\n        /* \"nftmarket_flattened.sol\":58306:61305  contract NFTMarketplace is  ERC721URIStorage,   IERC2981 {... */\n      mstore(0x40, 0x80)\n      jumpi(tag_1, lt(calldatasize, 0x04))\n      shr(0xe0, calldataload(0x00))\n      dup1\n      0x70a08231\n      gt\n      tag_28\n      jumpi\n      dup1\n      0xa90d14e2\n      gt\n      tag_29\n      jumpi\n      dup1\n      0xd547cfb7\n      gt\n      tag_30\n      jumpi\n      dup1\n      0xd547cfb7\n      eq\n      tag_24\n      jumpi\n      dup1\n      0xe985e9c5\n      eq\n      tag_25\n      jumpi\n      dup1\n      0xf2a413b5\n      eq\n      tag_26\n      jumpi\n      dup1\n      0xf8b2cb4f\n      eq\n      tag_27\n      jumpi\n      jump(tag_1)\n    tag_30:\n      dup1\n      0xa90d14e2\n      eq\n      tag_21\n      jumpi\n      dup1\n      0xb88d4fde\n      eq\n      tag_22\n      jumpi\n      dup1\n      0xc87b56dd\n      eq\n      tag_23\n      jumpi\n      jump(tag_1)\n    tag_29:\n      dup1\n      0x70a08231\n      eq\n      tag_15\n      jumpi\n      dup1\n      0x7d7f1f3e\n      eq\n      tag_16\n      jumpi\n      dup1\n      0x8a71bb2d\n      eq\n      tag_17\n      jumpi\n      dup1\n      0x95d89b41\n      eq\n      tag_18\n      jumpi\n      dup1\n      0xa22cb465\n      eq\n      tag_19\n      jumpi\n      dup1\n      0xa37365e0\n      eq\n      tag_20\n      jumpi\n      jump(tag_1)\n    tag_28:\n      dup1\n      0x2a55205a\n      gt\n      tag_31\n      jumpi\n      dup1\n      0x55f804b3\n      gt\n      tag_32\n      jumpi\n      dup1\n      0x55f804b3\n      eq\n      tag_11\n      jumpi\n      dup1\n      0x5a51a885\n      eq\n      tag_12\n      jumpi\n      dup1\n      0x5afa3a72\n      eq\n      tag_13\n      jumpi\n      dup1\n      0x6352211e\n      eq\n      tag_14\n      jumpi\n      jump(tag_1)\n    tag_32:\n      dup1\n      0x2a55205a\n      eq\n      tag_8\n      jumpi\n      dup1\n      0x3d0673d4\n      eq\n      tag_9\n      jumpi\n      dup1\n      0x42842e0e\n      eq\n      tag_10\n      jumpi\n      jump(tag_1)\n    tag_31:\n      dup1\n      0x01ffc9a7\n      eq\n      tag_2\n      jumpi\n      dup1\n      0x06fdde03\n      eq\n      tag_3\n      jumpi\n      dup1\n      0x081812fc\n      eq\n      tag_4\n      jumpi\n      dup1\n      0x095ea7b3\n      eq\n      tag_5\n      jumpi\n      dup1\n      0x23b872dd\n      eq\n      tag_6\n      jumpi\n      dup1\n      0x265aa621\n      eq\n      tag_7\n      jumpi\n    tag_1:\n      0x00\n      dup1\n      revert\n        /* \"nftmarket_flattened.sol\":56980:57187  function supportsInterface(bytes4 interfaceId) public view virtual override(ERC721, IERC165) returns (bool) {... */\n    tag_2:\n      callvalue\n      dup1\n      iszero\n      tag_33\n      jumpi\n      0x00\n      dup1\n      revert\n    tag_33:\n      pop\n      tag_34\n      0x04\n      dup1\n      calldatasize\n      sub\n      dup2\n      add\n      swap1\n      tag_35\n      swap2\n      swap1\n      tag_36\n      jump\t// in\n    tag_35:\n      tag_37\n      jump\t// in\n    tag_34:\n      mload(0x40)\n      tag_38\n      swap2\n      swap1\n      tag_39\n      jump\t// in\n    tag_38:\n      mload(0x40)\n      dup1\n      swap2\n      sub\n      swap1\n      return\n        /* \"nftmarket_flattened.sol\":40859:40948  function name() public view virtual returns (string memory) {... */\n    tag_3:\n      callvalue\n      dup1\n      iszero\n      tag_40\n      jumpi\n      0x00\n      dup1\n      revert\n    tag_40:\n      pop\n      tag_41\n      tag_42\n      jump\t// in\n    tag_41:\n      mload(0x40)\n      tag_43\n      swap2\n      swap1\n      tag_44\n      jump\t// in\n    tag_43:\n      mload(0x40)\n      dup1\n      swap2\n      sub\n      swap1\n      return\n        /* \"nftmarket_flattened.sol\":41991:42145  function getApproved(uint256 tokenId) public view virtual returns (address) {... */\n    tag_4:\n      callvalue\n      dup1\n      iszero\n      tag_45\n      jumpi\n      0x00\n      dup1\n      revert\n    tag_45:\n      pop\n      tag_46\n      0x04\n      dup1\n      calldatasize\n      sub\n      dup2\n      add\n      swap1\n      tag_47\n      swap2\n      swap1\n      tag_48\n      jump\t// in\n    tag_47:\n      tag_49\n      jump\t// in\n    tag_46:\n      mload(0x40)\n      tag_50\n      swap2\n      swap1\n      tag_51\n      jump\t// in\n    tag_50:\n      mload(0x40)\n      dup1\n      swap2\n      sub\n      swap1\n      return\n        /* \"nftmarket_flattened.sol\":41817:41930  function approve(address to, uint256 tokenId) public virtual {... */\n    tag_5:\n      callvalue\n      dup1\n      iszero\n      tag_52\n      jumpi\n      0x00\n      dup1\n      revert\n    tag_52:\n      pop\n      tag_53\n      0x04\n      dup1\n      calldatasize\n      sub\n      dup2\n      add\n      swap1\n      tag_54\n      swap2\n      swap1\n      tag_55\n      jump\t// in\n    tag_54:\n      tag_56\n      jump\t// in\n    tag_53:\n      stop\n        /* \"nftmarket_flattened.sol\":42637:43215  function transferFrom(address from, address to, uint256 tokenId) public virtual {... */\n    tag_6:\n      callvalue\n      dup1\n      iszero\n      tag_57\n      jumpi\n      0x00\n      dup1\n      revert\n    tag_57:\n      pop\n      tag_58\n      0x04\n      dup1\n      calldatasize\n      sub\n      dup2\n      add\n      swap1\n      tag_59\n      swap2\n      swap1\n      tag_60\n      jump\t// in\n    tag_59:\n      tag_61\n      jump\t// in\n    tag_58:\n      stop\n        /* \"nftmarket_flattened.sol\":58785:58820  mapping(uint256 => NFT) public nfts */\n    tag_7:\n      callvalue\n      dup1\n      iszero\n      tag_62\n      jumpi\n      0x00\n      dup1\n      revert\n    tag_62:\n      pop\n      tag_63\n      0x04\n      dup1\n      calldatasize\n      sub\n      dup2\n      add\n      swap1\n      tag_64\n      swap2\n      swap1\n      tag_48\n      jump\t// in\n    tag_64:\n      tag_65\n      jump\t// in\n    tag_63:\n      mload(0x40)\n      tag_66\n      swap3\n      swap2\n      swap1\n      tag_67\n      jump\t// in\n    tag_66:\n      mload(0x40)\n      dup1\n      swap2\n      sub\n      swap1\n      return\n        /* \"nftmarket_flattened.sol\":61024:61303  function royaltyInfo(uint256 tokenId, uint256 value) external view override returns (address receiver, uint256 royaltyAmount) {... */\n    tag_8:\n      callvalue\n      dup1\n      iszero\n      tag_68\n      jumpi\n      0x00\n      dup1\n      revert\n    tag_68:\n      pop\n      tag_69\n      0x04\n      dup1\n      calldatasize\n      sub\n      dup2\n      add\n      swap1\n      tag_70\n      swap2\n      swap1\n      tag_71\n      jump\t// in\n    tag_70:\n      tag_72\n      jump\t// in\n    tag_69:\n      mload(0x40)\n      tag_73\n      swap3\n      swap2\n      swap1\n      tag_67\n      jump\t// in\n    tag_73:\n      mload(0x40)\n      dup1\n      swap2\n      sub\n      swap1\n      return\n        /* \"nftmarket_flattened.sol\":60100:60199  function getTotalToken() public view returns(uint){... */\n    tag_9:\n      callvalue\n      dup1\n      iszero\n      tag_74\n      jumpi\n      0x00\n      dup1\n      revert\n    tag_74:\n      pop\n      tag_75\n      tag_76\n      jump\t// in\n    tag_75:\n      mload(0x40)\n      tag_77\n      swap2\n      swap1\n      tag_78\n      jump\t// in\n    tag_77:\n      mload(0x40)\n      dup1\n      swap2\n      sub\n      swap1\n      return\n        /* \"nftmarket_flattened.sol\":43281:43413  function safeTransferFrom(address from, address to, uint256 tokenId) public {... */\n    tag_10:\n      callvalue\n      dup1\n      iszero\n      tag_79\n      jumpi\n      0x00\n      dup1\n      revert\n    tag_79:\n      pop\n      tag_80\n      0x04\n      dup1\n      calldatasize\n      sub\n      dup2\n      add\n      swap1\n      tag_81\n      swap2\n      swap1\n      tag_60\n      jump\t// in\n    tag_81:\n      tag_82\n      jump\t// in\n    tag_80:\n      stop\n        /* \"nftmarket_flattened.sol\":58921:59028  function setBaseURI(string memory newBaseTokenURI) public   {... */\n    tag_11:\n      callvalue\n      dup1\n      iszero\n      tag_83\n      jumpi\n      0x00\n      dup1\n      revert\n    tag_83:\n      pop\n      tag_84\n      0x04\n      dup1\n      calldatasize\n      sub\n      dup2\n      add\n      swap1\n      tag_85\n      swap2\n      swap1\n      tag_86\n      jump\t// in\n    tag_85:\n      tag_87\n      jump\t// in\n    tag_84:\n      stop\n        /* \"nftmarket_flattened.sol\":59843:59983  function KnowPrice( uint tokenIds) public view returns (uint) {... */\n    tag_12:\n      callvalue\n      dup1\n      iszero\n      tag_88\n      jumpi\n      0x00\n      dup1\n      revert\n    tag_88:\n      pop\n      tag_89\n      0x04\n      dup1\n      calldatasize\n      sub\n      dup2\n      add\n      swap1\n      tag_90\n      swap2\n      swap1\n      tag_48\n      jump\t// in\n    tag_90:\n      tag_91\n      jump\t// in\n    tag_89:\n      mload(0x40)\n      tag_92\n      swap2\n      swap1\n      tag_78\n      jump\t// in\n    tag_92:\n      mload(0x40)\n      dup1\n      swap2\n      sub\n      swap1\n      return\n        /* \"nftmarket_flattened.sol\":59034:59364  function mintNFT(string memory tokenURI, uint price) public {... */\n    tag_13:\n      callvalue\n      dup1\n      iszero\n      tag_93\n      jumpi\n      0x00\n      dup1\n      revert\n    tag_93:\n      pop\n      tag_94\n      0x04\n      dup1\n      calldatasize\n      sub\n      dup2\n      add\n      swap1\n      tag_95\n      swap2\n      swap1\n      tag_96\n      jump\t// in\n    tag_95:\n      tag_97\n      jump\t// in\n    tag_94:\n      stop\n        /* \"nftmarket_flattened.sol\":40679:40797  function ownerOf(uint256 tokenId) public view virtual returns (address) {... */\n    tag_14:\n      callvalue\n      dup1\n      iszero\n      tag_98\n      jumpi\n      0x00\n      dup1\n      revert\n    tag_98:\n      pop\n      tag_99\n      0x04\n      dup1\n      calldatasize\n      sub\n      dup2\n      add\n      swap1\n      tag_100\n      swap2\n      swap1\n      tag_48\n      jump\t// in\n    tag_100:\n      tag_101\n      jump\t// in\n    tag_99:\n      mload(0x40)\n      tag_102\n      swap2\n      swap1\n      tag_51\n      jump\t// in\n    tag_102:\n      mload(0x40)\n      dup1\n      swap2\n      sub\n      swap1\n      return\n        /* \"nftmarket_flattened.sol\":40414:40622  function balanceOf(address owner) public view virtual returns (uint256) {... */\n    tag_15:\n      callvalue\n      dup1\n      iszero\n      tag_103\n      jumpi\n      0x00\n      dup1\n      revert\n    tag_103:\n      pop\n      tag_104\n      0x04\n      dup1\n      calldatasize\n      sub\n      dup2\n      add\n      swap1\n      tag_105\n      swap2\n      swap1\n      tag_106\n      jump\t// in\n    tag_105:\n      tag_107\n      jump\t// in\n    tag_104:\n      mload(0x40)\n      tag_108\n      swap2\n      swap1\n      tag_78\n      jump\t// in\n    tag_108:\n      mload(0x40)\n      dup1\n      swap2\n      sub\n      swap1\n      return\n        /* \"nftmarket_flattened.sol\":59543:59688  function SoldNft (uint tokenids) public view returns (bool) {... */\n    tag_16:\n      callvalue\n      dup1\n      iszero\n      tag_109\n      jumpi\n      0x00\n      dup1\n      revert\n    tag_109:\n      pop\n      tag_110\n      0x04\n      dup1\n      calldatasize\n      sub\n      dup2\n      add\n      swap1\n      tag_111\n      swap2\n      swap1\n      tag_48\n      jump\t// in\n    tag_111:\n      tag_112\n      jump\t// in\n    tag_110:\n      mload(0x40)\n      tag_113\n      swap2\n      swap1\n      tag_39\n      jump\t// in\n    tag_113:\n      mload(0x40)\n      dup1\n      swap2\n      sub\n      swap1\n      return\n        /* \"nftmarket_flattened.sol\":58489:58526  uint256 public royaltyPercentage = 10 */\n    tag_17:\n      callvalue\n      dup1\n      iszero\n      tag_114\n      jumpi\n      0x00\n      dup1\n      revert\n    tag_114:\n      pop\n      tag_115\n      tag_116\n      jump\t// in\n    tag_115:\n      mload(0x40)\n      tag_117\n      swap2\n      swap1\n      tag_78\n      jump\t// in\n    tag_117:\n      mload(0x40)\n      dup1\n      swap2\n      sub\n      swap1\n      return\n        /* \"nftmarket_flattened.sol\":41012:41105  function symbol() public view virtual returns (string memory) {... */\n    tag_18:\n      callvalue\n      dup1\n      iszero\n      tag_118\n      jumpi\n      0x00\n      dup1\n      revert\n    tag_118:\n      pop\n      tag_119\n      tag_120\n      jump\t// in\n    tag_119:\n      mload(0x40)\n      tag_121\n      swap2\n      swap1\n      tag_44\n      jump\t// in\n    tag_121:\n      mload(0x40)\n      dup1\n      swap2\n      sub\n      swap1\n      return\n        /* \"nftmarket_flattened.sol\":42212:42356  function setApprovalForAll(address operator, bool approved) public virtual {... */\n    tag_19:\n      callvalue\n      dup1\n      iszero\n      tag_122\n      jumpi\n      0x00\n      dup1\n      revert\n    tag_122:\n      pop\n      tag_123\n      0x04\n      dup1\n      calldatasize\n      sub\n      dup2\n      add\n      swap1\n      tag_124\n      swap2\n      swap1\n      tag_125\n      jump\t// in\n    tag_124:\n      tag_126\n      jump\t// in\n    tag_123:\n      stop\n        /* \"nftmarket_flattened.sol\":60205:61018  function BuyNFT(uint256 tokenId) public payable  {... */\n    tag_20:\n      tag_127\n      0x04\n      dup1\n      calldatasize\n      sub\n      dup2\n      add\n      swap1\n      tag_128\n      swap2\n      swap1\n      tag_48\n      jump\t// in\n    tag_128:\n      tag_129\n      jump\t// in\n    tag_127:\n      stop\n        /* \"nftmarket_flattened.sol\":59370:59537  function SellNft(uint tokenId) public  {... */\n    tag_21:\n      callvalue\n      dup1\n      iszero\n      tag_130\n      jumpi\n      0x00\n      dup1\n      revert\n    tag_130:\n      pop\n      tag_131\n      0x04\n      dup1\n      calldatasize\n      sub\n      dup2\n      add\n      swap1\n      tag_132\n      swap2\n      swap1\n      tag_48\n      jump\t// in\n    tag_132:\n      tag_133\n      jump\t// in\n    tag_131:\n      stop\n        /* \"nftmarket_flattened.sol\":43479:43687  function safeTransferFrom(address from, address to, uint256 tokenId, bytes memory data) public virtual {... */\n    tag_22:\n      callvalue\n      dup1\n      iszero\n      tag_134\n      jumpi\n      0x00\n      dup1\n      revert\n    tag_134:\n      pop\n      tag_135\n      0x04\n      dup1\n      calldatasize\n      sub\n      dup2\n      add\n      swap1\n      tag_136\n      swap2\n      swap1\n      tag_137\n      jump\t// in\n    tag_136:\n      tag_138\n      jump\t// in\n    tag_135:\n      stop\n        /* \"nftmarket_flattened.sol\":57253:57846  function tokenURI(uint256 tokenId) public view virtual override returns (string memory) {... */\n    tag_23:\n      callvalue\n      dup1\n      iszero\n      tag_139\n      jumpi\n      0x00\n      dup1\n      revert\n    tag_139:\n      pop\n      tag_140\n      0x04\n      dup1\n      calldatasize\n      sub\n      dup2\n      add\n      swap1\n      tag_141\n      swap2\n      swap1\n      tag_48\n      jump\t// in\n    tag_141:\n      tag_142\n      jump\t// in\n    tag_140:\n      mload(0x40)\n      tag_143\n      swap2\n      swap1\n      tag_44\n      jump\t// in\n    tag_143:\n      mload(0x40)\n      dup1\n      swap2\n      sub\n      swap1\n      return\n        /* \"nftmarket_flattened.sol\":58457:58483  string public baseTokenURI */\n    tag_24:\n      callvalue\n      dup1\n      iszero\n      tag_144\n      jumpi\n      0x00\n      dup1\n      revert\n    tag_144:\n      pop\n      tag_145\n      tag_146\n      jump\t// in\n    tag_145:\n      mload(0x40)\n      tag_147\n      swap2\n      swap1\n      tag_44\n      jump\t// in\n    tag_147:\n      mload(0x40)\n      dup1\n      swap2\n      sub\n      swap1\n      return\n        /* \"nftmarket_flattened.sol\":42422:42575  function isApprovedForAll(address owner, address operator) public view virtual returns (bool) {... */\n    tag_25:\n      callvalue\n      dup1\n      iszero\n      tag_148\n      jumpi\n      0x00\n      dup1\n      revert\n    tag_148:\n      pop\n      tag_149\n      0x04\n      dup1\n      calldatasize\n      sub\n      dup2\n      add\n      swap1\n      tag_150\n      swap2\n      swap1\n      tag_151\n      jump\t// in\n    tag_150:\n      tag_152\n      jump\t// in\n    tag_149:\n      mload(0x40)\n      tag_153\n      swap2\n      swap1\n      tag_39\n      jump\t// in\n    tag_153:\n      mload(0x40)\n      dup1\n      swap2\n      sub\n      swap1\n      return\n        /* \"nftmarket_flattened.sol\":59694:59837  function isSellNft (uint tokenid) public view returns (bool) {... */\n    tag_26:\n      callvalue\n      dup1\n      iszero\n      tag_154\n      jumpi\n      0x00\n      dup1\n      revert\n    tag_154:\n      pop\n      tag_155\n      0x04\n      dup1\n      calldatasize\n      sub\n      dup2\n      add\n      swap1\n      tag_156\n      swap2\n      swap1\n      tag_48\n      jump\t// in\n    tag_156:\n      tag_157\n      jump\t// in\n    tag_155:\n      mload(0x40)\n      tag_158\n      swap2\n      swap1\n      tag_39\n      jump\t// in\n    tag_158:\n      mload(0x40)\n      dup1\n      swap2\n      sub\n      swap1\n      return\n        /* \"nftmarket_flattened.sol\":59989:60094  function getBalance(address ads) public view returns (uint256) {... */\n    tag_27:\n      callvalue\n      dup1\n      iszero\n      tag_159\n      jumpi\n      0x00\n      dup1\n      revert\n    tag_159:\n      pop\n      tag_160\n      0x04\n      dup1\n      calldatasize\n      sub\n      dup2\n      add\n      swap1\n      tag_161\n      swap2\n      swap1\n      tag_106\n      jump\t// in\n    tag_161:\n      tag_162\n      jump\t// in\n    tag_160:\n      mload(0x40)\n      tag_163\n      swap2\n      swap1\n      tag_78\n      jump\t// in\n    tag_163:\n      mload(0x40)\n      dup1\n      swap2\n      sub\n      swap1\n      return\n        /* \"nftmarket_flattened.sol\":56980:57187  function supportsInterface(bytes4 interfaceId) public view virtual override(ERC721, IERC165) returns (bool) {... */\n    tag_37:\n        /* \"nftmarket_flattened.sol\":57082:57086  bool */\n      0x00\n        /* \"nftmarket_flattened.sol\":56803:56813  0x49064906 */\n      0x49064906\n        /* \"nftmarket_flattened.sol\":56796:56814  bytes4(0x49064906) */\n      0xe0\n      shl\n        /* \"nftmarket_flattened.sol\":57105:57140  interfaceId == ERC4906_INTERFACE_ID */\n      not(0xffffffffffffffffffffffffffffffffffffffffffffffffffffffff)\n      and\n        /* \"nftmarket_flattened.sol\":57105:57116  interfaceId */\n      dup3\n        /* \"nftmarket_flattened.sol\":57105:57140  interfaceId == ERC4906_INTERFACE_ID */\n      not(0xffffffffffffffffffffffffffffffffffffffffffffffffffffffff)\n      and\n      eq\n        /* \"nftmarket_flattened.sol\":57105:57180  interfaceId == ERC4906_INTERFACE_ID || super.supportsInterface(interfaceId) */\n      dup1\n      tag_165\n      jumpi\n      pop\n        /* \"nftmarket_flattened.sol\":57144:57180  super.supportsInterface(interfaceId) */\n      tag_166\n        /* \"nftmarket_flattened.sol\":57168:57179  interfaceId */\n      dup3\n        /* \"nftmarket_flattened.sol\":57144:57167  super.supportsInterface */\n      tag_167\n        /* \"nftmarket_flattened.sol\":57144:57180  super.supportsInterface(interfaceId) */\n      jump\t// in\n    tag_166:\n        /* \"nftmarket_flattened.sol\":57105:57180  interfaceId == ERC4906_INTERFACE_ID || super.supportsInterface(interfaceId) */\n    tag_165:\n        /* \"nftmarket_flattened.sol\":57098:57180  return interfaceId == ERC4906_INTERFACE_ID || super.supportsInterface(interfaceId) */\n      swap1\n      pop\n        /* \"nftmarket_flattened.sol\":56980:57187  function supportsInterface(bytes4 interfaceId) public view virtual override(ERC721, IERC165) returns (bool) {... */\n      swap2\n      swap1\n      pop\n      jump\t// out\n        /* \"nftmarket_flattened.sol\":40859:40948  function name() public view virtual returns (string memory) {... */\n    tag_42:\n        /* \"nftmarket_flattened.sol\":40904:40917  string memory */\n      0x60\n        /* \"nftmarket_flattened.sol\":40936:40941  _name */\n      0x00\n        /* \"nftmarket_flattened.sol\":40929:40941  return _name */\n      dup1\n      sload\n      tag_169\n      swap1\n      tag_170\n      jump\t// in\n    tag_169:\n      dup1\n      0x1f\n      add\n      0x20\n      dup1\n      swap2\n      div\n      mul\n      0x20\n      add\n      mload(0x40)\n      swap1\n      dup2\n      add\n      0x40\n      mstore\n      dup1\n      swap3\n      swap2\n      swap1\n      dup2\n      dup2\n      mstore\n      0x20\n      add\n      dup3\n      dup1\n      sload\n      tag_171\n      swap1\n      tag_170\n      jump\t// in\n    tag_171:\n      dup1\n      iszero\n      tag_172\n      jumpi\n      dup1\n      0x1f\n      lt\n      tag_173\n      jumpi\n      0x0100\n      dup1\n      dup4\n      sload\n      div\n      mul\n      dup4\n      mstore\n      swap2\n      0x20\n      add\n      swap2\n      jump(tag_172)\n    tag_173:\n      dup3\n      add\n      swap2\n      swap1\n      0x00\n      mstore\n      keccak256(0x00, 0x20)\n      swap1\n    tag_174:\n      dup2\n      sload\n      dup2\n      mstore\n      swap1\n      0x01\n      add\n      swap1\n      0x20\n      add\n      dup1\n      dup4\n      gt\n      tag_174\n      jumpi\n      dup3\n      swap1\n      sub\n      0x1f\n      and\n      dup3\n      add\n      swap2\n    tag_172:\n      pop\n      pop\n      pop\n      pop\n      pop\n      swap1\n      pop\n        /* \"nftmarket_flattened.sol\":40859:40948  function name() public view virtual returns (string memory) {... */\n      swap1\n      jump\t// out\n        /* \"nftmarket_flattened.sol\":41991:42145  function getApproved(uint256 tokenId) public view virtual returns (address) {... */\n    tag_49:\n        /* \"nftmarket_flattened.sol\":42058:42065  address */\n      0x00\n        /* \"nftmarket_flattened.sol\":42077:42099  _requireOwned(tokenId) */\n      tag_176\n        /* \"nftmarket_flattened.sol\":42091:42098  tokenId */\n      dup3\n        /* \"nftmarket_flattened.sol\":42077:42090  _requireOwned */\n      tag_177\n        /* \"nftmarket_flattened.sol\":42077:42099  _requireOwned(tokenId) */\n      jump\t// in\n    tag_176:\n      pop\n        /* \"nftmarket_flattened.sol\":42117:42138  _getApproved(tokenId) */\n      tag_178\n        /* \"nftmarket_flattened.sol\":42130:42137  tokenId */\n      dup3\n        /* \"nftmarket_flattened.sol\":42117:42129  _getApproved */\n      tag_179\n        /* \"nftmarket_flattened.sol\":42117:42138  _getApproved(tokenId) */\n      jump\t// in\n    tag_178:\n        /* \"nftmarket_flattened.sol\":42110:42138  return _getApproved(tokenId) */\n      swap1\n      pop\n        /* \"nftmarket_flattened.sol\":41991:42145  function getApproved(uint256 tokenId) public view virtual returns (address) {... */\n      swap2\n      swap1\n      pop\n      jump\t// out\n        /* \"nftmarket_flattened.sol\":41817:41930  function approve(address to, uint256 tokenId) public virtual {... */\n    tag_56:\n        /* \"nftmarket_flattened.sol\":41888:41923  _approve(to, tokenId, _msgSender()) */\n      tag_181\n        /* \"nftmarket_flattened.sol\":41897:41899  to */\n      dup3\n        /* \"nftmarket_flattened.sol\":41901:41908  tokenId */\n      dup3\n        /* \"nftmarket_flattened.sol\":41910:41922  _msgSender() */\n      tag_182\n        /* \"nftmarket_flattened.sol\":41910:41920  _msgSender */\n      tag_183\n        /* \"nftmarket_flattened.sol\":41910:41922  _msgSender() */\n      jump\t// in\n    tag_182:\n        /* \"nftmarket_flattened.sol\":41888:41896  _approve */\n      tag_184\n        /* \"nftmarket_flattened.sol\":41888:41923  _approve(to, tokenId, _msgSender()) */\n      jump\t// in\n    tag_181:\n        /* \"nftmarket_flattened.sol\":41817:41930  function approve(address to, uint256 tokenId) public virtual {... */\n      pop\n      pop\n      jump\t// out\n        /* \"nftmarket_flattened.sol\":42637:43215  function transferFrom(address from, address to, uint256 tokenId) public virtual {... */\n    tag_61:\n        /* \"nftmarket_flattened.sol\":42745:42746  0 */\n      0x00\n        /* \"nftmarket_flattened.sol\":42731:42747  to == address(0) */\n      0xffffffffffffffffffffffffffffffffffffffff\n      and\n        /* \"nftmarket_flattened.sol\":42731:42733  to */\n      dup3\n        /* \"nftmarket_flattened.sol\":42731:42747  to == address(0) */\n      0xffffffffffffffffffffffffffffffffffffffff\n      and\n      sub\n        /* \"nftmarket_flattened.sol\":42727:42814  if (to == address(0)) {... */\n      tag_186\n      jumpi\n        /* \"nftmarket_flattened.sol\":42800:42801  0 */\n      0x00\n        /* \"nftmarket_flattened.sol\":42770:42803  ERC721InvalidReceiver(address(0)) */\n      mload(0x40)\n      0x64a0ae9200000000000000000000000000000000000000000000000000000000\n      dup2\n      mstore\n      0x04\n      add\n      tag_187\n      swap2\n      swap1\n      tag_51\n      jump\t// in\n    tag_187:\n      mload(0x40)\n      dup1\n      swap2\n      sub\n      swap1\n      revert\n        /* \"nftmarket_flattened.sol\":42727:42814  if (to == address(0)) {... */\n    tag_186:\n        /* \"nftmarket_flattened.sol\":43032:43053  address previousOwner */\n      0x00\n        /* \"nftmarket_flattened.sol\":43056:43090  _update(to, tokenId, _msgSender()) */\n      tag_188\n        /* \"nftmarket_flattened.sol\":43064:43066  to */\n      dup4\n        /* \"nftmarket_flattened.sol\":43068:43075  tokenId */\n      dup4\n        /* \"nftmarket_flattened.sol\":43077:43089  _msgSender() */\n      tag_189\n        /* \"nftmarket_flattened.sol\":43077:43087  _msgSender */\n      tag_183\n        /* \"nftmarket_flattened.sol\":43077:43089  _msgSender() */\n      jump\t// in\n    tag_189:\n        /* \"nftmarket_flattened.sol\":43056:43063  _update */\n      tag_190\n        /* \"nftmarket_flattened.sol\":43056:43090  _update(to, tokenId, _msgSender()) */\n      jump\t// in\n    tag_188:\n        /* \"nftmarket_flattened.sol\":43032:43090  address previousOwner = _update(to, tokenId, _msgSender()) */\n      swap1\n      pop\n        /* \"nftmarket_flattened.sol\":43121:43125  from */\n      dup4\n        /* \"nftmarket_flattened.sol\":43104:43125  previousOwner != from */\n      0xffffffffffffffffffffffffffffffffffffffff\n      and\n        /* \"nftmarket_flattened.sol\":43104:43117  previousOwner */\n      dup2\n        /* \"nftmarket_flattened.sol\":43104:43125  previousOwner != from */\n      0xffffffffffffffffffffffffffffffffffffffff\n      and\n      eq\n        /* \"nftmarket_flattened.sol\":43100:43209  if (previousOwner != from) {... */\n      tag_191\n      jumpi\n        /* \"nftmarket_flattened.sol\":43169:43173  from */\n      dup4\n        /* \"nftmarket_flattened.sol\":43175:43182  tokenId */\n      dup3\n        /* \"nftmarket_flattened.sol\":43184:43197  previousOwner */\n      dup3\n        /* \"nftmarket_flattened.sol\":43148:43198  ERC721IncorrectOwner(from, tokenId, previousOwner) */\n      mload(0x40)\n      0x64283d7b00000000000000000000000000000000000000000000000000000000\n      dup2\n      mstore\n      0x04\n      add\n      tag_192\n      swap4\n      swap3\n      swap2\n      swap1\n      tag_193\n      jump\t// in\n    tag_192:\n      mload(0x40)\n      dup1\n      swap2\n      sub\n      swap1\n      revert\n        /* \"nftmarket_flattened.sol\":43100:43209  if (previousOwner != from) {... */\n    tag_191:\n        /* \"nftmarket_flattened.sol\":42717:43215  {... */\n      pop\n        /* \"nftmarket_flattened.sol\":42637:43215  function transferFrom(address from, address to, uint256 tokenId) public virtual {... */\n      pop\n      pop\n      pop\n      jump\t// out\n        /* \"nftmarket_flattened.sol\":58785:58820  mapping(uint256 => NFT) public nfts */\n    tag_65:\n      mstore(0x20, 0x0d)\n      dup1\n      0x00\n      mstore\n      keccak256(0x00, 0x40)\n      0x00\n      swap2\n      pop\n      swap1\n      pop\n      dup1\n      0x00\n      add\n      0x00\n      swap1\n      sload\n      swap1\n      0x0100\n      exp\n      swap1\n      div\n      0xffffffffffffffffffffffffffffffffffffffff\n      and\n      swap1\n      dup1\n      0x01\n      add\n      sload\n      swap1\n      pop\n      dup3\n      jump\t// out\n        /* \"nftmarket_flattened.sol\":61024:61303  function royaltyInfo(uint256 tokenId, uint256 value) external view override returns (address receiver, uint256 royaltyAmount) {... */\n    tag_72:\n        /* \"nftmarket_flattened.sol\":61109:61125  address receiver */\n      0x00\n        /* \"nftmarket_flattened.sol\":61127:61148  uint256 royaltyAmount */\n      dup1\n        /* \"nftmarket_flattened.sol\":61160:61177  uint256 royalties */\n      0x00\n        /* \"nftmarket_flattened.sol\":61210:61213  100 */\n      0x64\n        /* \"nftmarket_flattened.sol\":61189:61206  royaltyPercentage */\n      sload(0x09)\n        /* \"nftmarket_flattened.sol\":61181:61186  value */\n      dup6\n        /* \"nftmarket_flattened.sol\":61181:61206  value * royaltyPercentage */\n      tag_195\n      swap2\n      swap1\n      tag_196\n      jump\t// in\n    tag_195:\n        /* \"nftmarket_flattened.sol\":61180:61213  (value * royaltyPercentage) / 100 */\n      tag_197\n      swap2\n      swap1\n      tag_198\n      jump\t// in\n    tag_197:\n        /* \"nftmarket_flattened.sol\":61160:61213  uint256 royalties = (value * royaltyPercentage) / 100 */\n      swap1\n      pop\n        /* \"nftmarket_flattened.sol\":61231:61244  contractOwner */\n      0x0a\n      0x00\n      swap1\n      sload\n      swap1\n      0x0100\n      exp\n      swap1\n      div\n      0xffffffffffffffffffffffffffffffffffffffff\n      and\n        /* \"nftmarket_flattened.sol\":61246:61255  royalties */\n      dup2\n        /* \"nftmarket_flattened.sol\":61223:61256  return (contractOwner, royalties) */\n      swap3\n      pop\n      swap3\n      pop\n      pop\n        /* \"nftmarket_flattened.sol\":61024:61303  function royaltyInfo(uint256 tokenId, uint256 value) external view override returns (address receiver, uint256 royaltyAmount) {... */\n      swap3\n      pop\n      swap3\n      swap1\n      pop\n      jump\t// out\n        /* \"nftmarket_flattened.sol\":60100:60199  function getTotalToken() public view returns(uint){... */\n    tag_76:\n        /* \"nftmarket_flattened.sol\":60145:60149  uint */\n      0x00\n        /* \"nftmarket_flattened.sol\":60167:60192  _tokenIdCounter.current() */\n      tag_200\n        /* \"nftmarket_flattened.sol\":60167:60182  _tokenIdCounter */\n      0x07\n        /* \"nftmarket_flattened.sol\":60167:60190  _tokenIdCounter.current */\n      tag_201\n        /* \"nftmarket_flattened.sol\":60167:60192  _tokenIdCounter.current() */\n      jump\t// in\n    tag_200:\n        /* \"nftmarket_flattened.sol\":60160:60192  return _tokenIdCounter.current() */\n      swap1\n      pop\n        /* \"nftmarket_flattened.sol\":60100:60199  function getTotalToken() public view returns(uint){... */\n      swap1\n      jump\t// out\n        /* \"nftmarket_flattened.sol\":43281:43413  function safeTransferFrom(address from, address to, uint256 tokenId) public {... */\n    tag_82:\n        /* \"nftmarket_flattened.sol\":43367:43406  safeTransferFrom(from, to, tokenId, \"\") */\n      tag_203\n        /* \"nftmarket_flattened.sol\":43384:43388  from */\n      dup4\n        /* \"nftmarket_flattened.sol\":43390:43392  to */\n      dup4\n        /* \"nftmarket_flattened.sol\":43394:43401  tokenId */\n      dup4\n        /* \"nftmarket_flattened.sol\":43367:43406  safeTransferFrom(from, to, tokenId, \"\") */\n      mload(0x40)\n      dup1\n      0x20\n      add\n      0x40\n      mstore\n      dup1\n      0x00\n      dup2\n      mstore\n      pop\n        /* \"nftmarket_flattened.sol\":43367:43383  safeTransferFrom */\n      tag_138\n        /* \"nftmarket_flattened.sol\":43367:43406  safeTransferFrom(from, to, tokenId, \"\") */\n      jump\t// in\n    tag_203:\n        /* \"nftmarket_flattened.sol\":43281:43413  function safeTransferFrom(address from, address to, uint256 tokenId) public {... */\n      pop\n      pop\n      pop\n      jump\t// out\n        /* \"nftmarket_flattened.sol\":58921:59028  function setBaseURI(string memory newBaseTokenURI) public   {... */\n    tag_87:\n        /* \"nftmarket_flattened.sol\":59006:59021  newBaseTokenURI */\n      dup1\n        /* \"nftmarket_flattened.sol\":58991:59003  baseTokenURI */\n      0x08\n        /* \"nftmarket_flattened.sol\":58991:59021  baseTokenURI = newBaseTokenURI */\n      swap1\n      dup2\n      tag_205\n      swap2\n      swap1\n      tag_206\n      jump\t// in\n    tag_205:\n      pop\n        /* \"nftmarket_flattened.sol\":58921:59028  function setBaseURI(string memory newBaseTokenURI) public   {... */\n      pop\n      jump\t// out\n        /* \"nftmarket_flattened.sol\":59843:59983  function KnowPrice( uint tokenIds) public view returns (uint) {... */\n    tag_91:\n        /* \"nftmarket_flattened.sol\":59899:59903  uint */\n      0x00\n        /* \"nftmarket_flattened.sol\":59916:59931  NFT memory info */\n      dup1\n        /* \"nftmarket_flattened.sol\":59934:59938  nfts */\n      0x0d\n        /* \"nftmarket_flattened.sol\":59934:59948  nfts[tokenIds] */\n      0x00\n        /* \"nftmarket_flattened.sol\":59939:59947  tokenIds */\n      dup5\n        /* \"nftmarket_flattened.sol\":59934:59948  nfts[tokenIds] */\n      dup2\n      mstore\n      0x20\n      add\n      swap1\n      dup2\n      mstore\n      0x20\n      add\n      0x00\n      keccak256\n        /* \"nftmarket_flattened.sol\":59916:59948  NFT memory info = nfts[tokenIds] */\n      mload(0x40)\n      dup1\n      0x40\n      add\n      0x40\n      mstore\n      swap1\n      dup2\n      0x00\n      dup3\n      add\n      0x00\n      swap1\n      sload\n      swap1\n      0x0100\n      exp\n      swap1\n      div\n      0xffffffffffffffffffffffffffffffffffffffff\n      and\n      0xffffffffffffffffffffffffffffffffffffffff\n      and\n      0xffffffffffffffffffffffffffffffffffffffff\n      and\n      dup2\n      mstore\n      0x20\n      add\n      0x01\n      dup3\n      add\n      sload\n      dup2\n      mstore\n      pop\n      pop\n      swap1\n      pop\n        /* \"nftmarket_flattened.sol\":59965:59969  info */\n      dup1\n        /* \"nftmarket_flattened.sol\":59965:59975  info.price */\n      0x20\n      add\n      mload\n        /* \"nftmarket_flattened.sol\":59958:59975  return info.price */\n      swap2\n      pop\n      pop\n        /* \"nftmarket_flattened.sol\":59843:59983  function KnowPrice( uint tokenIds) public view returns (uint) {... */\n      swap2\n      swap1\n      pop\n      jump\t// out\n        /* \"nftmarket_flattened.sol\":59034:59364  function mintNFT(string memory tokenURI, uint price) public {... */\n    tag_97:\n        /* \"nftmarket_flattened.sol\":59104:59119  uint256 tokenId */\n      0x00\n        /* \"nftmarket_flattened.sol\":59122:59147  _tokenIdCounter.current() */\n      tag_209\n        /* \"nftmarket_flattened.sol\":59122:59137  _tokenIdCounter */\n      0x07\n        /* \"nftmarket_flattened.sol\":59122:59145  _tokenIdCounter.current */\n      tag_201\n        /* \"nftmarket_flattened.sol\":59122:59147  _tokenIdCounter.current() */\n      jump\t// in\n    tag_209:\n        /* \"nftmarket_flattened.sol\":59104:59147  uint256 tokenId = _tokenIdCounter.current() */\n      swap1\n      pop\n        /* \"nftmarket_flattened.sol\":59157:59187  _safeMint(msg.sender, tokenId) */\n      tag_210\n        /* \"nftmarket_flattened.sol\":59167:59177  msg.sender */\n      caller\n        /* \"nftmarket_flattened.sol\":59179:59186  tokenId */\n      dup3\n        /* \"nftmarket_flattened.sol\":59157:59166  _safeMint */\n      tag_211\n        /* \"nftmarket_flattened.sol\":59157:59187  _safeMint(msg.sender, tokenId) */\n      jump\t// in\n    tag_210:\n        /* \"nftmarket_flattened.sol\":59197:59228  _setTokenURI(tokenId, tokenURI) */\n      tag_212\n        /* \"nftmarket_flattened.sol\":59210:59217  tokenId */\n      dup2\n        /* \"nftmarket_flattened.sol\":59219:59227  tokenURI */\n      dup5\n        /* \"nftmarket_flattened.sol\":59197:59209  _setTokenURI */\n      tag_213\n        /* \"nftmarket_flattened.sol\":59197:59228  _setTokenURI(tokenId, tokenURI) */\n      jump\t// in\n    tag_212:\n        /* \"nftmarket_flattened.sol\":59254:59276  NFT(msg.sender, price) */\n      mload(0x40)\n      dup1\n      0x40\n      add\n      0x40\n      mstore\n      dup1\n        /* \"nftmarket_flattened.sol\":59258:59268  msg.sender */\n      caller\n        /* \"nftmarket_flattened.sol\":59254:59276  NFT(msg.sender, price) */\n      0xffffffffffffffffffffffffffffffffffffffff\n      and\n      dup2\n      mstore\n      0x20\n      add\n        /* \"nftmarket_flattened.sol\":59270:59275  price */\n      dup4\n        /* \"nftmarket_flattened.sol\":59254:59276  NFT(msg.sender, price) */\n      dup2\n      mstore\n      pop\n        /* \"nftmarket_flattened.sol\":59239:59243  nfts */\n      0x0d\n        /* \"nftmarket_flattened.sol\":59239:59252  nfts[tokenId] */\n      0x00\n        /* \"nftmarket_flattened.sol\":59244:59251  tokenId */\n      dup4\n        /* \"nftmarket_flattened.sol\":59239:59252  nfts[tokenId] */\n      dup2\n      mstore\n      0x20\n      add\n      swap1\n      dup2\n      mstore\n      0x20\n      add\n      0x00\n      keccak256\n        /* \"nftmarket_flattened.sol\":59239:59276  nfts[tokenId]= NFT(msg.sender, price) */\n      0x00\n      dup3\n      add\n      mload\n      dup2\n      0x00\n      add\n      exp(0x0100, 0x00)\n      dup2\n      sload\n      dup2\n      0xffffffffffffffffffffffffffffffffffffffff\n      mul\n      not\n      and\n      swap1\n      dup4\n      0xffffffffffffffffffffffffffffffffffffffff\n      and\n      mul\n      or\n      swap1\n      sstore\n      pop\n      0x20\n      dup3\n      add\n      mload\n      dup2\n      0x01\n      add\n      sstore\n      swap1\n      pop\n      pop\n        /* \"nftmarket_flattened.sol\":59315:59320  false */\n      0x00\n        /* \"nftmarket_flattened.sol\":59286:59292  isSold */\n      0x0c\n        /* \"nftmarket_flattened.sol\":59286:59305  isSold [msg.sender] */\n      0x00\n        /* \"nftmarket_flattened.sol\":59294:59304  msg.sender */\n      caller\n        /* \"nftmarket_flattened.sol\":59286:59305  isSold [msg.sender] */\n      0xffffffffffffffffffffffffffffffffffffffff\n      and\n      0xffffffffffffffffffffffffffffffffffffffff\n      and\n      dup2\n      mstore\n      0x20\n      add\n      swap1\n      dup2\n      mstore\n      0x20\n      add\n      0x00\n      keccak256\n        /* \"nftmarket_flattened.sol\":59286:59314  isSold [msg.sender][tokenId] */\n      0x00\n        /* \"nftmarket_flattened.sol\":59306:59313  tokenId */\n      dup4\n        /* \"nftmarket_flattened.sol\":59286:59314  isSold [msg.sender][tokenId] */\n      dup2\n      mstore\n      0x20\n      add\n      swap1\n      dup2\n      mstore\n      0x20\n      add\n      0x00\n      keccak256\n      0x00\n        /* \"nftmarket_flattened.sol\":59286:59320  isSold [msg.sender][tokenId]=false */\n      0x0100\n      exp\n      dup2\n      sload\n      dup2\n      0xff\n      mul\n      not\n      and\n      swap1\n      dup4\n      iszero\n      iszero\n      mul\n      or\n      swap1\n      sstore\n      pop\n        /* \"nftmarket_flattened.sol\":59329:59356  _tokenIdCounter.increment() */\n      tag_214\n        /* \"nftmarket_flattened.sol\":59329:59344  _tokenIdCounter */\n      0x07\n        /* \"nftmarket_flattened.sol\":59329:59354  _tokenIdCounter.increment */\n      tag_215\n        /* \"nftmarket_flattened.sol\":59329:59356  _tokenIdCounter.increment() */\n      jump\t// in\n    tag_214:\n        /* \"nftmarket_flattened.sol\":59094:59364  {... */\n      pop\n        /* \"nftmarket_flattened.sol\":59034:59364  function mintNFT(string memory tokenURI, uint price) public {... */\n      pop\n      pop\n      jump\t// out\n        /* \"nftmarket_flattened.sol\":40679:40797  function ownerOf(uint256 tokenId) public view virtual returns (address) {... */\n    tag_101:\n        /* \"nftmarket_flattened.sol\":40742:40749  address */\n      0x00\n        /* \"nftmarket_flattened.sol\":40768:40790  _requireOwned(tokenId) */\n      tag_217\n        /* \"nftmarket_flattened.sol\":40782:40789  tokenId */\n      dup3\n        /* \"nftmarket_flattened.sol\":40768:40781  _requireOwned */\n      tag_177\n        /* \"nftmarket_flattened.sol\":40768:40790  _requireOwned(tokenId) */\n      jump\t// in\n    tag_217:\n        /* \"nftmarket_flattened.sol\":40761:40790  return _requireOwned(tokenId) */\n      swap1\n      pop\n        /* \"nftmarket_flattened.sol\":40679:40797  function ownerOf(uint256 tokenId) public view virtual returns (address) {... */\n      swap2\n      swap1\n      pop\n      jump\t// out\n        /* \"nftmarket_flattened.sol\":40414:40622  function balanceOf(address owner) public view virtual returns (uint256) {... */\n    tag_107:\n        /* \"nftmarket_flattened.sol\":40477:40484  uint256 */\n      0x00\n        /* \"nftmarket_flattened.sol\":40517:40518  0 */\n      dup1\n        /* \"nftmarket_flattened.sol\":40500:40519  owner == address(0) */\n      0xffffffffffffffffffffffffffffffffffffffff\n      and\n        /* \"nftmarket_flattened.sol\":40500:40505  owner */\n      dup3\n        /* \"nftmarket_flattened.sol\":40500:40519  owner == address(0) */\n      0xffffffffffffffffffffffffffffffffffffffff\n      and\n      sub\n        /* \"nftmarket_flattened.sol\":40496:40583  if (owner == address(0)) {... */\n      tag_219\n      jumpi\n        /* \"nftmarket_flattened.sol\":40569:40570  0 */\n      0x00\n        /* \"nftmarket_flattened.sol\":40542:40572  ERC721InvalidOwner(address(0)) */\n      mload(0x40)\n      0x89c62b6400000000000000000000000000000000000000000000000000000000\n      dup2\n      mstore\n      0x04\n      add\n      tag_220\n      swap2\n      swap1\n      tag_51\n      jump\t// in\n    tag_220:\n      mload(0x40)\n      dup1\n      swap2\n      sub\n      swap1\n      revert\n        /* \"nftmarket_flattened.sol\":40496:40583  if (owner == address(0)) {... */\n    tag_219:\n        /* \"nftmarket_flattened.sol\":40599:40608  _balances */\n      0x03\n        /* \"nftmarket_flattened.sol\":40599:40615  _balances[owner] */\n      0x00\n        /* \"nftmarket_flattened.sol\":40609:40614  owner */\n      dup4\n        /* \"nftmarket_flattened.sol\":40599:40615  _balances[owner] */\n      0xffffffffffffffffffffffffffffffffffffffff\n      and\n      0xffffffffffffffffffffffffffffffffffffffff\n      and\n      dup2\n      mstore\n      0x20\n      add\n      swap1\n      dup2\n      mstore\n      0x20\n      add\n      0x00\n      keccak256\n      sload\n        /* \"nftmarket_flattened.sol\":40592:40615  return _balances[owner] */\n      swap1\n      pop\n        /* \"nftmarket_flattened.sol\":40414:40622  function balanceOf(address owner) public view virtual returns (uint256) {... */\n      swap2\n      swap1\n      pop\n      jump\t// out\n        /* \"nftmarket_flattened.sol\":59543:59688  function SoldNft (uint tokenids) public view returns (bool) {... */\n    tag_112:\n        /* \"nftmarket_flattened.sol\":59597:59601  bool */\n      0x00\n        /* \"nftmarket_flattened.sol\":59613:59624  address ads */\n      dup1\n        /* \"nftmarket_flattened.sol\":59626:59643  ownerOf(tokenids) */\n      tag_222\n        /* \"nftmarket_flattened.sol\":59634:59642  tokenids */\n      dup4\n        /* \"nftmarket_flattened.sol\":59626:59633  ownerOf */\n      tag_101\n        /* \"nftmarket_flattened.sol\":59626:59643  ownerOf(tokenids) */\n      jump\t// in\n    tag_222:\n        /* \"nftmarket_flattened.sol\":59613:59643  address ads= ownerOf(tokenids) */\n      swap1\n      pop\n        /* \"nftmarket_flattened.sol\":59660:59666  isSold */\n      0x0c\n        /* \"nftmarket_flattened.sol\":59660:59671  isSold[ads] */\n      0x00\n        /* \"nftmarket_flattened.sol\":59667:59670  ads */\n      dup3\n        /* \"nftmarket_flattened.sol\":59660:59671  isSold[ads] */\n      0xffffffffffffffffffffffffffffffffffffffff\n      and\n      0xffffffffffffffffffffffffffffffffffffffff\n      and\n      dup2\n      mstore\n      0x20\n      add\n      swap1\n      dup2\n      mstore\n      0x20\n      add\n      0x00\n      keccak256\n        /* \"nftmarket_flattened.sol\":59660:59681  isSold[ads][tokenids] */\n      0x00\n        /* \"nftmarket_flattened.sol\":59672:59680  tokenids */\n      dup5\n        /* \"nftmarket_flattened.sol\":59660:59681  isSold[ads][tokenids] */\n      dup2\n      mstore\n      0x20\n      add\n      swap1\n      dup2\n      mstore\n      0x20\n      add\n      0x00\n      keccak256\n      0x00\n      swap1\n      sload\n      swap1\n      0x0100\n      exp\n      swap1\n      div\n      0xff\n      and\n        /* \"nftmarket_flattened.sol\":59653:59681  return isSold[ads][tokenids] */\n      swap2\n      pop\n      pop\n        /* \"nftmarket_flattened.sol\":59543:59688  function SoldNft (uint tokenids) public view returns (bool) {... */\n      swap2\n      swap1\n      pop\n      jump\t// out\n        /* \"nftmarket_flattened.sol\":58489:58526  uint256 public royaltyPercentage = 10 */\n    tag_116:\n      sload(0x09)\n      dup2\n      jump\t// out\n        /* \"nftmarket_flattened.sol\":41012:41105  function symbol() public view virtual returns (string memory) {... */\n    tag_120:\n        /* \"nftmarket_flattened.sol\":41059:41072  string memory */\n      0x60\n        /* \"nftmarket_flattened.sol\":41091:41098  _symbol */\n      0x01\n        /* \"nftmarket_flattened.sol\":41084:41098  return _symbol */\n      dup1\n      sload\n      tag_224\n      swap1\n      tag_170\n      jump\t// in\n    tag_224:\n      dup1\n      0x1f\n      add\n      0x20\n      dup1\n      swap2\n      div\n      mul\n      0x20\n      add\n      mload(0x40)\n      swap1\n      dup2\n      add\n      0x40\n      mstore\n      dup1\n      swap3\n      swap2\n      swap1\n      dup2\n      dup2\n      mstore\n      0x20\n      add\n      dup3\n      dup1\n      sload\n      tag_225\n      swap1\n      tag_170\n      jump\t// in\n    tag_225:\n      dup1\n      iszero\n      tag_226\n      jumpi\n      dup1\n      0x1f\n      lt\n      tag_227\n      jumpi\n      0x0100\n      dup1\n      dup4\n      sload\n      div\n      mul\n      dup4\n      mstore\n      swap2\n      0x20\n      add\n      swap2\n      jump(tag_226)\n    tag_227:\n      dup3\n      add\n      swap2\n      swap1\n      0x00\n      mstore\n      keccak256(0x00, 0x20)\n      swap1\n    tag_228:\n      dup2\n      sload\n      dup2\n      mstore\n      swap1\n      0x01\n      add\n      swap1\n      0x20\n      add\n      dup1\n      dup4\n      gt\n      tag_228\n      jumpi\n      dup3\n      swap1\n      sub\n      0x1f\n      and\n      dup3\n      add\n      swap2\n    tag_226:\n      pop\n      pop\n      pop\n      pop\n      pop\n      swap1\n      pop\n        /* \"nftmarket_flattened.sol\":41012:41105  function symbol() public view virtual returns (string memory) {... */\n      swap1\n      jump\t// out\n        /* \"nftmarket_flattened.sol\":42212:42356  function setApprovalForAll(address operator, bool approved) public virtual {... */\n    tag_126:\n        /* \"nftmarket_flattened.sol\":42297:42349  _setApprovalForAll(_msgSender(), operator, approved) */\n      tag_230\n        /* \"nftmarket_flattened.sol\":42316:42328  _msgSender() */\n      tag_231\n        /* \"nftmarket_flattened.sol\":42316:42326  _msgSender */\n      tag_183\n        /* \"nftmarket_flattened.sol\":42316:42328  _msgSender() */\n      jump\t// in\n    tag_231:\n        /* \"nftmarket_flattened.sol\":42330:42338  operator */\n      dup4\n        /* \"nftmarket_flattened.sol\":42340:42348  approved */\n      dup4\n        /* \"nftmarket_flattened.sol\":42297:42315  _setApprovalForAll */\n      tag_232\n        /* \"nftmarket_flattened.sol\":42297:42349  _setApprovalForAll(_msgSender(), operator, approved) */\n      jump\t// in\n    tag_230:\n        /* \"nftmarket_flattened.sol\":42212:42356  function setApprovalForAll(address operator, bool approved) public virtual {... */\n      pop\n      pop\n      jump\t// out\n        /* \"nftmarket_flattened.sol\":60205:61018  function BuyNFT(uint256 tokenId) public payable  {... */\n    tag_129:\n        /* \"nftmarket_flattened.sol\":60273:60291  address tokenOwner */\n      0x00\n        /* \"nftmarket_flattened.sol\":60294:60310  ownerOf(tokenId) */\n      tag_234\n        /* \"nftmarket_flattened.sol\":60302:60309  tokenId */\n      dup3\n        /* \"nftmarket_flattened.sol\":60294:60301  ownerOf */\n      tag_101\n        /* \"nftmarket_flattened.sol\":60294:60310  ownerOf(tokenId) */\n      jump\t// in\n    tag_234:\n        /* \"nftmarket_flattened.sol\":60273:60310  address tokenOwner = ownerOf(tokenId) */\n      swap1\n      pop\n        /* \"nftmarket_flattened.sol\":60358:60362  true */\n      0x01\n        /* \"nftmarket_flattened.sol\":60328:60362  isSell[tokenOwner][tokenId]== true */\n      iszero\n      iszero\n        /* \"nftmarket_flattened.sol\":60328:60334  isSell */\n      0x0b\n        /* \"nftmarket_flattened.sol\":60328:60346  isSell[tokenOwner] */\n      0x00\n        /* \"nftmarket_flattened.sol\":60335:60345  tokenOwner */\n      dup4\n        /* \"nftmarket_flattened.sol\":60328:60346  isSell[tokenOwner] */\n      0xffffffffffffffffffffffffffffffffffffffff\n      and\n      0xffffffffffffffffffffffffffffffffffffffff\n      and\n      dup2\n      mstore\n      0x20\n      add\n      swap1\n      dup2\n      mstore\n      0x20\n      add\n      0x00\n      keccak256\n        /* \"nftmarket_flattened.sol\":60328:60355  isSell[tokenOwner][tokenId] */\n      0x00\n        /* \"nftmarket_flattened.sol\":60347:60354  tokenId */\n      dup5\n        /* \"nftmarket_flattened.sol\":60328:60355  isSell[tokenOwner][tokenId] */\n      dup2\n      mstore\n      0x20\n      add\n      swap1\n      dup2\n      mstore\n      0x20\n      add\n      0x00\n      keccak256\n      0x00\n      swap1\n      sload\n      swap1\n      0x0100\n      exp\n      swap1\n      div\n      0xff\n      and\n        /* \"nftmarket_flattened.sol\":60328:60362  isSell[tokenOwner][tokenId]== true */\n      iszero\n      iszero\n      eq\n        /* \"nftmarket_flattened.sol\":60320:60387  require(isSell[tokenOwner][tokenId]== true, \"Token is not at sale\") */\n      tag_235\n      jumpi\n      mload(0x40)\n      0x08c379a000000000000000000000000000000000000000000000000000000000\n      dup2\n      mstore\n      0x04\n      add\n      tag_236\n      swap1\n      tag_237\n      jump\t// in\n    tag_236:\n      mload(0x40)\n      dup1\n      swap2\n      sub\n      swap1\n      revert\n    tag_235:\n        /* \"nftmarket_flattened.sol\":60398:60411  address buyer */\n      0x00\n        /* \"nftmarket_flattened.sol\":60414:60424  msg.sender */\n      caller\n        /* \"nftmarket_flattened.sol\":60398:60424  address buyer = msg.sender */\n      swap1\n      pop\n        /* \"nftmarket_flattened.sol\":60434:60447  uint256 price */\n      0x00\n        /* \"nftmarket_flattened.sol\":60450:60454  nfts */\n      0x0d\n        /* \"nftmarket_flattened.sol\":60450:60463  nfts[tokenId] */\n      0x00\n        /* \"nftmarket_flattened.sol\":60455:60462  tokenId */\n      dup6\n        /* \"nftmarket_flattened.sol\":60450:60463  nfts[tokenId] */\n      dup2\n      mstore\n      0x20\n      add\n      swap1\n      dup2\n      mstore\n      0x20\n      add\n      0x00\n      keccak256\n        /* \"nftmarket_flattened.sol\":60450:60469  nfts[tokenId].price */\n      0x01\n      add\n      sload\n        /* \"nftmarket_flattened.sol\":60434:60469  uint256 price = nfts[tokenId].price */\n      swap1\n      pop\n        /* \"nftmarket_flattened.sol\":60501:60506  buyer */\n      dup2\n        /* \"nftmarket_flattened.sol\":60487:60506  tokenOwner != buyer */\n      0xffffffffffffffffffffffffffffffffffffffff\n      and\n        /* \"nftmarket_flattened.sol\":60487:60497  tokenOwner */\n      dup4\n        /* \"nftmarket_flattened.sol\":60487:60506  tokenOwner != buyer */\n      0xffffffffffffffffffffffffffffffffffffffff\n      and\n      sub\n        /* \"nftmarket_flattened.sol\":60479:60534  require(tokenOwner != buyer, \"Cannot buy your own NFT\") */\n      tag_238\n      jumpi\n      mload(0x40)\n      0x08c379a000000000000000000000000000000000000000000000000000000000\n      dup2\n      mstore\n      0x04\n      add\n      tag_239\n      swap1\n      tag_240\n      jump\t// in\n    tag_239:\n      mload(0x40)\n      dup1\n      swap2\n      sub\n      swap1\n      revert\n    tag_238:\n        /* \"nftmarket_flattened.sol\":60565:60570  price */\n      dup1\n        /* \"nftmarket_flattened.sol\":60552:60561  msg.value */\n      callvalue\n        /* \"nftmarket_flattened.sol\":60552:60570  msg.value == price */\n      eq\n        /* \"nftmarket_flattened.sol\":60544:60592  require(msg.value == price, \"Supply Exact fund\") */\n      tag_241\n      jumpi\n      mload(0x40)\n      0x08c379a000000000000000000000000000000000000000000000000000000000\n      dup2\n      mstore\n      0x04\n      add\n      tag_242\n      swap1\n      tag_243\n      jump\t// in\n    tag_242:\n      mload(0x40)\n      dup1\n      swap2\n      sub\n      swap1\n      revert\n    tag_241:\n        /* \"nftmarket_flattened.sol\":60644:60681  _transfer(tokenOwner, buyer, tokenId) */\n      tag_244\n        /* \"nftmarket_flattened.sol\":60654:60664  tokenOwner */\n      dup4\n        /* \"nftmarket_flattened.sol\":60666:60671  buyer */\n      dup4\n        /* \"nftmarket_flattened.sol\":60673:60680  tokenId */\n      dup7\n        /* \"nftmarket_flattened.sol\":60644:60653  _transfer */\n      tag_245\n        /* \"nftmarket_flattened.sol\":60644:60681  _transfer(tokenOwner, buyer, tokenId) */\n      jump\t// in\n    tag_244:\n        /* \"nftmarket_flattened.sol\":60741:60758  uint256 royalties */\n      0x00\n        /* \"nftmarket_flattened.sol\":60791:60794  100 */\n      0x64\n        /* \"nftmarket_flattened.sol\":60770:60787  royaltyPercentage */\n      sload(0x09)\n        /* \"nftmarket_flattened.sol\":60762:60767  price */\n      dup4\n        /* \"nftmarket_flattened.sol\":60762:60787  price * royaltyPercentage */\n      tag_246\n      swap2\n      swap1\n      tag_196\n      jump\t// in\n    tag_246:\n        /* \"nftmarket_flattened.sol\":60761:60794  (price * royaltyPercentage) / 100 */\n      tag_247\n      swap2\n      swap1\n      tag_198\n      jump\t// in\n    tag_247:\n        /* \"nftmarket_flattened.sol\":60741:60794  uint256 royalties = (price * royaltyPercentage) / 100 */\n      swap1\n      pop\n        /* \"nftmarket_flattened.sol\":60835:60848  contractOwner */\n      0x0a\n      0x00\n      swap1\n      sload\n      swap1\n      0x0100\n      exp\n      swap1\n      div\n      0xffffffffffffffffffffffffffffffffffffffff\n      and\n        /* \"nftmarket_flattened.sol\":60827:60858  payable(contractOwner).transfer */\n      0xffffffffffffffffffffffffffffffffffffffff\n      and\n        /* \"nftmarket_flattened.sol\":60827:60869  payable(contractOwner).transfer(royalties) */\n      0x08fc\n        /* \"nftmarket_flattened.sol\":60859:60868  royalties */\n      dup3\n        /* \"nftmarket_flattened.sol\":60827:60869  payable(contractOwner).transfer(royalties) */\n      swap1\n      dup2\n      iszero\n      mul\n      swap1\n      mload(0x40)\n      0x00\n      mload(0x40)\n      dup1\n      dup4\n      sub\n      dup2\n      dup6\n      dup9\n      dup9\n      call\n      swap4\n      pop\n      pop\n      pop\n      pop\n      iszero\n      dup1\n      iszero\n      tag_249\n      jumpi\n      returndatasize\n      0x00\n      dup1\n      returndatacopy\n      revert(0x00, returndatasize)\n    tag_249:\n      pop\n        /* \"nftmarket_flattened.sol\":60971:60981  tokenOwner */\n      dup4\n        /* \"nftmarket_flattened.sol\":60963:60991  payable(tokenOwner).transfer */\n      0xffffffffffffffffffffffffffffffffffffffff\n      and\n        /* \"nftmarket_flattened.sol\":60963:61010  payable(tokenOwner).transfer(price - royalties) */\n      0x08fc\n        /* \"nftmarket_flattened.sol\":61000:61009  royalties */\n      dup3\n        /* \"nftmarket_flattened.sol\":60992:60997  price */\n      dup5\n        /* \"nftmarket_flattened.sol\":60992:61009  price - royalties */\n      tag_250\n      swap2\n      swap1\n      tag_251\n      jump\t// in\n    tag_250:\n        /* \"nftmarket_flattened.sol\":60963:61010  payable(tokenOwner).transfer(price - royalties) */\n      swap1\n      dup2\n      iszero\n      mul\n      swap1\n      mload(0x40)\n      0x00\n      mload(0x40)\n      dup1\n      dup4\n      sub\n      dup2\n      dup6\n      dup9\n      dup9\n      call\n      swap4\n      pop\n      pop\n      pop\n      pop\n      iszero\n      dup1\n      iszero\n      tag_253\n      jumpi\n      returndatasize\n      0x00\n      dup1\n      returndatacopy\n      revert(0x00, returndatasize)\n    tag_253:\n      pop\n        /* \"nftmarket_flattened.sol\":60254:61018  {... */\n      pop\n      pop\n      pop\n      pop\n        /* \"nftmarket_flattened.sol\":60205:61018  function BuyNFT(uint256 tokenId) public payable  {... */\n      pop\n      jump\t// out\n        /* \"nftmarket_flattened.sol\":59370:59537  function SellNft(uint tokenId) public  {... */\n    tag_133:\n        /* \"nftmarket_flattened.sol\":59441:59457  ownerOf(tokenId) */\n      tag_255\n        /* \"nftmarket_flattened.sol\":59449:59456  tokenId */\n      dup2\n        /* \"nftmarket_flattened.sol\":59441:59448  ownerOf */\n      tag_101\n        /* \"nftmarket_flattened.sol\":59441:59457  ownerOf(tokenId) */\n      jump\t// in\n    tag_255:\n        /* \"nftmarket_flattened.sol\":59427:59457  msg.sender == ownerOf(tokenId) */\n      0xffffffffffffffffffffffffffffffffffffffff\n      and\n        /* \"nftmarket_flattened.sol\":59427:59437  msg.sender */\n      caller\n        /* \"nftmarket_flattened.sol\":59427:59457  msg.sender == ownerOf(tokenId) */\n      0xffffffffffffffffffffffffffffffffffffffff\n      and\n      eq\n        /* \"nftmarket_flattened.sol\":59419:59488  require(msg.sender == ownerOf(tokenId), \"Your are Authorize to sell\") */\n      tag_256\n      jumpi\n      mload(0x40)\n      0x08c379a000000000000000000000000000000000000000000000000000000000\n      dup2\n      mstore\n      0x04\n      add\n      tag_257\n      swap1\n      tag_258\n      jump\t// in\n    tag_257:\n      mload(0x40)\n      dup1\n      swap2\n      sub\n      swap1\n      revert\n    tag_256:\n        /* \"nftmarket_flattened.sol\":59526:59530  true */\n      0x01\n        /* \"nftmarket_flattened.sol\":59498:59504  isSell */\n      0x0b\n        /* \"nftmarket_flattened.sol\":59498:59516  isSell[msg.sender] */\n      0x00\n        /* \"nftmarket_flattened.sol\":59505:59515  msg.sender */\n      caller\n        /* \"nftmarket_flattened.sol\":59498:59516  isSell[msg.sender] */\n      0xffffffffffffffffffffffffffffffffffffffff\n      and\n      0xffffffffffffffffffffffffffffffffffffffff\n      and\n      dup2\n      mstore\n      0x20\n      add\n      swap1\n      dup2\n      mstore\n      0x20\n      add\n      0x00\n      keccak256\n        /* \"nftmarket_flattened.sol\":59498:59525  isSell[msg.sender][tokenId] */\n      0x00\n        /* \"nftmarket_flattened.sol\":59517:59524  tokenId */\n      dup4\n        /* \"nftmarket_flattened.sol\":59498:59525  isSell[msg.sender][tokenId] */\n      dup2\n      mstore\n      0x20\n      add\n      swap1\n      dup2\n      mstore\n      0x20\n      add\n      0x00\n      keccak256\n      0x00\n        /* \"nftmarket_flattened.sol\":59498:59530  isSell[msg.sender][tokenId]=true */\n      0x0100\n      exp\n      dup2\n      sload\n      dup2\n      0xff\n      mul\n      not\n      and\n      swap1\n      dup4\n      iszero\n      iszero\n      mul\n      or\n      swap1\n      sstore\n      pop\n        /* \"nftmarket_flattened.sol\":59370:59537  function SellNft(uint tokenId) public  {... */\n      pop\n      jump\t// out\n        /* \"nftmarket_flattened.sol\":43479:43687  function safeTransferFrom(address from, address to, uint256 tokenId, bytes memory data) public virtual {... */\n    tag_138:\n        /* \"nftmarket_flattened.sol\":43592:43623  transferFrom(from, to, tokenId) */\n      tag_260\n        /* \"nftmarket_flattened.sol\":43605:43609  from */\n      dup5\n        /* \"nftmarket_flattened.sol\":43611:43613  to */\n      dup5\n        /* \"nftmarket_flattened.sol\":43615:43622  tokenId */\n      dup5\n        /* \"nftmarket_flattened.sol\":43592:43604  transferFrom */\n      tag_61\n        /* \"nftmarket_flattened.sol\":43592:43623  transferFrom(from, to, tokenId) */\n      jump\t// in\n    tag_260:\n        /* \"nftmarket_flattened.sol\":43633:43680  _checkOnERC721Received(from, to, tokenId, data) */\n      tag_261\n        /* \"nftmarket_flattened.sol\":43656:43660  from */\n      dup5\n        /* \"nftmarket_flattened.sol\":43662:43664  to */\n      dup5\n        /* \"nftmarket_flattened.sol\":43666:43673  tokenId */\n      dup5\n        /* \"nftmarket_flattened.sol\":43675:43679  data */\n      dup5\n        /* \"nftmarket_flattened.sol\":43633:43655  _checkOnERC721Received */\n      tag_262\n        /* \"nftmarket_flattened.sol\":43633:43680  _checkOnERC721Received(from, to, tokenId, data) */\n      jump\t// in\n    tag_261:\n        /* \"nftmarket_flattened.sol\":43479:43687  function safeTransferFrom(address from, address to, uint256 tokenId, bytes memory data) public virtual {... */\n      pop\n      pop\n      pop\n      pop\n      jump\t// out\n        /* \"nftmarket_flattened.sol\":57253:57846  function tokenURI(uint256 tokenId) public view virtual override returns (string memory) {... */\n    tag_142:\n        /* \"nftmarket_flattened.sol\":57326:57339  string memory */\n      0x60\n        /* \"nftmarket_flattened.sol\":57351:57373  _requireOwned(tokenId) */\n      tag_264\n        /* \"nftmarket_flattened.sol\":57365:57372  tokenId */\n      dup3\n        /* \"nftmarket_flattened.sol\":57351:57364  _requireOwned */\n      tag_177\n        /* \"nftmarket_flattened.sol\":57351:57373  _requireOwned(tokenId) */\n      jump\t// in\n    tag_264:\n      pop\n        /* \"nftmarket_flattened.sol\":57384:57407  string memory _tokenURI */\n      0x00\n        /* \"nftmarket_flattened.sol\":57410:57420  _tokenURIs */\n      0x06\n        /* \"nftmarket_flattened.sol\":57410:57429  _tokenURIs[tokenId] */\n      0x00\n        /* \"nftmarket_flattened.sol\":57421:57428  tokenId */\n      dup5\n        /* \"nftmarket_flattened.sol\":57410:57429  _tokenURIs[tokenId] */\n      dup2\n      mstore\n      0x20\n      add\n      swap1\n      dup2\n      mstore\n      0x20\n      add\n      0x00\n      keccak256\n        /* \"nftmarket_flattened.sol\":57384:57429  string memory _tokenURI = _tokenURIs[tokenId] */\n      dup1\n      sload\n      tag_265\n      swap1\n      tag_170\n      jump\t// in\n    tag_265:\n      dup1\n      0x1f\n      add\n      0x20\n      dup1\n      swap2\n      div\n      mul\n      0x20\n      add\n      mload(0x40)\n      swap1\n      dup2\n      add\n      0x40\n      mstore\n      dup1\n      swap3\n      swap2\n      swap1\n      dup2\n      dup2\n      mstore\n      0x20\n      add\n      dup3\n      dup1\n      sload\n      tag_266\n      swap1\n      tag_170\n      jump\t// in\n    tag_266:\n      dup1\n      iszero\n      tag_267\n      jumpi\n      dup1\n      0x1f\n      lt\n      tag_268\n      jumpi\n      0x0100\n      dup1\n      dup4\n      sload\n      div\n      mul\n      dup4\n      mstore\n      swap2\n      0x20\n      add\n      swap2\n      jump(tag_267)\n    tag_268:\n      dup3\n      add\n      swap2\n      swap1\n      0x00\n      mstore\n      keccak256(0x00, 0x20)\n      swap1\n    tag_269:\n      dup2\n      sload\n      dup2\n      mstore\n      swap1\n      0x01\n      add\n      swap1\n      0x20\n      add\n      dup1\n      dup4\n      gt\n      tag_269\n      jumpi\n      dup3\n      swap1\n      sub\n      0x1f\n      and\n      dup3\n      add\n      swap2\n    tag_267:\n      pop\n      pop\n      pop\n      pop\n      pop\n      swap1\n      pop\n        /* \"nftmarket_flattened.sol\":57439:57457  string memory base */\n      0x00\n        /* \"nftmarket_flattened.sol\":57460:57470  _baseURI() */\n      tag_270\n        /* \"nftmarket_flattened.sol\":57460:57468  _baseURI */\n      tag_271\n        /* \"nftmarket_flattened.sol\":57460:57470  _baseURI() */\n      jump\t// in\n    tag_270:\n        /* \"nftmarket_flattened.sol\":57439:57470  string memory base = _baseURI() */\n      swap1\n      pop\n        /* \"nftmarket_flattened.sol\":57565:57566  0 */\n      0x00\n        /* \"nftmarket_flattened.sol\":57549:57553  base */\n      dup2\n        /* \"nftmarket_flattened.sol\":57543:57561  bytes(base).length */\n      mload\n        /* \"nftmarket_flattened.sol\":57543:57566  bytes(base).length == 0 */\n      sub\n        /* \"nftmarket_flattened.sol\":57539:57609  if (bytes(base).length == 0) {... */\n      tag_272\n      jumpi\n        /* \"nftmarket_flattened.sol\":57589:57598  _tokenURI */\n      dup2\n        /* \"nftmarket_flattened.sol\":57582:57598  return _tokenURI */\n      swap3\n      pop\n      pop\n      pop\n      jump(tag_263)\n        /* \"nftmarket_flattened.sol\":57539:57609  if (bytes(base).length == 0) {... */\n    tag_272:\n        /* \"nftmarket_flattened.sol\":57734:57735  0 */\n      0x00\n        /* \"nftmarket_flattened.sol\":57714:57723  _tokenURI */\n      dup3\n        /* \"nftmarket_flattened.sol\":57708:57731  bytes(_tokenURI).length */\n      mload\n        /* \"nftmarket_flattened.sol\":57708:57735  bytes(_tokenURI).length > 0 */\n      gt\n        /* \"nftmarket_flattened.sol\":57704:57799  if (bytes(_tokenURI).length > 0) {... */\n      iszero\n      tag_273\n      jumpi\n        /* \"nftmarket_flattened.sol\":57772:57776  base */\n      dup1\n        /* \"nftmarket_flattened.sol\":57778:57787  _tokenURI */\n      dup3\n        /* \"nftmarket_flattened.sol\":57758:57788  string.concat(base, _tokenURI) */\n      add(0x20, mload(0x40))\n      tag_274\n      swap3\n      swap2\n      swap1\n      tag_275\n      jump\t// in\n    tag_274:\n      mload(0x40)\n      0x20\n      dup2\n      dup4\n      sub\n      sub\n      dup2\n      mstore\n      swap1\n      0x40\n      mstore\n        /* \"nftmarket_flattened.sol\":57751:57788  return string.concat(base, _tokenURI) */\n      swap3\n      pop\n      pop\n      pop\n      jump(tag_263)\n        /* \"nftmarket_flattened.sol\":57704:57799  if (bytes(_tokenURI).length > 0) {... */\n    tag_273:\n        /* \"nftmarket_flattened.sol\":57816:57839  super.tokenURI(tokenId) */\n      tag_276\n        /* \"nftmarket_flattened.sol\":57831:57838  tokenId */\n      dup5\n        /* \"nftmarket_flattened.sol\":57816:57830  super.tokenURI */\n      tag_277\n        /* \"nftmarket_flattened.sol\":57816:57839  super.tokenURI(tokenId) */\n      jump\t// in\n    tag_276:\n        /* \"nftmarket_flattened.sol\":57809:57839  return super.tokenURI(tokenId) */\n      swap3\n      pop\n      pop\n      pop\n        /* \"nftmarket_flattened.sol\":57253:57846  function tokenURI(uint256 tokenId) public view virtual override returns (string memory) {... */\n    tag_263:\n      swap2\n      swap1\n      pop\n      jump\t// out\n        /* \"nftmarket_flattened.sol\":58457:58483  string public baseTokenURI */\n    tag_146:\n      0x08\n      dup1\n      sload\n      tag_278\n      swap1\n      tag_170\n      jump\t// in\n    tag_278:\n      dup1\n      0x1f\n      add\n      0x20\n      dup1\n      swap2\n      div\n      mul\n      0x20\n      add\n      mload(0x40)\n      swap1\n      dup2\n      add\n      0x40\n      mstore\n      dup1\n      swap3\n      swap2\n      swap1\n      dup2\n      dup2\n      mstore\n      0x20\n      add\n      dup3\n      dup1\n      sload\n      tag_279\n      swap1\n      tag_170\n      jump\t// in\n    tag_279:\n      dup1\n      iszero\n      tag_280\n      jumpi\n      dup1\n      0x1f\n      lt\n      tag_281\n      jumpi\n      0x0100\n      dup1\n      dup4\n      sload\n      div\n      mul\n      dup4\n      mstore\n      swap2\n      0x20\n      add\n      swap2\n      jump(tag_280)\n    tag_281:\n      dup3\n      add\n      swap2\n      swap1\n      0x00\n      mstore\n      keccak256(0x00, 0x20)\n      swap1\n    tag_282:\n      dup2\n      sload\n      dup2\n      mstore\n      swap1\n      0x01\n      add\n      swap1\n      0x20\n      add\n      dup1\n      dup4\n      gt\n      tag_282\n      jumpi\n      dup3\n      swap1\n      sub\n      0x1f\n      and\n      dup3\n      add\n      swap2\n    tag_280:\n      pop\n      pop\n      pop\n      pop\n      pop\n      dup2\n      jump\t// out\n        /* \"nftmarket_flattened.sol\":42422:42575  function isApprovedForAll(address owner, address operator) public view virtual returns (bool) {... */\n    tag_152:\n        /* \"nftmarket_flattened.sol\":42510:42514  bool */\n      0x00\n        /* \"nftmarket_flattened.sol\":42533:42551  _operatorApprovals */\n      0x05\n        /* \"nftmarket_flattened.sol\":42533:42558  _operatorApprovals[owner] */\n      0x00\n        /* \"nftmarket_flattened.sol\":42552:42557  owner */\n      dup5\n        /* \"nftmarket_flattened.sol\":42533:42558  _operatorApprovals[owner] */\n      0xffffffffffffffffffffffffffffffffffffffff\n      and\n      0xffffffffffffffffffffffffffffffffffffffff\n      and\n      dup2\n      mstore\n      0x20\n      add\n      swap1\n      dup2\n      mstore\n      0x20\n      add\n      0x00\n      keccak256\n        /* \"nftmarket_flattened.sol\":42533:42568  _operatorApprovals[owner][operator] */\n      0x00\n        /* \"nftmarket_flattened.sol\":42559:42567  operator */\n      dup4\n        /* \"nftmarket_flattened.sol\":42533:42568  _operatorApprovals[owner][operator] */\n      0xffffffffffffffffffffffffffffffffffffffff\n      and\n      0xffffffffffffffffffffffffffffffffffffffff\n      and\n      dup2\n      mstore\n      0x20\n      add\n      swap1\n      dup2\n      mstore\n      0x20\n      add\n      0x00\n      keccak256\n      0x00\n      swap1\n      sload\n      swap1\n      0x0100\n      exp\n      swap1\n      div\n      0xff\n      and\n        /* \"nftmarket_flattened.sol\":42526:42568  return _operatorApprovals[owner][operator] */\n      swap1\n      pop\n        /* \"nftmarket_flattened.sol\":42422:42575  function isApprovedForAll(address owner, address operator) public view virtual returns (bool) {... */\n      swap3\n      swap2\n      pop\n      pop\n      jump\t// out\n        /* \"nftmarket_flattened.sol\":59694:59837  function isSellNft (uint tokenid) public view returns (bool) {... */\n    tag_157:\n        /* \"nftmarket_flattened.sol\":59749:59753  bool */\n      0x00\n        /* \"nftmarket_flattened.sol\":59765:59775  address ad */\n      dup1\n        /* \"nftmarket_flattened.sol\":59778:59794  ownerOf(tokenid) */\n      tag_285\n        /* \"nftmarket_flattened.sol\":59786:59793  tokenid */\n      dup4\n        /* \"nftmarket_flattened.sol\":59778:59785  ownerOf */\n      tag_101\n        /* \"nftmarket_flattened.sol\":59778:59794  ownerOf(tokenid) */\n      jump\t// in\n    tag_285:\n        /* \"nftmarket_flattened.sol\":59765:59794  address ad = ownerOf(tokenid) */\n      swap1\n      pop\n        /* \"nftmarket_flattened.sol\":59811:59817  isSell */\n      0x0b\n        /* \"nftmarket_flattened.sol\":59811:59821  isSell[ad] */\n      0x00\n        /* \"nftmarket_flattened.sol\":59818:59820  ad */\n      dup3\n        /* \"nftmarket_flattened.sol\":59811:59821  isSell[ad] */\n      0xffffffffffffffffffffffffffffffffffffffff\n      and\n      0xffffffffffffffffffffffffffffffffffffffff\n      and\n      dup2\n      mstore\n      0x20\n      add\n      swap1\n      dup2\n      mstore\n      0x20\n      add\n      0x00\n      keccak256\n        /* \"nftmarket_flattened.sol\":59811:59830  isSell[ad][tokenid] */\n      0x00\n        /* \"nftmarket_flattened.sol\":59822:59829  tokenid */\n      dup5\n        /* \"nftmarket_flattened.sol\":59811:59830  isSell[ad][tokenid] */\n      dup2\n      mstore\n      0x20\n      add\n      swap1\n      dup2\n      mstore\n      0x20\n      add\n      0x00\n      keccak256\n      0x00\n      swap1\n      sload\n      swap1\n      0x0100\n      exp\n      swap1\n      div\n      0xff\n      and\n        /* \"nftmarket_flattened.sol\":59804:59830  return isSell[ad][tokenid] */\n      swap2\n      pop\n      pop\n        /* \"nftmarket_flattened.sol\":59694:59837  function isSellNft (uint tokenid) public view returns (bool) {... */\n      swap2\n      swap1\n      pop\n      jump\t// out\n        /* \"nftmarket_flattened.sol\":59989:60094  function getBalance(address ads) public view returns (uint256) {... */\n    tag_162:\n        /* \"nftmarket_flattened.sol\":60043:60050  uint256 */\n      0x00\n        /* \"nftmarket_flattened.sol\":60076:60079  ads */\n      dup2\n        /* \"nftmarket_flattened.sol\":60076:60087  ads.balance */\n      0xffffffffffffffffffffffffffffffffffffffff\n      and\n      balance\n        /* \"nftmarket_flattened.sol\":60069:60087  return ads.balance */\n      swap1\n      pop\n        /* \"nftmarket_flattened.sol\":59989:60094  function getBalance(address ads) public view returns (uint256) {... */\n      swap2\n      swap1\n      pop\n      jump\t// out\n        /* \"nftmarket_flattened.sol\":40055:40355  function supportsInterface(bytes4 interfaceId) public view virtual override(ERC165, IERC165) returns (bool) {... */\n    tag_167:\n        /* \"nftmarket_flattened.sol\":40157:40161  bool */\n      0x00\n        /* \"nftmarket_flattened.sol\":40207:40232  type(IERC721).interfaceId */\n      0x80ac58cd00000000000000000000000000000000000000000000000000000000\n        /* \"nftmarket_flattened.sol\":40192:40232  interfaceId == type(IERC721).interfaceId */\n      not(0xffffffffffffffffffffffffffffffffffffffffffffffffffffffff)\n      and\n        /* \"nftmarket_flattened.sol\":40192:40203  interfaceId */\n      dup3\n        /* \"nftmarket_flattened.sol\":40192:40232  interfaceId == type(IERC721).interfaceId */\n      not(0xffffffffffffffffffffffffffffffffffffffffffffffffffffffff)\n      and\n      eq\n        /* \"nftmarket_flattened.sol\":40192:40296  interfaceId == type(IERC721).interfaceId ||... */\n      dup1\n      tag_288\n      jumpi\n      pop\n        /* \"nftmarket_flattened.sol\":40263:40296  type(IERC721Metadata).interfaceId */\n      0x5b5e139f00000000000000000000000000000000000000000000000000000000\n        /* \"nftmarket_flattened.sol\":40248:40296  interfaceId == type(IERC721Metadata).interfaceId */\n      not(0xffffffffffffffffffffffffffffffffffffffffffffffffffffffff)\n      and\n        /* \"nftmarket_flattened.sol\":40248:40259  interfaceId */\n      dup3\n        /* \"nftmarket_flattened.sol\":40248:40296  interfaceId == type(IERC721Metadata).interfaceId */\n      not(0xffffffffffffffffffffffffffffffffffffffffffffffffffffffff)\n      and\n      eq\n        /* \"nftmarket_flattened.sol\":40192:40296  interfaceId == type(IERC721).interfaceId ||... */\n    tag_288:\n        /* \"nftmarket_flattened.sol\":40192:40348  interfaceId == type(IERC721).interfaceId ||... */\n      dup1\n      tag_289\n      jumpi\n      pop\n        /* \"nftmarket_flattened.sol\":40312:40348  super.supportsInterface(interfaceId) */\n      tag_290\n        /* \"nftmarket_flattened.sol\":40336:40347  interfaceId */\n      dup3\n        /* \"nftmarket_flattened.sol\":40312:40335  super.supportsInterface */\n      tag_291\n        /* \"nftmarket_flattened.sol\":40312:40348  super.supportsInterface(interfaceId) */\n      jump\t// in\n    tag_290:\n        /* \"nftmarket_flattened.sol\":40192:40348  interfaceId == type(IERC721).interfaceId ||... */\n    tag_289:\n        /* \"nftmarket_flattened.sol\":40173:40348  return... */\n      swap1\n      pop\n        /* \"nftmarket_flattened.sol\":40055:40355  function supportsInterface(bytes4 interfaceId) public view virtual override(ERC165, IERC165) returns (bool) {... */\n      swap2\n      swap1\n      pop\n      jump\t// out\n        /* \"nftmarket_flattened.sol\":54632:54873  function _requireOwned(uint256 tokenId) internal view returns (address) {... */\n    tag_177:\n        /* \"nftmarket_flattened.sol\":54695:54702  address */\n      0x00\n        /* \"nftmarket_flattened.sol\":54714:54727  address owner */\n      dup1\n        /* \"nftmarket_flattened.sol\":54730:54747  _ownerOf(tokenId) */\n      tag_293\n        /* \"nftmarket_flattened.sol\":54739:54746  tokenId */\n      dup4\n        /* \"nftmarket_flattened.sol\":54730:54738  _ownerOf */\n      tag_294\n        /* \"nftmarket_flattened.sol\":54730:54747  _ownerOf(tokenId) */\n      jump\t// in\n    tag_293:\n        /* \"nftmarket_flattened.sol\":54714:54747  address owner = _ownerOf(tokenId) */\n      swap1\n      pop\n        /* \"nftmarket_flattened.sol\":54778:54779  0 */\n      0x00\n        /* \"nftmarket_flattened.sol\":54761:54780  owner == address(0) */\n      0xffffffffffffffffffffffffffffffffffffffff\n      and\n        /* \"nftmarket_flattened.sol\":54761:54766  owner */\n      dup2\n        /* \"nftmarket_flattened.sol\":54761:54780  owner == address(0) */\n      0xffffffffffffffffffffffffffffffffffffffff\n      and\n      sub\n        /* \"nftmarket_flattened.sol\":54757:54845  if (owner == address(0)) {... */\n      tag_295\n      jumpi\n        /* \"nftmarket_flattened.sol\":54826:54833  tokenId */\n      dup3\n        /* \"nftmarket_flattened.sol\":54803:54834  ERC721NonexistentToken(tokenId) */\n      mload(0x40)\n      0x7e27328900000000000000000000000000000000000000000000000000000000\n      dup2\n      mstore\n      0x04\n      add\n      tag_296\n      swap2\n      swap1\n      tag_78\n      jump\t// in\n    tag_296:\n      mload(0x40)\n      dup1\n      swap2\n      sub\n      swap1\n      revert\n        /* \"nftmarket_flattened.sol\":54757:54845  if (owner == address(0)) {... */\n    tag_295:\n        /* \"nftmarket_flattened.sol\":54861:54866  owner */\n      dup1\n        /* \"nftmarket_flattened.sol\":54854:54866  return owner */\n      swap2\n      pop\n      pop\n        /* \"nftmarket_flattened.sol\":54632:54873  function _requireOwned(uint256 tokenId) internal view returns (address) {... */\n      swap2\n      swap1\n      pop\n      jump\t// out\n        /* \"nftmarket_flattened.sol\":44432:44559  function _getApproved(uint256 tokenId) internal view virtual returns (address) {... */\n    tag_179:\n        /* \"nftmarket_flattened.sol\":44502:44509  address */\n      0x00\n        /* \"nftmarket_flattened.sol\":44528:44543  _tokenApprovals */\n      0x04\n        /* \"nftmarket_flattened.sol\":44528:44552  _tokenApprovals[tokenId] */\n      0x00\n        /* \"nftmarket_flattened.sol\":44544:44551  tokenId */\n      dup4\n        /* \"nftmarket_flattened.sol\":44528:44552  _tokenApprovals[tokenId] */\n      dup2\n      mstore\n      0x20\n      add\n      swap1\n      dup2\n      mstore\n      0x20\n      add\n      0x00\n      keccak256\n      0x00\n      swap1\n      sload\n      swap1\n      0x0100\n      exp\n      swap1\n      div\n      0xffffffffffffffffffffffffffffffffffffffff\n      and\n        /* \"nftmarket_flattened.sol\":44521:44552  return _tokenApprovals[tokenId] */\n      swap1\n      pop\n        /* \"nftmarket_flattened.sol\":44432:44559  function _getApproved(uint256 tokenId) internal view virtual returns (address) {... */\n      swap2\n      swap1\n      pop\n      jump\t// out\n        /* \"nftmarket_flattened.sol\":28165:28261  function _msgSender() internal view virtual returns (address) {... */\n    tag_183:\n        /* \"nftmarket_flattened.sol\":28218:28225  address */\n      0x00\n        /* \"nftmarket_flattened.sol\":28244:28254  msg.sender */\n      caller\n        /* \"nftmarket_flattened.sol\":28237:28254  return msg.sender */\n      swap1\n      pop\n        /* \"nftmarket_flattened.sol\":28165:28261  function _msgSender() internal view virtual returns (address) {... */\n      swap1\n      jump\t// out\n        /* \"nftmarket_flattened.sol\":52912:53032  function _approve(address to, uint256 tokenId, address auth) internal {... */\n    tag_184:\n        /* \"nftmarket_flattened.sol\":52992:53025  _approve(to, tokenId, auth, true) */\n      tag_300\n        /* \"nftmarket_flattened.sol\":53001:53003  to */\n      dup4\n        /* \"nftmarket_flattened.sol\":53005:53012  tokenId */\n      dup4\n        /* \"nftmarket_flattened.sol\":53014:53018  auth */\n      dup4\n        /* \"nftmarket_flattened.sol\":53020:53024  true */\n      0x01\n        /* \"nftmarket_flattened.sol\":52992:53000  _approve */\n      tag_301\n        /* \"nftmarket_flattened.sol\":52992:53025  _approve(to, tokenId, auth, true) */\n      jump\t// in\n    tag_300:\n        /* \"nftmarket_flattened.sol\":52912:53032  function _approve(address to, uint256 tokenId, address auth) internal {... */\n      pop\n      pop\n      pop\n      jump\t// out\n        /* \"nftmarket_flattened.sol\":47332:48127  function _update(address to, uint256 tokenId, address auth) internal virtual returns (address) {... */\n    tag_190:\n        /* \"nftmarket_flattened.sol\":47418:47425  address */\n      0x00\n        /* \"nftmarket_flattened.sol\":47437:47449  address from */\n      dup1\n        /* \"nftmarket_flattened.sol\":47452:47469  _ownerOf(tokenId) */\n      tag_303\n        /* \"nftmarket_flattened.sol\":47461:47468  tokenId */\n      dup5\n        /* \"nftmarket_flattened.sol\":47452:47460  _ownerOf */\n      tag_294\n        /* \"nftmarket_flattened.sol\":47452:47469  _ownerOf(tokenId) */\n      jump\t// in\n    tag_303:\n        /* \"nftmarket_flattened.sol\":47437:47469  address from = _ownerOf(tokenId) */\n      swap1\n      pop\n        /* \"nftmarket_flattened.sol\":47545:47546  0 */\n      0x00\n        /* \"nftmarket_flattened.sol\":47529:47547  auth != address(0) */\n      0xffffffffffffffffffffffffffffffffffffffff\n      and\n        /* \"nftmarket_flattened.sol\":47529:47533  auth */\n      dup4\n        /* \"nftmarket_flattened.sol\":47529:47547  auth != address(0) */\n      0xffffffffffffffffffffffffffffffffffffffff\n      and\n      eq\n        /* \"nftmarket_flattened.sol\":47525:47611  if (auth != address(0)) {... */\n      tag_304\n      jumpi\n        /* \"nftmarket_flattened.sol\":47563:47600  _checkAuthorized(from, auth, tokenId) */\n      tag_305\n        /* \"nftmarket_flattened.sol\":47580:47584  from */\n      dup2\n        /* \"nftmarket_flattened.sol\":47586:47590  auth */\n      dup5\n        /* \"nftmarket_flattened.sol\":47592:47599  tokenId */\n      dup7\n        /* \"nftmarket_flattened.sol\":47563:47579  _checkAuthorized */\n      tag_306\n        /* \"nftmarket_flattened.sol\":47563:47600  _checkAuthorized(from, auth, tokenId) */\n      jump\t// in\n    tag_305:\n        /* \"nftmarket_flattened.sol\":47525:47611  if (auth != address(0)) {... */\n    tag_304:\n        /* \"nftmarket_flattened.sol\":47671:47672  0 */\n      0x00\n        /* \"nftmarket_flattened.sol\":47655:47673  from != address(0) */\n      0xffffffffffffffffffffffffffffffffffffffff\n      and\n        /* \"nftmarket_flattened.sol\":47655:47659  from */\n      dup2\n        /* \"nftmarket_flattened.sol\":47655:47673  from != address(0) */\n      0xffffffffffffffffffffffffffffffffffffffff\n      and\n      eq\n        /* \"nftmarket_flattened.sol\":47651:47907  if (from != address(0)) {... */\n      tag_307\n      jumpi\n        /* \"nftmarket_flattened.sol\":47771:47819  _approve(address(0), tokenId, address(0), false) */\n      tag_308\n        /* \"nftmarket_flattened.sol\":47788:47789  0 */\n      0x00\n        /* \"nftmarket_flattened.sol\":47792:47799  tokenId */\n      dup6\n        /* \"nftmarket_flattened.sol\":47809:47810  0 */\n      0x00\n        /* \"nftmarket_flattened.sol\":47813:47818  false */\n      dup1\n        /* \"nftmarket_flattened.sol\":47771:47779  _approve */\n      tag_301\n        /* \"nftmarket_flattened.sol\":47771:47819  _approve(address(0), tokenId, address(0), false) */\n      jump\t// in\n    tag_308:\n        /* \"nftmarket_flattened.sol\":47881:47882  1 */\n      0x01\n        /* \"nftmarket_flattened.sol\":47862:47871  _balances */\n      0x03\n        /* \"nftmarket_flattened.sol\":47862:47877  _balances[from] */\n      0x00\n        /* \"nftmarket_flattened.sol\":47872:47876  from */\n      dup4\n        /* \"nftmarket_flattened.sol\":47862:47877  _balances[from] */\n      0xffffffffffffffffffffffffffffffffffffffff\n      and\n      0xffffffffffffffffffffffffffffffffffffffff\n      and\n      dup2\n      mstore\n      0x20\n      add\n      swap1\n      dup2\n      mstore\n      0x20\n      add\n      0x00\n      keccak256\n      0x00\n        /* \"nftmarket_flattened.sol\":47862:47882  _balances[from] -= 1 */\n      dup3\n      dup3\n      sload\n      sub\n      swap3\n      pop\n      pop\n      dup2\n      swap1\n      sstore\n      pop\n        /* \"nftmarket_flattened.sol\":47651:47907  if (from != address(0)) {... */\n    tag_307:\n        /* \"nftmarket_flattened.sol\":47935:47936  0 */\n      0x00\n        /* \"nftmarket_flattened.sol\":47921:47937  to != address(0) */\n      0xffffffffffffffffffffffffffffffffffffffff\n      and\n        /* \"nftmarket_flattened.sol\":47921:47923  to */\n      dup6\n        /* \"nftmarket_flattened.sol\":47921:47937  to != address(0) */\n      0xffffffffffffffffffffffffffffffffffffffff\n      and\n      eq\n        /* \"nftmarket_flattened.sol\":47917:48024  if (to != address(0)) {... */\n      tag_309\n      jumpi\n        /* \"nftmarket_flattened.sol\":47998:47999  1 */\n      0x01\n        /* \"nftmarket_flattened.sol\":47981:47990  _balances */\n      0x03\n        /* \"nftmarket_flattened.sol\":47981:47994  _balances[to] */\n      0x00\n        /* \"nftmarket_flattened.sol\":47991:47993  to */\n      dup8\n        /* \"nftmarket_flattened.sol\":47981:47994  _balances[to] */\n      0xffffffffffffffffffffffffffffffffffffffff\n      and\n      0xffffffffffffffffffffffffffffffffffffffff\n      and\n      dup2\n      mstore\n      0x20\n      add\n      swap1\n      dup2\n      mstore\n      0x20\n      add\n      0x00\n      keccak256\n      0x00\n        /* \"nftmarket_flattened.sol\":47981:47999  _balances[to] += 1 */\n      dup3\n      dup3\n      sload\n      add\n      swap3\n      pop\n      pop\n      dup2\n      swap1\n      sstore\n      pop\n        /* \"nftmarket_flattened.sol\":47917:48024  if (to != address(0)) {... */\n    tag_309:\n        /* \"nftmarket_flattened.sol\":48053:48055  to */\n      dup5\n        /* \"nftmarket_flattened.sol\":48034:48041  _owners */\n      0x02\n        /* \"nftmarket_flattened.sol\":48034:48050  _owners[tokenId] */\n      0x00\n        /* \"nftmarket_flattened.sol\":48042:48049  tokenId */\n      dup7\n        /* \"nftmarket_flattened.sol\":48034:48050  _owners[tokenId] */\n      dup2\n      mstore\n      0x20\n      add\n      swap1\n      dup2\n      mstore\n      0x20\n      add\n      0x00\n      keccak256\n      0x00\n        /* \"nftmarket_flattened.sol\":48034:48055  _owners[tokenId] = to */\n      0x0100\n      exp\n      dup2\n      sload\n      dup2\n      0xffffffffffffffffffffffffffffffffffffffff\n      mul\n      not\n      and\n      swap1\n      dup4\n      0xffffffffffffffffffffffffffffffffffffffff\n      and\n      mul\n      or\n      swap1\n      sstore\n      pop\n        /* \"nftmarket_flattened.sol\":48090:48097  tokenId */\n      dup4\n        /* \"nftmarket_flattened.sol\":48086:48088  to */\n      dup6\n        /* \"nftmarket_flattened.sol\":48071:48098  Transfer(from, to, tokenId) */\n      0xffffffffffffffffffffffffffffffffffffffff\n      and\n        /* \"nftmarket_flattened.sol\":48080:48084  from */\n      dup3\n        /* \"nftmarket_flattened.sol\":48071:48098  Transfer(from, to, tokenId) */\n      0xffffffffffffffffffffffffffffffffffffffff\n      and\n      0xddf252ad1be2c89b69c2b068fc378daa952ba7f163c4a11628f55a4df523b3ef\n      mload(0x40)\n      mload(0x40)\n      dup1\n      swap2\n      sub\n      swap1\n      log4\n        /* \"nftmarket_flattened.sol\":48116:48120  from */\n      dup1\n        /* \"nftmarket_flattened.sol\":48109:48120  return from */\n      swap2\n      pop\n      pop\n        /* \"nftmarket_flattened.sol\":47332:48127  function _update(address to, uint256 tokenId, address auth) internal virtual returns (address) {... */\n      swap4\n      swap3\n      pop\n      pop\n      pop\n      jump\t// out\n        /* \"nftmarket_flattened.sol\":882:994  function current(Counter storage counter) internal view returns (uint256) {... */\n    tag_201:\n        /* \"nftmarket_flattened.sol\":947:954  uint256 */\n      0x00\n        /* \"nftmarket_flattened.sol\":973:980  counter */\n      dup2\n        /* \"nftmarket_flattened.sol\":973:987  counter._value */\n      0x00\n      add\n      sload\n        /* \"nftmarket_flattened.sol\":966:987  return counter._value */\n      swap1\n      pop\n        /* \"nftmarket_flattened.sol\":882:994  function current(Counter storage counter) internal view returns (uint256) {... */\n      swap2\n      swap1\n      pop\n      jump\t// out\n        /* \"nftmarket_flattened.sol\":49127:49227  function _safeMint(address to, uint256 tokenId) internal {... */\n    tag_211:\n        /* \"nftmarket_flattened.sol\":49194:49220  _safeMint(to, tokenId, \"\") */\n      tag_312\n        /* \"nftmarket_flattened.sol\":49204:49206  to */\n      dup3\n        /* \"nftmarket_flattened.sol\":49208:49215  tokenId */\n      dup3\n        /* \"nftmarket_flattened.sol\":49194:49220  _safeMint(to, tokenId, \"\") */\n      mload(0x40)\n      dup1\n      0x20\n      add\n      0x40\n      mstore\n      dup1\n      0x00\n      dup2\n      mstore\n      pop\n        /* \"nftmarket_flattened.sol\":49194:49203  _safeMint */\n      tag_313\n        /* \"nftmarket_flattened.sol\":49194:49220  _safeMint(to, tokenId, \"\") */\n      jump\t// in\n    tag_312:\n        /* \"nftmarket_flattened.sol\":49127:49227  function _safeMint(address to, uint256 tokenId) internal {... */\n      pop\n      pop\n      jump\t// out\n        /* \"nftmarket_flattened.sol\":57965:58132  function _setTokenURI(uint256 tokenId, string memory _tokenURI) internal virtual {... */\n    tag_213:\n        /* \"nftmarket_flattened.sol\":58078:58087  _tokenURI */\n      dup1\n        /* \"nftmarket_flattened.sol\":58056:58066  _tokenURIs */\n      0x06\n        /* \"nftmarket_flattened.sol\":58056:58075  _tokenURIs[tokenId] */\n      0x00\n        /* \"nftmarket_flattened.sol\":58067:58074  tokenId */\n      dup5\n        /* \"nftmarket_flattened.sol\":58056:58075  _tokenURIs[tokenId] */\n      dup2\n      mstore\n      0x20\n      add\n      swap1\n      dup2\n      mstore\n      0x20\n      add\n      0x00\n      keccak256\n        /* \"nftmarket_flattened.sol\":58056:58087  _tokenURIs[tokenId] = _tokenURI */\n      swap1\n      dup2\n      tag_315\n      swap2\n      swap1\n      tag_206\n      jump\t// in\n    tag_315:\n      pop\n        /* \"nftmarket_flattened.sol\":58102:58125  MetadataUpdate(tokenId) */\n      0xf8e1a15aba9398e019f0b49df1a4fde98ee17ae345cb5f6b5e2c27f5033e8ce7\n        /* \"nftmarket_flattened.sol\":58117:58124  tokenId */\n      dup3\n        /* \"nftmarket_flattened.sol\":58102:58125  MetadataUpdate(tokenId) */\n      mload(0x40)\n      tag_316\n      swap2\n      swap1\n      tag_78\n      jump\t// in\n    tag_316:\n      mload(0x40)\n      dup1\n      swap2\n      sub\n      swap1\n      log1\n        /* \"nftmarket_flattened.sol\":57965:58132  function _setTokenURI(uint256 tokenId, string memory _tokenURI) internal virtual {... */\n      pop\n      pop\n      jump\t// out\n        /* \"nftmarket_flattened.sol\":1000:1123  function increment(Counter storage counter) internal {... */\n    tag_215:\n        /* \"nftmarket_flattened.sol\":1105:1106  1 */\n      0x01\n        /* \"nftmarket_flattened.sol\":1087:1094  counter */\n      dup2\n        /* \"nftmarket_flattened.sol\":1087:1101  counter._value */\n      0x00\n      add\n      0x00\n        /* \"nftmarket_flattened.sol\":1087:1106  counter._value += 1 */\n      dup3\n      dup3\n      sload\n      add\n      swap3\n      pop\n      pop\n      dup2\n      swap1\n      sstore\n      pop\n        /* \"nftmarket_flattened.sol\":1000:1123  function increment(Counter storage counter) internal {... */\n      pop\n      jump\t// out\n        /* \"nftmarket_flattened.sol\":54085:54397  function _setApprovalForAll(address owner, address operator, bool approved) internal virtual {... */\n    tag_232:\n        /* \"nftmarket_flattened.sol\":54212:54213  0 */\n      0x00\n        /* \"nftmarket_flattened.sol\":54192:54214  operator == address(0) */\n      0xffffffffffffffffffffffffffffffffffffffff\n      and\n        /* \"nftmarket_flattened.sol\":54192:54200  operator */\n      dup3\n        /* \"nftmarket_flattened.sol\":54192:54214  operator == address(0) */\n      0xffffffffffffffffffffffffffffffffffffffff\n      and\n      sub\n        /* \"nftmarket_flattened.sol\":54188:54279  if (operator == address(0)) {... */\n      tag_319\n      jumpi\n        /* \"nftmarket_flattened.sol\":54259:54267  operator */\n      dup2\n        /* \"nftmarket_flattened.sol\":54237:54268  ERC721InvalidOperator(operator) */\n      mload(0x40)\n      0x5b08ba1800000000000000000000000000000000000000000000000000000000\n      dup2\n      mstore\n      0x04\n      add\n      tag_320\n      swap2\n      swap1\n      tag_51\n      jump\t// in\n    tag_320:\n      mload(0x40)\n      dup1\n      swap2\n      sub\n      swap1\n      revert\n        /* \"nftmarket_flattened.sol\":54188:54279  if (operator == address(0)) {... */\n    tag_319:\n        /* \"nftmarket_flattened.sol\":54326:54334  approved */\n      dup1\n        /* \"nftmarket_flattened.sol\":54288:54306  _operatorApprovals */\n      0x05\n        /* \"nftmarket_flattened.sol\":54288:54313  _operatorApprovals[owner] */\n      0x00\n        /* \"nftmarket_flattened.sol\":54307:54312  owner */\n      dup6\n        /* \"nftmarket_flattened.sol\":54288:54313  _operatorApprovals[owner] */\n      0xffffffffffffffffffffffffffffffffffffffff\n      and\n      0xffffffffffffffffffffffffffffffffffffffff\n      and\n      dup2\n      mstore\n      0x20\n      add\n      swap1\n      dup2\n      mstore\n      0x20\n      add\n      0x00\n      keccak256\n        /* \"nftmarket_flattened.sol\":54288:54323  _operatorApprovals[owner][operator] */\n      0x00\n        /* \"nftmarket_flattened.sol\":54314:54322  operator */\n      dup5\n        /* \"nftmarket_flattened.sol\":54288:54323  _operatorApprovals[owner][operator] */\n      0xffffffffffffffffffffffffffffffffffffffff\n      and\n      0xffffffffffffffffffffffffffffffffffffffff\n      and\n      dup2\n      mstore\n      0x20\n      add\n      swap1\n      dup2\n      mstore\n      0x20\n      add\n      0x00\n      keccak256\n      0x00\n        /* \"nftmarket_flattened.sol\":54288:54334  _operatorApprovals[owner][operator] = approved */\n      0x0100\n      exp\n      dup2\n      sload\n      dup2\n      0xff\n      mul\n      not\n      and\n      swap1\n      dup4\n      iszero\n      iszero\n      mul\n      or\n      swap1\n      sstore\n      pop\n        /* \"nftmarket_flattened.sol\":54371:54379  operator */\n      dup2\n        /* \"nftmarket_flattened.sol\":54349:54390  ApprovalForAll(owner, operator, approved) */\n      0xffffffffffffffffffffffffffffffffffffffff\n      and\n        /* \"nftmarket_flattened.sol\":54364:54369  owner */\n      dup4\n        /* \"nftmarket_flattened.sol\":54349:54390  ApprovalForAll(owner, operator, approved) */\n      0xffffffffffffffffffffffffffffffffffffffff\n      and\n      0x17307eab39ab6107e8899845ad3d59bd9653f200f220920489ca2b5937696c31\n        /* \"nftmarket_flattened.sol\":54381:54389  approved */\n      dup4\n        /* \"nftmarket_flattened.sol\":54349:54390  ApprovalForAll(owner, operator, approved) */\n      mload(0x40)\n      tag_321\n      swap2\n      swap1\n      tag_39\n      jump\t// in\n    tag_321:\n      mload(0x40)\n      dup1\n      swap2\n      sub\n      swap1\n      log3\n        /* \"nftmarket_flattened.sol\":54085:54397  function _setApprovalForAll(address owner, address operator, bool approved) internal virtual {... */\n      pop\n      pop\n      pop\n      jump\t// out\n        /* \"nftmarket_flattened.sol\":50507:50967  function _transfer(address from, address to, uint256 tokenId) internal {... */\n    tag_245:\n        /* \"nftmarket_flattened.sol\":50606:50607  0 */\n      0x00\n        /* \"nftmarket_flattened.sol\":50592:50608  to == address(0) */\n      0xffffffffffffffffffffffffffffffffffffffff\n      and\n        /* \"nftmarket_flattened.sol\":50592:50594  to */\n      dup3\n        /* \"nftmarket_flattened.sol\":50592:50608  to == address(0) */\n      0xffffffffffffffffffffffffffffffffffffffff\n      and\n      sub\n        /* \"nftmarket_flattened.sol\":50588:50675  if (to == address(0)) {... */\n      tag_323\n      jumpi\n        /* \"nftmarket_flattened.sol\":50661:50662  0 */\n      0x00\n        /* \"nftmarket_flattened.sol\":50631:50664  ERC721InvalidReceiver(address(0)) */\n      mload(0x40)\n      0x64a0ae9200000000000000000000000000000000000000000000000000000000\n      dup2\n      mstore\n      0x04\n      add\n      tag_324\n      swap2\n      swap1\n      tag_51\n      jump\t// in\n    tag_324:\n      mload(0x40)\n      dup1\n      swap2\n      sub\n      swap1\n      revert\n        /* \"nftmarket_flattened.sol\":50588:50675  if (to == address(0)) {... */\n    tag_323:\n        /* \"nftmarket_flattened.sol\":50684:50705  address previousOwner */\n      0x00\n        /* \"nftmarket_flattened.sol\":50708:50740  _update(to, tokenId, address(0)) */\n      tag_325\n        /* \"nftmarket_flattened.sol\":50716:50718  to */\n      dup4\n        /* \"nftmarket_flattened.sol\":50720:50727  tokenId */\n      dup4\n        /* \"nftmarket_flattened.sol\":50737:50738  0 */\n      0x00\n        /* \"nftmarket_flattened.sol\":50708:50715  _update */\n      tag_190\n        /* \"nftmarket_flattened.sol\":50708:50740  _update(to, tokenId, address(0)) */\n      jump\t// in\n    tag_325:\n        /* \"nftmarket_flattened.sol\":50684:50740  address previousOwner = _update(to, tokenId, address(0)) */\n      swap1\n      pop\n        /* \"nftmarket_flattened.sol\":50779:50780  0 */\n      0x00\n        /* \"nftmarket_flattened.sol\":50754:50781  previousOwner == address(0) */\n      0xffffffffffffffffffffffffffffffffffffffff\n      and\n        /* \"nftmarket_flattened.sol\":50754:50767  previousOwner */\n      dup2\n        /* \"nftmarket_flattened.sol\":50754:50781  previousOwner == address(0) */\n      0xffffffffffffffffffffffffffffffffffffffff\n      and\n      sub\n        /* \"nftmarket_flattened.sol\":50750:50961  if (previousOwner == address(0)) {... */\n      tag_326\n      jumpi\n        /* \"nftmarket_flattened.sol\":50827:50834  tokenId */\n      dup2\n        /* \"nftmarket_flattened.sol\":50804:50835  ERC721NonexistentToken(tokenId) */\n      mload(0x40)\n      0x7e27328900000000000000000000000000000000000000000000000000000000\n      dup2\n      mstore\n      0x04\n      add\n      tag_327\n      swap2\n      swap1\n      tag_78\n      jump\t// in\n    tag_327:\n      mload(0x40)\n      dup1\n      swap2\n      sub\n      swap1\n      revert\n        /* \"nftmarket_flattened.sol\":50750:50961  if (previousOwner == address(0)) {... */\n    tag_326:\n        /* \"nftmarket_flattened.sol\":50873:50877  from */\n      dup4\n        /* \"nftmarket_flattened.sol\":50856:50877  previousOwner != from */\n      0xffffffffffffffffffffffffffffffffffffffff\n      and\n        /* \"nftmarket_flattened.sol\":50856:50869  previousOwner */\n      dup2\n        /* \"nftmarket_flattened.sol\":50856:50877  previousOwner != from */\n      0xffffffffffffffffffffffffffffffffffffffff\n      and\n      eq\n        /* \"nftmarket_flattened.sol\":50852:50961  if (previousOwner != from) {... */\n      tag_329\n      jumpi\n        /* \"nftmarket_flattened.sol\":50921:50925  from */\n      dup4\n        /* \"nftmarket_flattened.sol\":50927:50934  tokenId */\n      dup3\n        /* \"nftmarket_flattened.sol\":50936:50949  previousOwner */\n      dup3\n        /* \"nftmarket_flattened.sol\":50900:50950  ERC721IncorrectOwner(from, tokenId, previousOwner) */\n      mload(0x40)\n      0x64283d7b00000000000000000000000000000000000000000000000000000000\n      dup2\n      mstore\n      0x04\n      add\n      tag_330\n      swap4\n      swap3\n      swap2\n      swap1\n      tag_193\n      jump\t// in\n    tag_330:\n      mload(0x40)\n      dup1\n      swap2\n      sub\n      swap1\n      revert\n        /* \"nftmarket_flattened.sol\":50852:50961  if (previousOwner != from) {... */\n    tag_329:\n        /* \"nftmarket_flattened.sol\":50578:50967  {... */\n      pop\n        /* \"nftmarket_flattened.sol\":50507:50967  function _transfer(address from, address to, uint256 tokenId) internal {... */\n      pop\n      pop\n      pop\n      jump\t// out\n        /* \"nftmarket_flattened.sol\":55412:56194  function _checkOnERC721Received(address from, address to, uint256 tokenId, bytes memory data) private {... */\n    tag_262:\n        /* \"nftmarket_flattened.sol\":55545:55546  0 */\n      0x00\n        /* \"nftmarket_flattened.sol\":55528:55530  to */\n      dup4\n        /* \"nftmarket_flattened.sol\":55528:55542  to.code.length */\n      0xffffffffffffffffffffffffffffffffffffffff\n      and\n      extcodesize\n        /* \"nftmarket_flattened.sol\":55528:55546  to.code.length > 0 */\n      gt\n        /* \"nftmarket_flattened.sol\":55524:56188  if (to.code.length > 0) {... */\n      iszero\n      tag_332\n      jumpi\n        /* \"nftmarket_flattened.sol\":55582:55584  to */\n      dup3\n        /* \"nftmarket_flattened.sol\":55566:55602  IERC721Receiver(to).onERC721Received */\n      0xffffffffffffffffffffffffffffffffffffffff\n      and\n      0x150b7a02\n        /* \"nftmarket_flattened.sol\":55603:55615  _msgSender() */\n      tag_333\n        /* \"nftmarket_flattened.sol\":55603:55613  _msgSender */\n      tag_183\n        /* \"nftmarket_flattened.sol\":55603:55615  _msgSender() */\n      jump\t// in\n    tag_333:\n        /* \"nftmarket_flattened.sol\":55617:55621  from */\n      dup7\n        /* \"nftmarket_flattened.sol\":55623:55630  tokenId */\n      dup6\n        /* \"nftmarket_flattened.sol\":55632:55636  data */\n      dup6\n        /* \"nftmarket_flattened.sol\":55566:55637  IERC721Receiver(to).onERC721Received(_msgSender(), from, tokenId, data) */\n      mload(0x40)\n      dup6\n      0xffffffff\n      and\n      0xe0\n      shl\n      dup2\n      mstore\n      0x04\n      add\n      tag_334\n      swap5\n      swap4\n      swap3\n      swap2\n      swap1\n      tag_335\n      jump\t// in\n    tag_334:\n      0x20\n      mload(0x40)\n      dup1\n      dup4\n      sub\n      dup2\n      0x00\n      dup8\n      gas\n      call\n      swap3\n      pop\n      pop\n      pop\n      dup1\n      iszero\n      tag_336\n      jumpi\n      pop\n      mload(0x40)\n      returndatasize\n      not(0x1f)\n      0x1f\n      dup3\n      add\n      and\n      dup3\n      add\n      dup1\n      0x40\n      mstore\n      pop\n      dup2\n      add\n      swap1\n      tag_337\n      swap2\n      swap1\n      tag_338\n      jump\t// in\n    tag_337:\n      0x01\n    tag_336:\n        /* \"nftmarket_flattened.sol\":55562:56178  try IERC721Receiver(to).onERC721Received(_msgSender(), from, tokenId, data) returns (bytes4 retval) {... */\n      tag_339\n      jumpi\n      returndatasize\n      dup1\n      0x00\n      dup2\n      eq\n      tag_344\n      jumpi\n      mload(0x40)\n      swap2\n      pop\n      and(add(returndatasize, 0x3f), not(0x1f))\n      dup3\n      add\n      0x40\n      mstore\n      returndatasize\n      dup3\n      mstore\n      returndatasize\n      0x00\n      0x20\n      dup5\n      add\n      returndatacopy\n      jump(tag_343)\n    tag_344:\n      0x60\n      swap2\n      pop\n    tag_343:\n      pop\n        /* \"nftmarket_flattened.sol\":55892:55893  0 */\n      0x00\n        /* \"nftmarket_flattened.sol\":55875:55881  reason */\n      dup2\n        /* \"nftmarket_flattened.sol\":55875:55888  reason.length */\n      mload\n        /* \"nftmarket_flattened.sol\":55875:55893  reason.length == 0 */\n      sub\n        /* \"nftmarket_flattened.sol\":55871:56164  if (reason.length == 0) {... */\n      tag_345\n      jumpi\n        /* \"nftmarket_flattened.sol\":55946:55948  to */\n      dup4\n        /* \"nftmarket_flattened.sol\":55924:55949  ERC721InvalidReceiver(to) */\n      mload(0x40)\n      0x64a0ae9200000000000000000000000000000000000000000000000000000000\n      dup2\n      mstore\n      0x04\n      add\n      tag_346\n      swap2\n      swap1\n      tag_51\n      jump\t// in\n    tag_346:\n      mload(0x40)\n      dup1\n      swap2\n      sub\n      swap1\n      revert\n        /* \"nftmarket_flattened.sol\":55871:56164  if (reason.length == 0) {... */\n    tag_345:\n        /* \"nftmarket_flattened.sol\":56116:56122  reason */\n      dup1\n        /* \"nftmarket_flattened.sol\":56110:56123  mload(reason) */\n      mload\n        /* \"nftmarket_flattened.sol\":56101:56107  reason */\n      dup2\n        /* \"nftmarket_flattened.sol\":56097:56099  32 */\n      0x20\n        /* \"nftmarket_flattened.sol\":56093:56108  add(32, reason) */\n      add\n        /* \"nftmarket_flattened.sol\":56086:56124  revert(add(32, reason), mload(reason)) */\n      revert\n        /* \"nftmarket_flattened.sol\":55562:56178  try IERC721Receiver(to).onERC721Received(_msgSender(), from, tokenId, data) returns (bytes4 retval) {... */\n    tag_339:\n        /* \"nftmarket_flattened.sol\":55694:55735  IERC721Receiver.onERC721Received.selector */\n      shl(0xe0, 0x150b7a02)\n        /* \"nftmarket_flattened.sol\":55684:55735  retval != IERC721Receiver.onERC721Received.selector */\n      not(0xffffffffffffffffffffffffffffffffffffffffffffffffffffffff)\n      and\n        /* \"nftmarket_flattened.sol\":55684:55690  retval */\n      dup2\n        /* \"nftmarket_flattened.sol\":55684:55735  retval != IERC721Receiver.onERC721Received.selector */\n      not(0xffffffffffffffffffffffffffffffffffffffffffffffffffffffff)\n      and\n      eq\n        /* \"nftmarket_flattened.sol\":55680:55810  if (retval != IERC721Receiver.onERC721Received.selector) {... */\n      tag_349\n      jumpi\n        /* \"nftmarket_flattened.sol\":55788:55790  to */\n      dup4\n        /* \"nftmarket_flattened.sol\":55766:55791  ERC721InvalidReceiver(to) */\n      mload(0x40)\n      0x64a0ae9200000000000000000000000000000000000000000000000000000000\n      dup2\n      mstore\n      0x04\n      add\n      tag_350\n      swap2\n      swap1\n      tag_51\n      jump\t// in\n    tag_350:\n      mload(0x40)\n      dup1\n      swap2\n      sub\n      swap1\n      revert\n        /* \"nftmarket_flattened.sol\":55680:55810  if (retval != IERC721Receiver.onERC721Received.selector) {... */\n    tag_349:\n        /* \"nftmarket_flattened.sol\":55638:55824  returns (bytes4 retval) {... */\n      pop\n        /* \"nftmarket_flattened.sol\":55524:56188  if (to.code.length > 0) {... */\n    tag_332:\n        /* \"nftmarket_flattened.sol\":55412:56194  function _checkOnERC721Received(address from, address to, uint256 tokenId, bytes memory data) private {... */\n      pop\n      pop\n      pop\n      pop\n      jump\t// out\n        /* \"nftmarket_flattened.sol\":41668:41760  function _baseURI() internal view virtual returns (string memory) {... */\n    tag_271:\n        /* \"nftmarket_flattened.sol\":41719:41732  string memory */\n      0x60\n        /* \"nftmarket_flattened.sol\":41744:41753  return \"\" */\n      mload(0x40)\n      dup1\n      0x20\n      add\n      0x40\n      mstore\n      dup1\n      0x00\n      dup2\n      mstore\n      pop\n      swap1\n      pop\n        /* \"nftmarket_flattened.sol\":41668:41760  function _baseURI() internal view virtual returns (string memory) {... */\n      swap1\n      jump\t// out\n        /* \"nftmarket_flattened.sol\":41171:41426  function tokenURI(uint256 tokenId) public view virtual returns (string memory) {... */\n    tag_277:\n        /* \"nftmarket_flattened.sol\":41235:41248  string memory */\n      0x60\n        /* \"nftmarket_flattened.sol\":41260:41282  _requireOwned(tokenId) */\n      tag_353\n        /* \"nftmarket_flattened.sol\":41274:41281  tokenId */\n      dup3\n        /* \"nftmarket_flattened.sol\":41260:41273  _requireOwned */\n      tag_177\n        /* \"nftmarket_flattened.sol\":41260:41282  _requireOwned(tokenId) */\n      jump\t// in\n    tag_353:\n      pop\n        /* \"nftmarket_flattened.sol\":41293:41314  string memory baseURI */\n      0x00\n        /* \"nftmarket_flattened.sol\":41317:41327  _baseURI() */\n      tag_354\n        /* \"nftmarket_flattened.sol\":41317:41325  _baseURI */\n      tag_271\n        /* \"nftmarket_flattened.sol\":41317:41327  _baseURI() */\n      jump\t// in\n    tag_354:\n        /* \"nftmarket_flattened.sol\":41293:41327  string memory baseURI = _baseURI() */\n      swap1\n      pop\n        /* \"nftmarket_flattened.sol\":41368:41369  0 */\n      0x00\n        /* \"nftmarket_flattened.sol\":41350:41357  baseURI */\n      dup2\n        /* \"nftmarket_flattened.sol\":41344:41365  bytes(baseURI).length */\n      mload\n        /* \"nftmarket_flattened.sol\":41344:41369  bytes(baseURI).length > 0 */\n      gt\n        /* \"nftmarket_flattened.sol\":41344:41419  bytes(baseURI).length > 0 ? string.concat(baseURI, tokenId.toString()) : \"\" */\n      tag_355\n      jumpi\n      mload(0x40)\n      dup1\n      0x20\n      add\n      0x40\n      mstore\n      dup1\n      0x00\n      dup2\n      mstore\n      pop\n      jump(tag_356)\n    tag_355:\n        /* \"nftmarket_flattened.sol\":41386:41393  baseURI */\n      dup1\n        /* \"nftmarket_flattened.sol\":41395:41413  tokenId.toString() */\n      tag_357\n        /* \"nftmarket_flattened.sol\":41395:41402  tokenId */\n      dup5\n        /* \"nftmarket_flattened.sol\":41395:41411  tokenId.toString */\n      tag_358\n        /* \"nftmarket_flattened.sol\":41395:41413  tokenId.toString() */\n      jump\t// in\n    tag_357:\n        /* \"nftmarket_flattened.sol\":41372:41414  string.concat(baseURI, tokenId.toString()) */\n      add(0x20, mload(0x40))\n      tag_359\n      swap3\n      swap2\n      swap1\n      tag_275\n      jump\t// in\n    tag_359:\n      mload(0x40)\n      0x20\n      dup2\n      dup4\n      sub\n      sub\n      dup2\n      mstore\n      swap1\n      0x40\n      mstore\n        /* \"nftmarket_flattened.sol\":41344:41419  bytes(baseURI).length > 0 ? string.concat(baseURI, tokenId.toString()) : \"\" */\n    tag_356:\n        /* \"nftmarket_flattened.sol\":41337:41419  return bytes(baseURI).length > 0 ? string.concat(baseURI, tokenId.toString()) : \"\" */\n      swap2\n      pop\n      pop\n        /* \"nftmarket_flattened.sol\":41171:41426  function tokenURI(uint256 tokenId) public view virtual returns (string memory) {... */\n      swap2\n      swap1\n      pop\n      jump\t// out\n        /* \"nftmarket_flattened.sol\":32063:32209  function supportsInterface(bytes4 interfaceId) public view virtual returns (bool) {... */\n    tag_291:\n        /* \"nftmarket_flattened.sol\":32139:32143  bool */\n      0x00\n        /* \"nftmarket_flattened.sol\":32177:32202  type(IERC165).interfaceId */\n      0x01ffc9a700000000000000000000000000000000000000000000000000000000\n        /* \"nftmarket_flattened.sol\":32162:32202  interfaceId == type(IERC165).interfaceId */\n      not(0xffffffffffffffffffffffffffffffffffffffffffffffffffffffff)\n      and\n        /* \"nftmarket_flattened.sol\":32162:32173  interfaceId */\n      dup3\n        /* \"nftmarket_flattened.sol\":32162:32202  interfaceId == type(IERC165).interfaceId */\n      not(0xffffffffffffffffffffffffffffffffffffffffffffffffffffffff)\n      and\n      eq\n        /* \"nftmarket_flattened.sol\":32155:32202  return interfaceId == type(IERC165).interfaceId */\n      swap1\n      pop\n        /* \"nftmarket_flattened.sol\":32063:32209  function supportsInterface(bytes4 interfaceId) public view virtual returns (bool) {... */\n      swap2\n      swap1\n      pop\n      jump\t// out\n        /* \"nftmarket_flattened.sol\":44201:44316  function _ownerOf(uint256 tokenId) internal view virtual returns (address) {... */\n    tag_294:\n        /* \"nftmarket_flattened.sol\":44267:44274  address */\n      0x00\n        /* \"nftmarket_flattened.sol\":44293:44300  _owners */\n      0x02\n        /* \"nftmarket_flattened.sol\":44293:44309  _owners[tokenId] */\n      0x00\n        /* \"nftmarket_flattened.sol\":44301:44308  tokenId */\n      dup4\n        /* \"nftmarket_flattened.sol\":44293:44309  _owners[tokenId] */\n      dup2\n      mstore\n      0x20\n      add\n      swap1\n      dup2\n      mstore\n      0x20\n      add\n      0x00\n      keccak256\n      0x00\n      swap1\n      sload\n      swap1\n      0x0100\n      exp\n      swap1\n      div\n      0xffffffffffffffffffffffffffffffffffffffff\n      and\n        /* \"nftmarket_flattened.sol\":44286:44309  return _owners[tokenId] */\n      swap1\n      pop\n        /* \"nftmarket_flattened.sol\":44201:44316  function _ownerOf(uint256 tokenId) internal view virtual returns (address) {... */\n      swap2\n      swap1\n      pop\n      jump\t// out\n        /* \"nftmarket_flattened.sol\":53214:53876  function _approve(address to, uint256 tokenId, address auth, bool emitEvent) internal virtual {... */\n    tag_301:\n        /* \"nftmarket_flattened.sol\":53374:53383  emitEvent */\n      dup1\n        /* \"nftmarket_flattened.sol\":53374:53405  emitEvent || auth != address(0) */\n      dup1\n      tag_363\n      jumpi\n      pop\n        /* \"nftmarket_flattened.sol\":53403:53404  0 */\n      0x00\n        /* \"nftmarket_flattened.sol\":53387:53405  auth != address(0) */\n      0xffffffffffffffffffffffffffffffffffffffff\n      and\n        /* \"nftmarket_flattened.sol\":53387:53391  auth */\n      dup3\n        /* \"nftmarket_flattened.sol\":53387:53405  auth != address(0) */\n      0xffffffffffffffffffffffffffffffffffffffff\n      and\n      eq\n      iszero\n        /* \"nftmarket_flattened.sol\":53374:53405  emitEvent || auth != address(0) */\n    tag_363:\n        /* \"nftmarket_flattened.sol\":53370:53830  if (emitEvent || auth != address(0)) {... */\n      iszero\n      tag_364\n      jumpi\n        /* \"nftmarket_flattened.sol\":53421:53434  address owner */\n      0x00\n        /* \"nftmarket_flattened.sol\":53437:53459  _requireOwned(tokenId) */\n      tag_365\n        /* \"nftmarket_flattened.sol\":53451:53458  tokenId */\n      dup5\n        /* \"nftmarket_flattened.sol\":53437:53450  _requireOwned */\n      tag_177\n        /* \"nftmarket_flattened.sol\":53437:53459  _requireOwned(tokenId) */\n      jump\t// in\n    tag_365:\n        /* \"nftmarket_flattened.sol\":53421:53459  address owner = _requireOwned(tokenId) */\n      swap1\n      pop\n        /* \"nftmarket_flattened.sol\":53603:53604  0 */\n      0x00\n        /* \"nftmarket_flattened.sol\":53587:53605  auth != address(0) */\n      0xffffffffffffffffffffffffffffffffffffffff\n      and\n        /* \"nftmarket_flattened.sol\":53587:53591  auth */\n      dup4\n        /* \"nftmarket_flattened.sol\":53587:53605  auth != address(0) */\n      0xffffffffffffffffffffffffffffffffffffffff\n      and\n      eq\n      iszero\n        /* \"nftmarket_flattened.sol\":53587:53622  auth != address(0) && owner != auth */\n      dup1\n      iszero\n      tag_366\n      jumpi\n      pop\n        /* \"nftmarket_flattened.sol\":53618:53622  auth */\n      dup3\n        /* \"nftmarket_flattened.sol\":53609:53622  owner != auth */\n      0xffffffffffffffffffffffffffffffffffffffff\n      and\n        /* \"nftmarket_flattened.sol\":53609:53614  owner */\n      dup2\n        /* \"nftmarket_flattened.sol\":53609:53622  owner != auth */\n      0xffffffffffffffffffffffffffffffffffffffff\n      and\n      eq\n      iszero\n        /* \"nftmarket_flattened.sol\":53587:53622  auth != address(0) && owner != auth */\n    tag_366:\n        /* \"nftmarket_flattened.sol\":53587:53656  auth != address(0) && owner != auth && !isApprovedForAll(owner, auth) */\n      dup1\n      iszero\n      tag_367\n      jumpi\n      pop\n        /* \"nftmarket_flattened.sol\":53627:53656  isApprovedForAll(owner, auth) */\n      tag_368\n        /* \"nftmarket_flattened.sol\":53644:53649  owner */\n      dup2\n        /* \"nftmarket_flattened.sol\":53651:53655  auth */\n      dup5\n        /* \"nftmarket_flattened.sol\":53627:53643  isApprovedForAll */\n      tag_152\n        /* \"nftmarket_flattened.sol\":53627:53656  isApprovedForAll(owner, auth) */\n      jump\t// in\n    tag_368:\n        /* \"nftmarket_flattened.sol\":53626:53656  !isApprovedForAll(owner, auth) */\n      iszero\n        /* \"nftmarket_flattened.sol\":53587:53656  auth != address(0) && owner != auth && !isApprovedForAll(owner, auth) */\n    tag_367:\n        /* \"nftmarket_flattened.sol\":53583:53725  if (auth != address(0) && owner != auth && !isApprovedForAll(owner, auth)) {... */\n      iszero\n      tag_369\n      jumpi\n        /* \"nftmarket_flattened.sol\":53705:53709  auth */\n      dup3\n        /* \"nftmarket_flattened.sol\":53683:53710  ERC721InvalidApprover(auth) */\n      mload(0x40)\n      0xa9fbf51f00000000000000000000000000000000000000000000000000000000\n      dup2\n      mstore\n      0x04\n      add\n      tag_370\n      swap2\n      swap1\n      tag_51\n      jump\t// in\n    tag_370:\n      mload(0x40)\n      dup1\n      swap2\n      sub\n      swap1\n      revert\n        /* \"nftmarket_flattened.sol\":53583:53725  if (auth != address(0) && owner != auth && !isApprovedForAll(owner, auth)) {... */\n    tag_369:\n        /* \"nftmarket_flattened.sol\":53743:53752  emitEvent */\n      dup2\n        /* \"nftmarket_flattened.sol\":53739:53820  if (emitEvent) {... */\n      iszero\n      tag_371\n      jumpi\n        /* \"nftmarket_flattened.sol\":53797:53804  tokenId */\n      dup4\n        /* \"nftmarket_flattened.sol\":53793:53795  to */\n      dup6\n        /* \"nftmarket_flattened.sol\":53777:53805  Approval(owner, to, tokenId) */\n      0xffffffffffffffffffffffffffffffffffffffff\n      and\n        /* \"nftmarket_flattened.sol\":53786:53791  owner */\n      dup3\n        /* \"nftmarket_flattened.sol\":53777:53805  Approval(owner, to, tokenId) */\n      0xffffffffffffffffffffffffffffffffffffffff\n      and\n      0x8c5be1e5ebec7d5bd14f71427d1e84f3dd0314c0f7b2291e5b200ac8c7c3b925\n      mload(0x40)\n      mload(0x40)\n      dup1\n      swap2\n      sub\n      swap1\n      log4\n        /* \"nftmarket_flattened.sol\":53739:53820  if (emitEvent) {... */\n    tag_371:\n        /* \"nftmarket_flattened.sol\":53407:53830  {... */\n      pop\n        /* \"nftmarket_flattened.sol\":53370:53830  if (emitEvent || auth != address(0)) {... */\n    tag_364:\n        /* \"nftmarket_flattened.sol\":53867:53869  to */\n      dup4\n        /* \"nftmarket_flattened.sol\":53840:53855  _tokenApprovals */\n      0x04\n        /* \"nftmarket_flattened.sol\":53840:53864  _tokenApprovals[tokenId] */\n      0x00\n        /* \"nftmarket_flattened.sol\":53856:53863  tokenId */\n      dup6\n        /* \"nftmarket_flattened.sol\":53840:53864  _tokenApprovals[tokenId] */\n      dup2\n      mstore\n      0x20\n      add\n      swap1\n      dup2\n      mstore\n      0x20\n      add\n      0x00\n      keccak256\n      0x00\n        /* \"nftmarket_flattened.sol\":53840:53869  _tokenApprovals[tokenId] = to */\n      0x0100\n      exp\n      dup2\n      sload\n      dup2\n      0xffffffffffffffffffffffffffffffffffffffff\n      mul\n      not\n      and\n      swap1\n      dup4\n      0xffffffffffffffffffffffffffffffffffffffff\n      and\n      mul\n      or\n      swap1\n      sstore\n      pop\n        /* \"nftmarket_flattened.sol\":53214:53876  function _approve(address to, uint256 tokenId, address auth, bool emitEvent) internal virtual {... */\n      pop\n      pop\n      pop\n      pop\n      jump\t// out\n        /* \"nftmarket_flattened.sol\":45576:45944  function _checkAuthorized(address owner, address spender, uint256 tokenId) internal view virtual {... */\n    tag_306:\n        /* \"nftmarket_flattened.sol\":45688:45726  _isAuthorized(owner, spender, tokenId) */\n      tag_373\n        /* \"nftmarket_flattened.sol\":45702:45707  owner */\n      dup4\n        /* \"nftmarket_flattened.sol\":45709:45716  spender */\n      dup4\n        /* \"nftmarket_flattened.sol\":45718:45725  tokenId */\n      dup4\n        /* \"nftmarket_flattened.sol\":45688:45701  _isAuthorized */\n      tag_374\n        /* \"nftmarket_flattened.sol\":45688:45726  _isAuthorized(owner, spender, tokenId) */\n      jump\t// in\n    tag_373:\n        /* \"nftmarket_flattened.sol\":45683:45938  if (!_isAuthorized(owner, spender, tokenId)) {... */\n      tag_375\n      jumpi\n        /* \"nftmarket_flattened.sol\":45763:45764  0 */\n      0x00\n        /* \"nftmarket_flattened.sol\":45746:45765  owner == address(0) */\n      0xffffffffffffffffffffffffffffffffffffffff\n      and\n        /* \"nftmarket_flattened.sol\":45746:45751  owner */\n      dup4\n        /* \"nftmarket_flattened.sol\":45746:45765  owner == address(0) */\n      0xffffffffffffffffffffffffffffffffffffffff\n      and\n      sub\n        /* \"nftmarket_flattened.sol\":45742:45928  if (owner == address(0)) {... */\n      tag_376\n      jumpi\n        /* \"nftmarket_flattened.sol\":45815:45822  tokenId */\n      dup1\n        /* \"nftmarket_flattened.sol\":45792:45823  ERC721NonexistentToken(tokenId) */\n      mload(0x40)\n      0x7e27328900000000000000000000000000000000000000000000000000000000\n      dup2\n      mstore\n      0x04\n      add\n      tag_377\n      swap2\n      swap1\n      tag_78\n      jump\t// in\n    tag_377:\n      mload(0x40)\n      dup1\n      swap2\n      sub\n      swap1\n      revert\n        /* \"nftmarket_flattened.sol\":45742:45928  if (owner == address(0)) {... */\n    tag_376:\n        /* \"nftmarket_flattened.sol\":45896:45903  spender */\n      dup2\n        /* \"nftmarket_flattened.sol\":45905:45912  tokenId */\n      dup2\n        /* \"nftmarket_flattened.sol\":45869:45913  ERC721InsufficientApproval(spender, tokenId) */\n      mload(0x40)\n      0x177e802f00000000000000000000000000000000000000000000000000000000\n      dup2\n      mstore\n      0x04\n      add\n      tag_379\n      swap3\n      swap2\n      swap1\n      tag_67\n      jump\t// in\n    tag_379:\n      mload(0x40)\n      dup1\n      swap2\n      sub\n      swap1\n      revert\n        /* \"nftmarket_flattened.sol\":45683:45938  if (!_isAuthorized(owner, spender, tokenId)) {... */\n    tag_375:\n        /* \"nftmarket_flattened.sol\":45576:45944  function _checkAuthorized(address owner, address spender, uint256 tokenId) internal view virtual {... */\n      pop\n      pop\n      pop\n      jump\t// out\n        /* \"nftmarket_flattened.sol\":49448:49630  function _safeMint(address to, uint256 tokenId, bytes memory data) internal virtual {... */\n    tag_313:\n        /* \"nftmarket_flattened.sol\":49542:49560  _mint(to, tokenId) */\n      tag_381\n        /* \"nftmarket_flattened.sol\":49548:49550  to */\n      dup4\n        /* \"nftmarket_flattened.sol\":49552:49559  tokenId */\n      dup4\n        /* \"nftmarket_flattened.sol\":49542:49547  _mint */\n      tag_382\n        /* \"nftmarket_flattened.sol\":49542:49560  _mint(to, tokenId) */\n      jump\t// in\n    tag_381:\n        /* \"nftmarket_flattened.sol\":49570:49623  _checkOnERC721Received(address(0), to, tokenId, data) */\n      tag_383\n        /* \"nftmarket_flattened.sol\":49601:49602  0 */\n      0x00\n        /* \"nftmarket_flattened.sol\":49605:49607  to */\n      dup5\n        /* \"nftmarket_flattened.sol\":49609:49616  tokenId */\n      dup5\n        /* \"nftmarket_flattened.sol\":49618:49622  data */\n      dup5\n        /* \"nftmarket_flattened.sol\":49570:49592  _checkOnERC721Received */\n      tag_262\n        /* \"nftmarket_flattened.sol\":49570:49623  _checkOnERC721Received(address(0), to, tokenId, data) */\n      jump\t// in\n    tag_383:\n        /* \"nftmarket_flattened.sol\":49448:49630  function _safeMint(address to, uint256 tokenId, bytes memory data) internal virtual {... */\n      pop\n      pop\n      pop\n      jump\t// out\n        /* \"nftmarket_flattened.sol\":25025:25723  function toString(uint256 value) internal pure returns (string memory) {... */\n    tag_358:\n        /* \"nftmarket_flattened.sol\":25081:25094  string memory */\n      0x60\n        /* \"nftmarket_flattened.sol\":25130:25144  uint256 length */\n      0x00\n        /* \"nftmarket_flattened.sol\":25167:25168  1 */\n      0x01\n        /* \"nftmarket_flattened.sol\":25147:25164  Math.log10(value) */\n      tag_385\n        /* \"nftmarket_flattened.sol\":25158:25163  value */\n      dup5\n        /* \"nftmarket_flattened.sol\":25147:25157  Math.log10 */\n      tag_386\n        /* \"nftmarket_flattened.sol\":25147:25164  Math.log10(value) */\n      jump\t// in\n    tag_385:\n        /* \"nftmarket_flattened.sol\":25147:25168  Math.log10(value) + 1 */\n      add\n        /* \"nftmarket_flattened.sol\":25130:25168  uint256 length = Math.log10(value) + 1 */\n      swap1\n      pop\n        /* \"nftmarket_flattened.sol\":25182:25202  string memory buffer */\n      0x00\n        /* \"nftmarket_flattened.sol\":25216:25222  length */\n      dup2\n        /* \"nftmarket_flattened.sol\":25205:25223  new string(length) */\n      0xffffffffffffffff\n      dup2\n      gt\n      iszero\n      tag_387\n      jumpi\n      tag_388\n      tag_389\n      jump\t// in\n    tag_388:\n    tag_387:\n      mload(0x40)\n      swap1\n      dup1\n      dup3\n      mstore\n      dup1\n      0x1f\n      add\n      not(0x1f)\n      and\n      0x20\n      add\n      dup3\n      add\n      0x40\n      mstore\n      dup1\n      iszero\n      tag_390\n      jumpi\n      dup2\n      0x20\n      add\n      0x01\n      dup3\n      mul\n      dup1\n      calldatasize\n      dup4\n      calldatacopy\n      dup1\n      dup3\n      add\n      swap2\n      pop\n      pop\n      swap1\n      pop\n    tag_390:\n      pop\n        /* \"nftmarket_flattened.sol\":25182:25223  string memory buffer = new string(length) */\n      swap1\n      pop\n        /* \"nftmarket_flattened.sol\":25237:25248  uint256 ptr */\n      0x00\n        /* \"nftmarket_flattened.sol\":25363:25369  length */\n      dup3\n        /* \"nftmarket_flattened.sol\":25359:25361  32 */\n      0x20\n        /* \"nftmarket_flattened.sol\":25355:25370  add(32, length) */\n      add\n        /* \"nftmarket_flattened.sol\":25347:25353  buffer */\n      dup3\n        /* \"nftmarket_flattened.sol\":25343:25371  add(buffer, add(32, length)) */\n      add\n        /* \"nftmarket_flattened.sol\":25336:25371  ptr := add(buffer, add(32, length)) */\n      swap1\n      pop\n        /* \"nftmarket_flattened.sol\":25398:25680  while (true) {... */\n    tag_391:\n        /* \"nftmarket_flattened.sol\":25405:25409  true */\n      0x01\n        /* \"nftmarket_flattened.sol\":25398:25680  while (true) {... */\n      iszero\n      tag_392\n      jumpi\n        /* \"nftmarket_flattened.sol\":25429:25434  ptr-- */\n      dup1\n      dup1\n      0x01\n      swap1\n      sub\n      swap2\n      pop\n      pop\n        /* \"nftmarket_flattened.sol\":25568:25578  HEX_DIGITS */\n      0x3031323334353637383961626364656600000000000000000000000000000000\n        /* \"nftmarket_flattened.sol\":25563:25565  10 */\n      0x0a\n        /* \"nftmarket_flattened.sol\":25556:25561  value */\n      dup7\n        /* \"nftmarket_flattened.sol\":25552:25566  mod(value, 10) */\n      mod\n        /* \"nftmarket_flattened.sol\":25547:25579  byte(mod(value, 10), HEX_DIGITS) */\n      byte\n        /* \"nftmarket_flattened.sol\":25542:25545  ptr */\n      dup2\n        /* \"nftmarket_flattened.sol\":25534:25580  mstore8(ptr, byte(mod(value, 10), HEX_DIGITS)) */\n      mstore8\n        /* \"nftmarket_flattened.sol\":25624:25626  10 */\n      0x0a\n        /* \"nftmarket_flattened.sol\":25615:25626  value /= 10 */\n      dup6\n      dup2\n      tag_393\n      jumpi\n      tag_394\n      tag_395\n      jump\t// in\n    tag_394:\n    tag_393:\n      div\n      swap5\n      pop\n        /* \"nftmarket_flattened.sol\":25657:25658  0 */\n      0x00\n        /* \"nftmarket_flattened.sol\":25648:25653  value */\n      dup6\n        /* \"nftmarket_flattened.sol\":25648:25658  value == 0 */\n      sub\n        /* \"nftmarket_flattened.sol\":25398:25680  while (true) {... */\n      tag_391\n        /* \"nftmarket_flattened.sol\":25644:25665  if (value == 0) break */\n      jumpi\n        /* \"nftmarket_flattened.sol\":25398:25680  while (true) {... */\n    tag_392:\n        /* \"nftmarket_flattened.sol\":25700:25706  buffer */\n      dup2\n        /* \"nftmarket_flattened.sol\":25693:25706  return buffer */\n      swap4\n      pop\n      pop\n      pop\n      pop\n        /* \"nftmarket_flattened.sol\":25025:25723  function toString(uint256 value) internal pure returns (string memory) {... */\n      swap2\n      swap1\n      pop\n      jump\t// out\n        /* \"nftmarket_flattened.sol\":44870:45142  function _isAuthorized(address owner, address spender, uint256 tokenId) internal view virtual returns (bool) {... */\n    tag_374:\n        /* \"nftmarket_flattened.sol\":44973:44977  bool */\n      0x00\n        /* \"nftmarket_flattened.sol\":45027:45028  0 */\n      dup1\n        /* \"nftmarket_flattened.sol\":45008:45029  spender != address(0) */\n      0xffffffffffffffffffffffffffffffffffffffff\n      and\n        /* \"nftmarket_flattened.sol\":45008:45015  spender */\n      dup4\n        /* \"nftmarket_flattened.sol\":45008:45029  spender != address(0) */\n      0xffffffffffffffffffffffffffffffffffffffff\n      and\n      eq\n      iszero\n        /* \"nftmarket_flattened.sol\":45008:45135  spender != address(0) &&... */\n      dup1\n      iszero\n      tag_398\n      jumpi\n      pop\n        /* \"nftmarket_flattened.sol\":45055:45062  spender */\n      dup3\n        /* \"nftmarket_flattened.sol\":45046:45062  owner == spender */\n      0xffffffffffffffffffffffffffffffffffffffff\n      and\n        /* \"nftmarket_flattened.sol\":45046:45051  owner */\n      dup5\n        /* \"nftmarket_flattened.sol\":45046:45062  owner == spender */\n      0xffffffffffffffffffffffffffffffffffffffff\n      and\n      eq\n        /* \"nftmarket_flattened.sol\":45046:45098  owner == spender || isApprovedForAll(owner, spender) */\n      dup1\n      tag_399\n      jumpi\n      pop\n        /* \"nftmarket_flattened.sol\":45066:45098  isApprovedForAll(owner, spender) */\n      tag_400\n        /* \"nftmarket_flattened.sol\":45083:45088  owner */\n      dup5\n        /* \"nftmarket_flattened.sol\":45090:45097  spender */\n      dup5\n        /* \"nftmarket_flattened.sol\":45066:45082  isApprovedForAll */\n      tag_152\n        /* \"nftmarket_flattened.sol\":45066:45098  isApprovedForAll(owner, spender) */\n      jump\t// in\n    tag_400:\n        /* \"nftmarket_flattened.sol\":45046:45098  owner == spender || isApprovedForAll(owner, spender) */\n    tag_399:\n        /* \"nftmarket_flattened.sol\":45046:45134  owner == spender || isApprovedForAll(owner, spender) || _getApproved(tokenId) == spender */\n      dup1\n      tag_401\n      jumpi\n      pop\n        /* \"nftmarket_flattened.sol\":45127:45134  spender */\n      dup3\n        /* \"nftmarket_flattened.sol\":45102:45134  _getApproved(tokenId) == spender */\n      0xffffffffffffffffffffffffffffffffffffffff\n      and\n        /* \"nftmarket_flattened.sol\":45102:45123  _getApproved(tokenId) */\n      tag_402\n        /* \"nftmarket_flattened.sol\":45115:45122  tokenId */\n      dup4\n        /* \"nftmarket_flattened.sol\":45102:45114  _getApproved */\n      tag_179\n        /* \"nftmarket_flattened.sol\":45102:45123  _getApproved(tokenId) */\n      jump\t// in\n    tag_402:\n        /* \"nftmarket_flattened.sol\":45102:45134  _getApproved(tokenId) == spender */\n      0xffffffffffffffffffffffffffffffffffffffff\n      and\n      eq\n        /* \"nftmarket_flattened.sol\":45046:45134  owner == spender || isApprovedForAll(owner, spender) || _getApproved(tokenId) == spender */\n    tag_401:\n        /* \"nftmarket_flattened.sol\":45008:45135  spender != address(0) &&... */\n    tag_398:\n        /* \"nftmarket_flattened.sol\":44989:45135  return... */\n      swap1\n      pop\n        /* \"nftmarket_flattened.sol\":44870:45142  function _isAuthorized(address owner, address spender, uint256 tokenId) internal view virtual returns (bool) {... */\n      swap4\n      swap3\n      pop\n      pop\n      pop\n      jump\t// out\n        /* \"nftmarket_flattened.sol\":48449:48776  function _mint(address to, uint256 tokenId) internal {... */\n    tag_382:\n        /* \"nftmarket_flattened.sol\":48530:48531  0 */\n      0x00\n        /* \"nftmarket_flattened.sol\":48516:48532  to == address(0) */\n      0xffffffffffffffffffffffffffffffffffffffff\n      and\n        /* \"nftmarket_flattened.sol\":48516:48518  to */\n      dup3\n        /* \"nftmarket_flattened.sol\":48516:48532  to == address(0) */\n      0xffffffffffffffffffffffffffffffffffffffff\n      and\n      sub\n        /* \"nftmarket_flattened.sol\":48512:48599  if (to == address(0)) {... */\n      tag_404\n      jumpi\n        /* \"nftmarket_flattened.sol\":48585:48586  0 */\n      0x00\n        /* \"nftmarket_flattened.sol\":48555:48588  ERC721InvalidReceiver(address(0)) */\n      mload(0x40)\n      0x64a0ae9200000000000000000000000000000000000000000000000000000000\n      dup2\n      mstore\n      0x04\n      add\n      tag_405\n      swap2\n      swap1\n      tag_51\n      jump\t// in\n    tag_405:\n      mload(0x40)\n      dup1\n      swap2\n      sub\n      swap1\n      revert\n        /* \"nftmarket_flattened.sol\":48512:48599  if (to == address(0)) {... */\n    tag_404:\n        /* \"nftmarket_flattened.sol\":48608:48629  address previousOwner */\n      0x00\n        /* \"nftmarket_flattened.sol\":48632:48664  _update(to, tokenId, address(0)) */\n      tag_406\n        /* \"nftmarket_flattened.sol\":48640:48642  to */\n      dup4\n        /* \"nftmarket_flattened.sol\":48644:48651  tokenId */\n      dup4\n        /* \"nftmarket_flattened.sol\":48661:48662  0 */\n      0x00\n        /* \"nftmarket_flattened.sol\":48632:48639  _update */\n      tag_190\n        /* \"nftmarket_flattened.sol\":48632:48664  _update(to, tokenId, address(0)) */\n      jump\t// in\n    tag_406:\n        /* \"nftmarket_flattened.sol\":48608:48664  address previousOwner = _update(to, tokenId, address(0)) */\n      swap1\n      pop\n        /* \"nftmarket_flattened.sol\":48703:48704  0 */\n      0x00\n        /* \"nftmarket_flattened.sol\":48678:48705  previousOwner != address(0) */\n      0xffffffffffffffffffffffffffffffffffffffff\n      and\n        /* \"nftmarket_flattened.sol\":48678:48691  previousOwner */\n      dup2\n        /* \"nftmarket_flattened.sol\":48678:48705  previousOwner != address(0) */\n      0xffffffffffffffffffffffffffffffffffffffff\n      and\n      eq\n        /* \"nftmarket_flattened.sol\":48674:48770  if (previousOwner != address(0)) {... */\n      tag_407\n      jumpi\n        /* \"nftmarket_flattened.sol\":48756:48757  0 */\n      0x00\n        /* \"nftmarket_flattened.sol\":48728:48759  ERC721InvalidSender(address(0)) */\n      mload(0x40)\n      0x73c6ac6e00000000000000000000000000000000000000000000000000000000\n      dup2\n      mstore\n      0x04\n      add\n      tag_408\n      swap2\n      swap1\n      tag_51\n      jump\t// in\n    tag_408:\n      mload(0x40)\n      dup1\n      swap2\n      sub\n      swap1\n      revert\n        /* \"nftmarket_flattened.sol\":48674:48770  if (previousOwner != address(0)) {... */\n    tag_407:\n        /* \"nftmarket_flattened.sol\":48502:48776  {... */\n      pop\n        /* \"nftmarket_flattened.sol\":48449:48776  function _mint(address to, uint256 tokenId) internal {... */\n      pop\n      pop\n      jump\t// out\n        /* \"nftmarket_flattened.sol\":21549:22465  function log10(uint256 value) internal pure returns (uint256) {... */\n    tag_386:\n        /* \"nftmarket_flattened.sol\":21602:21609  uint256 */\n      0x00\n        /* \"nftmarket_flattened.sol\":21621:21635  uint256 result */\n      dup1\n        /* \"nftmarket_flattened.sol\":21638:21639  0 */\n      0x00\n        /* \"nftmarket_flattened.sol\":21621:21639  uint256 result = 0 */\n      swap1\n      pop\n        /* \"nftmarket_flattened.sol\":21686:21694  10 ** 64 */\n      0x184f03e93ff9f4daa797ed6e38ed64bf6a1f010000000000000000\n        /* \"nftmarket_flattened.sol\":21677:21682  value */\n      dup4\n        /* \"nftmarket_flattened.sol\":21677:21694  value >= 10 ** 64 */\n      lt\n        /* \"nftmarket_flattened.sol\":21673:21776  if (value >= 10 ** 64) {... */\n      tag_410\n      jumpi\n        /* \"nftmarket_flattened.sol\":21723:21731  10 ** 64 */\n      0x184f03e93ff9f4daa797ed6e38ed64bf6a1f010000000000000000\n        /* \"nftmarket_flattened.sol\":21714:21731  value /= 10 ** 64 */\n      dup4\n      dup2\n      tag_411\n      jumpi\n      tag_412\n      tag_395\n      jump\t// in\n    tag_412:\n    tag_411:\n      div\n      swap3\n      pop\n        /* \"nftmarket_flattened.sol\":21759:21761  64 */\n      0x40\n        /* \"nftmarket_flattened.sol\":21749:21761  result += 64 */\n      dup2\n      add\n      swap1\n      pop\n        /* \"nftmarket_flattened.sol\":21673:21776  if (value >= 10 ** 64) {... */\n    tag_410:\n        /* \"nftmarket_flattened.sol\":21802:21810  10 ** 32 */\n      0x04ee2d6d415b85acef8100000000\n        /* \"nftmarket_flattened.sol\":21793:21798  value */\n      dup4\n        /* \"nftmarket_flattened.sol\":21793:21810  value >= 10 ** 32 */\n      lt\n        /* \"nftmarket_flattened.sol\":21789:21892  if (value >= 10 ** 32) {... */\n      tag_413\n      jumpi\n        /* \"nftmarket_flattened.sol\":21839:21847  10 ** 32 */\n      0x04ee2d6d415b85acef8100000000\n        /* \"nftmarket_flattened.sol\":21830:21847  value /= 10 ** 32 */\n      dup4\n      dup2\n      tag_414\n      jumpi\n      tag_415\n      tag_395\n      jump\t// in\n    tag_415:\n    tag_414:\n      div\n      swap3\n      pop\n        /* \"nftmarket_flattened.sol\":21875:21877  32 */\n      0x20\n        /* \"nftmarket_flattened.sol\":21865:21877  result += 32 */\n      dup2\n      add\n      swap1\n      pop\n        /* \"nftmarket_flattened.sol\":21789:21892  if (value >= 10 ** 32) {... */\n    tag_413:\n        /* \"nftmarket_flattened.sol\":21918:21926  10 ** 16 */\n      0x2386f26fc10000\n        /* \"nftmarket_flattened.sol\":21909:21914  value */\n      dup4\n        /* \"nftmarket_flattened.sol\":21909:21926  value >= 10 ** 16 */\n      lt\n        /* \"nftmarket_flattened.sol\":21905:22008  if (value >= 10 ** 16) {... */\n      tag_416\n      jumpi\n        /* \"nftmarket_flattened.sol\":21955:21963  10 ** 16 */\n      0x2386f26fc10000\n        /* \"nftmarket_flattened.sol\":21946:21963  value /= 10 ** 16 */\n      dup4\n      dup2\n      tag_417\n      jumpi\n      tag_418\n      tag_395\n      jump\t// in\n    tag_418:\n    tag_417:\n      div\n      swap3\n      pop\n        /* \"nftmarket_flattened.sol\":21991:21993  16 */\n      0x10\n        /* \"nftmarket_flattened.sol\":21981:21993  result += 16 */\n      dup2\n      add\n      swap1\n      pop\n        /* \"nftmarket_flattened.sol\":21905:22008  if (value >= 10 ** 16) {... */\n    tag_416:\n        /* \"nftmarket_flattened.sol\":22034:22041  10 ** 8 */\n      0x05f5e100\n        /* \"nftmarket_flattened.sol\":22025:22030  value */\n      dup4\n        /* \"nftmarket_flattened.sol\":22025:22041  value >= 10 ** 8 */\n      lt\n        /* \"nftmarket_flattened.sol\":22021:22121  if (value >= 10 ** 8) {... */\n      tag_419\n      jumpi\n        /* \"nftmarket_flattened.sol\":22070:22077  10 ** 8 */\n      0x05f5e100\n        /* \"nftmarket_flattened.sol\":22061:22077  value /= 10 ** 8 */\n      dup4\n      dup2\n      tag_420\n      jumpi\n      tag_421\n      tag_395\n      jump\t// in\n    tag_421:\n    tag_420:\n      div\n      swap3\n      pop\n        /* \"nftmarket_flattened.sol\":22105:22106  8 */\n      0x08\n        /* \"nftmarket_flattened.sol\":22095:22106  result += 8 */\n      dup2\n      add\n      swap1\n      pop\n        /* \"nftmarket_flattened.sol\":22021:22121  if (value >= 10 ** 8) {... */\n    tag_419:\n        /* \"nftmarket_flattened.sol\":22147:22154  10 ** 4 */\n      0x2710\n        /* \"nftmarket_flattened.sol\":22138:22143  value */\n      dup4\n        /* \"nftmarket_flattened.sol\":22138:22154  value >= 10 ** 4 */\n      lt\n        /* \"nftmarket_flattened.sol\":22134:22234  if (value >= 10 ** 4) {... */\n      tag_422\n      jumpi\n        /* \"nftmarket_flattened.sol\":22183:22190  10 ** 4 */\n      0x2710\n        /* \"nftmarket_flattened.sol\":22174:22190  value /= 10 ** 4 */\n      dup4\n      dup2\n      tag_423\n      jumpi\n      tag_424\n      tag_395\n      jump\t// in\n    tag_424:\n    tag_423:\n      div\n      swap3\n      pop\n        /* \"nftmarket_flattened.sol\":22218:22219  4 */\n      0x04\n        /* \"nftmarket_flattened.sol\":22208:22219  result += 4 */\n      dup2\n      add\n      swap1\n      pop\n        /* \"nftmarket_flattened.sol\":22134:22234  if (value >= 10 ** 4) {... */\n    tag_422:\n        /* \"nftmarket_flattened.sol\":22260:22267  10 ** 2 */\n      0x64\n        /* \"nftmarket_flattened.sol\":22251:22256  value */\n      dup4\n        /* \"nftmarket_flattened.sol\":22251:22267  value >= 10 ** 2 */\n      lt\n        /* \"nftmarket_flattened.sol\":22247:22347  if (value >= 10 ** 2) {... */\n      tag_425\n      jumpi\n        /* \"nftmarket_flattened.sol\":22296:22303  10 ** 2 */\n      0x64\n        /* \"nftmarket_flattened.sol\":22287:22303  value /= 10 ** 2 */\n      dup4\n      dup2\n      tag_426\n      jumpi\n      tag_427\n      tag_395\n      jump\t// in\n    tag_427:\n    tag_426:\n      div\n      swap3\n      pop\n        /* \"nftmarket_flattened.sol\":22331:22332  2 */\n      0x02\n        /* \"nftmarket_flattened.sol\":22321:22332  result += 2 */\n      dup2\n      add\n      swap1\n      pop\n        /* \"nftmarket_flattened.sol\":22247:22347  if (value >= 10 ** 2) {... */\n    tag_425:\n        /* \"nftmarket_flattened.sol\":22373:22380  10 ** 1 */\n      0x0a\n        /* \"nftmarket_flattened.sol\":22364:22369  value */\n      dup4\n        /* \"nftmarket_flattened.sol\":22364:22380  value >= 10 ** 1 */\n      lt\n        /* \"nftmarket_flattened.sol\":22360:22426  if (value >= 10 ** 1) {... */\n      tag_428\n      jumpi\n        /* \"nftmarket_flattened.sol\":22410:22411  1 */\n      0x01\n        /* \"nftmarket_flattened.sol\":22400:22411  result += 1 */\n      dup2\n      add\n      swap1\n      pop\n        /* \"nftmarket_flattened.sol\":22360:22426  if (value >= 10 ** 1) {... */\n    tag_428:\n        /* \"nftmarket_flattened.sol\":22452:22458  result */\n      dup1\n        /* \"nftmarket_flattened.sol\":22445:22458  return result */\n      swap2\n      pop\n      pop\n        /* \"nftmarket_flattened.sol\":21549:22465  function log10(uint256 value) internal pure returns (uint256) {... */\n      swap2\n      swap1\n      pop\n      jump\t// out\n        /* \"#utility.yul\":7:82   */\n    tag_429:\n        /* \"#utility.yul\":40:46   */\n      0x00\n        /* \"#utility.yul\":73:75   */\n      0x40\n        /* \"#utility.yul\":67:76   */\n      mload\n        /* \"#utility.yul\":57:76   */\n      swap1\n      pop\n        /* \"#utility.yul\":7:82   */\n      swap1\n      jump\t// out\n        /* \"#utility.yul\":88:205   */\n    tag_430:\n        /* \"#utility.yul\":197:198   */\n      0x00\n        /* \"#utility.yul\":194:195   */\n      dup1\n        /* \"#utility.yul\":187:199   */\n      revert\n        /* \"#utility.yul\":211:328   */\n    tag_431:\n        /* \"#utility.yul\":320:321   */\n      0x00\n        /* \"#utility.yul\":317:318   */\n      dup1\n        /* \"#utility.yul\":310:322   */\n      revert\n        /* \"#utility.yul\":334:483   */\n    tag_432:\n        /* \"#utility.yul\":370:377   */\n      0x00\n        /* \"#utility.yul\":410:476   */\n      0xffffffff00000000000000000000000000000000000000000000000000000000\n        /* \"#utility.yul\":403:408   */\n      dup3\n        /* \"#utility.yul\":399:477   */\n      and\n        /* \"#utility.yul\":388:477   */\n      swap1\n      pop\n        /* \"#utility.yul\":334:483   */\n      swap2\n      swap1\n      pop\n      jump\t// out\n        /* \"#utility.yul\":489:609   */\n    tag_433:\n        /* \"#utility.yul\":561:584   */\n      tag_501\n        /* \"#utility.yul\":578:583   */\n      dup2\n        /* \"#utility.yul\":561:584   */\n      tag_432\n      jump\t// in\n    tag_501:\n        /* \"#utility.yul\":554:559   */\n      dup2\n        /* \"#utility.yul\":551:585   */\n      eq\n        /* \"#utility.yul\":541:603   */\n      tag_502\n      jumpi\n        /* \"#utility.yul\":599:600   */\n      0x00\n        /* \"#utility.yul\":596:597   */\n      dup1\n        /* \"#utility.yul\":589:601   */\n      revert\n        /* \"#utility.yul\":541:603   */\n    tag_502:\n        /* \"#utility.yul\":489:609   */\n      pop\n      jump\t// out\n        /* \"#utility.yul\":615:752   */\n    tag_434:\n        /* \"#utility.yul\":660:665   */\n      0x00\n        /* \"#utility.yul\":698:704   */\n      dup2\n        /* \"#utility.yul\":685:705   */\n      calldataload\n        /* \"#utility.yul\":676:705   */\n      swap1\n      pop\n        /* \"#utility.yul\":714:746   */\n      tag_504\n        /* \"#utility.yul\":740:745   */\n      dup2\n        /* \"#utility.yul\":714:746   */\n      tag_433\n      jump\t// in\n    tag_504:\n        /* \"#utility.yul\":615:752   */\n      swap3\n      swap2\n      pop\n      pop\n      jump\t// out\n        /* \"#utility.yul\":758:1085   */\n    tag_36:\n        /* \"#utility.yul\":816:822   */\n      0x00\n        /* \"#utility.yul\":865:867   */\n      0x20\n        /* \"#utility.yul\":853:862   */\n      dup3\n        /* \"#utility.yul\":844:851   */\n      dup5\n        /* \"#utility.yul\":840:863   */\n      sub\n        /* \"#utility.yul\":836:868   */\n      slt\n        /* \"#utility.yul\":833:952   */\n      iszero\n      tag_506\n      jumpi\n        /* \"#utility.yul\":871:950   */\n      tag_507\n      tag_430\n      jump\t// in\n    tag_507:\n        /* \"#utility.yul\":833:952   */\n    tag_506:\n        /* \"#utility.yul\":991:992   */\n      0x00\n        /* \"#utility.yul\":1016:1068   */\n      tag_508\n        /* \"#utility.yul\":1060:1067   */\n      dup5\n        /* \"#utility.yul\":1051:1057   */\n      dup3\n        /* \"#utility.yul\":1040:1049   */\n      dup6\n        /* \"#utility.yul\":1036:1058   */\n      add\n        /* \"#utility.yul\":1016:1068   */\n      tag_434\n      jump\t// in\n    tag_508:\n        /* \"#utility.yul\":1006:1068   */\n      swap2\n      pop\n        /* \"#utility.yul\":962:1078   */\n      pop\n        /* \"#utility.yul\":758:1085   */\n      swap3\n      swap2\n      pop\n      pop\n      jump\t// out\n        /* \"#utility.yul\":1091:1181   */\n    tag_435:\n        /* \"#utility.yul\":1125:1132   */\n      0x00\n        /* \"#utility.yul\":1168:1173   */\n      dup2\n        /* \"#utility.yul\":1161:1174   */\n      iszero\n        /* \"#utility.yul\":1154:1175   */\n      iszero\n        /* \"#utility.yul\":1143:1175   */\n      swap1\n      pop\n        /* \"#utility.yul\":1091:1181   */\n      swap2\n      swap1\n      pop\n      jump\t// out\n        /* \"#utility.yul\":1187:1296   */\n    tag_436:\n        /* \"#utility.yul\":1268:1289   */\n      tag_511\n        /* \"#utility.yul\":1283:1288   */\n      dup2\n        /* \"#utility.yul\":1268:1289   */\n      tag_435\n      jump\t// in\n    tag_511:\n        /* \"#utility.yul\":1263:1266   */\n      dup3\n        /* \"#utility.yul\":1256:1290   */\n      mstore\n        /* \"#utility.yul\":1187:1296   */\n      pop\n      pop\n      jump\t// out\n        /* \"#utility.yul\":1302:1512   */\n    tag_39:\n        /* \"#utility.yul\":1389:1393   */\n      0x00\n        /* \"#utility.yul\":1427:1429   */\n      0x20\n        /* \"#utility.yul\":1416:1425   */\n      dup3\n        /* \"#utility.yul\":1412:1430   */\n      add\n        /* \"#utility.yul\":1404:1430   */\n      swap1\n      pop\n        /* \"#utility.yul\":1440:1505   */\n      tag_513\n        /* \"#utility.yul\":1502:1503   */\n      0x00\n        /* \"#utility.yul\":1491:1500   */\n      dup4\n        /* \"#utility.yul\":1487:1504   */\n      add\n        /* \"#utility.yul\":1478:1484   */\n      dup5\n        /* \"#utility.yul\":1440:1505   */\n      tag_436\n      jump\t// in\n    tag_513:\n        /* \"#utility.yul\":1302:1512   */\n      swap3\n      swap2\n      pop\n      pop\n      jump\t// out\n        /* \"#utility.yul\":1518:1617   */\n    tag_437:\n        /* \"#utility.yul\":1570:1576   */\n      0x00\n        /* \"#utility.yul\":1604:1609   */\n      dup2\n        /* \"#utility.yul\":1598:1610   */\n      mload\n        /* \"#utility.yul\":1588:1610   */\n      swap1\n      pop\n        /* \"#utility.yul\":1518:1617   */\n      swap2\n      swap1\n      pop\n      jump\t// out\n        /* \"#utility.yul\":1623:1792   */\n    tag_438:\n        /* \"#utility.yul\":1707:1718   */\n      0x00\n        /* \"#utility.yul\":1741:1747   */\n      dup3\n        /* \"#utility.yul\":1736:1739   */\n      dup3\n        /* \"#utility.yul\":1729:1748   */\n      mstore\n        /* \"#utility.yul\":1781:1785   */\n      0x20\n        /* \"#utility.yul\":1776:1779   */\n      dup3\n        /* \"#utility.yul\":1772:1786   */\n      add\n        /* \"#utility.yul\":1757:1786   */\n      swap1\n      pop\n        /* \"#utility.yul\":1623:1792   */\n      swap3\n      swap2\n      pop\n      pop\n      jump\t// out\n        /* \"#utility.yul\":1798:2044   */\n    tag_439:\n        /* \"#utility.yul\":1879:1880   */\n      0x00\n        /* \"#utility.yul\":1889:2002   */\n    tag_517:\n        /* \"#utility.yul\":1903:1909   */\n      dup4\n        /* \"#utility.yul\":1900:1901   */\n      dup2\n        /* \"#utility.yul\":1897:1910   */\n      lt\n        /* \"#utility.yul\":1889:2002   */\n      iszero\n      tag_519\n      jumpi\n        /* \"#utility.yul\":1988:1989   */\n      dup1\n        /* \"#utility.yul\":1983:1986   */\n      dup3\n        /* \"#utility.yul\":1979:1990   */\n      add\n        /* \"#utility.yul\":1973:1991   */\n      mload\n        /* \"#utility.yul\":1969:1970   */\n      dup2\n        /* \"#utility.yul\":1964:1967   */\n      dup5\n        /* \"#utility.yul\":1960:1971   */\n      add\n        /* \"#utility.yul\":1953:1992   */\n      mstore\n        /* \"#utility.yul\":1925:1927   */\n      0x20\n        /* \"#utility.yul\":1922:1923   */\n      dup2\n        /* \"#utility.yul\":1918:1928   */\n      add\n        /* \"#utility.yul\":1913:1928   */\n      swap1\n      pop\n        /* \"#utility.yul\":1889:2002   */\n      jump(tag_517)\n    tag_519:\n        /* \"#utility.yul\":2036:2037   */\n      0x00\n        /* \"#utility.yul\":2027:2033   */\n      dup5\n        /* \"#utility.yul\":2022:2025   */\n      dup5\n        /* \"#utility.yul\":2018:2034   */\n      add\n        /* \"#utility.yul\":2011:2038   */\n      mstore\n        /* \"#utility.yul\":1860:2044   */\n      pop\n        /* \"#utility.yul\":1798:2044   */\n      pop\n      pop\n      pop\n      jump\t// out\n        /* \"#utility.yul\":2050:2152   */\n    tag_440:\n        /* \"#utility.yul\":2091:2097   */\n      0x00\n        /* \"#utility.yul\":2142:2144   */\n      0x1f\n        /* \"#utility.yul\":2138:2145   */\n      not\n        /* \"#utility.yul\":2133:2135   */\n      0x1f\n        /* \"#utility.yul\":2126:2131   */\n      dup4\n        /* \"#utility.yul\":2122:2136   */\n      add\n        /* \"#utility.yul\":2118:2146   */\n      and\n        /* \"#utility.yul\":2108:2146   */\n      swap1\n      pop\n        /* \"#utility.yul\":2050:2152   */\n      swap2\n      swap1\n      pop\n      jump\t// out\n        /* \"#utility.yul\":2158:2535   */\n    tag_441:\n        /* \"#utility.yul\":2246:2249   */\n      0x00\n        /* \"#utility.yul\":2274:2313   */\n      tag_522\n        /* \"#utility.yul\":2307:2312   */\n      dup3\n        /* \"#utility.yul\":2274:2313   */\n      tag_437\n      jump\t// in\n    tag_522:\n        /* \"#utility.yul\":2329:2400   */\n      tag_523\n        /* \"#utility.yul\":2393:2399   */\n      dup2\n        /* \"#utility.yul\":2388:2391   */\n      dup6\n        /* \"#utility.yul\":2329:2400   */\n      tag_438\n      jump\t// in\n    tag_523:\n        /* \"#utility.yul\":2322:2400   */\n      swap4\n      pop\n        /* \"#utility.yul\":2409:2474   */\n      tag_524\n        /* \"#utility.yul\":2467:2473   */\n      dup2\n        /* \"#utility.yul\":2462:2465   */\n      dup6\n        /* \"#utility.yul\":2455:2459   */\n      0x20\n        /* \"#utility.yul\":2448:2453   */\n      dup7\n        /* \"#utility.yul\":2444:2460   */\n      add\n        /* \"#utility.yul\":2409:2474   */\n      tag_439\n      jump\t// in\n    tag_524:\n        /* \"#utility.yul\":2499:2528   */\n      tag_525\n        /* \"#utility.yul\":2521:2527   */\n      dup2\n        /* \"#utility.yul\":2499:2528   */\n      tag_440\n      jump\t// in\n    tag_525:\n        /* \"#utility.yul\":2494:2497   */\n      dup5\n        /* \"#utility.yul\":2490:2529   */\n      add\n        /* \"#utility.yul\":2483:2529   */\n      swap2\n      pop\n        /* \"#utility.yul\":2250:2535   */\n      pop\n        /* \"#utility.yul\":2158:2535   */\n      swap3\n      swap2\n      pop\n      pop\n      jump\t// out\n        /* \"#utility.yul\":2541:2854   */\n    tag_44:\n        /* \"#utility.yul\":2654:2658   */\n      0x00\n        /* \"#utility.yul\":2692:2694   */\n      0x20\n        /* \"#utility.yul\":2681:2690   */\n      dup3\n        /* \"#utility.yul\":2677:2695   */\n      add\n        /* \"#utility.yul\":2669:2695   */\n      swap1\n      pop\n        /* \"#utility.yul\":2741:2750   */\n      dup2\n        /* \"#utility.yul\":2735:2739   */\n      dup2\n        /* \"#utility.yul\":2731:2751   */\n      sub\n        /* \"#utility.yul\":2727:2728   */\n      0x00\n        /* \"#utility.yul\":2716:2725   */\n      dup4\n        /* \"#utility.yul\":2712:2729   */\n      add\n        /* \"#utility.yul\":2705:2752   */\n      mstore\n        /* \"#utility.yul\":2769:2847   */\n      tag_527\n        /* \"#utility.yul\":2842:2846   */\n      dup2\n        /* \"#utility.yul\":2833:2839   */\n      dup5\n        /* \"#utility.yul\":2769:2847   */\n      tag_441\n      jump\t// in\n    tag_527:\n        /* \"#utility.yul\":2761:2847   */\n      swap1\n      pop\n        /* \"#utility.yul\":2541:2854   */\n      swap3\n      swap2\n      pop\n      pop\n      jump\t// out\n        /* \"#utility.yul\":2860:2937   */\n    tag_442:\n        /* \"#utility.yul\":2897:2904   */\n      0x00\n        /* \"#utility.yul\":2926:2931   */\n      dup2\n        /* \"#utility.yul\":2915:2931   */\n      swap1\n      pop\n        /* \"#utility.yul\":2860:2937   */\n      swap2\n      swap1\n      pop\n      jump\t// out\n        /* \"#utility.yul\":2943:3065   */\n    tag_443:\n        /* \"#utility.yul\":3016:3040   */\n      tag_530\n        /* \"#utility.yul\":3034:3039   */\n      dup2\n        /* \"#utility.yul\":3016:3040   */\n      tag_442\n      jump\t// in\n    tag_530:\n        /* \"#utility.yul\":3009:3014   */\n      dup2\n        /* \"#utility.yul\":3006:3041   */\n      eq\n        /* \"#utility.yul\":2996:3059   */\n      tag_531\n      jumpi\n        /* \"#utility.yul\":3055:3056   */\n      0x00\n        /* \"#utility.yul\":3052:3053   */\n      dup1\n        /* \"#utility.yul\":3045:3057   */\n      revert\n        /* \"#utility.yul\":2996:3059   */\n    tag_531:\n        /* \"#utility.yul\":2943:3065   */\n      pop\n      jump\t// out\n        /* \"#utility.yul\":3071:3210   */\n    tag_444:\n        /* \"#utility.yul\":3117:3122   */\n      0x00\n        /* \"#utility.yul\":3155:3161   */\n      dup2\n        /* \"#utility.yul\":3142:3162   */\n      calldataload\n        /* \"#utility.yul\":3133:3162   */\n      swap1\n      pop\n        /* \"#utility.yul\":3171:3204   */\n      tag_533\n        /* \"#utility.yul\":3198:3203   */\n      dup2\n        /* \"#utility.yul\":3171:3204   */\n      tag_443\n      jump\t// in\n    tag_533:\n        /* \"#utility.yul\":3071:3210   */\n      swap3\n      swap2\n      pop\n      pop\n      jump\t// out\n        /* \"#utility.yul\":3216:3545   */\n    tag_48:\n        /* \"#utility.yul\":3275:3281   */\n      0x00\n        /* \"#utility.yul\":3324:3326   */\n      0x20\n        /* \"#utility.yul\":3312:3321   */\n      dup3\n        /* \"#utility.yul\":3303:3310   */\n      dup5\n        /* \"#utility.yul\":3299:3322   */\n      sub\n        /* \"#utility.yul\":3295:3327   */\n      slt\n        /* \"#utility.yul\":3292:3411   */\n      iszero\n      tag_535\n      jumpi\n        /* \"#utility.yul\":3330:3409   */\n      tag_536\n      tag_430\n      jump\t// in\n    tag_536:\n        /* \"#utility.yul\":3292:3411   */\n    tag_535:\n        /* \"#utility.yul\":3450:3451   */\n      0x00\n        /* \"#utility.yul\":3475:3528   */\n      tag_537\n        /* \"#utility.yul\":3520:3527   */\n      dup5\n        /* \"#utility.yul\":3511:3517   */\n      dup3\n        /* \"#utility.yul\":3500:3509   */\n      dup6\n        /* \"#utility.yul\":3496:3518   */\n      add\n        /* \"#utility.yul\":3475:3528   */\n      tag_444\n      jump\t// in\n    tag_537:\n        /* \"#utility.yul\":3465:3528   */\n      swap2\n      pop\n        /* \"#utility.yul\":3421:3538   */\n      pop\n        /* \"#utility.yul\":3216:3545   */\n      swap3\n      swap2\n      pop\n      pop\n      jump\t// out\n        /* \"#utility.yul\":3551:3677   */\n    tag_445:\n        /* \"#utility.yul\":3588:3595   */\n      0x00\n        /* \"#utility.yul\":3628:3670   */\n      0xffffffffffffffffffffffffffffffffffffffff\n        /* \"#utility.yul\":3621:3626   */\n      dup3\n        /* \"#utility.yul\":3617:3671   */\n      and\n        /* \"#utility.yul\":3606:3671   */\n      swap1\n      pop\n        /* \"#utility.yul\":3551:3677   */\n      swap2\n      swap1\n      pop\n      jump\t// out\n        /* \"#utility.yul\":3683:3779   */\n    tag_446:\n        /* \"#utility.yul\":3720:3727   */\n      0x00\n        /* \"#utility.yul\":3749:3773   */\n      tag_540\n        /* \"#utility.yul\":3767:3772   */\n      dup3\n        /* \"#utility.yul\":3749:3773   */\n      tag_445\n      jump\t// in\n    tag_540:\n        /* \"#utility.yul\":3738:3773   */\n      swap1\n      pop\n        /* \"#utility.yul\":3683:3779   */\n      swap2\n      swap1\n      pop\n      jump\t// out\n        /* \"#utility.yul\":3785:3903   */\n    tag_447:\n        /* \"#utility.yul\":3872:3896   */\n      tag_542\n        /* \"#utility.yul\":3890:3895   */\n      dup2\n        /* \"#utility.yul\":3872:3896   */\n      tag_446\n      jump\t// in\n    tag_542:\n        /* \"#utility.yul\":3867:3870   */\n      dup3\n        /* \"#utility.yul\":3860:3897   */\n      mstore\n        /* \"#utility.yul\":3785:3903   */\n      pop\n      pop\n      jump\t// out\n        /* \"#utility.yul\":3909:4131   */\n    tag_51:\n        /* \"#utility.yul\":4002:4006   */\n      0x00\n        /* \"#utility.yul\":4040:4042   */\n      0x20\n        /* \"#utility.yul\":4029:4038   */\n      dup3\n        /* \"#utility.yul\":4025:4043   */\n      add\n        /* \"#utility.yul\":4017:4043   */\n      swap1\n      pop\n        /* \"#utility.yul\":4053:4124   */\n      tag_544\n        /* \"#utility.yul\":4121:4122   */\n      0x00\n        /* \"#utility.yul\":4110:4119   */\n      dup4\n        /* \"#utility.yul\":4106:4123   */\n      add\n        /* \"#utility.yul\":4097:4103   */\n      dup5\n        /* \"#utility.yul\":4053:4124   */\n      tag_447\n      jump\t// in\n    tag_544:\n        /* \"#utility.yul\":3909:4131   */\n      swap3\n      swap2\n      pop\n      pop\n      jump\t// out\n        /* \"#utility.yul\":4137:4259   */\n    tag_448:\n        /* \"#utility.yul\":4210:4234   */\n      tag_546\n        /* \"#utility.yul\":4228:4233   */\n      dup2\n        /* \"#utility.yul\":4210:4234   */\n      tag_446\n      jump\t// in\n    tag_546:\n        /* \"#utility.yul\":4203:4208   */\n      dup2\n        /* \"#utility.yul\":4200:4235   */\n      eq\n        /* \"#utility.yul\":4190:4253   */\n      tag_547\n      jumpi\n        /* \"#utility.yul\":4249:4250   */\n      0x00\n        /* \"#utility.yul\":4246:4247   */\n      dup1\n        /* \"#utility.yul\":4239:4251   */\n      revert\n        /* \"#utility.yul\":4190:4253   */\n    tag_547:\n        /* \"#utility.yul\":4137:4259   */\n      pop\n      jump\t// out\n        /* \"#utility.yul\":4265:4404   */\n    tag_449:\n        /* \"#utility.yul\":4311:4316   */\n      0x00\n        /* \"#utility.yul\":4349:4355   */\n      dup2\n        /* \"#utility.yul\":4336:4356   */\n      calldataload\n        /* \"#utility.yul\":4327:4356   */\n      swap1\n      pop\n        /* \"#utility.yul\":4365:4398   */\n      tag_549\n        /* \"#utility.yul\":4392:4397   */\n      dup2\n        /* \"#utility.yul\":4365:4398   */\n      tag_448\n      jump\t// in\n    tag_549:\n        /* \"#utility.yul\":4265:4404   */\n      swap3\n      swap2\n      pop\n      pop\n      jump\t// out\n        /* \"#utility.yul\":4410:4884   */\n    tag_55:\n        /* \"#utility.yul\":4478:4484   */\n      0x00\n        /* \"#utility.yul\":4486:4492   */\n      dup1\n        /* \"#utility.yul\":4535:4537   */\n      0x40\n        /* \"#utility.yul\":4523:4532   */\n      dup4\n        /* \"#utility.yul\":4514:4521   */\n      dup6\n        /* \"#utility.yul\":4510:4533   */\n      sub\n        /* \"#utility.yul\":4506:4538   */\n      slt\n        /* \"#utility.yul\":4503:4622   */\n      iszero\n      tag_551\n      jumpi\n        /* \"#utility.yul\":4541:4620   */\n      tag_552\n      tag_430\n      jump\t// in\n    tag_552:\n        /* \"#utility.yul\":4503:4622   */\n    tag_551:\n        /* \"#utility.yul\":4661:4662   */\n      0x00\n        /* \"#utility.yul\":4686:4739   */\n      tag_553\n        /* \"#utility.yul\":4731:4738   */\n      dup6\n        /* \"#utility.yul\":4722:4728   */\n      dup3\n        /* \"#utility.yul\":4711:4720   */\n      dup7\n        /* \"#utility.yul\":4707:4729   */\n      add\n        /* \"#utility.yul\":4686:4739   */\n      tag_449\n      jump\t// in\n    tag_553:\n        /* \"#utility.yul\":4676:4739   */\n      swap3\n      pop\n        /* \"#utility.yul\":4632:4749   */\n      pop\n        /* \"#utility.yul\":4788:4790   */\n      0x20\n        /* \"#utility.yul\":4814:4867   */\n      tag_554\n        /* \"#utility.yul\":4859:4866   */\n      dup6\n        /* \"#utility.yul\":4850:4856   */\n      dup3\n        /* \"#utility.yul\":4839:4848   */\n      dup7\n        /* \"#utility.yul\":4835:4857   */\n      add\n        /* \"#utility.yul\":4814:4867   */\n      tag_444\n      jump\t// in\n    tag_554:\n        /* \"#utility.yul\":4804:4867   */\n      swap2\n      pop\n        /* \"#utility.yul\":4759:4877   */\n      pop\n        /* \"#utility.yul\":4410:4884   */\n      swap3\n      pop\n      swap3\n      swap1\n      pop\n      jump\t// out\n        /* \"#utility.yul\":4890:5509   */\n    tag_60:\n        /* \"#utility.yul\":4967:4973   */\n      0x00\n        /* \"#utility.yul\":4975:4981   */\n      dup1\n        /* \"#utility.yul\":4983:4989   */\n      0x00\n        /* \"#utility.yul\":5032:5034   */\n      0x60\n        /* \"#utility.yul\":5020:5029   */\n      dup5\n        /* \"#utility.yul\":5011:5018   */\n      dup7\n        /* \"#utility.yul\":5007:5030   */\n      sub\n        /* \"#utility.yul\":5003:5035   */\n      slt\n        /* \"#utility.yul\":5000:5119   */\n      iszero\n      tag_556\n      jumpi\n        /* \"#utility.yul\":5038:5117   */\n      tag_557\n      tag_430\n      jump\t// in\n    tag_557:\n        /* \"#utility.yul\":5000:5119   */\n    tag_556:\n        /* \"#utility.yul\":5158:5159   */\n      0x00\n        /* \"#utility.yul\":5183:5236   */\n      tag_558\n        /* \"#utility.yul\":5228:5235   */\n      dup7\n        /* \"#utility.yul\":5219:5225   */\n      dup3\n        /* \"#utility.yul\":5208:5217   */\n      dup8\n        /* \"#utility.yul\":5204:5226   */\n      add\n        /* \"#utility.yul\":5183:5236   */\n      tag_449\n      jump\t// in\n    tag_558:\n        /* \"#utility.yul\":5173:5236   */\n      swap4\n      pop\n        /* \"#utility.yul\":5129:5246   */\n      pop\n        /* \"#utility.yul\":5285:5287   */\n      0x20\n        /* \"#utility.yul\":5311:5364   */\n      tag_559\n        /* \"#utility.yul\":5356:5363   */\n      dup7\n        /* \"#utility.yul\":5347:5353   */\n      dup3\n        /* \"#utility.yul\":5336:5345   */\n      dup8\n        /* \"#utility.yul\":5332:5354   */\n      add\n        /* \"#utility.yul\":5311:5364   */\n      tag_449\n      jump\t// in\n    tag_559:\n        /* \"#utility.yul\":5301:5364   */\n      swap3\n      pop\n        /* \"#utility.yul\":5256:5374   */\n      pop\n        /* \"#utility.yul\":5413:5415   */\n      0x40\n        /* \"#utility.yul\":5439:5492   */\n      tag_560\n        /* \"#utility.yul\":5484:5491   */\n      dup7\n        /* \"#utility.yul\":5475:5481   */\n      dup3\n        /* \"#utility.yul\":5464:5473   */\n      dup8\n        /* \"#utility.yul\":5460:5482   */\n      add\n        /* \"#utility.yul\":5439:5492   */\n      tag_444\n      jump\t// in\n    tag_560:\n        /* \"#utility.yul\":5429:5492   */\n      swap2\n      pop\n        /* \"#utility.yul\":5384:5502   */\n      pop\n        /* \"#utility.yul\":4890:5509   */\n      swap3\n      pop\n      swap3\n      pop\n      swap3\n      jump\t// out\n        /* \"#utility.yul\":5515:5633   */\n    tag_450:\n        /* \"#utility.yul\":5602:5626   */\n      tag_562\n        /* \"#utility.yul\":5620:5625   */\n      dup2\n        /* \"#utility.yul\":5602:5626   */\n      tag_442\n      jump\t// in\n    tag_562:\n        /* \"#utility.yul\":5597:5600   */\n      dup3\n        /* \"#utility.yul\":5590:5627   */\n      mstore\n        /* \"#utility.yul\":5515:5633   */\n      pop\n      pop\n      jump\t// out\n        /* \"#utility.yul\":5639:5971   */\n    tag_67:\n        /* \"#utility.yul\":5760:5764   */\n      0x00\n        /* \"#utility.yul\":5798:5800   */\n      0x40\n        /* \"#utility.yul\":5787:5796   */\n      dup3\n        /* \"#utility.yul\":5783:5801   */\n      add\n        /* \"#utility.yul\":5775:5801   */\n      swap1\n      pop\n        /* \"#utility.yul\":5811:5882   */\n      tag_564\n        /* \"#utility.yul\":5879:5880   */\n      0x00\n        /* \"#utility.yul\":5868:5877   */\n      dup4\n        /* \"#utility.yul\":5864:5881   */\n      add\n        /* \"#utility.yul\":5855:5861   */\n      dup6\n        /* \"#utility.yul\":5811:5882   */\n      tag_447\n      jump\t// in\n    tag_564:\n        /* \"#utility.yul\":5892:5964   */\n      tag_565\n        /* \"#utility.yul\":5960:5962   */\n      0x20\n        /* \"#utility.yul\":5949:5958   */\n      dup4\n        /* \"#utility.yul\":5945:5963   */\n      add\n        /* \"#utility.yul\":5936:5942   */\n      dup5\n        /* \"#utility.yul\":5892:5964   */\n      tag_450\n      jump\t// in\n    tag_565:\n        /* \"#utility.yul\":5639:5971   */\n      swap4\n      swap3\n      pop\n      pop\n      pop\n      jump\t// out\n        /* \"#utility.yul\":5977:6451   */\n    tag_71:\n        /* \"#utility.yul\":6045:6051   */\n      0x00\n        /* \"#utility.yul\":6053:6059   */\n      dup1\n        /* \"#utility.yul\":6102:6104   */\n      0x40\n        /* \"#utility.yul\":6090:6099   */\n      dup4\n        /* \"#utility.yul\":6081:6088   */\n      dup6\n        /* \"#utility.yul\":6077:6100   */\n      sub\n        /* \"#utility.yul\":6073:6105   */\n      slt\n        /* \"#utility.yul\":6070:6189   */\n      iszero\n      tag_567\n      jumpi\n        /* \"#utility.yul\":6108:6187   */\n      tag_568\n      tag_430\n      jump\t// in\n    tag_568:\n        /* \"#utility.yul\":6070:6189   */\n    tag_567:\n        /* \"#utility.yul\":6228:6229   */\n      0x00\n        /* \"#utility.yul\":6253:6306   */\n      tag_569\n        /* \"#utility.yul\":6298:6305   */\n      dup6\n        /* \"#utility.yul\":6289:6295   */\n      dup3\n        /* \"#utility.yul\":6278:6287   */\n      dup7\n        /* \"#utility.yul\":6274:6296   */\n      add\n        /* \"#utility.yul\":6253:6306   */\n      tag_444\n      jump\t// in\n    tag_569:\n        /* \"#utility.yul\":6243:6306   */\n      swap3\n      pop\n        /* \"#utility.yul\":6199:6316   */\n      pop\n        /* \"#utility.yul\":6355:6357   */\n      0x20\n        /* \"#utility.yul\":6381:6434   */\n      tag_570\n        /* \"#utility.yul\":6426:6433   */\n      dup6\n        /* \"#utility.yul\":6417:6423   */\n      dup3\n        /* \"#utility.yul\":6406:6415   */\n      dup7\n        /* \"#utility.yul\":6402:6424   */\n      add\n        /* \"#utility.yul\":6381:6434   */\n      tag_444\n      jump\t// in\n    tag_570:\n        /* \"#utility.yul\":6371:6434   */\n      swap2\n      pop\n        /* \"#utility.yul\":6326:6444   */\n      pop\n        /* \"#utility.yul\":5977:6451   */\n      swap3\n      pop\n      swap3\n      swap1\n      pop\n      jump\t// out\n        /* \"#utility.yul\":6457:6679   */\n    tag_78:\n        /* \"#utility.yul\":6550:6554   */\n      0x00\n        /* \"#utility.yul\":6588:6590   */\n      0x20\n        /* \"#utility.yul\":6577:6586   */\n      dup3\n        /* \"#utility.yul\":6573:6591   */\n      add\n        /* \"#utility.yul\":6565:6591   */\n      swap1\n      pop\n        /* \"#utility.yul\":6601:6672   */\n      tag_572\n        /* \"#utility.yul\":6669:6670   */\n      0x00\n        /* \"#utility.yul\":6658:6667   */\n      dup4\n        /* \"#utility.yul\":6654:6671   */\n      add\n        /* \"#utility.yul\":6645:6651   */\n      dup5\n        /* \"#utility.yul\":6601:6672   */\n      tag_450\n      jump\t// in\n    tag_572:\n        /* \"#utility.yul\":6457:6679   */\n      swap3\n      swap2\n      pop\n      pop\n      jump\t// out\n        /* \"#utility.yul\":6685:6802   */\n    tag_451:\n        /* \"#utility.yul\":6794:6795   */\n      0x00\n        /* \"#utility.yul\":6791:6792   */\n      dup1\n        /* \"#utility.yul\":6784:6796   */\n      revert\n        /* \"#utility.yul\":6808:6925   */\n    tag_452:\n        /* \"#utility.yul\":6917:6918   */\n      0x00\n        /* \"#utility.yul\":6914:6915   */\n      dup1\n        /* \"#utility.yul\":6907:6919   */\n      revert\n        /* \"#utility.yul\":6931:7111   */\n    tag_389:\n        /* \"#utility.yul\":6979:7056   */\n      0x4e487b7100000000000000000000000000000000000000000000000000000000\n        /* \"#utility.yul\":6976:6977   */\n      0x00\n        /* \"#utility.yul\":6969:7057   */\n      mstore\n        /* \"#utility.yul\":7076:7080   */\n      0x41\n        /* \"#utility.yul\":7073:7074   */\n      0x04\n        /* \"#utility.yul\":7066:7081   */\n      mstore\n        /* \"#utility.yul\":7100:7104   */\n      0x24\n        /* \"#utility.yul\":7097:7098   */\n      0x00\n        /* \"#utility.yul\":7090:7105   */\n      revert\n        /* \"#utility.yul\":7117:7398   */\n    tag_453:\n        /* \"#utility.yul\":7200:7227   */\n      tag_577\n        /* \"#utility.yul\":7222:7226   */\n      dup3\n        /* \"#utility.yul\":7200:7227   */\n      tag_440\n      jump\t// in\n    tag_577:\n        /* \"#utility.yul\":7192:7198   */\n      dup2\n        /* \"#utility.yul\":7188:7228   */\n      add\n        /* \"#utility.yul\":7330:7336   */\n      dup2\n        /* \"#utility.yul\":7318:7328   */\n      dup2\n        /* \"#utility.yul\":7315:7337   */\n      lt\n        /* \"#utility.yul\":7294:7312   */\n      0xffffffffffffffff\n        /* \"#utility.yul\":7282:7292   */\n      dup3\n        /* \"#utility.yul\":7279:7313   */\n      gt\n        /* \"#utility.yul\":7276:7338   */\n      or\n        /* \"#utility.yul\":7273:7361   */\n      iszero\n      tag_578\n      jumpi\n        /* \"#utility.yul\":7341:7359   */\n      tag_579\n      tag_389\n      jump\t// in\n    tag_579:\n        /* \"#utility.yul\":7273:7361   */\n    tag_578:\n        /* \"#utility.yul\":7381:7391   */\n      dup1\n        /* \"#utility.yul\":7377:7379   */\n      0x40\n        /* \"#utility.yul\":7370:7392   */\n      mstore\n        /* \"#utility.yul\":7160:7398   */\n      pop\n        /* \"#utility.yul\":7117:7398   */\n      pop\n      pop\n      jump\t// out\n        /* \"#utility.yul\":7404:7533   */\n    tag_454:\n        /* \"#utility.yul\":7438:7444   */\n      0x00\n        /* \"#utility.yul\":7465:7485   */\n      tag_581\n      tag_429\n      jump\t// in\n    tag_581:\n        /* \"#utility.yul\":7455:7485   */\n      swap1\n      pop\n        /* \"#utility.yul\":7494:7527   */\n      tag_582\n        /* \"#utility.yul\":7522:7526   */\n      dup3\n        /* \"#utility.yul\":7514:7520   */\n      dup3\n        /* \"#utility.yul\":7494:7527   */\n      tag_453\n      jump\t// in\n    tag_582:\n        /* \"#utility.yul\":7404:7533   */\n      swap2\n      swap1\n      pop\n      jump\t// out\n        /* \"#utility.yul\":7539:7847   */\n    tag_455:\n        /* \"#utility.yul\":7601:7605   */\n      0x00\n        /* \"#utility.yul\":7691:7709   */\n      0xffffffffffffffff\n        /* \"#utility.yul\":7683:7689   */\n      dup3\n        /* \"#utility.yul\":7680:7710   */\n      gt\n        /* \"#utility.yul\":7677:7733   */\n      iszero\n      tag_584\n      jumpi\n        /* \"#utility.yul\":7713:7731   */\n      tag_585\n      tag_389\n      jump\t// in\n    tag_585:\n        /* \"#utility.yul\":7677:7733   */\n    tag_584:\n        /* \"#utility.yul\":7751:7780   */\n      tag_586\n        /* \"#utility.yul\":7773:7779   */\n      dup3\n        /* \"#utility.yul\":7751:7780   */\n      tag_440\n      jump\t// in\n    tag_586:\n        /* \"#utility.yul\":7743:7780   */\n      swap1\n      pop\n        /* \"#utility.yul\":7835:7839   */\n      0x20\n        /* \"#utility.yul\":7829:7833   */\n      dup2\n        /* \"#utility.yul\":7825:7840   */\n      add\n        /* \"#utility.yul\":7817:7840   */\n      swap1\n      pop\n        /* \"#utility.yul\":7539:7847   */\n      swap2\n      swap1\n      pop\n      jump\t// out\n        /* \"#utility.yul\":7853:7999   */\n    tag_456:\n        /* \"#utility.yul\":7950:7956   */\n      dup3\n        /* \"#utility.yul\":7945:7948   */\n      dup2\n        /* \"#utility.yul\":7940:7943   */\n      dup4\n        /* \"#utility.yul\":7927:7957   */\n      calldatacopy\n        /* \"#utility.yul\":7991:7992   */\n      0x00\n        /* \"#utility.yul\":7982:7988   */\n      dup4\n        /* \"#utility.yul\":7977:7980   */\n      dup4\n        /* \"#utility.yul\":7973:7989   */\n      add\n        /* \"#utility.yul\":7966:7993   */\n      mstore\n        /* \"#utility.yul\":7853:7999   */\n      pop\n      pop\n      pop\n      jump\t// out\n        /* \"#utility.yul\":8005:8430   */\n    tag_457:\n        /* \"#utility.yul\":8083:8088   */\n      0x00\n        /* \"#utility.yul\":8108:8174   */\n      tag_589\n        /* \"#utility.yul\":8124:8173   */\n      tag_590\n        /* \"#utility.yul\":8166:8172   */\n      dup5\n        /* \"#utility.yul\":8124:8173   */\n      tag_455\n      jump\t// in\n    tag_590:\n        /* \"#utility.yul\":8108:8174   */\n      tag_454\n      jump\t// in\n    tag_589:\n        /* \"#utility.yul\":8099:8174   */\n      swap1\n      pop\n        /* \"#utility.yul\":8197:8203   */\n      dup3\n        /* \"#utility.yul\":8190:8195   */\n      dup2\n        /* \"#utility.yul\":8183:8204   */\n      mstore\n        /* \"#utility.yul\":8235:8239   */\n      0x20\n        /* \"#utility.yul\":8228:8233   */\n      dup2\n        /* \"#utility.yul\":8224:8240   */\n      add\n        /* \"#utility.yul\":8273:8276   */\n      dup5\n        /* \"#utility.yul\":8264:8270   */\n      dup5\n        /* \"#utility.yul\":8259:8262   */\n      dup5\n        /* \"#utility.yul\":8255:8271   */\n      add\n        /* \"#utility.yul\":8252:8277   */\n      gt\n        /* \"#utility.yul\":8249:8361   */\n      iszero\n      tag_591\n      jumpi\n        /* \"#utility.yul\":8280:8359   */\n      tag_592\n      tag_452\n      jump\t// in\n    tag_592:\n        /* \"#utility.yul\":8249:8361   */\n    tag_591:\n        /* \"#utility.yul\":8370:8424   */\n      tag_593\n        /* \"#utility.yul\":8417:8423   */\n      dup5\n        /* \"#utility.yul\":8412:8415   */\n      dup3\n        /* \"#utility.yul\":8407:8410   */\n      dup6\n        /* \"#utility.yul\":8370:8424   */\n      tag_456\n      jump\t// in\n    tag_593:\n        /* \"#utility.yul\":8089:8430   */\n      pop\n        /* \"#utility.yul\":8005:8430   */\n      swap4\n      swap3\n      pop\n      pop\n      pop\n      jump\t// out\n        /* \"#utility.yul\":8450:8790   */\n    tag_458:\n        /* \"#utility.yul\":8506:8511   */\n      0x00\n        /* \"#utility.yul\":8555:8558   */\n      dup3\n        /* \"#utility.yul\":8548:8552   */\n      0x1f\n        /* \"#utility.yul\":8540:8546   */\n      dup4\n        /* \"#utility.yul\":8536:8553   */\n      add\n        /* \"#utility.yul\":8532:8559   */\n      slt\n        /* \"#utility.yul\":8522:8644   */\n      tag_595\n      jumpi\n        /* \"#utility.yul\":8563:8642   */\n      tag_596\n      tag_451\n      jump\t// in\n    tag_596:\n        /* \"#utility.yul\":8522:8644   */\n    tag_595:\n        /* \"#utility.yul\":8680:8686   */\n      dup2\n        /* \"#utility.yul\":8667:8687   */\n      calldataload\n        /* \"#utility.yul\":8705:8784   */\n      tag_597\n        /* \"#utility.yul\":8780:8783   */\n      dup5\n        /* \"#utility.yul\":8772:8778   */\n      dup3\n        /* \"#utility.yul\":8765:8769   */\n      0x20\n        /* \"#utility.yul\":8757:8763   */\n      dup7\n        /* \"#utility.yul\":8753:8770   */\n      add\n        /* \"#utility.yul\":8705:8784   */\n      tag_457\n      jump\t// in\n    tag_597:\n        /* \"#utility.yul\":8696:8784   */\n      swap2\n      pop\n        /* \"#utility.yul\":8512:8790   */\n      pop\n        /* \"#utility.yul\":8450:8790   */\n      swap3\n      swap2\n      pop\n      pop\n      jump\t// out\n        /* \"#utility.yul\":8796:9305   */\n    tag_86:\n        /* \"#utility.yul\":8865:8871   */\n      0x00\n        /* \"#utility.yul\":8914:8916   */\n      0x20\n        /* \"#utility.yul\":8902:8911   */\n      dup3\n        /* \"#utility.yul\":8893:8900   */\n      dup5\n        /* \"#utility.yul\":8889:8912   */\n      sub\n        /* \"#utility.yul\":8885:8917   */\n      slt\n        /* \"#utility.yul\":8882:9001   */\n      iszero\n      tag_599\n      jumpi\n        /* \"#utility.yul\":8920:8999   */\n      tag_600\n      tag_430\n      jump\t// in\n    tag_600:\n        /* \"#utility.yul\":8882:9001   */\n    tag_599:\n        /* \"#utility.yul\":9068:9069   */\n      0x00\n        /* \"#utility.yul\":9057:9066   */\n      dup3\n        /* \"#utility.yul\":9053:9070   */\n      add\n        /* \"#utility.yul\":9040:9071   */\n      calldataload\n        /* \"#utility.yul\":9098:9116   */\n      0xffffffffffffffff\n        /* \"#utility.yul\":9090:9096   */\n      dup2\n        /* \"#utility.yul\":9087:9117   */\n      gt\n        /* \"#utility.yul\":9084:9201   */\n      iszero\n      tag_601\n      jumpi\n        /* \"#utility.yul\":9120:9199   */\n      tag_602\n      tag_431\n      jump\t// in\n    tag_602:\n        /* \"#utility.yul\":9084:9201   */\n    tag_601:\n        /* \"#utility.yul\":9225:9288   */\n      tag_603\n        /* \"#utility.yul\":9280:9287   */\n      dup5\n        /* \"#utility.yul\":9271:9277   */\n      dup3\n        /* \"#utility.yul\":9260:9269   */\n      dup6\n        /* \"#utility.yul\":9256:9278   */\n      add\n        /* \"#utility.yul\":9225:9288   */\n      tag_458\n      jump\t// in\n    tag_603:\n        /* \"#utility.yul\":9215:9288   */\n      swap2\n      pop\n        /* \"#utility.yul\":9011:9298   */\n      pop\n        /* \"#utility.yul\":8796:9305   */\n      swap3\n      swap2\n      pop\n      pop\n      jump\t// out\n        /* \"#utility.yul\":9311:9965   */\n    tag_96:\n        /* \"#utility.yul\":9389:9395   */\n      0x00\n        /* \"#utility.yul\":9397:9403   */\n      dup1\n        /* \"#utility.yul\":9446:9448   */\n      0x40\n        /* \"#utility.yul\":9434:9443   */\n      dup4\n        /* \"#utility.yul\":9425:9432   */\n      dup6\n        /* \"#utility.yul\":9421:9444   */\n      sub\n        /* \"#utility.yul\":9417:9449   */\n      slt\n        /* \"#utility.yul\":9414:9533   */\n      iszero\n      tag_605\n      jumpi\n        /* \"#utility.yul\":9452:9531   */\n      tag_606\n      tag_430\n      jump\t// in\n    tag_606:\n        /* \"#utility.yul\":9414:9533   */\n    tag_605:\n        /* \"#utility.yul\":9600:9601   */\n      0x00\n        /* \"#utility.yul\":9589:9598   */\n      dup4\n        /* \"#utility.yul\":9585:9602   */\n      add\n        /* \"#utility.yul\":9572:9603   */\n      calldataload\n        /* \"#utility.yul\":9630:9648   */\n      0xffffffffffffffff\n        /* \"#utility.yul\":9622:9628   */\n      dup2\n        /* \"#utility.yul\":9619:9649   */\n      gt\n        /* \"#utility.yul\":9616:9733   */\n      iszero\n      tag_607\n      jumpi\n        /* \"#utility.yul\":9652:9731   */\n      tag_608\n      tag_431\n      jump\t// in\n    tag_608:\n        /* \"#utility.yul\":9616:9733   */\n    tag_607:\n        /* \"#utility.yul\":9757:9820   */\n      tag_609\n        /* \"#utility.yul\":9812:9819   */\n      dup6\n        /* \"#utility.yul\":9803:9809   */\n      dup3\n        /* \"#utility.yul\":9792:9801   */\n      dup7\n        /* \"#utility.yul\":9788:9810   */\n      add\n        /* \"#utility.yul\":9757:9820   */\n      tag_458\n      jump\t// in\n    tag_609:\n        /* \"#utility.yul\":9747:9820   */\n      swap3\n      pop\n        /* \"#utility.yul\":9543:9830   */\n      pop\n        /* \"#utility.yul\":9869:9871   */\n      0x20\n        /* \"#utility.yul\":9895:9948   */\n      tag_610\n        /* \"#utility.yul\":9940:9947   */\n      dup6\n        /* \"#utility.yul\":9931:9937   */\n      dup3\n        /* \"#utility.yul\":9920:9929   */\n      dup7\n        /* \"#utility.yul\":9916:9938   */\n      add\n        /* \"#utility.yul\":9895:9948   */\n      tag_444\n      jump\t// in\n    tag_610:\n        /* \"#utility.yul\":9885:9948   */\n      swap2\n      pop\n        /* \"#utility.yul\":9840:9958   */\n      pop\n        /* \"#utility.yul\":9311:9965   */\n      swap3\n      pop\n      swap3\n      swap1\n      pop\n      jump\t// out\n        /* \"#utility.yul\":9971:10300   */\n    tag_106:\n        /* \"#utility.yul\":10030:10036   */\n      0x00\n        /* \"#utility.yul\":10079:10081   */\n      0x20\n        /* \"#utility.yul\":10067:10076   */\n      dup3\n        /* \"#utility.yul\":10058:10065   */\n      dup5\n        /* \"#utility.yul\":10054:10077   */\n      sub\n        /* \"#utility.yul\":10050:10082   */\n      slt\n        /* \"#utility.yul\":10047:10166   */\n      iszero\n      tag_612\n      jumpi\n        /* \"#utility.yul\":10085:10164   */\n      tag_613\n      tag_430\n      jump\t// in\n    tag_613:\n        /* \"#utility.yul\":10047:10166   */\n    tag_612:\n        /* \"#utility.yul\":10205:10206   */\n      0x00\n        /* \"#utility.yul\":10230:10283   */\n      tag_614\n        /* \"#utility.yul\":10275:10282   */\n      dup5\n        /* \"#utility.yul\":10266:10272   */\n      dup3\n        /* \"#utility.yul\":10255:10264   */\n      dup6\n        /* \"#utility.yul\":10251:10273   */\n      add\n        /* \"#utility.yul\":10230:10283   */\n      tag_449\n      jump\t// in\n    tag_614:\n        /* \"#utility.yul\":10220:10283   */\n      swap2\n      pop\n        /* \"#utility.yul\":10176:10293   */\n      pop\n        /* \"#utility.yul\":9971:10300   */\n      swap3\n      swap2\n      pop\n      pop\n      jump\t// out\n        /* \"#utility.yul\":10306:10422   */\n    tag_459:\n        /* \"#utility.yul\":10376:10397   */\n      tag_616\n        /* \"#utility.yul\":10391:10396   */\n      dup2\n        /* \"#utility.yul\":10376:10397   */\n      tag_435\n      jump\t// in\n    tag_616:\n        /* \"#utility.yul\":10369:10374   */\n      dup2\n        /* \"#utility.yul\":10366:10398   */\n      eq\n        /* \"#utility.yul\":10356:10416   */\n      tag_617\n      jumpi\n        /* \"#utility.yul\":10412:10413   */\n      0x00\n        /* \"#utility.yul\":10409:10410   */\n      dup1\n        /* \"#utility.yul\":10402:10414   */\n      revert\n        /* \"#utility.yul\":10356:10416   */\n    tag_617:\n        /* \"#utility.yul\":10306:10422   */\n      pop\n      jump\t// out\n        /* \"#utility.yul\":10428:10561   */\n    tag_460:\n        /* \"#utility.yul\":10471:10476   */\n      0x00\n        /* \"#utility.yul\":10509:10515   */\n      dup2\n        /* \"#utility.yul\":10496:10516   */\n      calldataload\n        /* \"#utility.yul\":10487:10516   */\n      swap1\n      pop\n        /* \"#utility.yul\":10525:10555   */\n      tag_619\n        /* \"#utility.yul\":10549:10554   */\n      dup2\n        /* \"#utility.yul\":10525:10555   */\n      tag_459\n      jump\t// in\n    tag_619:\n        /* \"#utility.yul\":10428:10561   */\n      swap3\n      swap2\n      pop\n      pop\n      jump\t// out\n        /* \"#utility.yul\":10567:11035   */\n    tag_125:\n        /* \"#utility.yul\":10632:10638   */\n      0x00\n        /* \"#utility.yul\":10640:10646   */\n      dup1\n        /* \"#utility.yul\":10689:10691   */\n      0x40\n        /* \"#utility.yul\":10677:10686   */\n      dup4\n        /* \"#utility.yul\":10668:10675   */\n      dup6\n        /* \"#utility.yul\":10664:10687   */\n      sub\n        /* \"#utility.yul\":10660:10692   */\n      slt\n        /* \"#utility.yul\":10657:10776   */\n      iszero\n      tag_621\n      jumpi\n        /* \"#utility.yul\":10695:10774   */\n      tag_622\n      tag_430\n      jump\t// in\n    tag_622:\n        /* \"#utility.yul\":10657:10776   */\n    tag_621:\n        /* \"#utility.yul\":10815:10816   */\n      0x00\n        /* \"#utility.yul\":10840:10893   */\n      tag_623\n        /* \"#utility.yul\":10885:10892   */\n      dup6\n        /* \"#utility.yul\":10876:10882   */\n      dup3\n        /* \"#utility.yul\":10865:10874   */\n      dup7\n        /* \"#utility.yul\":10861:10883   */\n      add\n        /* \"#utility.yul\":10840:10893   */\n      tag_449\n      jump\t// in\n    tag_623:\n        /* \"#utility.yul\":10830:10893   */\n      swap3\n      pop\n        /* \"#utility.yul\":10786:10903   */\n      pop\n        /* \"#utility.yul\":10942:10944   */\n      0x20\n        /* \"#utility.yul\":10968:11018   */\n      tag_624\n        /* \"#utility.yul\":11010:11017   */\n      dup6\n        /* \"#utility.yul\":11001:11007   */\n      dup3\n        /* \"#utility.yul\":10990:10999   */\n      dup7\n        /* \"#utility.yul\":10986:11008   */\n      add\n        /* \"#utility.yul\":10968:11018   */\n      tag_460\n      jump\t// in\n    tag_624:\n        /* \"#utility.yul\":10958:11018   */\n      swap2\n      pop\n        /* \"#utility.yul\":10913:11028   */\n      pop\n        /* \"#utility.yul\":10567:11035   */\n      swap3\n      pop\n      swap3\n      swap1\n      pop\n      jump\t// out\n        /* \"#utility.yul\":11041:11348   */\n    tag_461:\n        /* \"#utility.yul\":11102:11106   */\n      0x00\n        /* \"#utility.yul\":11192:11210   */\n      0xffffffffffffffff\n        /* \"#utility.yul\":11184:11190   */\n      dup3\n        /* \"#utility.yul\":11181:11211   */\n      gt\n        /* \"#utility.yul\":11178:11234   */\n      iszero\n      tag_626\n      jumpi\n        /* \"#utility.yul\":11214:11232   */\n      tag_627\n      tag_389\n      jump\t// in\n    tag_627:\n        /* \"#utility.yul\":11178:11234   */\n    tag_626:\n        /* \"#utility.yul\":11252:11281   */\n      tag_628\n        /* \"#utility.yul\":11274:11280   */\n      dup3\n        /* \"#utility.yul\":11252:11281   */\n      tag_440\n      jump\t// in\n    tag_628:\n        /* \"#utility.yul\":11244:11281   */\n      swap1\n      pop\n        /* \"#utility.yul\":11336:11340   */\n      0x20\n        /* \"#utility.yul\":11330:11334   */\n      dup2\n        /* \"#utility.yul\":11326:11341   */\n      add\n        /* \"#utility.yul\":11318:11341   */\n      swap1\n      pop\n        /* \"#utility.yul\":11041:11348   */\n      swap2\n      swap1\n      pop\n      jump\t// out\n        /* \"#utility.yul\":11354:11777   */\n    tag_462:\n        /* \"#utility.yul\":11431:11436   */\n      0x00\n        /* \"#utility.yul\":11456:11521   */\n      tag_630\n        /* \"#utility.yul\":11472:11520   */\n      tag_631\n        /* \"#utility.yul\":11513:11519   */\n      dup5\n        /* \"#utility.yul\":11472:11520   */\n      tag_461\n      jump\t// in\n    tag_631:\n        /* \"#utility.yul\":11456:11521   */\n      tag_454\n      jump\t// in\n    tag_630:\n        /* \"#utility.yul\":11447:11521   */\n      swap1\n      pop\n        /* \"#utility.yul\":11544:11550   */\n      dup3\n        /* \"#utility.yul\":11537:11542   */\n      dup2\n        /* \"#utility.yul\":11530:11551   */\n      mstore\n        /* \"#utility.yul\":11582:11586   */\n      0x20\n        /* \"#utility.yul\":11575:11580   */\n      dup2\n        /* \"#utility.yul\":11571:11587   */\n      add\n        /* \"#utility.yul\":11620:11623   */\n      dup5\n        /* \"#utility.yul\":11611:11617   */\n      dup5\n        /* \"#utility.yul\":11606:11609   */\n      dup5\n        /* \"#utility.yul\":11602:11618   */\n      add\n        /* \"#utility.yul\":11599:11624   */\n      gt\n        /* \"#utility.yul\":11596:11708   */\n      iszero\n      tag_632\n      jumpi\n        /* \"#utility.yul\":11627:11706   */\n      tag_633\n      tag_452\n      jump\t// in\n    tag_633:\n        /* \"#utility.yul\":11596:11708   */\n    tag_632:\n        /* \"#utility.yul\":11717:11771   */\n      tag_634\n        /* \"#utility.yul\":11764:11770   */\n      dup5\n        /* \"#utility.yul\":11759:11762   */\n      dup3\n        /* \"#utility.yul\":11754:11757   */\n      dup6\n        /* \"#utility.yul\":11717:11771   */\n      tag_456\n      jump\t// in\n    tag_634:\n        /* \"#utility.yul\":11437:11777   */\n      pop\n        /* \"#utility.yul\":11354:11777   */\n      swap4\n      swap3\n      pop\n      pop\n      pop\n      jump\t// out\n        /* \"#utility.yul\":11796:12134   */\n    tag_463:\n        /* \"#utility.yul\":11851:11856   */\n      0x00\n        /* \"#utility.yul\":11900:11903   */\n      dup3\n        /* \"#utility.yul\":11893:11897   */\n      0x1f\n        /* \"#utility.yul\":11885:11891   */\n      dup4\n        /* \"#utility.yul\":11881:11898   */\n      add\n        /* \"#utility.yul\":11877:11904   */\n      slt\n        /* \"#utility.yul\":11867:11989   */\n      tag_636\n      jumpi\n        /* \"#utility.yul\":11908:11987   */\n      tag_637\n      tag_451\n      jump\t// in\n    tag_637:\n        /* \"#utility.yul\":11867:11989   */\n    tag_636:\n        /* \"#utility.yul\":12025:12031   */\n      dup2\n        /* \"#utility.yul\":12012:12032   */\n      calldataload\n        /* \"#utility.yul\":12050:12128   */\n      tag_638\n        /* \"#utility.yul\":12124:12127   */\n      dup5\n        /* \"#utility.yul\":12116:12122   */\n      dup3\n        /* \"#utility.yul\":12109:12113   */\n      0x20\n        /* \"#utility.yul\":12101:12107   */\n      dup7\n        /* \"#utility.yul\":12097:12114   */\n      add\n        /* \"#utility.yul\":12050:12128   */\n      tag_462\n      jump\t// in\n    tag_638:\n        /* \"#utility.yul\":12041:12128   */\n      swap2\n      pop\n        /* \"#utility.yul\":11857:12134   */\n      pop\n        /* \"#utility.yul\":11796:12134   */\n      swap3\n      swap2\n      pop\n      pop\n      jump\t// out\n        /* \"#utility.yul\":12140:13083   */\n    tag_137:\n        /* \"#utility.yul\":12235:12241   */\n      0x00\n        /* \"#utility.yul\":12243:12249   */\n      dup1\n        /* \"#utility.yul\":12251:12257   */\n      0x00\n        /* \"#utility.yul\":12259:12265   */\n      dup1\n        /* \"#utility.yul\":12308:12311   */\n      0x80\n        /* \"#utility.yul\":12296:12305   */\n      dup6\n        /* \"#utility.yul\":12287:12294   */\n      dup8\n        /* \"#utility.yul\":12283:12306   */\n      sub\n        /* \"#utility.yul\":12279:12312   */\n      slt\n        /* \"#utility.yul\":12276:12396   */\n      iszero\n      tag_640\n      jumpi\n        /* \"#utility.yul\":12315:12394   */\n      tag_641\n      tag_430\n      jump\t// in\n    tag_641:\n        /* \"#utility.yul\":12276:12396   */\n    tag_640:\n        /* \"#utility.yul\":12435:12436   */\n      0x00\n        /* \"#utility.yul\":12460:12513   */\n      tag_642\n        /* \"#utility.yul\":12505:12512   */\n      dup8\n        /* \"#utility.yul\":12496:12502   */\n      dup3\n        /* \"#utility.yul\":12485:12494   */\n      dup9\n        /* \"#utility.yul\":12481:12503   */\n      add\n        /* \"#utility.yul\":12460:12513   */\n      tag_449\n      jump\t// in\n    tag_642:\n        /* \"#utility.yul\":12450:12513   */\n      swap5\n      pop\n        /* \"#utility.yul\":12406:12523   */\n      pop\n        /* \"#utility.yul\":12562:12564   */\n      0x20\n        /* \"#utility.yul\":12588:12641   */\n      tag_643\n        /* \"#utility.yul\":12633:12640   */\n      dup8\n        /* \"#utility.yul\":12624:12630   */\n      dup3\n        /* \"#utility.yul\":12613:12622   */\n      dup9\n        /* \"#utility.yul\":12609:12631   */\n      add\n        /* \"#utility.yul\":12588:12641   */\n      tag_449\n      jump\t// in\n    tag_643:\n        /* \"#utility.yul\":12578:12641   */\n      swap4\n      pop\n        /* \"#utility.yul\":12533:12651   */\n      pop\n        /* \"#utility.yul\":12690:12692   */\n      0x40\n        /* \"#utility.yul\":12716:12769   */\n      tag_644\n        /* \"#utility.yul\":12761:12768   */\n      dup8\n        /* \"#utility.yul\":12752:12758   */\n      dup3\n        /* \"#utility.yul\":12741:12750   */\n      dup9\n        /* \"#utility.yul\":12737:12759   */\n      add\n        /* \"#utility.yul\":12716:12769   */\n      tag_444\n      jump\t// in\n    tag_644:\n        /* \"#utility.yul\":12706:12769   */\n      swap3\n      pop\n        /* \"#utility.yul\":12661:12779   */\n      pop\n        /* \"#utility.yul\":12846:12848   */\n      0x60\n        /* \"#utility.yul\":12835:12844   */\n      dup6\n        /* \"#utility.yul\":12831:12849   */\n      add\n        /* \"#utility.yul\":12818:12850   */\n      calldataload\n        /* \"#utility.yul\":12877:12895   */\n      0xffffffffffffffff\n        /* \"#utility.yul\":12869:12875   */\n      dup2\n        /* \"#utility.yul\":12866:12896   */\n      gt\n        /* \"#utility.yul\":12863:12980   */\n      iszero\n      tag_645\n      jumpi\n        /* \"#utility.yul\":12899:12978   */\n      tag_646\n      tag_431\n      jump\t// in\n    tag_646:\n        /* \"#utility.yul\":12863:12980   */\n    tag_645:\n        /* \"#utility.yul\":13004:13066   */\n      tag_647\n        /* \"#utility.yul\":13058:13065   */\n      dup8\n        /* \"#utility.yul\":13049:13055   */\n      dup3\n        /* \"#utility.yul\":13038:13047   */\n      dup9\n        /* \"#utility.yul\":13034:13056   */\n      add\n        /* \"#utility.yul\":13004:13066   */\n      tag_463\n      jump\t// in\n    tag_647:\n        /* \"#utility.yul\":12994:13066   */\n      swap2\n      pop\n        /* \"#utility.yul\":12789:13076   */\n      pop\n        /* \"#utility.yul\":12140:13083   */\n      swap3\n      swap6\n      swap2\n      swap5\n      pop\n      swap3\n      pop\n      jump\t// out\n        /* \"#utility.yul\":13089:13563   */\n    tag_151:\n        /* \"#utility.yul\":13157:13163   */\n      0x00\n        /* \"#utility.yul\":13165:13171   */\n      dup1\n        /* \"#utility.yul\":13214:13216   */\n      0x40\n        /* \"#utility.yul\":13202:13211   */\n      dup4\n        /* \"#utility.yul\":13193:13200   */\n      dup6\n        /* \"#utility.yul\":13189:13212   */\n      sub\n        /* \"#utility.yul\":13185:13217   */\n      slt\n        /* \"#utility.yul\":13182:13301   */\n      iszero\n      tag_649\n      jumpi\n        /* \"#utility.yul\":13220:13299   */\n      tag_650\n      tag_430\n      jump\t// in\n    tag_650:\n        /* \"#utility.yul\":13182:13301   */\n    tag_649:\n        /* \"#utility.yul\":13340:13341   */\n      0x00\n        /* \"#utility.yul\":13365:13418   */\n      tag_651\n        /* \"#utility.yul\":13410:13417   */\n      dup6\n        /* \"#utility.yul\":13401:13407   */\n      dup3\n        /* \"#utility.yul\":13390:13399   */\n      dup7\n        /* \"#utility.yul\":13386:13408   */\n      add\n        /* \"#utility.yul\":13365:13418   */\n      tag_449\n      jump\t// in\n    tag_651:\n        /* \"#utility.yul\":13355:13418   */\n      swap3\n      pop\n        /* \"#utility.yul\":13311:13428   */\n      pop\n        /* \"#utility.yul\":13467:13469   */\n      0x20\n        /* \"#utility.yul\":13493:13546   */\n      tag_652\n        /* \"#utility.yul\":13538:13545   */\n      dup6\n        /* \"#utility.yul\":13529:13535   */\n      dup3\n        /* \"#utility.yul\":13518:13527   */\n      dup7\n        /* \"#utility.yul\":13514:13536   */\n      add\n        /* \"#utility.yul\":13493:13546   */\n      tag_449\n      jump\t// in\n    tag_652:\n        /* \"#utility.yul\":13483:13546   */\n      swap2\n      pop\n        /* \"#utility.yul\":13438:13556   */\n      pop\n        /* \"#utility.yul\":13089:13563   */\n      swap3\n      pop\n      swap3\n      swap1\n      pop\n      jump\t// out\n        /* \"#utility.yul\":13569:13749   */\n    tag_464:\n        /* \"#utility.yul\":13617:13694   */\n      0x4e487b7100000000000000000000000000000000000000000000000000000000\n        /* \"#utility.yul\":13614:13615   */\n      0x00\n        /* \"#utility.yul\":13607:13695   */\n      mstore\n        /* \"#utility.yul\":13714:13718   */\n      0x22\n        /* \"#utility.yul\":13711:13712   */\n      0x04\n        /* \"#utility.yul\":13704:13719   */\n      mstore\n        /* \"#utility.yul\":13738:13742   */\n      0x24\n        /* \"#utility.yul\":13735:13736   */\n      0x00\n        /* \"#utility.yul\":13728:13743   */\n      revert\n        /* \"#utility.yul\":13755:14075   */\n    tag_170:\n        /* \"#utility.yul\":13799:13805   */\n      0x00\n        /* \"#utility.yul\":13836:13837   */\n      0x02\n        /* \"#utility.yul\":13830:13834   */\n      dup3\n        /* \"#utility.yul\":13826:13838   */\n      div\n        /* \"#utility.yul\":13816:13838   */\n      swap1\n      pop\n        /* \"#utility.yul\":13883:13884   */\n      0x01\n        /* \"#utility.yul\":13877:13881   */\n      dup3\n        /* \"#utility.yul\":13873:13885   */\n      and\n        /* \"#utility.yul\":13904:13922   */\n      dup1\n        /* \"#utility.yul\":13894:13975   */\n      tag_655\n      jumpi\n        /* \"#utility.yul\":13960:13964   */\n      0x7f\n        /* \"#utility.yul\":13952:13958   */\n      dup3\n        /* \"#utility.yul\":13948:13965   */\n      and\n        /* \"#utility.yul\":13938:13965   */\n      swap2\n      pop\n        /* \"#utility.yul\":13894:13975   */\n    tag_655:\n        /* \"#utility.yul\":14022:14024   */\n      0x20\n        /* \"#utility.yul\":14014:14020   */\n      dup3\n        /* \"#utility.yul\":14011:14025   */\n      lt\n        /* \"#utility.yul\":13991:14009   */\n      dup2\n        /* \"#utility.yul\":13988:14026   */\n      sub\n        /* \"#utility.yul\":13985:14069   */\n      tag_656\n      jumpi\n        /* \"#utility.yul\":14041:14059   */\n      tag_657\n      tag_464\n      jump\t// in\n    tag_657:\n        /* \"#utility.yul\":13985:14069   */\n    tag_656:\n        /* \"#utility.yul\":13806:14075   */\n      pop\n        /* \"#utility.yul\":13755:14075   */\n      swap2\n      swap1\n      pop\n      jump\t// out\n        /* \"#utility.yul\":14081:14523   */\n    tag_193:\n        /* \"#utility.yul\":14230:14234   */\n      0x00\n        /* \"#utility.yul\":14268:14270   */\n      0x60\n        /* \"#utility.yul\":14257:14266   */\n      dup3\n        /* \"#utility.yul\":14253:14271   */\n      add\n        /* \"#utility.yul\":14245:14271   */\n      swap1\n      pop\n        /* \"#utility.yul\":14281:14352   */\n      tag_659\n        /* \"#utility.yul\":14349:14350   */\n      0x00\n        /* \"#utility.yul\":14338:14347   */\n      dup4\n        /* \"#utility.yul\":14334:14351   */\n      add\n        /* \"#utility.yul\":14325:14331   */\n      dup7\n        /* \"#utility.yul\":14281:14352   */\n      tag_447\n      jump\t// in\n    tag_659:\n        /* \"#utility.yul\":14362:14434   */\n      tag_660\n        /* \"#utility.yul\":14430:14432   */\n      0x20\n        /* \"#utility.yul\":14419:14428   */\n      dup4\n        /* \"#utility.yul\":14415:14433   */\n      add\n        /* \"#utility.yul\":14406:14412   */\n      dup6\n        /* \"#utility.yul\":14362:14434   */\n      tag_450\n      jump\t// in\n    tag_660:\n        /* \"#utility.yul\":14444:14516   */\n      tag_661\n        /* \"#utility.yul\":14512:14514   */\n      0x40\n        /* \"#utility.yul\":14501:14510   */\n      dup4\n        /* \"#utility.yul\":14497:14515   */\n      add\n        /* \"#utility.yul\":14488:14494   */\n      dup5\n        /* \"#utility.yul\":14444:14516   */\n      tag_447\n      jump\t// in\n    tag_661:\n        /* \"#utility.yul\":14081:14523   */\n      swap5\n      swap4\n      pop\n      pop\n      pop\n      pop\n      jump\t// out\n        /* \"#utility.yul\":14529:14709   */\n    tag_465:\n        /* \"#utility.yul\":14577:14654   */\n      0x4e487b7100000000000000000000000000000000000000000000000000000000\n        /* \"#utility.yul\":14574:14575   */\n      0x00\n        /* \"#utility.yul\":14567:14655   */\n      mstore\n        /* \"#utility.yul\":14674:14678   */\n      0x11\n        /* \"#utility.yul\":14671:14672   */\n      0x04\n        /* \"#utility.yul\":14664:14679   */\n      mstore\n        /* \"#utility.yul\":14698:14702   */\n      0x24\n        /* \"#utility.yul\":14695:14696   */\n      0x00\n        /* \"#utility.yul\":14688:14703   */\n      revert\n        /* \"#utility.yul\":14715:15125   */\n    tag_196:\n        /* \"#utility.yul\":14755:14762   */\n      0x00\n        /* \"#utility.yul\":14778:14798   */\n      tag_664\n        /* \"#utility.yul\":14796:14797   */\n      dup3\n        /* \"#utility.yul\":14778:14798   */\n      tag_442\n      jump\t// in\n    tag_664:\n        /* \"#utility.yul\":14773:14798   */\n      swap2\n      pop\n        /* \"#utility.yul\":14812:14832   */\n      tag_665\n        /* \"#utility.yul\":14830:14831   */\n      dup4\n        /* \"#utility.yul\":14812:14832   */\n      tag_442\n      jump\t// in\n    tag_665:\n        /* \"#utility.yul\":14807:14832   */\n      swap3\n      pop\n        /* \"#utility.yul\":14867:14868   */\n      dup3\n        /* \"#utility.yul\":14864:14865   */\n      dup3\n        /* \"#utility.yul\":14860:14869   */\n      mul\n        /* \"#utility.yul\":14889:14919   */\n      tag_666\n        /* \"#utility.yul\":14907:14918   */\n      dup2\n        /* \"#utility.yul\":14889:14919   */\n      tag_442\n      jump\t// in\n    tag_666:\n        /* \"#utility.yul\":14878:14919   */\n      swap2\n      pop\n        /* \"#utility.yul\":15068:15069   */\n      dup3\n        /* \"#utility.yul\":15059:15066   */\n      dup3\n        /* \"#utility.yul\":15055:15070   */\n      div\n        /* \"#utility.yul\":15052:15053   */\n      dup5\n        /* \"#utility.yul\":15049:15071   */\n      eq\n        /* \"#utility.yul\":15029:15030   */\n      dup4\n        /* \"#utility.yul\":15022:15031   */\n      iszero\n        /* \"#utility.yul\":15002:15085   */\n      or\n        /* \"#utility.yul\":14979:15118   */\n      tag_667\n      jumpi\n        /* \"#utility.yul\":15098:15116   */\n      tag_668\n      tag_465\n      jump\t// in\n    tag_668:\n        /* \"#utility.yul\":14979:15118   */\n    tag_667:\n        /* \"#utility.yul\":14763:15125   */\n      pop\n        /* \"#utility.yul\":14715:15125   */\n      swap3\n      swap2\n      pop\n      pop\n      jump\t// out\n        /* \"#utility.yul\":15131:15311   */\n    tag_395:\n        /* \"#utility.yul\":15179:15256   */\n      0x4e487b7100000000000000000000000000000000000000000000000000000000\n        /* \"#utility.yul\":15176:15177   */\n      0x00\n        /* \"#utility.yul\":15169:15257   */\n      mstore\n        /* \"#utility.yul\":15276:15280   */\n      0x12\n        /* \"#utility.yul\":15273:15274   */\n      0x04\n        /* \"#utility.yul\":15266:15281   */\n      mstore\n        /* \"#utility.yul\":15300:15304   */\n      0x24\n        /* \"#utility.yul\":15297:15298   */\n      0x00\n        /* \"#utility.yul\":15290:15305   */\n      revert\n        /* \"#utility.yul\":15317:15502   */\n    tag_198:\n        /* \"#utility.yul\":15357:15358   */\n      0x00\n        /* \"#utility.yul\":15374:15394   */\n      tag_671\n        /* \"#utility.yul\":15392:15393   */\n      dup3\n        /* \"#utility.yul\":15374:15394   */\n      tag_442\n      jump\t// in\n    tag_671:\n        /* \"#utility.yul\":15369:15394   */\n      swap2\n      pop\n        /* \"#utility.yul\":15408:15428   */\n      tag_672\n        /* \"#utility.yul\":15426:15427   */\n      dup4\n        /* \"#utility.yul\":15408:15428   */\n      tag_442\n      jump\t// in\n    tag_672:\n        /* \"#utility.yul\":15403:15428   */\n      swap3\n      pop\n        /* \"#utility.yul\":15447:15448   */\n      dup3\n        /* \"#utility.yul\":15437:15472   */\n      tag_673\n      jumpi\n        /* \"#utility.yul\":15452:15470   */\n      tag_674\n      tag_395\n      jump\t// in\n    tag_674:\n        /* \"#utility.yul\":15437:15472   */\n    tag_673:\n        /* \"#utility.yul\":15494:15495   */\n      dup3\n        /* \"#utility.yul\":15491:15492   */\n      dup3\n        /* \"#utility.yul\":15487:15496   */\n      div\n        /* \"#utility.yul\":15482:15496   */\n      swap1\n      pop\n        /* \"#utility.yul\":15317:15502   */\n      swap3\n      swap2\n      pop\n      pop\n      jump\t// out\n        /* \"#utility.yul\":15508:15649   */\n    tag_466:\n        /* \"#utility.yul\":15557:15561   */\n      0x00\n        /* \"#utility.yul\":15580:15583   */\n      dup2\n        /* \"#utility.yul\":15572:15583   */\n      swap1\n      pop\n        /* \"#utility.yul\":15603:15606   */\n      dup2\n        /* \"#utility.yul\":15600:15601   */\n      0x00\n        /* \"#utility.yul\":15593:15607   */\n      mstore\n        /* \"#utility.yul\":15637:15641   */\n      0x20\n        /* \"#utility.yul\":15634:15635   */\n      0x00\n        /* \"#utility.yul\":15624:15642   */\n      keccak256\n        /* \"#utility.yul\":15616:15642   */\n      swap1\n      pop\n        /* \"#utility.yul\":15508:15649   */\n      swap2\n      swap1\n      pop\n      jump\t// out\n        /* \"#utility.yul\":15655:15748   */\n    tag_467:\n        /* \"#utility.yul\":15692:15698   */\n      0x00\n        /* \"#utility.yul\":15739:15741   */\n      0x20\n        /* \"#utility.yul\":15734:15736   */\n      0x1f\n        /* \"#utility.yul\":15727:15732   */\n      dup4\n        /* \"#utility.yul\":15723:15737   */\n      add\n        /* \"#utility.yul\":15719:15742   */\n      div\n        /* \"#utility.yul\":15709:15742   */\n      swap1\n      pop\n        /* \"#utility.yul\":15655:15748   */\n      swap2\n      swap1\n      pop\n      jump\t// out\n        /* \"#utility.yul\":15754:15861   */\n    tag_468:\n        /* \"#utility.yul\":15798:15806   */\n      0x00\n        /* \"#utility.yul\":15848:15853   */\n      dup3\n        /* \"#utility.yul\":15842:15846   */\n      dup3\n        /* \"#utility.yul\":15838:15854   */\n      shl\n        /* \"#utility.yul\":15817:15854   */\n      swap1\n      pop\n        /* \"#utility.yul\":15754:15861   */\n      swap3\n      swap2\n      pop\n      pop\n      jump\t// out\n        /* \"#utility.yul\":15867:16260   */\n    tag_469:\n        /* \"#utility.yul\":15936:15942   */\n      0x00\n        /* \"#utility.yul\":15986:15987   */\n      0x08\n        /* \"#utility.yul\":15974:15984   */\n      dup4\n        /* \"#utility.yul\":15970:15988   */\n      mul\n        /* \"#utility.yul\":16009:16106   */\n      tag_679\n        /* \"#utility.yul\":16039:16105   */\n      0xffffffffffffffffffffffffffffffffffffffffffffffffffffffffffffffff\n        /* \"#utility.yul\":16028:16037   */\n      dup3\n        /* \"#utility.yul\":16009:16106   */\n      tag_468\n      jump\t// in\n    tag_679:\n        /* \"#utility.yul\":16127:16166   */\n      tag_680\n        /* \"#utility.yul\":16157:16165   */\n      dup7\n        /* \"#utility.yul\":16146:16155   */\n      dup4\n        /* \"#utility.yul\":16127:16166   */\n      tag_468\n      jump\t// in\n    tag_680:\n        /* \"#utility.yul\":16115:16166   */\n      swap6\n      pop\n        /* \"#utility.yul\":16199:16203   */\n      dup1\n        /* \"#utility.yul\":16195:16204   */\n      not\n        /* \"#utility.yul\":16188:16193   */\n      dup5\n        /* \"#utility.yul\":16184:16205   */\n      and\n        /* \"#utility.yul\":16175:16205   */\n      swap4\n      pop\n        /* \"#utility.yul\":16248:16252   */\n      dup1\n        /* \"#utility.yul\":16238:16246   */\n      dup7\n        /* \"#utility.yul\":16234:16253   */\n      and\n        /* \"#utility.yul\":16227:16232   */\n      dup5\n        /* \"#utility.yul\":16224:16254   */\n      or\n        /* \"#utility.yul\":16214:16254   */\n      swap3\n      pop\n        /* \"#utility.yul\":15943:16260   */\n      pop\n      pop\n        /* \"#utility.yul\":15867:16260   */\n      swap4\n      swap3\n      pop\n      pop\n      pop\n      jump\t// out\n        /* \"#utility.yul\":16266:16326   */\n    tag_470:\n        /* \"#utility.yul\":16294:16297   */\n      0x00\n        /* \"#utility.yul\":16315:16320   */\n      dup2\n        /* \"#utility.yul\":16308:16320   */\n      swap1\n      pop\n        /* \"#utility.yul\":16266:16326   */\n      swap2\n      swap1\n      pop\n      jump\t// out\n        /* \"#utility.yul\":16332:16474   */\n    tag_471:\n        /* \"#utility.yul\":16382:16391   */\n      0x00\n        /* \"#utility.yul\":16415:16468   */\n      tag_683\n        /* \"#utility.yul\":16433:16467   */\n      tag_684\n        /* \"#utility.yul\":16442:16466   */\n      tag_685\n        /* \"#utility.yul\":16460:16465   */\n      dup5\n        /* \"#utility.yul\":16442:16466   */\n      tag_442\n      jump\t// in\n    tag_685:\n        /* \"#utility.yul\":16433:16467   */\n      tag_470\n      jump\t// in\n    tag_684:\n        /* \"#utility.yul\":16415:16468   */\n      tag_442\n      jump\t// in\n    tag_683:\n        /* \"#utility.yul\":16402:16468   */\n      swap1\n      pop\n        /* \"#utility.yul\":16332:16474   */\n      swap2\n      swap1\n      pop\n      jump\t// out\n        /* \"#utility.yul\":16480:16555   */\n    tag_472:\n        /* \"#utility.yul\":16523:16526   */\n      0x00\n        /* \"#utility.yul\":16544:16549   */\n      dup2\n        /* \"#utility.yul\":16537:16549   */\n      swap1\n      pop\n        /* \"#utility.yul\":16480:16555   */\n      swap2\n      swap1\n      pop\n      jump\t// out\n        /* \"#utility.yul\":16561:16830   */\n    tag_473:\n        /* \"#utility.yul\":16671:16710   */\n      tag_688\n        /* \"#utility.yul\":16702:16709   */\n      dup4\n        /* \"#utility.yul\":16671:16710   */\n      tag_471\n      jump\t// in\n    tag_688:\n        /* \"#utility.yul\":16732:16823   */\n      tag_689\n        /* \"#utility.yul\":16781:16822   */\n      tag_690\n        /* \"#utility.yul\":16805:16821   */\n      dup3\n        /* \"#utility.yul\":16781:16822   */\n      tag_472\n      jump\t// in\n    tag_690:\n        /* \"#utility.yul\":16773:16779   */\n      dup5\n        /* \"#utility.yul\":16766:16770   */\n      dup5\n        /* \"#utility.yul\":16760:16771   */\n      sload\n        /* \"#utility.yul\":16732:16823   */\n      tag_469\n      jump\t// in\n    tag_689:\n        /* \"#utility.yul\":16726:16730   */\n      dup3\n        /* \"#utility.yul\":16719:16824   */\n      sstore\n        /* \"#utility.yul\":16637:16830   */\n      pop\n        /* \"#utility.yul\":16561:16830   */\n      pop\n      pop\n      pop\n      jump\t// out\n        /* \"#utility.yul\":16836:16909   */\n    tag_474:\n        /* \"#utility.yul\":16881:16884   */\n      0x00\n        /* \"#utility.yul\":16836:16909   */\n      swap1\n      jump\t// out\n        /* \"#utility.yul\":16915:17104   */\n    tag_475:\n        /* \"#utility.yul\":16992:17024   */\n      tag_693\n      tag_474\n      jump\t// in\n    tag_693:\n        /* \"#utility.yul\":17033:17098   */\n      tag_694\n        /* \"#utility.yul\":17091:17097   */\n      dup2\n        /* \"#utility.yul\":17083:17089   */\n      dup5\n        /* \"#utility.yul\":17077:17081   */\n      dup5\n        /* \"#utility.yul\":17033:17098   */\n      tag_473\n      jump\t// in\n    tag_694:\n        /* \"#utility.yul\":16968:17104   */\n      pop\n        /* \"#utility.yul\":16915:17104   */\n      pop\n      pop\n      jump\t// out\n        /* \"#utility.yul\":17110:17296   */\n    tag_476:\n        /* \"#utility.yul\":17170:17290   */\n    tag_696:\n        /* \"#utility.yul\":17187:17190   */\n      dup2\n        /* \"#utility.yul\":17180:17185   */\n      dup2\n        /* \"#utility.yul\":17177:17191   */\n      lt\n        /* \"#utility.yul\":17170:17290   */\n      iszero\n      tag_698\n      jumpi\n        /* \"#utility.yul\":17241:17280   */\n      tag_699\n        /* \"#utility.yul\":17278:17279   */\n      0x00\n        /* \"#utility.yul\":17271:17276   */\n      dup3\n        /* \"#utility.yul\":17241:17280   */\n      tag_475\n      jump\t// in\n    tag_699:\n        /* \"#utility.yul\":17214:17215   */\n      0x01\n        /* \"#utility.yul\":17207:17212   */\n      dup2\n        /* \"#utility.yul\":17203:17216   */\n      add\n        /* \"#utility.yul\":17194:17216   */\n      swap1\n      pop\n        /* \"#utility.yul\":17170:17290   */\n      jump(tag_696)\n    tag_698:\n        /* \"#utility.yul\":17110:17296   */\n      pop\n      pop\n      jump\t// out\n        /* \"#utility.yul\":17302:17845   */\n    tag_477:\n        /* \"#utility.yul\":17403:17405   */\n      0x1f\n        /* \"#utility.yul\":17398:17401   */\n      dup3\n        /* \"#utility.yul\":17395:17406   */\n      gt\n        /* \"#utility.yul\":17392:17838   */\n      iszero\n      tag_701\n      jumpi\n        /* \"#utility.yul\":17437:17475   */\n      tag_702\n        /* \"#utility.yul\":17469:17474   */\n      dup2\n        /* \"#utility.yul\":17437:17475   */\n      tag_466\n      jump\t// in\n    tag_702:\n        /* \"#utility.yul\":17521:17550   */\n      tag_703\n        /* \"#utility.yul\":17539:17549   */\n      dup5\n        /* \"#utility.yul\":17521:17550   */\n      tag_467\n      jump\t// in\n    tag_703:\n        /* \"#utility.yul\":17511:17519   */\n      dup2\n        /* \"#utility.yul\":17507:17551   */\n      add\n        /* \"#utility.yul\":17704:17706   */\n      0x20\n        /* \"#utility.yul\":17692:17702   */\n      dup6\n        /* \"#utility.yul\":17689:17707   */\n      lt\n        /* \"#utility.yul\":17686:17735   */\n      iszero\n      tag_704\n      jumpi\n        /* \"#utility.yul\":17725:17733   */\n      dup2\n        /* \"#utility.yul\":17710:17733   */\n      swap1\n      pop\n        /* \"#utility.yul\":17686:17735   */\n    tag_704:\n        /* \"#utility.yul\":17748:17828   */\n      tag_705\n        /* \"#utility.yul\":17804:17826   */\n      tag_706\n        /* \"#utility.yul\":17822:17825   */\n      dup6\n        /* \"#utility.yul\":17804:17826   */\n      tag_467\n      jump\t// in\n    tag_706:\n        /* \"#utility.yul\":17794:17802   */\n      dup4\n        /* \"#utility.yul\":17790:17827   */\n      add\n        /* \"#utility.yul\":17777:17788   */\n      dup3\n        /* \"#utility.yul\":17748:17828   */\n      tag_476\n      jump\t// in\n    tag_705:\n        /* \"#utility.yul\":17407:17838   */\n      pop\n      pop\n        /* \"#utility.yul\":17392:17838   */\n    tag_701:\n        /* \"#utility.yul\":17302:17845   */\n      pop\n      pop\n      pop\n      jump\t// out\n        /* \"#utility.yul\":17851:17968   */\n    tag_478:\n        /* \"#utility.yul\":17905:17913   */\n      0x00\n        /* \"#utility.yul\":17955:17960   */\n      dup3\n        /* \"#utility.yul\":17949:17953   */\n      dup3\n        /* \"#utility.yul\":17945:17961   */\n      shr\n        /* \"#utility.yul\":17924:17961   */\n      swap1\n      pop\n        /* \"#utility.yul\":17851:17968   */\n      swap3\n      swap2\n      pop\n      pop\n      jump\t// out\n        /* \"#utility.yul\":17974:18143   */\n    tag_479:\n        /* \"#utility.yul\":18018:18024   */\n      0x00\n        /* \"#utility.yul\":18051:18102   */\n      tag_709\n        /* \"#utility.yul\":18099:18100   */\n      0x00\n        /* \"#utility.yul\":18095:18101   */\n      not\n        /* \"#utility.yul\":18087:18092   */\n      dup5\n        /* \"#utility.yul\":18084:18085   */\n      0x08\n        /* \"#utility.yul\":18080:18093   */\n      mul\n        /* \"#utility.yul\":18051:18102   */\n      tag_478\n      jump\t// in\n    tag_709:\n        /* \"#utility.yul\":18047:18103   */\n      not\n        /* \"#utility.yul\":18132:18136   */\n      dup1\n        /* \"#utility.yul\":18126:18130   */\n      dup4\n        /* \"#utility.yul\":18122:18137   */\n      and\n        /* \"#utility.yul\":18112:18137   */\n      swap2\n      pop\n        /* \"#utility.yul\":18025:18143   */\n      pop\n        /* \"#utility.yul\":17974:18143   */\n      swap3\n      swap2\n      pop\n      pop\n      jump\t// out\n        /* \"#utility.yul\":18148:18443   */\n    tag_480:\n        /* \"#utility.yul\":18224:18228   */\n      0x00\n        /* \"#utility.yul\":18370:18399   */\n      tag_711\n        /* \"#utility.yul\":18395:18398   */\n      dup4\n        /* \"#utility.yul\":18389:18393   */\n      dup4\n        /* \"#utility.yul\":18370:18399   */\n      tag_479\n      jump\t// in\n    tag_711:\n        /* \"#utility.yul\":18362:18399   */\n      swap2\n      pop\n        /* \"#utility.yul\":18432:18435   */\n      dup3\n        /* \"#utility.yul\":18429:18430   */\n      0x02\n        /* \"#utility.yul\":18425:18436   */\n      mul\n        /* \"#utility.yul\":18419:18423   */\n      dup3\n        /* \"#utility.yul\":18416:18437   */\n      or\n        /* \"#utility.yul\":18408:18437   */\n      swap1\n      pop\n        /* \"#utility.yul\":18148:18443   */\n      swap3\n      swap2\n      pop\n      pop\n      jump\t// out\n        /* \"#utility.yul\":18448:19843   */\n    tag_206:\n        /* \"#utility.yul\":18565:18602   */\n      tag_713\n        /* \"#utility.yul\":18598:18601   */\n      dup3\n        /* \"#utility.yul\":18565:18602   */\n      tag_437\n      jump\t// in\n    tag_713:\n        /* \"#utility.yul\":18667:18685   */\n      0xffffffffffffffff\n        /* \"#utility.yul\":18659:18665   */\n      dup2\n        /* \"#utility.yul\":18656:18686   */\n      gt\n        /* \"#utility.yul\":18653:18709   */\n      iszero\n      tag_714\n      jumpi\n        /* \"#utility.yul\":18689:18707   */\n      tag_715\n      tag_389\n      jump\t// in\n    tag_715:\n        /* \"#utility.yul\":18653:18709   */\n    tag_714:\n        /* \"#utility.yul\":18733:18771   */\n      tag_716\n        /* \"#utility.yul\":18765:18769   */\n      dup3\n        /* \"#utility.yul\":18759:18770   */\n      sload\n        /* \"#utility.yul\":18733:18771   */\n      tag_170\n      jump\t// in\n    tag_716:\n        /* \"#utility.yul\":18818:18885   */\n      tag_717\n        /* \"#utility.yul\":18878:18884   */\n      dup3\n        /* \"#utility.yul\":18870:18876   */\n      dup3\n        /* \"#utility.yul\":18864:18868   */\n      dup6\n        /* \"#utility.yul\":18818:18885   */\n      tag_477\n      jump\t// in\n    tag_717:\n        /* \"#utility.yul\":18912:18913   */\n      0x00\n        /* \"#utility.yul\":18936:18940   */\n      0x20\n        /* \"#utility.yul\":18923:18940   */\n      swap1\n      pop\n        /* \"#utility.yul\":18968:18970   */\n      0x1f\n        /* \"#utility.yul\":18960:18966   */\n      dup4\n        /* \"#utility.yul\":18957:18971   */\n      gt\n        /* \"#utility.yul\":18985:18986   */\n      0x01\n        /* \"#utility.yul\":18980:19598   */\n      dup2\n      eq\n      tag_719\n      jumpi\n        /* \"#utility.yul\":19642:19643   */\n      0x00\n        /* \"#utility.yul\":19659:19665   */\n      dup5\n        /* \"#utility.yul\":19656:19733   */\n      iszero\n      tag_720\n      jumpi\n        /* \"#utility.yul\":19708:19717   */\n      dup3\n        /* \"#utility.yul\":19703:19706   */\n      dup8\n        /* \"#utility.yul\":19699:19718   */\n      add\n        /* \"#utility.yul\":19693:19719   */\n      mload\n        /* \"#utility.yul\":19684:19719   */\n      swap1\n      pop\n        /* \"#utility.yul\":19656:19733   */\n    tag_720:\n        /* \"#utility.yul\":19759:19826   */\n      tag_721\n        /* \"#utility.yul\":19819:19825   */\n      dup6\n        /* \"#utility.yul\":19812:19817   */\n      dup3\n        /* \"#utility.yul\":19759:19826   */\n      tag_480\n      jump\t// in\n    tag_721:\n        /* \"#utility.yul\":19753:19757   */\n      dup7\n        /* \"#utility.yul\":19746:19827   */\n      sstore\n        /* \"#utility.yul\":19615:19837   */\n      pop\n        /* \"#utility.yul\":18950:19837   */\n      jump(tag_718)\n        /* \"#utility.yul\":18980:19598   */\n    tag_719:\n        /* \"#utility.yul\":19032:19036   */\n      0x1f\n        /* \"#utility.yul\":19028:19037   */\n      not\n        /* \"#utility.yul\":19020:19026   */\n      dup5\n        /* \"#utility.yul\":19016:19038   */\n      and\n        /* \"#utility.yul\":19066:19103   */\n      tag_722\n        /* \"#utility.yul\":19098:19102   */\n      dup7\n        /* \"#utility.yul\":19066:19103   */\n      tag_466\n      jump\t// in\n    tag_722:\n        /* \"#utility.yul\":19125:19126   */\n      0x00\n        /* \"#utility.yul\":19139:19347   */\n    tag_723:\n        /* \"#utility.yul\":19153:19160   */\n      dup3\n        /* \"#utility.yul\":19150:19151   */\n      dup2\n        /* \"#utility.yul\":19147:19161   */\n      lt\n        /* \"#utility.yul\":19139:19347   */\n      iszero\n      tag_725\n      jumpi\n        /* \"#utility.yul\":19232:19241   */\n      dup5\n        /* \"#utility.yul\":19227:19230   */\n      dup10\n        /* \"#utility.yul\":19223:19242   */\n      add\n        /* \"#utility.yul\":19217:19243   */\n      mload\n        /* \"#utility.yul\":19209:19215   */\n      dup3\n        /* \"#utility.yul\":19202:19244   */\n      sstore\n        /* \"#utility.yul\":19283:19284   */\n      0x01\n        /* \"#utility.yul\":19275:19281   */\n      dup3\n        /* \"#utility.yul\":19271:19285   */\n      add\n        /* \"#utility.yul\":19261:19285   */\n      swap2\n      pop\n        /* \"#utility.yul\":19330:19332   */\n      0x20\n        /* \"#utility.yul\":19319:19328   */\n      dup6\n        /* \"#utility.yul\":19315:19333   */\n      add\n        /* \"#utility.yul\":19302:19333   */\n      swap5\n      pop\n        /* \"#utility.yul\":19176:19180   */\n      0x20\n        /* \"#utility.yul\":19173:19174   */\n      dup2\n        /* \"#utility.yul\":19169:19181   */\n      add\n        /* \"#utility.yul\":19164:19181   */\n      swap1\n      pop\n        /* \"#utility.yul\":19139:19347   */\n      jump(tag_723)\n    tag_725:\n        /* \"#utility.yul\":19375:19381   */\n      dup7\n        /* \"#utility.yul\":19366:19373   */\n      dup4\n        /* \"#utility.yul\":19363:19382   */\n      lt\n        /* \"#utility.yul\":19360:19539   */\n      iszero\n      tag_726\n      jumpi\n        /* \"#utility.yul\":19433:19442   */\n      dup5\n        /* \"#utility.yul\":19428:19431   */\n      dup10\n        /* \"#utility.yul\":19424:19443   */\n      add\n        /* \"#utility.yul\":19418:19444   */\n      mload\n        /* \"#utility.yul\":19476:19524   */\n      tag_727\n        /* \"#utility.yul\":19518:19522   */\n      0x1f\n        /* \"#utility.yul\":19510:19516   */\n      dup10\n        /* \"#utility.yul\":19506:19523   */\n      and\n        /* \"#utility.yul\":19495:19504   */\n      dup3\n        /* \"#utility.yul\":19476:19524   */\n      tag_479\n      jump\t// in\n    tag_727:\n        /* \"#utility.yul\":19468:19474   */\n      dup4\n        /* \"#utility.yul\":19461:19525   */\n      sstore\n        /* \"#utility.yul\":19383:19539   */\n      pop\n        /* \"#utility.yul\":19360:19539   */\n    tag_726:\n        /* \"#utility.yul\":19585:19586   */\n      0x01\n        /* \"#utility.yul\":19581:19582   */\n      0x02\n        /* \"#utility.yul\":19573:19579   */\n      dup9\n        /* \"#utility.yul\":19569:19583   */\n      mul\n        /* \"#utility.yul\":19565:19587   */\n      add\n        /* \"#utility.yul\":19559:19563   */\n      dup9\n        /* \"#utility.yul\":19552:19588   */\n      sstore\n        /* \"#utility.yul\":18987:19598   */\n      pop\n      pop\n      pop\n        /* \"#utility.yul\":18950:19837   */\n    tag_718:\n      pop\n        /* \"#utility.yul\":18540:19843   */\n      pop\n      pop\n      pop\n        /* \"#utility.yul\":18448:19843   */\n      pop\n      pop\n      jump\t// out\n        /* \"#utility.yul\":19849:20019   */\n    tag_481:\n        /* \"#utility.yul\":19989:20011   */\n      0x546f6b656e206973206e6f742061742073616c65000000000000000000000000\n        /* \"#utility.yul\":19985:19986   */\n      0x00\n        /* \"#utility.yul\":19977:19983   */\n      dup3\n        /* \"#utility.yul\":19973:19987   */\n      add\n        /* \"#utility.yul\":19966:20012   */\n      mstore\n        /* \"#utility.yul\":19849:20019   */\n      pop\n      jump\t// out\n        /* \"#utility.yul\":20025:20391   */\n    tag_482:\n        /* \"#utility.yul\":20167:20170   */\n      0x00\n        /* \"#utility.yul\":20188:20255   */\n      tag_730\n        /* \"#utility.yul\":20252:20254   */\n      0x14\n        /* \"#utility.yul\":20247:20250   */\n      dup4\n        /* \"#utility.yul\":20188:20255   */\n      tag_438\n      jump\t// in\n    tag_730:\n        /* \"#utility.yul\":20181:20255   */\n      swap2\n      pop\n        /* \"#utility.yul\":20264:20357   */\n      tag_731\n        /* \"#utility.yul\":20353:20356   */\n      dup3\n        /* \"#utility.yul\":20264:20357   */\n      tag_481\n      jump\t// in\n    tag_731:\n        /* \"#utility.yul\":20382:20384   */\n      0x20\n        /* \"#utility.yul\":20377:20380   */\n      dup3\n        /* \"#utility.yul\":20373:20385   */\n      add\n        /* \"#utility.yul\":20366:20385   */\n      swap1\n      pop\n        /* \"#utility.yul\":20025:20391   */\n      swap2\n      swap1\n      pop\n      jump\t// out\n        /* \"#utility.yul\":20397:20816   */\n    tag_237:\n        /* \"#utility.yul\":20563:20567   */\n      0x00\n        /* \"#utility.yul\":20601:20603   */\n      0x20\n        /* \"#utility.yul\":20590:20599   */\n      dup3\n        /* \"#utility.yul\":20586:20604   */\n      add\n        /* \"#utility.yul\":20578:20604   */\n      swap1\n      pop\n        /* \"#utility.yul\":20650:20659   */\n      dup2\n        /* \"#utility.yul\":20644:20648   */\n      dup2\n        /* \"#utility.yul\":20640:20660   */\n      sub\n        /* \"#utility.yul\":20636:20637   */\n      0x00\n        /* \"#utility.yul\":20625:20634   */\n      dup4\n        /* \"#utility.yul\":20621:20638   */\n      add\n        /* \"#utility.yul\":20614:20661   */\n      mstore\n        /* \"#utility.yul\":20678:20809   */\n      tag_733\n        /* \"#utility.yul\":20804:20808   */\n      dup2\n        /* \"#utility.yul\":20678:20809   */\n      tag_482\n      jump\t// in\n    tag_733:\n        /* \"#utility.yul\":20670:20809   */\n      swap1\n      pop\n        /* \"#utility.yul\":20397:20816   */\n      swap2\n      swap1\n      pop\n      jump\t// out\n        /* \"#utility.yul\":20822:20995   */\n    tag_483:\n        /* \"#utility.yul\":20962:20987   */\n      0x43616e6e6f742062757920796f7572206f776e204e4654000000000000000000\n        /* \"#utility.yul\":20958:20959   */\n      0x00\n        /* \"#utility.yul\":20950:20956   */\n      dup3\n        /* \"#utility.yul\":20946:20960   */\n      add\n        /* \"#utility.yul\":20939:20988   */\n      mstore\n        /* \"#utility.yul\":20822:20995   */\n      pop\n      jump\t// out\n        /* \"#utility.yul\":21001:21367   */\n    tag_484:\n        /* \"#utility.yul\":21143:21146   */\n      0x00\n        /* \"#utility.yul\":21164:21231   */\n      tag_736\n        /* \"#utility.yul\":21228:21230   */\n      0x17\n        /* \"#utility.yul\":21223:21226   */\n      dup4\n        /* \"#utility.yul\":21164:21231   */\n      tag_438\n      jump\t// in\n    tag_736:\n        /* \"#utility.yul\":21157:21231   */\n      swap2\n      pop\n        /* \"#utility.yul\":21240:21333   */\n      tag_737\n        /* \"#utility.yul\":21329:21332   */\n      dup3\n        /* \"#utility.yul\":21240:21333   */\n      tag_483\n      jump\t// in\n    tag_737:\n        /* \"#utility.yul\":21358:21360   */\n      0x20\n        /* \"#utility.yul\":21353:21356   */\n      dup3\n        /* \"#utility.yul\":21349:21361   */\n      add\n        /* \"#utility.yul\":21342:21361   */\n      swap1\n      pop\n        /* \"#utility.yul\":21001:21367   */\n      swap2\n      swap1\n      pop\n      jump\t// out\n        /* \"#utility.yul\":21373:21792   */\n    tag_240:\n        /* \"#utility.yul\":21539:21543   */\n      0x00\n        /* \"#utility.yul\":21577:21579   */\n      0x20\n        /* \"#utility.yul\":21566:21575   */\n      dup3\n        /* \"#utility.yul\":21562:21580   */\n      add\n        /* \"#utility.yul\":21554:21580   */\n      swap1\n      pop\n        /* \"#utility.yul\":21626:21635   */\n      dup2\n        /* \"#utility.yul\":21620:21624   */\n      dup2\n        /* \"#utility.yul\":21616:21636   */\n      sub\n        /* \"#utility.yul\":21612:21613   */\n      0x00\n        /* \"#utility.yul\":21601:21610   */\n      dup4\n        /* \"#utility.yul\":21597:21614   */\n      add\n        /* \"#utility.yul\":21590:21637   */\n      mstore\n        /* \"#utility.yul\":21654:21785   */\n      tag_739\n        /* \"#utility.yul\":21780:21784   */\n      dup2\n        /* \"#utility.yul\":21654:21785   */\n      tag_484\n      jump\t// in\n    tag_739:\n        /* \"#utility.yul\":21646:21785   */\n      swap1\n      pop\n        /* \"#utility.yul\":21373:21792   */\n      swap2\n      swap1\n      pop\n      jump\t// out\n        /* \"#utility.yul\":21798:21965   */\n    tag_485:\n        /* \"#utility.yul\":21938:21957   */\n      0x537570706c792045786163742066756e64000000000000000000000000000000\n        /* \"#utility.yul\":21934:21935   */\n      0x00\n        /* \"#utility.yul\":21926:21932   */\n      dup3\n        /* \"#utility.yul\":21922:21936   */\n      add\n        /* \"#utility.yul\":21915:21958   */\n      mstore\n        /* \"#utility.yul\":21798:21965   */\n      pop\n      jump\t// out\n        /* \"#utility.yul\":21971:22337   */\n    tag_486:\n        /* \"#utility.yul\":22113:22116   */\n      0x00\n        /* \"#utility.yul\":22134:22201   */\n      tag_742\n        /* \"#utility.yul\":22198:22200   */\n      0x11\n        /* \"#utility.yul\":22193:22196   */\n      dup4\n        /* \"#utility.yul\":22134:22201   */\n      tag_438\n      jump\t// in\n    tag_742:\n        /* \"#utility.yul\":22127:22201   */\n      swap2\n      pop\n        /* \"#utility.yul\":22210:22303   */\n      tag_743\n        /* \"#utility.yul\":22299:22302   */\n      dup3\n        /* \"#utility.yul\":22210:22303   */\n      tag_485\n      jump\t// in\n    tag_743:\n        /* \"#utility.yul\":22328:22330   */\n      0x20\n        /* \"#utility.yul\":22323:22326   */\n      dup3\n        /* \"#utility.yul\":22319:22331   */\n      add\n        /* \"#utility.yul\":22312:22331   */\n      swap1\n      pop\n        /* \"#utility.yul\":21971:22337   */\n      swap2\n      swap1\n      pop\n      jump\t// out\n        /* \"#utility.yul\":22343:22762   */\n    tag_243:\n        /* \"#utility.yul\":22509:22513   */\n      0x00\n        /* \"#utility.yul\":22547:22549   */\n      0x20\n        /* \"#utility.yul\":22536:22545   */\n      dup3\n        /* \"#utility.yul\":22532:22550   */\n      add\n        /* \"#utility.yul\":22524:22550   */\n      swap1\n      pop\n        /* \"#utility.yul\":22596:22605   */\n      dup2\n        /* \"#utility.yul\":22590:22594   */\n      dup2\n        /* \"#utility.yul\":22586:22606   */\n      sub\n        /* \"#utility.yul\":22582:22583   */\n      0x00\n        /* \"#utility.yul\":22571:22580   */\n      dup4\n        /* \"#utility.yul\":22567:22584   */\n      add\n        /* \"#utility.yul\":22560:22607   */\n      mstore\n        /* \"#utility.yul\":22624:22755   */\n      tag_745\n        /* \"#utility.yul\":22750:22754   */\n      dup2\n        /* \"#utility.yul\":22624:22755   */\n      tag_486\n      jump\t// in\n    tag_745:\n        /* \"#utility.yul\":22616:22755   */\n      swap1\n      pop\n        /* \"#utility.yul\":22343:22762   */\n      swap2\n      swap1\n      pop\n      jump\t// out\n        /* \"#utility.yul\":22768:22962   */\n    tag_251:\n        /* \"#utility.yul\":22808:22812   */\n      0x00\n        /* \"#utility.yul\":22828:22848   */\n      tag_747\n        /* \"#utility.yul\":22846:22847   */\n      dup3\n        /* \"#utility.yul\":22828:22848   */\n      tag_442\n      jump\t// in\n    tag_747:\n        /* \"#utility.yul\":22823:22848   */\n      swap2\n      pop\n        /* \"#utility.yul\":22862:22882   */\n      tag_748\n        /* \"#utility.yul\":22880:22881   */\n      dup4\n        /* \"#utility.yul\":22862:22882   */\n      tag_442\n      jump\t// in\n    tag_748:\n        /* \"#utility.yul\":22857:22882   */\n      swap3\n      pop\n        /* \"#utility.yul\":22906:22907   */\n      dup3\n        /* \"#utility.yul\":22903:22904   */\n      dup3\n        /* \"#utility.yul\":22899:22908   */\n      sub\n        /* \"#utility.yul\":22891:22908   */\n      swap1\n      pop\n        /* \"#utility.yul\":22930:22931   */\n      dup2\n        /* \"#utility.yul\":22924:22928   */\n      dup2\n        /* \"#utility.yul\":22921:22932   */\n      gt\n        /* \"#utility.yul\":22918:22955   */\n      iszero\n      tag_749\n      jumpi\n        /* \"#utility.yul\":22935:22953   */\n      tag_750\n      tag_465\n      jump\t// in\n    tag_750:\n        /* \"#utility.yul\":22918:22955   */\n    tag_749:\n        /* \"#utility.yul\":22768:22962   */\n      swap3\n      swap2\n      pop\n      pop\n      jump\t// out\n        /* \"#utility.yul\":22968:23144   */\n    tag_487:\n        /* \"#utility.yul\":23108:23136   */\n      0x596f75722061726520417574686f72697a6520746f2073656c6c000000000000\n        /* \"#utility.yul\":23104:23105   */\n      0x00\n        /* \"#utility.yul\":23096:23102   */\n      dup3\n        /* \"#utility.yul\":23092:23106   */\n      add\n        /* \"#utility.yul\":23085:23137   */\n      mstore\n        /* \"#utility.yul\":22968:23144   */\n      pop\n      jump\t// out\n        /* \"#utility.yul\":23150:23516   */\n    tag_488:\n        /* \"#utility.yul\":23292:23295   */\n      0x00\n        /* \"#utility.yul\":23313:23380   */\n      tag_753\n        /* \"#utility.yul\":23377:23379   */\n      0x1a\n        /* \"#utility.yul\":23372:23375   */\n      dup4\n        /* \"#utility.yul\":23313:23380   */\n      tag_438\n      jump\t// in\n    tag_753:\n        /* \"#utility.yul\":23306:23380   */\n      swap2\n      pop\n        /* \"#utility.yul\":23389:23482   */\n      tag_754\n        /* \"#utility.yul\":23478:23481   */\n      dup3\n        /* \"#utility.yul\":23389:23482   */\n      tag_487\n      jump\t// in\n    tag_754:\n        /* \"#utility.yul\":23507:23509   */\n      0x20\n        /* \"#utility.yul\":23502:23505   */\n      dup3\n        /* \"#utility.yul\":23498:23510   */\n      add\n        /* \"#utility.yul\":23491:23510   */\n      swap1\n      pop\n        /* \"#utility.yul\":23150:23516   */\n      swap2\n      swap1\n      pop\n      jump\t// out\n        /* \"#utility.yul\":23522:23941   */\n    tag_258:\n        /* \"#utility.yul\":23688:23692   */\n      0x00\n        /* \"#utility.yul\":23726:23728   */\n      0x20\n        /* \"#utility.yul\":23715:23724   */\n      dup3\n        /* \"#utility.yul\":23711:23729   */\n      add\n        /* \"#utility.yul\":23703:23729   */\n      swap1\n      pop\n        /* \"#utility.yul\":23775:23784   */\n      dup2\n        /* \"#utility.yul\":23769:23773   */\n      dup2\n        /* \"#utility.yul\":23765:23785   */\n      sub\n        /* \"#utility.yul\":23761:23762   */\n      0x00\n        /* \"#utility.yul\":23750:23759   */\n      dup4\n        /* \"#utility.yul\":23746:23763   */\n      add\n        /* \"#utility.yul\":23739:23786   */\n      mstore\n        /* \"#utility.yul\":23803:23934   */\n      tag_756\n        /* \"#utility.yul\":23929:23933   */\n      dup2\n        /* \"#utility.yul\":23803:23934   */\n      tag_488\n      jump\t// in\n    tag_756:\n        /* \"#utility.yul\":23795:23934   */\n      swap1\n      pop\n        /* \"#utility.yul\":23522:23941   */\n      swap2\n      swap1\n      pop\n      jump\t// out\n        /* \"#utility.yul\":23947:24095   */\n    tag_489:\n        /* \"#utility.yul\":24049:24060   */\n      0x00\n        /* \"#utility.yul\":24086:24089   */\n      dup2\n        /* \"#utility.yul\":24071:24089   */\n      swap1\n      pop\n        /* \"#utility.yul\":23947:24095   */\n      swap3\n      swap2\n      pop\n      pop\n      jump\t// out\n        /* \"#utility.yul\":24101:24491   */\n    tag_490:\n        /* \"#utility.yul\":24207:24210   */\n      0x00\n        /* \"#utility.yul\":24235:24274   */\n      tag_759\n        /* \"#utility.yul\":24268:24273   */\n      dup3\n        /* \"#utility.yul\":24235:24274   */\n      tag_437\n      jump\t// in\n    tag_759:\n        /* \"#utility.yul\":24290:24379   */\n      tag_760\n        /* \"#utility.yul\":24372:24378   */\n      dup2\n        /* \"#utility.yul\":24367:24370   */\n      dup6\n        /* \"#utility.yul\":24290:24379   */\n      tag_489\n      jump\t// in\n    tag_760:\n        /* \"#utility.yul\":24283:24379   */\n      swap4\n      pop\n        /* \"#utility.yul\":24388:24453   */\n      tag_761\n        /* \"#utility.yul\":24446:24452   */\n      dup2\n        /* \"#utility.yul\":24441:24444   */\n      dup6\n        /* \"#utility.yul\":24434:24438   */\n      0x20\n        /* \"#utility.yul\":24427:24432   */\n      dup7\n        /* \"#utility.yul\":24423:24439   */\n      add\n        /* \"#utility.yul\":24388:24453   */\n      tag_439\n      jump\t// in\n    tag_761:\n        /* \"#utility.yul\":24478:24484   */\n      dup1\n        /* \"#utility.yul\":24473:24476   */\n      dup5\n        /* \"#utility.yul\":24469:24485   */\n      add\n        /* \"#utility.yul\":24462:24485   */\n      swap2\n      pop\n        /* \"#utility.yul\":24211:24491   */\n      pop\n        /* \"#utility.yul\":24101:24491   */\n      swap3\n      swap2\n      pop\n      pop\n      jump\t// out\n        /* \"#utility.yul\":24497:24932   */\n    tag_275:\n        /* \"#utility.yul\":24677:24680   */\n      0x00\n        /* \"#utility.yul\":24699:24794   */\n      tag_763\n        /* \"#utility.yul\":24790:24793   */\n      dup3\n        /* \"#utility.yul\":24781:24787   */\n      dup6\n        /* \"#utility.yul\":24699:24794   */\n      tag_490\n      jump\t// in\n    tag_763:\n        /* \"#utility.yul\":24692:24794   */\n      swap2\n      pop\n        /* \"#utility.yul\":24811:24906   */\n      tag_764\n        /* \"#utility.yul\":24902:24905   */\n      dup3\n        /* \"#utility.yul\":24893:24899   */\n      dup5\n        /* \"#utility.yul\":24811:24906   */\n      tag_490\n      jump\t// in\n    tag_764:\n        /* \"#utility.yul\":24804:24906   */\n      swap2\n      pop\n        /* \"#utility.yul\":24923:24926   */\n      dup2\n        /* \"#utility.yul\":24916:24926   */\n      swap1\n      pop\n        /* \"#utility.yul\":24497:24932   */\n      swap4\n      swap3\n      pop\n      pop\n      pop\n      jump\t// out\n        /* \"#utility.yul\":24938:25036   */\n    tag_491:\n        /* \"#utility.yul\":24989:24995   */\n      0x00\n        /* \"#utility.yul\":25023:25028   */\n      dup2\n        /* \"#utility.yul\":25017:25029   */\n      mload\n        /* \"#utility.yul\":25007:25029   */\n      swap1\n      pop\n        /* \"#utility.yul\":24938:25036   */\n      swap2\n      swap1\n      pop\n      jump\t// out\n        /* \"#utility.yul\":25042:25210   */\n    tag_492:\n        /* \"#utility.yul\":25125:25136   */\n      0x00\n        /* \"#utility.yul\":25159:25165   */\n      dup3\n        /* \"#utility.yul\":25154:25157   */\n      dup3\n        /* \"#utility.yul\":25147:25166   */\n      mstore\n        /* \"#utility.yul\":25199:25203   */\n      0x20\n        /* \"#utility.yul\":25194:25197   */\n      dup3\n        /* \"#utility.yul\":25190:25204   */\n      add\n        /* \"#utility.yul\":25175:25204   */\n      swap1\n      pop\n        /* \"#utility.yul\":25042:25210   */\n      swap3\n      swap2\n      pop\n      pop\n      jump\t// out\n        /* \"#utility.yul\":25216:25589   */\n    tag_493:\n        /* \"#utility.yul\":25302:25305   */\n      0x00\n        /* \"#utility.yul\":25330:25368   */\n      tag_768\n        /* \"#utility.yul\":25362:25367   */\n      dup3\n        /* \"#utility.yul\":25330:25368   */\n      tag_491\n      jump\t// in\n    tag_768:\n        /* \"#utility.yul\":25384:25454   */\n      tag_769\n        /* \"#utility.yul\":25447:25453   */\n      dup2\n        /* \"#utility.yul\":25442:25445   */\n      dup6\n        /* \"#utility.yul\":25384:25454   */\n      tag_492\n      jump\t// in\n    tag_769:\n        /* \"#utility.yul\":25377:25454   */\n      swap4\n      pop\n        /* \"#utility.yul\":25463:25528   */\n      tag_770\n        /* \"#utility.yul\":25521:25527   */\n      dup2\n        /* \"#utility.yul\":25516:25519   */\n      dup6\n        /* \"#utility.yul\":25509:25513   */\n      0x20\n        /* \"#utility.yul\":25502:25507   */\n      dup7\n        /* \"#utility.yul\":25498:25514   */\n      add\n        /* \"#utility.yul\":25463:25528   */\n      tag_439\n      jump\t// in\n    tag_770:\n        /* \"#utility.yul\":25553:25582   */\n      tag_771\n        /* \"#utility.yul\":25575:25581   */\n      dup2\n        /* \"#utility.yul\":25553:25582   */\n      tag_440\n      jump\t// in\n    tag_771:\n        /* \"#utility.yul\":25548:25551   */\n      dup5\n        /* \"#utility.yul\":25544:25583   */\n      add\n        /* \"#utility.yul\":25537:25583   */\n      swap2\n      pop\n        /* \"#utility.yul\":25306:25589   */\n      pop\n        /* \"#utility.yul\":25216:25589   */\n      swap3\n      swap2\n      pop\n      pop\n      jump\t// out\n        /* \"#utility.yul\":25595:26235   */\n    tag_335:\n        /* \"#utility.yul\":25790:25794   */\n      0x00\n        /* \"#utility.yul\":25828:25831   */\n      0x80\n        /* \"#utility.yul\":25817:25826   */\n      dup3\n        /* \"#utility.yul\":25813:25832   */\n      add\n        /* \"#utility.yul\":25805:25832   */\n      swap1\n      pop\n        /* \"#utility.yul\":25842:25913   */\n      tag_773\n        /* \"#utility.yul\":25910:25911   */\n      0x00\n        /* \"#utility.yul\":25899:25908   */\n      dup4\n        /* \"#utility.yul\":25895:25912   */\n      add\n        /* \"#utility.yul\":25886:25892   */\n      dup8\n        /* \"#utility.yul\":25842:25913   */\n      tag_447\n      jump\t// in\n    tag_773:\n        /* \"#utility.yul\":25923:25995   */\n      tag_774\n        /* \"#utility.yul\":25991:25993   */\n      0x20\n        /* \"#utility.yul\":25980:25989   */\n      dup4\n        /* \"#utility.yul\":25976:25994   */\n      add\n        /* \"#utility.yul\":25967:25973   */\n      dup7\n        /* \"#utility.yul\":25923:25995   */\n      tag_447\n      jump\t// in\n    tag_774:\n        /* \"#utility.yul\":26005:26077   */\n      tag_775\n        /* \"#utility.yul\":26073:26075   */\n      0x40\n        /* \"#utility.yul\":26062:26071   */\n      dup4\n        /* \"#utility.yul\":26058:26076   */\n      add\n        /* \"#utility.yul\":26049:26055   */\n      dup6\n        /* \"#utility.yul\":26005:26077   */\n      tag_450\n      jump\t// in\n    tag_775:\n        /* \"#utility.yul\":26124:26133   */\n      dup2\n        /* \"#utility.yul\":26118:26122   */\n      dup2\n        /* \"#utility.yul\":26114:26134   */\n      sub\n        /* \"#utility.yul\":26109:26111   */\n      0x60\n        /* \"#utility.yul\":26098:26107   */\n      dup4\n        /* \"#utility.yul\":26094:26112   */\n      add\n        /* \"#utility.yul\":26087:26135   */\n      mstore\n        /* \"#utility.yul\":26152:26228   */\n      tag_776\n        /* \"#utility.yul\":26223:26227   */\n      dup2\n        /* \"#utility.yul\":26214:26220   */\n      dup5\n        /* \"#utility.yul\":26152:26228   */\n      tag_493\n      jump\t// in\n    tag_776:\n        /* \"#utility.yul\":26144:26228   */\n      swap1\n      pop\n        /* \"#utility.yul\":25595:26235   */\n      swap6\n      swap5\n      pop\n      pop\n      pop\n      pop\n      pop\n      jump\t// out\n        /* \"#utility.yul\":26241:26382   */\n    tag_494:\n        /* \"#utility.yul\":26297:26302   */\n      0x00\n        /* \"#utility.yul\":26328:26334   */\n      dup2\n        /* \"#utility.yul\":26322:26335   */\n      mload\n        /* \"#utility.yul\":26313:26335   */\n      swap1\n      pop\n        /* \"#utility.yul\":26344:26376   */\n      tag_778\n        /* \"#utility.yul\":26370:26375   */\n      dup2\n        /* \"#utility.yul\":26344:26376   */\n      tag_433\n      jump\t// in\n    tag_778:\n        /* \"#utility.yul\":26241:26382   */\n      swap3\n      swap2\n      pop\n      pop\n      jump\t// out\n        /* \"#utility.yul\":26388:26737   */\n    tag_338:\n        /* \"#utility.yul\":26457:26463   */\n      0x00\n        /* \"#utility.yul\":26506:26508   */\n      0x20\n        /* \"#utility.yul\":26494:26503   */\n      dup3\n        /* \"#utility.yul\":26485:26492   */\n      dup5\n        /* \"#utility.yul\":26481:26504   */\n      sub\n        /* \"#utility.yul\":26477:26509   */\n      slt\n        /* \"#utility.yul\":26474:26593   */\n      iszero\n      tag_780\n      jumpi\n        /* \"#utility.yul\":26512:26591   */\n      tag_781\n      tag_430\n      jump\t// in\n    tag_781:\n        /* \"#utility.yul\":26474:26593   */\n    tag_780:\n        /* \"#utility.yul\":26632:26633   */\n      0x00\n        /* \"#utility.yul\":26657:26720   */\n      tag_782\n        /* \"#utility.yul\":26712:26719   */\n      dup5\n        /* \"#utility.yul\":26703:26709   */\n      dup3\n        /* \"#utility.yul\":26692:26701   */\n      dup6\n        /* \"#utility.yul\":26688:26710   */\n      add\n        /* \"#utility.yul\":26657:26720   */\n      tag_494\n      jump\t// in\n    tag_782:\n        /* \"#utility.yul\":26647:26720   */\n      swap2\n      pop\n        /* \"#utility.yul\":26603:26730   */\n      pop\n        /* \"#utility.yul\":26388:26737   */\n      swap3\n      swap2\n      pop\n      pop\n      jump\t// out\n\n    auxdata: 0xa2646970667358221220e7029830c710f6053b68b0206460caa2aae169741b9705f4dc0967f6cbd5b1a964736f6c63430008140033\n}\n",
				"bytecode": {
					"linkReferences": {},
					"object": "6080604052600a60095534801562000015575f80fd5b506040518060400160405280600681526020017f4d79204e667400000000000000000000000000000000000000000000000000008152506040518060400160405280600481526020017f4d4e465400000000000000000000000000000000000000000000000000000000815250815f908162000092919062000351565b508060019081620000a4919062000351565b50505033600a5f6101000a81548173ffffffffffffffffffffffffffffffffffffffff021916908373ffffffffffffffffffffffffffffffffffffffff16021790555062000435565b5f81519050919050565b7f4e487b71000000000000000000000000000000000000000000000000000000005f52604160045260245ffd5b7f4e487b71000000000000000000000000000000000000000000000000000000005f52602260045260245ffd5b5f60028204905060018216806200016957607f821691505b6020821081036200017f576200017e62000124565b5b50919050565b5f819050815f5260205f209050919050565b5f6020601f8301049050919050565b5f82821b905092915050565b5f60088302620001e37fffffffffffffffffffffffffffffffffffffffffffffffffffffffffffffffff82620001a6565b620001ef8683620001a6565b95508019841693508086168417925050509392505050565b5f819050919050565b5f819050919050565b5f62000239620002336200022d8462000207565b62000210565b62000207565b9050919050565b5f819050919050565b620002548362000219565b6200026c620002638262000240565b848454620001b2565b825550505050565b5f90565b6200028262000274565b6200028f81848462000249565b505050565b5b81811015620002b657620002aa5f8262000278565b60018101905062000295565b5050565b601f8211156200030557620002cf8162000185565b620002da8462000197565b81016020851015620002ea578190505b62000302620002f98562000197565b83018262000294565b50505b505050565b5f82821c905092915050565b5f620003275f19846008026200030a565b1980831691505092915050565b5f62000341838362000316565b9150826002028217905092915050565b6200035c82620000ed565b67ffffffffffffffff811115620003785762000377620000f7565b5b62000384825462000151565b62000391828285620002ba565b5f60209050601f831160018114620003c7575f8415620003b2578287015190505b620003be858262000334565b8655506200042d565b601f198416620003d78662000185565b5f5b828110156200040057848901518255600182019150602085019450602081019050620003d9565b868310156200042057848901516200041c601f89168262000316565b8355505b6001600288020188555050505b505050505050565b61319b80620004435f395ff3fe608060405260043610610180575f3560e01c806370a08231116100d0578063a90d14e211610089578063d547cfb711610063578063d547cfb7146105a6578063e985e9c5146105d0578063f2a413b51461060c578063f8b2cb4f1461064857610180565b8063a90d14e21461051a578063b88d4fde14610542578063c87b56dd1461056a57610180565b806370a082311461040a5780637d7f1f3e146104465780638a71bb2d1461048257806395d89b41146104ac578063a22cb465146104d6578063a37365e0146104fe57610180565b80632a55205a1161013d57806355f804b31161011757806355f804b3146103425780635a51a8851461036a5780635afa3a72146103a65780636352211e146103ce57610180565b80632a55205a146102b35780633d0673d4146102f057806342842e0e1461031a57610180565b806301ffc9a71461018457806306fdde03146101c0578063081812fc146101ea578063095ea7b31461022657806323b872dd1461024e578063265aa62114610276575b5f80fd5b34801561018f575f80fd5b506101aa60048036038101906101a591906123d2565b610684565b6040516101b79190612417565b60405180910390f35b3480156101cb575f80fd5b506101d46106e4565b6040516101e191906124ba565b60405180910390f35b3480156101f5575f80fd5b50610210600480360381019061020b919061250d565b610773565b60405161021d9190612577565b60405180910390f35b348015610231575f80fd5b5061024c600480360381019061024791906125ba565b61078e565b005b348015610259575f80fd5b50610274600480360381019061026f91906125f8565b6107a4565b005b348015610281575f80fd5b5061029c6004803603810190610297919061250d565b6108a3565b6040516102aa929190612657565b60405180910390f35b3480156102be575f80fd5b506102d960048036038101906102d4919061267e565b6108e2565b6040516102e7929190612657565b60405180910390f35b3480156102fb575f80fd5b50610304610930565b60405161031191906126bc565b60405180910390f35b348015610325575f80fd5b50610340600480360381019061033b91906125f8565b610940565b005b34801561034d575f80fd5b5061036860048036038101906103639190612801565b61095f565b005b348015610375575f80fd5b50610390600480360381019061038b919061250d565b610972565b60405161039d91906126bc565b60405180910390f35b3480156103b1575f80fd5b506103cc60048036038101906103c79190612848565b6109fd565b005b3480156103d9575f80fd5b506103f460048036038101906103ef919061250d565b610b1d565b6040516104019190612577565b60405180910390f35b348015610415575f80fd5b50610430600480360381019061042b91906128a2565b610b2e565b60405161043d91906126bc565b60405180910390f35b348015610451575f80fd5b5061046c6004803603810190610467919061250d565b610be4565b6040516104799190612417565b60405180910390f35b34801561048d575f80fd5b50610496610c52565b6040516104a391906126bc565b60405180910390f35b3480156104b7575f80fd5b506104c0610c58565b6040516104cd91906124ba565b60405180910390f35b3480156104e1575f80fd5b506104fc60048036038101906104f791906128f7565b610ce8565b005b6105186004803603810190610513919061250d565b610cfe565b005b348015610525575f80fd5b50610540600480360381019061053b919061250d565b610f58565b005b34801561054d575f80fd5b50610568600480360381019061056391906129d3565b611035565b005b348015610575575f80fd5b50610590600480360381019061058b919061250d565b611052565b60405161059d91906124ba565b60405180910390f35b3480156105b1575f80fd5b506105ba61115d565b6040516105c791906124ba565b60405180910390f35b3480156105db575f80fd5b506105f660048036038101906105f19190612a53565b6111e9565b6040516106039190612417565b60405180910390f35b348015610617575f80fd5b50610632600480360381019061062d919061250d565b611277565b60405161063f9190612417565b60405180910390f35b348015610653575f80fd5b5061066e600480360381019061066991906128a2565b6112e5565b60405161067b91906126bc565b60405180910390f35b5f634906490660e01b7bffffffffffffffffffffffffffffffffffffffffffffffffffffffff1916827bffffffffffffffffffffffffffffffffffffffffffffffffffffffff191614806106dd57506106dc82611305565b5b9050919050565b60605f80546106f290612abe565b80601f016020809104026020016040519081016040528092919081815260200182805461071e90612abe565b80156107695780601f1061074057610100808354040283529160200191610769565b820191905f5260205f20905b81548152906001019060200180831161074c57829003601f168201915b5050505050905090565b5f61077d826113e6565b506107878261146c565b9050919050565b6107a0828261079b6114a5565b6114ac565b5050565b5f73ffffffffffffffffffffffffffffffffffffffff168273ffffffffffffffffffffffffffffffffffffffff1603610814575f6040517f64a0ae9200000000000000000000000000000000000000000000000000000000815260040161080b9190612577565b60405180910390fd5b5f61082783836108226114a5565b6114be565b90508373ffffffffffffffffffffffffffffffffffffffff168173ffffffffffffffffffffffffffffffffffffffff161461089d578382826040517f64283d7b00000000000000000000000000000000000000000000000000000000815260040161089493929190612aee565b60405180910390fd5b50505050565b600d602052805f5260405f205f91509050805f015f9054906101000a900473ffffffffffffffffffffffffffffffffffffffff16908060010154905082565b5f805f6064600954856108f59190612b50565b6108ff9190612bbe565b9050600a5f9054906101000a900473ffffffffffffffffffffffffffffffffffffffff168192509250509250929050565b5f61093b60076116c9565b905090565b61095a83838360405180602001604052805f815250611035565b505050565b806008908161096e9190612d8b565b5050565b5f80600d5f8481526020019081526020015f206040518060400160405290815f82015f9054906101000a900473ffffffffffffffffffffffffffffffffffffffff1673ffffffffffffffffffffffffffffffffffffffff1673ffffffffffffffffffffffffffffffffffffffff16815260200160018201548152505090508060200151915050919050565b5f610a0860076116c9565b9050610a1433826116d5565b610a1e81846116f2565b60405180604001604052803373ffffffffffffffffffffffffffffffffffffffff16815260200183815250600d5f8381526020019081526020015f205f820151815f015f6101000a81548173ffffffffffffffffffffffffffffffffffffffff021916908373ffffffffffffffffffffffffffffffffffffffff160217905550602082015181600101559050505f600c5f3373ffffffffffffffffffffffffffffffffffffffff1673ffffffffffffffffffffffffffffffffffffffff1681526020019081526020015f205f8381526020019081526020015f205f6101000a81548160ff021916908315150217905550610b18600761174c565b505050565b5f610b27826113e6565b9050919050565b5f8073ffffffffffffffffffffffffffffffffffffffff168273ffffffffffffffffffffffffffffffffffffffff1603610b9f575f6040517f89c62b64000000000000000000000000000000000000000000000000000000008152600401610b969190612577565b60405180910390fd5b60035f8373ffffffffffffffffffffffffffffffffffffffff1673ffffffffffffffffffffffffffffffffffffffff1681526020019081526020015f20549050919050565b5f80610bef83610b1d565b9050600c5f8273ffffffffffffffffffffffffffffffffffffffff1673ffffffffffffffffffffffffffffffffffffffff1681526020019081526020015f205f8481526020019081526020015f205f9054906101000a900460ff16915050919050565b60095481565b606060018054610c6790612abe565b80601f0160208091040260200160405190810160405280929190818152602001828054610c9390612abe565b8015610cde5780601f10610cb557610100808354040283529160200191610cde565b820191905f5260205f20905b815481529060010190602001808311610cc157829003601f168201915b5050505050905090565b610cfa610cf36114a5565b8383611760565b5050565b5f610d0882610b1d565b905060011515600b5f8373ffffffffffffffffffffffffffffffffffffffff1673ffffffffffffffffffffffffffffffffffffffff1681526020019081526020015f205f8481526020019081526020015f205f9054906101000a900460ff16151514610da9576040517f08c379a0000000000000000000000000000000000000000000000000000000008152600401610da090612ea4565b60405180910390fd5b5f3390505f600d5f8581526020019081526020015f206001015490508173ffffffffffffffffffffffffffffffffffffffff168373ffffffffffffffffffffffffffffffffffffffff1603610e33576040517f08c379a0000000000000000000000000000000000000000000000000000000008152600401610e2a90612f0c565b60405180910390fd5b803414610e75576040517f08c379a0000000000000000000000000000000000000000000000000000000008152600401610e6c90612f74565b60405180910390fd5b610e808383866118c9565b5f606460095483610e919190612b50565b610e9b9190612bbe565b9050600a5f9054906101000a900473ffffffffffffffffffffffffffffffffffffffff1673ffffffffffffffffffffffffffffffffffffffff166108fc8290811502906040515f60405180830381858888f19350505050158015610f01573d5f803e3d5ffd5b508373ffffffffffffffffffffffffffffffffffffffff166108fc8284610f289190612f92565b90811502906040515f60405180830381858888f19350505050158015610f50573d5f803e3d5ffd5b505050505050565b610f6181610b1d565b73ffffffffffffffffffffffffffffffffffffffff163373ffffffffffffffffffffffffffffffffffffffff1614610fce576040517f08c379a0000000000000000000000000000000000000000000000000000000008152600401610fc59061300f565b60405180910390fd5b6001600b5f3373ffffffffffffffffffffffffffffffffffffffff1673ffffffffffffffffffffffffffffffffffffffff1681526020019081526020015f205f8381526020019081526020015f205f6101000a81548160ff02191690831515021790555050565b6110408484846107a4565b61104c84848484611a31565b50505050565b606061105d826113e6565b505f60065f8481526020019081526020015f20805461107b90612abe565b80601f01602080910402602001604051908101604052809291908181526020018280546110a790612abe565b80156110f25780601f106110c9576101008083540402835291602001916110f2565b820191905f5260205f20905b8154815290600101906020018083116110d557829003601f168201915b505050505090505f611102611be3565b90505f815103611116578192505050611158565b5f8251111561114a578082604051602001611132929190613067565b60405160208183030381529060405292505050611158565b61115384611bf9565b925050505b919050565b6008805461116a90612abe565b80601f016020809104026020016040519081016040528092919081815260200182805461119690612abe565b80156111e15780601f106111b8576101008083540402835291602001916111e1565b820191905f5260205f20905b8154815290600101906020018083116111c457829003601f168201915b505050505081565b5f60055f8473ffffffffffffffffffffffffffffffffffffffff1673ffffffffffffffffffffffffffffffffffffffff1681526020019081526020015f205f8373ffffffffffffffffffffffffffffffffffffffff1673ffffffffffffffffffffffffffffffffffffffff1681526020019081526020015f205f9054906101000a900460ff16905092915050565b5f8061128283610b1d565b9050600b5f8273ffffffffffffffffffffffffffffffffffffffff1673ffffffffffffffffffffffffffffffffffffffff1681526020019081526020015f205f8481526020019081526020015f205f9054906101000a900460ff16915050919050565b5f8173ffffffffffffffffffffffffffffffffffffffff16319050919050565b5f7f80ac58cd000000000000000000000000000000000000000000000000000000007bffffffffffffffffffffffffffffffffffffffffffffffffffffffff1916827bffffffffffffffffffffffffffffffffffffffffffffffffffffffff191614806113cf57507f5b5e139f000000000000000000000000000000000000000000000000000000007bffffffffffffffffffffffffffffffffffffffffffffffffffffffff1916827bffffffffffffffffffffffffffffffffffffffffffffffffffffffff1916145b806113df57506113de82611c5f565b5b9050919050565b5f806113f183611cc8565b90505f73ffffffffffffffffffffffffffffffffffffffff168173ffffffffffffffffffffffffffffffffffffffff160361146357826040517f7e27328900000000000000000000000000000000000000000000000000000000815260040161145a91906126bc565b60405180910390fd5b80915050919050565b5f60045f8381526020019081526020015f205f9054906101000a900473ffffffffffffffffffffffffffffffffffffffff169050919050565b5f33905090565b6114b98383836001611d01565b505050565b5f806114c984611cc8565b90505f73ffffffffffffffffffffffffffffffffffffffff168373ffffffffffffffffffffffffffffffffffffffff161461150a57611509818486611ec0565b5b5f73ffffffffffffffffffffffffffffffffffffffff168173ffffffffffffffffffffffffffffffffffffffff1614611595576115495f855f80611d01565b600160035f8373ffffffffffffffffffffffffffffffffffffffff1673ffffffffffffffffffffffffffffffffffffffff1681526020019081526020015f205f82825403925050819055505b5f73ffffffffffffffffffffffffffffffffffffffff168573ffffffffffffffffffffffffffffffffffffffff161461161457600160035f8773ffffffffffffffffffffffffffffffffffffffff1673ffffffffffffffffffffffffffffffffffffffff1681526020019081526020015f205f82825401925050819055505b8460025f8681526020019081526020015f205f6101000a81548173ffffffffffffffffffffffffffffffffffffffff021916908373ffffffffffffffffffffffffffffffffffffffff160217905550838573ffffffffffffffffffffffffffffffffffffffff168273ffffffffffffffffffffffffffffffffffffffff167fddf252ad1be2c89b69c2b068fc378daa952ba7f163c4a11628f55a4df523b3ef60405160405180910390a4809150509392505050565b5f815f01549050919050565b6116ee828260405180602001604052805f815250611f83565b5050565b8060065f8481526020019081526020015f2090816117109190612d8b565b507ff8e1a15aba9398e019f0b49df1a4fde98ee17ae345cb5f6b5e2c27f5033e8ce78260405161174091906126bc565b60405180910390a15050565b6001815f015f828254019250508190555050565b5f73ffffffffffffffffffffffffffffffffffffffff168273ffffffffffffffffffffffffffffffffffffffff16036117d057816040517f5b08ba180000000000000000000000000000000000000000000000000000000081526004016117c79190612577565b60405180910390fd5b8060055f8573ffffffffffffffffffffffffffffffffffffffff1673ffffffffffffffffffffffffffffffffffffffff1681526020019081526020015f205f8473ffffffffffffffffffffffffffffffffffffffff1673ffffffffffffffffffffffffffffffffffffffff1681526020019081526020015f205f6101000a81548160ff0219169083151502179055508173ffffffffffffffffffffffffffffffffffffffff168373ffffffffffffffffffffffffffffffffffffffff167f17307eab39ab6107e8899845ad3d59bd9653f200f220920489ca2b5937696c31836040516118bc9190612417565b60405180910390a3505050565b5f73ffffffffffffffffffffffffffffffffffffffff168273ffffffffffffffffffffffffffffffffffffffff1603611939575f6040517f64a0ae920000000000000000000000000000000000000000000000000000000081526004016119309190612577565b60405180910390fd5b5f61194583835f6114be565b90505f73ffffffffffffffffffffffffffffffffffffffff168173ffffffffffffffffffffffffffffffffffffffff16036119b757816040517f7e2732890000000000000000000000000000000000000000000000000000000081526004016119ae91906126bc565b60405180910390fd5b8373ffffffffffffffffffffffffffffffffffffffff168173ffffffffffffffffffffffffffffffffffffffff1614611a2b578382826040517f64283d7b000000000000000000000000000000000000000000000000000000008152600401611a2293929190612aee565b60405180910390fd5b50505050565b5f8373ffffffffffffffffffffffffffffffffffffffff163b1115611bdd578273ffffffffffffffffffffffffffffffffffffffff1663150b7a02611a746114a5565b8685856040518563ffffffff1660e01b8152600401611a9694939291906130dc565b6020604051808303815f875af1925050508015611ad157506040513d601f19601f82011682018060405250810190611ace919061313a565b60015b611b52573d805f8114611aff576040519150601f19603f3d011682016040523d82523d5f602084013e611b04565b606091505b505f815103611b4a57836040517f64a0ae92000000000000000000000000000000000000000000000000000000008152600401611b419190612577565b60405180910390fd5b805181602001fd5b63150b7a0260e01b7bffffffffffffffffffffffffffffffffffffffffffffffffffffffff1916817bffffffffffffffffffffffffffffffffffffffffffffffffffffffff191614611bdb57836040517f64a0ae92000000000000000000000000000000000000000000000000000000008152600401611bd29190612577565b60405180910390fd5b505b50505050565b606060405180602001604052805f815250905090565b6060611c04826113e6565b505f611c0e611be3565b90505f815111611c2c5760405180602001604052805f815250611c57565b80611c3684611f9e565b604051602001611c47929190613067565b6040516020818303038152906040525b915050919050565b5f7f01ffc9a7000000000000000000000000000000000000000000000000000000007bffffffffffffffffffffffffffffffffffffffffffffffffffffffff1916827bffffffffffffffffffffffffffffffffffffffffffffffffffffffff1916149050919050565b5f60025f8381526020019081526020015f205f9054906101000a900473ffffffffffffffffffffffffffffffffffffffff169050919050565b8080611d3957505f73ffffffffffffffffffffffffffffffffffffffff168273ffffffffffffffffffffffffffffffffffffffff1614155b15611e6b575f611d48846113e6565b90505f73ffffffffffffffffffffffffffffffffffffffff168373ffffffffffffffffffffffffffffffffffffffff1614158015611db257508273ffffffffffffffffffffffffffffffffffffffff168173ffffffffffffffffffffffffffffffffffffffff1614155b8015611dc55750611dc381846111e9565b155b15611e0757826040517fa9fbf51f000000000000000000000000000000000000000000000000000000008152600401611dfe9190612577565b60405180910390fd5b8115611e6957838573ffffffffffffffffffffffffffffffffffffffff168273ffffffffffffffffffffffffffffffffffffffff167f8c5be1e5ebec7d5bd14f71427d1e84f3dd0314c0f7b2291e5b200ac8c7c3b92560405160405180910390a45b505b8360045f8581526020019081526020015f205f6101000a81548173ffffffffffffffffffffffffffffffffffffffff021916908373ffffffffffffffffffffffffffffffffffffffff16021790555050505050565b611ecb838383612068565b611f7e575f73ffffffffffffffffffffffffffffffffffffffff168373ffffffffffffffffffffffffffffffffffffffff1603611f3f57806040517f7e273289000000000000000000000000000000000000000000000000000000008152600401611f3691906126bc565b60405180910390fd5b81816040517f177e802f000000000000000000000000000000000000000000000000000000008152600401611f75929190612657565b60405180910390fd5b505050565b611f8d8383612128565b611f995f848484611a31565b505050565b60605f6001611fac8461221b565b0190505f8167ffffffffffffffff811115611fca57611fc96126dd565b5b6040519080825280601f01601f191660200182016040528015611ffc5781602001600182028036833780820191505090505b5090505f82602001820190505b60011561205d578080600190039150507f3031323334353637383961626364656600000000000000000000000000000000600a86061a8153600a858161205257612051612b91565b5b0494505f8503612009575b819350505050919050565b5f8073ffffffffffffffffffffffffffffffffffffffff168373ffffffffffffffffffffffffffffffffffffffff161415801561211f57508273ffffffffffffffffffffffffffffffffffffffff168473ffffffffffffffffffffffffffffffffffffffff1614806120e057506120df84846111e9565b5b8061211e57508273ffffffffffffffffffffffffffffffffffffffff166121068361146c565b73ffffffffffffffffffffffffffffffffffffffff16145b5b90509392505050565b5f73ffffffffffffffffffffffffffffffffffffffff168273ffffffffffffffffffffffffffffffffffffffff1603612198575f6040517f64a0ae9200000000000000000000000000000000000000000000000000000000815260040161218f9190612577565b60405180910390fd5b5f6121a483835f6114be565b90505f73ffffffffffffffffffffffffffffffffffffffff168173ffffffffffffffffffffffffffffffffffffffff1614612216575f6040517f73c6ac6e00000000000000000000000000000000000000000000000000000000815260040161220d9190612577565b60405180910390fd5b505050565b5f805f90507a184f03e93ff9f4daa797ed6e38ed64bf6a1f0100000000000000008310612277577a184f03e93ff9f4daa797ed6e38ed64bf6a1f010000000000000000838161226d5761226c612b91565b5b0492506040810190505b6d04ee2d6d415b85acef810000000083106122b4576d04ee2d6d415b85acef810000000083816122aa576122a9612b91565b5b0492506020810190505b662386f26fc1000083106122e357662386f26fc1000083816122d9576122d8612b91565b5b0492506010810190505b6305f5e100831061230c576305f5e100838161230257612301612b91565b5b0492506008810190505b612710831061233157612710838161232757612326612b91565b5b0492506004810190505b60648310612354576064838161234a57612349612b91565b5b0492506002810190505b600a8310612363576001810190505b80915050919050565b5f604051905090565b5f80fd5b5f80fd5b5f7fffffffff0000000000000000000000000000000000000000000000000000000082169050919050565b6123b18161237d565b81146123bb575f80fd5b50565b5f813590506123cc816123a8565b92915050565b5f602082840312156123e7576123e6612375565b5b5f6123f4848285016123be565b91505092915050565b5f8115159050919050565b612411816123fd565b82525050565b5f60208201905061242a5f830184612408565b92915050565b5f81519050919050565b5f82825260208201905092915050565b5f5b8381101561246757808201518184015260208101905061244c565b5f8484015250505050565b5f601f19601f8301169050919050565b5f61248c82612430565b612496818561243a565b93506124a681856020860161244a565b6124af81612472565b840191505092915050565b5f6020820190508181035f8301526124d28184612482565b905092915050565b5f819050919050565b6124ec816124da565b81146124f6575f80fd5b50565b5f81359050612507816124e3565b92915050565b5f6020828403121561252257612521612375565b5b5f61252f848285016124f9565b91505092915050565b5f73ffffffffffffffffffffffffffffffffffffffff82169050919050565b5f61256182612538565b9050919050565b61257181612557565b82525050565b5f60208201905061258a5f830184612568565b92915050565b61259981612557565b81146125a3575f80fd5b50565b5f813590506125b481612590565b92915050565b5f80604083850312156125d0576125cf612375565b5b5f6125dd858286016125a6565b92505060206125ee858286016124f9565b9150509250929050565b5f805f6060848603121561260f5761260e612375565b5b5f61261c868287016125a6565b935050602061262d868287016125a6565b925050604061263e868287016124f9565b9150509250925092565b612651816124da565b82525050565b5f60408201905061266a5f830185612568565b6126776020830184612648565b9392505050565b5f806040838503121561269457612693612375565b5b5f6126a1858286016124f9565b92505060206126b2858286016124f9565b9150509250929050565b5f6020820190506126cf5f830184612648565b92915050565b5f80fd5b5f80fd5b7f4e487b71000000000000000000000000000000000000000000000000000000005f52604160045260245ffd5b61271382612472565b810181811067ffffffffffffffff82111715612732576127316126dd565b5b80604052505050565b5f61274461236c565b9050612750828261270a565b919050565b5f67ffffffffffffffff82111561276f5761276e6126dd565b5b61277882612472565b9050602081019050919050565b828183375f83830152505050565b5f6127a56127a084612755565b61273b565b9050828152602081018484840111156127c1576127c06126d9565b5b6127cc848285612785565b509392505050565b5f82601f8301126127e8576127e76126d5565b5b81356127f8848260208601612793565b91505092915050565b5f6020828403121561281657612815612375565b5b5f82013567ffffffffffffffff81111561283357612832612379565b5b61283f848285016127d4565b91505092915050565b5f806040838503121561285e5761285d612375565b5b5f83013567ffffffffffffffff81111561287b5761287a612379565b5b612887858286016127d4565b9250506020612898858286016124f9565b9150509250929050565b5f602082840312156128b7576128b6612375565b5b5f6128c4848285016125a6565b91505092915050565b6128d6816123fd565b81146128e0575f80fd5b50565b5f813590506128f1816128cd565b92915050565b5f806040838503121561290d5761290c612375565b5b5f61291a858286016125a6565b925050602061292b858286016128e3565b9150509250929050565b5f67ffffffffffffffff82111561294f5761294e6126dd565b5b61295882612472565b9050602081019050919050565b5f61297761297284612935565b61273b565b905082815260208101848484011115612993576129926126d9565b5b61299e848285612785565b509392505050565b5f82601f8301126129ba576129b96126d5565b5b81356129ca848260208601612965565b91505092915050565b5f805f80608085870312156129eb576129ea612375565b5b5f6129f8878288016125a6565b9450506020612a09878288016125a6565b9350506040612a1a878288016124f9565b925050606085013567ffffffffffffffff811115612a3b57612a3a612379565b5b612a47878288016129a6565b91505092959194509250565b5f8060408385031215612a6957612a68612375565b5b5f612a76858286016125a6565b9250506020612a87858286016125a6565b9150509250929050565b7f4e487b71000000000000000000000000000000000000000000000000000000005f52602260045260245ffd5b5f6002820490506001821680612ad557607f821691505b602082108103612ae857612ae7612a91565b5b50919050565b5f606082019050612b015f830186612568565b612b0e6020830185612648565b612b1b6040830184612568565b949350505050565b7f4e487b71000000000000000000000000000000000000000000000000000000005f52601160045260245ffd5b5f612b5a826124da565b9150612b65836124da565b9250828202612b73816124da565b91508282048414831517612b8a57612b89612b23565b5b5092915050565b7f4e487b71000000000000000000000000000000000000000000000000000000005f52601260045260245ffd5b5f612bc8826124da565b9150612bd3836124da565b925082612be357612be2612b91565b5b828204905092915050565b5f819050815f5260205f209050919050565b5f6020601f8301049050919050565b5f82821b905092915050565b5f60088302612c4a7fffffffffffffffffffffffffffffffffffffffffffffffffffffffffffffffff82612c0f565b612c548683612c0f565b95508019841693508086168417925050509392505050565b5f819050919050565b5f612c8f612c8a612c85846124da565b612c6c565b6124da565b9050919050565b5f819050919050565b612ca883612c75565b612cbc612cb482612c96565b848454612c1b565b825550505050565b5f90565b612cd0612cc4565b612cdb818484612c9f565b505050565b5b81811015612cfe57612cf35f82612cc8565b600181019050612ce1565b5050565b601f821115612d4357612d1481612bee565b612d1d84612c00565b81016020851015612d2c578190505b612d40612d3885612c00565b830182612ce0565b50505b505050565b5f82821c905092915050565b5f612d635f1984600802612d48565b1980831691505092915050565b5f612d7b8383612d54565b9150826002028217905092915050565b612d9482612430565b67ffffffffffffffff811115612dad57612dac6126dd565b5b612db78254612abe565b612dc2828285612d02565b5f60209050601f831160018114612df3575f8415612de1578287015190505b612deb8582612d70565b865550612e52565b601f198416612e0186612bee565b5f5b82811015612e2857848901518255600182019150602085019450602081019050612e03565b86831015612e455784890151612e41601f891682612d54565b8355505b6001600288020188555050505b505050505050565b7f546f6b656e206973206e6f742061742073616c650000000000000000000000005f82015250565b5f612e8e60148361243a565b9150612e9982612e5a565b602082019050919050565b5f6020820190508181035f830152612ebb81612e82565b9050919050565b7f43616e6e6f742062757920796f7572206f776e204e46540000000000000000005f82015250565b5f612ef660178361243a565b9150612f0182612ec2565b602082019050919050565b5f6020820190508181035f830152612f2381612eea565b9050919050565b7f537570706c792045786163742066756e640000000000000000000000000000005f82015250565b5f612f5e60118361243a565b9150612f6982612f2a565b602082019050919050565b5f6020820190508181035f830152612f8b81612f52565b9050919050565b5f612f9c826124da565b9150612fa7836124da565b9250828203905081811115612fbf57612fbe612b23565b5b92915050565b7f596f75722061726520417574686f72697a6520746f2073656c6c0000000000005f82015250565b5f612ff9601a8361243a565b915061300482612fc5565b602082019050919050565b5f6020820190508181035f83015261302681612fed565b9050919050565b5f81905092915050565b5f61304182612430565b61304b818561302d565b935061305b81856020860161244a565b80840191505092915050565b5f6130728285613037565b915061307e8284613037565b91508190509392505050565b5f81519050919050565b5f82825260208201905092915050565b5f6130ae8261308a565b6130b88185613094565b93506130c881856020860161244a565b6130d181612472565b840191505092915050565b5f6080820190506130ef5f830187612568565b6130fc6020830186612568565b6131096040830185612648565b818103606083015261311b81846130a4565b905095945050505050565b5f81519050613134816123a8565b92915050565b5f6020828403121561314f5761314e612375565b5b5f61315c84828501613126565b9150509291505056fea2646970667358221220e7029830c710f6053b68b0206460caa2aae169741b9705f4dc0967f6cbd5b1a964736f6c63430008140033",
					"opcodes": "PUSH1 0x80 PUSH1 0x40 MSTORE PUSH1 0xA PUSH1 0x9 SSTORE CALLVALUE DUP1 ISZERO PUSH3 0x15 JUMPI PUSH0 DUP1 REVERT JUMPDEST POP PUSH1 0x40 MLOAD DUP1 PUSH1 0x40 ADD PUSH1 0x40 MSTORE DUP1 PUSH1 0x6 DUP2 MSTORE PUSH1 0x20 ADD PUSH32 0x4D79204E66740000000000000000000000000000000000000000000000000000 DUP2 MSTORE POP PUSH1 0x40 MLOAD DUP1 PUSH1 0x40 ADD PUSH1 0x40 MSTORE DUP1 PUSH1 0x4 DUP2 MSTORE PUSH1 0x20 ADD PUSH32 0x4D4E465400000000000000000000000000000000000000000000000000000000 DUP2 MSTORE POP DUP2 PUSH0 SWAP1 DUP2 PUSH3 0x92 SWAP2 SWAP1 PUSH3 0x351 JUMP JUMPDEST POP DUP1 PUSH1 0x1 SWAP1 DUP2 PUSH3 0xA4 SWAP2 SWAP1 PUSH3 0x351 JUMP JUMPDEST POP POP POP CALLER PUSH1 0xA PUSH0 PUSH2 0x100 EXP DUP2 SLOAD DUP2 PUSH20 0xFFFFFFFFFFFFFFFFFFFFFFFFFFFFFFFFFFFFFFFF MUL NOT AND SWAP1 DUP4 PUSH20 0xFFFFFFFFFFFFFFFFFFFFFFFFFFFFFFFFFFFFFFFF AND MUL OR SWAP1 SSTORE POP PUSH3 0x435 JUMP JUMPDEST PUSH0 DUP2 MLOAD SWAP1 POP SWAP2 SWAP1 POP JUMP JUMPDEST PUSH32 0x4E487B7100000000000000000000000000000000000000000000000000000000 PUSH0 MSTORE PUSH1 0x41 PUSH1 0x4 MSTORE PUSH1 0x24 PUSH0 REVERT JUMPDEST PUSH32 0x4E487B7100000000000000000000000000000000000000000000000000000000 PUSH0 MSTORE PUSH1 0x22 PUSH1 0x4 MSTORE PUSH1 0x24 PUSH0 REVERT JUMPDEST PUSH0 PUSH1 0x2 DUP3 DIV SWAP1 POP PUSH1 0x1 DUP3 AND DUP1 PUSH3 0x169 JUMPI PUSH1 0x7F DUP3 AND SWAP2 POP JUMPDEST PUSH1 0x20 DUP3 LT DUP2 SUB PUSH3 0x17F JUMPI PUSH3 0x17E PUSH3 0x124 JUMP JUMPDEST JUMPDEST POP SWAP2 SWAP1 POP JUMP JUMPDEST PUSH0 DUP2 SWAP1 POP DUP2 PUSH0 MSTORE PUSH1 0x20 PUSH0 KECCAK256 SWAP1 POP SWAP2 SWAP1 POP JUMP JUMPDEST PUSH0 PUSH1 0x20 PUSH1 0x1F DUP4 ADD DIV SWAP1 POP SWAP2 SWAP1 POP JUMP JUMPDEST PUSH0 DUP3 DUP3 SHL SWAP1 POP SWAP3 SWAP2 POP POP JUMP JUMPDEST PUSH0 PUSH1 0x8 DUP4 MUL PUSH3 0x1E3 PUSH32 0xFFFFFFFFFFFFFFFFFFFFFFFFFFFFFFFFFFFFFFFFFFFFFFFFFFFFFFFFFFFFFFFF DUP3 PUSH3 0x1A6 JUMP JUMPDEST PUSH3 0x1EF DUP7 DUP4 PUSH3 0x1A6 JUMP JUMPDEST SWAP6 POP DUP1 NOT DUP5 AND SWAP4 POP DUP1 DUP7 AND DUP5 OR SWAP3 POP POP POP SWAP4 SWAP3 POP POP POP JUMP JUMPDEST PUSH0 DUP2 SWAP1 POP SWAP2 SWAP1 POP JUMP JUMPDEST PUSH0 DUP2 SWAP1 POP SWAP2 SWAP1 POP JUMP JUMPDEST PUSH0 PUSH3 0x239 PUSH3 0x233 PUSH3 0x22D DUP5 PUSH3 0x207 JUMP JUMPDEST PUSH3 0x210 JUMP JUMPDEST PUSH3 0x207 JUMP JUMPDEST SWAP1 POP SWAP2 SWAP1 POP JUMP JUMPDEST PUSH0 DUP2 SWAP1 POP SWAP2 SWAP1 POP JUMP JUMPDEST PUSH3 0x254 DUP4 PUSH3 0x219 JUMP JUMPDEST PUSH3 0x26C PUSH3 0x263 DUP3 PUSH3 0x240 JUMP JUMPDEST DUP5 DUP5 SLOAD PUSH3 0x1B2 JUMP JUMPDEST DUP3 SSTORE POP POP POP POP JUMP JUMPDEST PUSH0 SWAP1 JUMP JUMPDEST PUSH3 0x282 PUSH3 0x274 JUMP JUMPDEST PUSH3 0x28F DUP2 DUP5 DUP5 PUSH3 0x249 JUMP JUMPDEST POP POP POP JUMP JUMPDEST JUMPDEST DUP2 DUP2 LT ISZERO PUSH3 0x2B6 JUMPI PUSH3 0x2AA PUSH0 DUP3 PUSH3 0x278 JUMP JUMPDEST PUSH1 0x1 DUP2 ADD SWAP1 POP PUSH3 0x295 JUMP JUMPDEST POP POP JUMP JUMPDEST PUSH1 0x1F DUP3 GT ISZERO PUSH3 0x305 JUMPI PUSH3 0x2CF DUP2 PUSH3 0x185 JUMP JUMPDEST PUSH3 0x2DA DUP5 PUSH3 0x197 JUMP JUMPDEST DUP2 ADD PUSH1 0x20 DUP6 LT ISZERO PUSH3 0x2EA JUMPI DUP2 SWAP1 POP JUMPDEST PUSH3 0x302 PUSH3 0x2F9 DUP6 PUSH3 0x197 JUMP JUMPDEST DUP4 ADD DUP3 PUSH3 0x294 JUMP JUMPDEST POP POP JUMPDEST POP POP POP JUMP JUMPDEST PUSH0 DUP3 DUP3 SHR SWAP1 POP SWAP3 SWAP2 POP POP JUMP JUMPDEST PUSH0 PUSH3 0x327 PUSH0 NOT DUP5 PUSH1 0x8 MUL PUSH3 0x30A JUMP JUMPDEST NOT DUP1 DUP4 AND SWAP2 POP POP SWAP3 SWAP2 POP POP JUMP JUMPDEST PUSH0 PUSH3 0x341 DUP4 DUP4 PUSH3 0x316 JUMP JUMPDEST SWAP2 POP DUP3 PUSH1 0x2 MUL DUP3 OR SWAP1 POP SWAP3 SWAP2 POP POP JUMP JUMPDEST PUSH3 0x35C DUP3 PUSH3 0xED JUMP JUMPDEST PUSH8 0xFFFFFFFFFFFFFFFF DUP2 GT ISZERO PUSH3 0x378 JUMPI PUSH3 0x377 PUSH3 0xF7 JUMP JUMPDEST JUMPDEST PUSH3 0x384 DUP3 SLOAD PUSH3 0x151 JUMP JUMPDEST PUSH3 0x391 DUP3 DUP3 DUP6 PUSH3 0x2BA JUMP JUMPDEST PUSH0 PUSH1 0x20 SWAP1 POP PUSH1 0x1F DUP4 GT PUSH1 0x1 DUP2 EQ PUSH3 0x3C7 JUMPI PUSH0 DUP5 ISZERO PUSH3 0x3B2 JUMPI DUP3 DUP8 ADD MLOAD SWAP1 POP JUMPDEST PUSH3 0x3BE DUP6 DUP3 PUSH3 0x334 JUMP JUMPDEST DUP7 SSTORE POP PUSH3 0x42D JUMP JUMPDEST PUSH1 0x1F NOT DUP5 AND PUSH3 0x3D7 DUP7 PUSH3 0x185 JUMP JUMPDEST PUSH0 JUMPDEST DUP3 DUP2 LT ISZERO PUSH3 0x400 JUMPI DUP5 DUP10 ADD MLOAD DUP3 SSTORE PUSH1 0x1 DUP3 ADD SWAP2 POP PUSH1 0x20 DUP6 ADD SWAP5 POP PUSH1 0x20 DUP2 ADD SWAP1 POP PUSH3 0x3D9 JUMP JUMPDEST DUP7 DUP4 LT ISZERO PUSH3 0x420 JUMPI DUP5 DUP10 ADD MLOAD PUSH3 0x41C PUSH1 0x1F DUP10 AND DUP3 PUSH3 0x316 JUMP JUMPDEST DUP4 SSTORE POP JUMPDEST PUSH1 0x1 PUSH1 0x2 DUP9 MUL ADD DUP9 SSTORE POP POP POP JUMPDEST POP POP POP POP POP POP JUMP JUMPDEST PUSH2 0x319B DUP1 PUSH3 0x443 PUSH0 CODECOPY PUSH0 RETURN INVALID PUSH1 0x80 PUSH1 0x40 MSTORE PUSH1 0x4 CALLDATASIZE LT PUSH2 0x180 JUMPI PUSH0 CALLDATALOAD PUSH1 0xE0 SHR DUP1 PUSH4 0x70A08231 GT PUSH2 0xD0 JUMPI DUP1 PUSH4 0xA90D14E2 GT PUSH2 0x89 JUMPI DUP1 PUSH4 0xD547CFB7 GT PUSH2 0x63 JUMPI DUP1 PUSH4 0xD547CFB7 EQ PUSH2 0x5A6 JUMPI DUP1 PUSH4 0xE985E9C5 EQ PUSH2 0x5D0 JUMPI DUP1 PUSH4 0xF2A413B5 EQ PUSH2 0x60C JUMPI DUP1 PUSH4 0xF8B2CB4F EQ PUSH2 0x648 JUMPI PUSH2 0x180 JUMP JUMPDEST DUP1 PUSH4 0xA90D14E2 EQ PUSH2 0x51A JUMPI DUP1 PUSH4 0xB88D4FDE EQ PUSH2 0x542 JUMPI DUP1 PUSH4 0xC87B56DD EQ PUSH2 0x56A JUMPI PUSH2 0x180 JUMP JUMPDEST DUP1 PUSH4 0x70A08231 EQ PUSH2 0x40A JUMPI DUP1 PUSH4 0x7D7F1F3E EQ PUSH2 0x446 JUMPI DUP1 PUSH4 0x8A71BB2D EQ PUSH2 0x482 JUMPI DUP1 PUSH4 0x95D89B41 EQ PUSH2 0x4AC JUMPI DUP1 PUSH4 0xA22CB465 EQ PUSH2 0x4D6 JUMPI DUP1 PUSH4 0xA37365E0 EQ PUSH2 0x4FE JUMPI PUSH2 0x180 JUMP JUMPDEST DUP1 PUSH4 0x2A55205A GT PUSH2 0x13D JUMPI DUP1 PUSH4 0x55F804B3 GT PUSH2 0x117 JUMPI DUP1 PUSH4 0x55F804B3 EQ PUSH2 0x342 JUMPI DUP1 PUSH4 0x5A51A885 EQ PUSH2 0x36A JUMPI DUP1 PUSH4 0x5AFA3A72 EQ PUSH2 0x3A6 JUMPI DUP1 PUSH4 0x6352211E EQ PUSH2 0x3CE JUMPI PUSH2 0x180 JUMP JUMPDEST DUP1 PUSH4 0x2A55205A EQ PUSH2 0x2B3 JUMPI DUP1 PUSH4 0x3D0673D4 EQ PUSH2 0x2F0 JUMPI DUP1 PUSH4 0x42842E0E EQ PUSH2 0x31A JUMPI PUSH2 0x180 JUMP JUMPDEST DUP1 PUSH4 0x1FFC9A7 EQ PUSH2 0x184 JUMPI DUP1 PUSH4 0x6FDDE03 EQ PUSH2 0x1C0 JUMPI DUP1 PUSH4 0x81812FC EQ PUSH2 0x1EA JUMPI DUP1 PUSH4 0x95EA7B3 EQ PUSH2 0x226 JUMPI DUP1 PUSH4 0x23B872DD EQ PUSH2 0x24E JUMPI DUP1 PUSH4 0x265AA621 EQ PUSH2 0x276 JUMPI JUMPDEST PUSH0 DUP1 REVERT JUMPDEST CALLVALUE DUP1 ISZERO PUSH2 0x18F JUMPI PUSH0 DUP1 REVERT JUMPDEST POP PUSH2 0x1AA PUSH1 0x4 DUP1 CALLDATASIZE SUB DUP2 ADD SWAP1 PUSH2 0x1A5 SWAP2 SWAP1 PUSH2 0x23D2 JUMP JUMPDEST PUSH2 0x684 JUMP JUMPDEST PUSH1 0x40 MLOAD PUSH2 0x1B7 SWAP2 SWAP1 PUSH2 0x2417 JUMP JUMPDEST PUSH1 0x40 MLOAD DUP1 SWAP2 SUB SWAP1 RETURN JUMPDEST CALLVALUE DUP1 ISZERO PUSH2 0x1CB JUMPI PUSH0 DUP1 REVERT JUMPDEST POP PUSH2 0x1D4 PUSH2 0x6E4 JUMP JUMPDEST PUSH1 0x40 MLOAD PUSH2 0x1E1 SWAP2 SWAP1 PUSH2 0x24BA JUMP JUMPDEST PUSH1 0x40 MLOAD DUP1 SWAP2 SUB SWAP1 RETURN JUMPDEST CALLVALUE DUP1 ISZERO PUSH2 0x1F5 JUMPI PUSH0 DUP1 REVERT JUMPDEST POP PUSH2 0x210 PUSH1 0x4 DUP1 CALLDATASIZE SUB DUP2 ADD SWAP1 PUSH2 0x20B SWAP2 SWAP1 PUSH2 0x250D JUMP JUMPDEST PUSH2 0x773 JUMP JUMPDEST PUSH1 0x40 MLOAD PUSH2 0x21D SWAP2 SWAP1 PUSH2 0x2577 JUMP JUMPDEST PUSH1 0x40 MLOAD DUP1 SWAP2 SUB SWAP1 RETURN JUMPDEST CALLVALUE DUP1 ISZERO PUSH2 0x231 JUMPI PUSH0 DUP1 REVERT JUMPDEST POP PUSH2 0x24C PUSH1 0x4 DUP1 CALLDATASIZE SUB DUP2 ADD SWAP1 PUSH2 0x247 SWAP2 SWAP1 PUSH2 0x25BA JUMP JUMPDEST PUSH2 0x78E JUMP JUMPDEST STOP JUMPDEST CALLVALUE DUP1 ISZERO PUSH2 0x259 JUMPI PUSH0 DUP1 REVERT JUMPDEST POP PUSH2 0x274 PUSH1 0x4 DUP1 CALLDATASIZE SUB DUP2 ADD SWAP1 PUSH2 0x26F SWAP2 SWAP1 PUSH2 0x25F8 JUMP JUMPDEST PUSH2 0x7A4 JUMP JUMPDEST STOP JUMPDEST CALLVALUE DUP1 ISZERO PUSH2 0x281 JUMPI PUSH0 DUP1 REVERT JUMPDEST POP PUSH2 0x29C PUSH1 0x4 DUP1 CALLDATASIZE SUB DUP2 ADD SWAP1 PUSH2 0x297 SWAP2 SWAP1 PUSH2 0x250D JUMP JUMPDEST PUSH2 0x8A3 JUMP JUMPDEST PUSH1 0x40 MLOAD PUSH2 0x2AA SWAP3 SWAP2 SWAP1 PUSH2 0x2657 JUMP JUMPDEST PUSH1 0x40 MLOAD DUP1 SWAP2 SUB SWAP1 RETURN JUMPDEST CALLVALUE DUP1 ISZERO PUSH2 0x2BE JUMPI PUSH0 DUP1 REVERT JUMPDEST POP PUSH2 0x2D9 PUSH1 0x4 DUP1 CALLDATASIZE SUB DUP2 ADD SWAP1 PUSH2 0x2D4 SWAP2 SWAP1 PUSH2 0x267E JUMP JUMPDEST PUSH2 0x8E2 JUMP JUMPDEST PUSH1 0x40 MLOAD PUSH2 0x2E7 SWAP3 SWAP2 SWAP1 PUSH2 0x2657 JUMP JUMPDEST PUSH1 0x40 MLOAD DUP1 SWAP2 SUB SWAP1 RETURN JUMPDEST CALLVALUE DUP1 ISZERO PUSH2 0x2FB JUMPI PUSH0 DUP1 REVERT JUMPDEST POP PUSH2 0x304 PUSH2 0x930 JUMP JUMPDEST PUSH1 0x40 MLOAD PUSH2 0x311 SWAP2 SWAP1 PUSH2 0x26BC JUMP JUMPDEST PUSH1 0x40 MLOAD DUP1 SWAP2 SUB SWAP1 RETURN JUMPDEST CALLVALUE DUP1 ISZERO PUSH2 0x325 JUMPI PUSH0 DUP1 REVERT JUMPDEST POP PUSH2 0x340 PUSH1 0x4 DUP1 CALLDATASIZE SUB DUP2 ADD SWAP1 PUSH2 0x33B SWAP2 SWAP1 PUSH2 0x25F8 JUMP JUMPDEST PUSH2 0x940 JUMP JUMPDEST STOP JUMPDEST CALLVALUE DUP1 ISZERO PUSH2 0x34D JUMPI PUSH0 DUP1 REVERT JUMPDEST POP PUSH2 0x368 PUSH1 0x4 DUP1 CALLDATASIZE SUB DUP2 ADD SWAP1 PUSH2 0x363 SWAP2 SWAP1 PUSH2 0x2801 JUMP JUMPDEST PUSH2 0x95F JUMP JUMPDEST STOP JUMPDEST CALLVALUE DUP1 ISZERO PUSH2 0x375 JUMPI PUSH0 DUP1 REVERT JUMPDEST POP PUSH2 0x390 PUSH1 0x4 DUP1 CALLDATASIZE SUB DUP2 ADD SWAP1 PUSH2 0x38B SWAP2 SWAP1 PUSH2 0x250D JUMP JUMPDEST PUSH2 0x972 JUMP JUMPDEST PUSH1 0x40 MLOAD PUSH2 0x39D SWAP2 SWAP1 PUSH2 0x26BC JUMP JUMPDEST PUSH1 0x40 MLOAD DUP1 SWAP2 SUB SWAP1 RETURN JUMPDEST CALLVALUE DUP1 ISZERO PUSH2 0x3B1 JUMPI PUSH0 DUP1 REVERT JUMPDEST POP PUSH2 0x3CC PUSH1 0x4 DUP1 CALLDATASIZE SUB DUP2 ADD SWAP1 PUSH2 0x3C7 SWAP2 SWAP1 PUSH2 0x2848 JUMP JUMPDEST PUSH2 0x9FD JUMP JUMPDEST STOP JUMPDEST CALLVALUE DUP1 ISZERO PUSH2 0x3D9 JUMPI PUSH0 DUP1 REVERT JUMPDEST POP PUSH2 0x3F4 PUSH1 0x4 DUP1 CALLDATASIZE SUB DUP2 ADD SWAP1 PUSH2 0x3EF SWAP2 SWAP1 PUSH2 0x250D JUMP JUMPDEST PUSH2 0xB1D JUMP JUMPDEST PUSH1 0x40 MLOAD PUSH2 0x401 SWAP2 SWAP1 PUSH2 0x2577 JUMP JUMPDEST PUSH1 0x40 MLOAD DUP1 SWAP2 SUB SWAP1 RETURN JUMPDEST CALLVALUE DUP1 ISZERO PUSH2 0x415 JUMPI PUSH0 DUP1 REVERT JUMPDEST POP PUSH2 0x430 PUSH1 0x4 DUP1 CALLDATASIZE SUB DUP2 ADD SWAP1 PUSH2 0x42B SWAP2 SWAP1 PUSH2 0x28A2 JUMP JUMPDEST PUSH2 0xB2E JUMP JUMPDEST PUSH1 0x40 MLOAD PUSH2 0x43D SWAP2 SWAP1 PUSH2 0x26BC JUMP JUMPDEST PUSH1 0x40 MLOAD DUP1 SWAP2 SUB SWAP1 RETURN JUMPDEST CALLVALUE DUP1 ISZERO PUSH2 0x451 JUMPI PUSH0 DUP1 REVERT JUMPDEST POP PUSH2 0x46C PUSH1 0x4 DUP1 CALLDATASIZE SUB DUP2 ADD SWAP1 PUSH2 0x467 SWAP2 SWAP1 PUSH2 0x250D JUMP JUMPDEST PUSH2 0xBE4 JUMP JUMPDEST PUSH1 0x40 MLOAD PUSH2 0x479 SWAP2 SWAP1 PUSH2 0x2417 JUMP JUMPDEST PUSH1 0x40 MLOAD DUP1 SWAP2 SUB SWAP1 RETURN JUMPDEST CALLVALUE DUP1 ISZERO PUSH2 0x48D JUMPI PUSH0 DUP1 REVERT JUMPDEST POP PUSH2 0x496 PUSH2 0xC52 JUMP JUMPDEST PUSH1 0x40 MLOAD PUSH2 0x4A3 SWAP2 SWAP1 PUSH2 0x26BC JUMP JUMPDEST PUSH1 0x40 MLOAD DUP1 SWAP2 SUB SWAP1 RETURN JUMPDEST CALLVALUE DUP1 ISZERO PUSH2 0x4B7 JUMPI PUSH0 DUP1 REVERT JUMPDEST POP PUSH2 0x4C0 PUSH2 0xC58 JUMP JUMPDEST PUSH1 0x40 MLOAD PUSH2 0x4CD SWAP2 SWAP1 PUSH2 0x24BA JUMP JUMPDEST PUSH1 0x40 MLOAD DUP1 SWAP2 SUB SWAP1 RETURN JUMPDEST CALLVALUE DUP1 ISZERO PUSH2 0x4E1 JUMPI PUSH0 DUP1 REVERT JUMPDEST POP PUSH2 0x4FC PUSH1 0x4 DUP1 CALLDATASIZE SUB DUP2 ADD SWAP1 PUSH2 0x4F7 SWAP2 SWAP1 PUSH2 0x28F7 JUMP JUMPDEST PUSH2 0xCE8 JUMP JUMPDEST STOP JUMPDEST PUSH2 0x518 PUSH1 0x4 DUP1 CALLDATASIZE SUB DUP2 ADD SWAP1 PUSH2 0x513 SWAP2 SWAP1 PUSH2 0x250D JUMP JUMPDEST PUSH2 0xCFE JUMP JUMPDEST STOP JUMPDEST CALLVALUE DUP1 ISZERO PUSH2 0x525 JUMPI PUSH0 DUP1 REVERT JUMPDEST POP PUSH2 0x540 PUSH1 0x4 DUP1 CALLDATASIZE SUB DUP2 ADD SWAP1 PUSH2 0x53B SWAP2 SWAP1 PUSH2 0x250D JUMP JUMPDEST PUSH2 0xF58 JUMP JUMPDEST STOP JUMPDEST CALLVALUE DUP1 ISZERO PUSH2 0x54D JUMPI PUSH0 DUP1 REVERT JUMPDEST POP PUSH2 0x568 PUSH1 0x4 DUP1 CALLDATASIZE SUB DUP2 ADD SWAP1 PUSH2 0x563 SWAP2 SWAP1 PUSH2 0x29D3 JUMP JUMPDEST PUSH2 0x1035 JUMP JUMPDEST STOP JUMPDEST CALLVALUE DUP1 ISZERO PUSH2 0x575 JUMPI PUSH0 DUP1 REVERT JUMPDEST POP PUSH2 0x590 PUSH1 0x4 DUP1 CALLDATASIZE SUB DUP2 ADD SWAP1 PUSH2 0x58B SWAP2 SWAP1 PUSH2 0x250D JUMP JUMPDEST PUSH2 0x1052 JUMP JUMPDEST PUSH1 0x40 MLOAD PUSH2 0x59D SWAP2 SWAP1 PUSH2 0x24BA JUMP JUMPDEST PUSH1 0x40 MLOAD DUP1 SWAP2 SUB SWAP1 RETURN JUMPDEST CALLVALUE DUP1 ISZERO PUSH2 0x5B1 JUMPI PUSH0 DUP1 REVERT JUMPDEST POP PUSH2 0x5BA PUSH2 0x115D JUMP JUMPDEST PUSH1 0x40 MLOAD PUSH2 0x5C7 SWAP2 SWAP1 PUSH2 0x24BA JUMP JUMPDEST PUSH1 0x40 MLOAD DUP1 SWAP2 SUB SWAP1 RETURN JUMPDEST CALLVALUE DUP1 ISZERO PUSH2 0x5DB JUMPI PUSH0 DUP1 REVERT JUMPDEST POP PUSH2 0x5F6 PUSH1 0x4 DUP1 CALLDATASIZE SUB DUP2 ADD SWAP1 PUSH2 0x5F1 SWAP2 SWAP1 PUSH2 0x2A53 JUMP JUMPDEST PUSH2 0x11E9 JUMP JUMPDEST PUSH1 0x40 MLOAD PUSH2 0x603 SWAP2 SWAP1 PUSH2 0x2417 JUMP JUMPDEST PUSH1 0x40 MLOAD DUP1 SWAP2 SUB SWAP1 RETURN JUMPDEST CALLVALUE DUP1 ISZERO PUSH2 0x617 JUMPI PUSH0 DUP1 REVERT JUMPDEST POP PUSH2 0x632 PUSH1 0x4 DUP1 CALLDATASIZE SUB DUP2 ADD SWAP1 PUSH2 0x62D SWAP2 SWAP1 PUSH2 0x250D JUMP JUMPDEST PUSH2 0x1277 JUMP JUMPDEST PUSH1 0x40 MLOAD PUSH2 0x63F SWAP2 SWAP1 PUSH2 0x2417 JUMP JUMPDEST PUSH1 0x40 MLOAD DUP1 SWAP2 SUB SWAP1 RETURN JUMPDEST CALLVALUE DUP1 ISZERO PUSH2 0x653 JUMPI PUSH0 DUP1 REVERT JUMPDEST POP PUSH2 0x66E PUSH1 0x4 DUP1 CALLDATASIZE SUB DUP2 ADD SWAP1 PUSH2 0x669 SWAP2 SWAP1 PUSH2 0x28A2 JUMP JUMPDEST PUSH2 0x12E5 JUMP JUMPDEST PUSH1 0x40 MLOAD PUSH2 0x67B SWAP2 SWAP1 PUSH2 0x26BC JUMP JUMPDEST PUSH1 0x40 MLOAD DUP1 SWAP2 SUB SWAP1 RETURN JUMPDEST PUSH0 PUSH4 0x49064906 PUSH1 0xE0 SHL PUSH28 0xFFFFFFFFFFFFFFFFFFFFFFFFFFFFFFFFFFFFFFFFFFFFFFFFFFFFFFFF NOT AND DUP3 PUSH28 0xFFFFFFFFFFFFFFFFFFFFFFFFFFFFFFFFFFFFFFFFFFFFFFFFFFFFFFFF NOT AND EQ DUP1 PUSH2 0x6DD JUMPI POP PUSH2 0x6DC DUP3 PUSH2 0x1305 JUMP JUMPDEST JUMPDEST SWAP1 POP SWAP2 SWAP1 POP JUMP JUMPDEST PUSH1 0x60 PUSH0 DUP1 SLOAD PUSH2 0x6F2 SWAP1 PUSH2 0x2ABE JUMP JUMPDEST DUP1 PUSH1 0x1F ADD PUSH1 0x20 DUP1 SWAP2 DIV MUL PUSH1 0x20 ADD PUSH1 0x40 MLOAD SWAP1 DUP2 ADD PUSH1 0x40 MSTORE DUP1 SWAP3 SWAP2 SWAP1 DUP2 DUP2 MSTORE PUSH1 0x20 ADD DUP3 DUP1 SLOAD PUSH2 0x71E SWAP1 PUSH2 0x2ABE JUMP JUMPDEST DUP1 ISZERO PUSH2 0x769 JUMPI DUP1 PUSH1 0x1F LT PUSH2 0x740 JUMPI PUSH2 0x100 DUP1 DUP4 SLOAD DIV MUL DUP4 MSTORE SWAP2 PUSH1 0x20 ADD SWAP2 PUSH2 0x769 JUMP JUMPDEST DUP3 ADD SWAP2 SWAP1 PUSH0 MSTORE PUSH1 0x20 PUSH0 KECCAK256 SWAP1 JUMPDEST DUP2 SLOAD DUP2 MSTORE SWAP1 PUSH1 0x1 ADD SWAP1 PUSH1 0x20 ADD DUP1 DUP4 GT PUSH2 0x74C JUMPI DUP3 SWAP1 SUB PUSH1 0x1F AND DUP3 ADD SWAP2 JUMPDEST POP POP POP POP POP SWAP1 POP SWAP1 JUMP JUMPDEST PUSH0 PUSH2 0x77D DUP3 PUSH2 0x13E6 JUMP JUMPDEST POP PUSH2 0x787 DUP3 PUSH2 0x146C JUMP JUMPDEST SWAP1 POP SWAP2 SWAP1 POP JUMP JUMPDEST PUSH2 0x7A0 DUP3 DUP3 PUSH2 0x79B PUSH2 0x14A5 JUMP JUMPDEST PUSH2 0x14AC JUMP JUMPDEST POP POP JUMP JUMPDEST PUSH0 PUSH20 0xFFFFFFFFFFFFFFFFFFFFFFFFFFFFFFFFFFFFFFFF AND DUP3 PUSH20 0xFFFFFFFFFFFFFFFFFFFFFFFFFFFFFFFFFFFFFFFF AND SUB PUSH2 0x814 JUMPI PUSH0 PUSH1 0x40 MLOAD PUSH32 0x64A0AE9200000000000000000000000000000000000000000000000000000000 DUP2 MSTORE PUSH1 0x4 ADD PUSH2 0x80B SWAP2 SWAP1 PUSH2 0x2577 JUMP JUMPDEST PUSH1 0x40 MLOAD DUP1 SWAP2 SUB SWAP1 REVERT JUMPDEST PUSH0 PUSH2 0x827 DUP4 DUP4 PUSH2 0x822 PUSH2 0x14A5 JUMP JUMPDEST PUSH2 0x14BE JUMP JUMPDEST SWAP1 POP DUP4 PUSH20 0xFFFFFFFFFFFFFFFFFFFFFFFFFFFFFFFFFFFFFFFF AND DUP2 PUSH20 0xFFFFFFFFFFFFFFFFFFFFFFFFFFFFFFFFFFFFFFFF AND EQ PUSH2 0x89D JUMPI DUP4 DUP3 DUP3 PUSH1 0x40 MLOAD PUSH32 0x64283D7B00000000000000000000000000000000000000000000000000000000 DUP2 MSTORE PUSH1 0x4 ADD PUSH2 0x894 SWAP4 SWAP3 SWAP2 SWAP1 PUSH2 0x2AEE JUMP JUMPDEST PUSH1 0x40 MLOAD DUP1 SWAP2 SUB SWAP1 REVERT JUMPDEST POP POP POP POP JUMP JUMPDEST PUSH1 0xD PUSH1 0x20 MSTORE DUP1 PUSH0 MSTORE PUSH1 0x40 PUSH0 KECCAK256 PUSH0 SWAP2 POP SWAP1 POP DUP1 PUSH0 ADD PUSH0 SWAP1 SLOAD SWAP1 PUSH2 0x100 EXP SWAP1 DIV PUSH20 0xFFFFFFFFFFFFFFFFFFFFFFFFFFFFFFFFFFFFFFFF AND SWAP1 DUP1 PUSH1 0x1 ADD SLOAD SWAP1 POP DUP3 JUMP JUMPDEST PUSH0 DUP1 PUSH0 PUSH1 0x64 PUSH1 0x9 SLOAD DUP6 PUSH2 0x8F5 SWAP2 SWAP1 PUSH2 0x2B50 JUMP JUMPDEST PUSH2 0x8FF SWAP2 SWAP1 PUSH2 0x2BBE JUMP JUMPDEST SWAP1 POP PUSH1 0xA PUSH0 SWAP1 SLOAD SWAP1 PUSH2 0x100 EXP SWAP1 DIV PUSH20 0xFFFFFFFFFFFFFFFFFFFFFFFFFFFFFFFFFFFFFFFF AND DUP2 SWAP3 POP SWAP3 POP POP SWAP3 POP SWAP3 SWAP1 POP JUMP JUMPDEST PUSH0 PUSH2 0x93B PUSH1 0x7 PUSH2 0x16C9 JUMP JUMPDEST SWAP1 POP SWAP1 JUMP JUMPDEST PUSH2 0x95A DUP4 DUP4 DUP4 PUSH1 0x40 MLOAD DUP1 PUSH1 0x20 ADD PUSH1 0x40 MSTORE DUP1 PUSH0 DUP2 MSTORE POP PUSH2 0x1035 JUMP JUMPDEST POP POP POP JUMP JUMPDEST DUP1 PUSH1 0x8 SWAP1 DUP2 PUSH2 0x96E SWAP2 SWAP1 PUSH2 0x2D8B JUMP JUMPDEST POP POP JUMP JUMPDEST PUSH0 DUP1 PUSH1 0xD PUSH0 DUP5 DUP2 MSTORE PUSH1 0x20 ADD SWAP1 DUP2 MSTORE PUSH1 0x20 ADD PUSH0 KECCAK256 PUSH1 0x40 MLOAD DUP1 PUSH1 0x40 ADD PUSH1 0x40 MSTORE SWAP1 DUP2 PUSH0 DUP3 ADD PUSH0 SWAP1 SLOAD SWAP1 PUSH2 0x100 EXP SWAP1 DIV PUSH20 0xFFFFFFFFFFFFFFFFFFFFFFFFFFFFFFFFFFFFFFFF AND PUSH20 0xFFFFFFFFFFFFFFFFFFFFFFFFFFFFFFFFFFFFFFFF AND PUSH20 0xFFFFFFFFFFFFFFFFFFFFFFFFFFFFFFFFFFFFFFFF AND DUP2 MSTORE PUSH1 0x20 ADD PUSH1 0x1 DUP3 ADD SLOAD DUP2 MSTORE POP POP SWAP1 POP DUP1 PUSH1 0x20 ADD MLOAD SWAP2 POP POP SWAP2 SWAP1 POP JUMP JUMPDEST PUSH0 PUSH2 0xA08 PUSH1 0x7 PUSH2 0x16C9 JUMP JUMPDEST SWAP1 POP PUSH2 0xA14 CALLER DUP3 PUSH2 0x16D5 JUMP JUMPDEST PUSH2 0xA1E DUP2 DUP5 PUSH2 0x16F2 JUMP JUMPDEST PUSH1 0x40 MLOAD DUP1 PUSH1 0x40 ADD PUSH1 0x40 MSTORE DUP1 CALLER PUSH20 0xFFFFFFFFFFFFFFFFFFFFFFFFFFFFFFFFFFFFFFFF AND DUP2 MSTORE PUSH1 0x20 ADD DUP4 DUP2 MSTORE POP PUSH1 0xD PUSH0 DUP4 DUP2 MSTORE PUSH1 0x20 ADD SWAP1 DUP2 MSTORE PUSH1 0x20 ADD PUSH0 KECCAK256 PUSH0 DUP3 ADD MLOAD DUP2 PUSH0 ADD PUSH0 PUSH2 0x100 EXP DUP2 SLOAD DUP2 PUSH20 0xFFFFFFFFFFFFFFFFFFFFFFFFFFFFFFFFFFFFFFFF MUL NOT AND SWAP1 DUP4 PUSH20 0xFFFFFFFFFFFFFFFFFFFFFFFFFFFFFFFFFFFFFFFF AND MUL OR SWAP1 SSTORE POP PUSH1 0x20 DUP3 ADD MLOAD DUP2 PUSH1 0x1 ADD SSTORE SWAP1 POP POP PUSH0 PUSH1 0xC PUSH0 CALLER PUSH20 0xFFFFFFFFFFFFFFFFFFFFFFFFFFFFFFFFFFFFFFFF AND PUSH20 0xFFFFFFFFFFFFFFFFFFFFFFFFFFFFFFFFFFFFFFFF AND DUP2 MSTORE PUSH1 0x20 ADD SWAP1 DUP2 MSTORE PUSH1 0x20 ADD PUSH0 KECCAK256 PUSH0 DUP4 DUP2 MSTORE PUSH1 0x20 ADD SWAP1 DUP2 MSTORE PUSH1 0x20 ADD PUSH0 KECCAK256 PUSH0 PUSH2 0x100 EXP DUP2 SLOAD DUP2 PUSH1 0xFF MUL NOT AND SWAP1 DUP4 ISZERO ISZERO MUL OR SWAP1 SSTORE POP PUSH2 0xB18 PUSH1 0x7 PUSH2 0x174C JUMP JUMPDEST POP POP POP JUMP JUMPDEST PUSH0 PUSH2 0xB27 DUP3 PUSH2 0x13E6 JUMP JUMPDEST SWAP1 POP SWAP2 SWAP1 POP JUMP JUMPDEST PUSH0 DUP1 PUSH20 0xFFFFFFFFFFFFFFFFFFFFFFFFFFFFFFFFFFFFFFFF AND DUP3 PUSH20 0xFFFFFFFFFFFFFFFFFFFFFFFFFFFFFFFFFFFFFFFF AND SUB PUSH2 0xB9F JUMPI PUSH0 PUSH1 0x40 MLOAD PUSH32 0x89C62B6400000000000000000000000000000000000000000000000000000000 DUP2 MSTORE PUSH1 0x4 ADD PUSH2 0xB96 SWAP2 SWAP1 PUSH2 0x2577 JUMP JUMPDEST PUSH1 0x40 MLOAD DUP1 SWAP2 SUB SWAP1 REVERT JUMPDEST PUSH1 0x3 PUSH0 DUP4 PUSH20 0xFFFFFFFFFFFFFFFFFFFFFFFFFFFFFFFFFFFFFFFF AND PUSH20 0xFFFFFFFFFFFFFFFFFFFFFFFFFFFFFFFFFFFFFFFF AND DUP2 MSTORE PUSH1 0x20 ADD SWAP1 DUP2 MSTORE PUSH1 0x20 ADD PUSH0 KECCAK256 SLOAD SWAP1 POP SWAP2 SWAP1 POP JUMP JUMPDEST PUSH0 DUP1 PUSH2 0xBEF DUP4 PUSH2 0xB1D JUMP JUMPDEST SWAP1 POP PUSH1 0xC PUSH0 DUP3 PUSH20 0xFFFFFFFFFFFFFFFFFFFFFFFFFFFFFFFFFFFFFFFF AND PUSH20 0xFFFFFFFFFFFFFFFFFFFFFFFFFFFFFFFFFFFFFFFF AND DUP2 MSTORE PUSH1 0x20 ADD SWAP1 DUP2 MSTORE PUSH1 0x20 ADD PUSH0 KECCAK256 PUSH0 DUP5 DUP2 MSTORE PUSH1 0x20 ADD SWAP1 DUP2 MSTORE PUSH1 0x20 ADD PUSH0 KECCAK256 PUSH0 SWAP1 SLOAD SWAP1 PUSH2 0x100 EXP SWAP1 DIV PUSH1 0xFF AND SWAP2 POP POP SWAP2 SWAP1 POP JUMP JUMPDEST PUSH1 0x9 SLOAD DUP2 JUMP JUMPDEST PUSH1 0x60 PUSH1 0x1 DUP1 SLOAD PUSH2 0xC67 SWAP1 PUSH2 0x2ABE JUMP JUMPDEST DUP1 PUSH1 0x1F ADD PUSH1 0x20 DUP1 SWAP2 DIV MUL PUSH1 0x20 ADD PUSH1 0x40 MLOAD SWAP1 DUP2 ADD PUSH1 0x40 MSTORE DUP1 SWAP3 SWAP2 SWAP1 DUP2 DUP2 MSTORE PUSH1 0x20 ADD DUP3 DUP1 SLOAD PUSH2 0xC93 SWAP1 PUSH2 0x2ABE JUMP JUMPDEST DUP1 ISZERO PUSH2 0xCDE JUMPI DUP1 PUSH1 0x1F LT PUSH2 0xCB5 JUMPI PUSH2 0x100 DUP1 DUP4 SLOAD DIV MUL DUP4 MSTORE SWAP2 PUSH1 0x20 ADD SWAP2 PUSH2 0xCDE JUMP JUMPDEST DUP3 ADD SWAP2 SWAP1 PUSH0 MSTORE PUSH1 0x20 PUSH0 KECCAK256 SWAP1 JUMPDEST DUP2 SLOAD DUP2 MSTORE SWAP1 PUSH1 0x1 ADD SWAP1 PUSH1 0x20 ADD DUP1 DUP4 GT PUSH2 0xCC1 JUMPI DUP3 SWAP1 SUB PUSH1 0x1F AND DUP3 ADD SWAP2 JUMPDEST POP POP POP POP POP SWAP1 POP SWAP1 JUMP JUMPDEST PUSH2 0xCFA PUSH2 0xCF3 PUSH2 0x14A5 JUMP JUMPDEST DUP4 DUP4 PUSH2 0x1760 JUMP JUMPDEST POP POP JUMP JUMPDEST PUSH0 PUSH2 0xD08 DUP3 PUSH2 0xB1D JUMP JUMPDEST SWAP1 POP PUSH1 0x1 ISZERO ISZERO PUSH1 0xB PUSH0 DUP4 PUSH20 0xFFFFFFFFFFFFFFFFFFFFFFFFFFFFFFFFFFFFFFFF AND PUSH20 0xFFFFFFFFFFFFFFFFFFFFFFFFFFFFFFFFFFFFFFFF AND DUP2 MSTORE PUSH1 0x20 ADD SWAP1 DUP2 MSTORE PUSH1 0x20 ADD PUSH0 KECCAK256 PUSH0 DUP5 DUP2 MSTORE PUSH1 0x20 ADD SWAP1 DUP2 MSTORE PUSH1 0x20 ADD PUSH0 KECCAK256 PUSH0 SWAP1 SLOAD SWAP1 PUSH2 0x100 EXP SWAP1 DIV PUSH1 0xFF AND ISZERO ISZERO EQ PUSH2 0xDA9 JUMPI PUSH1 0x40 MLOAD PUSH32 0x8C379A000000000000000000000000000000000000000000000000000000000 DUP2 MSTORE PUSH1 0x4 ADD PUSH2 0xDA0 SWAP1 PUSH2 0x2EA4 JUMP JUMPDEST PUSH1 0x40 MLOAD DUP1 SWAP2 SUB SWAP1 REVERT JUMPDEST PUSH0 CALLER SWAP1 POP PUSH0 PUSH1 0xD PUSH0 DUP6 DUP2 MSTORE PUSH1 0x20 ADD SWAP1 DUP2 MSTORE PUSH1 0x20 ADD PUSH0 KECCAK256 PUSH1 0x1 ADD SLOAD SWAP1 POP DUP2 PUSH20 0xFFFFFFFFFFFFFFFFFFFFFFFFFFFFFFFFFFFFFFFF AND DUP4 PUSH20 0xFFFFFFFFFFFFFFFFFFFFFFFFFFFFFFFFFFFFFFFF AND SUB PUSH2 0xE33 JUMPI PUSH1 0x40 MLOAD PUSH32 0x8C379A000000000000000000000000000000000000000000000000000000000 DUP2 MSTORE PUSH1 0x4 ADD PUSH2 0xE2A SWAP1 PUSH2 0x2F0C JUMP JUMPDEST PUSH1 0x40 MLOAD DUP1 SWAP2 SUB SWAP1 REVERT JUMPDEST DUP1 CALLVALUE EQ PUSH2 0xE75 JUMPI PUSH1 0x40 MLOAD PUSH32 0x8C379A000000000000000000000000000000000000000000000000000000000 DUP2 MSTORE PUSH1 0x4 ADD PUSH2 0xE6C SWAP1 PUSH2 0x2F74 JUMP JUMPDEST PUSH1 0x40 MLOAD DUP1 SWAP2 SUB SWAP1 REVERT JUMPDEST PUSH2 0xE80 DUP4 DUP4 DUP7 PUSH2 0x18C9 JUMP JUMPDEST PUSH0 PUSH1 0x64 PUSH1 0x9 SLOAD DUP4 PUSH2 0xE91 SWAP2 SWAP1 PUSH2 0x2B50 JUMP JUMPDEST PUSH2 0xE9B SWAP2 SWAP1 PUSH2 0x2BBE JUMP JUMPDEST SWAP1 POP PUSH1 0xA PUSH0 SWAP1 SLOAD SWAP1 PUSH2 0x100 EXP SWAP1 DIV PUSH20 0xFFFFFFFFFFFFFFFFFFFFFFFFFFFFFFFFFFFFFFFF AND PUSH20 0xFFFFFFFFFFFFFFFFFFFFFFFFFFFFFFFFFFFFFFFF AND PUSH2 0x8FC DUP3 SWAP1 DUP2 ISZERO MUL SWAP1 PUSH1 0x40 MLOAD PUSH0 PUSH1 0x40 MLOAD DUP1 DUP4 SUB DUP2 DUP6 DUP9 DUP9 CALL SWAP4 POP POP POP POP ISZERO DUP1 ISZERO PUSH2 0xF01 JUMPI RETURNDATASIZE PUSH0 DUP1 RETURNDATACOPY RETURNDATASIZE PUSH0 REVERT JUMPDEST POP DUP4 PUSH20 0xFFFFFFFFFFFFFFFFFFFFFFFFFFFFFFFFFFFFFFFF AND PUSH2 0x8FC DUP3 DUP5 PUSH2 0xF28 SWAP2 SWAP1 PUSH2 0x2F92 JUMP JUMPDEST SWAP1 DUP2 ISZERO MUL SWAP1 PUSH1 0x40 MLOAD PUSH0 PUSH1 0x40 MLOAD DUP1 DUP4 SUB DUP2 DUP6 DUP9 DUP9 CALL SWAP4 POP POP POP POP ISZERO DUP1 ISZERO PUSH2 0xF50 JUMPI RETURNDATASIZE PUSH0 DUP1 RETURNDATACOPY RETURNDATASIZE PUSH0 REVERT JUMPDEST POP POP POP POP POP POP JUMP JUMPDEST PUSH2 0xF61 DUP2 PUSH2 0xB1D JUMP JUMPDEST PUSH20 0xFFFFFFFFFFFFFFFFFFFFFFFFFFFFFFFFFFFFFFFF AND CALLER PUSH20 0xFFFFFFFFFFFFFFFFFFFFFFFFFFFFFFFFFFFFFFFF AND EQ PUSH2 0xFCE JUMPI PUSH1 0x40 MLOAD PUSH32 0x8C379A000000000000000000000000000000000000000000000000000000000 DUP2 MSTORE PUSH1 0x4 ADD PUSH2 0xFC5 SWAP1 PUSH2 0x300F JUMP JUMPDEST PUSH1 0x40 MLOAD DUP1 SWAP2 SUB SWAP1 REVERT JUMPDEST PUSH1 0x1 PUSH1 0xB PUSH0 CALLER PUSH20 0xFFFFFFFFFFFFFFFFFFFFFFFFFFFFFFFFFFFFFFFF AND PUSH20 0xFFFFFFFFFFFFFFFFFFFFFFFFFFFFFFFFFFFFFFFF AND DUP2 MSTORE PUSH1 0x20 ADD SWAP1 DUP2 MSTORE PUSH1 0x20 ADD PUSH0 KECCAK256 PUSH0 DUP4 DUP2 MSTORE PUSH1 0x20 ADD SWAP1 DUP2 MSTORE PUSH1 0x20 ADD PUSH0 KECCAK256 PUSH0 PUSH2 0x100 EXP DUP2 SLOAD DUP2 PUSH1 0xFF MUL NOT AND SWAP1 DUP4 ISZERO ISZERO MUL OR SWAP1 SSTORE POP POP JUMP JUMPDEST PUSH2 0x1040 DUP5 DUP5 DUP5 PUSH2 0x7A4 JUMP JUMPDEST PUSH2 0x104C DUP5 DUP5 DUP5 DUP5 PUSH2 0x1A31 JUMP JUMPDEST POP POP POP POP JUMP JUMPDEST PUSH1 0x60 PUSH2 0x105D DUP3 PUSH2 0x13E6 JUMP JUMPDEST POP PUSH0 PUSH1 0x6 PUSH0 DUP5 DUP2 MSTORE PUSH1 0x20 ADD SWAP1 DUP2 MSTORE PUSH1 0x20 ADD PUSH0 KECCAK256 DUP1 SLOAD PUSH2 0x107B SWAP1 PUSH2 0x2ABE JUMP JUMPDEST DUP1 PUSH1 0x1F ADD PUSH1 0x20 DUP1 SWAP2 DIV MUL PUSH1 0x20 ADD PUSH1 0x40 MLOAD SWAP1 DUP2 ADD PUSH1 0x40 MSTORE DUP1 SWAP3 SWAP2 SWAP1 DUP2 DUP2 MSTORE PUSH1 0x20 ADD DUP3 DUP1 SLOAD PUSH2 0x10A7 SWAP1 PUSH2 0x2ABE JUMP JUMPDEST DUP1 ISZERO PUSH2 0x10F2 JUMPI DUP1 PUSH1 0x1F LT PUSH2 0x10C9 JUMPI PUSH2 0x100 DUP1 DUP4 SLOAD DIV MUL DUP4 MSTORE SWAP2 PUSH1 0x20 ADD SWAP2 PUSH2 0x10F2 JUMP JUMPDEST DUP3 ADD SWAP2 SWAP1 PUSH0 MSTORE PUSH1 0x20 PUSH0 KECCAK256 SWAP1 JUMPDEST DUP2 SLOAD DUP2 MSTORE SWAP1 PUSH1 0x1 ADD SWAP1 PUSH1 0x20 ADD DUP1 DUP4 GT PUSH2 0x10D5 JUMPI DUP3 SWAP1 SUB PUSH1 0x1F AND DUP3 ADD SWAP2 JUMPDEST POP POP POP POP POP SWAP1 POP PUSH0 PUSH2 0x1102 PUSH2 0x1BE3 JUMP JUMPDEST SWAP1 POP PUSH0 DUP2 MLOAD SUB PUSH2 0x1116 JUMPI DUP2 SWAP3 POP POP POP PUSH2 0x1158 JUMP JUMPDEST PUSH0 DUP3 MLOAD GT ISZERO PUSH2 0x114A JUMPI DUP1 DUP3 PUSH1 0x40 MLOAD PUSH1 0x20 ADD PUSH2 0x1132 SWAP3 SWAP2 SWAP1 PUSH2 0x3067 JUMP JUMPDEST PUSH1 0x40 MLOAD PUSH1 0x20 DUP2 DUP4 SUB SUB DUP2 MSTORE SWAP1 PUSH1 0x40 MSTORE SWAP3 POP POP POP PUSH2 0x1158 JUMP JUMPDEST PUSH2 0x1153 DUP5 PUSH2 0x1BF9 JUMP JUMPDEST SWAP3 POP POP POP JUMPDEST SWAP2 SWAP1 POP JUMP JUMPDEST PUSH1 0x8 DUP1 SLOAD PUSH2 0x116A SWAP1 PUSH2 0x2ABE JUMP JUMPDEST DUP1 PUSH1 0x1F ADD PUSH1 0x20 DUP1 SWAP2 DIV MUL PUSH1 0x20 ADD PUSH1 0x40 MLOAD SWAP1 DUP2 ADD PUSH1 0x40 MSTORE DUP1 SWAP3 SWAP2 SWAP1 DUP2 DUP2 MSTORE PUSH1 0x20 ADD DUP3 DUP1 SLOAD PUSH2 0x1196 SWAP1 PUSH2 0x2ABE JUMP JUMPDEST DUP1 ISZERO PUSH2 0x11E1 JUMPI DUP1 PUSH1 0x1F LT PUSH2 0x11B8 JUMPI PUSH2 0x100 DUP1 DUP4 SLOAD DIV MUL DUP4 MSTORE SWAP2 PUSH1 0x20 ADD SWAP2 PUSH2 0x11E1 JUMP JUMPDEST DUP3 ADD SWAP2 SWAP1 PUSH0 MSTORE PUSH1 0x20 PUSH0 KECCAK256 SWAP1 JUMPDEST DUP2 SLOAD DUP2 MSTORE SWAP1 PUSH1 0x1 ADD SWAP1 PUSH1 0x20 ADD DUP1 DUP4 GT PUSH2 0x11C4 JUMPI DUP3 SWAP1 SUB PUSH1 0x1F AND DUP3 ADD SWAP2 JUMPDEST POP POP POP POP POP DUP2 JUMP JUMPDEST PUSH0 PUSH1 0x5 PUSH0 DUP5 PUSH20 0xFFFFFFFFFFFFFFFFFFFFFFFFFFFFFFFFFFFFFFFF AND PUSH20 0xFFFFFFFFFFFFFFFFFFFFFFFFFFFFFFFFFFFFFFFF AND DUP2 MSTORE PUSH1 0x20 ADD SWAP1 DUP2 MSTORE PUSH1 0x20 ADD PUSH0 KECCAK256 PUSH0 DUP4 PUSH20 0xFFFFFFFFFFFFFFFFFFFFFFFFFFFFFFFFFFFFFFFF AND PUSH20 0xFFFFFFFFFFFFFFFFFFFFFFFFFFFFFFFFFFFFFFFF AND DUP2 MSTORE PUSH1 0x20 ADD SWAP1 DUP2 MSTORE PUSH1 0x20 ADD PUSH0 KECCAK256 PUSH0 SWAP1 SLOAD SWAP1 PUSH2 0x100 EXP SWAP1 DIV PUSH1 0xFF AND SWAP1 POP SWAP3 SWAP2 POP POP JUMP JUMPDEST PUSH0 DUP1 PUSH2 0x1282 DUP4 PUSH2 0xB1D JUMP JUMPDEST SWAP1 POP PUSH1 0xB PUSH0 DUP3 PUSH20 0xFFFFFFFFFFFFFFFFFFFFFFFFFFFFFFFFFFFFFFFF AND PUSH20 0xFFFFFFFFFFFFFFFFFFFFFFFFFFFFFFFFFFFFFFFF AND DUP2 MSTORE PUSH1 0x20 ADD SWAP1 DUP2 MSTORE PUSH1 0x20 ADD PUSH0 KECCAK256 PUSH0 DUP5 DUP2 MSTORE PUSH1 0x20 ADD SWAP1 DUP2 MSTORE PUSH1 0x20 ADD PUSH0 KECCAK256 PUSH0 SWAP1 SLOAD SWAP1 PUSH2 0x100 EXP SWAP1 DIV PUSH1 0xFF AND SWAP2 POP POP SWAP2 SWAP1 POP JUMP JUMPDEST PUSH0 DUP2 PUSH20 0xFFFFFFFFFFFFFFFFFFFFFFFFFFFFFFFFFFFFFFFF AND BALANCE SWAP1 POP SWAP2 SWAP1 POP JUMP JUMPDEST PUSH0 PUSH32 0x80AC58CD00000000000000000000000000000000000000000000000000000000 PUSH28 0xFFFFFFFFFFFFFFFFFFFFFFFFFFFFFFFFFFFFFFFFFFFFFFFFFFFFFFFF NOT AND DUP3 PUSH28 0xFFFFFFFFFFFFFFFFFFFFFFFFFFFFFFFFFFFFFFFFFFFFFFFFFFFFFFFF NOT AND EQ DUP1 PUSH2 0x13CF JUMPI POP PUSH32 0x5B5E139F00000000000000000000000000000000000000000000000000000000 PUSH28 0xFFFFFFFFFFFFFFFFFFFFFFFFFFFFFFFFFFFFFFFFFFFFFFFFFFFFFFFF NOT AND DUP3 PUSH28 0xFFFFFFFFFFFFFFFFFFFFFFFFFFFFFFFFFFFFFFFFFFFFFFFFFFFFFFFF NOT AND EQ JUMPDEST DUP1 PUSH2 0x13DF JUMPI POP PUSH2 0x13DE DUP3 PUSH2 0x1C5F JUMP JUMPDEST JUMPDEST SWAP1 POP SWAP2 SWAP1 POP JUMP JUMPDEST PUSH0 DUP1 PUSH2 0x13F1 DUP4 PUSH2 0x1CC8 JUMP JUMPDEST SWAP1 POP PUSH0 PUSH20 0xFFFFFFFFFFFFFFFFFFFFFFFFFFFFFFFFFFFFFFFF AND DUP2 PUSH20 0xFFFFFFFFFFFFFFFFFFFFFFFFFFFFFFFFFFFFFFFF AND SUB PUSH2 0x1463 JUMPI DUP3 PUSH1 0x40 MLOAD PUSH32 0x7E27328900000000000000000000000000000000000000000000000000000000 DUP2 MSTORE PUSH1 0x4 ADD PUSH2 0x145A SWAP2 SWAP1 PUSH2 0x26BC JUMP JUMPDEST PUSH1 0x40 MLOAD DUP1 SWAP2 SUB SWAP1 REVERT JUMPDEST DUP1 SWAP2 POP POP SWAP2 SWAP1 POP JUMP JUMPDEST PUSH0 PUSH1 0x4 PUSH0 DUP4 DUP2 MSTORE PUSH1 0x20 ADD SWAP1 DUP2 MSTORE PUSH1 0x20 ADD PUSH0 KECCAK256 PUSH0 SWAP1 SLOAD SWAP1 PUSH2 0x100 EXP SWAP1 DIV PUSH20 0xFFFFFFFFFFFFFFFFFFFFFFFFFFFFFFFFFFFFFFFF AND SWAP1 POP SWAP2 SWAP1 POP JUMP JUMPDEST PUSH0 CALLER SWAP1 POP SWAP1 JUMP JUMPDEST PUSH2 0x14B9 DUP4 DUP4 DUP4 PUSH1 0x1 PUSH2 0x1D01 JUMP JUMPDEST POP POP POP JUMP JUMPDEST PUSH0 DUP1 PUSH2 0x14C9 DUP5 PUSH2 0x1CC8 JUMP JUMPDEST SWAP1 POP PUSH0 PUSH20 0xFFFFFFFFFFFFFFFFFFFFFFFFFFFFFFFFFFFFFFFF AND DUP4 PUSH20 0xFFFFFFFFFFFFFFFFFFFFFFFFFFFFFFFFFFFFFFFF AND EQ PUSH2 0x150A JUMPI PUSH2 0x1509 DUP2 DUP5 DUP7 PUSH2 0x1EC0 JUMP JUMPDEST JUMPDEST PUSH0 PUSH20 0xFFFFFFFFFFFFFFFFFFFFFFFFFFFFFFFFFFFFFFFF AND DUP2 PUSH20 0xFFFFFFFFFFFFFFFFFFFFFFFFFFFFFFFFFFFFFFFF AND EQ PUSH2 0x1595 JUMPI PUSH2 0x1549 PUSH0 DUP6 PUSH0 DUP1 PUSH2 0x1D01 JUMP JUMPDEST PUSH1 0x1 PUSH1 0x3 PUSH0 DUP4 PUSH20 0xFFFFFFFFFFFFFFFFFFFFFFFFFFFFFFFFFFFFFFFF AND PUSH20 0xFFFFFFFFFFFFFFFFFFFFFFFFFFFFFFFFFFFFFFFF AND DUP2 MSTORE PUSH1 0x20 ADD SWAP1 DUP2 MSTORE PUSH1 0x20 ADD PUSH0 KECCAK256 PUSH0 DUP3 DUP3 SLOAD SUB SWAP3 POP POP DUP2 SWAP1 SSTORE POP JUMPDEST PUSH0 PUSH20 0xFFFFFFFFFFFFFFFFFFFFFFFFFFFFFFFFFFFFFFFF AND DUP6 PUSH20 0xFFFFFFFFFFFFFFFFFFFFFFFFFFFFFFFFFFFFFFFF AND EQ PUSH2 0x1614 JUMPI PUSH1 0x1 PUSH1 0x3 PUSH0 DUP8 PUSH20 0xFFFFFFFFFFFFFFFFFFFFFFFFFFFFFFFFFFFFFFFF AND PUSH20 0xFFFFFFFFFFFFFFFFFFFFFFFFFFFFFFFFFFFFFFFF AND DUP2 MSTORE PUSH1 0x20 ADD SWAP1 DUP2 MSTORE PUSH1 0x20 ADD PUSH0 KECCAK256 PUSH0 DUP3 DUP3 SLOAD ADD SWAP3 POP POP DUP2 SWAP1 SSTORE POP JUMPDEST DUP5 PUSH1 0x2 PUSH0 DUP7 DUP2 MSTORE PUSH1 0x20 ADD SWAP1 DUP2 MSTORE PUSH1 0x20 ADD PUSH0 KECCAK256 PUSH0 PUSH2 0x100 EXP DUP2 SLOAD DUP2 PUSH20 0xFFFFFFFFFFFFFFFFFFFFFFFFFFFFFFFFFFFFFFFF MUL NOT AND SWAP1 DUP4 PUSH20 0xFFFFFFFFFFFFFFFFFFFFFFFFFFFFFFFFFFFFFFFF AND MUL OR SWAP1 SSTORE POP DUP4 DUP6 PUSH20 0xFFFFFFFFFFFFFFFFFFFFFFFFFFFFFFFFFFFFFFFF AND DUP3 PUSH20 0xFFFFFFFFFFFFFFFFFFFFFFFFFFFFFFFFFFFFFFFF AND PUSH32 0xDDF252AD1BE2C89B69C2B068FC378DAA952BA7F163C4A11628F55A4DF523B3EF PUSH1 0x40 MLOAD PUSH1 0x40 MLOAD DUP1 SWAP2 SUB SWAP1 LOG4 DUP1 SWAP2 POP POP SWAP4 SWAP3 POP POP POP JUMP JUMPDEST PUSH0 DUP2 PUSH0 ADD SLOAD SWAP1 POP SWAP2 SWAP1 POP JUMP JUMPDEST PUSH2 0x16EE DUP3 DUP3 PUSH1 0x40 MLOAD DUP1 PUSH1 0x20 ADD PUSH1 0x40 MSTORE DUP1 PUSH0 DUP2 MSTORE POP PUSH2 0x1F83 JUMP JUMPDEST POP POP JUMP JUMPDEST DUP1 PUSH1 0x6 PUSH0 DUP5 DUP2 MSTORE PUSH1 0x20 ADD SWAP1 DUP2 MSTORE PUSH1 0x20 ADD PUSH0 KECCAK256 SWAP1 DUP2 PUSH2 0x1710 SWAP2 SWAP1 PUSH2 0x2D8B JUMP JUMPDEST POP PUSH32 0xF8E1A15ABA9398E019F0B49DF1A4FDE98EE17AE345CB5F6B5E2C27F5033E8CE7 DUP3 PUSH1 0x40 MLOAD PUSH2 0x1740 SWAP2 SWAP1 PUSH2 0x26BC JUMP JUMPDEST PUSH1 0x40 MLOAD DUP1 SWAP2 SUB SWAP1 LOG1 POP POP JUMP JUMPDEST PUSH1 0x1 DUP2 PUSH0 ADD PUSH0 DUP3 DUP3 SLOAD ADD SWAP3 POP POP DUP2 SWAP1 SSTORE POP POP JUMP JUMPDEST PUSH0 PUSH20 0xFFFFFFFFFFFFFFFFFFFFFFFFFFFFFFFFFFFFFFFF AND DUP3 PUSH20 0xFFFFFFFFFFFFFFFFFFFFFFFFFFFFFFFFFFFFFFFF AND SUB PUSH2 0x17D0 JUMPI DUP2 PUSH1 0x40 MLOAD PUSH32 0x5B08BA1800000000000000000000000000000000000000000000000000000000 DUP2 MSTORE PUSH1 0x4 ADD PUSH2 0x17C7 SWAP2 SWAP1 PUSH2 0x2577 JUMP JUMPDEST PUSH1 0x40 MLOAD DUP1 SWAP2 SUB SWAP1 REVERT JUMPDEST DUP1 PUSH1 0x5 PUSH0 DUP6 PUSH20 0xFFFFFFFFFFFFFFFFFFFFFFFFFFFFFFFFFFFFFFFF AND PUSH20 0xFFFFFFFFFFFFFFFFFFFFFFFFFFFFFFFFFFFFFFFF AND DUP2 MSTORE PUSH1 0x20 ADD SWAP1 DUP2 MSTORE PUSH1 0x20 ADD PUSH0 KECCAK256 PUSH0 DUP5 PUSH20 0xFFFFFFFFFFFFFFFFFFFFFFFFFFFFFFFFFFFFFFFF AND PUSH20 0xFFFFFFFFFFFFFFFFFFFFFFFFFFFFFFFFFFFFFFFF AND DUP2 MSTORE PUSH1 0x20 ADD SWAP1 DUP2 MSTORE PUSH1 0x20 ADD PUSH0 KECCAK256 PUSH0 PUSH2 0x100 EXP DUP2 SLOAD DUP2 PUSH1 0xFF MUL NOT AND SWAP1 DUP4 ISZERO ISZERO MUL OR SWAP1 SSTORE POP DUP2 PUSH20 0xFFFFFFFFFFFFFFFFFFFFFFFFFFFFFFFFFFFFFFFF AND DUP4 PUSH20 0xFFFFFFFFFFFFFFFFFFFFFFFFFFFFFFFFFFFFFFFF AND PUSH32 0x17307EAB39AB6107E8899845AD3D59BD9653F200F220920489CA2B5937696C31 DUP4 PUSH1 0x40 MLOAD PUSH2 0x18BC SWAP2 SWAP1 PUSH2 0x2417 JUMP JUMPDEST PUSH1 0x40 MLOAD DUP1 SWAP2 SUB SWAP1 LOG3 POP POP POP JUMP JUMPDEST PUSH0 PUSH20 0xFFFFFFFFFFFFFFFFFFFFFFFFFFFFFFFFFFFFFFFF AND DUP3 PUSH20 0xFFFFFFFFFFFFFFFFFFFFFFFFFFFFFFFFFFFFFFFF AND SUB PUSH2 0x1939 JUMPI PUSH0 PUSH1 0x40 MLOAD PUSH32 0x64A0AE9200000000000000000000000000000000000000000000000000000000 DUP2 MSTORE PUSH1 0x4 ADD PUSH2 0x1930 SWAP2 SWAP1 PUSH2 0x2577 JUMP JUMPDEST PUSH1 0x40 MLOAD DUP1 SWAP2 SUB SWAP1 REVERT JUMPDEST PUSH0 PUSH2 0x1945 DUP4 DUP4 PUSH0 PUSH2 0x14BE JUMP JUMPDEST SWAP1 POP PUSH0 PUSH20 0xFFFFFFFFFFFFFFFFFFFFFFFFFFFFFFFFFFFFFFFF AND DUP2 PUSH20 0xFFFFFFFFFFFFFFFFFFFFFFFFFFFFFFFFFFFFFFFF AND SUB PUSH2 0x19B7 JUMPI DUP2 PUSH1 0x40 MLOAD PUSH32 0x7E27328900000000000000000000000000000000000000000000000000000000 DUP2 MSTORE PUSH1 0x4 ADD PUSH2 0x19AE SWAP2 SWAP1 PUSH2 0x26BC JUMP JUMPDEST PUSH1 0x40 MLOAD DUP1 SWAP2 SUB SWAP1 REVERT JUMPDEST DUP4 PUSH20 0xFFFFFFFFFFFFFFFFFFFFFFFFFFFFFFFFFFFFFFFF AND DUP2 PUSH20 0xFFFFFFFFFFFFFFFFFFFFFFFFFFFFFFFFFFFFFFFF AND EQ PUSH2 0x1A2B JUMPI DUP4 DUP3 DUP3 PUSH1 0x40 MLOAD PUSH32 0x64283D7B00000000000000000000000000000000000000000000000000000000 DUP2 MSTORE PUSH1 0x4 ADD PUSH2 0x1A22 SWAP4 SWAP3 SWAP2 SWAP1 PUSH2 0x2AEE JUMP JUMPDEST PUSH1 0x40 MLOAD DUP1 SWAP2 SUB SWAP1 REVERT JUMPDEST POP POP POP POP JUMP JUMPDEST PUSH0 DUP4 PUSH20 0xFFFFFFFFFFFFFFFFFFFFFFFFFFFFFFFFFFFFFFFF AND EXTCODESIZE GT ISZERO PUSH2 0x1BDD JUMPI DUP3 PUSH20 0xFFFFFFFFFFFFFFFFFFFFFFFFFFFFFFFFFFFFFFFF AND PUSH4 0x150B7A02 PUSH2 0x1A74 PUSH2 0x14A5 JUMP JUMPDEST DUP7 DUP6 DUP6 PUSH1 0x40 MLOAD DUP6 PUSH4 0xFFFFFFFF AND PUSH1 0xE0 SHL DUP2 MSTORE PUSH1 0x4 ADD PUSH2 0x1A96 SWAP5 SWAP4 SWAP3 SWAP2 SWAP1 PUSH2 0x30DC JUMP JUMPDEST PUSH1 0x20 PUSH1 0x40 MLOAD DUP1 DUP4 SUB DUP2 PUSH0 DUP8 GAS CALL SWAP3 POP POP POP DUP1 ISZERO PUSH2 0x1AD1 JUMPI POP PUSH1 0x40 MLOAD RETURNDATASIZE PUSH1 0x1F NOT PUSH1 0x1F DUP3 ADD AND DUP3 ADD DUP1 PUSH1 0x40 MSTORE POP DUP2 ADD SWAP1 PUSH2 0x1ACE SWAP2 SWAP1 PUSH2 0x313A JUMP JUMPDEST PUSH1 0x1 JUMPDEST PUSH2 0x1B52 JUMPI RETURNDATASIZE DUP1 PUSH0 DUP2 EQ PUSH2 0x1AFF JUMPI PUSH1 0x40 MLOAD SWAP2 POP PUSH1 0x1F NOT PUSH1 0x3F RETURNDATASIZE ADD AND DUP3 ADD PUSH1 0x40 MSTORE RETURNDATASIZE DUP3 MSTORE RETURNDATASIZE PUSH0 PUSH1 0x20 DUP5 ADD RETURNDATACOPY PUSH2 0x1B04 JUMP JUMPDEST PUSH1 0x60 SWAP2 POP JUMPDEST POP PUSH0 DUP2 MLOAD SUB PUSH2 0x1B4A JUMPI DUP4 PUSH1 0x40 MLOAD PUSH32 0x64A0AE9200000000000000000000000000000000000000000000000000000000 DUP2 MSTORE PUSH1 0x4 ADD PUSH2 0x1B41 SWAP2 SWAP1 PUSH2 0x2577 JUMP JUMPDEST PUSH1 0x40 MLOAD DUP1 SWAP2 SUB SWAP1 REVERT JUMPDEST DUP1 MLOAD DUP2 PUSH1 0x20 ADD REVERT JUMPDEST PUSH4 0x150B7A02 PUSH1 0xE0 SHL PUSH28 0xFFFFFFFFFFFFFFFFFFFFFFFFFFFFFFFFFFFFFFFFFFFFFFFFFFFFFFFF NOT AND DUP2 PUSH28 0xFFFFFFFFFFFFFFFFFFFFFFFFFFFFFFFFFFFFFFFFFFFFFFFFFFFFFFFF NOT AND EQ PUSH2 0x1BDB JUMPI DUP4 PUSH1 0x40 MLOAD PUSH32 0x64A0AE9200000000000000000000000000000000000000000000000000000000 DUP2 MSTORE PUSH1 0x4 ADD PUSH2 0x1BD2 SWAP2 SWAP1 PUSH2 0x2577 JUMP JUMPDEST PUSH1 0x40 MLOAD DUP1 SWAP2 SUB SWAP1 REVERT JUMPDEST POP JUMPDEST POP POP POP POP JUMP JUMPDEST PUSH1 0x60 PUSH1 0x40 MLOAD DUP1 PUSH1 0x20 ADD PUSH1 0x40 MSTORE DUP1 PUSH0 DUP2 MSTORE POP SWAP1 POP SWAP1 JUMP JUMPDEST PUSH1 0x60 PUSH2 0x1C04 DUP3 PUSH2 0x13E6 JUMP JUMPDEST POP PUSH0 PUSH2 0x1C0E PUSH2 0x1BE3 JUMP JUMPDEST SWAP1 POP PUSH0 DUP2 MLOAD GT PUSH2 0x1C2C JUMPI PUSH1 0x40 MLOAD DUP1 PUSH1 0x20 ADD PUSH1 0x40 MSTORE DUP1 PUSH0 DUP2 MSTORE POP PUSH2 0x1C57 JUMP JUMPDEST DUP1 PUSH2 0x1C36 DUP5 PUSH2 0x1F9E JUMP JUMPDEST PUSH1 0x40 MLOAD PUSH1 0x20 ADD PUSH2 0x1C47 SWAP3 SWAP2 SWAP1 PUSH2 0x3067 JUMP JUMPDEST PUSH1 0x40 MLOAD PUSH1 0x20 DUP2 DUP4 SUB SUB DUP2 MSTORE SWAP1 PUSH1 0x40 MSTORE JUMPDEST SWAP2 POP POP SWAP2 SWAP1 POP JUMP JUMPDEST PUSH0 PUSH32 0x1FFC9A700000000000000000000000000000000000000000000000000000000 PUSH28 0xFFFFFFFFFFFFFFFFFFFFFFFFFFFFFFFFFFFFFFFFFFFFFFFFFFFFFFFF NOT AND DUP3 PUSH28 0xFFFFFFFFFFFFFFFFFFFFFFFFFFFFFFFFFFFFFFFFFFFFFFFFFFFFFFFF NOT AND EQ SWAP1 POP SWAP2 SWAP1 POP JUMP JUMPDEST PUSH0 PUSH1 0x2 PUSH0 DUP4 DUP2 MSTORE PUSH1 0x20 ADD SWAP1 DUP2 MSTORE PUSH1 0x20 ADD PUSH0 KECCAK256 PUSH0 SWAP1 SLOAD SWAP1 PUSH2 0x100 EXP SWAP1 DIV PUSH20 0xFFFFFFFFFFFFFFFFFFFFFFFFFFFFFFFFFFFFFFFF AND SWAP1 POP SWAP2 SWAP1 POP JUMP JUMPDEST DUP1 DUP1 PUSH2 0x1D39 JUMPI POP PUSH0 PUSH20 0xFFFFFFFFFFFFFFFFFFFFFFFFFFFFFFFFFFFFFFFF AND DUP3 PUSH20 0xFFFFFFFFFFFFFFFFFFFFFFFFFFFFFFFFFFFFFFFF AND EQ ISZERO JUMPDEST ISZERO PUSH2 0x1E6B JUMPI PUSH0 PUSH2 0x1D48 DUP5 PUSH2 0x13E6 JUMP JUMPDEST SWAP1 POP PUSH0 PUSH20 0xFFFFFFFFFFFFFFFFFFFFFFFFFFFFFFFFFFFFFFFF AND DUP4 PUSH20 0xFFFFFFFFFFFFFFFFFFFFFFFFFFFFFFFFFFFFFFFF AND EQ ISZERO DUP1 ISZERO PUSH2 0x1DB2 JUMPI POP DUP3 PUSH20 0xFFFFFFFFFFFFFFFFFFFFFFFFFFFFFFFFFFFFFFFF AND DUP2 PUSH20 0xFFFFFFFFFFFFFFFFFFFFFFFFFFFFFFFFFFFFFFFF AND EQ ISZERO JUMPDEST DUP1 ISZERO PUSH2 0x1DC5 JUMPI POP PUSH2 0x1DC3 DUP2 DUP5 PUSH2 0x11E9 JUMP JUMPDEST ISZERO JUMPDEST ISZERO PUSH2 0x1E07 JUMPI DUP3 PUSH1 0x40 MLOAD PUSH32 0xA9FBF51F00000000000000000000000000000000000000000000000000000000 DUP2 MSTORE PUSH1 0x4 ADD PUSH2 0x1DFE SWAP2 SWAP1 PUSH2 0x2577 JUMP JUMPDEST PUSH1 0x40 MLOAD DUP1 SWAP2 SUB SWAP1 REVERT JUMPDEST DUP2 ISZERO PUSH2 0x1E69 JUMPI DUP4 DUP6 PUSH20 0xFFFFFFFFFFFFFFFFFFFFFFFFFFFFFFFFFFFFFFFF AND DUP3 PUSH20 0xFFFFFFFFFFFFFFFFFFFFFFFFFFFFFFFFFFFFFFFF AND PUSH32 0x8C5BE1E5EBEC7D5BD14F71427D1E84F3DD0314C0F7B2291E5B200AC8C7C3B925 PUSH1 0x40 MLOAD PUSH1 0x40 MLOAD DUP1 SWAP2 SUB SWAP1 LOG4 JUMPDEST POP JUMPDEST DUP4 PUSH1 0x4 PUSH0 DUP6 DUP2 MSTORE PUSH1 0x20 ADD SWAP1 DUP2 MSTORE PUSH1 0x20 ADD PUSH0 KECCAK256 PUSH0 PUSH2 0x100 EXP DUP2 SLOAD DUP2 PUSH20 0xFFFFFFFFFFFFFFFFFFFFFFFFFFFFFFFFFFFFFFFF MUL NOT AND SWAP1 DUP4 PUSH20 0xFFFFFFFFFFFFFFFFFFFFFFFFFFFFFFFFFFFFFFFF AND MUL OR SWAP1 SSTORE POP POP POP POP POP JUMP JUMPDEST PUSH2 0x1ECB DUP4 DUP4 DUP4 PUSH2 0x2068 JUMP JUMPDEST PUSH2 0x1F7E JUMPI PUSH0 PUSH20 0xFFFFFFFFFFFFFFFFFFFFFFFFFFFFFFFFFFFFFFFF AND DUP4 PUSH20 0xFFFFFFFFFFFFFFFFFFFFFFFFFFFFFFFFFFFFFFFF AND SUB PUSH2 0x1F3F JUMPI DUP1 PUSH1 0x40 MLOAD PUSH32 0x7E27328900000000000000000000000000000000000000000000000000000000 DUP2 MSTORE PUSH1 0x4 ADD PUSH2 0x1F36 SWAP2 SWAP1 PUSH2 0x26BC JUMP JUMPDEST PUSH1 0x40 MLOAD DUP1 SWAP2 SUB SWAP1 REVERT JUMPDEST DUP2 DUP2 PUSH1 0x40 MLOAD PUSH32 0x177E802F00000000000000000000000000000000000000000000000000000000 DUP2 MSTORE PUSH1 0x4 ADD PUSH2 0x1F75 SWAP3 SWAP2 SWAP1 PUSH2 0x2657 JUMP JUMPDEST PUSH1 0x40 MLOAD DUP1 SWAP2 SUB SWAP1 REVERT JUMPDEST POP POP POP JUMP JUMPDEST PUSH2 0x1F8D DUP4 DUP4 PUSH2 0x2128 JUMP JUMPDEST PUSH2 0x1F99 PUSH0 DUP5 DUP5 DUP5 PUSH2 0x1A31 JUMP JUMPDEST POP POP POP JUMP JUMPDEST PUSH1 0x60 PUSH0 PUSH1 0x1 PUSH2 0x1FAC DUP5 PUSH2 0x221B JUMP JUMPDEST ADD SWAP1 POP PUSH0 DUP2 PUSH8 0xFFFFFFFFFFFFFFFF DUP2 GT ISZERO PUSH2 0x1FCA JUMPI PUSH2 0x1FC9 PUSH2 0x26DD JUMP JUMPDEST JUMPDEST PUSH1 0x40 MLOAD SWAP1 DUP1 DUP3 MSTORE DUP1 PUSH1 0x1F ADD PUSH1 0x1F NOT AND PUSH1 0x20 ADD DUP3 ADD PUSH1 0x40 MSTORE DUP1 ISZERO PUSH2 0x1FFC JUMPI DUP2 PUSH1 0x20 ADD PUSH1 0x1 DUP3 MUL DUP1 CALLDATASIZE DUP4 CALLDATACOPY DUP1 DUP3 ADD SWAP2 POP POP SWAP1 POP JUMPDEST POP SWAP1 POP PUSH0 DUP3 PUSH1 0x20 ADD DUP3 ADD SWAP1 POP JUMPDEST PUSH1 0x1 ISZERO PUSH2 0x205D JUMPI DUP1 DUP1 PUSH1 0x1 SWAP1 SUB SWAP2 POP POP PUSH32 0x3031323334353637383961626364656600000000000000000000000000000000 PUSH1 0xA DUP7 MOD BYTE DUP2 MSTORE8 PUSH1 0xA DUP6 DUP2 PUSH2 0x2052 JUMPI PUSH2 0x2051 PUSH2 0x2B91 JUMP JUMPDEST JUMPDEST DIV SWAP5 POP PUSH0 DUP6 SUB PUSH2 0x2009 JUMPI JUMPDEST DUP2 SWAP4 POP POP POP POP SWAP2 SWAP1 POP JUMP JUMPDEST PUSH0 DUP1 PUSH20 0xFFFFFFFFFFFFFFFFFFFFFFFFFFFFFFFFFFFFFFFF AND DUP4 PUSH20 0xFFFFFFFFFFFFFFFFFFFFFFFFFFFFFFFFFFFFFFFF AND EQ ISZERO DUP1 ISZERO PUSH2 0x211F JUMPI POP DUP3 PUSH20 0xFFFFFFFFFFFFFFFFFFFFFFFFFFFFFFFFFFFFFFFF AND DUP5 PUSH20 0xFFFFFFFFFFFFFFFFFFFFFFFFFFFFFFFFFFFFFFFF AND EQ DUP1 PUSH2 0x20E0 JUMPI POP PUSH2 0x20DF DUP5 DUP5 PUSH2 0x11E9 JUMP JUMPDEST JUMPDEST DUP1 PUSH2 0x211E JUMPI POP DUP3 PUSH20 0xFFFFFFFFFFFFFFFFFFFFFFFFFFFFFFFFFFFFFFFF AND PUSH2 0x2106 DUP4 PUSH2 0x146C JUMP JUMPDEST PUSH20 0xFFFFFFFFFFFFFFFFFFFFFFFFFFFFFFFFFFFFFFFF AND EQ JUMPDEST JUMPDEST SWAP1 POP SWAP4 SWAP3 POP POP POP JUMP JUMPDEST PUSH0 PUSH20 0xFFFFFFFFFFFFFFFFFFFFFFFFFFFFFFFFFFFFFFFF AND DUP3 PUSH20 0xFFFFFFFFFFFFFFFFFFFFFFFFFFFFFFFFFFFFFFFF AND SUB PUSH2 0x2198 JUMPI PUSH0 PUSH1 0x40 MLOAD PUSH32 0x64A0AE9200000000000000000000000000000000000000000000000000000000 DUP2 MSTORE PUSH1 0x4 ADD PUSH2 0x218F SWAP2 SWAP1 PUSH2 0x2577 JUMP JUMPDEST PUSH1 0x40 MLOAD DUP1 SWAP2 SUB SWAP1 REVERT JUMPDEST PUSH0 PUSH2 0x21A4 DUP4 DUP4 PUSH0 PUSH2 0x14BE JUMP JUMPDEST SWAP1 POP PUSH0 PUSH20 0xFFFFFFFFFFFFFFFFFFFFFFFFFFFFFFFFFFFFFFFF AND DUP2 PUSH20 0xFFFFFFFFFFFFFFFFFFFFFFFFFFFFFFFFFFFFFFFF AND EQ PUSH2 0x2216 JUMPI PUSH0 PUSH1 0x40 MLOAD PUSH32 0x73C6AC6E00000000000000000000000000000000000000000000000000000000 DUP2 MSTORE PUSH1 0x4 ADD PUSH2 0x220D SWAP2 SWAP1 PUSH2 0x2577 JUMP JUMPDEST PUSH1 0x40 MLOAD DUP1 SWAP2 SUB SWAP1 REVERT JUMPDEST POP POP POP JUMP JUMPDEST PUSH0 DUP1 PUSH0 SWAP1 POP PUSH27 0x184F03E93FF9F4DAA797ED6E38ED64BF6A1F010000000000000000 DUP4 LT PUSH2 0x2277 JUMPI PUSH27 0x184F03E93FF9F4DAA797ED6E38ED64BF6A1F010000000000000000 DUP4 DUP2 PUSH2 0x226D JUMPI PUSH2 0x226C PUSH2 0x2B91 JUMP JUMPDEST JUMPDEST DIV SWAP3 POP PUSH1 0x40 DUP2 ADD SWAP1 POP JUMPDEST PUSH14 0x4EE2D6D415B85ACEF8100000000 DUP4 LT PUSH2 0x22B4 JUMPI PUSH14 0x4EE2D6D415B85ACEF8100000000 DUP4 DUP2 PUSH2 0x22AA JUMPI PUSH2 0x22A9 PUSH2 0x2B91 JUMP JUMPDEST JUMPDEST DIV SWAP3 POP PUSH1 0x20 DUP2 ADD SWAP1 POP JUMPDEST PUSH7 0x2386F26FC10000 DUP4 LT PUSH2 0x22E3 JUMPI PUSH7 0x2386F26FC10000 DUP4 DUP2 PUSH2 0x22D9 JUMPI PUSH2 0x22D8 PUSH2 0x2B91 JUMP JUMPDEST JUMPDEST DIV SWAP3 POP PUSH1 0x10 DUP2 ADD SWAP1 POP JUMPDEST PUSH4 0x5F5E100 DUP4 LT PUSH2 0x230C JUMPI PUSH4 0x5F5E100 DUP4 DUP2 PUSH2 0x2302 JUMPI PUSH2 0x2301 PUSH2 0x2B91 JUMP JUMPDEST JUMPDEST DIV SWAP3 POP PUSH1 0x8 DUP2 ADD SWAP1 POP JUMPDEST PUSH2 0x2710 DUP4 LT PUSH2 0x2331 JUMPI PUSH2 0x2710 DUP4 DUP2 PUSH2 0x2327 JUMPI PUSH2 0x2326 PUSH2 0x2B91 JUMP JUMPDEST JUMPDEST DIV SWAP3 POP PUSH1 0x4 DUP2 ADD SWAP1 POP JUMPDEST PUSH1 0x64 DUP4 LT PUSH2 0x2354 JUMPI PUSH1 0x64 DUP4 DUP2 PUSH2 0x234A JUMPI PUSH2 0x2349 PUSH2 0x2B91 JUMP JUMPDEST JUMPDEST DIV SWAP3 POP PUSH1 0x2 DUP2 ADD SWAP1 POP JUMPDEST PUSH1 0xA DUP4 LT PUSH2 0x2363 JUMPI PUSH1 0x1 DUP2 ADD SWAP1 POP JUMPDEST DUP1 SWAP2 POP POP SWAP2 SWAP1 POP JUMP JUMPDEST PUSH0 PUSH1 0x40 MLOAD SWAP1 POP SWAP1 JUMP JUMPDEST PUSH0 DUP1 REVERT JUMPDEST PUSH0 DUP1 REVERT JUMPDEST PUSH0 PUSH32 0xFFFFFFFF00000000000000000000000000000000000000000000000000000000 DUP3 AND SWAP1 POP SWAP2 SWAP1 POP JUMP JUMPDEST PUSH2 0x23B1 DUP2 PUSH2 0x237D JUMP JUMPDEST DUP2 EQ PUSH2 0x23BB JUMPI PUSH0 DUP1 REVERT JUMPDEST POP JUMP JUMPDEST PUSH0 DUP2 CALLDATALOAD SWAP1 POP PUSH2 0x23CC DUP2 PUSH2 0x23A8 JUMP JUMPDEST SWAP3 SWAP2 POP POP JUMP JUMPDEST PUSH0 PUSH1 0x20 DUP3 DUP5 SUB SLT ISZERO PUSH2 0x23E7 JUMPI PUSH2 0x23E6 PUSH2 0x2375 JUMP JUMPDEST JUMPDEST PUSH0 PUSH2 0x23F4 DUP5 DUP3 DUP6 ADD PUSH2 0x23BE JUMP JUMPDEST SWAP2 POP POP SWAP3 SWAP2 POP POP JUMP JUMPDEST PUSH0 DUP2 ISZERO ISZERO SWAP1 POP SWAP2 SWAP1 POP JUMP JUMPDEST PUSH2 0x2411 DUP2 PUSH2 0x23FD JUMP JUMPDEST DUP3 MSTORE POP POP JUMP JUMPDEST PUSH0 PUSH1 0x20 DUP3 ADD SWAP1 POP PUSH2 0x242A PUSH0 DUP4 ADD DUP5 PUSH2 0x2408 JUMP JUMPDEST SWAP3 SWAP2 POP POP JUMP JUMPDEST PUSH0 DUP2 MLOAD SWAP1 POP SWAP2 SWAP1 POP JUMP JUMPDEST PUSH0 DUP3 DUP3 MSTORE PUSH1 0x20 DUP3 ADD SWAP1 POP SWAP3 SWAP2 POP POP JUMP JUMPDEST PUSH0 JUMPDEST DUP4 DUP2 LT ISZERO PUSH2 0x2467 JUMPI DUP1 DUP3 ADD MLOAD DUP2 DUP5 ADD MSTORE PUSH1 0x20 DUP2 ADD SWAP1 POP PUSH2 0x244C JUMP JUMPDEST PUSH0 DUP5 DUP5 ADD MSTORE POP POP POP POP JUMP JUMPDEST PUSH0 PUSH1 0x1F NOT PUSH1 0x1F DUP4 ADD AND SWAP1 POP SWAP2 SWAP1 POP JUMP JUMPDEST PUSH0 PUSH2 0x248C DUP3 PUSH2 0x2430 JUMP JUMPDEST PUSH2 0x2496 DUP2 DUP6 PUSH2 0x243A JUMP JUMPDEST SWAP4 POP PUSH2 0x24A6 DUP2 DUP6 PUSH1 0x20 DUP7 ADD PUSH2 0x244A JUMP JUMPDEST PUSH2 0x24AF DUP2 PUSH2 0x2472 JUMP JUMPDEST DUP5 ADD SWAP2 POP POP SWAP3 SWAP2 POP POP JUMP JUMPDEST PUSH0 PUSH1 0x20 DUP3 ADD SWAP1 POP DUP2 DUP2 SUB PUSH0 DUP4 ADD MSTORE PUSH2 0x24D2 DUP2 DUP5 PUSH2 0x2482 JUMP JUMPDEST SWAP1 POP SWAP3 SWAP2 POP POP JUMP JUMPDEST PUSH0 DUP2 SWAP1 POP SWAP2 SWAP1 POP JUMP JUMPDEST PUSH2 0x24EC DUP2 PUSH2 0x24DA JUMP JUMPDEST DUP2 EQ PUSH2 0x24F6 JUMPI PUSH0 DUP1 REVERT JUMPDEST POP JUMP JUMPDEST PUSH0 DUP2 CALLDATALOAD SWAP1 POP PUSH2 0x2507 DUP2 PUSH2 0x24E3 JUMP JUMPDEST SWAP3 SWAP2 POP POP JUMP JUMPDEST PUSH0 PUSH1 0x20 DUP3 DUP5 SUB SLT ISZERO PUSH2 0x2522 JUMPI PUSH2 0x2521 PUSH2 0x2375 JUMP JUMPDEST JUMPDEST PUSH0 PUSH2 0x252F DUP5 DUP3 DUP6 ADD PUSH2 0x24F9 JUMP JUMPDEST SWAP2 POP POP SWAP3 SWAP2 POP POP JUMP JUMPDEST PUSH0 PUSH20 0xFFFFFFFFFFFFFFFFFFFFFFFFFFFFFFFFFFFFFFFF DUP3 AND SWAP1 POP SWAP2 SWAP1 POP JUMP JUMPDEST PUSH0 PUSH2 0x2561 DUP3 PUSH2 0x2538 JUMP JUMPDEST SWAP1 POP SWAP2 SWAP1 POP JUMP JUMPDEST PUSH2 0x2571 DUP2 PUSH2 0x2557 JUMP JUMPDEST DUP3 MSTORE POP POP JUMP JUMPDEST PUSH0 PUSH1 0x20 DUP3 ADD SWAP1 POP PUSH2 0x258A PUSH0 DUP4 ADD DUP5 PUSH2 0x2568 JUMP JUMPDEST SWAP3 SWAP2 POP POP JUMP JUMPDEST PUSH2 0x2599 DUP2 PUSH2 0x2557 JUMP JUMPDEST DUP2 EQ PUSH2 0x25A3 JUMPI PUSH0 DUP1 REVERT JUMPDEST POP JUMP JUMPDEST PUSH0 DUP2 CALLDATALOAD SWAP1 POP PUSH2 0x25B4 DUP2 PUSH2 0x2590 JUMP JUMPDEST SWAP3 SWAP2 POP POP JUMP JUMPDEST PUSH0 DUP1 PUSH1 0x40 DUP4 DUP6 SUB SLT ISZERO PUSH2 0x25D0 JUMPI PUSH2 0x25CF PUSH2 0x2375 JUMP JUMPDEST JUMPDEST PUSH0 PUSH2 0x25DD DUP6 DUP3 DUP7 ADD PUSH2 0x25A6 JUMP JUMPDEST SWAP3 POP POP PUSH1 0x20 PUSH2 0x25EE DUP6 DUP3 DUP7 ADD PUSH2 0x24F9 JUMP JUMPDEST SWAP2 POP POP SWAP3 POP SWAP3 SWAP1 POP JUMP JUMPDEST PUSH0 DUP1 PUSH0 PUSH1 0x60 DUP5 DUP7 SUB SLT ISZERO PUSH2 0x260F JUMPI PUSH2 0x260E PUSH2 0x2375 JUMP JUMPDEST JUMPDEST PUSH0 PUSH2 0x261C DUP7 DUP3 DUP8 ADD PUSH2 0x25A6 JUMP JUMPDEST SWAP4 POP POP PUSH1 0x20 PUSH2 0x262D DUP7 DUP3 DUP8 ADD PUSH2 0x25A6 JUMP JUMPDEST SWAP3 POP POP PUSH1 0x40 PUSH2 0x263E DUP7 DUP3 DUP8 ADD PUSH2 0x24F9 JUMP JUMPDEST SWAP2 POP POP SWAP3 POP SWAP3 POP SWAP3 JUMP JUMPDEST PUSH2 0x2651 DUP2 PUSH2 0x24DA JUMP JUMPDEST DUP3 MSTORE POP POP JUMP JUMPDEST PUSH0 PUSH1 0x40 DUP3 ADD SWAP1 POP PUSH2 0x266A PUSH0 DUP4 ADD DUP6 PUSH2 0x2568 JUMP JUMPDEST PUSH2 0x2677 PUSH1 0x20 DUP4 ADD DUP5 PUSH2 0x2648 JUMP JUMPDEST SWAP4 SWAP3 POP POP POP JUMP JUMPDEST PUSH0 DUP1 PUSH1 0x40 DUP4 DUP6 SUB SLT ISZERO PUSH2 0x2694 JUMPI PUSH2 0x2693 PUSH2 0x2375 JUMP JUMPDEST JUMPDEST PUSH0 PUSH2 0x26A1 DUP6 DUP3 DUP7 ADD PUSH2 0x24F9 JUMP JUMPDEST SWAP3 POP POP PUSH1 0x20 PUSH2 0x26B2 DUP6 DUP3 DUP7 ADD PUSH2 0x24F9 JUMP JUMPDEST SWAP2 POP POP SWAP3 POP SWAP3 SWAP1 POP JUMP JUMPDEST PUSH0 PUSH1 0x20 DUP3 ADD SWAP1 POP PUSH2 0x26CF PUSH0 DUP4 ADD DUP5 PUSH2 0x2648 JUMP JUMPDEST SWAP3 SWAP2 POP POP JUMP JUMPDEST PUSH0 DUP1 REVERT JUMPDEST PUSH0 DUP1 REVERT JUMPDEST PUSH32 0x4E487B7100000000000000000000000000000000000000000000000000000000 PUSH0 MSTORE PUSH1 0x41 PUSH1 0x4 MSTORE PUSH1 0x24 PUSH0 REVERT JUMPDEST PUSH2 0x2713 DUP3 PUSH2 0x2472 JUMP JUMPDEST DUP2 ADD DUP2 DUP2 LT PUSH8 0xFFFFFFFFFFFFFFFF DUP3 GT OR ISZERO PUSH2 0x2732 JUMPI PUSH2 0x2731 PUSH2 0x26DD JUMP JUMPDEST JUMPDEST DUP1 PUSH1 0x40 MSTORE POP POP POP JUMP JUMPDEST PUSH0 PUSH2 0x2744 PUSH2 0x236C JUMP JUMPDEST SWAP1 POP PUSH2 0x2750 DUP3 DUP3 PUSH2 0x270A JUMP JUMPDEST SWAP2 SWAP1 POP JUMP JUMPDEST PUSH0 PUSH8 0xFFFFFFFFFFFFFFFF DUP3 GT ISZERO PUSH2 0x276F JUMPI PUSH2 0x276E PUSH2 0x26DD JUMP JUMPDEST JUMPDEST PUSH2 0x2778 DUP3 PUSH2 0x2472 JUMP JUMPDEST SWAP1 POP PUSH1 0x20 DUP2 ADD SWAP1 POP SWAP2 SWAP1 POP JUMP JUMPDEST DUP3 DUP2 DUP4 CALLDATACOPY PUSH0 DUP4 DUP4 ADD MSTORE POP POP POP JUMP JUMPDEST PUSH0 PUSH2 0x27A5 PUSH2 0x27A0 DUP5 PUSH2 0x2755 JUMP JUMPDEST PUSH2 0x273B JUMP JUMPDEST SWAP1 POP DUP3 DUP2 MSTORE PUSH1 0x20 DUP2 ADD DUP5 DUP5 DUP5 ADD GT ISZERO PUSH2 0x27C1 JUMPI PUSH2 0x27C0 PUSH2 0x26D9 JUMP JUMPDEST JUMPDEST PUSH2 0x27CC DUP5 DUP3 DUP6 PUSH2 0x2785 JUMP JUMPDEST POP SWAP4 SWAP3 POP POP POP JUMP JUMPDEST PUSH0 DUP3 PUSH1 0x1F DUP4 ADD SLT PUSH2 0x27E8 JUMPI PUSH2 0x27E7 PUSH2 0x26D5 JUMP JUMPDEST JUMPDEST DUP2 CALLDATALOAD PUSH2 0x27F8 DUP5 DUP3 PUSH1 0x20 DUP7 ADD PUSH2 0x2793 JUMP JUMPDEST SWAP2 POP POP SWAP3 SWAP2 POP POP JUMP JUMPDEST PUSH0 PUSH1 0x20 DUP3 DUP5 SUB SLT ISZERO PUSH2 0x2816 JUMPI PUSH2 0x2815 PUSH2 0x2375 JUMP JUMPDEST JUMPDEST PUSH0 DUP3 ADD CALLDATALOAD PUSH8 0xFFFFFFFFFFFFFFFF DUP2 GT ISZERO PUSH2 0x2833 JUMPI PUSH2 0x2832 PUSH2 0x2379 JUMP JUMPDEST JUMPDEST PUSH2 0x283F DUP5 DUP3 DUP6 ADD PUSH2 0x27D4 JUMP JUMPDEST SWAP2 POP POP SWAP3 SWAP2 POP POP JUMP JUMPDEST PUSH0 DUP1 PUSH1 0x40 DUP4 DUP6 SUB SLT ISZERO PUSH2 0x285E JUMPI PUSH2 0x285D PUSH2 0x2375 JUMP JUMPDEST JUMPDEST PUSH0 DUP4 ADD CALLDATALOAD PUSH8 0xFFFFFFFFFFFFFFFF DUP2 GT ISZERO PUSH2 0x287B JUMPI PUSH2 0x287A PUSH2 0x2379 JUMP JUMPDEST JUMPDEST PUSH2 0x2887 DUP6 DUP3 DUP7 ADD PUSH2 0x27D4 JUMP JUMPDEST SWAP3 POP POP PUSH1 0x20 PUSH2 0x2898 DUP6 DUP3 DUP7 ADD PUSH2 0x24F9 JUMP JUMPDEST SWAP2 POP POP SWAP3 POP SWAP3 SWAP1 POP JUMP JUMPDEST PUSH0 PUSH1 0x20 DUP3 DUP5 SUB SLT ISZERO PUSH2 0x28B7 JUMPI PUSH2 0x28B6 PUSH2 0x2375 JUMP JUMPDEST JUMPDEST PUSH0 PUSH2 0x28C4 DUP5 DUP3 DUP6 ADD PUSH2 0x25A6 JUMP JUMPDEST SWAP2 POP POP SWAP3 SWAP2 POP POP JUMP JUMPDEST PUSH2 0x28D6 DUP2 PUSH2 0x23FD JUMP JUMPDEST DUP2 EQ PUSH2 0x28E0 JUMPI PUSH0 DUP1 REVERT JUMPDEST POP JUMP JUMPDEST PUSH0 DUP2 CALLDATALOAD SWAP1 POP PUSH2 0x28F1 DUP2 PUSH2 0x28CD JUMP JUMPDEST SWAP3 SWAP2 POP POP JUMP JUMPDEST PUSH0 DUP1 PUSH1 0x40 DUP4 DUP6 SUB SLT ISZERO PUSH2 0x290D JUMPI PUSH2 0x290C PUSH2 0x2375 JUMP JUMPDEST JUMPDEST PUSH0 PUSH2 0x291A DUP6 DUP3 DUP7 ADD PUSH2 0x25A6 JUMP JUMPDEST SWAP3 POP POP PUSH1 0x20 PUSH2 0x292B DUP6 DUP3 DUP7 ADD PUSH2 0x28E3 JUMP JUMPDEST SWAP2 POP POP SWAP3 POP SWAP3 SWAP1 POP JUMP JUMPDEST PUSH0 PUSH8 0xFFFFFFFFFFFFFFFF DUP3 GT ISZERO PUSH2 0x294F JUMPI PUSH2 0x294E PUSH2 0x26DD JUMP JUMPDEST JUMPDEST PUSH2 0x2958 DUP3 PUSH2 0x2472 JUMP JUMPDEST SWAP1 POP PUSH1 0x20 DUP2 ADD SWAP1 POP SWAP2 SWAP1 POP JUMP JUMPDEST PUSH0 PUSH2 0x2977 PUSH2 0x2972 DUP5 PUSH2 0x2935 JUMP JUMPDEST PUSH2 0x273B JUMP JUMPDEST SWAP1 POP DUP3 DUP2 MSTORE PUSH1 0x20 DUP2 ADD DUP5 DUP5 DUP5 ADD GT ISZERO PUSH2 0x2993 JUMPI PUSH2 0x2992 PUSH2 0x26D9 JUMP JUMPDEST JUMPDEST PUSH2 0x299E DUP5 DUP3 DUP6 PUSH2 0x2785 JUMP JUMPDEST POP SWAP4 SWAP3 POP POP POP JUMP JUMPDEST PUSH0 DUP3 PUSH1 0x1F DUP4 ADD SLT PUSH2 0x29BA JUMPI PUSH2 0x29B9 PUSH2 0x26D5 JUMP JUMPDEST JUMPDEST DUP2 CALLDATALOAD PUSH2 0x29CA DUP5 DUP3 PUSH1 0x20 DUP7 ADD PUSH2 0x2965 JUMP JUMPDEST SWAP2 POP POP SWAP3 SWAP2 POP POP JUMP JUMPDEST PUSH0 DUP1 PUSH0 DUP1 PUSH1 0x80 DUP6 DUP8 SUB SLT ISZERO PUSH2 0x29EB JUMPI PUSH2 0x29EA PUSH2 0x2375 JUMP JUMPDEST JUMPDEST PUSH0 PUSH2 0x29F8 DUP8 DUP3 DUP9 ADD PUSH2 0x25A6 JUMP JUMPDEST SWAP5 POP POP PUSH1 0x20 PUSH2 0x2A09 DUP8 DUP3 DUP9 ADD PUSH2 0x25A6 JUMP JUMPDEST SWAP4 POP POP PUSH1 0x40 PUSH2 0x2A1A DUP8 DUP3 DUP9 ADD PUSH2 0x24F9 JUMP JUMPDEST SWAP3 POP POP PUSH1 0x60 DUP6 ADD CALLDATALOAD PUSH8 0xFFFFFFFFFFFFFFFF DUP2 GT ISZERO PUSH2 0x2A3B JUMPI PUSH2 0x2A3A PUSH2 0x2379 JUMP JUMPDEST JUMPDEST PUSH2 0x2A47 DUP8 DUP3 DUP9 ADD PUSH2 0x29A6 JUMP JUMPDEST SWAP2 POP POP SWAP3 SWAP6 SWAP2 SWAP5 POP SWAP3 POP JUMP JUMPDEST PUSH0 DUP1 PUSH1 0x40 DUP4 DUP6 SUB SLT ISZERO PUSH2 0x2A69 JUMPI PUSH2 0x2A68 PUSH2 0x2375 JUMP JUMPDEST JUMPDEST PUSH0 PUSH2 0x2A76 DUP6 DUP3 DUP7 ADD PUSH2 0x25A6 JUMP JUMPDEST SWAP3 POP POP PUSH1 0x20 PUSH2 0x2A87 DUP6 DUP3 DUP7 ADD PUSH2 0x25A6 JUMP JUMPDEST SWAP2 POP POP SWAP3 POP SWAP3 SWAP1 POP JUMP JUMPDEST PUSH32 0x4E487B7100000000000000000000000000000000000000000000000000000000 PUSH0 MSTORE PUSH1 0x22 PUSH1 0x4 MSTORE PUSH1 0x24 PUSH0 REVERT JUMPDEST PUSH0 PUSH1 0x2 DUP3 DIV SWAP1 POP PUSH1 0x1 DUP3 AND DUP1 PUSH2 0x2AD5 JUMPI PUSH1 0x7F DUP3 AND SWAP2 POP JUMPDEST PUSH1 0x20 DUP3 LT DUP2 SUB PUSH2 0x2AE8 JUMPI PUSH2 0x2AE7 PUSH2 0x2A91 JUMP JUMPDEST JUMPDEST POP SWAP2 SWAP1 POP JUMP JUMPDEST PUSH0 PUSH1 0x60 DUP3 ADD SWAP1 POP PUSH2 0x2B01 PUSH0 DUP4 ADD DUP7 PUSH2 0x2568 JUMP JUMPDEST PUSH2 0x2B0E PUSH1 0x20 DUP4 ADD DUP6 PUSH2 0x2648 JUMP JUMPDEST PUSH2 0x2B1B PUSH1 0x40 DUP4 ADD DUP5 PUSH2 0x2568 JUMP JUMPDEST SWAP5 SWAP4 POP POP POP POP JUMP JUMPDEST PUSH32 0x4E487B7100000000000000000000000000000000000000000000000000000000 PUSH0 MSTORE PUSH1 0x11 PUSH1 0x4 MSTORE PUSH1 0x24 PUSH0 REVERT JUMPDEST PUSH0 PUSH2 0x2B5A DUP3 PUSH2 0x24DA JUMP JUMPDEST SWAP2 POP PUSH2 0x2B65 DUP4 PUSH2 0x24DA JUMP JUMPDEST SWAP3 POP DUP3 DUP3 MUL PUSH2 0x2B73 DUP2 PUSH2 0x24DA JUMP JUMPDEST SWAP2 POP DUP3 DUP3 DIV DUP5 EQ DUP4 ISZERO OR PUSH2 0x2B8A JUMPI PUSH2 0x2B89 PUSH2 0x2B23 JUMP JUMPDEST JUMPDEST POP SWAP3 SWAP2 POP POP JUMP JUMPDEST PUSH32 0x4E487B7100000000000000000000000000000000000000000000000000000000 PUSH0 MSTORE PUSH1 0x12 PUSH1 0x4 MSTORE PUSH1 0x24 PUSH0 REVERT JUMPDEST PUSH0 PUSH2 0x2BC8 DUP3 PUSH2 0x24DA JUMP JUMPDEST SWAP2 POP PUSH2 0x2BD3 DUP4 PUSH2 0x24DA JUMP JUMPDEST SWAP3 POP DUP3 PUSH2 0x2BE3 JUMPI PUSH2 0x2BE2 PUSH2 0x2B91 JUMP JUMPDEST JUMPDEST DUP3 DUP3 DIV SWAP1 POP SWAP3 SWAP2 POP POP JUMP JUMPDEST PUSH0 DUP2 SWAP1 POP DUP2 PUSH0 MSTORE PUSH1 0x20 PUSH0 KECCAK256 SWAP1 POP SWAP2 SWAP1 POP JUMP JUMPDEST PUSH0 PUSH1 0x20 PUSH1 0x1F DUP4 ADD DIV SWAP1 POP SWAP2 SWAP1 POP JUMP JUMPDEST PUSH0 DUP3 DUP3 SHL SWAP1 POP SWAP3 SWAP2 POP POP JUMP JUMPDEST PUSH0 PUSH1 0x8 DUP4 MUL PUSH2 0x2C4A PUSH32 0xFFFFFFFFFFFFFFFFFFFFFFFFFFFFFFFFFFFFFFFFFFFFFFFFFFFFFFFFFFFFFFFF DUP3 PUSH2 0x2C0F JUMP JUMPDEST PUSH2 0x2C54 DUP7 DUP4 PUSH2 0x2C0F JUMP JUMPDEST SWAP6 POP DUP1 NOT DUP5 AND SWAP4 POP DUP1 DUP7 AND DUP5 OR SWAP3 POP POP POP SWAP4 SWAP3 POP POP POP JUMP JUMPDEST PUSH0 DUP2 SWAP1 POP SWAP2 SWAP1 POP JUMP JUMPDEST PUSH0 PUSH2 0x2C8F PUSH2 0x2C8A PUSH2 0x2C85 DUP5 PUSH2 0x24DA JUMP JUMPDEST PUSH2 0x2C6C JUMP JUMPDEST PUSH2 0x24DA JUMP JUMPDEST SWAP1 POP SWAP2 SWAP1 POP JUMP JUMPDEST PUSH0 DUP2 SWAP1 POP SWAP2 SWAP1 POP JUMP JUMPDEST PUSH2 0x2CA8 DUP4 PUSH2 0x2C75 JUMP JUMPDEST PUSH2 0x2CBC PUSH2 0x2CB4 DUP3 PUSH2 0x2C96 JUMP JUMPDEST DUP5 DUP5 SLOAD PUSH2 0x2C1B JUMP JUMPDEST DUP3 SSTORE POP POP POP POP JUMP JUMPDEST PUSH0 SWAP1 JUMP JUMPDEST PUSH2 0x2CD0 PUSH2 0x2CC4 JUMP JUMPDEST PUSH2 0x2CDB DUP2 DUP5 DUP5 PUSH2 0x2C9F JUMP JUMPDEST POP POP POP JUMP JUMPDEST JUMPDEST DUP2 DUP2 LT ISZERO PUSH2 0x2CFE JUMPI PUSH2 0x2CF3 PUSH0 DUP3 PUSH2 0x2CC8 JUMP JUMPDEST PUSH1 0x1 DUP2 ADD SWAP1 POP PUSH2 0x2CE1 JUMP JUMPDEST POP POP JUMP JUMPDEST PUSH1 0x1F DUP3 GT ISZERO PUSH2 0x2D43 JUMPI PUSH2 0x2D14 DUP2 PUSH2 0x2BEE JUMP JUMPDEST PUSH2 0x2D1D DUP5 PUSH2 0x2C00 JUMP JUMPDEST DUP2 ADD PUSH1 0x20 DUP6 LT ISZERO PUSH2 0x2D2C JUMPI DUP2 SWAP1 POP JUMPDEST PUSH2 0x2D40 PUSH2 0x2D38 DUP6 PUSH2 0x2C00 JUMP JUMPDEST DUP4 ADD DUP3 PUSH2 0x2CE0 JUMP JUMPDEST POP POP JUMPDEST POP POP POP JUMP JUMPDEST PUSH0 DUP3 DUP3 SHR SWAP1 POP SWAP3 SWAP2 POP POP JUMP JUMPDEST PUSH0 PUSH2 0x2D63 PUSH0 NOT DUP5 PUSH1 0x8 MUL PUSH2 0x2D48 JUMP JUMPDEST NOT DUP1 DUP4 AND SWAP2 POP POP SWAP3 SWAP2 POP POP JUMP JUMPDEST PUSH0 PUSH2 0x2D7B DUP4 DUP4 PUSH2 0x2D54 JUMP JUMPDEST SWAP2 POP DUP3 PUSH1 0x2 MUL DUP3 OR SWAP1 POP SWAP3 SWAP2 POP POP JUMP JUMPDEST PUSH2 0x2D94 DUP3 PUSH2 0x2430 JUMP JUMPDEST PUSH8 0xFFFFFFFFFFFFFFFF DUP2 GT ISZERO PUSH2 0x2DAD JUMPI PUSH2 0x2DAC PUSH2 0x26DD JUMP JUMPDEST JUMPDEST PUSH2 0x2DB7 DUP3 SLOAD PUSH2 0x2ABE JUMP JUMPDEST PUSH2 0x2DC2 DUP3 DUP3 DUP6 PUSH2 0x2D02 JUMP JUMPDEST PUSH0 PUSH1 0x20 SWAP1 POP PUSH1 0x1F DUP4 GT PUSH1 0x1 DUP2 EQ PUSH2 0x2DF3 JUMPI PUSH0 DUP5 ISZERO PUSH2 0x2DE1 JUMPI DUP3 DUP8 ADD MLOAD SWAP1 POP JUMPDEST PUSH2 0x2DEB DUP6 DUP3 PUSH2 0x2D70 JUMP JUMPDEST DUP7 SSTORE POP PUSH2 0x2E52 JUMP JUMPDEST PUSH1 0x1F NOT DUP5 AND PUSH2 0x2E01 DUP7 PUSH2 0x2BEE JUMP JUMPDEST PUSH0 JUMPDEST DUP3 DUP2 LT ISZERO PUSH2 0x2E28 JUMPI DUP5 DUP10 ADD MLOAD DUP3 SSTORE PUSH1 0x1 DUP3 ADD SWAP2 POP PUSH1 0x20 DUP6 ADD SWAP5 POP PUSH1 0x20 DUP2 ADD SWAP1 POP PUSH2 0x2E03 JUMP JUMPDEST DUP7 DUP4 LT ISZERO PUSH2 0x2E45 JUMPI DUP5 DUP10 ADD MLOAD PUSH2 0x2E41 PUSH1 0x1F DUP10 AND DUP3 PUSH2 0x2D54 JUMP JUMPDEST DUP4 SSTORE POP JUMPDEST PUSH1 0x1 PUSH1 0x2 DUP9 MUL ADD DUP9 SSTORE POP POP POP JUMPDEST POP POP POP POP POP POP JUMP JUMPDEST PUSH32 0x546F6B656E206973206E6F742061742073616C65000000000000000000000000 PUSH0 DUP3 ADD MSTORE POP JUMP JUMPDEST PUSH0 PUSH2 0x2E8E PUSH1 0x14 DUP4 PUSH2 0x243A JUMP JUMPDEST SWAP2 POP PUSH2 0x2E99 DUP3 PUSH2 0x2E5A JUMP JUMPDEST PUSH1 0x20 DUP3 ADD SWAP1 POP SWAP2 SWAP1 POP JUMP JUMPDEST PUSH0 PUSH1 0x20 DUP3 ADD SWAP1 POP DUP2 DUP2 SUB PUSH0 DUP4 ADD MSTORE PUSH2 0x2EBB DUP2 PUSH2 0x2E82 JUMP JUMPDEST SWAP1 POP SWAP2 SWAP1 POP JUMP JUMPDEST PUSH32 0x43616E6E6F742062757920796F7572206F776E204E4654000000000000000000 PUSH0 DUP3 ADD MSTORE POP JUMP JUMPDEST PUSH0 PUSH2 0x2EF6 PUSH1 0x17 DUP4 PUSH2 0x243A JUMP JUMPDEST SWAP2 POP PUSH2 0x2F01 DUP3 PUSH2 0x2EC2 JUMP JUMPDEST PUSH1 0x20 DUP3 ADD SWAP1 POP SWAP2 SWAP1 POP JUMP JUMPDEST PUSH0 PUSH1 0x20 DUP3 ADD SWAP1 POP DUP2 DUP2 SUB PUSH0 DUP4 ADD MSTORE PUSH2 0x2F23 DUP2 PUSH2 0x2EEA JUMP JUMPDEST SWAP1 POP SWAP2 SWAP1 POP JUMP JUMPDEST PUSH32 0x537570706C792045786163742066756E64000000000000000000000000000000 PUSH0 DUP3 ADD MSTORE POP JUMP JUMPDEST PUSH0 PUSH2 0x2F5E PUSH1 0x11 DUP4 PUSH2 0x243A JUMP JUMPDEST SWAP2 POP PUSH2 0x2F69 DUP3 PUSH2 0x2F2A JUMP JUMPDEST PUSH1 0x20 DUP3 ADD SWAP1 POP SWAP2 SWAP1 POP JUMP JUMPDEST PUSH0 PUSH1 0x20 DUP3 ADD SWAP1 POP DUP2 DUP2 SUB PUSH0 DUP4 ADD MSTORE PUSH2 0x2F8B DUP2 PUSH2 0x2F52 JUMP JUMPDEST SWAP1 POP SWAP2 SWAP1 POP JUMP JUMPDEST PUSH0 PUSH2 0x2F9C DUP3 PUSH2 0x24DA JUMP JUMPDEST SWAP2 POP PUSH2 0x2FA7 DUP4 PUSH2 0x24DA JUMP JUMPDEST SWAP3 POP DUP3 DUP3 SUB SWAP1 POP DUP2 DUP2 GT ISZERO PUSH2 0x2FBF JUMPI PUSH2 0x2FBE PUSH2 0x2B23 JUMP JUMPDEST JUMPDEST SWAP3 SWAP2 POP POP JUMP JUMPDEST PUSH32 0x596F75722061726520417574686F72697A6520746F2073656C6C000000000000 PUSH0 DUP3 ADD MSTORE POP JUMP JUMPDEST PUSH0 PUSH2 0x2FF9 PUSH1 0x1A DUP4 PUSH2 0x243A JUMP JUMPDEST SWAP2 POP PUSH2 0x3004 DUP3 PUSH2 0x2FC5 JUMP JUMPDEST PUSH1 0x20 DUP3 ADD SWAP1 POP SWAP2 SWAP1 POP JUMP JUMPDEST PUSH0 PUSH1 0x20 DUP3 ADD SWAP1 POP DUP2 DUP2 SUB PUSH0 DUP4 ADD MSTORE PUSH2 0x3026 DUP2 PUSH2 0x2FED JUMP JUMPDEST SWAP1 POP SWAP2 SWAP1 POP JUMP JUMPDEST PUSH0 DUP2 SWAP1 POP SWAP3 SWAP2 POP POP JUMP JUMPDEST PUSH0 PUSH2 0x3041 DUP3 PUSH2 0x2430 JUMP JUMPDEST PUSH2 0x304B DUP2 DUP6 PUSH2 0x302D JUMP JUMPDEST SWAP4 POP PUSH2 0x305B DUP2 DUP6 PUSH1 0x20 DUP7 ADD PUSH2 0x244A JUMP JUMPDEST DUP1 DUP5 ADD SWAP2 POP POP SWAP3 SWAP2 POP POP JUMP JUMPDEST PUSH0 PUSH2 0x3072 DUP3 DUP6 PUSH2 0x3037 JUMP JUMPDEST SWAP2 POP PUSH2 0x307E DUP3 DUP5 PUSH2 0x3037 JUMP JUMPDEST SWAP2 POP DUP2 SWAP1 POP SWAP4 SWAP3 POP POP POP JUMP JUMPDEST PUSH0 DUP2 MLOAD SWAP1 POP SWAP2 SWAP1 POP JUMP JUMPDEST PUSH0 DUP3 DUP3 MSTORE PUSH1 0x20 DUP3 ADD SWAP1 POP SWAP3 SWAP2 POP POP JUMP JUMPDEST PUSH0 PUSH2 0x30AE DUP3 PUSH2 0x308A JUMP JUMPDEST PUSH2 0x30B8 DUP2 DUP6 PUSH2 0x3094 JUMP JUMPDEST SWAP4 POP PUSH2 0x30C8 DUP2 DUP6 PUSH1 0x20 DUP7 ADD PUSH2 0x244A JUMP JUMPDEST PUSH2 0x30D1 DUP2 PUSH2 0x2472 JUMP JUMPDEST DUP5 ADD SWAP2 POP POP SWAP3 SWAP2 POP POP JUMP JUMPDEST PUSH0 PUSH1 0x80 DUP3 ADD SWAP1 POP PUSH2 0x30EF PUSH0 DUP4 ADD DUP8 PUSH2 0x2568 JUMP JUMPDEST PUSH2 0x30FC PUSH1 0x20 DUP4 ADD DUP7 PUSH2 0x2568 JUMP JUMPDEST PUSH2 0x3109 PUSH1 0x40 DUP4 ADD DUP6 PUSH2 0x2648 JUMP JUMPDEST DUP2 DUP2 SUB PUSH1 0x60 DUP4 ADD MSTORE PUSH2 0x311B DUP2 DUP5 PUSH2 0x30A4 JUMP JUMPDEST SWAP1 POP SWAP6 SWAP5 POP POP POP POP POP JUMP JUMPDEST PUSH0 DUP2 MLOAD SWAP1 POP PUSH2 0x3134 DUP2 PUSH2 0x23A8 JUMP JUMPDEST SWAP3 SWAP2 POP POP JUMP JUMPDEST PUSH0 PUSH1 0x20 DUP3 DUP5 SUB SLT ISZERO PUSH2 0x314F JUMPI PUSH2 0x314E PUSH2 0x2375 JUMP JUMPDEST JUMPDEST PUSH0 PUSH2 0x315C DUP5 DUP3 DUP6 ADD PUSH2 0x3126 JUMP JUMPDEST SWAP2 POP POP SWAP3 SWAP2 POP POP JUMP INVALID LOG2 PUSH5 0x6970667358 0x22 SLT KECCAK256 0xE7 MUL SWAP9 ADDRESS 0xC7 LT 0xF6 SDIV EXTCODESIZE PUSH9 0xB0206460CAA2AAE169 PUSH21 0x1B9705F4DC0967F6CBD5B1A964736F6C6343000814 STOP CALLER "
				},
				"gasEstimates": {
					"creation": {
						"codeDepositCost": "2539800",
						"executionCost": "infinite",
						"totalCost": "infinite"
					},
					"external": {
						"BuyNFT(uint256)": "infinite",
						"KnowPrice(uint256)": "infinite",
						"SellNft(uint256)": "infinite",
						"SoldNft(uint256)": "infinite",
						"approve(address,uint256)": "infinite",
						"balanceOf(address)": "infinite",
						"baseTokenURI()": "infinite",
						"getApproved(uint256)": "infinite",
						"getBalance(address)": "3357",
						"getTotalToken()": "2547",
						"isApprovedForAll(address,address)": "infinite",
						"isSellNft(uint256)": "infinite",
						"mintNFT(string,uint256)": "infinite",
						"name()": "infinite",
						"nfts(uint256)": "infinite",
						"ownerOf(uint256)": "infinite",
						"royaltyInfo(uint256,uint256)": "infinite",
						"royaltyPercentage()": "2492",
						"safeTransferFrom(address,address,uint256)": "infinite",
						"safeTransferFrom(address,address,uint256,bytes)": "infinite",
						"setApprovalForAll(address,bool)": "infinite",
						"setBaseURI(string)": "infinite",
						"supportsInterface(bytes4)": "881",
						"symbol()": "infinite",
						"tokenURI(uint256)": "infinite",
						"transferFrom(address,address,uint256)": "infinite"
					}
				},
				"methodIdentifiers": {
					"BuyNFT(uint256)": "a37365e0",
					"KnowPrice(uint256)": "5a51a885",
					"SellNft(uint256)": "a90d14e2",
					"SoldNft(uint256)": "7d7f1f3e",
					"approve(address,uint256)": "095ea7b3",
					"balanceOf(address)": "70a08231",
					"baseTokenURI()": "d547cfb7",
					"getApproved(uint256)": "081812fc",
					"getBalance(address)": "f8b2cb4f",
					"getTotalToken()": "3d0673d4",
					"isApprovedForAll(address,address)": "e985e9c5",
					"isSellNft(uint256)": "f2a413b5",
					"mintNFT(string,uint256)": "5afa3a72",
					"name()": "06fdde03",
					"nfts(uint256)": "265aa621",
					"ownerOf(uint256)": "6352211e",
					"royaltyInfo(uint256,uint256)": "2a55205a",
					"royaltyPercentage()": "8a71bb2d",
					"safeTransferFrom(address,address,uint256)": "42842e0e",
					"safeTransferFrom(address,address,uint256,bytes)": "b88d4fde",
					"setApprovalForAll(address,bool)": "a22cb465",
					"setBaseURI(string)": "55f804b3",
					"supportsInterface(bytes4)": "01ffc9a7",
					"symbol()": "95d89b41",
					"tokenURI(uint256)": "c87b56dd",
					"transferFrom(address,address,uint256)": "23b872dd"
				}
			},
			"storageLayout": {
				"storage": [
					{
						"astId": 1880,
						"contract": "nftmarket_flattened.sol:NFTMarketplace",
						"label": "_name",
						"offset": 0,
						"slot": "0",
						"type": "t_string_storage"
					},
					{
						"astId": 1882,
						"contract": "nftmarket_flattened.sol:NFTMarketplace",
						"label": "_symbol",
						"offset": 0,
						"slot": "1",
						"type": "t_string_storage"
					},
					{
						"astId": 1886,
						"contract": "nftmarket_flattened.sol:NFTMarketplace",
						"label": "_owners",
						"offset": 0,
						"slot": "2",
						"type": "t_mapping(t_uint256,t_address)"
					},
					{
						"astId": 1890,
						"contract": "nftmarket_flattened.sol:NFTMarketplace",
						"label": "_balances",
						"offset": 0,
						"slot": "3",
						"type": "t_mapping(t_address,t_uint256)"
					},
					{
						"astId": 1894,
						"contract": "nftmarket_flattened.sol:NFTMarketplace",
						"label": "_tokenApprovals",
						"offset": 0,
						"slot": "4",
						"type": "t_mapping(t_uint256,t_address)"
					},
					{
						"astId": 1900,
						"contract": "nftmarket_flattened.sol:NFTMarketplace",
						"label": "_operatorApprovals",
						"offset": 0,
						"slot": "5",
						"type": "t_mapping(t_address,t_mapping(t_address,t_bool))"
					},
					{
						"astId": 2875,
						"contract": "nftmarket_flattened.sol:NFTMarketplace",
						"label": "_tokenURIs",
						"offset": 0,
						"slot": "6",
						"type": "t_mapping(t_uint256,t_string_storage)"
					},
					{
						"astId": 2985,
						"contract": "nftmarket_flattened.sol:NFTMarketplace",
						"label": "_tokenIdCounter",
						"offset": 0,
						"slot": "7",
						"type": "t_struct(Counter)5_storage"
					},
					{
						"astId": 2987,
						"contract": "nftmarket_flattened.sol:NFTMarketplace",
						"label": "baseTokenURI",
						"offset": 0,
						"slot": "8",
						"type": "t_string_storage"
					},
					{
						"astId": 2990,
						"contract": "nftmarket_flattened.sol:NFTMarketplace",
						"label": "royaltyPercentage",
						"offset": 0,
						"slot": "9",
						"type": "t_uint256"
					},
					{
						"astId": 2992,
						"contract": "nftmarket_flattened.sol:NFTMarketplace",
						"label": "contractOwner",
						"offset": 0,
						"slot": "10",
						"type": "t_address"
					},
					{
						"astId": 3003,
						"contract": "nftmarket_flattened.sol:NFTMarketplace",
						"label": "isSell",
						"offset": 0,
						"slot": "11",
						"type": "t_mapping(t_address,t_mapping(t_uint256,t_bool))"
					},
					{
						"astId": 3009,
						"contract": "nftmarket_flattened.sol:NFTMarketplace",
						"label": "isSold",
						"offset": 0,
						"slot": "12",
						"type": "t_mapping(t_address,t_mapping(t_uint256,t_bool))"
					},
					{
						"astId": 3014,
						"contract": "nftmarket_flattened.sol:NFTMarketplace",
						"label": "nfts",
						"offset": 0,
						"slot": "13",
						"type": "t_mapping(t_uint256,t_struct(NFT)2997_storage)"
					}
				],
				"types": {
					"t_address": {
						"encoding": "inplace",
						"label": "address",
						"numberOfBytes": "20"
					},
					"t_bool": {
						"encoding": "inplace",
						"label": "bool",
						"numberOfBytes": "1"
					},
					"t_mapping(t_address,t_bool)": {
						"encoding": "mapping",
						"key": "t_address",
						"label": "mapping(address => bool)",
						"numberOfBytes": "32",
						"value": "t_bool"
					},
					"t_mapping(t_address,t_mapping(t_address,t_bool))": {
						"encoding": "mapping",
						"key": "t_address",
						"label": "mapping(address => mapping(address => bool))",
						"numberOfBytes": "32",
						"value": "t_mapping(t_address,t_bool)"
					},
					"t_mapping(t_address,t_mapping(t_uint256,t_bool))": {
						"encoding": "mapping",
						"key": "t_address",
						"label": "mapping(address => mapping(uint256 => bool))",
						"numberOfBytes": "32",
						"value": "t_mapping(t_uint256,t_bool)"
					},
					"t_mapping(t_address,t_uint256)": {
						"encoding": "mapping",
						"key": "t_address",
						"label": "mapping(address => uint256)",
						"numberOfBytes": "32",
						"value": "t_uint256"
					},
					"t_mapping(t_uint256,t_address)": {
						"encoding": "mapping",
						"key": "t_uint256",
						"label": "mapping(uint256 => address)",
						"numberOfBytes": "32",
						"value": "t_address"
					},
					"t_mapping(t_uint256,t_bool)": {
						"encoding": "mapping",
						"key": "t_uint256",
						"label": "mapping(uint256 => bool)",
						"numberOfBytes": "32",
						"value": "t_bool"
					},
					"t_mapping(t_uint256,t_string_storage)": {
						"encoding": "mapping",
						"key": "t_uint256",
						"label": "mapping(uint256 => string)",
						"numberOfBytes": "32",
						"value": "t_string_storage"
					},
					"t_mapping(t_uint256,t_struct(NFT)2997_storage)": {
						"encoding": "mapping",
						"key": "t_uint256",
						"label": "mapping(uint256 => struct NFTMarketplace.NFT)",
						"numberOfBytes": "32",
						"value": "t_struct(NFT)2997_storage"
					},
					"t_string_storage": {
						"encoding": "bytes",
						"label": "string",
						"numberOfBytes": "32"
					},
					"t_struct(Counter)5_storage": {
						"encoding": "inplace",
						"label": "struct Counters.Counter",
						"members": [
							{
								"astId": 4,
								"contract": "nftmarket_flattened.sol:NFTMarketplace",
								"label": "_value",
								"offset": 0,
								"slot": "0",
								"type": "t_uint256"
							}
						],
						"numberOfBytes": "32"
					},
					"t_struct(NFT)2997_storage": {
						"encoding": "inplace",
						"label": "struct NFTMarketplace.NFT",
						"members": [
							{
								"astId": 2994,
								"contract": "nftmarket_flattened.sol:NFTMarketplace",
								"label": "creator",
								"offset": 0,
								"slot": "0",
								"type": "t_address"
							},
							{
								"astId": 2996,
								"contract": "nftmarket_flattened.sol:NFTMarketplace",
								"label": "price",
								"offset": 0,
								"slot": "1",
								"type": "t_uint256"
							}
						],
						"numberOfBytes": "64"
					},
					"t_uint256": {
						"encoding": "inplace",
						"label": "uint256",
						"numberOfBytes": "32"
					}
				}
			},
			"userdoc": {
				"kind": "user",
				"methods": {},
				"version": 1
			}
		}
	}
}