{
	"nftmarket.sol": {
		"NFTMarketplace": {
			"abi": [
				{
					"inputs": [],
					"stateMutability": "nonpayable",
					"type": "constructor"
				},
				{
					"inputs": [
						{
							"internalType": "address",
							"name": "sender",
							"type": "address"
						},
						{
							"internalType": "uint256",
							"name": "tokenId",
							"type": "uint256"
						},
						{
							"internalType": "address",
							"name": "owner",
							"type": "address"
						}
					],
					"name": "ERC721IncorrectOwner",
					"type": "error"
				},
				{
					"inputs": [
						{
							"internalType": "address",
							"name": "operator",
							"type": "address"
						},
						{
							"internalType": "uint256",
							"name": "tokenId",
							"type": "uint256"
						}
					],
					"name": "ERC721InsufficientApproval",
					"type": "error"
				},
				{
					"inputs": [
						{
							"internalType": "address",
							"name": "approver",
							"type": "address"
						}
					],
					"name": "ERC721InvalidApprover",
					"type": "error"
				},
				{
					"inputs": [
						{
							"internalType": "address",
							"name": "operator",
							"type": "address"
						}
					],
					"name": "ERC721InvalidOperator",
					"type": "error"
				},
				{
					"inputs": [
						{
							"internalType": "address",
							"name": "owner",
							"type": "address"
						}
					],
					"name": "ERC721InvalidOwner",
					"type": "error"
				},
				{
					"inputs": [
						{
							"internalType": "address",
							"name": "receiver",
							"type": "address"
						}
					],
					"name": "ERC721InvalidReceiver",
					"type": "error"
				},
				{
					"inputs": [
						{
							"internalType": "address",
							"name": "sender",
							"type": "address"
						}
					],
					"name": "ERC721InvalidSender",
					"type": "error"
				},
				{
					"inputs": [
						{
							"internalType": "uint256",
							"name": "tokenId",
							"type": "uint256"
						}
					],
					"name": "ERC721NonexistentToken",
					"type": "error"
				},
				{
					"anonymous": false,
					"inputs": [
						{
							"indexed": true,
							"internalType": "address",
							"name": "owner",
							"type": "address"
						},
						{
							"indexed": true,
							"internalType": "address",
							"name": "approved",
							"type": "address"
						},
						{
							"indexed": true,
							"internalType": "uint256",
							"name": "tokenId",
							"type": "uint256"
						}
					],
					"name": "Approval",
					"type": "event"
				},
				{
					"anonymous": false,
					"inputs": [
						{
							"indexed": true,
							"internalType": "address",
							"name": "owner",
							"type": "address"
						},
						{
							"indexed": true,
							"internalType": "address",
							"name": "operator",
							"type": "address"
						},
						{
							"indexed": false,
							"internalType": "bool",
							"name": "approved",
							"type": "bool"
						}
					],
					"name": "ApprovalForAll",
					"type": "event"
				},
				{
					"anonymous": false,
					"inputs": [
						{
							"indexed": false,
							"internalType": "uint256",
							"name": "_fromTokenId",
							"type": "uint256"
						},
						{
							"indexed": false,
							"internalType": "uint256",
							"name": "_toTokenId",
							"type": "uint256"
						}
					],
					"name": "BatchMetadataUpdate",
					"type": "event"
				},
				{
					"anonymous": false,
					"inputs": [
						{
							"indexed": false,
							"internalType": "uint256",
							"name": "_tokenId",
							"type": "uint256"
						}
					],
					"name": "MetadataUpdate",
					"type": "event"
				},
				{
					"anonymous": false,
					"inputs": [
						{
							"indexed": true,
							"internalType": "address",
							"name": "from",
							"type": "address"
						},
						{
							"indexed": true,
							"internalType": "address",
							"name": "to",
							"type": "address"
						},
						{
							"indexed": true,
							"internalType": "uint256",
							"name": "tokenId",
							"type": "uint256"
						}
					],
					"name": "Transfer",
					"type": "event"
				},
				{
					"inputs": [
						{
							"internalType": "uint256",
							"name": "tokenId",
							"type": "uint256"
						}
					],
					"name": "BuyNFT",
					"outputs": [],
					"stateMutability": "payable",
					"type": "function"
				},
				{
					"inputs": [
						{
							"internalType": "uint256",
							"name": "tokenId",
							"type": "uint256"
						}
					],
					"name": "SellNft",
					"outputs": [],
					"stateMutability": "nonpayable",
					"type": "function"
				},
				{
					"inputs": [
						{
							"internalType": "address",
							"name": "to",
							"type": "address"
						},
						{
							"internalType": "uint256",
							"name": "tokenId",
							"type": "uint256"
						}
					],
					"name": "approve",
					"outputs": [],
					"stateMutability": "nonpayable",
					"type": "function"
				},
				{
					"inputs": [
						{
							"internalType": "address",
							"name": "owner",
							"type": "address"
						}
					],
					"name": "balanceOf",
					"outputs": [
						{
							"internalType": "uint256",
							"name": "",
							"type": "uint256"
						}
					],
					"stateMutability": "view",
					"type": "function"
				},
				{
					"inputs": [],
					"name": "baseTokenURI",
					"outputs": [
						{
							"internalType": "string",
							"name": "",
							"type": "string"
						}
					],
					"stateMutability": "view",
					"type": "function"
				},
				{
					"inputs": [
						{
							"internalType": "uint256",
							"name": "tokenId",
							"type": "uint256"
						}
					],
					"name": "getApproved",
					"outputs": [
						{
							"internalType": "address",
							"name": "",
							"type": "address"
						}
					],
					"stateMutability": "view",
					"type": "function"
				},
				{
					"inputs": [
						{
							"internalType": "address",
							"name": "owner",
							"type": "address"
						},
						{
							"internalType": "address",
							"name": "operator",
							"type": "address"
						}
					],
					"name": "isApprovedForAll",
					"outputs": [
						{
							"internalType": "bool",
							"name": "",
							"type": "bool"
						}
					],
					"stateMutability": "view",
					"type": "function"
				},
				{
					"inputs": [
						{
							"internalType": "string",
							"name": "tokenURI",
							"type": "string"
						},
						{
							"internalType": "uint256",
							"name": "price",
							"type": "uint256"
						}
					],
					"name": "mintNFT",
					"outputs": [],
					"stateMutability": "nonpayable",
					"type": "function"
				},
				{
					"inputs": [],
					"name": "name",
					"outputs": [
						{
							"internalType": "string",
							"name": "",
							"type": "string"
						}
					],
					"stateMutability": "view",
					"type": "function"
				},
				{
					"inputs": [
						{
							"internalType": "uint256",
							"name": "",
							"type": "uint256"
						}
					],
					"name": "nfts",
					"outputs": [
						{
							"internalType": "address",
							"name": "creator",
							"type": "address"
						},
						{
							"internalType": "uint256",
							"name": "price",
							"type": "uint256"
						}
					],
					"stateMutability": "view",
					"type": "function"
				},
				{
					"inputs": [
						{
							"internalType": "uint256",
							"name": "tokenId",
							"type": "uint256"
						}
					],
					"name": "ownerOf",
					"outputs": [
						{
							"internalType": "address",
							"name": "",
							"type": "address"
						}
					],
					"stateMutability": "view",
					"type": "function"
				},
				{
					"inputs": [
						{
							"internalType": "uint256",
							"name": "tokenId",
							"type": "uint256"
						},
						{
							"internalType": "uint256",
							"name": "value",
							"type": "uint256"
						}
					],
					"name": "royaltyInfo",
					"outputs": [
						{
							"internalType": "address",
							"name": "receiver",
							"type": "address"
						},
						{
							"internalType": "uint256",
							"name": "royaltyAmount",
							"type": "uint256"
						}
					],
					"stateMutability": "view",
					"type": "function"
				},
				{
					"inputs": [],
					"name": "royaltyPercentage",
					"outputs": [
						{
							"internalType": "uint256",
							"name": "",
							"type": "uint256"
						}
					],
					"stateMutability": "view",
					"type": "function"
				},
				{
					"inputs": [
						{
							"internalType": "address",
							"name": "from",
							"type": "address"
						},
						{
							"internalType": "address",
							"name": "to",
							"type": "address"
						},
						{
							"internalType": "uint256",
							"name": "tokenId",
							"type": "uint256"
						}
					],
					"name": "safeTransferFrom",
					"outputs": [],
					"stateMutability": "nonpayable",
					"type": "function"
				},
				{
					"inputs": [
						{
							"internalType": "address",
							"name": "from",
							"type": "address"
						},
						{
							"internalType": "address",
							"name": "to",
							"type": "address"
						},
						{
							"internalType": "uint256",
							"name": "tokenId",
							"type": "uint256"
						},
						{
							"internalType": "bytes",
							"name": "data",
							"type": "bytes"
						}
					],
					"name": "safeTransferFrom",
					"outputs": [],
					"stateMutability": "nonpayable",
					"type": "function"
				},
				{
					"inputs": [
						{
							"internalType": "address",
							"name": "operator",
							"type": "address"
						},
						{
							"internalType": "bool",
							"name": "approved",
							"type": "bool"
						}
					],
					"name": "setApprovalForAll",
					"outputs": [],
					"stateMutability": "nonpayable",
					"type": "function"
				},
				{
					"inputs": [
						{
							"internalType": "string",
							"name": "newBaseTokenURI",
							"type": "string"
						}
					],
					"name": "setBaseURI",
					"outputs": [],
					"stateMutability": "nonpayable",
					"type": "function"
				},
				{
					"inputs": [
						{
							"internalType": "bytes4",
							"name": "interfaceId",
							"type": "bytes4"
						}
					],
					"name": "supportsInterface",
					"outputs": [
						{
							"internalType": "bool",
							"name": "",
							"type": "bool"
						}
					],
					"stateMutability": "view",
					"type": "function"
				},
				{
					"inputs": [],
					"name": "symbol",
					"outputs": [
						{
							"internalType": "string",
							"name": "",
							"type": "string"
						}
					],
					"stateMutability": "view",
					"type": "function"
				},
				{
					"inputs": [
						{
							"internalType": "uint256",
							"name": "tokenId",
							"type": "uint256"
						}
					],
					"name": "tokenURI",
					"outputs": [
						{
							"internalType": "string",
							"name": "",
							"type": "string"
						}
					],
					"stateMutability": "view",
					"type": "function"
				},
				{
					"inputs": [
						{
							"internalType": "address",
							"name": "from",
							"type": "address"
						},
						{
							"internalType": "address",
							"name": "to",
							"type": "address"
						},
						{
							"internalType": "uint256",
							"name": "tokenId",
							"type": "uint256"
						}
					],
					"name": "transferFrom",
					"outputs": [],
					"stateMutability": "nonpayable",
					"type": "function"
				}
			],
			"devdoc": {
				"errors": {
					"ERC721IncorrectOwner(address,uint256,address)": [
						{
							"details": "Indicates an error related to the ownership over a particular token. Used in transfers.",
							"params": {
								"owner": "Address of the current owner of a token.",
								"sender": "Address whose tokens are being transferred.",
								"tokenId": "Identifier number of a token."
							}
						}
					],
					"ERC721InsufficientApproval(address,uint256)": [
						{
							"details": "Indicates a failure with the `operator`’s approval. Used in transfers.",
							"params": {
								"operator": "Address that may be allowed to operate on tokens without being their owner.",
								"tokenId": "Identifier number of a token."
							}
						}
					],
					"ERC721InvalidApprover(address)": [
						{
							"details": "Indicates a failure with the `approver` of a token to be approved. Used in approvals.",
							"params": {
								"approver": "Address initiating an approval operation."
							}
						}
					],
					"ERC721InvalidOperator(address)": [
						{
							"details": "Indicates a failure with the `operator` to be approved. Used in approvals.",
							"params": {
								"operator": "Address that may be allowed to operate on tokens without being their owner."
							}
						}
					],
					"ERC721InvalidOwner(address)": [
						{
							"details": "Indicates that an address can't be an owner. For example, `address(0)` is a forbidden owner in EIP-20. Used in balance queries.",
							"params": {
								"owner": "Address of the current owner of a token."
							}
						}
					],
					"ERC721InvalidReceiver(address)": [
						{
							"details": "Indicates a failure with the token `receiver`. Used in transfers.",
							"params": {
								"receiver": "Address to which tokens are being transferred."
							}
						}
					],
					"ERC721InvalidSender(address)": [
						{
							"details": "Indicates a failure with the token `sender`. Used in transfers.",
							"params": {
								"sender": "Address whose tokens are being transferred."
							}
						}
					],
					"ERC721NonexistentToken(uint256)": [
						{
							"details": "Indicates a `tokenId` whose `owner` is the zero address.",
							"params": {
								"tokenId": "Identifier number of a token."
							}
						}
					]
				},
				"events": {
					"Approval(address,address,uint256)": {
						"details": "Emitted when `owner` enables `approved` to manage the `tokenId` token."
					},
					"ApprovalForAll(address,address,bool)": {
						"details": "Emitted when `owner` enables or disables (`approved`) `operator` to manage all of its assets."
					},
					"BatchMetadataUpdate(uint256,uint256)": {
						"details": "This event emits when the metadata of a range of tokens is changed. So that the third-party platforms such as NFT market could timely update the images and related attributes of the NFTs."
					},
					"MetadataUpdate(uint256)": {
						"details": "This event emits when the metadata of a token is changed. So that the third-party platforms such as NFT market could timely update the images and related attributes of the NFT."
					},
					"Transfer(address,address,uint256)": {
						"details": "Emitted when `tokenId` token is transferred from `from` to `to`."
					}
				},
				"kind": "dev",
				"methods": {
					"approve(address,uint256)": {
						"details": "See {IERC721-approve}."
					},
					"balanceOf(address)": {
						"details": "See {IERC721-balanceOf}."
					},
					"getApproved(uint256)": {
						"details": "See {IERC721-getApproved}."
					},
					"isApprovedForAll(address,address)": {
						"details": "See {IERC721-isApprovedForAll}."
					},
					"name()": {
						"details": "See {IERC721Metadata-name}."
					},
					"ownerOf(uint256)": {
						"details": "See {IERC721-ownerOf}."
					},
					"safeTransferFrom(address,address,uint256)": {
						"details": "See {IERC721-safeTransferFrom}."
					},
					"safeTransferFrom(address,address,uint256,bytes)": {
						"details": "See {IERC721-safeTransferFrom}."
					},
					"setApprovalForAll(address,bool)": {
						"details": "See {IERC721-setApprovalForAll}."
					},
					"supportsInterface(bytes4)": {
						"details": "See {IERC165-supportsInterface}"
					},
					"symbol()": {
						"details": "See {IERC721Metadata-symbol}."
					},
					"tokenURI(uint256)": {
						"details": "See {IERC721Metadata-tokenURI}."
					},
					"transferFrom(address,address,uint256)": {
						"details": "See {IERC721-transferFrom}."
					}
				},
				"version": 1
			},
			"evm": {
				"assembly": "    /* \"nftmarket.sol\":318:2543  contract NFTMarketplace is  ERC721URIStorage,   IERC2981 {... */\n  mstore(0x40, 0x80)\n    /* \"nftmarket.sol\":596:598  10 */\n  0x0a\n    /* \"nftmarket.sol\":561:598  uint256 public royaltyPercentage = 10 */\n  dup1\n  sstore\n    /* \"nftmarket.sol\":796:887  constructor( ) ERC721(\"My Nft\", \"MNFT\")  ... */\n  callvalue\n  dup1\n  iszero\n  tag_1\n  jumpi\n  0x00\n  dup1\n  revert\ntag_1:\n  pop\n    /* \"@openzeppelin/contracts/token/ERC721/ERC721.sol\":1381:1494  constructor(string memory name_, string memory symbol_) {... */\n  mload(0x40)\n  dup1\n  0x40\n  add\n  0x40\n  mstore\n  dup1\n  0x06\n  dup2\n  mstore\n  0x20\n  add\n  0x4d79204e66740000000000000000000000000000000000000000000000000000\n  dup2\n  mstore\n  pop\n  mload(0x40)\n  dup1\n  0x40\n  add\n  0x40\n  mstore\n  dup1\n  0x04\n  dup2\n  mstore\n  0x20\n  add\n  0x4d4e465400000000000000000000000000000000000000000000000000000000\n  dup2\n  mstore\n  pop\n    /* \"@openzeppelin/contracts/token/ERC721/ERC721.sol\":1455:1460  name_ */\n  dup2\n    /* \"@openzeppelin/contracts/token/ERC721/ERC721.sol\":1447:1452  _name */\n  0x00\n    /* \"@openzeppelin/contracts/token/ERC721/ERC721.sol\":1447:1460  _name = name_ */\n  swap1\n  dup2\n  tag_5\n  swap2\n  swap1\n  tag_6\n  jump\t// in\ntag_5:\n  pop\n    /* \"@openzeppelin/contracts/token/ERC721/ERC721.sol\":1480:1487  symbol_ */\n  dup1\n    /* \"@openzeppelin/contracts/token/ERC721/ERC721.sol\":1470:1477  _symbol */\n  0x01\n    /* \"@openzeppelin/contracts/token/ERC721/ERC721.sol\":1470:1487  _symbol = symbol_ */\n  swap1\n  dup2\n  tag_7\n  swap2\n  swap1\n  tag_6\n  jump\t// in\ntag_7:\n  pop\n    /* \"@openzeppelin/contracts/token/ERC721/ERC721.sol\":1381:1494  constructor(string memory name_, string memory symbol_) {... */\n  pop\n  pop\n    /* \"nftmarket.sol\":869:879  msg.sender */\n  caller\n    /* \"nftmarket.sol\":854:867  contractOwner */\n  0x0b\n  0x00\n    /* \"nftmarket.sol\":854:879  contractOwner= msg.sender */\n  0x0100\n  exp\n  dup2\n  sload\n  dup2\n  0xffffffffffffffffffffffffffffffffffffffff\n  mul\n  not\n  and\n  swap1\n  dup4\n  0xffffffffffffffffffffffffffffffffffffffff\n  and\n  mul\n  or\n  swap1\n  sstore\n  pop\n    /* \"nftmarket.sol\":318:2543  contract NFTMarketplace is  ERC721URIStorage,   IERC2981 {... */\n  jump(tag_9)\n    /* \"#utility.yul\":7:106   */\ntag_10:\n    /* \"#utility.yul\":59:65   */\n  0x00\n    /* \"#utility.yul\":93:98   */\n  dup2\n    /* \"#utility.yul\":87:99   */\n  mload\n    /* \"#utility.yul\":77:99   */\n  swap1\n  pop\n    /* \"#utility.yul\":7:106   */\n  swap2\n  swap1\n  pop\n  jump\t// out\n    /* \"#utility.yul\":112:292   */\ntag_11:\n    /* \"#utility.yul\":160:237   */\n  0x4e487b7100000000000000000000000000000000000000000000000000000000\n    /* \"#utility.yul\":157:158   */\n  0x00\n    /* \"#utility.yul\":150:238   */\n  mstore\n    /* \"#utility.yul\":257:261   */\n  0x41\n    /* \"#utility.yul\":254:255   */\n  0x04\n    /* \"#utility.yul\":247:262   */\n  mstore\n    /* \"#utility.yul\":281:285   */\n  0x24\n    /* \"#utility.yul\":278:279   */\n  0x00\n    /* \"#utility.yul\":271:286   */\n  revert\n    /* \"#utility.yul\":298:478   */\ntag_12:\n    /* \"#utility.yul\":346:423   */\n  0x4e487b7100000000000000000000000000000000000000000000000000000000\n    /* \"#utility.yul\":343:344   */\n  0x00\n    /* \"#utility.yul\":336:424   */\n  mstore\n    /* \"#utility.yul\":443:447   */\n  0x22\n    /* \"#utility.yul\":440:441   */\n  0x04\n    /* \"#utility.yul\":433:448   */\n  mstore\n    /* \"#utility.yul\":467:471   */\n  0x24\n    /* \"#utility.yul\":464:465   */\n  0x00\n    /* \"#utility.yul\":457:472   */\n  revert\n    /* \"#utility.yul\":484:804   */\ntag_13:\n    /* \"#utility.yul\":528:534   */\n  0x00\n    /* \"#utility.yul\":565:566   */\n  0x02\n    /* \"#utility.yul\":559:563   */\n  dup3\n    /* \"#utility.yul\":555:567   */\n  div\n    /* \"#utility.yul\":545:567   */\n  swap1\n  pop\n    /* \"#utility.yul\":612:613   */\n  0x01\n    /* \"#utility.yul\":606:610   */\n  dup3\n    /* \"#utility.yul\":602:614   */\n  and\n    /* \"#utility.yul\":633:651   */\n  dup1\n    /* \"#utility.yul\":623:704   */\n  tag_35\n  jumpi\n    /* \"#utility.yul\":689:693   */\n  0x7f\n    /* \"#utility.yul\":681:687   */\n  dup3\n    /* \"#utility.yul\":677:694   */\n  and\n    /* \"#utility.yul\":667:694   */\n  swap2\n  pop\n    /* \"#utility.yul\":623:704   */\ntag_35:\n    /* \"#utility.yul\":751:753   */\n  0x20\n    /* \"#utility.yul\":743:749   */\n  dup3\n    /* \"#utility.yul\":740:754   */\n  lt\n    /* \"#utility.yul\":720:738   */\n  dup2\n    /* \"#utility.yul\":717:755   */\n  sub\n    /* \"#utility.yul\":714:798   */\n  tag_36\n  jumpi\n    /* \"#utility.yul\":770:788   */\n  tag_37\n  tag_12\n  jump\t// in\ntag_37:\n    /* \"#utility.yul\":714:798   */\ntag_36:\n    /* \"#utility.yul\":535:804   */\n  pop\n    /* \"#utility.yul\":484:804   */\n  swap2\n  swap1\n  pop\n  jump\t// out\n    /* \"#utility.yul\":810:951   */\ntag_14:\n    /* \"#utility.yul\":859:863   */\n  0x00\n    /* \"#utility.yul\":882:885   */\n  dup2\n    /* \"#utility.yul\":874:885   */\n  swap1\n  pop\n    /* \"#utility.yul\":905:908   */\n  dup2\n    /* \"#utility.yul\":902:903   */\n  0x00\n    /* \"#utility.yul\":895:909   */\n  mstore\n    /* \"#utility.yul\":939:943   */\n  0x20\n    /* \"#utility.yul\":936:937   */\n  0x00\n    /* \"#utility.yul\":926:944   */\n  keccak256\n    /* \"#utility.yul\":918:944   */\n  swap1\n  pop\n    /* \"#utility.yul\":810:951   */\n  swap2\n  swap1\n  pop\n  jump\t// out\n    /* \"#utility.yul\":957:1050   */\ntag_15:\n    /* \"#utility.yul\":994:1000   */\n  0x00\n    /* \"#utility.yul\":1041:1043   */\n  0x20\n    /* \"#utility.yul\":1036:1038   */\n  0x1f\n    /* \"#utility.yul\":1029:1034   */\n  dup4\n    /* \"#utility.yul\":1025:1039   */\n  add\n    /* \"#utility.yul\":1021:1044   */\n  div\n    /* \"#utility.yul\":1011:1044   */\n  swap1\n  pop\n    /* \"#utility.yul\":957:1050   */\n  swap2\n  swap1\n  pop\n  jump\t// out\n    /* \"#utility.yul\":1056:1163   */\ntag_16:\n    /* \"#utility.yul\":1100:1108   */\n  0x00\n    /* \"#utility.yul\":1150:1155   */\n  dup3\n    /* \"#utility.yul\":1144:1148   */\n  dup3\n    /* \"#utility.yul\":1140:1156   */\n  shl\n    /* \"#utility.yul\":1119:1156   */\n  swap1\n  pop\n    /* \"#utility.yul\":1056:1163   */\n  swap3\n  swap2\n  pop\n  pop\n  jump\t// out\n    /* \"#utility.yul\":1169:1562   */\ntag_17:\n    /* \"#utility.yul\":1238:1244   */\n  0x00\n    /* \"#utility.yul\":1288:1289   */\n  0x08\n    /* \"#utility.yul\":1276:1286   */\n  dup4\n    /* \"#utility.yul\":1272:1290   */\n  mul\n    /* \"#utility.yul\":1311:1408   */\n  tag_42\n    /* \"#utility.yul\":1341:1407   */\n  0xffffffffffffffffffffffffffffffffffffffffffffffffffffffffffffffff\n    /* \"#utility.yul\":1330:1339   */\n  dup3\n    /* \"#utility.yul\":1311:1408   */\n  tag_16\n  jump\t// in\ntag_42:\n    /* \"#utility.yul\":1429:1468   */\n  tag_43\n    /* \"#utility.yul\":1459:1467   */\n  dup7\n    /* \"#utility.yul\":1448:1457   */\n  dup4\n    /* \"#utility.yul\":1429:1468   */\n  tag_16\n  jump\t// in\ntag_43:\n    /* \"#utility.yul\":1417:1468   */\n  swap6\n  pop\n    /* \"#utility.yul\":1501:1505   */\n  dup1\n    /* \"#utility.yul\":1497:1506   */\n  not\n    /* \"#utility.yul\":1490:1495   */\n  dup5\n    /* \"#utility.yul\":1486:1507   */\n  and\n    /* \"#utility.yul\":1477:1507   */\n  swap4\n  pop\n    /* \"#utility.yul\":1550:1554   */\n  dup1\n    /* \"#utility.yul\":1540:1548   */\n  dup7\n    /* \"#utility.yul\":1536:1555   */\n  and\n    /* \"#utility.yul\":1529:1534   */\n  dup5\n    /* \"#utility.yul\":1526:1556   */\n  or\n    /* \"#utility.yul\":1516:1556   */\n  swap3\n  pop\n    /* \"#utility.yul\":1245:1562   */\n  pop\n  pop\n    /* \"#utility.yul\":1169:1562   */\n  swap4\n  swap3\n  pop\n  pop\n  pop\n  jump\t// out\n    /* \"#utility.yul\":1568:1645   */\ntag_18:\n    /* \"#utility.yul\":1605:1612   */\n  0x00\n    /* \"#utility.yul\":1634:1639   */\n  dup2\n    /* \"#utility.yul\":1623:1639   */\n  swap1\n  pop\n    /* \"#utility.yul\":1568:1645   */\n  swap2\n  swap1\n  pop\n  jump\t// out\n    /* \"#utility.yul\":1651:1711   */\ntag_19:\n    /* \"#utility.yul\":1679:1682   */\n  0x00\n    /* \"#utility.yul\":1700:1705   */\n  dup2\n    /* \"#utility.yul\":1693:1705   */\n  swap1\n  pop\n    /* \"#utility.yul\":1651:1711   */\n  swap2\n  swap1\n  pop\n  jump\t// out\n    /* \"#utility.yul\":1717:1859   */\ntag_20:\n    /* \"#utility.yul\":1767:1776   */\n  0x00\n    /* \"#utility.yul\":1800:1853   */\n  tag_47\n    /* \"#utility.yul\":1818:1852   */\n  tag_48\n    /* \"#utility.yul\":1827:1851   */\n  tag_49\n    /* \"#utility.yul\":1845:1850   */\n  dup5\n    /* \"#utility.yul\":1827:1851   */\n  tag_18\n  jump\t// in\ntag_49:\n    /* \"#utility.yul\":1818:1852   */\n  tag_19\n  jump\t// in\ntag_48:\n    /* \"#utility.yul\":1800:1853   */\n  tag_18\n  jump\t// in\ntag_47:\n    /* \"#utility.yul\":1787:1853   */\n  swap1\n  pop\n    /* \"#utility.yul\":1717:1859   */\n  swap2\n  swap1\n  pop\n  jump\t// out\n    /* \"#utility.yul\":1865:1940   */\ntag_21:\n    /* \"#utility.yul\":1908:1911   */\n  0x00\n    /* \"#utility.yul\":1929:1934   */\n  dup2\n    /* \"#utility.yul\":1922:1934   */\n  swap1\n  pop\n    /* \"#utility.yul\":1865:1940   */\n  swap2\n  swap1\n  pop\n  jump\t// out\n    /* \"#utility.yul\":1946:2215   */\ntag_22:\n    /* \"#utility.yul\":2056:2095   */\n  tag_52\n    /* \"#utility.yul\":2087:2094   */\n  dup4\n    /* \"#utility.yul\":2056:2095   */\n  tag_20\n  jump\t// in\ntag_52:\n    /* \"#utility.yul\":2117:2208   */\n  tag_53\n    /* \"#utility.yul\":2166:2207   */\n  tag_54\n    /* \"#utility.yul\":2190:2206   */\n  dup3\n    /* \"#utility.yul\":2166:2207   */\n  tag_21\n  jump\t// in\ntag_54:\n    /* \"#utility.yul\":2158:2164   */\n  dup5\n    /* \"#utility.yul\":2151:2155   */\n  dup5\n    /* \"#utility.yul\":2145:2156   */\n  sload\n    /* \"#utility.yul\":2117:2208   */\n  tag_17\n  jump\t// in\ntag_53:\n    /* \"#utility.yul\":2111:2115   */\n  dup3\n    /* \"#utility.yul\":2104:2209   */\n  sstore\n    /* \"#utility.yul\":2022:2215   */\n  pop\n    /* \"#utility.yul\":1946:2215   */\n  pop\n  pop\n  pop\n  jump\t// out\n    /* \"#utility.yul\":2221:2294   */\ntag_23:\n    /* \"#utility.yul\":2266:2269   */\n  0x00\n    /* \"#utility.yul\":2221:2294   */\n  swap1\n  jump\t// out\n    /* \"#utility.yul\":2300:2489   */\ntag_24:\n    /* \"#utility.yul\":2377:2409   */\n  tag_57\n  tag_23\n  jump\t// in\ntag_57:\n    /* \"#utility.yul\":2418:2483   */\n  tag_58\n    /* \"#utility.yul\":2476:2482   */\n  dup2\n    /* \"#utility.yul\":2468:2474   */\n  dup5\n    /* \"#utility.yul\":2462:2466   */\n  dup5\n    /* \"#utility.yul\":2418:2483   */\n  tag_22\n  jump\t// in\ntag_58:\n    /* \"#utility.yul\":2353:2489   */\n  pop\n    /* \"#utility.yul\":2300:2489   */\n  pop\n  pop\n  jump\t// out\n    /* \"#utility.yul\":2495:2681   */\ntag_25:\n    /* \"#utility.yul\":2555:2675   */\ntag_60:\n    /* \"#utility.yul\":2572:2575   */\n  dup2\n    /* \"#utility.yul\":2565:2570   */\n  dup2\n    /* \"#utility.yul\":2562:2576   */\n  lt\n    /* \"#utility.yul\":2555:2675   */\n  iszero\n  tag_62\n  jumpi\n    /* \"#utility.yul\":2626:2665   */\n  tag_63\n    /* \"#utility.yul\":2663:2664   */\n  0x00\n    /* \"#utility.yul\":2656:2661   */\n  dup3\n    /* \"#utility.yul\":2626:2665   */\n  tag_24\n  jump\t// in\ntag_63:\n    /* \"#utility.yul\":2599:2600   */\n  0x01\n    /* \"#utility.yul\":2592:2597   */\n  dup2\n    /* \"#utility.yul\":2588:2601   */\n  add\n    /* \"#utility.yul\":2579:2601   */\n  swap1\n  pop\n    /* \"#utility.yul\":2555:2675   */\n  jump(tag_60)\ntag_62:\n    /* \"#utility.yul\":2495:2681   */\n  pop\n  pop\n  jump\t// out\n    /* \"#utility.yul\":2687:3230   */\ntag_26:\n    /* \"#utility.yul\":2788:2790   */\n  0x1f\n    /* \"#utility.yul\":2783:2786   */\n  dup3\n    /* \"#utility.yul\":2780:2791   */\n  gt\n    /* \"#utility.yul\":2777:3223   */\n  iszero\n  tag_65\n  jumpi\n    /* \"#utility.yul\":2822:2860   */\n  tag_66\n    /* \"#utility.yul\":2854:2859   */\n  dup2\n    /* \"#utility.yul\":2822:2860   */\n  tag_14\n  jump\t// in\ntag_66:\n    /* \"#utility.yul\":2906:2935   */\n  tag_67\n    /* \"#utility.yul\":2924:2934   */\n  dup5\n    /* \"#utility.yul\":2906:2935   */\n  tag_15\n  jump\t// in\ntag_67:\n    /* \"#utility.yul\":2896:2904   */\n  dup2\n    /* \"#utility.yul\":2892:2936   */\n  add\n    /* \"#utility.yul\":3089:3091   */\n  0x20\n    /* \"#utility.yul\":3077:3087   */\n  dup6\n    /* \"#utility.yul\":3074:3092   */\n  lt\n    /* \"#utility.yul\":3071:3120   */\n  iszero\n  tag_68\n  jumpi\n    /* \"#utility.yul\":3110:3118   */\n  dup2\n    /* \"#utility.yul\":3095:3118   */\n  swap1\n  pop\n    /* \"#utility.yul\":3071:3120   */\ntag_68:\n    /* \"#utility.yul\":3133:3213   */\n  tag_69\n    /* \"#utility.yul\":3189:3211   */\n  tag_70\n    /* \"#utility.yul\":3207:3210   */\n  dup6\n    /* \"#utility.yul\":3189:3211   */\n  tag_15\n  jump\t// in\ntag_70:\n    /* \"#utility.yul\":3179:3187   */\n  dup4\n    /* \"#utility.yul\":3175:3212   */\n  add\n    /* \"#utility.yul\":3162:3173   */\n  dup3\n    /* \"#utility.yul\":3133:3213   */\n  tag_25\n  jump\t// in\ntag_69:\n    /* \"#utility.yul\":2792:3223   */\n  pop\n  pop\n    /* \"#utility.yul\":2777:3223   */\ntag_65:\n    /* \"#utility.yul\":2687:3230   */\n  pop\n  pop\n  pop\n  jump\t// out\n    /* \"#utility.yul\":3236:3353   */\ntag_27:\n    /* \"#utility.yul\":3290:3298   */\n  0x00\n    /* \"#utility.yul\":3340:3345   */\n  dup3\n    /* \"#utility.yul\":3334:3338   */\n  dup3\n    /* \"#utility.yul\":3330:3346   */\n  shr\n    /* \"#utility.yul\":3309:3346   */\n  swap1\n  pop\n    /* \"#utility.yul\":3236:3353   */\n  swap3\n  swap2\n  pop\n  pop\n  jump\t// out\n    /* \"#utility.yul\":3359:3528   */\ntag_28:\n    /* \"#utility.yul\":3403:3409   */\n  0x00\n    /* \"#utility.yul\":3436:3487   */\n  tag_73\n    /* \"#utility.yul\":3484:3485   */\n  0x00\n    /* \"#utility.yul\":3480:3486   */\n  not\n    /* \"#utility.yul\":3472:3477   */\n  dup5\n    /* \"#utility.yul\":3469:3470   */\n  0x08\n    /* \"#utility.yul\":3465:3478   */\n  mul\n    /* \"#utility.yul\":3436:3487   */\n  tag_27\n  jump\t// in\ntag_73:\n    /* \"#utility.yul\":3432:3488   */\n  not\n    /* \"#utility.yul\":3517:3521   */\n  dup1\n    /* \"#utility.yul\":3511:3515   */\n  dup4\n    /* \"#utility.yul\":3507:3522   */\n  and\n    /* \"#utility.yul\":3497:3522   */\n  swap2\n  pop\n    /* \"#utility.yul\":3410:3528   */\n  pop\n    /* \"#utility.yul\":3359:3528   */\n  swap3\n  swap2\n  pop\n  pop\n  jump\t// out\n    /* \"#utility.yul\":3533:3828   */\ntag_29:\n    /* \"#utility.yul\":3609:3613   */\n  0x00\n    /* \"#utility.yul\":3755:3784   */\n  tag_75\n    /* \"#utility.yul\":3780:3783   */\n  dup4\n    /* \"#utility.yul\":3774:3778   */\n  dup4\n    /* \"#utility.yul\":3755:3784   */\n  tag_28\n  jump\t// in\ntag_75:\n    /* \"#utility.yul\":3747:3784   */\n  swap2\n  pop\n    /* \"#utility.yul\":3817:3820   */\n  dup3\n    /* \"#utility.yul\":3814:3815   */\n  0x02\n    /* \"#utility.yul\":3810:3821   */\n  mul\n    /* \"#utility.yul\":3804:3808   */\n  dup3\n    /* \"#utility.yul\":3801:3822   */\n  or\n    /* \"#utility.yul\":3793:3822   */\n  swap1\n  pop\n    /* \"#utility.yul\":3533:3828   */\n  swap3\n  swap2\n  pop\n  pop\n  jump\t// out\n    /* \"#utility.yul\":3833:5228   */\ntag_6:\n    /* \"#utility.yul\":3950:3987   */\n  tag_77\n    /* \"#utility.yul\":3983:3986   */\n  dup3\n    /* \"#utility.yul\":3950:3987   */\n  tag_10\n  jump\t// in\ntag_77:\n    /* \"#utility.yul\":4052:4070   */\n  0xffffffffffffffff\n    /* \"#utility.yul\":4044:4050   */\n  dup2\n    /* \"#utility.yul\":4041:4071   */\n  gt\n    /* \"#utility.yul\":4038:4094   */\n  iszero\n  tag_78\n  jumpi\n    /* \"#utility.yul\":4074:4092   */\n  tag_79\n  tag_11\n  jump\t// in\ntag_79:\n    /* \"#utility.yul\":4038:4094   */\ntag_78:\n    /* \"#utility.yul\":4118:4156   */\n  tag_80\n    /* \"#utility.yul\":4150:4154   */\n  dup3\n    /* \"#utility.yul\":4144:4155   */\n  sload\n    /* \"#utility.yul\":4118:4156   */\n  tag_13\n  jump\t// in\ntag_80:\n    /* \"#utility.yul\":4203:4270   */\n  tag_81\n    /* \"#utility.yul\":4263:4269   */\n  dup3\n    /* \"#utility.yul\":4255:4261   */\n  dup3\n    /* \"#utility.yul\":4249:4253   */\n  dup6\n    /* \"#utility.yul\":4203:4270   */\n  tag_26\n  jump\t// in\ntag_81:\n    /* \"#utility.yul\":4297:4298   */\n  0x00\n    /* \"#utility.yul\":4321:4325   */\n  0x20\n    /* \"#utility.yul\":4308:4325   */\n  swap1\n  pop\n    /* \"#utility.yul\":4353:4355   */\n  0x1f\n    /* \"#utility.yul\":4345:4351   */\n  dup4\n    /* \"#utility.yul\":4342:4356   */\n  gt\n    /* \"#utility.yul\":4370:4371   */\n  0x01\n    /* \"#utility.yul\":4365:4983   */\n  dup2\n  eq\n  tag_83\n  jumpi\n    /* \"#utility.yul\":5027:5028   */\n  0x00\n    /* \"#utility.yul\":5044:5050   */\n  dup5\n    /* \"#utility.yul\":5041:5118   */\n  iszero\n  tag_84\n  jumpi\n    /* \"#utility.yul\":5093:5102   */\n  dup3\n    /* \"#utility.yul\":5088:5091   */\n  dup8\n    /* \"#utility.yul\":5084:5103   */\n  add\n    /* \"#utility.yul\":5078:5104   */\n  mload\n    /* \"#utility.yul\":5069:5104   */\n  swap1\n  pop\n    /* \"#utility.yul\":5041:5118   */\ntag_84:\n    /* \"#utility.yul\":5144:5211   */\n  tag_85\n    /* \"#utility.yul\":5204:5210   */\n  dup6\n    /* \"#utility.yul\":5197:5202   */\n  dup3\n    /* \"#utility.yul\":5144:5211   */\n  tag_29\n  jump\t// in\ntag_85:\n    /* \"#utility.yul\":5138:5142   */\n  dup7\n    /* \"#utility.yul\":5131:5212   */\n  sstore\n    /* \"#utility.yul\":5000:5222   */\n  pop\n    /* \"#utility.yul\":4335:5222   */\n  jump(tag_82)\n    /* \"#utility.yul\":4365:4983   */\ntag_83:\n    /* \"#utility.yul\":4417:4421   */\n  0x1f\n    /* \"#utility.yul\":4413:4422   */\n  not\n    /* \"#utility.yul\":4405:4411   */\n  dup5\n    /* \"#utility.yul\":4401:4423   */\n  and\n    /* \"#utility.yul\":4451:4488   */\n  tag_86\n    /* \"#utility.yul\":4483:4487   */\n  dup7\n    /* \"#utility.yul\":4451:4488   */\n  tag_14\n  jump\t// in\ntag_86:\n    /* \"#utility.yul\":4510:4511   */\n  0x00\n    /* \"#utility.yul\":4524:4732   */\ntag_87:\n    /* \"#utility.yul\":4538:4545   */\n  dup3\n    /* \"#utility.yul\":4535:4536   */\n  dup2\n    /* \"#utility.yul\":4532:4546   */\n  lt\n    /* \"#utility.yul\":4524:4732   */\n  iszero\n  tag_89\n  jumpi\n    /* \"#utility.yul\":4617:4626   */\n  dup5\n    /* \"#utility.yul\":4612:4615   */\n  dup10\n    /* \"#utility.yul\":4608:4627   */\n  add\n    /* \"#utility.yul\":4602:4628   */\n  mload\n    /* \"#utility.yul\":4594:4600   */\n  dup3\n    /* \"#utility.yul\":4587:4629   */\n  sstore\n    /* \"#utility.yul\":4668:4669   */\n  0x01\n    /* \"#utility.yul\":4660:4666   */\n  dup3\n    /* \"#utility.yul\":4656:4670   */\n  add\n    /* \"#utility.yul\":4646:4670   */\n  swap2\n  pop\n    /* \"#utility.yul\":4715:4717   */\n  0x20\n    /* \"#utility.yul\":4704:4713   */\n  dup6\n    /* \"#utility.yul\":4700:4718   */\n  add\n    /* \"#utility.yul\":4687:4718   */\n  swap5\n  pop\n    /* \"#utility.yul\":4561:4565   */\n  0x20\n    /* \"#utility.yul\":4558:4559   */\n  dup2\n    /* \"#utility.yul\":4554:4566   */\n  add\n    /* \"#utility.yul\":4549:4566   */\n  swap1\n  pop\n    /* \"#utility.yul\":4524:4732   */\n  jump(tag_87)\ntag_89:\n    /* \"#utility.yul\":4760:4766   */\n  dup7\n    /* \"#utility.yul\":4751:4758   */\n  dup4\n    /* \"#utility.yul\":4748:4767   */\n  lt\n    /* \"#utility.yul\":4745:4924   */\n  iszero\n  tag_90\n  jumpi\n    /* \"#utility.yul\":4818:4827   */\n  dup5\n    /* \"#utility.yul\":4813:4816   */\n  dup10\n    /* \"#utility.yul\":4809:4828   */\n  add\n    /* \"#utility.yul\":4803:4829   */\n  mload\n    /* \"#utility.yul\":4861:4909   */\n  tag_91\n    /* \"#utility.yul\":4903:4907   */\n  0x1f\n    /* \"#utility.yul\":4895:4901   */\n  dup10\n    /* \"#utility.yul\":4891:4908   */\n  and\n    /* \"#utility.yul\":4880:4889   */\n  dup3\n    /* \"#utility.yul\":4861:4909   */\n  tag_28\n  jump\t// in\ntag_91:\n    /* \"#utility.yul\":4853:4859   */\n  dup4\n    /* \"#utility.yul\":4846:4910   */\n  sstore\n    /* \"#utility.yul\":4768:4924   */\n  pop\n    /* \"#utility.yul\":4745:4924   */\ntag_90:\n    /* \"#utility.yul\":4970:4971   */\n  0x01\n    /* \"#utility.yul\":4966:4967   */\n  0x02\n    /* \"#utility.yul\":4958:4964   */\n  dup9\n    /* \"#utility.yul\":4954:4968   */\n  mul\n    /* \"#utility.yul\":4950:4972   */\n  add\n    /* \"#utility.yul\":4944:4948   */\n  dup9\n    /* \"#utility.yul\":4937:4973   */\n  sstore\n    /* \"#utility.yul\":4372:4983   */\n  pop\n  pop\n  pop\n    /* \"#utility.yul\":4335:5222   */\ntag_82:\n  pop\n    /* \"#utility.yul\":3925:5228   */\n  pop\n  pop\n  pop\n    /* \"#utility.yul\":3833:5228   */\n  pop\n  pop\n  jump\t// out\n    /* \"nftmarket.sol\":318:2543  contract NFTMarketplace is  ERC721URIStorage,   IERC2981 {... */\ntag_9:\n  dataSize(sub_0)\n  dup1\n  dataOffset(sub_0)\n  0x00\n  codecopy\n  0x00\n  return\nstop\n\nsub_0: assembly {\n        /* \"nftmarket.sol\":318:2543  contract NFTMarketplace is  ERC721URIStorage,   IERC2981 {... */\n      mstore(0x40, 0x80)\n      jumpi(tag_1, lt(calldatasize, 0x04))\n      shr(0xe0, calldataload(0x00))\n      dup1\n      0x6352211e\n      gt\n      tag_23\n      jumpi\n      dup1\n      0xa37365e0\n      gt\n      tag_24\n      jumpi\n      dup1\n      0xa37365e0\n      eq\n      tag_17\n      jumpi\n      dup1\n      0xa90d14e2\n      eq\n      tag_18\n      jumpi\n      dup1\n      0xb88d4fde\n      eq\n      tag_19\n      jumpi\n      dup1\n      0xc87b56dd\n      eq\n      tag_20\n      jumpi\n      dup1\n      0xd547cfb7\n      eq\n      tag_21\n      jumpi\n      dup1\n      0xe985e9c5\n      eq\n      tag_22\n      jumpi\n      jump(tag_1)\n    tag_24:\n      dup1\n      0x6352211e\n      eq\n      tag_12\n      jumpi\n      dup1\n      0x70a08231\n      eq\n      tag_13\n      jumpi\n      dup1\n      0x8a71bb2d\n      eq\n      tag_14\n      jumpi\n      dup1\n      0x95d89b41\n      eq\n      tag_15\n      jumpi\n      dup1\n      0xa22cb465\n      eq\n      tag_16\n      jumpi\n      jump(tag_1)\n    tag_23:\n      dup1\n      0x265aa621\n      gt\n      tag_25\n      jumpi\n      dup1\n      0x265aa621\n      eq\n      tag_7\n      jumpi\n      dup1\n      0x2a55205a\n      eq\n      tag_8\n      jumpi\n      dup1\n      0x42842e0e\n      eq\n      tag_9\n      jumpi\n      dup1\n      0x55f804b3\n      eq\n      tag_10\n      jumpi\n      dup1\n      0x5afa3a72\n      eq\n      tag_11\n      jumpi\n      jump(tag_1)\n    tag_25:\n      dup1\n      0x01ffc9a7\n      eq\n      tag_2\n      jumpi\n      dup1\n      0x06fdde03\n      eq\n      tag_3\n      jumpi\n      dup1\n      0x081812fc\n      eq\n      tag_4\n      jumpi\n      dup1\n      0x095ea7b3\n      eq\n      tag_5\n      jumpi\n      dup1\n      0x23b872dd\n      eq\n      tag_6\n      jumpi\n    tag_1:\n      0x00\n      dup1\n      revert\n        /* \"@openzeppelin/contracts/token/ERC721/extensions/ERC721URIStorage.sol\":937:1144  function supportsInterface(bytes4 interfaceId) public view virtual override(ERC721, IERC165) returns (bool) {... */\n    tag_2:\n      callvalue\n      dup1\n      iszero\n      tag_26\n      jumpi\n      0x00\n      dup1\n      revert\n    tag_26:\n      pop\n      tag_27\n      0x04\n      dup1\n      calldatasize\n      sub\n      dup2\n      add\n      swap1\n      tag_28\n      swap2\n      swap1\n      tag_29\n      jump\t// in\n    tag_28:\n      tag_30\n      jump\t// in\n    tag_27:\n      mload(0x40)\n      tag_31\n      swap2\n      swap1\n      tag_32\n      jump\t// in\n    tag_31:\n      mload(0x40)\n      dup1\n      swap2\n      sub\n      swap1\n      return\n        /* \"@openzeppelin/contracts/token/ERC721/ERC721.sol\":2365:2454  function name() public view virtual returns (string memory) {... */\n    tag_3:\n      callvalue\n      dup1\n      iszero\n      tag_33\n      jumpi\n      0x00\n      dup1\n      revert\n    tag_33:\n      pop\n      tag_34\n      tag_35\n      jump\t// in\n    tag_34:\n      mload(0x40)\n      tag_36\n      swap2\n      swap1\n      tag_37\n      jump\t// in\n    tag_36:\n      mload(0x40)\n      dup1\n      swap2\n      sub\n      swap1\n      return\n        /* \"@openzeppelin/contracts/token/ERC721/ERC721.sol\":3497:3651  function getApproved(uint256 tokenId) public view virtual returns (address) {... */\n    tag_4:\n      callvalue\n      dup1\n      iszero\n      tag_38\n      jumpi\n      0x00\n      dup1\n      revert\n    tag_38:\n      pop\n      tag_39\n      0x04\n      dup1\n      calldatasize\n      sub\n      dup2\n      add\n      swap1\n      tag_40\n      swap2\n      swap1\n      tag_41\n      jump\t// in\n    tag_40:\n      tag_42\n      jump\t// in\n    tag_39:\n      mload(0x40)\n      tag_43\n      swap2\n      swap1\n      tag_44\n      jump\t// in\n    tag_43:\n      mload(0x40)\n      dup1\n      swap2\n      sub\n      swap1\n      return\n        /* \"@openzeppelin/contracts/token/ERC721/ERC721.sol\":3323:3436  function approve(address to, uint256 tokenId) public virtual {... */\n    tag_5:\n      callvalue\n      dup1\n      iszero\n      tag_45\n      jumpi\n      0x00\n      dup1\n      revert\n    tag_45:\n      pop\n      tag_46\n      0x04\n      dup1\n      calldatasize\n      sub\n      dup2\n      add\n      swap1\n      tag_47\n      swap2\n      swap1\n      tag_48\n      jump\t// in\n    tag_47:\n      tag_49\n      jump\t// in\n    tag_46:\n      stop\n        /* \"@openzeppelin/contracts/token/ERC721/ERC721.sol\":4143:4721  function transferFrom(address from, address to, uint256 tokenId) public virtual {... */\n    tag_6:\n      callvalue\n      dup1\n      iszero\n      tag_50\n      jumpi\n      0x00\n      dup1\n      revert\n    tag_50:\n      pop\n      tag_51\n      0x04\n      dup1\n      calldatasize\n      sub\n      dup2\n      add\n      swap1\n      tag_52\n      swap2\n      swap1\n      tag_53\n      jump\t// in\n    tag_52:\n      tag_54\n      jump\t// in\n    tag_51:\n      stop\n        /* \"nftmarket.sol\":752:787  mapping(uint256 => NFT) public nfts */\n    tag_7:\n      callvalue\n      dup1\n      iszero\n      tag_55\n      jumpi\n      0x00\n      dup1\n      revert\n    tag_55:\n      pop\n      tag_56\n      0x04\n      dup1\n      calldatasize\n      sub\n      dup2\n      add\n      swap1\n      tag_57\n      swap2\n      swap1\n      tag_41\n      jump\t// in\n    tag_57:\n      tag_58\n      jump\t// in\n    tag_56:\n      mload(0x40)\n      tag_59\n      swap3\n      swap2\n      swap1\n      tag_60\n      jump\t// in\n    tag_59:\n      mload(0x40)\n      dup1\n      swap2\n      sub\n      swap1\n      return\n        /* \"nftmarket.sol\":2258:2540  function royaltyInfo(uint256 tokenId, uint256 value) external view override returns (address receiver, uint256 royaltyAmount) {... */\n    tag_8:\n      callvalue\n      dup1\n      iszero\n      tag_61\n      jumpi\n      0x00\n      dup1\n      revert\n    tag_61:\n      pop\n      tag_62\n      0x04\n      dup1\n      calldatasize\n      sub\n      dup2\n      add\n      swap1\n      tag_63\n      swap2\n      swap1\n      tag_64\n      jump\t// in\n    tag_63:\n      tag_65\n      jump\t// in\n    tag_62:\n      mload(0x40)\n      tag_66\n      swap3\n      swap2\n      swap1\n      tag_60\n      jump\t// in\n    tag_66:\n      mload(0x40)\n      dup1\n      swap2\n      sub\n      swap1\n      return\n        /* \"@openzeppelin/contracts/token/ERC721/ERC721.sol\":4787:4919  function safeTransferFrom(address from, address to, uint256 tokenId) public {... */\n    tag_9:\n      callvalue\n      dup1\n      iszero\n      tag_67\n      jumpi\n      0x00\n      dup1\n      revert\n    tag_67:\n      pop\n      tag_68\n      0x04\n      dup1\n      calldatasize\n      sub\n      dup2\n      add\n      swap1\n      tag_69\n      swap2\n      swap1\n      tag_53\n      jump\t// in\n    tag_69:\n      tag_70\n      jump\t// in\n    tag_68:\n      stop\n        /* \"nftmarket.sol\":897:1006  function setBaseURI(string memory newBaseTokenURI) public   {... */\n    tag_10:\n      callvalue\n      dup1\n      iszero\n      tag_71\n      jumpi\n      0x00\n      dup1\n      revert\n    tag_71:\n      pop\n      tag_72\n      0x04\n      dup1\n      calldatasize\n      sub\n      dup2\n      add\n      swap1\n      tag_73\n      swap2\n      swap1\n      tag_74\n      jump\t// in\n    tag_73:\n      tag_75\n      jump\t// in\n    tag_72:\n      stop\n        /* \"nftmarket.sol\":1014:1306  function mintNFT(string memory tokenURI, uint price) public {... */\n    tag_11:\n      callvalue\n      dup1\n      iszero\n      tag_76\n      jumpi\n      0x00\n      dup1\n      revert\n    tag_76:\n      pop\n      tag_77\n      0x04\n      dup1\n      calldatasize\n      sub\n      dup2\n      add\n      swap1\n      tag_78\n      swap2\n      swap1\n      tag_79\n      jump\t// in\n    tag_78:\n      tag_80\n      jump\t// in\n    tag_77:\n      stop\n        /* \"@openzeppelin/contracts/token/ERC721/ERC721.sol\":2185:2303  function ownerOf(uint256 tokenId) public view virtual returns (address) {... */\n    tag_12:\n      callvalue\n      dup1\n      iszero\n      tag_81\n      jumpi\n      0x00\n      dup1\n      revert\n    tag_81:\n      pop\n      tag_82\n      0x04\n      dup1\n      calldatasize\n      sub\n      dup2\n      add\n      swap1\n      tag_83\n      swap2\n      swap1\n      tag_41\n      jump\t// in\n    tag_83:\n      tag_84\n      jump\t// in\n    tag_82:\n      mload(0x40)\n      tag_85\n      swap2\n      swap1\n      tag_44\n      jump\t// in\n    tag_85:\n      mload(0x40)\n      dup1\n      swap2\n      sub\n      swap1\n      return\n        /* \"@openzeppelin/contracts/token/ERC721/ERC721.sol\":1920:2128  function balanceOf(address owner) public view virtual returns (uint256) {... */\n    tag_13:\n      callvalue\n      dup1\n      iszero\n      tag_86\n      jumpi\n      0x00\n      dup1\n      revert\n    tag_86:\n      pop\n      tag_87\n      0x04\n      dup1\n      calldatasize\n      sub\n      dup2\n      add\n      swap1\n      tag_88\n      swap2\n      swap1\n      tag_89\n      jump\t// in\n    tag_88:\n      tag_90\n      jump\t// in\n    tag_87:\n      mload(0x40)\n      tag_91\n      swap2\n      swap1\n      tag_92\n      jump\t// in\n    tag_91:\n      mload(0x40)\n      dup1\n      swap2\n      sub\n      swap1\n      return\n        /* \"nftmarket.sol\":561:598  uint256 public royaltyPercentage = 10 */\n    tag_14:\n      callvalue\n      dup1\n      iszero\n      tag_93\n      jumpi\n      0x00\n      dup1\n      revert\n    tag_93:\n      pop\n      tag_94\n      tag_95\n      jump\t// in\n    tag_94:\n      mload(0x40)\n      tag_96\n      swap2\n      swap1\n      tag_92\n      jump\t// in\n    tag_96:\n      mload(0x40)\n      dup1\n      swap2\n      sub\n      swap1\n      return\n        /* \"@openzeppelin/contracts/token/ERC721/ERC721.sol\":2518:2611  function symbol() public view virtual returns (string memory) {... */\n    tag_15:\n      callvalue\n      dup1\n      iszero\n      tag_97\n      jumpi\n      0x00\n      dup1\n      revert\n    tag_97:\n      pop\n      tag_98\n      tag_99\n      jump\t// in\n    tag_98:\n      mload(0x40)\n      tag_100\n      swap2\n      swap1\n      tag_37\n      jump\t// in\n    tag_100:\n      mload(0x40)\n      dup1\n      swap2\n      sub\n      swap1\n      return\n        /* \"@openzeppelin/contracts/token/ERC721/ERC721.sol\":3718:3862  function setApprovalForAll(address operator, bool approved) public virtual {... */\n    tag_16:\n      callvalue\n      dup1\n      iszero\n      tag_101\n      jumpi\n      0x00\n      dup1\n      revert\n    tag_101:\n      pop\n      tag_102\n      0x04\n      dup1\n      calldatasize\n      sub\n      dup2\n      add\n      swap1\n      tag_103\n      swap2\n      swap1\n      tag_104\n      jump\t// in\n    tag_103:\n      tag_105\n      jump\t// in\n    tag_102:\n      stop\n        /* \"nftmarket.sol\":1494:2250  function BuyNFT(uint256 tokenId) public payable  {... */\n    tag_17:\n      tag_106\n      0x04\n      dup1\n      calldatasize\n      sub\n      dup2\n      add\n      swap1\n      tag_107\n      swap2\n      swap1\n      tag_41\n      jump\t// in\n    tag_107:\n      tag_108\n      jump\t// in\n    tag_106:\n      stop\n        /* \"nftmarket.sol\":1314:1484  function SellNft(uint tokenId) public  {... */\n    tag_18:\n      callvalue\n      dup1\n      iszero\n      tag_109\n      jumpi\n      0x00\n      dup1\n      revert\n    tag_109:\n      pop\n      tag_110\n      0x04\n      dup1\n      calldatasize\n      sub\n      dup2\n      add\n      swap1\n      tag_111\n      swap2\n      swap1\n      tag_41\n      jump\t// in\n    tag_111:\n      tag_112\n      jump\t// in\n    tag_110:\n      stop\n        /* \"@openzeppelin/contracts/token/ERC721/ERC721.sol\":4985:5193  function safeTransferFrom(address from, address to, uint256 tokenId, bytes memory data) public virtual {... */\n    tag_19:\n      callvalue\n      dup1\n      iszero\n      tag_113\n      jumpi\n      0x00\n      dup1\n      revert\n    tag_113:\n      pop\n      tag_114\n      0x04\n      dup1\n      calldatasize\n      sub\n      dup2\n      add\n      swap1\n      tag_115\n      swap2\n      swap1\n      tag_116\n      jump\t// in\n    tag_115:\n      tag_117\n      jump\t// in\n    tag_114:\n      stop\n        /* \"@openzeppelin/contracts/token/ERC721/extensions/ERC721URIStorage.sol\":1210:1803  function tokenURI(uint256 tokenId) public view virtual override returns (string memory) {... */\n    tag_20:\n      callvalue\n      dup1\n      iszero\n      tag_118\n      jumpi\n      0x00\n      dup1\n      revert\n    tag_118:\n      pop\n      tag_119\n      0x04\n      dup1\n      calldatasize\n      sub\n      dup2\n      add\n      swap1\n      tag_120\n      swap2\n      swap1\n      tag_41\n      jump\t// in\n    tag_120:\n      tag_121\n      jump\t// in\n    tag_119:\n      mload(0x40)\n      tag_122\n      swap2\n      swap1\n      tag_37\n      jump\t// in\n    tag_122:\n      mload(0x40)\n      dup1\n      swap2\n      sub\n      swap1\n      return\n        /* \"nftmarket.sol\":528:554  string public baseTokenURI */\n    tag_21:\n      callvalue\n      dup1\n      iszero\n      tag_123\n      jumpi\n      0x00\n      dup1\n      revert\n    tag_123:\n      pop\n      tag_124\n      tag_125\n      jump\t// in\n    tag_124:\n      mload(0x40)\n      tag_126\n      swap2\n      swap1\n      tag_37\n      jump\t// in\n    tag_126:\n      mload(0x40)\n      dup1\n      swap2\n      sub\n      swap1\n      return\n        /* \"@openzeppelin/contracts/token/ERC721/ERC721.sol\":3928:4081  function isApprovedForAll(address owner, address operator) public view virtual returns (bool) {... */\n    tag_22:\n      callvalue\n      dup1\n      iszero\n      tag_127\n      jumpi\n      0x00\n      dup1\n      revert\n    tag_127:\n      pop\n      tag_128\n      0x04\n      dup1\n      calldatasize\n      sub\n      dup2\n      add\n      swap1\n      tag_129\n      swap2\n      swap1\n      tag_130\n      jump\t// in\n    tag_129:\n      tag_131\n      jump\t// in\n    tag_128:\n      mload(0x40)\n      tag_132\n      swap2\n      swap1\n      tag_32\n      jump\t// in\n    tag_132:\n      mload(0x40)\n      dup1\n      swap2\n      sub\n      swap1\n      return\n        /* \"@openzeppelin/contracts/token/ERC721/extensions/ERC721URIStorage.sol\":937:1144  function supportsInterface(bytes4 interfaceId) public view virtual override(ERC721, IERC165) returns (bool) {... */\n    tag_30:\n        /* \"@openzeppelin/contracts/token/ERC721/extensions/ERC721URIStorage.sol\":1039:1043  bool */\n      0x00\n        /* \"@openzeppelin/contracts/token/ERC721/extensions/ERC721URIStorage.sol\":760:770  0x49064906 */\n      0x49064906\n        /* \"@openzeppelin/contracts/token/ERC721/extensions/ERC721URIStorage.sol\":753:771  bytes4(0x49064906) */\n      0xe0\n      shl\n        /* \"@openzeppelin/contracts/token/ERC721/extensions/ERC721URIStorage.sol\":1062:1097  interfaceId == ERC4906_INTERFACE_ID */\n      not(0xffffffffffffffffffffffffffffffffffffffffffffffffffffffff)\n      and\n        /* \"@openzeppelin/contracts/token/ERC721/extensions/ERC721URIStorage.sol\":1062:1073  interfaceId */\n      dup3\n        /* \"@openzeppelin/contracts/token/ERC721/extensions/ERC721URIStorage.sol\":1062:1097  interfaceId == ERC4906_INTERFACE_ID */\n      not(0xffffffffffffffffffffffffffffffffffffffffffffffffffffffff)\n      and\n      eq\n        /* \"@openzeppelin/contracts/token/ERC721/extensions/ERC721URIStorage.sol\":1062:1137  interfaceId == ERC4906_INTERFACE_ID || super.supportsInterface(interfaceId) */\n      dup1\n      tag_134\n      jumpi\n      pop\n        /* \"@openzeppelin/contracts/token/ERC721/extensions/ERC721URIStorage.sol\":1101:1137  super.supportsInterface(interfaceId) */\n      tag_135\n        /* \"@openzeppelin/contracts/token/ERC721/extensions/ERC721URIStorage.sol\":1125:1136  interfaceId */\n      dup3\n        /* \"@openzeppelin/contracts/token/ERC721/extensions/ERC721URIStorage.sol\":1101:1124  super.supportsInterface */\n      tag_136\n        /* \"@openzeppelin/contracts/token/ERC721/extensions/ERC721URIStorage.sol\":1101:1137  super.supportsInterface(interfaceId) */\n      jump\t// in\n    tag_135:\n        /* \"@openzeppelin/contracts/token/ERC721/extensions/ERC721URIStorage.sol\":1062:1137  interfaceId == ERC4906_INTERFACE_ID || super.supportsInterface(interfaceId) */\n    tag_134:\n        /* \"@openzeppelin/contracts/token/ERC721/extensions/ERC721URIStorage.sol\":1055:1137  return interfaceId == ERC4906_INTERFACE_ID || super.supportsInterface(interfaceId) */\n      swap1\n      pop\n        /* \"@openzeppelin/contracts/token/ERC721/extensions/ERC721URIStorage.sol\":937:1144  function supportsInterface(bytes4 interfaceId) public view virtual override(ERC721, IERC165) returns (bool) {... */\n      swap2\n      swap1\n      pop\n      jump\t// out\n        /* \"@openzeppelin/contracts/token/ERC721/ERC721.sol\":2365:2454  function name() public view virtual returns (string memory) {... */\n    tag_35:\n        /* \"@openzeppelin/contracts/token/ERC721/ERC721.sol\":2410:2423  string memory */\n      0x60\n        /* \"@openzeppelin/contracts/token/ERC721/ERC721.sol\":2442:2447  _name */\n      0x00\n        /* \"@openzeppelin/contracts/token/ERC721/ERC721.sol\":2435:2447  return _name */\n      dup1\n      sload\n      tag_138\n      swap1\n      tag_139\n      jump\t// in\n    tag_138:\n      dup1\n      0x1f\n      add\n      0x20\n      dup1\n      swap2\n      div\n      mul\n      0x20\n      add\n      mload(0x40)\n      swap1\n      dup2\n      add\n      0x40\n      mstore\n      dup1\n      swap3\n      swap2\n      swap1\n      dup2\n      dup2\n      mstore\n      0x20\n      add\n      dup3\n      dup1\n      sload\n      tag_140\n      swap1\n      tag_139\n      jump\t// in\n    tag_140:\n      dup1\n      iszero\n      tag_141\n      jumpi\n      dup1\n      0x1f\n      lt\n      tag_142\n      jumpi\n      0x0100\n      dup1\n      dup4\n      sload\n      div\n      mul\n      dup4\n      mstore\n      swap2\n      0x20\n      add\n      swap2\n      jump(tag_141)\n    tag_142:\n      dup3\n      add\n      swap2\n      swap1\n      0x00\n      mstore\n      keccak256(0x00, 0x20)\n      swap1\n    tag_143:\n      dup2\n      sload\n      dup2\n      mstore\n      swap1\n      0x01\n      add\n      swap1\n      0x20\n      add\n      dup1\n      dup4\n      gt\n      tag_143\n      jumpi\n      dup3\n      swap1\n      sub\n      0x1f\n      and\n      dup3\n      add\n      swap2\n    tag_141:\n      pop\n      pop\n      pop\n      pop\n      pop\n      swap1\n      pop\n        /* \"@openzeppelin/contracts/token/ERC721/ERC721.sol\":2365:2454  function name() public view virtual returns (string memory) {... */\n      swap1\n      jump\t// out\n        /* \"@openzeppelin/contracts/token/ERC721/ERC721.sol\":3497:3651  function getApproved(uint256 tokenId) public view virtual returns (address) {... */\n    tag_42:\n        /* \"@openzeppelin/contracts/token/ERC721/ERC721.sol\":3564:3571  address */\n      0x00\n        /* \"@openzeppelin/contracts/token/ERC721/ERC721.sol\":3583:3605  _requireOwned(tokenId) */\n      tag_145\n        /* \"@openzeppelin/contracts/token/ERC721/ERC721.sol\":3597:3604  tokenId */\n      dup3\n        /* \"@openzeppelin/contracts/token/ERC721/ERC721.sol\":3583:3596  _requireOwned */\n      tag_146\n        /* \"@openzeppelin/contracts/token/ERC721/ERC721.sol\":3583:3605  _requireOwned(tokenId) */\n      jump\t// in\n    tag_145:\n      pop\n        /* \"@openzeppelin/contracts/token/ERC721/ERC721.sol\":3623:3644  _getApproved(tokenId) */\n      tag_147\n        /* \"@openzeppelin/contracts/token/ERC721/ERC721.sol\":3636:3643  tokenId */\n      dup3\n        /* \"@openzeppelin/contracts/token/ERC721/ERC721.sol\":3623:3635  _getApproved */\n      tag_148\n        /* \"@openzeppelin/contracts/token/ERC721/ERC721.sol\":3623:3644  _getApproved(tokenId) */\n      jump\t// in\n    tag_147:\n        /* \"@openzeppelin/contracts/token/ERC721/ERC721.sol\":3616:3644  return _getApproved(tokenId) */\n      swap1\n      pop\n        /* \"@openzeppelin/contracts/token/ERC721/ERC721.sol\":3497:3651  function getApproved(uint256 tokenId) public view virtual returns (address) {... */\n      swap2\n      swap1\n      pop\n      jump\t// out\n        /* \"@openzeppelin/contracts/token/ERC721/ERC721.sol\":3323:3436  function approve(address to, uint256 tokenId) public virtual {... */\n    tag_49:\n        /* \"@openzeppelin/contracts/token/ERC721/ERC721.sol\":3394:3429  _approve(to, tokenId, _msgSender()) */\n      tag_150\n        /* \"@openzeppelin/contracts/token/ERC721/ERC721.sol\":3403:3405  to */\n      dup3\n        /* \"@openzeppelin/contracts/token/ERC721/ERC721.sol\":3407:3414  tokenId */\n      dup3\n        /* \"@openzeppelin/contracts/token/ERC721/ERC721.sol\":3416:3428  _msgSender() */\n      tag_151\n        /* \"@openzeppelin/contracts/token/ERC721/ERC721.sol\":3416:3426  _msgSender */\n      tag_152\n        /* \"@openzeppelin/contracts/token/ERC721/ERC721.sol\":3416:3428  _msgSender() */\n      jump\t// in\n    tag_151:\n        /* \"@openzeppelin/contracts/token/ERC721/ERC721.sol\":3394:3402  _approve */\n      tag_153\n        /* \"@openzeppelin/contracts/token/ERC721/ERC721.sol\":3394:3429  _approve(to, tokenId, _msgSender()) */\n      jump\t// in\n    tag_150:\n        /* \"@openzeppelin/contracts/token/ERC721/ERC721.sol\":3323:3436  function approve(address to, uint256 tokenId) public virtual {... */\n      pop\n      pop\n      jump\t// out\n        /* \"@openzeppelin/contracts/token/ERC721/ERC721.sol\":4143:4721  function transferFrom(address from, address to, uint256 tokenId) public virtual {... */\n    tag_54:\n        /* \"@openzeppelin/contracts/token/ERC721/ERC721.sol\":4251:4252  0 */\n      0x00\n        /* \"@openzeppelin/contracts/token/ERC721/ERC721.sol\":4237:4253  to == address(0) */\n      0xffffffffffffffffffffffffffffffffffffffff\n      and\n        /* \"@openzeppelin/contracts/token/ERC721/ERC721.sol\":4237:4239  to */\n      dup3\n        /* \"@openzeppelin/contracts/token/ERC721/ERC721.sol\":4237:4253  to == address(0) */\n      0xffffffffffffffffffffffffffffffffffffffff\n      and\n      sub\n        /* \"@openzeppelin/contracts/token/ERC721/ERC721.sol\":4233:4320  if (to == address(0)) {... */\n      tag_155\n      jumpi\n        /* \"@openzeppelin/contracts/token/ERC721/ERC721.sol\":4306:4307  0 */\n      0x00\n        /* \"@openzeppelin/contracts/token/ERC721/ERC721.sol\":4276:4309  ERC721InvalidReceiver(address(0)) */\n      mload(0x40)\n      0x64a0ae9200000000000000000000000000000000000000000000000000000000\n      dup2\n      mstore\n      0x04\n      add\n      tag_156\n      swap2\n      swap1\n      tag_44\n      jump\t// in\n    tag_156:\n      mload(0x40)\n      dup1\n      swap2\n      sub\n      swap1\n      revert\n        /* \"@openzeppelin/contracts/token/ERC721/ERC721.sol\":4233:4320  if (to == address(0)) {... */\n    tag_155:\n        /* \"@openzeppelin/contracts/token/ERC721/ERC721.sol\":4538:4559  address previousOwner */\n      0x00\n        /* \"@openzeppelin/contracts/token/ERC721/ERC721.sol\":4562:4596  _update(to, tokenId, _msgSender()) */\n      tag_157\n        /* \"@openzeppelin/contracts/token/ERC721/ERC721.sol\":4570:4572  to */\n      dup4\n        /* \"@openzeppelin/contracts/token/ERC721/ERC721.sol\":4574:4581  tokenId */\n      dup4\n        /* \"@openzeppelin/contracts/token/ERC721/ERC721.sol\":4583:4595  _msgSender() */\n      tag_158\n        /* \"@openzeppelin/contracts/token/ERC721/ERC721.sol\":4583:4593  _msgSender */\n      tag_152\n        /* \"@openzeppelin/contracts/token/ERC721/ERC721.sol\":4583:4595  _msgSender() */\n      jump\t// in\n    tag_158:\n        /* \"@openzeppelin/contracts/token/ERC721/ERC721.sol\":4562:4569  _update */\n      tag_159\n        /* \"@openzeppelin/contracts/token/ERC721/ERC721.sol\":4562:4596  _update(to, tokenId, _msgSender()) */\n      jump\t// in\n    tag_157:\n        /* \"@openzeppelin/contracts/token/ERC721/ERC721.sol\":4538:4596  address previousOwner = _update(to, tokenId, _msgSender()) */\n      swap1\n      pop\n        /* \"@openzeppelin/contracts/token/ERC721/ERC721.sol\":4627:4631  from */\n      dup4\n        /* \"@openzeppelin/contracts/token/ERC721/ERC721.sol\":4610:4631  previousOwner != from */\n      0xffffffffffffffffffffffffffffffffffffffff\n      and\n        /* \"@openzeppelin/contracts/token/ERC721/ERC721.sol\":4610:4623  previousOwner */\n      dup2\n        /* \"@openzeppelin/contracts/token/ERC721/ERC721.sol\":4610:4631  previousOwner != from */\n      0xffffffffffffffffffffffffffffffffffffffff\n      and\n      eq\n        /* \"@openzeppelin/contracts/token/ERC721/ERC721.sol\":4606:4715  if (previousOwner != from) {... */\n      tag_160\n      jumpi\n        /* \"@openzeppelin/contracts/token/ERC721/ERC721.sol\":4675:4679  from */\n      dup4\n        /* \"@openzeppelin/contracts/token/ERC721/ERC721.sol\":4681:4688  tokenId */\n      dup3\n        /* \"@openzeppelin/contracts/token/ERC721/ERC721.sol\":4690:4703  previousOwner */\n      dup3\n        /* \"@openzeppelin/contracts/token/ERC721/ERC721.sol\":4654:4704  ERC721IncorrectOwner(from, tokenId, previousOwner) */\n      mload(0x40)\n      0x64283d7b00000000000000000000000000000000000000000000000000000000\n      dup2\n      mstore\n      0x04\n      add\n      tag_161\n      swap4\n      swap3\n      swap2\n      swap1\n      tag_162\n      jump\t// in\n    tag_161:\n      mload(0x40)\n      dup1\n      swap2\n      sub\n      swap1\n      revert\n        /* \"@openzeppelin/contracts/token/ERC721/ERC721.sol\":4606:4715  if (previousOwner != from) {... */\n    tag_160:\n        /* \"@openzeppelin/contracts/token/ERC721/ERC721.sol\":4223:4721  {... */\n      pop\n        /* \"@openzeppelin/contracts/token/ERC721/ERC721.sol\":4143:4721  function transferFrom(address from, address to, uint256 tokenId) public virtual {... */\n      pop\n      pop\n      pop\n      jump\t// out\n        /* \"nftmarket.sol\":752:787  mapping(uint256 => NFT) public nfts */\n    tag_58:\n      mstore(0x20, 0x0c)\n      dup1\n      0x00\n      mstore\n      keccak256(0x00, 0x40)\n      0x00\n      swap2\n      pop\n      swap1\n      pop\n      dup1\n      0x00\n      add\n      0x00\n      swap1\n      sload\n      swap1\n      0x0100\n      exp\n      swap1\n      div\n      0xffffffffffffffffffffffffffffffffffffffff\n      and\n      swap1\n      dup1\n      0x01\n      add\n      sload\n      swap1\n      pop\n      dup3\n      jump\t// out\n        /* \"nftmarket.sol\":2258:2540  function royaltyInfo(uint256 tokenId, uint256 value) external view override returns (address receiver, uint256 royaltyAmount) {... */\n    tag_65:\n        /* \"nftmarket.sol\":2343:2359  address receiver */\n      0x00\n        /* \"nftmarket.sol\":2361:2382  uint256 royaltyAmount */\n      dup1\n        /* \"nftmarket.sol\":2395:2412  uint256 royalties */\n      0x00\n        /* \"nftmarket.sol\":2445:2448  100 */\n      0x64\n        /* \"nftmarket.sol\":2424:2441  royaltyPercentage */\n      sload(0x0a)\n        /* \"nftmarket.sol\":2416:2421  value */\n      dup6\n        /* \"nftmarket.sol\":2416:2441  value * royaltyPercentage */\n      tag_164\n      swap2\n      swap1\n      tag_165\n      jump\t// in\n    tag_164:\n        /* \"nftmarket.sol\":2415:2448  (value * royaltyPercentage) / 100 */\n      tag_166\n      swap2\n      swap1\n      tag_167\n      jump\t// in\n    tag_166:\n        /* \"nftmarket.sol\":2395:2448  uint256 royalties = (value * royaltyPercentage) / 100 */\n      swap1\n      pop\n        /* \"nftmarket.sol\":2467:2480  contractOwner */\n      0x0b\n      0x00\n      swap1\n      sload\n      swap1\n      0x0100\n      exp\n      swap1\n      div\n      0xffffffffffffffffffffffffffffffffffffffff\n      and\n        /* \"nftmarket.sol\":2482:2491  royalties */\n      dup2\n        /* \"nftmarket.sol\":2459:2492  return (contractOwner, royalties) */\n      swap3\n      pop\n      swap3\n      pop\n      pop\n        /* \"nftmarket.sol\":2258:2540  function royaltyInfo(uint256 tokenId, uint256 value) external view override returns (address receiver, uint256 royaltyAmount) {... */\n      swap3\n      pop\n      swap3\n      swap1\n      pop\n      jump\t// out\n        /* \"@openzeppelin/contracts/token/ERC721/ERC721.sol\":4787:4919  function safeTransferFrom(address from, address to, uint256 tokenId) public {... */\n    tag_70:\n        /* \"@openzeppelin/contracts/token/ERC721/ERC721.sol\":4873:4912  safeTransferFrom(from, to, tokenId, \"\") */\n      tag_169\n        /* \"@openzeppelin/contracts/token/ERC721/ERC721.sol\":4890:4894  from */\n      dup4\n        /* \"@openzeppelin/contracts/token/ERC721/ERC721.sol\":4896:4898  to */\n      dup4\n        /* \"@openzeppelin/contracts/token/ERC721/ERC721.sol\":4900:4907  tokenId */\n      dup4\n        /* \"@openzeppelin/contracts/token/ERC721/ERC721.sol\":4873:4912  safeTransferFrom(from, to, tokenId, \"\") */\n      mload(0x40)\n      dup1\n      0x20\n      add\n      0x40\n      mstore\n      dup1\n      0x00\n      dup2\n      mstore\n      pop\n        /* \"@openzeppelin/contracts/token/ERC721/ERC721.sol\":4873:4889  safeTransferFrom */\n      tag_117\n        /* \"@openzeppelin/contracts/token/ERC721/ERC721.sol\":4873:4912  safeTransferFrom(from, to, tokenId, \"\") */\n      jump\t// in\n    tag_169:\n        /* \"@openzeppelin/contracts/token/ERC721/ERC721.sol\":4787:4919  function safeTransferFrom(address from, address to, uint256 tokenId) public {... */\n      pop\n      pop\n      pop\n      jump\t// out\n        /* \"nftmarket.sol\":897:1006  function setBaseURI(string memory newBaseTokenURI) public   {... */\n    tag_75:\n        /* \"nftmarket.sol\":983:998  newBaseTokenURI */\n      dup1\n        /* \"nftmarket.sol\":968:980  baseTokenURI */\n      0x09\n        /* \"nftmarket.sol\":968:998  baseTokenURI = newBaseTokenURI */\n      swap1\n      dup2\n      tag_171\n      swap2\n      swap1\n      tag_172\n      jump\t// in\n    tag_171:\n      pop\n        /* \"nftmarket.sol\":897:1006  function setBaseURI(string memory newBaseTokenURI) public   {... */\n      pop\n      jump\t// out\n        /* \"nftmarket.sol\":1014:1306  function mintNFT(string memory tokenURI, uint price) public {... */\n    tag_80:\n        /* \"nftmarket.sol\":1085:1100  uint256 tokenId */\n      0x00\n        /* \"nftmarket.sol\":1103:1128  _tokenIdCounter.current() */\n      tag_174\n        /* \"nftmarket.sol\":1103:1118  _tokenIdCounter */\n      0x07\n        /* \"nftmarket.sol\":1103:1126  _tokenIdCounter.current */\n      tag_175\n        /* \"nftmarket.sol\":1103:1128  _tokenIdCounter.current() */\n      jump\t// in\n    tag_174:\n        /* \"nftmarket.sol\":1085:1128  uint256 tokenId = _tokenIdCounter.current() */\n      swap1\n      pop\n        /* \"nftmarket.sol\":1139:1169  _safeMint(msg.sender, tokenId) */\n      tag_176\n        /* \"nftmarket.sol\":1149:1159  msg.sender */\n      caller\n        /* \"nftmarket.sol\":1161:1168  tokenId */\n      dup3\n        /* \"nftmarket.sol\":1139:1148  _safeMint */\n      tag_177\n        /* \"nftmarket.sol\":1139:1169  _safeMint(msg.sender, tokenId) */\n      jump\t// in\n    tag_176:\n        /* \"nftmarket.sol\":1180:1211  _setTokenURI(tokenId, tokenURI) */\n      tag_178\n        /* \"nftmarket.sol\":1193:1200  tokenId */\n      dup2\n        /* \"nftmarket.sol\":1202:1210  tokenURI */\n      dup5\n        /* \"nftmarket.sol\":1180:1192  _setTokenURI */\n      tag_179\n        /* \"nftmarket.sol\":1180:1211  _setTokenURI(tokenId, tokenURI) */\n      jump\t// in\n    tag_178:\n        /* \"nftmarket.sol\":1238:1260  NFT(msg.sender, price) */\n      mload(0x40)\n      dup1\n      0x40\n      add\n      0x40\n      mstore\n      dup1\n        /* \"nftmarket.sol\":1242:1252  msg.sender */\n      caller\n        /* \"nftmarket.sol\":1238:1260  NFT(msg.sender, price) */\n      0xffffffffffffffffffffffffffffffffffffffff\n      and\n      dup2\n      mstore\n      0x20\n      add\n        /* \"nftmarket.sol\":1254:1259  price */\n      dup4\n        /* \"nftmarket.sol\":1238:1260  NFT(msg.sender, price) */\n      dup2\n      mstore\n      pop\n        /* \"nftmarket.sol\":1223:1227  nfts */\n      0x0c\n        /* \"nftmarket.sol\":1223:1236  nfts[tokenId] */\n      0x00\n        /* \"nftmarket.sol\":1228:1235  tokenId */\n      dup4\n        /* \"nftmarket.sol\":1223:1236  nfts[tokenId] */\n      dup2\n      mstore\n      0x20\n      add\n      swap1\n      dup2\n      mstore\n      0x20\n      add\n      0x00\n      keccak256\n        /* \"nftmarket.sol\":1223:1260  nfts[tokenId]= NFT(msg.sender, price) */\n      0x00\n      dup3\n      add\n      mload\n      dup2\n      0x00\n      add\n      exp(0x0100, 0x00)\n      dup2\n      sload\n      dup2\n      0xffffffffffffffffffffffffffffffffffffffff\n      mul\n      not\n      and\n      swap1\n      dup4\n      0xffffffffffffffffffffffffffffffffffffffff\n      and\n      mul\n      or\n      swap1\n      sstore\n      pop\n      0x20\n      dup3\n      add\n      mload\n      dup2\n      0x01\n      add\n      sstore\n      swap1\n      pop\n      pop\n        /* \"nftmarket.sol\":1271:1298  _tokenIdCounter.increment() */\n      tag_180\n        /* \"nftmarket.sol\":1271:1286  _tokenIdCounter */\n      0x07\n        /* \"nftmarket.sol\":1271:1296  _tokenIdCounter.increment */\n      tag_181\n        /* \"nftmarket.sol\":1271:1298  _tokenIdCounter.increment() */\n      jump\t// in\n    tag_180:\n        /* \"nftmarket.sol\":1074:1306  {... */\n      pop\n        /* \"nftmarket.sol\":1014:1306  function mintNFT(string memory tokenURI, uint price) public {... */\n      pop\n      pop\n      jump\t// out\n        /* \"@openzeppelin/contracts/token/ERC721/ERC721.sol\":2185:2303  function ownerOf(uint256 tokenId) public view virtual returns (address) {... */\n    tag_84:\n        /* \"@openzeppelin/contracts/token/ERC721/ERC721.sol\":2248:2255  address */\n      0x00\n        /* \"@openzeppelin/contracts/token/ERC721/ERC721.sol\":2274:2296  _requireOwned(tokenId) */\n      tag_183\n        /* \"@openzeppelin/contracts/token/ERC721/ERC721.sol\":2288:2295  tokenId */\n      dup3\n        /* \"@openzeppelin/contracts/token/ERC721/ERC721.sol\":2274:2287  _requireOwned */\n      tag_146\n        /* \"@openzeppelin/contracts/token/ERC721/ERC721.sol\":2274:2296  _requireOwned(tokenId) */\n      jump\t// in\n    tag_183:\n        /* \"@openzeppelin/contracts/token/ERC721/ERC721.sol\":2267:2296  return _requireOwned(tokenId) */\n      swap1\n      pop\n        /* \"@openzeppelin/contracts/token/ERC721/ERC721.sol\":2185:2303  function ownerOf(uint256 tokenId) public view virtual returns (address) {... */\n      swap2\n      swap1\n      pop\n      jump\t// out\n        /* \"@openzeppelin/contracts/token/ERC721/ERC721.sol\":1920:2128  function balanceOf(address owner) public view virtual returns (uint256) {... */\n    tag_90:\n        /* \"@openzeppelin/contracts/token/ERC721/ERC721.sol\":1983:1990  uint256 */\n      0x00\n        /* \"@openzeppelin/contracts/token/ERC721/ERC721.sol\":2023:2024  0 */\n      dup1\n        /* \"@openzeppelin/contracts/token/ERC721/ERC721.sol\":2006:2025  owner == address(0) */\n      0xffffffffffffffffffffffffffffffffffffffff\n      and\n        /* \"@openzeppelin/contracts/token/ERC721/ERC721.sol\":2006:2011  owner */\n      dup3\n        /* \"@openzeppelin/contracts/token/ERC721/ERC721.sol\":2006:2025  owner == address(0) */\n      0xffffffffffffffffffffffffffffffffffffffff\n      and\n      sub\n        /* \"@openzeppelin/contracts/token/ERC721/ERC721.sol\":2002:2089  if (owner == address(0)) {... */\n      tag_185\n      jumpi\n        /* \"@openzeppelin/contracts/token/ERC721/ERC721.sol\":2075:2076  0 */\n      0x00\n        /* \"@openzeppelin/contracts/token/ERC721/ERC721.sol\":2048:2078  ERC721InvalidOwner(address(0)) */\n      mload(0x40)\n      0x89c62b6400000000000000000000000000000000000000000000000000000000\n      dup2\n      mstore\n      0x04\n      add\n      tag_186\n      swap2\n      swap1\n      tag_44\n      jump\t// in\n    tag_186:\n      mload(0x40)\n      dup1\n      swap2\n      sub\n      swap1\n      revert\n        /* \"@openzeppelin/contracts/token/ERC721/ERC721.sol\":2002:2089  if (owner == address(0)) {... */\n    tag_185:\n        /* \"@openzeppelin/contracts/token/ERC721/ERC721.sol\":2105:2114  _balances */\n      0x03\n        /* \"@openzeppelin/contracts/token/ERC721/ERC721.sol\":2105:2121  _balances[owner] */\n      0x00\n        /* \"@openzeppelin/contracts/token/ERC721/ERC721.sol\":2115:2120  owner */\n      dup4\n        /* \"@openzeppelin/contracts/token/ERC721/ERC721.sol\":2105:2121  _balances[owner] */\n      0xffffffffffffffffffffffffffffffffffffffff\n      and\n      0xffffffffffffffffffffffffffffffffffffffff\n      and\n      dup2\n      mstore\n      0x20\n      add\n      swap1\n      dup2\n      mstore\n      0x20\n      add\n      0x00\n      keccak256\n      sload\n        /* \"@openzeppelin/contracts/token/ERC721/ERC721.sol\":2098:2121  return _balances[owner] */\n      swap1\n      pop\n        /* \"@openzeppelin/contracts/token/ERC721/ERC721.sol\":1920:2128  function balanceOf(address owner) public view virtual returns (uint256) {... */\n      swap2\n      swap1\n      pop\n      jump\t// out\n        /* \"nftmarket.sol\":561:598  uint256 public royaltyPercentage = 10 */\n    tag_95:\n      sload(0x0a)\n      dup2\n      jump\t// out\n        /* \"@openzeppelin/contracts/token/ERC721/ERC721.sol\":2518:2611  function symbol() public view virtual returns (string memory) {... */\n    tag_99:\n        /* \"@openzeppelin/contracts/token/ERC721/ERC721.sol\":2565:2578  string memory */\n      0x60\n        /* \"@openzeppelin/contracts/token/ERC721/ERC721.sol\":2597:2604  _symbol */\n      0x01\n        /* \"@openzeppelin/contracts/token/ERC721/ERC721.sol\":2590:2604  return _symbol */\n      dup1\n      sload\n      tag_188\n      swap1\n      tag_139\n      jump\t// in\n    tag_188:\n      dup1\n      0x1f\n      add\n      0x20\n      dup1\n      swap2\n      div\n      mul\n      0x20\n      add\n      mload(0x40)\n      swap1\n      dup2\n      add\n      0x40\n      mstore\n      dup1\n      swap3\n      swap2\n      swap1\n      dup2\n      dup2\n      mstore\n      0x20\n      add\n      dup3\n      dup1\n      sload\n      tag_189\n      swap1\n      tag_139\n      jump\t// in\n    tag_189:\n      dup1\n      iszero\n      tag_190\n      jumpi\n      dup1\n      0x1f\n      lt\n      tag_191\n      jumpi\n      0x0100\n      dup1\n      dup4\n      sload\n      div\n      mul\n      dup4\n      mstore\n      swap2\n      0x20\n      add\n      swap2\n      jump(tag_190)\n    tag_191:\n      dup3\n      add\n      swap2\n      swap1\n      0x00\n      mstore\n      keccak256(0x00, 0x20)\n      swap1\n    tag_192:\n      dup2\n      sload\n      dup2\n      mstore\n      swap1\n      0x01\n      add\n      swap1\n      0x20\n      add\n      dup1\n      dup4\n      gt\n      tag_192\n      jumpi\n      dup3\n      swap1\n      sub\n      0x1f\n      and\n      dup3\n      add\n      swap2\n    tag_190:\n      pop\n      pop\n      pop\n      pop\n      pop\n      swap1\n      pop\n        /* \"@openzeppelin/contracts/token/ERC721/ERC721.sol\":2518:2611  function symbol() public view virtual returns (string memory) {... */\n      swap1\n      jump\t// out\n        /* \"@openzeppelin/contracts/token/ERC721/ERC721.sol\":3718:3862  function setApprovalForAll(address operator, bool approved) public virtual {... */\n    tag_105:\n        /* \"@openzeppelin/contracts/token/ERC721/ERC721.sol\":3803:3855  _setApprovalForAll(_msgSender(), operator, approved) */\n      tag_194\n        /* \"@openzeppelin/contracts/token/ERC721/ERC721.sol\":3822:3834  _msgSender() */\n      tag_195\n        /* \"@openzeppelin/contracts/token/ERC721/ERC721.sol\":3822:3832  _msgSender */\n      tag_152\n        /* \"@openzeppelin/contracts/token/ERC721/ERC721.sol\":3822:3834  _msgSender() */\n      jump\t// in\n    tag_195:\n        /* \"@openzeppelin/contracts/token/ERC721/ERC721.sol\":3836:3844  operator */\n      dup4\n        /* \"@openzeppelin/contracts/token/ERC721/ERC721.sol\":3846:3854  approved */\n      dup4\n        /* \"@openzeppelin/contracts/token/ERC721/ERC721.sol\":3803:3821  _setApprovalForAll */\n      tag_196\n        /* \"@openzeppelin/contracts/token/ERC721/ERC721.sol\":3803:3855  _setApprovalForAll(_msgSender(), operator, approved) */\n      jump\t// in\n    tag_194:\n        /* \"@openzeppelin/contracts/token/ERC721/ERC721.sol\":3718:3862  function setApprovalForAll(address operator, bool approved) public virtual {... */\n      pop\n      pop\n      jump\t// out\n        /* \"nftmarket.sol\":1494:2250  function BuyNFT(uint256 tokenId) public payable  {... */\n    tag_108:\n        /* \"nftmarket.sol\":1561:1579  address tokenOwner */\n      0x00\n        /* \"nftmarket.sol\":1582:1598  ownerOf(tokenId) */\n      tag_198\n        /* \"nftmarket.sol\":1590:1597  tokenId */\n      dup3\n        /* \"nftmarket.sol\":1582:1589  ownerOf */\n      tag_84\n        /* \"nftmarket.sol\":1582:1598  ownerOf(tokenId) */\n      jump\t// in\n    tag_198:\n        /* \"nftmarket.sol\":1561:1598  address tokenOwner = ownerOf(tokenId) */\n      swap1\n      pop\n        /* \"nftmarket.sol\":1609:1622  address buyer */\n      0x00\n        /* \"nftmarket.sol\":1625:1635  msg.sender */\n      caller\n        /* \"nftmarket.sol\":1609:1635  address buyer = msg.sender */\n      swap1\n      pop\n        /* \"nftmarket.sol\":1646:1659  uint256 price */\n      0x00\n        /* \"nftmarket.sol\":1662:1666  nfts */\n      0x0c\n        /* \"nftmarket.sol\":1662:1675  nfts[tokenId] */\n      0x00\n        /* \"nftmarket.sol\":1667:1674  tokenId */\n      dup6\n        /* \"nftmarket.sol\":1662:1675  nfts[tokenId] */\n      dup2\n      mstore\n      0x20\n      add\n      swap1\n      dup2\n      mstore\n      0x20\n      add\n      0x00\n      keccak256\n        /* \"nftmarket.sol\":1662:1681  nfts[tokenId].price */\n      0x01\n      add\n      sload\n        /* \"nftmarket.sol\":1646:1681  uint256 price = nfts[tokenId].price */\n      swap1\n      pop\n        /* \"nftmarket.sol\":1714:1719  buyer */\n      dup2\n        /* \"nftmarket.sol\":1700:1719  tokenOwner != buyer */\n      0xffffffffffffffffffffffffffffffffffffffff\n      and\n        /* \"nftmarket.sol\":1700:1710  tokenOwner */\n      dup4\n        /* \"nftmarket.sol\":1700:1719  tokenOwner != buyer */\n      0xffffffffffffffffffffffffffffffffffffffff\n      and\n      sub\n        /* \"nftmarket.sol\":1692:1747  require(tokenOwner != buyer, \"Cannot buy your own NFT\") */\n      tag_199\n      jumpi\n      mload(0x40)\n      0x08c379a000000000000000000000000000000000000000000000000000000000\n      dup2\n      mstore\n      0x04\n      add\n      tag_200\n      swap1\n      tag_201\n      jump\t// in\n    tag_200:\n      mload(0x40)\n      dup1\n      swap2\n      sub\n      swap1\n      revert\n    tag_199:\n        /* \"nftmarket.sol\":1779:1784  price */\n      dup1\n        /* \"nftmarket.sol\":1766:1775  msg.value */\n      callvalue\n        /* \"nftmarket.sol\":1766:1784  msg.value == price */\n      eq\n        /* \"nftmarket.sol\":1758:1806  require(msg.value == price, \"Supply Exact fund\") */\n      tag_202\n      jumpi\n      mload(0x40)\n      0x08c379a000000000000000000000000000000000000000000000000000000000\n      dup2\n      mstore\n      0x04\n      add\n      tag_203\n      swap1\n      tag_204\n      jump\t// in\n    tag_203:\n      mload(0x40)\n      dup1\n      swap2\n      sub\n      swap1\n      revert\n    tag_202:\n        /* \"nftmarket.sol\":1861:1898  _transfer(tokenOwner, buyer, tokenId) */\n      tag_205\n        /* \"nftmarket.sol\":1871:1881  tokenOwner */\n      dup4\n        /* \"nftmarket.sol\":1883:1888  buyer */\n      dup4\n        /* \"nftmarket.sol\":1890:1897  tokenId */\n      dup7\n        /* \"nftmarket.sol\":1861:1870  _transfer */\n      tag_206\n        /* \"nftmarket.sol\":1861:1898  _transfer(tokenOwner, buyer, tokenId) */\n      jump\t// in\n    tag_205:\n        /* \"nftmarket.sol\":1967:1984  uint256 royalties */\n      0x00\n        /* \"nftmarket.sol\":2017:2020  100 */\n      0x64\n        /* \"nftmarket.sol\":1996:2013  royaltyPercentage */\n      sload(0x0a)\n        /* \"nftmarket.sol\":1988:1993  price */\n      dup4\n        /* \"nftmarket.sol\":1988:2013  price * royaltyPercentage */\n      tag_207\n      swap2\n      swap1\n      tag_165\n      jump\t// in\n    tag_207:\n        /* \"nftmarket.sol\":1987:2020  (price * royaltyPercentage) / 100 */\n      tag_208\n      swap2\n      swap1\n      tag_167\n      jump\t// in\n    tag_208:\n        /* \"nftmarket.sol\":1967:2020  uint256 royalties = (price * royaltyPercentage) / 100 */\n      swap1\n      pop\n        /* \"nftmarket.sol\":2062:2075  contractOwner */\n      0x0b\n      0x00\n      swap1\n      sload\n      swap1\n      0x0100\n      exp\n      swap1\n      div\n      0xffffffffffffffffffffffffffffffffffffffff\n      and\n        /* \"nftmarket.sol\":2054:2085  payable(contractOwner).transfer */\n      0xffffffffffffffffffffffffffffffffffffffff\n      and\n        /* \"nftmarket.sol\":2054:2096  payable(contractOwner).transfer(royalties) */\n      0x08fc\n        /* \"nftmarket.sol\":2086:2095  royalties */\n      dup3\n        /* \"nftmarket.sol\":2054:2096  payable(contractOwner).transfer(royalties) */\n      swap1\n      dup2\n      iszero\n      mul\n      swap1\n      mload(0x40)\n      0x00\n      mload(0x40)\n      dup1\n      dup4\n      sub\n      dup2\n      dup6\n      dup9\n      dup9\n      call\n      swap4\n      pop\n      pop\n      pop\n      pop\n      iszero\n      dup1\n      iszero\n      tag_210\n      jumpi\n      returndatasize\n      0x00\n      dup1\n      returndatacopy\n      revert(0x00, returndatasize)\n    tag_210:\n      pop\n        /* \"nftmarket.sol\":2201:2211  tokenOwner */\n      dup4\n        /* \"nftmarket.sol\":2193:2221  payable(tokenOwner).transfer */\n      0xffffffffffffffffffffffffffffffffffffffff\n      and\n        /* \"nftmarket.sol\":2193:2240  payable(tokenOwner).transfer(price - royalties) */\n      0x08fc\n        /* \"nftmarket.sol\":2230:2239  royalties */\n      dup3\n        /* \"nftmarket.sol\":2222:2227  price */\n      dup5\n        /* \"nftmarket.sol\":2222:2239  price - royalties */\n      tag_211\n      swap2\n      swap1\n      tag_212\n      jump\t// in\n    tag_211:\n        /* \"nftmarket.sol\":2193:2240  payable(tokenOwner).transfer(price - royalties) */\n      swap1\n      dup2\n      iszero\n      mul\n      swap1\n      mload(0x40)\n      0x00\n      mload(0x40)\n      dup1\n      dup4\n      sub\n      dup2\n      dup6\n      dup9\n      dup9\n      call\n      swap4\n      pop\n      pop\n      pop\n      pop\n      iszero\n      dup1\n      iszero\n      tag_214\n      jumpi\n      returndatasize\n      0x00\n      dup1\n      returndatacopy\n      revert(0x00, returndatasize)\n    tag_214:\n      pop\n        /* \"nftmarket.sol\":1543:2250  {... */\n      pop\n      pop\n      pop\n      pop\n        /* \"nftmarket.sol\":1494:2250  function BuyNFT(uint256 tokenId) public payable  {... */\n      pop\n      jump\t// out\n        /* \"nftmarket.sol\":1314:1484  function SellNft(uint tokenId) public  {... */\n    tag_112:\n        /* \"nftmarket.sol\":1386:1402  ownerOf(tokenId) */\n      tag_216\n        /* \"nftmarket.sol\":1394:1401  tokenId */\n      dup2\n        /* \"nftmarket.sol\":1386:1393  ownerOf */\n      tag_84\n        /* \"nftmarket.sol\":1386:1402  ownerOf(tokenId) */\n      jump\t// in\n    tag_216:\n        /* \"nftmarket.sol\":1372:1402  msg.sender == ownerOf(tokenId) */\n      0xffffffffffffffffffffffffffffffffffffffff\n      and\n        /* \"nftmarket.sol\":1372:1382  msg.sender */\n      caller\n        /* \"nftmarket.sol\":1372:1402  msg.sender == ownerOf(tokenId) */\n      0xffffffffffffffffffffffffffffffffffffffff\n      and\n      eq\n        /* \"nftmarket.sol\":1364:1433  require(msg.sender == ownerOf(tokenId), \"Your are Authorize to sell\") */\n      tag_217\n      jumpi\n      mload(0x40)\n      0x08c379a000000000000000000000000000000000000000000000000000000000\n      dup2\n      mstore\n      0x04\n      add\n      tag_218\n      swap1\n      tag_219\n      jump\t// in\n    tag_218:\n      mload(0x40)\n      dup1\n      swap2\n      sub\n      swap1\n      revert\n    tag_217:\n        /* \"nftmarket.sol\":1472:1476  true */\n      0x01\n        /* \"nftmarket.sol\":1444:1450  isSell */\n      0x08\n        /* \"nftmarket.sol\":1444:1462  isSell[msg.sender] */\n      0x00\n        /* \"nftmarket.sol\":1451:1461  msg.sender */\n      caller\n        /* \"nftmarket.sol\":1444:1462  isSell[msg.sender] */\n      0xffffffffffffffffffffffffffffffffffffffff\n      and\n      0xffffffffffffffffffffffffffffffffffffffff\n      and\n      dup2\n      mstore\n      0x20\n      add\n      swap1\n      dup2\n      mstore\n      0x20\n      add\n      0x00\n      keccak256\n        /* \"nftmarket.sol\":1444:1471  isSell[msg.sender][tokenId] */\n      0x00\n        /* \"nftmarket.sol\":1463:1470  tokenId */\n      dup4\n        /* \"nftmarket.sol\":1444:1471  isSell[msg.sender][tokenId] */\n      dup2\n      mstore\n      0x20\n      add\n      swap1\n      dup2\n      mstore\n      0x20\n      add\n      0x00\n      keccak256\n      0x00\n        /* \"nftmarket.sol\":1444:1476  isSell[msg.sender][tokenId]=true */\n      0x0100\n      exp\n      dup2\n      sload\n      dup2\n      0xff\n      mul\n      not\n      and\n      swap1\n      dup4\n      iszero\n      iszero\n      mul\n      or\n      swap1\n      sstore\n      pop\n        /* \"nftmarket.sol\":1314:1484  function SellNft(uint tokenId) public  {... */\n      pop\n      jump\t// out\n        /* \"@openzeppelin/contracts/token/ERC721/ERC721.sol\":4985:5193  function safeTransferFrom(address from, address to, uint256 tokenId, bytes memory data) public virtual {... */\n    tag_117:\n        /* \"@openzeppelin/contracts/token/ERC721/ERC721.sol\":5098:5129  transferFrom(from, to, tokenId) */\n      tag_221\n        /* \"@openzeppelin/contracts/token/ERC721/ERC721.sol\":5111:5115  from */\n      dup5\n        /* \"@openzeppelin/contracts/token/ERC721/ERC721.sol\":5117:5119  to */\n      dup5\n        /* \"@openzeppelin/contracts/token/ERC721/ERC721.sol\":5121:5128  tokenId */\n      dup5\n        /* \"@openzeppelin/contracts/token/ERC721/ERC721.sol\":5098:5110  transferFrom */\n      tag_54\n        /* \"@openzeppelin/contracts/token/ERC721/ERC721.sol\":5098:5129  transferFrom(from, to, tokenId) */\n      jump\t// in\n    tag_221:\n        /* \"@openzeppelin/contracts/token/ERC721/ERC721.sol\":5139:5186  _checkOnERC721Received(from, to, tokenId, data) */\n      tag_222\n        /* \"@openzeppelin/contracts/token/ERC721/ERC721.sol\":5162:5166  from */\n      dup5\n        /* \"@openzeppelin/contracts/token/ERC721/ERC721.sol\":5168:5170  to */\n      dup5\n        /* \"@openzeppelin/contracts/token/ERC721/ERC721.sol\":5172:5179  tokenId */\n      dup5\n        /* \"@openzeppelin/contracts/token/ERC721/ERC721.sol\":5181:5185  data */\n      dup5\n        /* \"@openzeppelin/contracts/token/ERC721/ERC721.sol\":5139:5161  _checkOnERC721Received */\n      tag_223\n        /* \"@openzeppelin/contracts/token/ERC721/ERC721.sol\":5139:5186  _checkOnERC721Received(from, to, tokenId, data) */\n      jump\t// in\n    tag_222:\n        /* \"@openzeppelin/contracts/token/ERC721/ERC721.sol\":4985:5193  function safeTransferFrom(address from, address to, uint256 tokenId, bytes memory data) public virtual {... */\n      pop\n      pop\n      pop\n      pop\n      jump\t// out\n        /* \"@openzeppelin/contracts/token/ERC721/extensions/ERC721URIStorage.sol\":1210:1803  function tokenURI(uint256 tokenId) public view virtual override returns (string memory) {... */\n    tag_121:\n        /* \"@openzeppelin/contracts/token/ERC721/extensions/ERC721URIStorage.sol\":1283:1296  string memory */\n      0x60\n        /* \"@openzeppelin/contracts/token/ERC721/extensions/ERC721URIStorage.sol\":1308:1330  _requireOwned(tokenId) */\n      tag_225\n        /* \"@openzeppelin/contracts/token/ERC721/extensions/ERC721URIStorage.sol\":1322:1329  tokenId */\n      dup3\n        /* \"@openzeppelin/contracts/token/ERC721/extensions/ERC721URIStorage.sol\":1308:1321  _requireOwned */\n      tag_146\n        /* \"@openzeppelin/contracts/token/ERC721/extensions/ERC721URIStorage.sol\":1308:1330  _requireOwned(tokenId) */\n      jump\t// in\n    tag_225:\n      pop\n        /* \"@openzeppelin/contracts/token/ERC721/extensions/ERC721URIStorage.sol\":1341:1364  string memory _tokenURI */\n      0x00\n        /* \"@openzeppelin/contracts/token/ERC721/extensions/ERC721URIStorage.sol\":1367:1377  _tokenURIs */\n      0x06\n        /* \"@openzeppelin/contracts/token/ERC721/extensions/ERC721URIStorage.sol\":1367:1386  _tokenURIs[tokenId] */\n      0x00\n        /* \"@openzeppelin/contracts/token/ERC721/extensions/ERC721URIStorage.sol\":1378:1385  tokenId */\n      dup5\n        /* \"@openzeppelin/contracts/token/ERC721/extensions/ERC721URIStorage.sol\":1367:1386  _tokenURIs[tokenId] */\n      dup2\n      mstore\n      0x20\n      add\n      swap1\n      dup2\n      mstore\n      0x20\n      add\n      0x00\n      keccak256\n        /* \"@openzeppelin/contracts/token/ERC721/extensions/ERC721URIStorage.sol\":1341:1386  string memory _tokenURI = _tokenURIs[tokenId] */\n      dup1\n      sload\n      tag_226\n      swap1\n      tag_139\n      jump\t// in\n    tag_226:\n      dup1\n      0x1f\n      add\n      0x20\n      dup1\n      swap2\n      div\n      mul\n      0x20\n      add\n      mload(0x40)\n      swap1\n      dup2\n      add\n      0x40\n      mstore\n      dup1\n      swap3\n      swap2\n      swap1\n      dup2\n      dup2\n      mstore\n      0x20\n      add\n      dup3\n      dup1\n      sload\n      tag_227\n      swap1\n      tag_139\n      jump\t// in\n    tag_227:\n      dup1\n      iszero\n      tag_228\n      jumpi\n      dup1\n      0x1f\n      lt\n      tag_229\n      jumpi\n      0x0100\n      dup1\n      dup4\n      sload\n      div\n      mul\n      dup4\n      mstore\n      swap2\n      0x20\n      add\n      swap2\n      jump(tag_228)\n    tag_229:\n      dup3\n      add\n      swap2\n      swap1\n      0x00\n      mstore\n      keccak256(0x00, 0x20)\n      swap1\n    tag_230:\n      dup2\n      sload\n      dup2\n      mstore\n      swap1\n      0x01\n      add\n      swap1\n      0x20\n      add\n      dup1\n      dup4\n      gt\n      tag_230\n      jumpi\n      dup3\n      swap1\n      sub\n      0x1f\n      and\n      dup3\n      add\n      swap2\n    tag_228:\n      pop\n      pop\n      pop\n      pop\n      pop\n      swap1\n      pop\n        /* \"@openzeppelin/contracts/token/ERC721/extensions/ERC721URIStorage.sol\":1396:1414  string memory base */\n      0x00\n        /* \"@openzeppelin/contracts/token/ERC721/extensions/ERC721URIStorage.sol\":1417:1427  _baseURI() */\n      tag_231\n        /* \"@openzeppelin/contracts/token/ERC721/extensions/ERC721URIStorage.sol\":1417:1425  _baseURI */\n      tag_232\n        /* \"@openzeppelin/contracts/token/ERC721/extensions/ERC721URIStorage.sol\":1417:1427  _baseURI() */\n      jump\t// in\n    tag_231:\n        /* \"@openzeppelin/contracts/token/ERC721/extensions/ERC721URIStorage.sol\":1396:1427  string memory base = _baseURI() */\n      swap1\n      pop\n        /* \"@openzeppelin/contracts/token/ERC721/extensions/ERC721URIStorage.sol\":1522:1523  0 */\n      0x00\n        /* \"@openzeppelin/contracts/token/ERC721/extensions/ERC721URIStorage.sol\":1506:1510  base */\n      dup2\n        /* \"@openzeppelin/contracts/token/ERC721/extensions/ERC721URIStorage.sol\":1500:1518  bytes(base).length */\n      mload\n        /* \"@openzeppelin/contracts/token/ERC721/extensions/ERC721URIStorage.sol\":1500:1523  bytes(base).length == 0 */\n      sub\n        /* \"@openzeppelin/contracts/token/ERC721/extensions/ERC721URIStorage.sol\":1496:1566  if (bytes(base).length == 0) {... */\n      tag_233\n      jumpi\n        /* \"@openzeppelin/contracts/token/ERC721/extensions/ERC721URIStorage.sol\":1546:1555  _tokenURI */\n      dup2\n        /* \"@openzeppelin/contracts/token/ERC721/extensions/ERC721URIStorage.sol\":1539:1555  return _tokenURI */\n      swap3\n      pop\n      pop\n      pop\n      jump(tag_224)\n        /* \"@openzeppelin/contracts/token/ERC721/extensions/ERC721URIStorage.sol\":1496:1566  if (bytes(base).length == 0) {... */\n    tag_233:\n        /* \"@openzeppelin/contracts/token/ERC721/extensions/ERC721URIStorage.sol\":1691:1692  0 */\n      0x00\n        /* \"@openzeppelin/contracts/token/ERC721/extensions/ERC721URIStorage.sol\":1671:1680  _tokenURI */\n      dup3\n        /* \"@openzeppelin/contracts/token/ERC721/extensions/ERC721URIStorage.sol\":1665:1688  bytes(_tokenURI).length */\n      mload\n        /* \"@openzeppelin/contracts/token/ERC721/extensions/ERC721URIStorage.sol\":1665:1692  bytes(_tokenURI).length > 0 */\n      gt\n        /* \"@openzeppelin/contracts/token/ERC721/extensions/ERC721URIStorage.sol\":1661:1756  if (bytes(_tokenURI).length > 0) {... */\n      iszero\n      tag_234\n      jumpi\n        /* \"@openzeppelin/contracts/token/ERC721/extensions/ERC721URIStorage.sol\":1729:1733  base */\n      dup1\n        /* \"@openzeppelin/contracts/token/ERC721/extensions/ERC721URIStorage.sol\":1735:1744  _tokenURI */\n      dup3\n        /* \"@openzeppelin/contracts/token/ERC721/extensions/ERC721URIStorage.sol\":1715:1745  string.concat(base, _tokenURI) */\n      add(0x20, mload(0x40))\n      tag_235\n      swap3\n      swap2\n      swap1\n      tag_236\n      jump\t// in\n    tag_235:\n      mload(0x40)\n      0x20\n      dup2\n      dup4\n      sub\n      sub\n      dup2\n      mstore\n      swap1\n      0x40\n      mstore\n        /* \"@openzeppelin/contracts/token/ERC721/extensions/ERC721URIStorage.sol\":1708:1745  return string.concat(base, _tokenURI) */\n      swap3\n      pop\n      pop\n      pop\n      jump(tag_224)\n        /* \"@openzeppelin/contracts/token/ERC721/extensions/ERC721URIStorage.sol\":1661:1756  if (bytes(_tokenURI).length > 0) {... */\n    tag_234:\n        /* \"@openzeppelin/contracts/token/ERC721/extensions/ERC721URIStorage.sol\":1773:1796  super.tokenURI(tokenId) */\n      tag_237\n        /* \"@openzeppelin/contracts/token/ERC721/extensions/ERC721URIStorage.sol\":1788:1795  tokenId */\n      dup5\n        /* \"@openzeppelin/contracts/token/ERC721/extensions/ERC721URIStorage.sol\":1773:1787  super.tokenURI */\n      tag_238\n        /* \"@openzeppelin/contracts/token/ERC721/extensions/ERC721URIStorage.sol\":1773:1796  super.tokenURI(tokenId) */\n      jump\t// in\n    tag_237:\n        /* \"@openzeppelin/contracts/token/ERC721/extensions/ERC721URIStorage.sol\":1766:1796  return super.tokenURI(tokenId) */\n      swap3\n      pop\n      pop\n      pop\n        /* \"@openzeppelin/contracts/token/ERC721/extensions/ERC721URIStorage.sol\":1210:1803  function tokenURI(uint256 tokenId) public view virtual override returns (string memory) {... */\n    tag_224:\n      swap2\n      swap1\n      pop\n      jump\t// out\n        /* \"nftmarket.sol\":528:554  string public baseTokenURI */\n    tag_125:\n      0x09\n      dup1\n      sload\n      tag_239\n      swap1\n      tag_139\n      jump\t// in\n    tag_239:\n      dup1\n      0x1f\n      add\n      0x20\n      dup1\n      swap2\n      div\n      mul\n      0x20\n      add\n      mload(0x40)\n      swap1\n      dup2\n      add\n      0x40\n      mstore\n      dup1\n      swap3\n      swap2\n      swap1\n      dup2\n      dup2\n      mstore\n      0x20\n      add\n      dup3\n      dup1\n      sload\n      tag_240\n      swap1\n      tag_139\n      jump\t// in\n    tag_240:\n      dup1\n      iszero\n      tag_241\n      jumpi\n      dup1\n      0x1f\n      lt\n      tag_242\n      jumpi\n      0x0100\n      dup1\n      dup4\n      sload\n      div\n      mul\n      dup4\n      mstore\n      swap2\n      0x20\n      add\n      swap2\n      jump(tag_241)\n    tag_242:\n      dup3\n      add\n      swap2\n      swap1\n      0x00\n      mstore\n      keccak256(0x00, 0x20)\n      swap1\n    tag_243:\n      dup2\n      sload\n      dup2\n      mstore\n      swap1\n      0x01\n      add\n      swap1\n      0x20\n      add\n      dup1\n      dup4\n      gt\n      tag_243\n      jumpi\n      dup3\n      swap1\n      sub\n      0x1f\n      and\n      dup3\n      add\n      swap2\n    tag_241:\n      pop\n      pop\n      pop\n      pop\n      pop\n      dup2\n      jump\t// out\n        /* \"@openzeppelin/contracts/token/ERC721/ERC721.sol\":3928:4081  function isApprovedForAll(address owner, address operator) public view virtual returns (bool) {... */\n    tag_131:\n        /* \"@openzeppelin/contracts/token/ERC721/ERC721.sol\":4016:4020  bool */\n      0x00\n        /* \"@openzeppelin/contracts/token/ERC721/ERC721.sol\":4039:4057  _operatorApprovals */\n      0x05\n        /* \"@openzeppelin/contracts/token/ERC721/ERC721.sol\":4039:4064  _operatorApprovals[owner] */\n      0x00\n        /* \"@openzeppelin/contracts/token/ERC721/ERC721.sol\":4058:4063  owner */\n      dup5\n        /* \"@openzeppelin/contracts/token/ERC721/ERC721.sol\":4039:4064  _operatorApprovals[owner] */\n      0xffffffffffffffffffffffffffffffffffffffff\n      and\n      0xffffffffffffffffffffffffffffffffffffffff\n      and\n      dup2\n      mstore\n      0x20\n      add\n      swap1\n      dup2\n      mstore\n      0x20\n      add\n      0x00\n      keccak256\n        /* \"@openzeppelin/contracts/token/ERC721/ERC721.sol\":4039:4074  _operatorApprovals[owner][operator] */\n      0x00\n        /* \"@openzeppelin/contracts/token/ERC721/ERC721.sol\":4065:4073  operator */\n      dup4\n        /* \"@openzeppelin/contracts/token/ERC721/ERC721.sol\":4039:4074  _operatorApprovals[owner][operator] */\n      0xffffffffffffffffffffffffffffffffffffffff\n      and\n      0xffffffffffffffffffffffffffffffffffffffff\n      and\n      dup2\n      mstore\n      0x20\n      add\n      swap1\n      dup2\n      mstore\n      0x20\n      add\n      0x00\n      keccak256\n      0x00\n      swap1\n      sload\n      swap1\n      0x0100\n      exp\n      swap1\n      div\n      0xff\n      and\n        /* \"@openzeppelin/contracts/token/ERC721/ERC721.sol\":4032:4074  return _operatorApprovals[owner][operator] */\n      swap1\n      pop\n        /* \"@openzeppelin/contracts/token/ERC721/ERC721.sol\":3928:4081  function isApprovedForAll(address owner, address operator) public view virtual returns (bool) {... */\n      swap3\n      swap2\n      pop\n      pop\n      jump\t// out\n        /* \"@openzeppelin/contracts/token/ERC721/ERC721.sol\":1561:1861  function supportsInterface(bytes4 interfaceId) public view virtual override(ERC165, IERC165) returns (bool) {... */\n    tag_136:\n        /* \"@openzeppelin/contracts/token/ERC721/ERC721.sol\":1663:1667  bool */\n      0x00\n        /* \"@openzeppelin/contracts/token/ERC721/ERC721.sol\":1713:1738  type(IERC721).interfaceId */\n      0x80ac58cd00000000000000000000000000000000000000000000000000000000\n        /* \"@openzeppelin/contracts/token/ERC721/ERC721.sol\":1698:1738  interfaceId == type(IERC721).interfaceId */\n      not(0xffffffffffffffffffffffffffffffffffffffffffffffffffffffff)\n      and\n        /* \"@openzeppelin/contracts/token/ERC721/ERC721.sol\":1698:1709  interfaceId */\n      dup3\n        /* \"@openzeppelin/contracts/token/ERC721/ERC721.sol\":1698:1738  interfaceId == type(IERC721).interfaceId */\n      not(0xffffffffffffffffffffffffffffffffffffffffffffffffffffffff)\n      and\n      eq\n        /* \"@openzeppelin/contracts/token/ERC721/ERC721.sol\":1698:1802  interfaceId == type(IERC721).interfaceId ||... */\n      dup1\n      tag_246\n      jumpi\n      pop\n        /* \"@openzeppelin/contracts/token/ERC721/ERC721.sol\":1769:1802  type(IERC721Metadata).interfaceId */\n      0x5b5e139f00000000000000000000000000000000000000000000000000000000\n        /* \"@openzeppelin/contracts/token/ERC721/ERC721.sol\":1754:1802  interfaceId == type(IERC721Metadata).interfaceId */\n      not(0xffffffffffffffffffffffffffffffffffffffffffffffffffffffff)\n      and\n        /* \"@openzeppelin/contracts/token/ERC721/ERC721.sol\":1754:1765  interfaceId */\n      dup3\n        /* \"@openzeppelin/contracts/token/ERC721/ERC721.sol\":1754:1802  interfaceId == type(IERC721Metadata).interfaceId */\n      not(0xffffffffffffffffffffffffffffffffffffffffffffffffffffffff)\n      and\n      eq\n        /* \"@openzeppelin/contracts/token/ERC721/ERC721.sol\":1698:1802  interfaceId == type(IERC721).interfaceId ||... */\n    tag_246:\n        /* \"@openzeppelin/contracts/token/ERC721/ERC721.sol\":1698:1854  interfaceId == type(IERC721).interfaceId ||... */\n      dup1\n      tag_247\n      jumpi\n      pop\n        /* \"@openzeppelin/contracts/token/ERC721/ERC721.sol\":1818:1854  super.supportsInterface(interfaceId) */\n      tag_248\n        /* \"@openzeppelin/contracts/token/ERC721/ERC721.sol\":1842:1853  interfaceId */\n      dup3\n        /* \"@openzeppelin/contracts/token/ERC721/ERC721.sol\":1818:1841  super.supportsInterface */\n      tag_249\n        /* \"@openzeppelin/contracts/token/ERC721/ERC721.sol\":1818:1854  super.supportsInterface(interfaceId) */\n      jump\t// in\n    tag_248:\n        /* \"@openzeppelin/contracts/token/ERC721/ERC721.sol\":1698:1854  interfaceId == type(IERC721).interfaceId ||... */\n    tag_247:\n        /* \"@openzeppelin/contracts/token/ERC721/ERC721.sol\":1679:1854  return... */\n      swap1\n      pop\n        /* \"@openzeppelin/contracts/token/ERC721/ERC721.sol\":1561:1861  function supportsInterface(bytes4 interfaceId) public view virtual override(ERC165, IERC165) returns (bool) {... */\n      swap2\n      swap1\n      pop\n      jump\t// out\n        /* \"@openzeppelin/contracts/token/ERC721/ERC721.sol\":16138:16379  function _requireOwned(uint256 tokenId) internal view returns (address) {... */\n    tag_146:\n        /* \"@openzeppelin/contracts/token/ERC721/ERC721.sol\":16201:16208  address */\n      0x00\n        /* \"@openzeppelin/contracts/token/ERC721/ERC721.sol\":16220:16233  address owner */\n      dup1\n        /* \"@openzeppelin/contracts/token/ERC721/ERC721.sol\":16236:16253  _ownerOf(tokenId) */\n      tag_251\n        /* \"@openzeppelin/contracts/token/ERC721/ERC721.sol\":16245:16252  tokenId */\n      dup4\n        /* \"@openzeppelin/contracts/token/ERC721/ERC721.sol\":16236:16244  _ownerOf */\n      tag_252\n        /* \"@openzeppelin/contracts/token/ERC721/ERC721.sol\":16236:16253  _ownerOf(tokenId) */\n      jump\t// in\n    tag_251:\n        /* \"@openzeppelin/contracts/token/ERC721/ERC721.sol\":16220:16253  address owner = _ownerOf(tokenId) */\n      swap1\n      pop\n        /* \"@openzeppelin/contracts/token/ERC721/ERC721.sol\":16284:16285  0 */\n      0x00\n        /* \"@openzeppelin/contracts/token/ERC721/ERC721.sol\":16267:16286  owner == address(0) */\n      0xffffffffffffffffffffffffffffffffffffffff\n      and\n        /* \"@openzeppelin/contracts/token/ERC721/ERC721.sol\":16267:16272  owner */\n      dup2\n        /* \"@openzeppelin/contracts/token/ERC721/ERC721.sol\":16267:16286  owner == address(0) */\n      0xffffffffffffffffffffffffffffffffffffffff\n      and\n      sub\n        /* \"@openzeppelin/contracts/token/ERC721/ERC721.sol\":16263:16351  if (owner == address(0)) {... */\n      tag_253\n      jumpi\n        /* \"@openzeppelin/contracts/token/ERC721/ERC721.sol\":16332:16339  tokenId */\n      dup3\n        /* \"@openzeppelin/contracts/token/ERC721/ERC721.sol\":16309:16340  ERC721NonexistentToken(tokenId) */\n      mload(0x40)\n      0x7e27328900000000000000000000000000000000000000000000000000000000\n      dup2\n      mstore\n      0x04\n      add\n      tag_254\n      swap2\n      swap1\n      tag_92\n      jump\t// in\n    tag_254:\n      mload(0x40)\n      dup1\n      swap2\n      sub\n      swap1\n      revert\n        /* \"@openzeppelin/contracts/token/ERC721/ERC721.sol\":16263:16351  if (owner == address(0)) {... */\n    tag_253:\n        /* \"@openzeppelin/contracts/token/ERC721/ERC721.sol\":16367:16372  owner */\n      dup1\n        /* \"@openzeppelin/contracts/token/ERC721/ERC721.sol\":16360:16372  return owner */\n      swap2\n      pop\n      pop\n        /* \"@openzeppelin/contracts/token/ERC721/ERC721.sol\":16138:16379  function _requireOwned(uint256 tokenId) internal view returns (address) {... */\n      swap2\n      swap1\n      pop\n      jump\t// out\n        /* \"@openzeppelin/contracts/token/ERC721/ERC721.sol\":5938:6065  function _getApproved(uint256 tokenId) internal view virtual returns (address) {... */\n    tag_148:\n        /* \"@openzeppelin/contracts/token/ERC721/ERC721.sol\":6008:6015  address */\n      0x00\n        /* \"@openzeppelin/contracts/token/ERC721/ERC721.sol\":6034:6049  _tokenApprovals */\n      0x04\n        /* \"@openzeppelin/contracts/token/ERC721/ERC721.sol\":6034:6058  _tokenApprovals[tokenId] */\n      0x00\n        /* \"@openzeppelin/contracts/token/ERC721/ERC721.sol\":6050:6057  tokenId */\n      dup4\n        /* \"@openzeppelin/contracts/token/ERC721/ERC721.sol\":6034:6058  _tokenApprovals[tokenId] */\n      dup2\n      mstore\n      0x20\n      add\n      swap1\n      dup2\n      mstore\n      0x20\n      add\n      0x00\n      keccak256\n      0x00\n      swap1\n      sload\n      swap1\n      0x0100\n      exp\n      swap1\n      div\n      0xffffffffffffffffffffffffffffffffffffffff\n      and\n        /* \"@openzeppelin/contracts/token/ERC721/ERC721.sol\":6027:6058  return _tokenApprovals[tokenId] */\n      swap1\n      pop\n        /* \"@openzeppelin/contracts/token/ERC721/ERC721.sol\":5938:6065  function _getApproved(uint256 tokenId) internal view virtual returns (address) {... */\n      swap2\n      swap1\n      pop\n      jump\t// out\n        /* \"@openzeppelin/contracts/utils/Context.sol\":656:752  function _msgSender() internal view virtual returns (address) {... */\n    tag_152:\n        /* \"@openzeppelin/contracts/utils/Context.sol\":709:716  address */\n      0x00\n        /* \"@openzeppelin/contracts/utils/Context.sol\":735:745  msg.sender */\n      caller\n        /* \"@openzeppelin/contracts/utils/Context.sol\":728:745  return msg.sender */\n      swap1\n      pop\n        /* \"@openzeppelin/contracts/utils/Context.sol\":656:752  function _msgSender() internal view virtual returns (address) {... */\n      swap1\n      jump\t// out\n        /* \"@openzeppelin/contracts/token/ERC721/ERC721.sol\":14418:14538  function _approve(address to, uint256 tokenId, address auth) internal {... */\n    tag_153:\n        /* \"@openzeppelin/contracts/token/ERC721/ERC721.sol\":14498:14531  _approve(to, tokenId, auth, true) */\n      tag_258\n        /* \"@openzeppelin/contracts/token/ERC721/ERC721.sol\":14507:14509  to */\n      dup4\n        /* \"@openzeppelin/contracts/token/ERC721/ERC721.sol\":14511:14518  tokenId */\n      dup4\n        /* \"@openzeppelin/contracts/token/ERC721/ERC721.sol\":14520:14524  auth */\n      dup4\n        /* \"@openzeppelin/contracts/token/ERC721/ERC721.sol\":14526:14530  true */\n      0x01\n        /* \"@openzeppelin/contracts/token/ERC721/ERC721.sol\":14498:14506  _approve */\n      tag_259\n        /* \"@openzeppelin/contracts/token/ERC721/ERC721.sol\":14498:14531  _approve(to, tokenId, auth, true) */\n      jump\t// in\n    tag_258:\n        /* \"@openzeppelin/contracts/token/ERC721/ERC721.sol\":14418:14538  function _approve(address to, uint256 tokenId, address auth) internal {... */\n      pop\n      pop\n      pop\n      jump\t// out\n        /* \"@openzeppelin/contracts/token/ERC721/ERC721.sol\":8838:9633  function _update(address to, uint256 tokenId, address auth) internal virtual returns (address) {... */\n    tag_159:\n        /* \"@openzeppelin/contracts/token/ERC721/ERC721.sol\":8924:8931  address */\n      0x00\n        /* \"@openzeppelin/contracts/token/ERC721/ERC721.sol\":8943:8955  address from */\n      dup1\n        /* \"@openzeppelin/contracts/token/ERC721/ERC721.sol\":8958:8975  _ownerOf(tokenId) */\n      tag_261\n        /* \"@openzeppelin/contracts/token/ERC721/ERC721.sol\":8967:8974  tokenId */\n      dup5\n        /* \"@openzeppelin/contracts/token/ERC721/ERC721.sol\":8958:8966  _ownerOf */\n      tag_252\n        /* \"@openzeppelin/contracts/token/ERC721/ERC721.sol\":8958:8975  _ownerOf(tokenId) */\n      jump\t// in\n    tag_261:\n        /* \"@openzeppelin/contracts/token/ERC721/ERC721.sol\":8943:8975  address from = _ownerOf(tokenId) */\n      swap1\n      pop\n        /* \"@openzeppelin/contracts/token/ERC721/ERC721.sol\":9051:9052  0 */\n      0x00\n        /* \"@openzeppelin/contracts/token/ERC721/ERC721.sol\":9035:9053  auth != address(0) */\n      0xffffffffffffffffffffffffffffffffffffffff\n      and\n        /* \"@openzeppelin/contracts/token/ERC721/ERC721.sol\":9035:9039  auth */\n      dup4\n        /* \"@openzeppelin/contracts/token/ERC721/ERC721.sol\":9035:9053  auth != address(0) */\n      0xffffffffffffffffffffffffffffffffffffffff\n      and\n      eq\n        /* \"@openzeppelin/contracts/token/ERC721/ERC721.sol\":9031:9117  if (auth != address(0)) {... */\n      tag_262\n      jumpi\n        /* \"@openzeppelin/contracts/token/ERC721/ERC721.sol\":9069:9106  _checkAuthorized(from, auth, tokenId) */\n      tag_263\n        /* \"@openzeppelin/contracts/token/ERC721/ERC721.sol\":9086:9090  from */\n      dup2\n        /* \"@openzeppelin/contracts/token/ERC721/ERC721.sol\":9092:9096  auth */\n      dup5\n        /* \"@openzeppelin/contracts/token/ERC721/ERC721.sol\":9098:9105  tokenId */\n      dup7\n        /* \"@openzeppelin/contracts/token/ERC721/ERC721.sol\":9069:9085  _checkAuthorized */\n      tag_264\n        /* \"@openzeppelin/contracts/token/ERC721/ERC721.sol\":9069:9106  _checkAuthorized(from, auth, tokenId) */\n      jump\t// in\n    tag_263:\n        /* \"@openzeppelin/contracts/token/ERC721/ERC721.sol\":9031:9117  if (auth != address(0)) {... */\n    tag_262:\n        /* \"@openzeppelin/contracts/token/ERC721/ERC721.sol\":9177:9178  0 */\n      0x00\n        /* \"@openzeppelin/contracts/token/ERC721/ERC721.sol\":9161:9179  from != address(0) */\n      0xffffffffffffffffffffffffffffffffffffffff\n      and\n        /* \"@openzeppelin/contracts/token/ERC721/ERC721.sol\":9161:9165  from */\n      dup2\n        /* \"@openzeppelin/contracts/token/ERC721/ERC721.sol\":9161:9179  from != address(0) */\n      0xffffffffffffffffffffffffffffffffffffffff\n      and\n      eq\n        /* \"@openzeppelin/contracts/token/ERC721/ERC721.sol\":9157:9413  if (from != address(0)) {... */\n      tag_265\n      jumpi\n        /* \"@openzeppelin/contracts/token/ERC721/ERC721.sol\":9277:9325  _approve(address(0), tokenId, address(0), false) */\n      tag_266\n        /* \"@openzeppelin/contracts/token/ERC721/ERC721.sol\":9294:9295  0 */\n      0x00\n        /* \"@openzeppelin/contracts/token/ERC721/ERC721.sol\":9298:9305  tokenId */\n      dup6\n        /* \"@openzeppelin/contracts/token/ERC721/ERC721.sol\":9315:9316  0 */\n      0x00\n        /* \"@openzeppelin/contracts/token/ERC721/ERC721.sol\":9319:9324  false */\n      dup1\n        /* \"@openzeppelin/contracts/token/ERC721/ERC721.sol\":9277:9285  _approve */\n      tag_259\n        /* \"@openzeppelin/contracts/token/ERC721/ERC721.sol\":9277:9325  _approve(address(0), tokenId, address(0), false) */\n      jump\t// in\n    tag_266:\n        /* \"@openzeppelin/contracts/token/ERC721/ERC721.sol\":9387:9388  1 */\n      0x01\n        /* \"@openzeppelin/contracts/token/ERC721/ERC721.sol\":9368:9377  _balances */\n      0x03\n        /* \"@openzeppelin/contracts/token/ERC721/ERC721.sol\":9368:9383  _balances[from] */\n      0x00\n        /* \"@openzeppelin/contracts/token/ERC721/ERC721.sol\":9378:9382  from */\n      dup4\n        /* \"@openzeppelin/contracts/token/ERC721/ERC721.sol\":9368:9383  _balances[from] */\n      0xffffffffffffffffffffffffffffffffffffffff\n      and\n      0xffffffffffffffffffffffffffffffffffffffff\n      and\n      dup2\n      mstore\n      0x20\n      add\n      swap1\n      dup2\n      mstore\n      0x20\n      add\n      0x00\n      keccak256\n      0x00\n        /* \"@openzeppelin/contracts/token/ERC721/ERC721.sol\":9368:9388  _balances[from] -= 1 */\n      dup3\n      dup3\n      sload\n      sub\n      swap3\n      pop\n      pop\n      dup2\n      swap1\n      sstore\n      pop\n        /* \"@openzeppelin/contracts/token/ERC721/ERC721.sol\":9157:9413  if (from != address(0)) {... */\n    tag_265:\n        /* \"@openzeppelin/contracts/token/ERC721/ERC721.sol\":9441:9442  0 */\n      0x00\n        /* \"@openzeppelin/contracts/token/ERC721/ERC721.sol\":9427:9443  to != address(0) */\n      0xffffffffffffffffffffffffffffffffffffffff\n      and\n        /* \"@openzeppelin/contracts/token/ERC721/ERC721.sol\":9427:9429  to */\n      dup6\n        /* \"@openzeppelin/contracts/token/ERC721/ERC721.sol\":9427:9443  to != address(0) */\n      0xffffffffffffffffffffffffffffffffffffffff\n      and\n      eq\n        /* \"@openzeppelin/contracts/token/ERC721/ERC721.sol\":9423:9530  if (to != address(0)) {... */\n      tag_267\n      jumpi\n        /* \"@openzeppelin/contracts/token/ERC721/ERC721.sol\":9504:9505  1 */\n      0x01\n        /* \"@openzeppelin/contracts/token/ERC721/ERC721.sol\":9487:9496  _balances */\n      0x03\n        /* \"@openzeppelin/contracts/token/ERC721/ERC721.sol\":9487:9500  _balances[to] */\n      0x00\n        /* \"@openzeppelin/contracts/token/ERC721/ERC721.sol\":9497:9499  to */\n      dup8\n        /* \"@openzeppelin/contracts/token/ERC721/ERC721.sol\":9487:9500  _balances[to] */\n      0xffffffffffffffffffffffffffffffffffffffff\n      and\n      0xffffffffffffffffffffffffffffffffffffffff\n      and\n      dup2\n      mstore\n      0x20\n      add\n      swap1\n      dup2\n      mstore\n      0x20\n      add\n      0x00\n      keccak256\n      0x00\n        /* \"@openzeppelin/contracts/token/ERC721/ERC721.sol\":9487:9505  _balances[to] += 1 */\n      dup3\n      dup3\n      sload\n      add\n      swap3\n      pop\n      pop\n      dup2\n      swap1\n      sstore\n      pop\n        /* \"@openzeppelin/contracts/token/ERC721/ERC721.sol\":9423:9530  if (to != address(0)) {... */\n    tag_267:\n        /* \"@openzeppelin/contracts/token/ERC721/ERC721.sol\":9559:9561  to */\n      dup5\n        /* \"@openzeppelin/contracts/token/ERC721/ERC721.sol\":9540:9547  _owners */\n      0x02\n        /* \"@openzeppelin/contracts/token/ERC721/ERC721.sol\":9540:9556  _owners[tokenId] */\n      0x00\n        /* \"@openzeppelin/contracts/token/ERC721/ERC721.sol\":9548:9555  tokenId */\n      dup7\n        /* \"@openzeppelin/contracts/token/ERC721/ERC721.sol\":9540:9556  _owners[tokenId] */\n      dup2\n      mstore\n      0x20\n      add\n      swap1\n      dup2\n      mstore\n      0x20\n      add\n      0x00\n      keccak256\n      0x00\n        /* \"@openzeppelin/contracts/token/ERC721/ERC721.sol\":9540:9561  _owners[tokenId] = to */\n      0x0100\n      exp\n      dup2\n      sload\n      dup2\n      0xffffffffffffffffffffffffffffffffffffffff\n      mul\n      not\n      and\n      swap1\n      dup4\n      0xffffffffffffffffffffffffffffffffffffffff\n      and\n      mul\n      or\n      swap1\n      sstore\n      pop\n        /* \"@openzeppelin/contracts/token/ERC721/ERC721.sol\":9596:9603  tokenId */\n      dup4\n        /* \"@openzeppelin/contracts/token/ERC721/ERC721.sol\":9592:9594  to */\n      dup6\n        /* \"@openzeppelin/contracts/token/ERC721/ERC721.sol\":9577:9604  Transfer(from, to, tokenId) */\n      0xffffffffffffffffffffffffffffffffffffffff\n      and\n        /* \"@openzeppelin/contracts/token/ERC721/ERC721.sol\":9586:9590  from */\n      dup3\n        /* \"@openzeppelin/contracts/token/ERC721/ERC721.sol\":9577:9604  Transfer(from, to, tokenId) */\n      0xffffffffffffffffffffffffffffffffffffffff\n      and\n      0xddf252ad1be2c89b69c2b068fc378daa952ba7f163c4a11628f55a4df523b3ef\n      mload(0x40)\n      mload(0x40)\n      dup1\n      swap2\n      sub\n      swap1\n      log4\n        /* \"@openzeppelin/contracts/token/ERC721/ERC721.sol\":9622:9626  from */\n      dup1\n        /* \"@openzeppelin/contracts/token/ERC721/ERC721.sol\":9615:9626  return from */\n      swap2\n      pop\n      pop\n        /* \"@openzeppelin/contracts/token/ERC721/ERC721.sol\":8838:9633  function _update(address to, uint256 tokenId, address auth) internal virtual returns (address) {... */\n      swap4\n      swap3\n      pop\n      pop\n      pop\n      jump\t// out\n        /* \"@openzeppelin/contracts/utils/Counters.sol\":827:939  function current(Counter storage counter) internal view returns (uint256) {... */\n    tag_175:\n        /* \"@openzeppelin/contracts/utils/Counters.sol\":892:899  uint256 */\n      0x00\n        /* \"@openzeppelin/contracts/utils/Counters.sol\":918:925  counter */\n      dup2\n        /* \"@openzeppelin/contracts/utils/Counters.sol\":918:932  counter._value */\n      0x00\n      add\n      sload\n        /* \"@openzeppelin/contracts/utils/Counters.sol\":911:932  return counter._value */\n      swap1\n      pop\n        /* \"@openzeppelin/contracts/utils/Counters.sol\":827:939  function current(Counter storage counter) internal view returns (uint256) {... */\n      swap2\n      swap1\n      pop\n      jump\t// out\n        /* \"@openzeppelin/contracts/token/ERC721/ERC721.sol\":10633:10733  function _safeMint(address to, uint256 tokenId) internal {... */\n    tag_177:\n        /* \"@openzeppelin/contracts/token/ERC721/ERC721.sol\":10700:10726  _safeMint(to, tokenId, \"\") */\n      tag_270\n        /* \"@openzeppelin/contracts/token/ERC721/ERC721.sol\":10710:10712  to */\n      dup3\n        /* \"@openzeppelin/contracts/token/ERC721/ERC721.sol\":10714:10721  tokenId */\n      dup3\n        /* \"@openzeppelin/contracts/token/ERC721/ERC721.sol\":10700:10726  _safeMint(to, tokenId, \"\") */\n      mload(0x40)\n      dup1\n      0x20\n      add\n      0x40\n      mstore\n      dup1\n      0x00\n      dup2\n      mstore\n      pop\n        /* \"@openzeppelin/contracts/token/ERC721/ERC721.sol\":10700:10709  _safeMint */\n      tag_271\n        /* \"@openzeppelin/contracts/token/ERC721/ERC721.sol\":10700:10726  _safeMint(to, tokenId, \"\") */\n      jump\t// in\n    tag_270:\n        /* \"@openzeppelin/contracts/token/ERC721/ERC721.sol\":10633:10733  function _safeMint(address to, uint256 tokenId) internal {... */\n      pop\n      pop\n      jump\t// out\n        /* \"@openzeppelin/contracts/token/ERC721/extensions/ERC721URIStorage.sol\":1922:2089  function _setTokenURI(uint256 tokenId, string memory _tokenURI) internal virtual {... */\n    tag_179:\n        /* \"@openzeppelin/contracts/token/ERC721/extensions/ERC721URIStorage.sol\":2035:2044  _tokenURI */\n      dup1\n        /* \"@openzeppelin/contracts/token/ERC721/extensions/ERC721URIStorage.sol\":2013:2023  _tokenURIs */\n      0x06\n        /* \"@openzeppelin/contracts/token/ERC721/extensions/ERC721URIStorage.sol\":2013:2032  _tokenURIs[tokenId] */\n      0x00\n        /* \"@openzeppelin/contracts/token/ERC721/extensions/ERC721URIStorage.sol\":2024:2031  tokenId */\n      dup5\n        /* \"@openzeppelin/contracts/token/ERC721/extensions/ERC721URIStorage.sol\":2013:2032  _tokenURIs[tokenId] */\n      dup2\n      mstore\n      0x20\n      add\n      swap1\n      dup2\n      mstore\n      0x20\n      add\n      0x00\n      keccak256\n        /* \"@openzeppelin/contracts/token/ERC721/extensions/ERC721URIStorage.sol\":2013:2044  _tokenURIs[tokenId] = _tokenURI */\n      swap1\n      dup2\n      tag_273\n      swap2\n      swap1\n      tag_172\n      jump\t// in\n    tag_273:\n      pop\n        /* \"@openzeppelin/contracts/token/ERC721/extensions/ERC721URIStorage.sol\":2059:2082  MetadataUpdate(tokenId) */\n      0xf8e1a15aba9398e019f0b49df1a4fde98ee17ae345cb5f6b5e2c27f5033e8ce7\n        /* \"@openzeppelin/contracts/token/ERC721/extensions/ERC721URIStorage.sol\":2074:2081  tokenId */\n      dup3\n        /* \"@openzeppelin/contracts/token/ERC721/extensions/ERC721URIStorage.sol\":2059:2082  MetadataUpdate(tokenId) */\n      mload(0x40)\n      tag_274\n      swap2\n      swap1\n      tag_92\n      jump\t// in\n    tag_274:\n      mload(0x40)\n      dup1\n      swap2\n      sub\n      swap1\n      log1\n        /* \"@openzeppelin/contracts/token/ERC721/extensions/ERC721URIStorage.sol\":1922:2089  function _setTokenURI(uint256 tokenId, string memory _tokenURI) internal virtual {... */\n      pop\n      pop\n      jump\t// out\n        /* \"@openzeppelin/contracts/utils/Counters.sol\":945:1068  function increment(Counter storage counter) internal {... */\n    tag_181:\n        /* \"@openzeppelin/contracts/utils/Counters.sol\":1050:1051  1 */\n      0x01\n        /* \"@openzeppelin/contracts/utils/Counters.sol\":1032:1039  counter */\n      dup2\n        /* \"@openzeppelin/contracts/utils/Counters.sol\":1032:1046  counter._value */\n      0x00\n      add\n      0x00\n        /* \"@openzeppelin/contracts/utils/Counters.sol\":1032:1051  counter._value += 1 */\n      dup3\n      dup3\n      sload\n      add\n      swap3\n      pop\n      pop\n      dup2\n      swap1\n      sstore\n      pop\n        /* \"@openzeppelin/contracts/utils/Counters.sol\":945:1068  function increment(Counter storage counter) internal {... */\n      pop\n      jump\t// out\n        /* \"@openzeppelin/contracts/token/ERC721/ERC721.sol\":15591:15903  function _setApprovalForAll(address owner, address operator, bool approved) internal virtual {... */\n    tag_196:\n        /* \"@openzeppelin/contracts/token/ERC721/ERC721.sol\":15718:15719  0 */\n      0x00\n        /* \"@openzeppelin/contracts/token/ERC721/ERC721.sol\":15698:15720  operator == address(0) */\n      0xffffffffffffffffffffffffffffffffffffffff\n      and\n        /* \"@openzeppelin/contracts/token/ERC721/ERC721.sol\":15698:15706  operator */\n      dup3\n        /* \"@openzeppelin/contracts/token/ERC721/ERC721.sol\":15698:15720  operator == address(0) */\n      0xffffffffffffffffffffffffffffffffffffffff\n      and\n      sub\n        /* \"@openzeppelin/contracts/token/ERC721/ERC721.sol\":15694:15785  if (operator == address(0)) {... */\n      tag_277\n      jumpi\n        /* \"@openzeppelin/contracts/token/ERC721/ERC721.sol\":15765:15773  operator */\n      dup2\n        /* \"@openzeppelin/contracts/token/ERC721/ERC721.sol\":15743:15774  ERC721InvalidOperator(operator) */\n      mload(0x40)\n      0x5b08ba1800000000000000000000000000000000000000000000000000000000\n      dup2\n      mstore\n      0x04\n      add\n      tag_278\n      swap2\n      swap1\n      tag_44\n      jump\t// in\n    tag_278:\n      mload(0x40)\n      dup1\n      swap2\n      sub\n      swap1\n      revert\n        /* \"@openzeppelin/contracts/token/ERC721/ERC721.sol\":15694:15785  if (operator == address(0)) {... */\n    tag_277:\n        /* \"@openzeppelin/contracts/token/ERC721/ERC721.sol\":15832:15840  approved */\n      dup1\n        /* \"@openzeppelin/contracts/token/ERC721/ERC721.sol\":15794:15812  _operatorApprovals */\n      0x05\n        /* \"@openzeppelin/contracts/token/ERC721/ERC721.sol\":15794:15819  _operatorApprovals[owner] */\n      0x00\n        /* \"@openzeppelin/contracts/token/ERC721/ERC721.sol\":15813:15818  owner */\n      dup6\n        /* \"@openzeppelin/contracts/token/ERC721/ERC721.sol\":15794:15819  _operatorApprovals[owner] */\n      0xffffffffffffffffffffffffffffffffffffffff\n      and\n      0xffffffffffffffffffffffffffffffffffffffff\n      and\n      dup2\n      mstore\n      0x20\n      add\n      swap1\n      dup2\n      mstore\n      0x20\n      add\n      0x00\n      keccak256\n        /* \"@openzeppelin/contracts/token/ERC721/ERC721.sol\":15794:15829  _operatorApprovals[owner][operator] */\n      0x00\n        /* \"@openzeppelin/contracts/token/ERC721/ERC721.sol\":15820:15828  operator */\n      dup5\n        /* \"@openzeppelin/contracts/token/ERC721/ERC721.sol\":15794:15829  _operatorApprovals[owner][operator] */\n      0xffffffffffffffffffffffffffffffffffffffff\n      and\n      0xffffffffffffffffffffffffffffffffffffffff\n      and\n      dup2\n      mstore\n      0x20\n      add\n      swap1\n      dup2\n      mstore\n      0x20\n      add\n      0x00\n      keccak256\n      0x00\n        /* \"@openzeppelin/contracts/token/ERC721/ERC721.sol\":15794:15840  _operatorApprovals[owner][operator] = approved */\n      0x0100\n      exp\n      dup2\n      sload\n      dup2\n      0xff\n      mul\n      not\n      and\n      swap1\n      dup4\n      iszero\n      iszero\n      mul\n      or\n      swap1\n      sstore\n      pop\n        /* \"@openzeppelin/contracts/token/ERC721/ERC721.sol\":15877:15885  operator */\n      dup2\n        /* \"@openzeppelin/contracts/token/ERC721/ERC721.sol\":15855:15896  ApprovalForAll(owner, operator, approved) */\n      0xffffffffffffffffffffffffffffffffffffffff\n      and\n        /* \"@openzeppelin/contracts/token/ERC721/ERC721.sol\":15870:15875  owner */\n      dup4\n        /* \"@openzeppelin/contracts/token/ERC721/ERC721.sol\":15855:15896  ApprovalForAll(owner, operator, approved) */\n      0xffffffffffffffffffffffffffffffffffffffff\n      and\n      0x17307eab39ab6107e8899845ad3d59bd9653f200f220920489ca2b5937696c31\n        /* \"@openzeppelin/contracts/token/ERC721/ERC721.sol\":15887:15895  approved */\n      dup4\n        /* \"@openzeppelin/contracts/token/ERC721/ERC721.sol\":15855:15896  ApprovalForAll(owner, operator, approved) */\n      mload(0x40)\n      tag_279\n      swap2\n      swap1\n      tag_32\n      jump\t// in\n    tag_279:\n      mload(0x40)\n      dup1\n      swap2\n      sub\n      swap1\n      log3\n        /* \"@openzeppelin/contracts/token/ERC721/ERC721.sol\":15591:15903  function _setApprovalForAll(address owner, address operator, bool approved) internal virtual {... */\n      pop\n      pop\n      pop\n      jump\t// out\n        /* \"@openzeppelin/contracts/token/ERC721/ERC721.sol\":12013:12473  function _transfer(address from, address to, uint256 tokenId) internal {... */\n    tag_206:\n        /* \"@openzeppelin/contracts/token/ERC721/ERC721.sol\":12112:12113  0 */\n      0x00\n        /* \"@openzeppelin/contracts/token/ERC721/ERC721.sol\":12098:12114  to == address(0) */\n      0xffffffffffffffffffffffffffffffffffffffff\n      and\n        /* \"@openzeppelin/contracts/token/ERC721/ERC721.sol\":12098:12100  to */\n      dup3\n        /* \"@openzeppelin/contracts/token/ERC721/ERC721.sol\":12098:12114  to == address(0) */\n      0xffffffffffffffffffffffffffffffffffffffff\n      and\n      sub\n        /* \"@openzeppelin/contracts/token/ERC721/ERC721.sol\":12094:12181  if (to == address(0)) {... */\n      tag_281\n      jumpi\n        /* \"@openzeppelin/contracts/token/ERC721/ERC721.sol\":12167:12168  0 */\n      0x00\n        /* \"@openzeppelin/contracts/token/ERC721/ERC721.sol\":12137:12170  ERC721InvalidReceiver(address(0)) */\n      mload(0x40)\n      0x64a0ae9200000000000000000000000000000000000000000000000000000000\n      dup2\n      mstore\n      0x04\n      add\n      tag_282\n      swap2\n      swap1\n      tag_44\n      jump\t// in\n    tag_282:\n      mload(0x40)\n      dup1\n      swap2\n      sub\n      swap1\n      revert\n        /* \"@openzeppelin/contracts/token/ERC721/ERC721.sol\":12094:12181  if (to == address(0)) {... */\n    tag_281:\n        /* \"@openzeppelin/contracts/token/ERC721/ERC721.sol\":12190:12211  address previousOwner */\n      0x00\n        /* \"@openzeppelin/contracts/token/ERC721/ERC721.sol\":12214:12246  _update(to, tokenId, address(0)) */\n      tag_283\n        /* \"@openzeppelin/contracts/token/ERC721/ERC721.sol\":12222:12224  to */\n      dup4\n        /* \"@openzeppelin/contracts/token/ERC721/ERC721.sol\":12226:12233  tokenId */\n      dup4\n        /* \"@openzeppelin/contracts/token/ERC721/ERC721.sol\":12243:12244  0 */\n      0x00\n        /* \"@openzeppelin/contracts/token/ERC721/ERC721.sol\":12214:12221  _update */\n      tag_159\n        /* \"@openzeppelin/contracts/token/ERC721/ERC721.sol\":12214:12246  _update(to, tokenId, address(0)) */\n      jump\t// in\n    tag_283:\n        /* \"@openzeppelin/contracts/token/ERC721/ERC721.sol\":12190:12246  address previousOwner = _update(to, tokenId, address(0)) */\n      swap1\n      pop\n        /* \"@openzeppelin/contracts/token/ERC721/ERC721.sol\":12285:12286  0 */\n      0x00\n        /* \"@openzeppelin/contracts/token/ERC721/ERC721.sol\":12260:12287  previousOwner == address(0) */\n      0xffffffffffffffffffffffffffffffffffffffff\n      and\n        /* \"@openzeppelin/contracts/token/ERC721/ERC721.sol\":12260:12273  previousOwner */\n      dup2\n        /* \"@openzeppelin/contracts/token/ERC721/ERC721.sol\":12260:12287  previousOwner == address(0) */\n      0xffffffffffffffffffffffffffffffffffffffff\n      and\n      sub\n        /* \"@openzeppelin/contracts/token/ERC721/ERC721.sol\":12256:12467  if (previousOwner == address(0)) {... */\n      tag_284\n      jumpi\n        /* \"@openzeppelin/contracts/token/ERC721/ERC721.sol\":12333:12340  tokenId */\n      dup2\n        /* \"@openzeppelin/contracts/token/ERC721/ERC721.sol\":12310:12341  ERC721NonexistentToken(tokenId) */\n      mload(0x40)\n      0x7e27328900000000000000000000000000000000000000000000000000000000\n      dup2\n      mstore\n      0x04\n      add\n      tag_285\n      swap2\n      swap1\n      tag_92\n      jump\t// in\n    tag_285:\n      mload(0x40)\n      dup1\n      swap2\n      sub\n      swap1\n      revert\n        /* \"@openzeppelin/contracts/token/ERC721/ERC721.sol\":12256:12467  if (previousOwner == address(0)) {... */\n    tag_284:\n        /* \"@openzeppelin/contracts/token/ERC721/ERC721.sol\":12379:12383  from */\n      dup4\n        /* \"@openzeppelin/contracts/token/ERC721/ERC721.sol\":12362:12383  previousOwner != from */\n      0xffffffffffffffffffffffffffffffffffffffff\n      and\n        /* \"@openzeppelin/contracts/token/ERC721/ERC721.sol\":12362:12375  previousOwner */\n      dup2\n        /* \"@openzeppelin/contracts/token/ERC721/ERC721.sol\":12362:12383  previousOwner != from */\n      0xffffffffffffffffffffffffffffffffffffffff\n      and\n      eq\n        /* \"@openzeppelin/contracts/token/ERC721/ERC721.sol\":12358:12467  if (previousOwner != from) {... */\n      tag_287\n      jumpi\n        /* \"@openzeppelin/contracts/token/ERC721/ERC721.sol\":12427:12431  from */\n      dup4\n        /* \"@openzeppelin/contracts/token/ERC721/ERC721.sol\":12433:12440  tokenId */\n      dup3\n        /* \"@openzeppelin/contracts/token/ERC721/ERC721.sol\":12442:12455  previousOwner */\n      dup3\n        /* \"@openzeppelin/contracts/token/ERC721/ERC721.sol\":12406:12456  ERC721IncorrectOwner(from, tokenId, previousOwner) */\n      mload(0x40)\n      0x64283d7b00000000000000000000000000000000000000000000000000000000\n      dup2\n      mstore\n      0x04\n      add\n      tag_288\n      swap4\n      swap3\n      swap2\n      swap1\n      tag_162\n      jump\t// in\n    tag_288:\n      mload(0x40)\n      dup1\n      swap2\n      sub\n      swap1\n      revert\n        /* \"@openzeppelin/contracts/token/ERC721/ERC721.sol\":12358:12467  if (previousOwner != from) {... */\n    tag_287:\n        /* \"@openzeppelin/contracts/token/ERC721/ERC721.sol\":12084:12473  {... */\n      pop\n        /* \"@openzeppelin/contracts/token/ERC721/ERC721.sol\":12013:12473  function _transfer(address from, address to, uint256 tokenId) internal {... */\n      pop\n      pop\n      pop\n      jump\t// out\n        /* \"@openzeppelin/contracts/token/ERC721/ERC721.sol\":16918:17700  function _checkOnERC721Received(address from, address to, uint256 tokenId, bytes memory data) private {... */\n    tag_223:\n        /* \"@openzeppelin/contracts/token/ERC721/ERC721.sol\":17051:17052  0 */\n      0x00\n        /* \"@openzeppelin/contracts/token/ERC721/ERC721.sol\":17034:17036  to */\n      dup4\n        /* \"@openzeppelin/contracts/token/ERC721/ERC721.sol\":17034:17048  to.code.length */\n      0xffffffffffffffffffffffffffffffffffffffff\n      and\n      extcodesize\n        /* \"@openzeppelin/contracts/token/ERC721/ERC721.sol\":17034:17052  to.code.length > 0 */\n      gt\n        /* \"@openzeppelin/contracts/token/ERC721/ERC721.sol\":17030:17694  if (to.code.length > 0) {... */\n      iszero\n      tag_290\n      jumpi\n        /* \"@openzeppelin/contracts/token/ERC721/ERC721.sol\":17088:17090  to */\n      dup3\n        /* \"@openzeppelin/contracts/token/ERC721/ERC721.sol\":17072:17108  IERC721Receiver(to).onERC721Received */\n      0xffffffffffffffffffffffffffffffffffffffff\n      and\n      0x150b7a02\n        /* \"@openzeppelin/contracts/token/ERC721/ERC721.sol\":17109:17121  _msgSender() */\n      tag_291\n        /* \"@openzeppelin/contracts/token/ERC721/ERC721.sol\":17109:17119  _msgSender */\n      tag_152\n        /* \"@openzeppelin/contracts/token/ERC721/ERC721.sol\":17109:17121  _msgSender() */\n      jump\t// in\n    tag_291:\n        /* \"@openzeppelin/contracts/token/ERC721/ERC721.sol\":17123:17127  from */\n      dup7\n        /* \"@openzeppelin/contracts/token/ERC721/ERC721.sol\":17129:17136  tokenId */\n      dup6\n        /* \"@openzeppelin/contracts/token/ERC721/ERC721.sol\":17138:17142  data */\n      dup6\n        /* \"@openzeppelin/contracts/token/ERC721/ERC721.sol\":17072:17143  IERC721Receiver(to).onERC721Received(_msgSender(), from, tokenId, data) */\n      mload(0x40)\n      dup6\n      0xffffffff\n      and\n      0xe0\n      shl\n      dup2\n      mstore\n      0x04\n      add\n      tag_292\n      swap5\n      swap4\n      swap3\n      swap2\n      swap1\n      tag_293\n      jump\t// in\n    tag_292:\n      0x20\n      mload(0x40)\n      dup1\n      dup4\n      sub\n      dup2\n      0x00\n      dup8\n      gas\n      call\n      swap3\n      pop\n      pop\n      pop\n      dup1\n      iszero\n      tag_294\n      jumpi\n      pop\n      mload(0x40)\n      returndatasize\n      not(0x1f)\n      0x1f\n      dup3\n      add\n      and\n      dup3\n      add\n      dup1\n      0x40\n      mstore\n      pop\n      dup2\n      add\n      swap1\n      tag_295\n      swap2\n      swap1\n      tag_296\n      jump\t// in\n    tag_295:\n      0x01\n    tag_294:\n        /* \"@openzeppelin/contracts/token/ERC721/ERC721.sol\":17068:17684  try IERC721Receiver(to).onERC721Received(_msgSender(), from, tokenId, data) returns (bytes4 retval) {... */\n      tag_297\n      jumpi\n      returndatasize\n      dup1\n      0x00\n      dup2\n      eq\n      tag_302\n      jumpi\n      mload(0x40)\n      swap2\n      pop\n      and(add(returndatasize, 0x3f), not(0x1f))\n      dup3\n      add\n      0x40\n      mstore\n      returndatasize\n      dup3\n      mstore\n      returndatasize\n      0x00\n      0x20\n      dup5\n      add\n      returndatacopy\n      jump(tag_301)\n    tag_302:\n      0x60\n      swap2\n      pop\n    tag_301:\n      pop\n        /* \"@openzeppelin/contracts/token/ERC721/ERC721.sol\":17398:17399  0 */\n      0x00\n        /* \"@openzeppelin/contracts/token/ERC721/ERC721.sol\":17381:17387  reason */\n      dup2\n        /* \"@openzeppelin/contracts/token/ERC721/ERC721.sol\":17381:17394  reason.length */\n      mload\n        /* \"@openzeppelin/contracts/token/ERC721/ERC721.sol\":17381:17399  reason.length == 0 */\n      sub\n        /* \"@openzeppelin/contracts/token/ERC721/ERC721.sol\":17377:17670  if (reason.length == 0) {... */\n      tag_303\n      jumpi\n        /* \"@openzeppelin/contracts/token/ERC721/ERC721.sol\":17452:17454  to */\n      dup4\n        /* \"@openzeppelin/contracts/token/ERC721/ERC721.sol\":17430:17455  ERC721InvalidReceiver(to) */\n      mload(0x40)\n      0x64a0ae9200000000000000000000000000000000000000000000000000000000\n      dup2\n      mstore\n      0x04\n      add\n      tag_304\n      swap2\n      swap1\n      tag_44\n      jump\t// in\n    tag_304:\n      mload(0x40)\n      dup1\n      swap2\n      sub\n      swap1\n      revert\n        /* \"@openzeppelin/contracts/token/ERC721/ERC721.sol\":17377:17670  if (reason.length == 0) {... */\n    tag_303:\n        /* \"@openzeppelin/contracts/token/ERC721/ERC721.sol\":17622:17628  reason */\n      dup1\n        /* \"@openzeppelin/contracts/token/ERC721/ERC721.sol\":17616:17629  mload(reason) */\n      mload\n        /* \"@openzeppelin/contracts/token/ERC721/ERC721.sol\":17607:17613  reason */\n      dup2\n        /* \"@openzeppelin/contracts/token/ERC721/ERC721.sol\":17603:17605  32 */\n      0x20\n        /* \"@openzeppelin/contracts/token/ERC721/ERC721.sol\":17599:17614  add(32, reason) */\n      add\n        /* \"@openzeppelin/contracts/token/ERC721/ERC721.sol\":17592:17630  revert(add(32, reason), mload(reason)) */\n      revert\n        /* \"@openzeppelin/contracts/token/ERC721/ERC721.sol\":17068:17684  try IERC721Receiver(to).onERC721Received(_msgSender(), from, tokenId, data) returns (bytes4 retval) {... */\n    tag_297:\n        /* \"@openzeppelin/contracts/token/ERC721/ERC721.sol\":17200:17241  IERC721Receiver.onERC721Received.selector */\n      shl(0xe0, 0x150b7a02)\n        /* \"@openzeppelin/contracts/token/ERC721/ERC721.sol\":17190:17241  retval != IERC721Receiver.onERC721Received.selector */\n      not(0xffffffffffffffffffffffffffffffffffffffffffffffffffffffff)\n      and\n        /* \"@openzeppelin/contracts/token/ERC721/ERC721.sol\":17190:17196  retval */\n      dup2\n        /* \"@openzeppelin/contracts/token/ERC721/ERC721.sol\":17190:17241  retval != IERC721Receiver.onERC721Received.selector */\n      not(0xffffffffffffffffffffffffffffffffffffffffffffffffffffffff)\n      and\n      eq\n        /* \"@openzeppelin/contracts/token/ERC721/ERC721.sol\":17186:17316  if (retval != IERC721Receiver.onERC721Received.selector) {... */\n      tag_307\n      jumpi\n        /* \"@openzeppelin/contracts/token/ERC721/ERC721.sol\":17294:17296  to */\n      dup4\n        /* \"@openzeppelin/contracts/token/ERC721/ERC721.sol\":17272:17297  ERC721InvalidReceiver(to) */\n      mload(0x40)\n      0x64a0ae9200000000000000000000000000000000000000000000000000000000\n      dup2\n      mstore\n      0x04\n      add\n      tag_308\n      swap2\n      swap1\n      tag_44\n      jump\t// in\n    tag_308:\n      mload(0x40)\n      dup1\n      swap2\n      sub\n      swap1\n      revert\n        /* \"@openzeppelin/contracts/token/ERC721/ERC721.sol\":17186:17316  if (retval != IERC721Receiver.onERC721Received.selector) {... */\n    tag_307:\n        /* \"@openzeppelin/contracts/token/ERC721/ERC721.sol\":17144:17330  returns (bytes4 retval) {... */\n      pop\n        /* \"@openzeppelin/contracts/token/ERC721/ERC721.sol\":17030:17694  if (to.code.length > 0) {... */\n    tag_290:\n        /* \"@openzeppelin/contracts/token/ERC721/ERC721.sol\":16918:17700  function _checkOnERC721Received(address from, address to, uint256 tokenId, bytes memory data) private {... */\n      pop\n      pop\n      pop\n      pop\n      jump\t// out\n        /* \"@openzeppelin/contracts/token/ERC721/ERC721.sol\":3174:3266  function _baseURI() internal view virtual returns (string memory) {... */\n    tag_232:\n        /* \"@openzeppelin/contracts/token/ERC721/ERC721.sol\":3225:3238  string memory */\n      0x60\n        /* \"@openzeppelin/contracts/token/ERC721/ERC721.sol\":3250:3259  return \"\" */\n      mload(0x40)\n      dup1\n      0x20\n      add\n      0x40\n      mstore\n      dup1\n      0x00\n      dup2\n      mstore\n      pop\n      swap1\n      pop\n        /* \"@openzeppelin/contracts/token/ERC721/ERC721.sol\":3174:3266  function _baseURI() internal view virtual returns (string memory) {... */\n      swap1\n      jump\t// out\n        /* \"@openzeppelin/contracts/token/ERC721/ERC721.sol\":2677:2932  function tokenURI(uint256 tokenId) public view virtual returns (string memory) {... */\n    tag_238:\n        /* \"@openzeppelin/contracts/token/ERC721/ERC721.sol\":2741:2754  string memory */\n      0x60\n        /* \"@openzeppelin/contracts/token/ERC721/ERC721.sol\":2766:2788  _requireOwned(tokenId) */\n      tag_311\n        /* \"@openzeppelin/contracts/token/ERC721/ERC721.sol\":2780:2787  tokenId */\n      dup3\n        /* \"@openzeppelin/contracts/token/ERC721/ERC721.sol\":2766:2779  _requireOwned */\n      tag_146\n        /* \"@openzeppelin/contracts/token/ERC721/ERC721.sol\":2766:2788  _requireOwned(tokenId) */\n      jump\t// in\n    tag_311:\n      pop\n        /* \"@openzeppelin/contracts/token/ERC721/ERC721.sol\":2799:2820  string memory baseURI */\n      0x00\n        /* \"@openzeppelin/contracts/token/ERC721/ERC721.sol\":2823:2833  _baseURI() */\n      tag_312\n        /* \"@openzeppelin/contracts/token/ERC721/ERC721.sol\":2823:2831  _baseURI */\n      tag_232\n        /* \"@openzeppelin/contracts/token/ERC721/ERC721.sol\":2823:2833  _baseURI() */\n      jump\t// in\n    tag_312:\n        /* \"@openzeppelin/contracts/token/ERC721/ERC721.sol\":2799:2833  string memory baseURI = _baseURI() */\n      swap1\n      pop\n        /* \"@openzeppelin/contracts/token/ERC721/ERC721.sol\":2874:2875  0 */\n      0x00\n        /* \"@openzeppelin/contracts/token/ERC721/ERC721.sol\":2856:2863  baseURI */\n      dup2\n        /* \"@openzeppelin/contracts/token/ERC721/ERC721.sol\":2850:2871  bytes(baseURI).length */\n      mload\n        /* \"@openzeppelin/contracts/token/ERC721/ERC721.sol\":2850:2875  bytes(baseURI).length > 0 */\n      gt\n        /* \"@openzeppelin/contracts/token/ERC721/ERC721.sol\":2850:2925  bytes(baseURI).length > 0 ? string.concat(baseURI, tokenId.toString()) : \"\" */\n      tag_313\n      jumpi\n      mload(0x40)\n      dup1\n      0x20\n      add\n      0x40\n      mstore\n      dup1\n      0x00\n      dup2\n      mstore\n      pop\n      jump(tag_314)\n    tag_313:\n        /* \"@openzeppelin/contracts/token/ERC721/ERC721.sol\":2892:2899  baseURI */\n      dup1\n        /* \"@openzeppelin/contracts/token/ERC721/ERC721.sol\":2901:2919  tokenId.toString() */\n      tag_315\n        /* \"@openzeppelin/contracts/token/ERC721/ERC721.sol\":2901:2908  tokenId */\n      dup5\n        /* \"@openzeppelin/contracts/token/ERC721/ERC721.sol\":2901:2917  tokenId.toString */\n      tag_316\n        /* \"@openzeppelin/contracts/token/ERC721/ERC721.sol\":2901:2919  tokenId.toString() */\n      jump\t// in\n    tag_315:\n        /* \"@openzeppelin/contracts/token/ERC721/ERC721.sol\":2878:2920  string.concat(baseURI, tokenId.toString()) */\n      add(0x20, mload(0x40))\n      tag_317\n      swap3\n      swap2\n      swap1\n      tag_236\n      jump\t// in\n    tag_317:\n      mload(0x40)\n      0x20\n      dup2\n      dup4\n      sub\n      sub\n      dup2\n      mstore\n      swap1\n      0x40\n      mstore\n        /* \"@openzeppelin/contracts/token/ERC721/ERC721.sol\":2850:2925  bytes(baseURI).length > 0 ? string.concat(baseURI, tokenId.toString()) : \"\" */\n    tag_314:\n        /* \"@openzeppelin/contracts/token/ERC721/ERC721.sol\":2843:2925  return bytes(baseURI).length > 0 ? string.concat(baseURI, tokenId.toString()) : \"\" */\n      swap2\n      pop\n      pop\n        /* \"@openzeppelin/contracts/token/ERC721/ERC721.sol\":2677:2932  function tokenURI(uint256 tokenId) public view virtual returns (string memory) {... */\n      swap2\n      swap1\n      pop\n      jump\t// out\n        /* \"@openzeppelin/contracts/utils/introspection/ERC165.sol\":762:908  function supportsInterface(bytes4 interfaceId) public view virtual returns (bool) {... */\n    tag_249:\n        /* \"@openzeppelin/contracts/utils/introspection/ERC165.sol\":838:842  bool */\n      0x00\n        /* \"@openzeppelin/contracts/utils/introspection/ERC165.sol\":876:901  type(IERC165).interfaceId */\n      0x01ffc9a700000000000000000000000000000000000000000000000000000000\n        /* \"@openzeppelin/contracts/utils/introspection/ERC165.sol\":861:901  interfaceId == type(IERC165).interfaceId */\n      not(0xffffffffffffffffffffffffffffffffffffffffffffffffffffffff)\n      and\n        /* \"@openzeppelin/contracts/utils/introspection/ERC165.sol\":861:872  interfaceId */\n      dup3\n        /* \"@openzeppelin/contracts/utils/introspection/ERC165.sol\":861:901  interfaceId == type(IERC165).interfaceId */\n      not(0xffffffffffffffffffffffffffffffffffffffffffffffffffffffff)\n      and\n      eq\n        /* \"@openzeppelin/contracts/utils/introspection/ERC165.sol\":854:901  return interfaceId == type(IERC165).interfaceId */\n      swap1\n      pop\n        /* \"@openzeppelin/contracts/utils/introspection/ERC165.sol\":762:908  function supportsInterface(bytes4 interfaceId) public view virtual returns (bool) {... */\n      swap2\n      swap1\n      pop\n      jump\t// out\n        /* \"@openzeppelin/contracts/token/ERC721/ERC721.sol\":5707:5822  function _ownerOf(uint256 tokenId) internal view virtual returns (address) {... */\n    tag_252:\n        /* \"@openzeppelin/contracts/token/ERC721/ERC721.sol\":5773:5780  address */\n      0x00\n        /* \"@openzeppelin/contracts/token/ERC721/ERC721.sol\":5799:5806  _owners */\n      0x02\n        /* \"@openzeppelin/contracts/token/ERC721/ERC721.sol\":5799:5815  _owners[tokenId] */\n      0x00\n        /* \"@openzeppelin/contracts/token/ERC721/ERC721.sol\":5807:5814  tokenId */\n      dup4\n        /* \"@openzeppelin/contracts/token/ERC721/ERC721.sol\":5799:5815  _owners[tokenId] */\n      dup2\n      mstore\n      0x20\n      add\n      swap1\n      dup2\n      mstore\n      0x20\n      add\n      0x00\n      keccak256\n      0x00\n      swap1\n      sload\n      swap1\n      0x0100\n      exp\n      swap1\n      div\n      0xffffffffffffffffffffffffffffffffffffffff\n      and\n        /* \"@openzeppelin/contracts/token/ERC721/ERC721.sol\":5792:5815  return _owners[tokenId] */\n      swap1\n      pop\n        /* \"@openzeppelin/contracts/token/ERC721/ERC721.sol\":5707:5822  function _ownerOf(uint256 tokenId) internal view virtual returns (address) {... */\n      swap2\n      swap1\n      pop\n      jump\t// out\n        /* \"@openzeppelin/contracts/token/ERC721/ERC721.sol\":14720:15382  function _approve(address to, uint256 tokenId, address auth, bool emitEvent) internal virtual {... */\n    tag_259:\n        /* \"@openzeppelin/contracts/token/ERC721/ERC721.sol\":14880:14889  emitEvent */\n      dup1\n        /* \"@openzeppelin/contracts/token/ERC721/ERC721.sol\":14880:14911  emitEvent || auth != address(0) */\n      dup1\n      tag_321\n      jumpi\n      pop\n        /* \"@openzeppelin/contracts/token/ERC721/ERC721.sol\":14909:14910  0 */\n      0x00\n        /* \"@openzeppelin/contracts/token/ERC721/ERC721.sol\":14893:14911  auth != address(0) */\n      0xffffffffffffffffffffffffffffffffffffffff\n      and\n        /* \"@openzeppelin/contracts/token/ERC721/ERC721.sol\":14893:14897  auth */\n      dup3\n        /* \"@openzeppelin/contracts/token/ERC721/ERC721.sol\":14893:14911  auth != address(0) */\n      0xffffffffffffffffffffffffffffffffffffffff\n      and\n      eq\n      iszero\n        /* \"@openzeppelin/contracts/token/ERC721/ERC721.sol\":14880:14911  emitEvent || auth != address(0) */\n    tag_321:\n        /* \"@openzeppelin/contracts/token/ERC721/ERC721.sol\":14876:15336  if (emitEvent || auth != address(0)) {... */\n      iszero\n      tag_322\n      jumpi\n        /* \"@openzeppelin/contracts/token/ERC721/ERC721.sol\":14927:14940  address owner */\n      0x00\n        /* \"@openzeppelin/contracts/token/ERC721/ERC721.sol\":14943:14965  _requireOwned(tokenId) */\n      tag_323\n        /* \"@openzeppelin/contracts/token/ERC721/ERC721.sol\":14957:14964  tokenId */\n      dup5\n        /* \"@openzeppelin/contracts/token/ERC721/ERC721.sol\":14943:14956  _requireOwned */\n      tag_146\n        /* \"@openzeppelin/contracts/token/ERC721/ERC721.sol\":14943:14965  _requireOwned(tokenId) */\n      jump\t// in\n    tag_323:\n        /* \"@openzeppelin/contracts/token/ERC721/ERC721.sol\":14927:14965  address owner = _requireOwned(tokenId) */\n      swap1\n      pop\n        /* \"@openzeppelin/contracts/token/ERC721/ERC721.sol\":15109:15110  0 */\n      0x00\n        /* \"@openzeppelin/contracts/token/ERC721/ERC721.sol\":15093:15111  auth != address(0) */\n      0xffffffffffffffffffffffffffffffffffffffff\n      and\n        /* \"@openzeppelin/contracts/token/ERC721/ERC721.sol\":15093:15097  auth */\n      dup4\n        /* \"@openzeppelin/contracts/token/ERC721/ERC721.sol\":15093:15111  auth != address(0) */\n      0xffffffffffffffffffffffffffffffffffffffff\n      and\n      eq\n      iszero\n        /* \"@openzeppelin/contracts/token/ERC721/ERC721.sol\":15093:15128  auth != address(0) && owner != auth */\n      dup1\n      iszero\n      tag_324\n      jumpi\n      pop\n        /* \"@openzeppelin/contracts/token/ERC721/ERC721.sol\":15124:15128  auth */\n      dup3\n        /* \"@openzeppelin/contracts/token/ERC721/ERC721.sol\":15115:15128  owner != auth */\n      0xffffffffffffffffffffffffffffffffffffffff\n      and\n        /* \"@openzeppelin/contracts/token/ERC721/ERC721.sol\":15115:15120  owner */\n      dup2\n        /* \"@openzeppelin/contracts/token/ERC721/ERC721.sol\":15115:15128  owner != auth */\n      0xffffffffffffffffffffffffffffffffffffffff\n      and\n      eq\n      iszero\n        /* \"@openzeppelin/contracts/token/ERC721/ERC721.sol\":15093:15128  auth != address(0) && owner != auth */\n    tag_324:\n        /* \"@openzeppelin/contracts/token/ERC721/ERC721.sol\":15093:15162  auth != address(0) && owner != auth && !isApprovedForAll(owner, auth) */\n      dup1\n      iszero\n      tag_325\n      jumpi\n      pop\n        /* \"@openzeppelin/contracts/token/ERC721/ERC721.sol\":15133:15162  isApprovedForAll(owner, auth) */\n      tag_326\n        /* \"@openzeppelin/contracts/token/ERC721/ERC721.sol\":15150:15155  owner */\n      dup2\n        /* \"@openzeppelin/contracts/token/ERC721/ERC721.sol\":15157:15161  auth */\n      dup5\n        /* \"@openzeppelin/contracts/token/ERC721/ERC721.sol\":15133:15149  isApprovedForAll */\n      tag_131\n        /* \"@openzeppelin/contracts/token/ERC721/ERC721.sol\":15133:15162  isApprovedForAll(owner, auth) */\n      jump\t// in\n    tag_326:\n        /* \"@openzeppelin/contracts/token/ERC721/ERC721.sol\":15132:15162  !isApprovedForAll(owner, auth) */\n      iszero\n        /* \"@openzeppelin/contracts/token/ERC721/ERC721.sol\":15093:15162  auth != address(0) && owner != auth && !isApprovedForAll(owner, auth) */\n    tag_325:\n        /* \"@openzeppelin/contracts/token/ERC721/ERC721.sol\":15089:15231  if (auth != address(0) && owner != auth && !isApprovedForAll(owner, auth)) {... */\n      iszero\n      tag_327\n      jumpi\n        /* \"@openzeppelin/contracts/token/ERC721/ERC721.sol\":15211:15215  auth */\n      dup3\n        /* \"@openzeppelin/contracts/token/ERC721/ERC721.sol\":15189:15216  ERC721InvalidApprover(auth) */\n      mload(0x40)\n      0xa9fbf51f00000000000000000000000000000000000000000000000000000000\n      dup2\n      mstore\n      0x04\n      add\n      tag_328\n      swap2\n      swap1\n      tag_44\n      jump\t// in\n    tag_328:\n      mload(0x40)\n      dup1\n      swap2\n      sub\n      swap1\n      revert\n        /* \"@openzeppelin/contracts/token/ERC721/ERC721.sol\":15089:15231  if (auth != address(0) && owner != auth && !isApprovedForAll(owner, auth)) {... */\n    tag_327:\n        /* \"@openzeppelin/contracts/token/ERC721/ERC721.sol\":15249:15258  emitEvent */\n      dup2\n        /* \"@openzeppelin/contracts/token/ERC721/ERC721.sol\":15245:15326  if (emitEvent) {... */\n      iszero\n      tag_329\n      jumpi\n        /* \"@openzeppelin/contracts/token/ERC721/ERC721.sol\":15303:15310  tokenId */\n      dup4\n        /* \"@openzeppelin/contracts/token/ERC721/ERC721.sol\":15299:15301  to */\n      dup6\n        /* \"@openzeppelin/contracts/token/ERC721/ERC721.sol\":15283:15311  Approval(owner, to, tokenId) */\n      0xffffffffffffffffffffffffffffffffffffffff\n      and\n        /* \"@openzeppelin/contracts/token/ERC721/ERC721.sol\":15292:15297  owner */\n      dup3\n        /* \"@openzeppelin/contracts/token/ERC721/ERC721.sol\":15283:15311  Approval(owner, to, tokenId) */\n      0xffffffffffffffffffffffffffffffffffffffff\n      and\n      0x8c5be1e5ebec7d5bd14f71427d1e84f3dd0314c0f7b2291e5b200ac8c7c3b925\n      mload(0x40)\n      mload(0x40)\n      dup1\n      swap2\n      sub\n      swap1\n      log4\n        /* \"@openzeppelin/contracts/token/ERC721/ERC721.sol\":15245:15326  if (emitEvent) {... */\n    tag_329:\n        /* \"@openzeppelin/contracts/token/ERC721/ERC721.sol\":14913:15336  {... */\n      pop\n        /* \"@openzeppelin/contracts/token/ERC721/ERC721.sol\":14876:15336  if (emitEvent || auth != address(0)) {... */\n    tag_322:\n        /* \"@openzeppelin/contracts/token/ERC721/ERC721.sol\":15373:15375  to */\n      dup4\n        /* \"@openzeppelin/contracts/token/ERC721/ERC721.sol\":15346:15361  _tokenApprovals */\n      0x04\n        /* \"@openzeppelin/contracts/token/ERC721/ERC721.sol\":15346:15370  _tokenApprovals[tokenId] */\n      0x00\n        /* \"@openzeppelin/contracts/token/ERC721/ERC721.sol\":15362:15369  tokenId */\n      dup6\n        /* \"@openzeppelin/contracts/token/ERC721/ERC721.sol\":15346:15370  _tokenApprovals[tokenId] */\n      dup2\n      mstore\n      0x20\n      add\n      swap1\n      dup2\n      mstore\n      0x20\n      add\n      0x00\n      keccak256\n      0x00\n        /* \"@openzeppelin/contracts/token/ERC721/ERC721.sol\":15346:15375  _tokenApprovals[tokenId] = to */\n      0x0100\n      exp\n      dup2\n      sload\n      dup2\n      0xffffffffffffffffffffffffffffffffffffffff\n      mul\n      not\n      and\n      swap1\n      dup4\n      0xffffffffffffffffffffffffffffffffffffffff\n      and\n      mul\n      or\n      swap1\n      sstore\n      pop\n        /* \"@openzeppelin/contracts/token/ERC721/ERC721.sol\":14720:15382  function _approve(address to, uint256 tokenId, address auth, bool emitEvent) internal virtual {... */\n      pop\n      pop\n      pop\n      pop\n      jump\t// out\n        /* \"@openzeppelin/contracts/token/ERC721/ERC721.sol\":7082:7450  function _checkAuthorized(address owner, address spender, uint256 tokenId) internal view virtual {... */\n    tag_264:\n        /* \"@openzeppelin/contracts/token/ERC721/ERC721.sol\":7194:7232  _isAuthorized(owner, spender, tokenId) */\n      tag_331\n        /* \"@openzeppelin/contracts/token/ERC721/ERC721.sol\":7208:7213  owner */\n      dup4\n        /* \"@openzeppelin/contracts/token/ERC721/ERC721.sol\":7215:7222  spender */\n      dup4\n        /* \"@openzeppelin/contracts/token/ERC721/ERC721.sol\":7224:7231  tokenId */\n      dup4\n        /* \"@openzeppelin/contracts/token/ERC721/ERC721.sol\":7194:7207  _isAuthorized */\n      tag_332\n        /* \"@openzeppelin/contracts/token/ERC721/ERC721.sol\":7194:7232  _isAuthorized(owner, spender, tokenId) */\n      jump\t// in\n    tag_331:\n        /* \"@openzeppelin/contracts/token/ERC721/ERC721.sol\":7189:7444  if (!_isAuthorized(owner, spender, tokenId)) {... */\n      tag_333\n      jumpi\n        /* \"@openzeppelin/contracts/token/ERC721/ERC721.sol\":7269:7270  0 */\n      0x00\n        /* \"@openzeppelin/contracts/token/ERC721/ERC721.sol\":7252:7271  owner == address(0) */\n      0xffffffffffffffffffffffffffffffffffffffff\n      and\n        /* \"@openzeppelin/contracts/token/ERC721/ERC721.sol\":7252:7257  owner */\n      dup4\n        /* \"@openzeppelin/contracts/token/ERC721/ERC721.sol\":7252:7271  owner == address(0) */\n      0xffffffffffffffffffffffffffffffffffffffff\n      and\n      sub\n        /* \"@openzeppelin/contracts/token/ERC721/ERC721.sol\":7248:7434  if (owner == address(0)) {... */\n      tag_334\n      jumpi\n        /* \"@openzeppelin/contracts/token/ERC721/ERC721.sol\":7321:7328  tokenId */\n      dup1\n        /* \"@openzeppelin/contracts/token/ERC721/ERC721.sol\":7298:7329  ERC721NonexistentToken(tokenId) */\n      mload(0x40)\n      0x7e27328900000000000000000000000000000000000000000000000000000000\n      dup2\n      mstore\n      0x04\n      add\n      tag_335\n      swap2\n      swap1\n      tag_92\n      jump\t// in\n    tag_335:\n      mload(0x40)\n      dup1\n      swap2\n      sub\n      swap1\n      revert\n        /* \"@openzeppelin/contracts/token/ERC721/ERC721.sol\":7248:7434  if (owner == address(0)) {... */\n    tag_334:\n        /* \"@openzeppelin/contracts/token/ERC721/ERC721.sol\":7402:7409  spender */\n      dup2\n        /* \"@openzeppelin/contracts/token/ERC721/ERC721.sol\":7411:7418  tokenId */\n      dup2\n        /* \"@openzeppelin/contracts/token/ERC721/ERC721.sol\":7375:7419  ERC721InsufficientApproval(spender, tokenId) */\n      mload(0x40)\n      0x177e802f00000000000000000000000000000000000000000000000000000000\n      dup2\n      mstore\n      0x04\n      add\n      tag_337\n      swap3\n      swap2\n      swap1\n      tag_60\n      jump\t// in\n    tag_337:\n      mload(0x40)\n      dup1\n      swap2\n      sub\n      swap1\n      revert\n        /* \"@openzeppelin/contracts/token/ERC721/ERC721.sol\":7189:7444  if (!_isAuthorized(owner, spender, tokenId)) {... */\n    tag_333:\n        /* \"@openzeppelin/contracts/token/ERC721/ERC721.sol\":7082:7450  function _checkAuthorized(address owner, address spender, uint256 tokenId) internal view virtual {... */\n      pop\n      pop\n      pop\n      jump\t// out\n        /* \"@openzeppelin/contracts/token/ERC721/ERC721.sol\":10954:11136  function _safeMint(address to, uint256 tokenId, bytes memory data) internal virtual {... */\n    tag_271:\n        /* \"@openzeppelin/contracts/token/ERC721/ERC721.sol\":11048:11066  _mint(to, tokenId) */\n      tag_339\n        /* \"@openzeppelin/contracts/token/ERC721/ERC721.sol\":11054:11056  to */\n      dup4\n        /* \"@openzeppelin/contracts/token/ERC721/ERC721.sol\":11058:11065  tokenId */\n      dup4\n        /* \"@openzeppelin/contracts/token/ERC721/ERC721.sol\":11048:11053  _mint */\n      tag_340\n        /* \"@openzeppelin/contracts/token/ERC721/ERC721.sol\":11048:11066  _mint(to, tokenId) */\n      jump\t// in\n    tag_339:\n        /* \"@openzeppelin/contracts/token/ERC721/ERC721.sol\":11076:11129  _checkOnERC721Received(address(0), to, tokenId, data) */\n      tag_341\n        /* \"@openzeppelin/contracts/token/ERC721/ERC721.sol\":11107:11108  0 */\n      0x00\n        /* \"@openzeppelin/contracts/token/ERC721/ERC721.sol\":11111:11113  to */\n      dup5\n        /* \"@openzeppelin/contracts/token/ERC721/ERC721.sol\":11115:11122  tokenId */\n      dup5\n        /* \"@openzeppelin/contracts/token/ERC721/ERC721.sol\":11124:11128  data */\n      dup5\n        /* \"@openzeppelin/contracts/token/ERC721/ERC721.sol\":11076:11098  _checkOnERC721Received */\n      tag_223\n        /* \"@openzeppelin/contracts/token/ERC721/ERC721.sol\":11076:11129  _checkOnERC721Received(address(0), to, tokenId, data) */\n      jump\t// in\n    tag_341:\n        /* \"@openzeppelin/contracts/token/ERC721/ERC721.sol\":10954:11136  function _safeMint(address to, uint256 tokenId, bytes memory data) internal virtual {... */\n      pop\n      pop\n      pop\n      jump\t// out\n        /* \"@openzeppelin/contracts/utils/Strings.sol\":637:1335  function toString(uint256 value) internal pure returns (string memory) {... */\n    tag_316:\n        /* \"@openzeppelin/contracts/utils/Strings.sol\":693:706  string memory */\n      0x60\n        /* \"@openzeppelin/contracts/utils/Strings.sol\":742:756  uint256 length */\n      0x00\n        /* \"@openzeppelin/contracts/utils/Strings.sol\":779:780  1 */\n      0x01\n        /* \"@openzeppelin/contracts/utils/Strings.sol\":759:776  Math.log10(value) */\n      tag_343\n        /* \"@openzeppelin/contracts/utils/Strings.sol\":770:775  value */\n      dup5\n        /* \"@openzeppelin/contracts/utils/Strings.sol\":759:769  Math.log10 */\n      tag_344\n        /* \"@openzeppelin/contracts/utils/Strings.sol\":759:776  Math.log10(value) */\n      jump\t// in\n    tag_343:\n        /* \"@openzeppelin/contracts/utils/Strings.sol\":759:780  Math.log10(value) + 1 */\n      add\n        /* \"@openzeppelin/contracts/utils/Strings.sol\":742:780  uint256 length = Math.log10(value) + 1 */\n      swap1\n      pop\n        /* \"@openzeppelin/contracts/utils/Strings.sol\":794:814  string memory buffer */\n      0x00\n        /* \"@openzeppelin/contracts/utils/Strings.sol\":828:834  length */\n      dup2\n        /* \"@openzeppelin/contracts/utils/Strings.sol\":817:835  new string(length) */\n      0xffffffffffffffff\n      dup2\n      gt\n      iszero\n      tag_345\n      jumpi\n      tag_346\n      tag_347\n      jump\t// in\n    tag_346:\n    tag_345:\n      mload(0x40)\n      swap1\n      dup1\n      dup3\n      mstore\n      dup1\n      0x1f\n      add\n      not(0x1f)\n      and\n      0x20\n      add\n      dup3\n      add\n      0x40\n      mstore\n      dup1\n      iszero\n      tag_348\n      jumpi\n      dup2\n      0x20\n      add\n      0x01\n      dup3\n      mul\n      dup1\n      calldatasize\n      dup4\n      calldatacopy\n      dup1\n      dup3\n      add\n      swap2\n      pop\n      pop\n      swap1\n      pop\n    tag_348:\n      pop\n        /* \"@openzeppelin/contracts/utils/Strings.sol\":794:835  string memory buffer = new string(length) */\n      swap1\n      pop\n        /* \"@openzeppelin/contracts/utils/Strings.sol\":849:860  uint256 ptr */\n      0x00\n        /* \"@openzeppelin/contracts/utils/Strings.sol\":975:981  length */\n      dup3\n        /* \"@openzeppelin/contracts/utils/Strings.sol\":971:973  32 */\n      0x20\n        /* \"@openzeppelin/contracts/utils/Strings.sol\":967:982  add(32, length) */\n      add\n        /* \"@openzeppelin/contracts/utils/Strings.sol\":959:965  buffer */\n      dup3\n        /* \"@openzeppelin/contracts/utils/Strings.sol\":955:983  add(buffer, add(32, length)) */\n      add\n        /* \"@openzeppelin/contracts/utils/Strings.sol\":948:983  ptr := add(buffer, add(32, length)) */\n      swap1\n      pop\n        /* \"@openzeppelin/contracts/utils/Strings.sol\":1010:1292  while (true) {... */\n    tag_349:\n        /* \"@openzeppelin/contracts/utils/Strings.sol\":1017:1021  true */\n      0x01\n        /* \"@openzeppelin/contracts/utils/Strings.sol\":1010:1292  while (true) {... */\n      iszero\n      tag_350\n      jumpi\n        /* \"@openzeppelin/contracts/utils/Strings.sol\":1041:1046  ptr-- */\n      dup1\n      dup1\n      0x01\n      swap1\n      sub\n      swap2\n      pop\n      pop\n        /* \"@openzeppelin/contracts/utils/Strings.sol\":1180:1190  HEX_DIGITS */\n      0x3031323334353637383961626364656600000000000000000000000000000000\n        /* \"@openzeppelin/contracts/utils/Strings.sol\":1175:1177  10 */\n      0x0a\n        /* \"@openzeppelin/contracts/utils/Strings.sol\":1168:1173  value */\n      dup7\n        /* \"@openzeppelin/contracts/utils/Strings.sol\":1164:1178  mod(value, 10) */\n      mod\n        /* \"@openzeppelin/contracts/utils/Strings.sol\":1159:1191  byte(mod(value, 10), HEX_DIGITS) */\n      byte\n        /* \"@openzeppelin/contracts/utils/Strings.sol\":1154:1157  ptr */\n      dup2\n        /* \"@openzeppelin/contracts/utils/Strings.sol\":1146:1192  mstore8(ptr, byte(mod(value, 10), HEX_DIGITS)) */\n      mstore8\n        /* \"@openzeppelin/contracts/utils/Strings.sol\":1236:1238  10 */\n      0x0a\n        /* \"@openzeppelin/contracts/utils/Strings.sol\":1227:1238  value /= 10 */\n      dup6\n      dup2\n      tag_351\n      jumpi\n      tag_352\n      tag_353\n      jump\t// in\n    tag_352:\n    tag_351:\n      div\n      swap5\n      pop\n        /* \"@openzeppelin/contracts/utils/Strings.sol\":1269:1270  0 */\n      0x00\n        /* \"@openzeppelin/contracts/utils/Strings.sol\":1260:1265  value */\n      dup6\n        /* \"@openzeppelin/contracts/utils/Strings.sol\":1260:1270  value == 0 */\n      sub\n        /* \"@openzeppelin/contracts/utils/Strings.sol\":1010:1292  while (true) {... */\n      tag_349\n        /* \"@openzeppelin/contracts/utils/Strings.sol\":1256:1277  if (value == 0) break */\n      jumpi\n        /* \"@openzeppelin/contracts/utils/Strings.sol\":1010:1292  while (true) {... */\n    tag_350:\n        /* \"@openzeppelin/contracts/utils/Strings.sol\":1312:1318  buffer */\n      dup2\n        /* \"@openzeppelin/contracts/utils/Strings.sol\":1305:1318  return buffer */\n      swap4\n      pop\n      pop\n      pop\n      pop\n        /* \"@openzeppelin/contracts/utils/Strings.sol\":637:1335  function toString(uint256 value) internal pure returns (string memory) {... */\n      swap2\n      swap1\n      pop\n      jump\t// out\n        /* \"@openzeppelin/contracts/token/ERC721/ERC721.sol\":6376:6648  function _isAuthorized(address owner, address spender, uint256 tokenId) internal view virtual returns (bool) {... */\n    tag_332:\n        /* \"@openzeppelin/contracts/token/ERC721/ERC721.sol\":6479:6483  bool */\n      0x00\n        /* \"@openzeppelin/contracts/token/ERC721/ERC721.sol\":6533:6534  0 */\n      dup1\n        /* \"@openzeppelin/contracts/token/ERC721/ERC721.sol\":6514:6535  spender != address(0) */\n      0xffffffffffffffffffffffffffffffffffffffff\n      and\n        /* \"@openzeppelin/contracts/token/ERC721/ERC721.sol\":6514:6521  spender */\n      dup4\n        /* \"@openzeppelin/contracts/token/ERC721/ERC721.sol\":6514:6535  spender != address(0) */\n      0xffffffffffffffffffffffffffffffffffffffff\n      and\n      eq\n      iszero\n        /* \"@openzeppelin/contracts/token/ERC721/ERC721.sol\":6514:6641  spender != address(0) &&... */\n      dup1\n      iszero\n      tag_356\n      jumpi\n      pop\n        /* \"@openzeppelin/contracts/token/ERC721/ERC721.sol\":6561:6568  spender */\n      dup3\n        /* \"@openzeppelin/contracts/token/ERC721/ERC721.sol\":6552:6568  owner == spender */\n      0xffffffffffffffffffffffffffffffffffffffff\n      and\n        /* \"@openzeppelin/contracts/token/ERC721/ERC721.sol\":6552:6557  owner */\n      dup5\n        /* \"@openzeppelin/contracts/token/ERC721/ERC721.sol\":6552:6568  owner == spender */\n      0xffffffffffffffffffffffffffffffffffffffff\n      and\n      eq\n        /* \"@openzeppelin/contracts/token/ERC721/ERC721.sol\":6552:6604  owner == spender || isApprovedForAll(owner, spender) */\n      dup1\n      tag_357\n      jumpi\n      pop\n        /* \"@openzeppelin/contracts/token/ERC721/ERC721.sol\":6572:6604  isApprovedForAll(owner, spender) */\n      tag_358\n        /* \"@openzeppelin/contracts/token/ERC721/ERC721.sol\":6589:6594  owner */\n      dup5\n        /* \"@openzeppelin/contracts/token/ERC721/ERC721.sol\":6596:6603  spender */\n      dup5\n        /* \"@openzeppelin/contracts/token/ERC721/ERC721.sol\":6572:6588  isApprovedForAll */\n      tag_131\n        /* \"@openzeppelin/contracts/token/ERC721/ERC721.sol\":6572:6604  isApprovedForAll(owner, spender) */\n      jump\t// in\n    tag_358:\n        /* \"@openzeppelin/contracts/token/ERC721/ERC721.sol\":6552:6604  owner == spender || isApprovedForAll(owner, spender) */\n    tag_357:\n        /* \"@openzeppelin/contracts/token/ERC721/ERC721.sol\":6552:6640  owner == spender || isApprovedForAll(owner, spender) || _getApproved(tokenId) == spender */\n      dup1\n      tag_359\n      jumpi\n      pop\n        /* \"@openzeppelin/contracts/token/ERC721/ERC721.sol\":6633:6640  spender */\n      dup3\n        /* \"@openzeppelin/contracts/token/ERC721/ERC721.sol\":6608:6640  _getApproved(tokenId) == spender */\n      0xffffffffffffffffffffffffffffffffffffffff\n      and\n        /* \"@openzeppelin/contracts/token/ERC721/ERC721.sol\":6608:6629  _getApproved(tokenId) */\n      tag_360\n        /* \"@openzeppelin/contracts/token/ERC721/ERC721.sol\":6621:6628  tokenId */\n      dup4\n        /* \"@openzeppelin/contracts/token/ERC721/ERC721.sol\":6608:6620  _getApproved */\n      tag_148\n        /* \"@openzeppelin/contracts/token/ERC721/ERC721.sol\":6608:6629  _getApproved(tokenId) */\n      jump\t// in\n    tag_360:\n        /* \"@openzeppelin/contracts/token/ERC721/ERC721.sol\":6608:6640  _getApproved(tokenId) == spender */\n      0xffffffffffffffffffffffffffffffffffffffff\n      and\n      eq\n        /* \"@openzeppelin/contracts/token/ERC721/ERC721.sol\":6552:6640  owner == spender || isApprovedForAll(owner, spender) || _getApproved(tokenId) == spender */\n    tag_359:\n        /* \"@openzeppelin/contracts/token/ERC721/ERC721.sol\":6514:6641  spender != address(0) &&... */\n    tag_356:\n        /* \"@openzeppelin/contracts/token/ERC721/ERC721.sol\":6495:6641  return... */\n      swap1\n      pop\n        /* \"@openzeppelin/contracts/token/ERC721/ERC721.sol\":6376:6648  function _isAuthorized(address owner, address spender, uint256 tokenId) internal view virtual returns (bool) {... */\n      swap4\n      swap3\n      pop\n      pop\n      pop\n      jump\t// out\n        /* \"@openzeppelin/contracts/token/ERC721/ERC721.sol\":9955:10282  function _mint(address to, uint256 tokenId) internal {... */\n    tag_340:\n        /* \"@openzeppelin/contracts/token/ERC721/ERC721.sol\":10036:10037  0 */\n      0x00\n        /* \"@openzeppelin/contracts/token/ERC721/ERC721.sol\":10022:10038  to == address(0) */\n      0xffffffffffffffffffffffffffffffffffffffff\n      and\n        /* \"@openzeppelin/contracts/token/ERC721/ERC721.sol\":10022:10024  to */\n      dup3\n        /* \"@openzeppelin/contracts/token/ERC721/ERC721.sol\":10022:10038  to == address(0) */\n      0xffffffffffffffffffffffffffffffffffffffff\n      and\n      sub\n        /* \"@openzeppelin/contracts/token/ERC721/ERC721.sol\":10018:10105  if (to == address(0)) {... */\n      tag_362\n      jumpi\n        /* \"@openzeppelin/contracts/token/ERC721/ERC721.sol\":10091:10092  0 */\n      0x00\n        /* \"@openzeppelin/contracts/token/ERC721/ERC721.sol\":10061:10094  ERC721InvalidReceiver(address(0)) */\n      mload(0x40)\n      0x64a0ae9200000000000000000000000000000000000000000000000000000000\n      dup2\n      mstore\n      0x04\n      add\n      tag_363\n      swap2\n      swap1\n      tag_44\n      jump\t// in\n    tag_363:\n      mload(0x40)\n      dup1\n      swap2\n      sub\n      swap1\n      revert\n        /* \"@openzeppelin/contracts/token/ERC721/ERC721.sol\":10018:10105  if (to == address(0)) {... */\n    tag_362:\n        /* \"@openzeppelin/contracts/token/ERC721/ERC721.sol\":10114:10135  address previousOwner */\n      0x00\n        /* \"@openzeppelin/contracts/token/ERC721/ERC721.sol\":10138:10170  _update(to, tokenId, address(0)) */\n      tag_364\n        /* \"@openzeppelin/contracts/token/ERC721/ERC721.sol\":10146:10148  to */\n      dup4\n        /* \"@openzeppelin/contracts/token/ERC721/ERC721.sol\":10150:10157  tokenId */\n      dup4\n        /* \"@openzeppelin/contracts/token/ERC721/ERC721.sol\":10167:10168  0 */\n      0x00\n        /* \"@openzeppelin/contracts/token/ERC721/ERC721.sol\":10138:10145  _update */\n      tag_159\n        /* \"@openzeppelin/contracts/token/ERC721/ERC721.sol\":10138:10170  _update(to, tokenId, address(0)) */\n      jump\t// in\n    tag_364:\n        /* \"@openzeppelin/contracts/token/ERC721/ERC721.sol\":10114:10170  address previousOwner = _update(to, tokenId, address(0)) */\n      swap1\n      pop\n        /* \"@openzeppelin/contracts/token/ERC721/ERC721.sol\":10209:10210  0 */\n      0x00\n        /* \"@openzeppelin/contracts/token/ERC721/ERC721.sol\":10184:10211  previousOwner != address(0) */\n      0xffffffffffffffffffffffffffffffffffffffff\n      and\n        /* \"@openzeppelin/contracts/token/ERC721/ERC721.sol\":10184:10197  previousOwner */\n      dup2\n        /* \"@openzeppelin/contracts/token/ERC721/ERC721.sol\":10184:10211  previousOwner != address(0) */\n      0xffffffffffffffffffffffffffffffffffffffff\n      and\n      eq\n        /* \"@openzeppelin/contracts/token/ERC721/ERC721.sol\":10180:10276  if (previousOwner != address(0)) {... */\n      tag_365\n      jumpi\n        /* \"@openzeppelin/contracts/token/ERC721/ERC721.sol\":10262:10263  0 */\n      0x00\n        /* \"@openzeppelin/contracts/token/ERC721/ERC721.sol\":10234:10265  ERC721InvalidSender(address(0)) */\n      mload(0x40)\n      0x73c6ac6e00000000000000000000000000000000000000000000000000000000\n      dup2\n      mstore\n      0x04\n      add\n      tag_366\n      swap2\n      swap1\n      tag_44\n      jump\t// in\n    tag_366:\n      mload(0x40)\n      dup1\n      swap2\n      sub\n      swap1\n      revert\n        /* \"@openzeppelin/contracts/token/ERC721/ERC721.sol\":10180:10276  if (previousOwner != address(0)) {... */\n    tag_365:\n        /* \"@openzeppelin/contracts/token/ERC721/ERC721.sol\":10008:10282  {... */\n      pop\n        /* \"@openzeppelin/contracts/token/ERC721/ERC721.sol\":9955:10282  function _mint(address to, uint256 tokenId) internal {... */\n      pop\n      pop\n      jump\t// out\n        /* \"@openzeppelin/contracts/utils/math/Math.sol\":12214:13130  function log10(uint256 value) internal pure returns (uint256) {... */\n    tag_344:\n        /* \"@openzeppelin/contracts/utils/math/Math.sol\":12267:12274  uint256 */\n      0x00\n        /* \"@openzeppelin/contracts/utils/math/Math.sol\":12286:12300  uint256 result */\n      dup1\n        /* \"@openzeppelin/contracts/utils/math/Math.sol\":12303:12304  0 */\n      0x00\n        /* \"@openzeppelin/contracts/utils/math/Math.sol\":12286:12304  uint256 result = 0 */\n      swap1\n      pop\n        /* \"@openzeppelin/contracts/utils/math/Math.sol\":12351:12359  10 ** 64 */\n      0x184f03e93ff9f4daa797ed6e38ed64bf6a1f010000000000000000\n        /* \"@openzeppelin/contracts/utils/math/Math.sol\":12342:12347  value */\n      dup4\n        /* \"@openzeppelin/contracts/utils/math/Math.sol\":12342:12359  value >= 10 ** 64 */\n      lt\n        /* \"@openzeppelin/contracts/utils/math/Math.sol\":12338:12441  if (value >= 10 ** 64) {... */\n      tag_368\n      jumpi\n        /* \"@openzeppelin/contracts/utils/math/Math.sol\":12388:12396  10 ** 64 */\n      0x184f03e93ff9f4daa797ed6e38ed64bf6a1f010000000000000000\n        /* \"@openzeppelin/contracts/utils/math/Math.sol\":12379:12396  value /= 10 ** 64 */\n      dup4\n      dup2\n      tag_369\n      jumpi\n      tag_370\n      tag_353\n      jump\t// in\n    tag_370:\n    tag_369:\n      div\n      swap3\n      pop\n        /* \"@openzeppelin/contracts/utils/math/Math.sol\":12424:12426  64 */\n      0x40\n        /* \"@openzeppelin/contracts/utils/math/Math.sol\":12414:12426  result += 64 */\n      dup2\n      add\n      swap1\n      pop\n        /* \"@openzeppelin/contracts/utils/math/Math.sol\":12338:12441  if (value >= 10 ** 64) {... */\n    tag_368:\n        /* \"@openzeppelin/contracts/utils/math/Math.sol\":12467:12475  10 ** 32 */\n      0x04ee2d6d415b85acef8100000000\n        /* \"@openzeppelin/contracts/utils/math/Math.sol\":12458:12463  value */\n      dup4\n        /* \"@openzeppelin/contracts/utils/math/Math.sol\":12458:12475  value >= 10 ** 32 */\n      lt\n        /* \"@openzeppelin/contracts/utils/math/Math.sol\":12454:12557  if (value >= 10 ** 32) {... */\n      tag_371\n      jumpi\n        /* \"@openzeppelin/contracts/utils/math/Math.sol\":12504:12512  10 ** 32 */\n      0x04ee2d6d415b85acef8100000000\n        /* \"@openzeppelin/contracts/utils/math/Math.sol\":12495:12512  value /= 10 ** 32 */\n      dup4\n      dup2\n      tag_372\n      jumpi\n      tag_373\n      tag_353\n      jump\t// in\n    tag_373:\n    tag_372:\n      div\n      swap3\n      pop\n        /* \"@openzeppelin/contracts/utils/math/Math.sol\":12540:12542  32 */\n      0x20\n        /* \"@openzeppelin/contracts/utils/math/Math.sol\":12530:12542  result += 32 */\n      dup2\n      add\n      swap1\n      pop\n        /* \"@openzeppelin/contracts/utils/math/Math.sol\":12454:12557  if (value >= 10 ** 32) {... */\n    tag_371:\n        /* \"@openzeppelin/contracts/utils/math/Math.sol\":12583:12591  10 ** 16 */\n      0x2386f26fc10000\n        /* \"@openzeppelin/contracts/utils/math/Math.sol\":12574:12579  value */\n      dup4\n        /* \"@openzeppelin/contracts/utils/math/Math.sol\":12574:12591  value >= 10 ** 16 */\n      lt\n        /* \"@openzeppelin/contracts/utils/math/Math.sol\":12570:12673  if (value >= 10 ** 16) {... */\n      tag_374\n      jumpi\n        /* \"@openzeppelin/contracts/utils/math/Math.sol\":12620:12628  10 ** 16 */\n      0x2386f26fc10000\n        /* \"@openzeppelin/contracts/utils/math/Math.sol\":12611:12628  value /= 10 ** 16 */\n      dup4\n      dup2\n      tag_375\n      jumpi\n      tag_376\n      tag_353\n      jump\t// in\n    tag_376:\n    tag_375:\n      div\n      swap3\n      pop\n        /* \"@openzeppelin/contracts/utils/math/Math.sol\":12656:12658  16 */\n      0x10\n        /* \"@openzeppelin/contracts/utils/math/Math.sol\":12646:12658  result += 16 */\n      dup2\n      add\n      swap1\n      pop\n        /* \"@openzeppelin/contracts/utils/math/Math.sol\":12570:12673  if (value >= 10 ** 16) {... */\n    tag_374:\n        /* \"@openzeppelin/contracts/utils/math/Math.sol\":12699:12706  10 ** 8 */\n      0x05f5e100\n        /* \"@openzeppelin/contracts/utils/math/Math.sol\":12690:12695  value */\n      dup4\n        /* \"@openzeppelin/contracts/utils/math/Math.sol\":12690:12706  value >= 10 ** 8 */\n      lt\n        /* \"@openzeppelin/contracts/utils/math/Math.sol\":12686:12786  if (value >= 10 ** 8) {... */\n      tag_377\n      jumpi\n        /* \"@openzeppelin/contracts/utils/math/Math.sol\":12735:12742  10 ** 8 */\n      0x05f5e100\n        /* \"@openzeppelin/contracts/utils/math/Math.sol\":12726:12742  value /= 10 ** 8 */\n      dup4\n      dup2\n      tag_378\n      jumpi\n      tag_379\n      tag_353\n      jump\t// in\n    tag_379:\n    tag_378:\n      div\n      swap3\n      pop\n        /* \"@openzeppelin/contracts/utils/math/Math.sol\":12770:12771  8 */\n      0x08\n        /* \"@openzeppelin/contracts/utils/math/Math.sol\":12760:12771  result += 8 */\n      dup2\n      add\n      swap1\n      pop\n        /* \"@openzeppelin/contracts/utils/math/Math.sol\":12686:12786  if (value >= 10 ** 8) {... */\n    tag_377:\n        /* \"@openzeppelin/contracts/utils/math/Math.sol\":12812:12819  10 ** 4 */\n      0x2710\n        /* \"@openzeppelin/contracts/utils/math/Math.sol\":12803:12808  value */\n      dup4\n        /* \"@openzeppelin/contracts/utils/math/Math.sol\":12803:12819  value >= 10 ** 4 */\n      lt\n        /* \"@openzeppelin/contracts/utils/math/Math.sol\":12799:12899  if (value >= 10 ** 4) {... */\n      tag_380\n      jumpi\n        /* \"@openzeppelin/contracts/utils/math/Math.sol\":12848:12855  10 ** 4 */\n      0x2710\n        /* \"@openzeppelin/contracts/utils/math/Math.sol\":12839:12855  value /= 10 ** 4 */\n      dup4\n      dup2\n      tag_381\n      jumpi\n      tag_382\n      tag_353\n      jump\t// in\n    tag_382:\n    tag_381:\n      div\n      swap3\n      pop\n        /* \"@openzeppelin/contracts/utils/math/Math.sol\":12883:12884  4 */\n      0x04\n        /* \"@openzeppelin/contracts/utils/math/Math.sol\":12873:12884  result += 4 */\n      dup2\n      add\n      swap1\n      pop\n        /* \"@openzeppelin/contracts/utils/math/Math.sol\":12799:12899  if (value >= 10 ** 4) {... */\n    tag_380:\n        /* \"@openzeppelin/contracts/utils/math/Math.sol\":12925:12932  10 ** 2 */\n      0x64\n        /* \"@openzeppelin/contracts/utils/math/Math.sol\":12916:12921  value */\n      dup4\n        /* \"@openzeppelin/contracts/utils/math/Math.sol\":12916:12932  value >= 10 ** 2 */\n      lt\n        /* \"@openzeppelin/contracts/utils/math/Math.sol\":12912:13012  if (value >= 10 ** 2) {... */\n      tag_383\n      jumpi\n        /* \"@openzeppelin/contracts/utils/math/Math.sol\":12961:12968  10 ** 2 */\n      0x64\n        /* \"@openzeppelin/contracts/utils/math/Math.sol\":12952:12968  value /= 10 ** 2 */\n      dup4\n      dup2\n      tag_384\n      jumpi\n      tag_385\n      tag_353\n      jump\t// in\n    tag_385:\n    tag_384:\n      div\n      swap3\n      pop\n        /* \"@openzeppelin/contracts/utils/math/Math.sol\":12996:12997  2 */\n      0x02\n        /* \"@openzeppelin/contracts/utils/math/Math.sol\":12986:12997  result += 2 */\n      dup2\n      add\n      swap1\n      pop\n        /* \"@openzeppelin/contracts/utils/math/Math.sol\":12912:13012  if (value >= 10 ** 2) {... */\n    tag_383:\n        /* \"@openzeppelin/contracts/utils/math/Math.sol\":13038:13045  10 ** 1 */\n      0x0a\n        /* \"@openzeppelin/contracts/utils/math/Math.sol\":13029:13034  value */\n      dup4\n        /* \"@openzeppelin/contracts/utils/math/Math.sol\":13029:13045  value >= 10 ** 1 */\n      lt\n        /* \"@openzeppelin/contracts/utils/math/Math.sol\":13025:13091  if (value >= 10 ** 1) {... */\n      tag_386\n      jumpi\n        /* \"@openzeppelin/contracts/utils/math/Math.sol\":13075:13076  1 */\n      0x01\n        /* \"@openzeppelin/contracts/utils/math/Math.sol\":13065:13076  result += 1 */\n      dup2\n      add\n      swap1\n      pop\n        /* \"@openzeppelin/contracts/utils/math/Math.sol\":13025:13091  if (value >= 10 ** 1) {... */\n    tag_386:\n        /* \"@openzeppelin/contracts/utils/math/Math.sol\":13117:13123  result */\n      dup1\n        /* \"@openzeppelin/contracts/utils/math/Math.sol\":13110:13123  return result */\n      swap2\n      pop\n      pop\n        /* \"@openzeppelin/contracts/utils/math/Math.sol\":12214:13130  function log10(uint256 value) internal pure returns (uint256) {... */\n      swap2\n      swap1\n      pop\n      jump\t// out\n        /* \"#utility.yul\":7:82   */\n    tag_387:\n        /* \"#utility.yul\":40:46   */\n      0x00\n        /* \"#utility.yul\":73:75   */\n      0x40\n        /* \"#utility.yul\":67:76   */\n      mload\n        /* \"#utility.yul\":57:76   */\n      swap1\n      pop\n        /* \"#utility.yul\":7:82   */\n      swap1\n      jump\t// out\n        /* \"#utility.yul\":88:205   */\n    tag_388:\n        /* \"#utility.yul\":197:198   */\n      0x00\n        /* \"#utility.yul\":194:195   */\n      dup1\n        /* \"#utility.yul\":187:199   */\n      revert\n        /* \"#utility.yul\":211:328   */\n    tag_389:\n        /* \"#utility.yul\":320:321   */\n      0x00\n        /* \"#utility.yul\":317:318   */\n      dup1\n        /* \"#utility.yul\":310:322   */\n      revert\n        /* \"#utility.yul\":334:483   */\n    tag_390:\n        /* \"#utility.yul\":370:377   */\n      0x00\n        /* \"#utility.yul\":410:476   */\n      0xffffffff00000000000000000000000000000000000000000000000000000000\n        /* \"#utility.yul\":403:408   */\n      dup3\n        /* \"#utility.yul\":399:477   */\n      and\n        /* \"#utility.yul\":388:477   */\n      swap1\n      pop\n        /* \"#utility.yul\":334:483   */\n      swap2\n      swap1\n      pop\n      jump\t// out\n        /* \"#utility.yul\":489:609   */\n    tag_391:\n        /* \"#utility.yul\":561:584   */\n      tag_457\n        /* \"#utility.yul\":578:583   */\n      dup2\n        /* \"#utility.yul\":561:584   */\n      tag_390\n      jump\t// in\n    tag_457:\n        /* \"#utility.yul\":554:559   */\n      dup2\n        /* \"#utility.yul\":551:585   */\n      eq\n        /* \"#utility.yul\":541:603   */\n      tag_458\n      jumpi\n        /* \"#utility.yul\":599:600   */\n      0x00\n        /* \"#utility.yul\":596:597   */\n      dup1\n        /* \"#utility.yul\":589:601   */\n      revert\n        /* \"#utility.yul\":541:603   */\n    tag_458:\n        /* \"#utility.yul\":489:609   */\n      pop\n      jump\t// out\n        /* \"#utility.yul\":615:752   */\n    tag_392:\n        /* \"#utility.yul\":660:665   */\n      0x00\n        /* \"#utility.yul\":698:704   */\n      dup2\n        /* \"#utility.yul\":685:705   */\n      calldataload\n        /* \"#utility.yul\":676:705   */\n      swap1\n      pop\n        /* \"#utility.yul\":714:746   */\n      tag_460\n        /* \"#utility.yul\":740:745   */\n      dup2\n        /* \"#utility.yul\":714:746   */\n      tag_391\n      jump\t// in\n    tag_460:\n        /* \"#utility.yul\":615:752   */\n      swap3\n      swap2\n      pop\n      pop\n      jump\t// out\n        /* \"#utility.yul\":758:1085   */\n    tag_29:\n        /* \"#utility.yul\":816:822   */\n      0x00\n        /* \"#utility.yul\":865:867   */\n      0x20\n        /* \"#utility.yul\":853:862   */\n      dup3\n        /* \"#utility.yul\":844:851   */\n      dup5\n        /* \"#utility.yul\":840:863   */\n      sub\n        /* \"#utility.yul\":836:868   */\n      slt\n        /* \"#utility.yul\":833:952   */\n      iszero\n      tag_462\n      jumpi\n        /* \"#utility.yul\":871:950   */\n      tag_463\n      tag_388\n      jump\t// in\n    tag_463:\n        /* \"#utility.yul\":833:952   */\n    tag_462:\n        /* \"#utility.yul\":991:992   */\n      0x00\n        /* \"#utility.yul\":1016:1068   */\n      tag_464\n        /* \"#utility.yul\":1060:1067   */\n      dup5\n        /* \"#utility.yul\":1051:1057   */\n      dup3\n        /* \"#utility.yul\":1040:1049   */\n      dup6\n        /* \"#utility.yul\":1036:1058   */\n      add\n        /* \"#utility.yul\":1016:1068   */\n      tag_392\n      jump\t// in\n    tag_464:\n        /* \"#utility.yul\":1006:1068   */\n      swap2\n      pop\n        /* \"#utility.yul\":962:1078   */\n      pop\n        /* \"#utility.yul\":758:1085   */\n      swap3\n      swap2\n      pop\n      pop\n      jump\t// out\n        /* \"#utility.yul\":1091:1181   */\n    tag_393:\n        /* \"#utility.yul\":1125:1132   */\n      0x00\n        /* \"#utility.yul\":1168:1173   */\n      dup2\n        /* \"#utility.yul\":1161:1174   */\n      iszero\n        /* \"#utility.yul\":1154:1175   */\n      iszero\n        /* \"#utility.yul\":1143:1175   */\n      swap1\n      pop\n        /* \"#utility.yul\":1091:1181   */\n      swap2\n      swap1\n      pop\n      jump\t// out\n        /* \"#utility.yul\":1187:1296   */\n    tag_394:\n        /* \"#utility.yul\":1268:1289   */\n      tag_467\n        /* \"#utility.yul\":1283:1288   */\n      dup2\n        /* \"#utility.yul\":1268:1289   */\n      tag_393\n      jump\t// in\n    tag_467:\n        /* \"#utility.yul\":1263:1266   */\n      dup3\n        /* \"#utility.yul\":1256:1290   */\n      mstore\n        /* \"#utility.yul\":1187:1296   */\n      pop\n      pop\n      jump\t// out\n        /* \"#utility.yul\":1302:1512   */\n    tag_32:\n        /* \"#utility.yul\":1389:1393   */\n      0x00\n        /* \"#utility.yul\":1427:1429   */\n      0x20\n        /* \"#utility.yul\":1416:1425   */\n      dup3\n        /* \"#utility.yul\":1412:1430   */\n      add\n        /* \"#utility.yul\":1404:1430   */\n      swap1\n      pop\n        /* \"#utility.yul\":1440:1505   */\n      tag_469\n        /* \"#utility.yul\":1502:1503   */\n      0x00\n        /* \"#utility.yul\":1491:1500   */\n      dup4\n        /* \"#utility.yul\":1487:1504   */\n      add\n        /* \"#utility.yul\":1478:1484   */\n      dup5\n        /* \"#utility.yul\":1440:1505   */\n      tag_394\n      jump\t// in\n    tag_469:\n        /* \"#utility.yul\":1302:1512   */\n      swap3\n      swap2\n      pop\n      pop\n      jump\t// out\n        /* \"#utility.yul\":1518:1617   */\n    tag_395:\n        /* \"#utility.yul\":1570:1576   */\n      0x00\n        /* \"#utility.yul\":1604:1609   */\n      dup2\n        /* \"#utility.yul\":1598:1610   */\n      mload\n        /* \"#utility.yul\":1588:1610   */\n      swap1\n      pop\n        /* \"#utility.yul\":1518:1617   */\n      swap2\n      swap1\n      pop\n      jump\t// out\n        /* \"#utility.yul\":1623:1792   */\n    tag_396:\n        /* \"#utility.yul\":1707:1718   */\n      0x00\n        /* \"#utility.yul\":1741:1747   */\n      dup3\n        /* \"#utility.yul\":1736:1739   */\n      dup3\n        /* \"#utility.yul\":1729:1748   */\n      mstore\n        /* \"#utility.yul\":1781:1785   */\n      0x20\n        /* \"#utility.yul\":1776:1779   */\n      dup3\n        /* \"#utility.yul\":1772:1786   */\n      add\n        /* \"#utility.yul\":1757:1786   */\n      swap1\n      pop\n        /* \"#utility.yul\":1623:1792   */\n      swap3\n      swap2\n      pop\n      pop\n      jump\t// out\n        /* \"#utility.yul\":1798:2044   */\n    tag_397:\n        /* \"#utility.yul\":1879:1880   */\n      0x00\n        /* \"#utility.yul\":1889:2002   */\n    tag_473:\n        /* \"#utility.yul\":1903:1909   */\n      dup4\n        /* \"#utility.yul\":1900:1901   */\n      dup2\n        /* \"#utility.yul\":1897:1910   */\n      lt\n        /* \"#utility.yul\":1889:2002   */\n      iszero\n      tag_475\n      jumpi\n        /* \"#utility.yul\":1988:1989   */\n      dup1\n        /* \"#utility.yul\":1983:1986   */\n      dup3\n        /* \"#utility.yul\":1979:1990   */\n      add\n        /* \"#utility.yul\":1973:1991   */\n      mload\n        /* \"#utility.yul\":1969:1970   */\n      dup2\n        /* \"#utility.yul\":1964:1967   */\n      dup5\n        /* \"#utility.yul\":1960:1971   */\n      add\n        /* \"#utility.yul\":1953:1992   */\n      mstore\n        /* \"#utility.yul\":1925:1927   */\n      0x20\n        /* \"#utility.yul\":1922:1923   */\n      dup2\n        /* \"#utility.yul\":1918:1928   */\n      add\n        /* \"#utility.yul\":1913:1928   */\n      swap1\n      pop\n        /* \"#utility.yul\":1889:2002   */\n      jump(tag_473)\n    tag_475:\n        /* \"#utility.yul\":2036:2037   */\n      0x00\n        /* \"#utility.yul\":2027:2033   */\n      dup5\n        /* \"#utility.yul\":2022:2025   */\n      dup5\n        /* \"#utility.yul\":2018:2034   */\n      add\n        /* \"#utility.yul\":2011:2038   */\n      mstore\n        /* \"#utility.yul\":1860:2044   */\n      pop\n        /* \"#utility.yul\":1798:2044   */\n      pop\n      pop\n      pop\n      jump\t// out\n        /* \"#utility.yul\":2050:2152   */\n    tag_398:\n        /* \"#utility.yul\":2091:2097   */\n      0x00\n        /* \"#utility.yul\":2142:2144   */\n      0x1f\n        /* \"#utility.yul\":2138:2145   */\n      not\n        /* \"#utility.yul\":2133:2135   */\n      0x1f\n        /* \"#utility.yul\":2126:2131   */\n      dup4\n        /* \"#utility.yul\":2122:2136   */\n      add\n        /* \"#utility.yul\":2118:2146   */\n      and\n        /* \"#utility.yul\":2108:2146   */\n      swap1\n      pop\n        /* \"#utility.yul\":2050:2152   */\n      swap2\n      swap1\n      pop\n      jump\t// out\n        /* \"#utility.yul\":2158:2535   */\n    tag_399:\n        /* \"#utility.yul\":2246:2249   */\n      0x00\n        /* \"#utility.yul\":2274:2313   */\n      tag_478\n        /* \"#utility.yul\":2307:2312   */\n      dup3\n        /* \"#utility.yul\":2274:2313   */\n      tag_395\n      jump\t// in\n    tag_478:\n        /* \"#utility.yul\":2329:2400   */\n      tag_479\n        /* \"#utility.yul\":2393:2399   */\n      dup2\n        /* \"#utility.yul\":2388:2391   */\n      dup6\n        /* \"#utility.yul\":2329:2400   */\n      tag_396\n      jump\t// in\n    tag_479:\n        /* \"#utility.yul\":2322:2400   */\n      swap4\n      pop\n        /* \"#utility.yul\":2409:2474   */\n      tag_480\n        /* \"#utility.yul\":2467:2473   */\n      dup2\n        /* \"#utility.yul\":2462:2465   */\n      dup6\n        /* \"#utility.yul\":2455:2459   */\n      0x20\n        /* \"#utility.yul\":2448:2453   */\n      dup7\n        /* \"#utility.yul\":2444:2460   */\n      add\n        /* \"#utility.yul\":2409:2474   */\n      tag_397\n      jump\t// in\n    tag_480:\n        /* \"#utility.yul\":2499:2528   */\n      tag_481\n        /* \"#utility.yul\":2521:2527   */\n      dup2\n        /* \"#utility.yul\":2499:2528   */\n      tag_398\n      jump\t// in\n    tag_481:\n        /* \"#utility.yul\":2494:2497   */\n      dup5\n        /* \"#utility.yul\":2490:2529   */\n      add\n        /* \"#utility.yul\":2483:2529   */\n      swap2\n      pop\n        /* \"#utility.yul\":2250:2535   */\n      pop\n        /* \"#utility.yul\":2158:2535   */\n      swap3\n      swap2\n      pop\n      pop\n      jump\t// out\n        /* \"#utility.yul\":2541:2854   */\n    tag_37:\n        /* \"#utility.yul\":2654:2658   */\n      0x00\n        /* \"#utility.yul\":2692:2694   */\n      0x20\n        /* \"#utility.yul\":2681:2690   */\n      dup3\n        /* \"#utility.yul\":2677:2695   */\n      add\n        /* \"#utility.yul\":2669:2695   */\n      swap1\n      pop\n        /* \"#utility.yul\":2741:2750   */\n      dup2\n        /* \"#utility.yul\":2735:2739   */\n      dup2\n        /* \"#utility.yul\":2731:2751   */\n      sub\n        /* \"#utility.yul\":2727:2728   */\n      0x00\n        /* \"#utility.yul\":2716:2725   */\n      dup4\n        /* \"#utility.yul\":2712:2729   */\n      add\n        /* \"#utility.yul\":2705:2752   */\n      mstore\n        /* \"#utility.yul\":2769:2847   */\n      tag_483\n        /* \"#utility.yul\":2842:2846   */\n      dup2\n        /* \"#utility.yul\":2833:2839   */\n      dup5\n        /* \"#utility.yul\":2769:2847   */\n      tag_399\n      jump\t// in\n    tag_483:\n        /* \"#utility.yul\":2761:2847   */\n      swap1\n      pop\n        /* \"#utility.yul\":2541:2854   */\n      swap3\n      swap2\n      pop\n      pop\n      jump\t// out\n        /* \"#utility.yul\":2860:2937   */\n    tag_400:\n        /* \"#utility.yul\":2897:2904   */\n      0x00\n        /* \"#utility.yul\":2926:2931   */\n      dup2\n        /* \"#utility.yul\":2915:2931   */\n      swap1\n      pop\n        /* \"#utility.yul\":2860:2937   */\n      swap2\n      swap1\n      pop\n      jump\t// out\n        /* \"#utility.yul\":2943:3065   */\n    tag_401:\n        /* \"#utility.yul\":3016:3040   */\n      tag_486\n        /* \"#utility.yul\":3034:3039   */\n      dup2\n        /* \"#utility.yul\":3016:3040   */\n      tag_400\n      jump\t// in\n    tag_486:\n        /* \"#utility.yul\":3009:3014   */\n      dup2\n        /* \"#utility.yul\":3006:3041   */\n      eq\n        /* \"#utility.yul\":2996:3059   */\n      tag_487\n      jumpi\n        /* \"#utility.yul\":3055:3056   */\n      0x00\n        /* \"#utility.yul\":3052:3053   */\n      dup1\n        /* \"#utility.yul\":3045:3057   */\n      revert\n        /* \"#utility.yul\":2996:3059   */\n    tag_487:\n        /* \"#utility.yul\":2943:3065   */\n      pop\n      jump\t// out\n        /* \"#utility.yul\":3071:3210   */\n    tag_402:\n        /* \"#utility.yul\":3117:3122   */\n      0x00\n        /* \"#utility.yul\":3155:3161   */\n      dup2\n        /* \"#utility.yul\":3142:3162   */\n      calldataload\n        /* \"#utility.yul\":3133:3162   */\n      swap1\n      pop\n        /* \"#utility.yul\":3171:3204   */\n      tag_489\n        /* \"#utility.yul\":3198:3203   */\n      dup2\n        /* \"#utility.yul\":3171:3204   */\n      tag_401\n      jump\t// in\n    tag_489:\n        /* \"#utility.yul\":3071:3210   */\n      swap3\n      swap2\n      pop\n      pop\n      jump\t// out\n        /* \"#utility.yul\":3216:3545   */\n    tag_41:\n        /* \"#utility.yul\":3275:3281   */\n      0x00\n        /* \"#utility.yul\":3324:3326   */\n      0x20\n        /* \"#utility.yul\":3312:3321   */\n      dup3\n        /* \"#utility.yul\":3303:3310   */\n      dup5\n        /* \"#utility.yul\":3299:3322   */\n      sub\n        /* \"#utility.yul\":3295:3327   */\n      slt\n        /* \"#utility.yul\":3292:3411   */\n      iszero\n      tag_491\n      jumpi\n        /* \"#utility.yul\":3330:3409   */\n      tag_492\n      tag_388\n      jump\t// in\n    tag_492:\n        /* \"#utility.yul\":3292:3411   */\n    tag_491:\n        /* \"#utility.yul\":3450:3451   */\n      0x00\n        /* \"#utility.yul\":3475:3528   */\n      tag_493\n        /* \"#utility.yul\":3520:3527   */\n      dup5\n        /* \"#utility.yul\":3511:3517   */\n      dup3\n        /* \"#utility.yul\":3500:3509   */\n      dup6\n        /* \"#utility.yul\":3496:3518   */\n      add\n        /* \"#utility.yul\":3475:3528   */\n      tag_402\n      jump\t// in\n    tag_493:\n        /* \"#utility.yul\":3465:3528   */\n      swap2\n      pop\n        /* \"#utility.yul\":3421:3538   */\n      pop\n        /* \"#utility.yul\":3216:3545   */\n      swap3\n      swap2\n      pop\n      pop\n      jump\t// out\n        /* \"#utility.yul\":3551:3677   */\n    tag_403:\n        /* \"#utility.yul\":3588:3595   */\n      0x00\n        /* \"#utility.yul\":3628:3670   */\n      0xffffffffffffffffffffffffffffffffffffffff\n        /* \"#utility.yul\":3621:3626   */\n      dup3\n        /* \"#utility.yul\":3617:3671   */\n      and\n        /* \"#utility.yul\":3606:3671   */\n      swap1\n      pop\n        /* \"#utility.yul\":3551:3677   */\n      swap2\n      swap1\n      pop\n      jump\t// out\n        /* \"#utility.yul\":3683:3779   */\n    tag_404:\n        /* \"#utility.yul\":3720:3727   */\n      0x00\n        /* \"#utility.yul\":3749:3773   */\n      tag_496\n        /* \"#utility.yul\":3767:3772   */\n      dup3\n        /* \"#utility.yul\":3749:3773   */\n      tag_403\n      jump\t// in\n    tag_496:\n        /* \"#utility.yul\":3738:3773   */\n      swap1\n      pop\n        /* \"#utility.yul\":3683:3779   */\n      swap2\n      swap1\n      pop\n      jump\t// out\n        /* \"#utility.yul\":3785:3903   */\n    tag_405:\n        /* \"#utility.yul\":3872:3896   */\n      tag_498\n        /* \"#utility.yul\":3890:3895   */\n      dup2\n        /* \"#utility.yul\":3872:3896   */\n      tag_404\n      jump\t// in\n    tag_498:\n        /* \"#utility.yul\":3867:3870   */\n      dup3\n        /* \"#utility.yul\":3860:3897   */\n      mstore\n        /* \"#utility.yul\":3785:3903   */\n      pop\n      pop\n      jump\t// out\n        /* \"#utility.yul\":3909:4131   */\n    tag_44:\n        /* \"#utility.yul\":4002:4006   */\n      0x00\n        /* \"#utility.yul\":4040:4042   */\n      0x20\n        /* \"#utility.yul\":4029:4038   */\n      dup3\n        /* \"#utility.yul\":4025:4043   */\n      add\n        /* \"#utility.yul\":4017:4043   */\n      swap1\n      pop\n        /* \"#utility.yul\":4053:4124   */\n      tag_500\n        /* \"#utility.yul\":4121:4122   */\n      0x00\n        /* \"#utility.yul\":4110:4119   */\n      dup4\n        /* \"#utility.yul\":4106:4123   */\n      add\n        /* \"#utility.yul\":4097:4103   */\n      dup5\n        /* \"#utility.yul\":4053:4124   */\n      tag_405\n      jump\t// in\n    tag_500:\n        /* \"#utility.yul\":3909:4131   */\n      swap3\n      swap2\n      pop\n      pop\n      jump\t// out\n        /* \"#utility.yul\":4137:4259   */\n    tag_406:\n        /* \"#utility.yul\":4210:4234   */\n      tag_502\n        /* \"#utility.yul\":4228:4233   */\n      dup2\n        /* \"#utility.yul\":4210:4234   */\n      tag_404\n      jump\t// in\n    tag_502:\n        /* \"#utility.yul\":4203:4208   */\n      dup2\n        /* \"#utility.yul\":4200:4235   */\n      eq\n        /* \"#utility.yul\":4190:4253   */\n      tag_503\n      jumpi\n        /* \"#utility.yul\":4249:4250   */\n      0x00\n        /* \"#utility.yul\":4246:4247   */\n      dup1\n        /* \"#utility.yul\":4239:4251   */\n      revert\n        /* \"#utility.yul\":4190:4253   */\n    tag_503:\n        /* \"#utility.yul\":4137:4259   */\n      pop\n      jump\t// out\n        /* \"#utility.yul\":4265:4404   */\n    tag_407:\n        /* \"#utility.yul\":4311:4316   */\n      0x00\n        /* \"#utility.yul\":4349:4355   */\n      dup2\n        /* \"#utility.yul\":4336:4356   */\n      calldataload\n        /* \"#utility.yul\":4327:4356   */\n      swap1\n      pop\n        /* \"#utility.yul\":4365:4398   */\n      tag_505\n        /* \"#utility.yul\":4392:4397   */\n      dup2\n        /* \"#utility.yul\":4365:4398   */\n      tag_406\n      jump\t// in\n    tag_505:\n        /* \"#utility.yul\":4265:4404   */\n      swap3\n      swap2\n      pop\n      pop\n      jump\t// out\n        /* \"#utility.yul\":4410:4884   */\n    tag_48:\n        /* \"#utility.yul\":4478:4484   */\n      0x00\n        /* \"#utility.yul\":4486:4492   */\n      dup1\n        /* \"#utility.yul\":4535:4537   */\n      0x40\n        /* \"#utility.yul\":4523:4532   */\n      dup4\n        /* \"#utility.yul\":4514:4521   */\n      dup6\n        /* \"#utility.yul\":4510:4533   */\n      sub\n        /* \"#utility.yul\":4506:4538   */\n      slt\n        /* \"#utility.yul\":4503:4622   */\n      iszero\n      tag_507\n      jumpi\n        /* \"#utility.yul\":4541:4620   */\n      tag_508\n      tag_388\n      jump\t// in\n    tag_508:\n        /* \"#utility.yul\":4503:4622   */\n    tag_507:\n        /* \"#utility.yul\":4661:4662   */\n      0x00\n        /* \"#utility.yul\":4686:4739   */\n      tag_509\n        /* \"#utility.yul\":4731:4738   */\n      dup6\n        /* \"#utility.yul\":4722:4728   */\n      dup3\n        /* \"#utility.yul\":4711:4720   */\n      dup7\n        /* \"#utility.yul\":4707:4729   */\n      add\n        /* \"#utility.yul\":4686:4739   */\n      tag_407\n      jump\t// in\n    tag_509:\n        /* \"#utility.yul\":4676:4739   */\n      swap3\n      pop\n        /* \"#utility.yul\":4632:4749   */\n      pop\n        /* \"#utility.yul\":4788:4790   */\n      0x20\n        /* \"#utility.yul\":4814:4867   */\n      tag_510\n        /* \"#utility.yul\":4859:4866   */\n      dup6\n        /* \"#utility.yul\":4850:4856   */\n      dup3\n        /* \"#utility.yul\":4839:4848   */\n      dup7\n        /* \"#utility.yul\":4835:4857   */\n      add\n        /* \"#utility.yul\":4814:4867   */\n      tag_402\n      jump\t// in\n    tag_510:\n        /* \"#utility.yul\":4804:4867   */\n      swap2\n      pop\n        /* \"#utility.yul\":4759:4877   */\n      pop\n        /* \"#utility.yul\":4410:4884   */\n      swap3\n      pop\n      swap3\n      swap1\n      pop\n      jump\t// out\n        /* \"#utility.yul\":4890:5509   */\n    tag_53:\n        /* \"#utility.yul\":4967:4973   */\n      0x00\n        /* \"#utility.yul\":4975:4981   */\n      dup1\n        /* \"#utility.yul\":4983:4989   */\n      0x00\n        /* \"#utility.yul\":5032:5034   */\n      0x60\n        /* \"#utility.yul\":5020:5029   */\n      dup5\n        /* \"#utility.yul\":5011:5018   */\n      dup7\n        /* \"#utility.yul\":5007:5030   */\n      sub\n        /* \"#utility.yul\":5003:5035   */\n      slt\n        /* \"#utility.yul\":5000:5119   */\n      iszero\n      tag_512\n      jumpi\n        /* \"#utility.yul\":5038:5117   */\n      tag_513\n      tag_388\n      jump\t// in\n    tag_513:\n        /* \"#utility.yul\":5000:5119   */\n    tag_512:\n        /* \"#utility.yul\":5158:5159   */\n      0x00\n        /* \"#utility.yul\":5183:5236   */\n      tag_514\n        /* \"#utility.yul\":5228:5235   */\n      dup7\n        /* \"#utility.yul\":5219:5225   */\n      dup3\n        /* \"#utility.yul\":5208:5217   */\n      dup8\n        /* \"#utility.yul\":5204:5226   */\n      add\n        /* \"#utility.yul\":5183:5236   */\n      tag_407\n      jump\t// in\n    tag_514:\n        /* \"#utility.yul\":5173:5236   */\n      swap4\n      pop\n        /* \"#utility.yul\":5129:5246   */\n      pop\n        /* \"#utility.yul\":5285:5287   */\n      0x20\n        /* \"#utility.yul\":5311:5364   */\n      tag_515\n        /* \"#utility.yul\":5356:5363   */\n      dup7\n        /* \"#utility.yul\":5347:5353   */\n      dup3\n        /* \"#utility.yul\":5336:5345   */\n      dup8\n        /* \"#utility.yul\":5332:5354   */\n      add\n        /* \"#utility.yul\":5311:5364   */\n      tag_407\n      jump\t// in\n    tag_515:\n        /* \"#utility.yul\":5301:5364   */\n      swap3\n      pop\n        /* \"#utility.yul\":5256:5374   */\n      pop\n        /* \"#utility.yul\":5413:5415   */\n      0x40\n        /* \"#utility.yul\":5439:5492   */\n      tag_516\n        /* \"#utility.yul\":5484:5491   */\n      dup7\n        /* \"#utility.yul\":5475:5481   */\n      dup3\n        /* \"#utility.yul\":5464:5473   */\n      dup8\n        /* \"#utility.yul\":5460:5482   */\n      add\n        /* \"#utility.yul\":5439:5492   */\n      tag_402\n      jump\t// in\n    tag_516:\n        /* \"#utility.yul\":5429:5492   */\n      swap2\n      pop\n        /* \"#utility.yul\":5384:5502   */\n      pop\n        /* \"#utility.yul\":4890:5509   */\n      swap3\n      pop\n      swap3\n      pop\n      swap3\n      jump\t// out\n        /* \"#utility.yul\":5515:5633   */\n    tag_408:\n        /* \"#utility.yul\":5602:5626   */\n      tag_518\n        /* \"#utility.yul\":5620:5625   */\n      dup2\n        /* \"#utility.yul\":5602:5626   */\n      tag_400\n      jump\t// in\n    tag_518:\n        /* \"#utility.yul\":5597:5600   */\n      dup3\n        /* \"#utility.yul\":5590:5627   */\n      mstore\n        /* \"#utility.yul\":5515:5633   */\n      pop\n      pop\n      jump\t// out\n        /* \"#utility.yul\":5639:5971   */\n    tag_60:\n        /* \"#utility.yul\":5760:5764   */\n      0x00\n        /* \"#utility.yul\":5798:5800   */\n      0x40\n        /* \"#utility.yul\":5787:5796   */\n      dup3\n        /* \"#utility.yul\":5783:5801   */\n      add\n        /* \"#utility.yul\":5775:5801   */\n      swap1\n      pop\n        /* \"#utility.yul\":5811:5882   */\n      tag_520\n        /* \"#utility.yul\":5879:5880   */\n      0x00\n        /* \"#utility.yul\":5868:5877   */\n      dup4\n        /* \"#utility.yul\":5864:5881   */\n      add\n        /* \"#utility.yul\":5855:5861   */\n      dup6\n        /* \"#utility.yul\":5811:5882   */\n      tag_405\n      jump\t// in\n    tag_520:\n        /* \"#utility.yul\":5892:5964   */\n      tag_521\n        /* \"#utility.yul\":5960:5962   */\n      0x20\n        /* \"#utility.yul\":5949:5958   */\n      dup4\n        /* \"#utility.yul\":5945:5963   */\n      add\n        /* \"#utility.yul\":5936:5942   */\n      dup5\n        /* \"#utility.yul\":5892:5964   */\n      tag_408\n      jump\t// in\n    tag_521:\n        /* \"#utility.yul\":5639:5971   */\n      swap4\n      swap3\n      pop\n      pop\n      pop\n      jump\t// out\n        /* \"#utility.yul\":5977:6451   */\n    tag_64:\n        /* \"#utility.yul\":6045:6051   */\n      0x00\n        /* \"#utility.yul\":6053:6059   */\n      dup1\n        /* \"#utility.yul\":6102:6104   */\n      0x40\n        /* \"#utility.yul\":6090:6099   */\n      dup4\n        /* \"#utility.yul\":6081:6088   */\n      dup6\n        /* \"#utility.yul\":6077:6100   */\n      sub\n        /* \"#utility.yul\":6073:6105   */\n      slt\n        /* \"#utility.yul\":6070:6189   */\n      iszero\n      tag_523\n      jumpi\n        /* \"#utility.yul\":6108:6187   */\n      tag_524\n      tag_388\n      jump\t// in\n    tag_524:\n        /* \"#utility.yul\":6070:6189   */\n    tag_523:\n        /* \"#utility.yul\":6228:6229   */\n      0x00\n        /* \"#utility.yul\":6253:6306   */\n      tag_525\n        /* \"#utility.yul\":6298:6305   */\n      dup6\n        /* \"#utility.yul\":6289:6295   */\n      dup3\n        /* \"#utility.yul\":6278:6287   */\n      dup7\n        /* \"#utility.yul\":6274:6296   */\n      add\n        /* \"#utility.yul\":6253:6306   */\n      tag_402\n      jump\t// in\n    tag_525:\n        /* \"#utility.yul\":6243:6306   */\n      swap3\n      pop\n        /* \"#utility.yul\":6199:6316   */\n      pop\n        /* \"#utility.yul\":6355:6357   */\n      0x20\n        /* \"#utility.yul\":6381:6434   */\n      tag_526\n        /* \"#utility.yul\":6426:6433   */\n      dup6\n        /* \"#utility.yul\":6417:6423   */\n      dup3\n        /* \"#utility.yul\":6406:6415   */\n      dup7\n        /* \"#utility.yul\":6402:6424   */\n      add\n        /* \"#utility.yul\":6381:6434   */\n      tag_402\n      jump\t// in\n    tag_526:\n        /* \"#utility.yul\":6371:6434   */\n      swap2\n      pop\n        /* \"#utility.yul\":6326:6444   */\n      pop\n        /* \"#utility.yul\":5977:6451   */\n      swap3\n      pop\n      swap3\n      swap1\n      pop\n      jump\t// out\n        /* \"#utility.yul\":6457:6574   */\n    tag_409:\n        /* \"#utility.yul\":6566:6567   */\n      0x00\n        /* \"#utility.yul\":6563:6564   */\n      dup1\n        /* \"#utility.yul\":6556:6568   */\n      revert\n        /* \"#utility.yul\":6580:6697   */\n    tag_410:\n        /* \"#utility.yul\":6689:6690   */\n      0x00\n        /* \"#utility.yul\":6686:6687   */\n      dup1\n        /* \"#utility.yul\":6679:6691   */\n      revert\n        /* \"#utility.yul\":6703:6883   */\n    tag_347:\n        /* \"#utility.yul\":6751:6828   */\n      0x4e487b7100000000000000000000000000000000000000000000000000000000\n        /* \"#utility.yul\":6748:6749   */\n      0x00\n        /* \"#utility.yul\":6741:6829   */\n      mstore\n        /* \"#utility.yul\":6848:6852   */\n      0x41\n        /* \"#utility.yul\":6845:6846   */\n      0x04\n        /* \"#utility.yul\":6838:6853   */\n      mstore\n        /* \"#utility.yul\":6872:6876   */\n      0x24\n        /* \"#utility.yul\":6869:6870   */\n      0x00\n        /* \"#utility.yul\":6862:6877   */\n      revert\n        /* \"#utility.yul\":6889:7170   */\n    tag_411:\n        /* \"#utility.yul\":6972:6999   */\n      tag_531\n        /* \"#utility.yul\":6994:6998   */\n      dup3\n        /* \"#utility.yul\":6972:6999   */\n      tag_398\n      jump\t// in\n    tag_531:\n        /* \"#utility.yul\":6964:6970   */\n      dup2\n        /* \"#utility.yul\":6960:7000   */\n      add\n        /* \"#utility.yul\":7102:7108   */\n      dup2\n        /* \"#utility.yul\":7090:7100   */\n      dup2\n        /* \"#utility.yul\":7087:7109   */\n      lt\n        /* \"#utility.yul\":7066:7084   */\n      0xffffffffffffffff\n        /* \"#utility.yul\":7054:7064   */\n      dup3\n        /* \"#utility.yul\":7051:7085   */\n      gt\n        /* \"#utility.yul\":7048:7110   */\n      or\n        /* \"#utility.yul\":7045:7133   */\n      iszero\n      tag_532\n      jumpi\n        /* \"#utility.yul\":7113:7131   */\n      tag_533\n      tag_347\n      jump\t// in\n    tag_533:\n        /* \"#utility.yul\":7045:7133   */\n    tag_532:\n        /* \"#utility.yul\":7153:7163   */\n      dup1\n        /* \"#utility.yul\":7149:7151   */\n      0x40\n        /* \"#utility.yul\":7142:7164   */\n      mstore\n        /* \"#utility.yul\":6932:7170   */\n      pop\n        /* \"#utility.yul\":6889:7170   */\n      pop\n      pop\n      jump\t// out\n        /* \"#utility.yul\":7176:7305   */\n    tag_412:\n        /* \"#utility.yul\":7210:7216   */\n      0x00\n        /* \"#utility.yul\":7237:7257   */\n      tag_535\n      tag_387\n      jump\t// in\n    tag_535:\n        /* \"#utility.yul\":7227:7257   */\n      swap1\n      pop\n        /* \"#utility.yul\":7266:7299   */\n      tag_536\n        /* \"#utility.yul\":7294:7298   */\n      dup3\n        /* \"#utility.yul\":7286:7292   */\n      dup3\n        /* \"#utility.yul\":7266:7299   */\n      tag_411\n      jump\t// in\n    tag_536:\n        /* \"#utility.yul\":7176:7305   */\n      swap2\n      swap1\n      pop\n      jump\t// out\n        /* \"#utility.yul\":7311:7619   */\n    tag_413:\n        /* \"#utility.yul\":7373:7377   */\n      0x00\n        /* \"#utility.yul\":7463:7481   */\n      0xffffffffffffffff\n        /* \"#utility.yul\":7455:7461   */\n      dup3\n        /* \"#utility.yul\":7452:7482   */\n      gt\n        /* \"#utility.yul\":7449:7505   */\n      iszero\n      tag_538\n      jumpi\n        /* \"#utility.yul\":7485:7503   */\n      tag_539\n      tag_347\n      jump\t// in\n    tag_539:\n        /* \"#utility.yul\":7449:7505   */\n    tag_538:\n        /* \"#utility.yul\":7523:7552   */\n      tag_540\n        /* \"#utility.yul\":7545:7551   */\n      dup3\n        /* \"#utility.yul\":7523:7552   */\n      tag_398\n      jump\t// in\n    tag_540:\n        /* \"#utility.yul\":7515:7552   */\n      swap1\n      pop\n        /* \"#utility.yul\":7607:7611   */\n      0x20\n        /* \"#utility.yul\":7601:7605   */\n      dup2\n        /* \"#utility.yul\":7597:7612   */\n      add\n        /* \"#utility.yul\":7589:7612   */\n      swap1\n      pop\n        /* \"#utility.yul\":7311:7619   */\n      swap2\n      swap1\n      pop\n      jump\t// out\n        /* \"#utility.yul\":7625:7771   */\n    tag_414:\n        /* \"#utility.yul\":7722:7728   */\n      dup3\n        /* \"#utility.yul\":7717:7720   */\n      dup2\n        /* \"#utility.yul\":7712:7715   */\n      dup4\n        /* \"#utility.yul\":7699:7729   */\n      calldatacopy\n        /* \"#utility.yul\":7763:7764   */\n      0x00\n        /* \"#utility.yul\":7754:7760   */\n      dup4\n        /* \"#utility.yul\":7749:7752   */\n      dup4\n        /* \"#utility.yul\":7745:7761   */\n      add\n        /* \"#utility.yul\":7738:7765   */\n      mstore\n        /* \"#utility.yul\":7625:7771   */\n      pop\n      pop\n      pop\n      jump\t// out\n        /* \"#utility.yul\":7777:8202   */\n    tag_415:\n        /* \"#utility.yul\":7855:7860   */\n      0x00\n        /* \"#utility.yul\":7880:7946   */\n      tag_543\n        /* \"#utility.yul\":7896:7945   */\n      tag_544\n        /* \"#utility.yul\":7938:7944   */\n      dup5\n        /* \"#utility.yul\":7896:7945   */\n      tag_413\n      jump\t// in\n    tag_544:\n        /* \"#utility.yul\":7880:7946   */\n      tag_412\n      jump\t// in\n    tag_543:\n        /* \"#utility.yul\":7871:7946   */\n      swap1\n      pop\n        /* \"#utility.yul\":7969:7975   */\n      dup3\n        /* \"#utility.yul\":7962:7967   */\n      dup2\n        /* \"#utility.yul\":7955:7976   */\n      mstore\n        /* \"#utility.yul\":8007:8011   */\n      0x20\n        /* \"#utility.yul\":8000:8005   */\n      dup2\n        /* \"#utility.yul\":7996:8012   */\n      add\n        /* \"#utility.yul\":8045:8048   */\n      dup5\n        /* \"#utility.yul\":8036:8042   */\n      dup5\n        /* \"#utility.yul\":8031:8034   */\n      dup5\n        /* \"#utility.yul\":8027:8043   */\n      add\n        /* \"#utility.yul\":8024:8049   */\n      gt\n        /* \"#utility.yul\":8021:8133   */\n      iszero\n      tag_545\n      jumpi\n        /* \"#utility.yul\":8052:8131   */\n      tag_546\n      tag_410\n      jump\t// in\n    tag_546:\n        /* \"#utility.yul\":8021:8133   */\n    tag_545:\n        /* \"#utility.yul\":8142:8196   */\n      tag_547\n        /* \"#utility.yul\":8189:8195   */\n      dup5\n        /* \"#utility.yul\":8184:8187   */\n      dup3\n        /* \"#utility.yul\":8179:8182   */\n      dup6\n        /* \"#utility.yul\":8142:8196   */\n      tag_414\n      jump\t// in\n    tag_547:\n        /* \"#utility.yul\":7861:8202   */\n      pop\n        /* \"#utility.yul\":7777:8202   */\n      swap4\n      swap3\n      pop\n      pop\n      pop\n      jump\t// out\n        /* \"#utility.yul\":8222:8562   */\n    tag_416:\n        /* \"#utility.yul\":8278:8283   */\n      0x00\n        /* \"#utility.yul\":8327:8330   */\n      dup3\n        /* \"#utility.yul\":8320:8324   */\n      0x1f\n        /* \"#utility.yul\":8312:8318   */\n      dup4\n        /* \"#utility.yul\":8308:8325   */\n      add\n        /* \"#utility.yul\":8304:8331   */\n      slt\n        /* \"#utility.yul\":8294:8416   */\n      tag_549\n      jumpi\n        /* \"#utility.yul\":8335:8414   */\n      tag_550\n      tag_409\n      jump\t// in\n    tag_550:\n        /* \"#utility.yul\":8294:8416   */\n    tag_549:\n        /* \"#utility.yul\":8452:8458   */\n      dup2\n        /* \"#utility.yul\":8439:8459   */\n      calldataload\n        /* \"#utility.yul\":8477:8556   */\n      tag_551\n        /* \"#utility.yul\":8552:8555   */\n      dup5\n        /* \"#utility.yul\":8544:8550   */\n      dup3\n        /* \"#utility.yul\":8537:8541   */\n      0x20\n        /* \"#utility.yul\":8529:8535   */\n      dup7\n        /* \"#utility.yul\":8525:8542   */\n      add\n        /* \"#utility.yul\":8477:8556   */\n      tag_415\n      jump\t// in\n    tag_551:\n        /* \"#utility.yul\":8468:8556   */\n      swap2\n      pop\n        /* \"#utility.yul\":8284:8562   */\n      pop\n        /* \"#utility.yul\":8222:8562   */\n      swap3\n      swap2\n      pop\n      pop\n      jump\t// out\n        /* \"#utility.yul\":8568:9077   */\n    tag_74:\n        /* \"#utility.yul\":8637:8643   */\n      0x00\n        /* \"#utility.yul\":8686:8688   */\n      0x20\n        /* \"#utility.yul\":8674:8683   */\n      dup3\n        /* \"#utility.yul\":8665:8672   */\n      dup5\n        /* \"#utility.yul\":8661:8684   */\n      sub\n        /* \"#utility.yul\":8657:8689   */\n      slt\n        /* \"#utility.yul\":8654:8773   */\n      iszero\n      tag_553\n      jumpi\n        /* \"#utility.yul\":8692:8771   */\n      tag_554\n      tag_388\n      jump\t// in\n    tag_554:\n        /* \"#utility.yul\":8654:8773   */\n    tag_553:\n        /* \"#utility.yul\":8840:8841   */\n      0x00\n        /* \"#utility.yul\":8829:8838   */\n      dup3\n        /* \"#utility.yul\":8825:8842   */\n      add\n        /* \"#utility.yul\":8812:8843   */\n      calldataload\n        /* \"#utility.yul\":8870:8888   */\n      0xffffffffffffffff\n        /* \"#utility.yul\":8862:8868   */\n      dup2\n        /* \"#utility.yul\":8859:8889   */\n      gt\n        /* \"#utility.yul\":8856:8973   */\n      iszero\n      tag_555\n      jumpi\n        /* \"#utility.yul\":8892:8971   */\n      tag_556\n      tag_389\n      jump\t// in\n    tag_556:\n        /* \"#utility.yul\":8856:8973   */\n    tag_555:\n        /* \"#utility.yul\":8997:9060   */\n      tag_557\n        /* \"#utility.yul\":9052:9059   */\n      dup5\n        /* \"#utility.yul\":9043:9049   */\n      dup3\n        /* \"#utility.yul\":9032:9041   */\n      dup6\n        /* \"#utility.yul\":9028:9050   */\n      add\n        /* \"#utility.yul\":8997:9060   */\n      tag_416\n      jump\t// in\n    tag_557:\n        /* \"#utility.yul\":8987:9060   */\n      swap2\n      pop\n        /* \"#utility.yul\":8783:9070   */\n      pop\n        /* \"#utility.yul\":8568:9077   */\n      swap3\n      swap2\n      pop\n      pop\n      jump\t// out\n        /* \"#utility.yul\":9083:9737   */\n    tag_79:\n        /* \"#utility.yul\":9161:9167   */\n      0x00\n        /* \"#utility.yul\":9169:9175   */\n      dup1\n        /* \"#utility.yul\":9218:9220   */\n      0x40\n        /* \"#utility.yul\":9206:9215   */\n      dup4\n        /* \"#utility.yul\":9197:9204   */\n      dup6\n        /* \"#utility.yul\":9193:9216   */\n      sub\n        /* \"#utility.yul\":9189:9221   */\n      slt\n        /* \"#utility.yul\":9186:9305   */\n      iszero\n      tag_559\n      jumpi\n        /* \"#utility.yul\":9224:9303   */\n      tag_560\n      tag_388\n      jump\t// in\n    tag_560:\n        /* \"#utility.yul\":9186:9305   */\n    tag_559:\n        /* \"#utility.yul\":9372:9373   */\n      0x00\n        /* \"#utility.yul\":9361:9370   */\n      dup4\n        /* \"#utility.yul\":9357:9374   */\n      add\n        /* \"#utility.yul\":9344:9375   */\n      calldataload\n        /* \"#utility.yul\":9402:9420   */\n      0xffffffffffffffff\n        /* \"#utility.yul\":9394:9400   */\n      dup2\n        /* \"#utility.yul\":9391:9421   */\n      gt\n        /* \"#utility.yul\":9388:9505   */\n      iszero\n      tag_561\n      jumpi\n        /* \"#utility.yul\":9424:9503   */\n      tag_562\n      tag_389\n      jump\t// in\n    tag_562:\n        /* \"#utility.yul\":9388:9505   */\n    tag_561:\n        /* \"#utility.yul\":9529:9592   */\n      tag_563\n        /* \"#utility.yul\":9584:9591   */\n      dup6\n        /* \"#utility.yul\":9575:9581   */\n      dup3\n        /* \"#utility.yul\":9564:9573   */\n      dup7\n        /* \"#utility.yul\":9560:9582   */\n      add\n        /* \"#utility.yul\":9529:9592   */\n      tag_416\n      jump\t// in\n    tag_563:\n        /* \"#utility.yul\":9519:9592   */\n      swap3\n      pop\n        /* \"#utility.yul\":9315:9602   */\n      pop\n        /* \"#utility.yul\":9641:9643   */\n      0x20\n        /* \"#utility.yul\":9667:9720   */\n      tag_564\n        /* \"#utility.yul\":9712:9719   */\n      dup6\n        /* \"#utility.yul\":9703:9709   */\n      dup3\n        /* \"#utility.yul\":9692:9701   */\n      dup7\n        /* \"#utility.yul\":9688:9710   */\n      add\n        /* \"#utility.yul\":9667:9720   */\n      tag_402\n      jump\t// in\n    tag_564:\n        /* \"#utility.yul\":9657:9720   */\n      swap2\n      pop\n        /* \"#utility.yul\":9612:9730   */\n      pop\n        /* \"#utility.yul\":9083:9737   */\n      swap3\n      pop\n      swap3\n      swap1\n      pop\n      jump\t// out\n        /* \"#utility.yul\":9743:10072   */\n    tag_89:\n        /* \"#utility.yul\":9802:9808   */\n      0x00\n        /* \"#utility.yul\":9851:9853   */\n      0x20\n        /* \"#utility.yul\":9839:9848   */\n      dup3\n        /* \"#utility.yul\":9830:9837   */\n      dup5\n        /* \"#utility.yul\":9826:9849   */\n      sub\n        /* \"#utility.yul\":9822:9854   */\n      slt\n        /* \"#utility.yul\":9819:9938   */\n      iszero\n      tag_566\n      jumpi\n        /* \"#utility.yul\":9857:9936   */\n      tag_567\n      tag_388\n      jump\t// in\n    tag_567:\n        /* \"#utility.yul\":9819:9938   */\n    tag_566:\n        /* \"#utility.yul\":9977:9978   */\n      0x00\n        /* \"#utility.yul\":10002:10055   */\n      tag_568\n        /* \"#utility.yul\":10047:10054   */\n      dup5\n        /* \"#utility.yul\":10038:10044   */\n      dup3\n        /* \"#utility.yul\":10027:10036   */\n      dup6\n        /* \"#utility.yul\":10023:10045   */\n      add\n        /* \"#utility.yul\":10002:10055   */\n      tag_407\n      jump\t// in\n    tag_568:\n        /* \"#utility.yul\":9992:10055   */\n      swap2\n      pop\n        /* \"#utility.yul\":9948:10065   */\n      pop\n        /* \"#utility.yul\":9743:10072   */\n      swap3\n      swap2\n      pop\n      pop\n      jump\t// out\n        /* \"#utility.yul\":10078:10300   */\n    tag_92:\n        /* \"#utility.yul\":10171:10175   */\n      0x00\n        /* \"#utility.yul\":10209:10211   */\n      0x20\n        /* \"#utility.yul\":10198:10207   */\n      dup3\n        /* \"#utility.yul\":10194:10212   */\n      add\n        /* \"#utility.yul\":10186:10212   */\n      swap1\n      pop\n        /* \"#utility.yul\":10222:10293   */\n      tag_570\n        /* \"#utility.yul\":10290:10291   */\n      0x00\n        /* \"#utility.yul\":10279:10288   */\n      dup4\n        /* \"#utility.yul\":10275:10292   */\n      add\n        /* \"#utility.yul\":10266:10272   */\n      dup5\n        /* \"#utility.yul\":10222:10293   */\n      tag_408\n      jump\t// in\n    tag_570:\n        /* \"#utility.yul\":10078:10300   */\n      swap3\n      swap2\n      pop\n      pop\n      jump\t// out\n        /* \"#utility.yul\":10306:10422   */\n    tag_417:\n        /* \"#utility.yul\":10376:10397   */\n      tag_572\n        /* \"#utility.yul\":10391:10396   */\n      dup2\n        /* \"#utility.yul\":10376:10397   */\n      tag_393\n      jump\t// in\n    tag_572:\n        /* \"#utility.yul\":10369:10374   */\n      dup2\n        /* \"#utility.yul\":10366:10398   */\n      eq\n        /* \"#utility.yul\":10356:10416   */\n      tag_573\n      jumpi\n        /* \"#utility.yul\":10412:10413   */\n      0x00\n        /* \"#utility.yul\":10409:10410   */\n      dup1\n        /* \"#utility.yul\":10402:10414   */\n      revert\n        /* \"#utility.yul\":10356:10416   */\n    tag_573:\n        /* \"#utility.yul\":10306:10422   */\n      pop\n      jump\t// out\n        /* \"#utility.yul\":10428:10561   */\n    tag_418:\n        /* \"#utility.yul\":10471:10476   */\n      0x00\n        /* \"#utility.yul\":10509:10515   */\n      dup2\n        /* \"#utility.yul\":10496:10516   */\n      calldataload\n        /* \"#utility.yul\":10487:10516   */\n      swap1\n      pop\n        /* \"#utility.yul\":10525:10555   */\n      tag_575\n        /* \"#utility.yul\":10549:10554   */\n      dup2\n        /* \"#utility.yul\":10525:10555   */\n      tag_417\n      jump\t// in\n    tag_575:\n        /* \"#utility.yul\":10428:10561   */\n      swap3\n      swap2\n      pop\n      pop\n      jump\t// out\n        /* \"#utility.yul\":10567:11035   */\n    tag_104:\n        /* \"#utility.yul\":10632:10638   */\n      0x00\n        /* \"#utility.yul\":10640:10646   */\n      dup1\n        /* \"#utility.yul\":10689:10691   */\n      0x40\n        /* \"#utility.yul\":10677:10686   */\n      dup4\n        /* \"#utility.yul\":10668:10675   */\n      dup6\n        /* \"#utility.yul\":10664:10687   */\n      sub\n        /* \"#utility.yul\":10660:10692   */\n      slt\n        /* \"#utility.yul\":10657:10776   */\n      iszero\n      tag_577\n      jumpi\n        /* \"#utility.yul\":10695:10774   */\n      tag_578\n      tag_388\n      jump\t// in\n    tag_578:\n        /* \"#utility.yul\":10657:10776   */\n    tag_577:\n        /* \"#utility.yul\":10815:10816   */\n      0x00\n        /* \"#utility.yul\":10840:10893   */\n      tag_579\n        /* \"#utility.yul\":10885:10892   */\n      dup6\n        /* \"#utility.yul\":10876:10882   */\n      dup3\n        /* \"#utility.yul\":10865:10874   */\n      dup7\n        /* \"#utility.yul\":10861:10883   */\n      add\n        /* \"#utility.yul\":10840:10893   */\n      tag_407\n      jump\t// in\n    tag_579:\n        /* \"#utility.yul\":10830:10893   */\n      swap3\n      pop\n        /* \"#utility.yul\":10786:10903   */\n      pop\n        /* \"#utility.yul\":10942:10944   */\n      0x20\n        /* \"#utility.yul\":10968:11018   */\n      tag_580\n        /* \"#utility.yul\":11010:11017   */\n      dup6\n        /* \"#utility.yul\":11001:11007   */\n      dup3\n        /* \"#utility.yul\":10990:10999   */\n      dup7\n        /* \"#utility.yul\":10986:11008   */\n      add\n        /* \"#utility.yul\":10968:11018   */\n      tag_418\n      jump\t// in\n    tag_580:\n        /* \"#utility.yul\":10958:11018   */\n      swap2\n      pop\n        /* \"#utility.yul\":10913:11028   */\n      pop\n        /* \"#utility.yul\":10567:11035   */\n      swap3\n      pop\n      swap3\n      swap1\n      pop\n      jump\t// out\n        /* \"#utility.yul\":11041:11348   */\n    tag_419:\n        /* \"#utility.yul\":11102:11106   */\n      0x00\n        /* \"#utility.yul\":11192:11210   */\n      0xffffffffffffffff\n        /* \"#utility.yul\":11184:11190   */\n      dup3\n        /* \"#utility.yul\":11181:11211   */\n      gt\n        /* \"#utility.yul\":11178:11234   */\n      iszero\n      tag_582\n      jumpi\n        /* \"#utility.yul\":11214:11232   */\n      tag_583\n      tag_347\n      jump\t// in\n    tag_583:\n        /* \"#utility.yul\":11178:11234   */\n    tag_582:\n        /* \"#utility.yul\":11252:11281   */\n      tag_584\n        /* \"#utility.yul\":11274:11280   */\n      dup3\n        /* \"#utility.yul\":11252:11281   */\n      tag_398\n      jump\t// in\n    tag_584:\n        /* \"#utility.yul\":11244:11281   */\n      swap1\n      pop\n        /* \"#utility.yul\":11336:11340   */\n      0x20\n        /* \"#utility.yul\":11330:11334   */\n      dup2\n        /* \"#utility.yul\":11326:11341   */\n      add\n        /* \"#utility.yul\":11318:11341   */\n      swap1\n      pop\n        /* \"#utility.yul\":11041:11348   */\n      swap2\n      swap1\n      pop\n      jump\t// out\n        /* \"#utility.yul\":11354:11777   */\n    tag_420:\n        /* \"#utility.yul\":11431:11436   */\n      0x00\n        /* \"#utility.yul\":11456:11521   */\n      tag_586\n        /* \"#utility.yul\":11472:11520   */\n      tag_587\n        /* \"#utility.yul\":11513:11519   */\n      dup5\n        /* \"#utility.yul\":11472:11520   */\n      tag_419\n      jump\t// in\n    tag_587:\n        /* \"#utility.yul\":11456:11521   */\n      tag_412\n      jump\t// in\n    tag_586:\n        /* \"#utility.yul\":11447:11521   */\n      swap1\n      pop\n        /* \"#utility.yul\":11544:11550   */\n      dup3\n        /* \"#utility.yul\":11537:11542   */\n      dup2\n        /* \"#utility.yul\":11530:11551   */\n      mstore\n        /* \"#utility.yul\":11582:11586   */\n      0x20\n        /* \"#utility.yul\":11575:11580   */\n      dup2\n        /* \"#utility.yul\":11571:11587   */\n      add\n        /* \"#utility.yul\":11620:11623   */\n      dup5\n        /* \"#utility.yul\":11611:11617   */\n      dup5\n        /* \"#utility.yul\":11606:11609   */\n      dup5\n        /* \"#utility.yul\":11602:11618   */\n      add\n        /* \"#utility.yul\":11599:11624   */\n      gt\n        /* \"#utility.yul\":11596:11708   */\n      iszero\n      tag_588\n      jumpi\n        /* \"#utility.yul\":11627:11706   */\n      tag_589\n      tag_410\n      jump\t// in\n    tag_589:\n        /* \"#utility.yul\":11596:11708   */\n    tag_588:\n        /* \"#utility.yul\":11717:11771   */\n      tag_590\n        /* \"#utility.yul\":11764:11770   */\n      dup5\n        /* \"#utility.yul\":11759:11762   */\n      dup3\n        /* \"#utility.yul\":11754:11757   */\n      dup6\n        /* \"#utility.yul\":11717:11771   */\n      tag_414\n      jump\t// in\n    tag_590:\n        /* \"#utility.yul\":11437:11777   */\n      pop\n        /* \"#utility.yul\":11354:11777   */\n      swap4\n      swap3\n      pop\n      pop\n      pop\n      jump\t// out\n        /* \"#utility.yul\":11796:12134   */\n    tag_421:\n        /* \"#utility.yul\":11851:11856   */\n      0x00\n        /* \"#utility.yul\":11900:11903   */\n      dup3\n        /* \"#utility.yul\":11893:11897   */\n      0x1f\n        /* \"#utility.yul\":11885:11891   */\n      dup4\n        /* \"#utility.yul\":11881:11898   */\n      add\n        /* \"#utility.yul\":11877:11904   */\n      slt\n        /* \"#utility.yul\":11867:11989   */\n      tag_592\n      jumpi\n        /* \"#utility.yul\":11908:11987   */\n      tag_593\n      tag_409\n      jump\t// in\n    tag_593:\n        /* \"#utility.yul\":11867:11989   */\n    tag_592:\n        /* \"#utility.yul\":12025:12031   */\n      dup2\n        /* \"#utility.yul\":12012:12032   */\n      calldataload\n        /* \"#utility.yul\":12050:12128   */\n      tag_594\n        /* \"#utility.yul\":12124:12127   */\n      dup5\n        /* \"#utility.yul\":12116:12122   */\n      dup3\n        /* \"#utility.yul\":12109:12113   */\n      0x20\n        /* \"#utility.yul\":12101:12107   */\n      dup7\n        /* \"#utility.yul\":12097:12114   */\n      add\n        /* \"#utility.yul\":12050:12128   */\n      tag_420\n      jump\t// in\n    tag_594:\n        /* \"#utility.yul\":12041:12128   */\n      swap2\n      pop\n        /* \"#utility.yul\":11857:12134   */\n      pop\n        /* \"#utility.yul\":11796:12134   */\n      swap3\n      swap2\n      pop\n      pop\n      jump\t// out\n        /* \"#utility.yul\":12140:13083   */\n    tag_116:\n        /* \"#utility.yul\":12235:12241   */\n      0x00\n        /* \"#utility.yul\":12243:12249   */\n      dup1\n        /* \"#utility.yul\":12251:12257   */\n      0x00\n        /* \"#utility.yul\":12259:12265   */\n      dup1\n        /* \"#utility.yul\":12308:12311   */\n      0x80\n        /* \"#utility.yul\":12296:12305   */\n      dup6\n        /* \"#utility.yul\":12287:12294   */\n      dup8\n        /* \"#utility.yul\":12283:12306   */\n      sub\n        /* \"#utility.yul\":12279:12312   */\n      slt\n        /* \"#utility.yul\":12276:12396   */\n      iszero\n      tag_596\n      jumpi\n        /* \"#utility.yul\":12315:12394   */\n      tag_597\n      tag_388\n      jump\t// in\n    tag_597:\n        /* \"#utility.yul\":12276:12396   */\n    tag_596:\n        /* \"#utility.yul\":12435:12436   */\n      0x00\n        /* \"#utility.yul\":12460:12513   */\n      tag_598\n        /* \"#utility.yul\":12505:12512   */\n      dup8\n        /* \"#utility.yul\":12496:12502   */\n      dup3\n        /* \"#utility.yul\":12485:12494   */\n      dup9\n        /* \"#utility.yul\":12481:12503   */\n      add\n        /* \"#utility.yul\":12460:12513   */\n      tag_407\n      jump\t// in\n    tag_598:\n        /* \"#utility.yul\":12450:12513   */\n      swap5\n      pop\n        /* \"#utility.yul\":12406:12523   */\n      pop\n        /* \"#utility.yul\":12562:12564   */\n      0x20\n        /* \"#utility.yul\":12588:12641   */\n      tag_599\n        /* \"#utility.yul\":12633:12640   */\n      dup8\n        /* \"#utility.yul\":12624:12630   */\n      dup3\n        /* \"#utility.yul\":12613:12622   */\n      dup9\n        /* \"#utility.yul\":12609:12631   */\n      add\n        /* \"#utility.yul\":12588:12641   */\n      tag_407\n      jump\t// in\n    tag_599:\n        /* \"#utility.yul\":12578:12641   */\n      swap4\n      pop\n        /* \"#utility.yul\":12533:12651   */\n      pop\n        /* \"#utility.yul\":12690:12692   */\n      0x40\n        /* \"#utility.yul\":12716:12769   */\n      tag_600\n        /* \"#utility.yul\":12761:12768   */\n      dup8\n        /* \"#utility.yul\":12752:12758   */\n      dup3\n        /* \"#utility.yul\":12741:12750   */\n      dup9\n        /* \"#utility.yul\":12737:12759   */\n      add\n        /* \"#utility.yul\":12716:12769   */\n      tag_402\n      jump\t// in\n    tag_600:\n        /* \"#utility.yul\":12706:12769   */\n      swap3\n      pop\n        /* \"#utility.yul\":12661:12779   */\n      pop\n        /* \"#utility.yul\":12846:12848   */\n      0x60\n        /* \"#utility.yul\":12835:12844   */\n      dup6\n        /* \"#utility.yul\":12831:12849   */\n      add\n        /* \"#utility.yul\":12818:12850   */\n      calldataload\n        /* \"#utility.yul\":12877:12895   */\n      0xffffffffffffffff\n        /* \"#utility.yul\":12869:12875   */\n      dup2\n        /* \"#utility.yul\":12866:12896   */\n      gt\n        /* \"#utility.yul\":12863:12980   */\n      iszero\n      tag_601\n      jumpi\n        /* \"#utility.yul\":12899:12978   */\n      tag_602\n      tag_389\n      jump\t// in\n    tag_602:\n        /* \"#utility.yul\":12863:12980   */\n    tag_601:\n        /* \"#utility.yul\":13004:13066   */\n      tag_603\n        /* \"#utility.yul\":13058:13065   */\n      dup8\n        /* \"#utility.yul\":13049:13055   */\n      dup3\n        /* \"#utility.yul\":13038:13047   */\n      dup9\n        /* \"#utility.yul\":13034:13056   */\n      add\n        /* \"#utility.yul\":13004:13066   */\n      tag_421\n      jump\t// in\n    tag_603:\n        /* \"#utility.yul\":12994:13066   */\n      swap2\n      pop\n        /* \"#utility.yul\":12789:13076   */\n      pop\n        /* \"#utility.yul\":12140:13083   */\n      swap3\n      swap6\n      swap2\n      swap5\n      pop\n      swap3\n      pop\n      jump\t// out\n        /* \"#utility.yul\":13089:13563   */\n    tag_130:\n        /* \"#utility.yul\":13157:13163   */\n      0x00\n        /* \"#utility.yul\":13165:13171   */\n      dup1\n        /* \"#utility.yul\":13214:13216   */\n      0x40\n        /* \"#utility.yul\":13202:13211   */\n      dup4\n        /* \"#utility.yul\":13193:13200   */\n      dup6\n        /* \"#utility.yul\":13189:13212   */\n      sub\n        /* \"#utility.yul\":13185:13217   */\n      slt\n        /* \"#utility.yul\":13182:13301   */\n      iszero\n      tag_605\n      jumpi\n        /* \"#utility.yul\":13220:13299   */\n      tag_606\n      tag_388\n      jump\t// in\n    tag_606:\n        /* \"#utility.yul\":13182:13301   */\n    tag_605:\n        /* \"#utility.yul\":13340:13341   */\n      0x00\n        /* \"#utility.yul\":13365:13418   */\n      tag_607\n        /* \"#utility.yul\":13410:13417   */\n      dup6\n        /* \"#utility.yul\":13401:13407   */\n      dup3\n        /* \"#utility.yul\":13390:13399   */\n      dup7\n        /* \"#utility.yul\":13386:13408   */\n      add\n        /* \"#utility.yul\":13365:13418   */\n      tag_407\n      jump\t// in\n    tag_607:\n        /* \"#utility.yul\":13355:13418   */\n      swap3\n      pop\n        /* \"#utility.yul\":13311:13428   */\n      pop\n        /* \"#utility.yul\":13467:13469   */\n      0x20\n        /* \"#utility.yul\":13493:13546   */\n      tag_608\n        /* \"#utility.yul\":13538:13545   */\n      dup6\n        /* \"#utility.yul\":13529:13535   */\n      dup3\n        /* \"#utility.yul\":13518:13527   */\n      dup7\n        /* \"#utility.yul\":13514:13536   */\n      add\n        /* \"#utility.yul\":13493:13546   */\n      tag_407\n      jump\t// in\n    tag_608:\n        /* \"#utility.yul\":13483:13546   */\n      swap2\n      pop\n        /* \"#utility.yul\":13438:13556   */\n      pop\n        /* \"#utility.yul\":13089:13563   */\n      swap3\n      pop\n      swap3\n      swap1\n      pop\n      jump\t// out\n        /* \"#utility.yul\":13569:13749   */\n    tag_422:\n        /* \"#utility.yul\":13617:13694   */\n      0x4e487b7100000000000000000000000000000000000000000000000000000000\n        /* \"#utility.yul\":13614:13615   */\n      0x00\n        /* \"#utility.yul\":13607:13695   */\n      mstore\n        /* \"#utility.yul\":13714:13718   */\n      0x22\n        /* \"#utility.yul\":13711:13712   */\n      0x04\n        /* \"#utility.yul\":13704:13719   */\n      mstore\n        /* \"#utility.yul\":13738:13742   */\n      0x24\n        /* \"#utility.yul\":13735:13736   */\n      0x00\n        /* \"#utility.yul\":13728:13743   */\n      revert\n        /* \"#utility.yul\":13755:14075   */\n    tag_139:\n        /* \"#utility.yul\":13799:13805   */\n      0x00\n        /* \"#utility.yul\":13836:13837   */\n      0x02\n        /* \"#utility.yul\":13830:13834   */\n      dup3\n        /* \"#utility.yul\":13826:13838   */\n      div\n        /* \"#utility.yul\":13816:13838   */\n      swap1\n      pop\n        /* \"#utility.yul\":13883:13884   */\n      0x01\n        /* \"#utility.yul\":13877:13881   */\n      dup3\n        /* \"#utility.yul\":13873:13885   */\n      and\n        /* \"#utility.yul\":13904:13922   */\n      dup1\n        /* \"#utility.yul\":13894:13975   */\n      tag_611\n      jumpi\n        /* \"#utility.yul\":13960:13964   */\n      0x7f\n        /* \"#utility.yul\":13952:13958   */\n      dup3\n        /* \"#utility.yul\":13948:13965   */\n      and\n        /* \"#utility.yul\":13938:13965   */\n      swap2\n      pop\n        /* \"#utility.yul\":13894:13975   */\n    tag_611:\n        /* \"#utility.yul\":14022:14024   */\n      0x20\n        /* \"#utility.yul\":14014:14020   */\n      dup3\n        /* \"#utility.yul\":14011:14025   */\n      lt\n        /* \"#utility.yul\":13991:14009   */\n      dup2\n        /* \"#utility.yul\":13988:14026   */\n      sub\n        /* \"#utility.yul\":13985:14069   */\n      tag_612\n      jumpi\n        /* \"#utility.yul\":14041:14059   */\n      tag_613\n      tag_422\n      jump\t// in\n    tag_613:\n        /* \"#utility.yul\":13985:14069   */\n    tag_612:\n        /* \"#utility.yul\":13806:14075   */\n      pop\n        /* \"#utility.yul\":13755:14075   */\n      swap2\n      swap1\n      pop\n      jump\t// out\n        /* \"#utility.yul\":14081:14523   */\n    tag_162:\n        /* \"#utility.yul\":14230:14234   */\n      0x00\n        /* \"#utility.yul\":14268:14270   */\n      0x60\n        /* \"#utility.yul\":14257:14266   */\n      dup3\n        /* \"#utility.yul\":14253:14271   */\n      add\n        /* \"#utility.yul\":14245:14271   */\n      swap1\n      pop\n        /* \"#utility.yul\":14281:14352   */\n      tag_615\n        /* \"#utility.yul\":14349:14350   */\n      0x00\n        /* \"#utility.yul\":14338:14347   */\n      dup4\n        /* \"#utility.yul\":14334:14351   */\n      add\n        /* \"#utility.yul\":14325:14331   */\n      dup7\n        /* \"#utility.yul\":14281:14352   */\n      tag_405\n      jump\t// in\n    tag_615:\n        /* \"#utility.yul\":14362:14434   */\n      tag_616\n        /* \"#utility.yul\":14430:14432   */\n      0x20\n        /* \"#utility.yul\":14419:14428   */\n      dup4\n        /* \"#utility.yul\":14415:14433   */\n      add\n        /* \"#utility.yul\":14406:14412   */\n      dup6\n        /* \"#utility.yul\":14362:14434   */\n      tag_408\n      jump\t// in\n    tag_616:\n        /* \"#utility.yul\":14444:14516   */\n      tag_617\n        /* \"#utility.yul\":14512:14514   */\n      0x40\n        /* \"#utility.yul\":14501:14510   */\n      dup4\n        /* \"#utility.yul\":14497:14515   */\n      add\n        /* \"#utility.yul\":14488:14494   */\n      dup5\n        /* \"#utility.yul\":14444:14516   */\n      tag_405\n      jump\t// in\n    tag_617:\n        /* \"#utility.yul\":14081:14523   */\n      swap5\n      swap4\n      pop\n      pop\n      pop\n      pop\n      jump\t// out\n        /* \"#utility.yul\":14529:14709   */\n    tag_423:\n        /* \"#utility.yul\":14577:14654   */\n      0x4e487b7100000000000000000000000000000000000000000000000000000000\n        /* \"#utility.yul\":14574:14575   */\n      0x00\n        /* \"#utility.yul\":14567:14655   */\n      mstore\n        /* \"#utility.yul\":14674:14678   */\n      0x11\n        /* \"#utility.yul\":14671:14672   */\n      0x04\n        /* \"#utility.yul\":14664:14679   */\n      mstore\n        /* \"#utility.yul\":14698:14702   */\n      0x24\n        /* \"#utility.yul\":14695:14696   */\n      0x00\n        /* \"#utility.yul\":14688:14703   */\n      revert\n        /* \"#utility.yul\":14715:15125   */\n    tag_165:\n        /* \"#utility.yul\":14755:14762   */\n      0x00\n        /* \"#utility.yul\":14778:14798   */\n      tag_620\n        /* \"#utility.yul\":14796:14797   */\n      dup3\n        /* \"#utility.yul\":14778:14798   */\n      tag_400\n      jump\t// in\n    tag_620:\n        /* \"#utility.yul\":14773:14798   */\n      swap2\n      pop\n        /* \"#utility.yul\":14812:14832   */\n      tag_621\n        /* \"#utility.yul\":14830:14831   */\n      dup4\n        /* \"#utility.yul\":14812:14832   */\n      tag_400\n      jump\t// in\n    tag_621:\n        /* \"#utility.yul\":14807:14832   */\n      swap3\n      pop\n        /* \"#utility.yul\":14867:14868   */\n      dup3\n        /* \"#utility.yul\":14864:14865   */\n      dup3\n        /* \"#utility.yul\":14860:14869   */\n      mul\n        /* \"#utility.yul\":14889:14919   */\n      tag_622\n        /* \"#utility.yul\":14907:14918   */\n      dup2\n        /* \"#utility.yul\":14889:14919   */\n      tag_400\n      jump\t// in\n    tag_622:\n        /* \"#utility.yul\":14878:14919   */\n      swap2\n      pop\n        /* \"#utility.yul\":15068:15069   */\n      dup3\n        /* \"#utility.yul\":15059:15066   */\n      dup3\n        /* \"#utility.yul\":15055:15070   */\n      div\n        /* \"#utility.yul\":15052:15053   */\n      dup5\n        /* \"#utility.yul\":15049:15071   */\n      eq\n        /* \"#utility.yul\":15029:15030   */\n      dup4\n        /* \"#utility.yul\":15022:15031   */\n      iszero\n        /* \"#utility.yul\":15002:15085   */\n      or\n        /* \"#utility.yul\":14979:15118   */\n      tag_623\n      jumpi\n        /* \"#utility.yul\":15098:15116   */\n      tag_624\n      tag_423\n      jump\t// in\n    tag_624:\n        /* \"#utility.yul\":14979:15118   */\n    tag_623:\n        /* \"#utility.yul\":14763:15125   */\n      pop\n        /* \"#utility.yul\":14715:15125   */\n      swap3\n      swap2\n      pop\n      pop\n      jump\t// out\n        /* \"#utility.yul\":15131:15311   */\n    tag_353:\n        /* \"#utility.yul\":15179:15256   */\n      0x4e487b7100000000000000000000000000000000000000000000000000000000\n        /* \"#utility.yul\":15176:15177   */\n      0x00\n        /* \"#utility.yul\":15169:15257   */\n      mstore\n        /* \"#utility.yul\":15276:15280   */\n      0x12\n        /* \"#utility.yul\":15273:15274   */\n      0x04\n        /* \"#utility.yul\":15266:15281   */\n      mstore\n        /* \"#utility.yul\":15300:15304   */\n      0x24\n        /* \"#utility.yul\":15297:15298   */\n      0x00\n        /* \"#utility.yul\":15290:15305   */\n      revert\n        /* \"#utility.yul\":15317:15502   */\n    tag_167:\n        /* \"#utility.yul\":15357:15358   */\n      0x00\n        /* \"#utility.yul\":15374:15394   */\n      tag_627\n        /* \"#utility.yul\":15392:15393   */\n      dup3\n        /* \"#utility.yul\":15374:15394   */\n      tag_400\n      jump\t// in\n    tag_627:\n        /* \"#utility.yul\":15369:15394   */\n      swap2\n      pop\n        /* \"#utility.yul\":15408:15428   */\n      tag_628\n        /* \"#utility.yul\":15426:15427   */\n      dup4\n        /* \"#utility.yul\":15408:15428   */\n      tag_400\n      jump\t// in\n    tag_628:\n        /* \"#utility.yul\":15403:15428   */\n      swap3\n      pop\n        /* \"#utility.yul\":15447:15448   */\n      dup3\n        /* \"#utility.yul\":15437:15472   */\n      tag_629\n      jumpi\n        /* \"#utility.yul\":15452:15470   */\n      tag_630\n      tag_353\n      jump\t// in\n    tag_630:\n        /* \"#utility.yul\":15437:15472   */\n    tag_629:\n        /* \"#utility.yul\":15494:15495   */\n      dup3\n        /* \"#utility.yul\":15491:15492   */\n      dup3\n        /* \"#utility.yul\":15487:15496   */\n      div\n        /* \"#utility.yul\":15482:15496   */\n      swap1\n      pop\n        /* \"#utility.yul\":15317:15502   */\n      swap3\n      swap2\n      pop\n      pop\n      jump\t// out\n        /* \"#utility.yul\":15508:15649   */\n    tag_424:\n        /* \"#utility.yul\":15557:15561   */\n      0x00\n        /* \"#utility.yul\":15580:15583   */\n      dup2\n        /* \"#utility.yul\":15572:15583   */\n      swap1\n      pop\n        /* \"#utility.yul\":15603:15606   */\n      dup2\n        /* \"#utility.yul\":15600:15601   */\n      0x00\n        /* \"#utility.yul\":15593:15607   */\n      mstore\n        /* \"#utility.yul\":15637:15641   */\n      0x20\n        /* \"#utility.yul\":15634:15635   */\n      0x00\n        /* \"#utility.yul\":15624:15642   */\n      keccak256\n        /* \"#utility.yul\":15616:15642   */\n      swap1\n      pop\n        /* \"#utility.yul\":15508:15649   */\n      swap2\n      swap1\n      pop\n      jump\t// out\n        /* \"#utility.yul\":15655:15748   */\n    tag_425:\n        /* \"#utility.yul\":15692:15698   */\n      0x00\n        /* \"#utility.yul\":15739:15741   */\n      0x20\n        /* \"#utility.yul\":15734:15736   */\n      0x1f\n        /* \"#utility.yul\":15727:15732   */\n      dup4\n        /* \"#utility.yul\":15723:15737   */\n      add\n        /* \"#utility.yul\":15719:15742   */\n      div\n        /* \"#utility.yul\":15709:15742   */\n      swap1\n      pop\n        /* \"#utility.yul\":15655:15748   */\n      swap2\n      swap1\n      pop\n      jump\t// out\n        /* \"#utility.yul\":15754:15861   */\n    tag_426:\n        /* \"#utility.yul\":15798:15806   */\n      0x00\n        /* \"#utility.yul\":15848:15853   */\n      dup3\n        /* \"#utility.yul\":15842:15846   */\n      dup3\n        /* \"#utility.yul\":15838:15854   */\n      shl\n        /* \"#utility.yul\":15817:15854   */\n      swap1\n      pop\n        /* \"#utility.yul\":15754:15861   */\n      swap3\n      swap2\n      pop\n      pop\n      jump\t// out\n        /* \"#utility.yul\":15867:16260   */\n    tag_427:\n        /* \"#utility.yul\":15936:15942   */\n      0x00\n        /* \"#utility.yul\":15986:15987   */\n      0x08\n        /* \"#utility.yul\":15974:15984   */\n      dup4\n        /* \"#utility.yul\":15970:15988   */\n      mul\n        /* \"#utility.yul\":16009:16106   */\n      tag_635\n        /* \"#utility.yul\":16039:16105   */\n      0xffffffffffffffffffffffffffffffffffffffffffffffffffffffffffffffff\n        /* \"#utility.yul\":16028:16037   */\n      dup3\n        /* \"#utility.yul\":16009:16106   */\n      tag_426\n      jump\t// in\n    tag_635:\n        /* \"#utility.yul\":16127:16166   */\n      tag_636\n        /* \"#utility.yul\":16157:16165   */\n      dup7\n        /* \"#utility.yul\":16146:16155   */\n      dup4\n        /* \"#utility.yul\":16127:16166   */\n      tag_426\n      jump\t// in\n    tag_636:\n        /* \"#utility.yul\":16115:16166   */\n      swap6\n      pop\n        /* \"#utility.yul\":16199:16203   */\n      dup1\n        /* \"#utility.yul\":16195:16204   */\n      not\n        /* \"#utility.yul\":16188:16193   */\n      dup5\n        /* \"#utility.yul\":16184:16205   */\n      and\n        /* \"#utility.yul\":16175:16205   */\n      swap4\n      pop\n        /* \"#utility.yul\":16248:16252   */\n      dup1\n        /* \"#utility.yul\":16238:16246   */\n      dup7\n        /* \"#utility.yul\":16234:16253   */\n      and\n        /* \"#utility.yul\":16227:16232   */\n      dup5\n        /* \"#utility.yul\":16224:16254   */\n      or\n        /* \"#utility.yul\":16214:16254   */\n      swap3\n      pop\n        /* \"#utility.yul\":15943:16260   */\n      pop\n      pop\n        /* \"#utility.yul\":15867:16260   */\n      swap4\n      swap3\n      pop\n      pop\n      pop\n      jump\t// out\n        /* \"#utility.yul\":16266:16326   */\n    tag_428:\n        /* \"#utility.yul\":16294:16297   */\n      0x00\n        /* \"#utility.yul\":16315:16320   */\n      dup2\n        /* \"#utility.yul\":16308:16320   */\n      swap1\n      pop\n        /* \"#utility.yul\":16266:16326   */\n      swap2\n      swap1\n      pop\n      jump\t// out\n        /* \"#utility.yul\":16332:16474   */\n    tag_429:\n        /* \"#utility.yul\":16382:16391   */\n      0x00\n        /* \"#utility.yul\":16415:16468   */\n      tag_639\n        /* \"#utility.yul\":16433:16467   */\n      tag_640\n        /* \"#utility.yul\":16442:16466   */\n      tag_641\n        /* \"#utility.yul\":16460:16465   */\n      dup5\n        /* \"#utility.yul\":16442:16466   */\n      tag_400\n      jump\t// in\n    tag_641:\n        /* \"#utility.yul\":16433:16467   */\n      tag_428\n      jump\t// in\n    tag_640:\n        /* \"#utility.yul\":16415:16468   */\n      tag_400\n      jump\t// in\n    tag_639:\n        /* \"#utility.yul\":16402:16468   */\n      swap1\n      pop\n        /* \"#utility.yul\":16332:16474   */\n      swap2\n      swap1\n      pop\n      jump\t// out\n        /* \"#utility.yul\":16480:16555   */\n    tag_430:\n        /* \"#utility.yul\":16523:16526   */\n      0x00\n        /* \"#utility.yul\":16544:16549   */\n      dup2\n        /* \"#utility.yul\":16537:16549   */\n      swap1\n      pop\n        /* \"#utility.yul\":16480:16555   */\n      swap2\n      swap1\n      pop\n      jump\t// out\n        /* \"#utility.yul\":16561:16830   */\n    tag_431:\n        /* \"#utility.yul\":16671:16710   */\n      tag_644\n        /* \"#utility.yul\":16702:16709   */\n      dup4\n        /* \"#utility.yul\":16671:16710   */\n      tag_429\n      jump\t// in\n    tag_644:\n        /* \"#utility.yul\":16732:16823   */\n      tag_645\n        /* \"#utility.yul\":16781:16822   */\n      tag_646\n        /* \"#utility.yul\":16805:16821   */\n      dup3\n        /* \"#utility.yul\":16781:16822   */\n      tag_430\n      jump\t// in\n    tag_646:\n        /* \"#utility.yul\":16773:16779   */\n      dup5\n        /* \"#utility.yul\":16766:16770   */\n      dup5\n        /* \"#utility.yul\":16760:16771   */\n      sload\n        /* \"#utility.yul\":16732:16823   */\n      tag_427\n      jump\t// in\n    tag_645:\n        /* \"#utility.yul\":16726:16730   */\n      dup3\n        /* \"#utility.yul\":16719:16824   */\n      sstore\n        /* \"#utility.yul\":16637:16830   */\n      pop\n        /* \"#utility.yul\":16561:16830   */\n      pop\n      pop\n      pop\n      jump\t// out\n        /* \"#utility.yul\":16836:16909   */\n    tag_432:\n        /* \"#utility.yul\":16881:16884   */\n      0x00\n        /* \"#utility.yul\":16836:16909   */\n      swap1\n      jump\t// out\n        /* \"#utility.yul\":16915:17104   */\n    tag_433:\n        /* \"#utility.yul\":16992:17024   */\n      tag_649\n      tag_432\n      jump\t// in\n    tag_649:\n        /* \"#utility.yul\":17033:17098   */\n      tag_650\n        /* \"#utility.yul\":17091:17097   */\n      dup2\n        /* \"#utility.yul\":17083:17089   */\n      dup5\n        /* \"#utility.yul\":17077:17081   */\n      dup5\n        /* \"#utility.yul\":17033:17098   */\n      tag_431\n      jump\t// in\n    tag_650:\n        /* \"#utility.yul\":16968:17104   */\n      pop\n        /* \"#utility.yul\":16915:17104   */\n      pop\n      pop\n      jump\t// out\n        /* \"#utility.yul\":17110:17296   */\n    tag_434:\n        /* \"#utility.yul\":17170:17290   */\n    tag_652:\n        /* \"#utility.yul\":17187:17190   */\n      dup2\n        /* \"#utility.yul\":17180:17185   */\n      dup2\n        /* \"#utility.yul\":17177:17191   */\n      lt\n        /* \"#utility.yul\":17170:17290   */\n      iszero\n      tag_654\n      jumpi\n        /* \"#utility.yul\":17241:17280   */\n      tag_655\n        /* \"#utility.yul\":17278:17279   */\n      0x00\n        /* \"#utility.yul\":17271:17276   */\n      dup3\n        /* \"#utility.yul\":17241:17280   */\n      tag_433\n      jump\t// in\n    tag_655:\n        /* \"#utility.yul\":17214:17215   */\n      0x01\n        /* \"#utility.yul\":17207:17212   */\n      dup2\n        /* \"#utility.yul\":17203:17216   */\n      add\n        /* \"#utility.yul\":17194:17216   */\n      swap1\n      pop\n        /* \"#utility.yul\":17170:17290   */\n      jump(tag_652)\n    tag_654:\n        /* \"#utility.yul\":17110:17296   */\n      pop\n      pop\n      jump\t// out\n        /* \"#utility.yul\":17302:17845   */\n    tag_435:\n        /* \"#utility.yul\":17403:17405   */\n      0x1f\n        /* \"#utility.yul\":17398:17401   */\n      dup3\n        /* \"#utility.yul\":17395:17406   */\n      gt\n        /* \"#utility.yul\":17392:17838   */\n      iszero\n      tag_657\n      jumpi\n        /* \"#utility.yul\":17437:17475   */\n      tag_658\n        /* \"#utility.yul\":17469:17474   */\n      dup2\n        /* \"#utility.yul\":17437:17475   */\n      tag_424\n      jump\t// in\n    tag_658:\n        /* \"#utility.yul\":17521:17550   */\n      tag_659\n        /* \"#utility.yul\":17539:17549   */\n      dup5\n        /* \"#utility.yul\":17521:17550   */\n      tag_425\n      jump\t// in\n    tag_659:\n        /* \"#utility.yul\":17511:17519   */\n      dup2\n        /* \"#utility.yul\":17507:17551   */\n      add\n        /* \"#utility.yul\":17704:17706   */\n      0x20\n        /* \"#utility.yul\":17692:17702   */\n      dup6\n        /* \"#utility.yul\":17689:17707   */\n      lt\n        /* \"#utility.yul\":17686:17735   */\n      iszero\n      tag_660\n      jumpi\n        /* \"#utility.yul\":17725:17733   */\n      dup2\n        /* \"#utility.yul\":17710:17733   */\n      swap1\n      pop\n        /* \"#utility.yul\":17686:17735   */\n    tag_660:\n        /* \"#utility.yul\":17748:17828   */\n      tag_661\n        /* \"#utility.yul\":17804:17826   */\n      tag_662\n        /* \"#utility.yul\":17822:17825   */\n      dup6\n        /* \"#utility.yul\":17804:17826   */\n      tag_425\n      jump\t// in\n    tag_662:\n        /* \"#utility.yul\":17794:17802   */\n      dup4\n        /* \"#utility.yul\":17790:17827   */\n      add\n        /* \"#utility.yul\":17777:17788   */\n      dup3\n        /* \"#utility.yul\":17748:17828   */\n      tag_434\n      jump\t// in\n    tag_661:\n        /* \"#utility.yul\":17407:17838   */\n      pop\n      pop\n        /* \"#utility.yul\":17392:17838   */\n    tag_657:\n        /* \"#utility.yul\":17302:17845   */\n      pop\n      pop\n      pop\n      jump\t// out\n        /* \"#utility.yul\":17851:17968   */\n    tag_436:\n        /* \"#utility.yul\":17905:17913   */\n      0x00\n        /* \"#utility.yul\":17955:17960   */\n      dup3\n        /* \"#utility.yul\":17949:17953   */\n      dup3\n        /* \"#utility.yul\":17945:17961   */\n      shr\n        /* \"#utility.yul\":17924:17961   */\n      swap1\n      pop\n        /* \"#utility.yul\":17851:17968   */\n      swap3\n      swap2\n      pop\n      pop\n      jump\t// out\n        /* \"#utility.yul\":17974:18143   */\n    tag_437:\n        /* \"#utility.yul\":18018:18024   */\n      0x00\n        /* \"#utility.yul\":18051:18102   */\n      tag_665\n        /* \"#utility.yul\":18099:18100   */\n      0x00\n        /* \"#utility.yul\":18095:18101   */\n      not\n        /* \"#utility.yul\":18087:18092   */\n      dup5\n        /* \"#utility.yul\":18084:18085   */\n      0x08\n        /* \"#utility.yul\":18080:18093   */\n      mul\n        /* \"#utility.yul\":18051:18102   */\n      tag_436\n      jump\t// in\n    tag_665:\n        /* \"#utility.yul\":18047:18103   */\n      not\n        /* \"#utility.yul\":18132:18136   */\n      dup1\n        /* \"#utility.yul\":18126:18130   */\n      dup4\n        /* \"#utility.yul\":18122:18137   */\n      and\n        /* \"#utility.yul\":18112:18137   */\n      swap2\n      pop\n        /* \"#utility.yul\":18025:18143   */\n      pop\n        /* \"#utility.yul\":17974:18143   */\n      swap3\n      swap2\n      pop\n      pop\n      jump\t// out\n        /* \"#utility.yul\":18148:18443   */\n    tag_438:\n        /* \"#utility.yul\":18224:18228   */\n      0x00\n        /* \"#utility.yul\":18370:18399   */\n      tag_667\n        /* \"#utility.yul\":18395:18398   */\n      dup4\n        /* \"#utility.yul\":18389:18393   */\n      dup4\n        /* \"#utility.yul\":18370:18399   */\n      tag_437\n      jump\t// in\n    tag_667:\n        /* \"#utility.yul\":18362:18399   */\n      swap2\n      pop\n        /* \"#utility.yul\":18432:18435   */\n      dup3\n        /* \"#utility.yul\":18429:18430   */\n      0x02\n        /* \"#utility.yul\":18425:18436   */\n      mul\n        /* \"#utility.yul\":18419:18423   */\n      dup3\n        /* \"#utility.yul\":18416:18437   */\n      or\n        /* \"#utility.yul\":18408:18437   */\n      swap1\n      pop\n        /* \"#utility.yul\":18148:18443   */\n      swap3\n      swap2\n      pop\n      pop\n      jump\t// out\n        /* \"#utility.yul\":18448:19843   */\n    tag_172:\n        /* \"#utility.yul\":18565:18602   */\n      tag_669\n        /* \"#utility.yul\":18598:18601   */\n      dup3\n        /* \"#utility.yul\":18565:18602   */\n      tag_395\n      jump\t// in\n    tag_669:\n        /* \"#utility.yul\":18667:18685   */\n      0xffffffffffffffff\n        /* \"#utility.yul\":18659:18665   */\n      dup2\n        /* \"#utility.yul\":18656:18686   */\n      gt\n        /* \"#utility.yul\":18653:18709   */\n      iszero\n      tag_670\n      jumpi\n        /* \"#utility.yul\":18689:18707   */\n      tag_671\n      tag_347\n      jump\t// in\n    tag_671:\n        /* \"#utility.yul\":18653:18709   */\n    tag_670:\n        /* \"#utility.yul\":18733:18771   */\n      tag_672\n        /* \"#utility.yul\":18765:18769   */\n      dup3\n        /* \"#utility.yul\":18759:18770   */\n      sload\n        /* \"#utility.yul\":18733:18771   */\n      tag_139\n      jump\t// in\n    tag_672:\n        /* \"#utility.yul\":18818:18885   */\n      tag_673\n        /* \"#utility.yul\":18878:18884   */\n      dup3\n        /* \"#utility.yul\":18870:18876   */\n      dup3\n        /* \"#utility.yul\":18864:18868   */\n      dup6\n        /* \"#utility.yul\":18818:18885   */\n      tag_435\n      jump\t// in\n    tag_673:\n        /* \"#utility.yul\":18912:18913   */\n      0x00\n        /* \"#utility.yul\":18936:18940   */\n      0x20\n        /* \"#utility.yul\":18923:18940   */\n      swap1\n      pop\n        /* \"#utility.yul\":18968:18970   */\n      0x1f\n        /* \"#utility.yul\":18960:18966   */\n      dup4\n        /* \"#utility.yul\":18957:18971   */\n      gt\n        /* \"#utility.yul\":18985:18986   */\n      0x01\n        /* \"#utility.yul\":18980:19598   */\n      dup2\n      eq\n      tag_675\n      jumpi\n        /* \"#utility.yul\":19642:19643   */\n      0x00\n        /* \"#utility.yul\":19659:19665   */\n      dup5\n        /* \"#utility.yul\":19656:19733   */\n      iszero\n      tag_676\n      jumpi\n        /* \"#utility.yul\":19708:19717   */\n      dup3\n        /* \"#utility.yul\":19703:19706   */\n      dup8\n        /* \"#utility.yul\":19699:19718   */\n      add\n        /* \"#utility.yul\":19693:19719   */\n      mload\n        /* \"#utility.yul\":19684:19719   */\n      swap1\n      pop\n        /* \"#utility.yul\":19656:19733   */\n    tag_676:\n        /* \"#utility.yul\":19759:19826   */\n      tag_677\n        /* \"#utility.yul\":19819:19825   */\n      dup6\n        /* \"#utility.yul\":19812:19817   */\n      dup3\n        /* \"#utility.yul\":19759:19826   */\n      tag_438\n      jump\t// in\n    tag_677:\n        /* \"#utility.yul\":19753:19757   */\n      dup7\n        /* \"#utility.yul\":19746:19827   */\n      sstore\n        /* \"#utility.yul\":19615:19837   */\n      pop\n        /* \"#utility.yul\":18950:19837   */\n      jump(tag_674)\n        /* \"#utility.yul\":18980:19598   */\n    tag_675:\n        /* \"#utility.yul\":19032:19036   */\n      0x1f\n        /* \"#utility.yul\":19028:19037   */\n      not\n        /* \"#utility.yul\":19020:19026   */\n      dup5\n        /* \"#utility.yul\":19016:19038   */\n      and\n        /* \"#utility.yul\":19066:19103   */\n      tag_678\n        /* \"#utility.yul\":19098:19102   */\n      dup7\n        /* \"#utility.yul\":19066:19103   */\n      tag_424\n      jump\t// in\n    tag_678:\n        /* \"#utility.yul\":19125:19126   */\n      0x00\n        /* \"#utility.yul\":19139:19347   */\n    tag_679:\n        /* \"#utility.yul\":19153:19160   */\n      dup3\n        /* \"#utility.yul\":19150:19151   */\n      dup2\n        /* \"#utility.yul\":19147:19161   */\n      lt\n        /* \"#utility.yul\":19139:19347   */\n      iszero\n      tag_681\n      jumpi\n        /* \"#utility.yul\":19232:19241   */\n      dup5\n        /* \"#utility.yul\":19227:19230   */\n      dup10\n        /* \"#utility.yul\":19223:19242   */\n      add\n        /* \"#utility.yul\":19217:19243   */\n      mload\n        /* \"#utility.yul\":19209:19215   */\n      dup3\n        /* \"#utility.yul\":19202:19244   */\n      sstore\n        /* \"#utility.yul\":19283:19284   */\n      0x01\n        /* \"#utility.yul\":19275:19281   */\n      dup3\n        /* \"#utility.yul\":19271:19285   */\n      add\n        /* \"#utility.yul\":19261:19285   */\n      swap2\n      pop\n        /* \"#utility.yul\":19330:19332   */\n      0x20\n        /* \"#utility.yul\":19319:19328   */\n      dup6\n        /* \"#utility.yul\":19315:19333   */\n      add\n        /* \"#utility.yul\":19302:19333   */\n      swap5\n      pop\n        /* \"#utility.yul\":19176:19180   */\n      0x20\n        /* \"#utility.yul\":19173:19174   */\n      dup2\n        /* \"#utility.yul\":19169:19181   */\n      add\n        /* \"#utility.yul\":19164:19181   */\n      swap1\n      pop\n        /* \"#utility.yul\":19139:19347   */\n      jump(tag_679)\n    tag_681:\n        /* \"#utility.yul\":19375:19381   */\n      dup7\n        /* \"#utility.yul\":19366:19373   */\n      dup4\n        /* \"#utility.yul\":19363:19382   */\n      lt\n        /* \"#utility.yul\":19360:19539   */\n      iszero\n      tag_682\n      jumpi\n        /* \"#utility.yul\":19433:19442   */\n      dup5\n        /* \"#utility.yul\":19428:19431   */\n      dup10\n        /* \"#utility.yul\":19424:19443   */\n      add\n        /* \"#utility.yul\":19418:19444   */\n      mload\n        /* \"#utility.yul\":19476:19524   */\n      tag_683\n        /* \"#utility.yul\":19518:19522   */\n      0x1f\n        /* \"#utility.yul\":19510:19516   */\n      dup10\n        /* \"#utility.yul\":19506:19523   */\n      and\n        /* \"#utility.yul\":19495:19504   */\n      dup3\n        /* \"#utility.yul\":19476:19524   */\n      tag_437\n      jump\t// in\n    tag_683:\n        /* \"#utility.yul\":19468:19474   */\n      dup4\n        /* \"#utility.yul\":19461:19525   */\n      sstore\n        /* \"#utility.yul\":19383:19539   */\n      pop\n        /* \"#utility.yul\":19360:19539   */\n    tag_682:\n        /* \"#utility.yul\":19585:19586   */\n      0x01\n        /* \"#utility.yul\":19581:19582   */\n      0x02\n        /* \"#utility.yul\":19573:19579   */\n      dup9\n        /* \"#utility.yul\":19569:19583   */\n      mul\n        /* \"#utility.yul\":19565:19587   */\n      add\n        /* \"#utility.yul\":19559:19563   */\n      dup9\n        /* \"#utility.yul\":19552:19588   */\n      sstore\n        /* \"#utility.yul\":18987:19598   */\n      pop\n      pop\n      pop\n        /* \"#utility.yul\":18950:19837   */\n    tag_674:\n      pop\n        /* \"#utility.yul\":18540:19843   */\n      pop\n      pop\n      pop\n        /* \"#utility.yul\":18448:19843   */\n      pop\n      pop\n      jump\t// out\n        /* \"#utility.yul\":19849:20022   */\n    tag_439:\n        /* \"#utility.yul\":19989:20014   */\n      0x43616e6e6f742062757920796f7572206f776e204e4654000000000000000000\n        /* \"#utility.yul\":19985:19986   */\n      0x00\n        /* \"#utility.yul\":19977:19983   */\n      dup3\n        /* \"#utility.yul\":19973:19987   */\n      add\n        /* \"#utility.yul\":19966:20015   */\n      mstore\n        /* \"#utility.yul\":19849:20022   */\n      pop\n      jump\t// out\n        /* \"#utility.yul\":20028:20394   */\n    tag_440:\n        /* \"#utility.yul\":20170:20173   */\n      0x00\n        /* \"#utility.yul\":20191:20258   */\n      tag_686\n        /* \"#utility.yul\":20255:20257   */\n      0x17\n        /* \"#utility.yul\":20250:20253   */\n      dup4\n        /* \"#utility.yul\":20191:20258   */\n      tag_396\n      jump\t// in\n    tag_686:\n        /* \"#utility.yul\":20184:20258   */\n      swap2\n      pop\n        /* \"#utility.yul\":20267:20360   */\n      tag_687\n        /* \"#utility.yul\":20356:20359   */\n      dup3\n        /* \"#utility.yul\":20267:20360   */\n      tag_439\n      jump\t// in\n    tag_687:\n        /* \"#utility.yul\":20385:20387   */\n      0x20\n        /* \"#utility.yul\":20380:20383   */\n      dup3\n        /* \"#utility.yul\":20376:20388   */\n      add\n        /* \"#utility.yul\":20369:20388   */\n      swap1\n      pop\n        /* \"#utility.yul\":20028:20394   */\n      swap2\n      swap1\n      pop\n      jump\t// out\n        /* \"#utility.yul\":20400:20819   */\n    tag_201:\n        /* \"#utility.yul\":20566:20570   */\n      0x00\n        /* \"#utility.yul\":20604:20606   */\n      0x20\n        /* \"#utility.yul\":20593:20602   */\n      dup3\n        /* \"#utility.yul\":20589:20607   */\n      add\n        /* \"#utility.yul\":20581:20607   */\n      swap1\n      pop\n        /* \"#utility.yul\":20653:20662   */\n      dup2\n        /* \"#utility.yul\":20647:20651   */\n      dup2\n        /* \"#utility.yul\":20643:20663   */\n      sub\n        /* \"#utility.yul\":20639:20640   */\n      0x00\n        /* \"#utility.yul\":20628:20637   */\n      dup4\n        /* \"#utility.yul\":20624:20641   */\n      add\n        /* \"#utility.yul\":20617:20664   */\n      mstore\n        /* \"#utility.yul\":20681:20812   */\n      tag_689\n        /* \"#utility.yul\":20807:20811   */\n      dup2\n        /* \"#utility.yul\":20681:20812   */\n      tag_440\n      jump\t// in\n    tag_689:\n        /* \"#utility.yul\":20673:20812   */\n      swap1\n      pop\n        /* \"#utility.yul\":20400:20819   */\n      swap2\n      swap1\n      pop\n      jump\t// out\n        /* \"#utility.yul\":20825:20992   */\n    tag_441:\n        /* \"#utility.yul\":20965:20984   */\n      0x537570706c792045786163742066756e64000000000000000000000000000000\n        /* \"#utility.yul\":20961:20962   */\n      0x00\n        /* \"#utility.yul\":20953:20959   */\n      dup3\n        /* \"#utility.yul\":20949:20963   */\n      add\n        /* \"#utility.yul\":20942:20985   */\n      mstore\n        /* \"#utility.yul\":20825:20992   */\n      pop\n      jump\t// out\n        /* \"#utility.yul\":20998:21364   */\n    tag_442:\n        /* \"#utility.yul\":21140:21143   */\n      0x00\n        /* \"#utility.yul\":21161:21228   */\n      tag_692\n        /* \"#utility.yul\":21225:21227   */\n      0x11\n        /* \"#utility.yul\":21220:21223   */\n      dup4\n        /* \"#utility.yul\":21161:21228   */\n      tag_396\n      jump\t// in\n    tag_692:\n        /* \"#utility.yul\":21154:21228   */\n      swap2\n      pop\n        /* \"#utility.yul\":21237:21330   */\n      tag_693\n        /* \"#utility.yul\":21326:21329   */\n      dup3\n        /* \"#utility.yul\":21237:21330   */\n      tag_441\n      jump\t// in\n    tag_693:\n        /* \"#utility.yul\":21355:21357   */\n      0x20\n        /* \"#utility.yul\":21350:21353   */\n      dup3\n        /* \"#utility.yul\":21346:21358   */\n      add\n        /* \"#utility.yul\":21339:21358   */\n      swap1\n      pop\n        /* \"#utility.yul\":20998:21364   */\n      swap2\n      swap1\n      pop\n      jump\t// out\n        /* \"#utility.yul\":21370:21789   */\n    tag_204:\n        /* \"#utility.yul\":21536:21540   */\n      0x00\n        /* \"#utility.yul\":21574:21576   */\n      0x20\n        /* \"#utility.yul\":21563:21572   */\n      dup3\n        /* \"#utility.yul\":21559:21577   */\n      add\n        /* \"#utility.yul\":21551:21577   */\n      swap1\n      pop\n        /* \"#utility.yul\":21623:21632   */\n      dup2\n        /* \"#utility.yul\":21617:21621   */\n      dup2\n        /* \"#utility.yul\":21613:21633   */\n      sub\n        /* \"#utility.yul\":21609:21610   */\n      0x00\n        /* \"#utility.yul\":21598:21607   */\n      dup4\n        /* \"#utility.yul\":21594:21611   */\n      add\n        /* \"#utility.yul\":21587:21634   */\n      mstore\n        /* \"#utility.yul\":21651:21782   */\n      tag_695\n        /* \"#utility.yul\":21777:21781   */\n      dup2\n        /* \"#utility.yul\":21651:21782   */\n      tag_442\n      jump\t// in\n    tag_695:\n        /* \"#utility.yul\":21643:21782   */\n      swap1\n      pop\n        /* \"#utility.yul\":21370:21789   */\n      swap2\n      swap1\n      pop\n      jump\t// out\n        /* \"#utility.yul\":21795:21989   */\n    tag_212:\n        /* \"#utility.yul\":21835:21839   */\n      0x00\n        /* \"#utility.yul\":21855:21875   */\n      tag_697\n        /* \"#utility.yul\":21873:21874   */\n      dup3\n        /* \"#utility.yul\":21855:21875   */\n      tag_400\n      jump\t// in\n    tag_697:\n        /* \"#utility.yul\":21850:21875   */\n      swap2\n      pop\n        /* \"#utility.yul\":21889:21909   */\n      tag_698\n        /* \"#utility.yul\":21907:21908   */\n      dup4\n        /* \"#utility.yul\":21889:21909   */\n      tag_400\n      jump\t// in\n    tag_698:\n        /* \"#utility.yul\":21884:21909   */\n      swap3\n      pop\n        /* \"#utility.yul\":21933:21934   */\n      dup3\n        /* \"#utility.yul\":21930:21931   */\n      dup3\n        /* \"#utility.yul\":21926:21935   */\n      sub\n        /* \"#utility.yul\":21918:21935   */\n      swap1\n      pop\n        /* \"#utility.yul\":21957:21958   */\n      dup2\n        /* \"#utility.yul\":21951:21955   */\n      dup2\n        /* \"#utility.yul\":21948:21959   */\n      gt\n        /* \"#utility.yul\":21945:21982   */\n      iszero\n      tag_699\n      jumpi\n        /* \"#utility.yul\":21962:21980   */\n      tag_700\n      tag_423\n      jump\t// in\n    tag_700:\n        /* \"#utility.yul\":21945:21982   */\n    tag_699:\n        /* \"#utility.yul\":21795:21989   */\n      swap3\n      swap2\n      pop\n      pop\n      jump\t// out\n        /* \"#utility.yul\":21995:22171   */\n    tag_443:\n        /* \"#utility.yul\":22135:22163   */\n      0x596f75722061726520417574686f72697a6520746f2073656c6c000000000000\n        /* \"#utility.yul\":22131:22132   */\n      0x00\n        /* \"#utility.yul\":22123:22129   */\n      dup3\n        /* \"#utility.yul\":22119:22133   */\n      add\n        /* \"#utility.yul\":22112:22164   */\n      mstore\n        /* \"#utility.yul\":21995:22171   */\n      pop\n      jump\t// out\n        /* \"#utility.yul\":22177:22543   */\n    tag_444:\n        /* \"#utility.yul\":22319:22322   */\n      0x00\n        /* \"#utility.yul\":22340:22407   */\n      tag_703\n        /* \"#utility.yul\":22404:22406   */\n      0x1a\n        /* \"#utility.yul\":22399:22402   */\n      dup4\n        /* \"#utility.yul\":22340:22407   */\n      tag_396\n      jump\t// in\n    tag_703:\n        /* \"#utility.yul\":22333:22407   */\n      swap2\n      pop\n        /* \"#utility.yul\":22416:22509   */\n      tag_704\n        /* \"#utility.yul\":22505:22508   */\n      dup3\n        /* \"#utility.yul\":22416:22509   */\n      tag_443\n      jump\t// in\n    tag_704:\n        /* \"#utility.yul\":22534:22536   */\n      0x20\n        /* \"#utility.yul\":22529:22532   */\n      dup3\n        /* \"#utility.yul\":22525:22537   */\n      add\n        /* \"#utility.yul\":22518:22537   */\n      swap1\n      pop\n        /* \"#utility.yul\":22177:22543   */\n      swap2\n      swap1\n      pop\n      jump\t// out\n        /* \"#utility.yul\":22549:22968   */\n    tag_219:\n        /* \"#utility.yul\":22715:22719   */\n      0x00\n        /* \"#utility.yul\":22753:22755   */\n      0x20\n        /* \"#utility.yul\":22742:22751   */\n      dup3\n        /* \"#utility.yul\":22738:22756   */\n      add\n        /* \"#utility.yul\":22730:22756   */\n      swap1\n      pop\n        /* \"#utility.yul\":22802:22811   */\n      dup2\n        /* \"#utility.yul\":22796:22800   */\n      dup2\n        /* \"#utility.yul\":22792:22812   */\n      sub\n        /* \"#utility.yul\":22788:22789   */\n      0x00\n        /* \"#utility.yul\":22777:22786   */\n      dup4\n        /* \"#utility.yul\":22773:22790   */\n      add\n        /* \"#utility.yul\":22766:22813   */\n      mstore\n        /* \"#utility.yul\":22830:22961   */\n      tag_706\n        /* \"#utility.yul\":22956:22960   */\n      dup2\n        /* \"#utility.yul\":22830:22961   */\n      tag_444\n      jump\t// in\n    tag_706:\n        /* \"#utility.yul\":22822:22961   */\n      swap1\n      pop\n        /* \"#utility.yul\":22549:22968   */\n      swap2\n      swap1\n      pop\n      jump\t// out\n        /* \"#utility.yul\":22974:23122   */\n    tag_445:\n        /* \"#utility.yul\":23076:23087   */\n      0x00\n        /* \"#utility.yul\":23113:23116   */\n      dup2\n        /* \"#utility.yul\":23098:23116   */\n      swap1\n      pop\n        /* \"#utility.yul\":22974:23122   */\n      swap3\n      swap2\n      pop\n      pop\n      jump\t// out\n        /* \"#utility.yul\":23128:23518   */\n    tag_446:\n        /* \"#utility.yul\":23234:23237   */\n      0x00\n        /* \"#utility.yul\":23262:23301   */\n      tag_709\n        /* \"#utility.yul\":23295:23300   */\n      dup3\n        /* \"#utility.yul\":23262:23301   */\n      tag_395\n      jump\t// in\n    tag_709:\n        /* \"#utility.yul\":23317:23406   */\n      tag_710\n        /* \"#utility.yul\":23399:23405   */\n      dup2\n        /* \"#utility.yul\":23394:23397   */\n      dup6\n        /* \"#utility.yul\":23317:23406   */\n      tag_445\n      jump\t// in\n    tag_710:\n        /* \"#utility.yul\":23310:23406   */\n      swap4\n      pop\n        /* \"#utility.yul\":23415:23480   */\n      tag_711\n        /* \"#utility.yul\":23473:23479   */\n      dup2\n        /* \"#utility.yul\":23468:23471   */\n      dup6\n        /* \"#utility.yul\":23461:23465   */\n      0x20\n        /* \"#utility.yul\":23454:23459   */\n      dup7\n        /* \"#utility.yul\":23450:23466   */\n      add\n        /* \"#utility.yul\":23415:23480   */\n      tag_397\n      jump\t// in\n    tag_711:\n        /* \"#utility.yul\":23505:23511   */\n      dup1\n        /* \"#utility.yul\":23500:23503   */\n      dup5\n        /* \"#utility.yul\":23496:23512   */\n      add\n        /* \"#utility.yul\":23489:23512   */\n      swap2\n      pop\n        /* \"#utility.yul\":23238:23518   */\n      pop\n        /* \"#utility.yul\":23128:23518   */\n      swap3\n      swap2\n      pop\n      pop\n      jump\t// out\n        /* \"#utility.yul\":23524:23959   */\n    tag_236:\n        /* \"#utility.yul\":23704:23707   */\n      0x00\n        /* \"#utility.yul\":23726:23821   */\n      tag_713\n        /* \"#utility.yul\":23817:23820   */\n      dup3\n        /* \"#utility.yul\":23808:23814   */\n      dup6\n        /* \"#utility.yul\":23726:23821   */\n      tag_446\n      jump\t// in\n    tag_713:\n        /* \"#utility.yul\":23719:23821   */\n      swap2\n      pop\n        /* \"#utility.yul\":23838:23933   */\n      tag_714\n        /* \"#utility.yul\":23929:23932   */\n      dup3\n        /* \"#utility.yul\":23920:23926   */\n      dup5\n        /* \"#utility.yul\":23838:23933   */\n      tag_446\n      jump\t// in\n    tag_714:\n        /* \"#utility.yul\":23831:23933   */\n      swap2\n      pop\n        /* \"#utility.yul\":23950:23953   */\n      dup2\n        /* \"#utility.yul\":23943:23953   */\n      swap1\n      pop\n        /* \"#utility.yul\":23524:23959   */\n      swap4\n      swap3\n      pop\n      pop\n      pop\n      jump\t// out\n        /* \"#utility.yul\":23965:24063   */\n    tag_447:\n        /* \"#utility.yul\":24016:24022   */\n      0x00\n        /* \"#utility.yul\":24050:24055   */\n      dup2\n        /* \"#utility.yul\":24044:24056   */\n      mload\n        /* \"#utility.yul\":24034:24056   */\n      swap1\n      pop\n        /* \"#utility.yul\":23965:24063   */\n      swap2\n      swap1\n      pop\n      jump\t// out\n        /* \"#utility.yul\":24069:24237   */\n    tag_448:\n        /* \"#utility.yul\":24152:24163   */\n      0x00\n        /* \"#utility.yul\":24186:24192   */\n      dup3\n        /* \"#utility.yul\":24181:24184   */\n      dup3\n        /* \"#utility.yul\":24174:24193   */\n      mstore\n        /* \"#utility.yul\":24226:24230   */\n      0x20\n        /* \"#utility.yul\":24221:24224   */\n      dup3\n        /* \"#utility.yul\":24217:24231   */\n      add\n        /* \"#utility.yul\":24202:24231   */\n      swap1\n      pop\n        /* \"#utility.yul\":24069:24237   */\n      swap3\n      swap2\n      pop\n      pop\n      jump\t// out\n        /* \"#utility.yul\":24243:24616   */\n    tag_449:\n        /* \"#utility.yul\":24329:24332   */\n      0x00\n        /* \"#utility.yul\":24357:24395   */\n      tag_718\n        /* \"#utility.yul\":24389:24394   */\n      dup3\n        /* \"#utility.yul\":24357:24395   */\n      tag_447\n      jump\t// in\n    tag_718:\n        /* \"#utility.yul\":24411:24481   */\n      tag_719\n        /* \"#utility.yul\":24474:24480   */\n      dup2\n        /* \"#utility.yul\":24469:24472   */\n      dup6\n        /* \"#utility.yul\":24411:24481   */\n      tag_448\n      jump\t// in\n    tag_719:\n        /* \"#utility.yul\":24404:24481   */\n      swap4\n      pop\n        /* \"#utility.yul\":24490:24555   */\n      tag_720\n        /* \"#utility.yul\":24548:24554   */\n      dup2\n        /* \"#utility.yul\":24543:24546   */\n      dup6\n        /* \"#utility.yul\":24536:24540   */\n      0x20\n        /* \"#utility.yul\":24529:24534   */\n      dup7\n        /* \"#utility.yul\":24525:24541   */\n      add\n        /* \"#utility.yul\":24490:24555   */\n      tag_397\n      jump\t// in\n    tag_720:\n        /* \"#utility.yul\":24580:24609   */\n      tag_721\n        /* \"#utility.yul\":24602:24608   */\n      dup2\n        /* \"#utility.yul\":24580:24609   */\n      tag_398\n      jump\t// in\n    tag_721:\n        /* \"#utility.yul\":24575:24578   */\n      dup5\n        /* \"#utility.yul\":24571:24610   */\n      add\n        /* \"#utility.yul\":24564:24610   */\n      swap2\n      pop\n        /* \"#utility.yul\":24333:24616   */\n      pop\n        /* \"#utility.yul\":24243:24616   */\n      swap3\n      swap2\n      pop\n      pop\n      jump\t// out\n        /* \"#utility.yul\":24622:25262   */\n    tag_293:\n        /* \"#utility.yul\":24817:24821   */\n      0x00\n        /* \"#utility.yul\":24855:24858   */\n      0x80\n        /* \"#utility.yul\":24844:24853   */\n      dup3\n        /* \"#utility.yul\":24840:24859   */\n      add\n        /* \"#utility.yul\":24832:24859   */\n      swap1\n      pop\n        /* \"#utility.yul\":24869:24940   */\n      tag_723\n        /* \"#utility.yul\":24937:24938   */\n      0x00\n        /* \"#utility.yul\":24926:24935   */\n      dup4\n        /* \"#utility.yul\":24922:24939   */\n      add\n        /* \"#utility.yul\":24913:24919   */\n      dup8\n        /* \"#utility.yul\":24869:24940   */\n      tag_405\n      jump\t// in\n    tag_723:\n        /* \"#utility.yul\":24950:25022   */\n      tag_724\n        /* \"#utility.yul\":25018:25020   */\n      0x20\n        /* \"#utility.yul\":25007:25016   */\n      dup4\n        /* \"#utility.yul\":25003:25021   */\n      add\n        /* \"#utility.yul\":24994:25000   */\n      dup7\n        /* \"#utility.yul\":24950:25022   */\n      tag_405\n      jump\t// in\n    tag_724:\n        /* \"#utility.yul\":25032:25104   */\n      tag_725\n        /* \"#utility.yul\":25100:25102   */\n      0x40\n        /* \"#utility.yul\":25089:25098   */\n      dup4\n        /* \"#utility.yul\":25085:25103   */\n      add\n        /* \"#utility.yul\":25076:25082   */\n      dup6\n        /* \"#utility.yul\":25032:25104   */\n      tag_408\n      jump\t// in\n    tag_725:\n        /* \"#utility.yul\":25151:25160   */\n      dup2\n        /* \"#utility.yul\":25145:25149   */\n      dup2\n        /* \"#utility.yul\":25141:25161   */\n      sub\n        /* \"#utility.yul\":25136:25138   */\n      0x60\n        /* \"#utility.yul\":25125:25134   */\n      dup4\n        /* \"#utility.yul\":25121:25139   */\n      add\n        /* \"#utility.yul\":25114:25162   */\n      mstore\n        /* \"#utility.yul\":25179:25255   */\n      tag_726\n        /* \"#utility.yul\":25250:25254   */\n      dup2\n        /* \"#utility.yul\":25241:25247   */\n      dup5\n        /* \"#utility.yul\":25179:25255   */\n      tag_449\n      jump\t// in\n    tag_726:\n        /* \"#utility.yul\":25171:25255   */\n      swap1\n      pop\n        /* \"#utility.yul\":24622:25262   */\n      swap6\n      swap5\n      pop\n      pop\n      pop\n      pop\n      pop\n      jump\t// out\n        /* \"#utility.yul\":25268:25409   */\n    tag_450:\n        /* \"#utility.yul\":25324:25329   */\n      0x00\n        /* \"#utility.yul\":25355:25361   */\n      dup2\n        /* \"#utility.yul\":25349:25362   */\n      mload\n        /* \"#utility.yul\":25340:25362   */\n      swap1\n      pop\n        /* \"#utility.yul\":25371:25403   */\n      tag_728\n        /* \"#utility.yul\":25397:25402   */\n      dup2\n        /* \"#utility.yul\":25371:25403   */\n      tag_391\n      jump\t// in\n    tag_728:\n        /* \"#utility.yul\":25268:25409   */\n      swap3\n      swap2\n      pop\n      pop\n      jump\t// out\n        /* \"#utility.yul\":25415:25764   */\n    tag_296:\n        /* \"#utility.yul\":25484:25490   */\n      0x00\n        /* \"#utility.yul\":25533:25535   */\n      0x20\n        /* \"#utility.yul\":25521:25530   */\n      dup3\n        /* \"#utility.yul\":25512:25519   */\n      dup5\n        /* \"#utility.yul\":25508:25531   */\n      sub\n        /* \"#utility.yul\":25504:25536   */\n      slt\n        /* \"#utility.yul\":25501:25620   */\n      iszero\n      tag_730\n      jumpi\n        /* \"#utility.yul\":25539:25618   */\n      tag_731\n      tag_388\n      jump\t// in\n    tag_731:\n        /* \"#utility.yul\":25501:25620   */\n    tag_730:\n        /* \"#utility.yul\":25659:25660   */\n      0x00\n        /* \"#utility.yul\":25684:25747   */\n      tag_732\n        /* \"#utility.yul\":25739:25746   */\n      dup5\n        /* \"#utility.yul\":25730:25736   */\n      dup3\n        /* \"#utility.yul\":25719:25728   */\n      dup6\n        /* \"#utility.yul\":25715:25737   */\n      add\n        /* \"#utility.yul\":25684:25747   */\n      tag_450\n      jump\t// in\n    tag_732:\n        /* \"#utility.yul\":25674:25747   */\n      swap2\n      pop\n        /* \"#utility.yul\":25630:25757   */\n      pop\n        /* \"#utility.yul\":25415:25764   */\n      swap3\n      swap2\n      pop\n      pop\n      jump\t// out\n\n    auxdata: 0xa2646970667358221220caab471ef151c3114d96eeb33eca9148b99812c15db385317e9487cbae6ac48264736f6c63430008150033\n}\n",
				"bytecode": {
					"linkReferences": {},
					"object": "6080604052600a805534801562000014575f80fd5b506040518060400160405280600681526020017f4d79204e667400000000000000000000000000000000000000000000000000008152506040518060400160405280600481526020017f4d4e465400000000000000000000000000000000000000000000000000000000815250815f908162000091919062000350565b508060019081620000a3919062000350565b50505033600b5f6101000a81548173ffffffffffffffffffffffffffffffffffffffff021916908373ffffffffffffffffffffffffffffffffffffffff16021790555062000434565b5f81519050919050565b7f4e487b71000000000000000000000000000000000000000000000000000000005f52604160045260245ffd5b7f4e487b71000000000000000000000000000000000000000000000000000000005f52602260045260245ffd5b5f60028204905060018216806200016857607f821691505b6020821081036200017e576200017d62000123565b5b50919050565b5f819050815f5260205f209050919050565b5f6020601f8301049050919050565b5f82821b905092915050565b5f60088302620001e27fffffffffffffffffffffffffffffffffffffffffffffffffffffffffffffffff82620001a5565b620001ee8683620001a5565b95508019841693508086168417925050509392505050565b5f819050919050565b5f819050919050565b5f62000238620002326200022c8462000206565b6200020f565b62000206565b9050919050565b5f819050919050565b620002538362000218565b6200026b62000262826200023f565b848454620001b1565b825550505050565b5f90565b6200028162000273565b6200028e81848462000248565b505050565b5b81811015620002b557620002a95f8262000277565b60018101905062000294565b5050565b601f8211156200030457620002ce8162000184565b620002d98462000196565b81016020851015620002e9578190505b62000301620002f88562000196565b83018262000293565b50505b505050565b5f82821c905092915050565b5f620003265f198460080262000309565b1980831691505092915050565b5f62000340838362000315565b9150826002028217905092915050565b6200035b82620000ec565b67ffffffffffffffff811115620003775762000376620000f6565b5b62000383825462000150565b62000390828285620002b9565b5f60209050601f831160018114620003c6575f8415620003b1578287015190505b620003bd858262000333565b8655506200042c565b601f198416620003d68662000184565b5f5b82811015620003ff57848901518255600182019150602085019450602081019050620003d8565b868310156200041f57848901516200041b601f89168262000315565b8355505b6001600288020188555050505b505050505050565b612d2980620004425f395ff3fe608060405260043610610129575f3560e01c80636352211e116100aa578063a37365e01161006e578063a37365e014610405578063a90d14e214610421578063b88d4fde14610449578063c87b56dd14610471578063d547cfb7146104ad578063e985e9c5146104d757610129565b80636352211e1461031157806370a082311461034d5780638a71bb2d1461038957806395d89b41146103b3578063a22cb465146103dd57610129565b8063265aa621116100f1578063265aa6211461021f5780632a55205a1461025c57806342842e0e1461029957806355f804b3146102c15780635afa3a72146102e957610129565b806301ffc9a71461012d57806306fdde0314610169578063081812fc14610193578063095ea7b3146101cf57806323b872dd146101f7575b5f80fd5b348015610138575f80fd5b50610153600480360381019061014e9190611fc8565b610513565b604051610160919061200d565b60405180910390f35b348015610174575f80fd5b5061017d610573565b60405161018a91906120b0565b60405180910390f35b34801561019e575f80fd5b506101b960048036038101906101b49190612103565b610602565b6040516101c6919061216d565b60405180910390f35b3480156101da575f80fd5b506101f560048036038101906101f091906121b0565b61061d565b005b348015610202575f80fd5b5061021d600480360381019061021891906121ee565b610633565b005b34801561022a575f80fd5b5061024560048036038101906102409190612103565b610732565b60405161025392919061224d565b60405180910390f35b348015610267575f80fd5b50610282600480360381019061027d9190612274565b610771565b60405161029092919061224d565b60405180910390f35b3480156102a4575f80fd5b506102bf60048036038101906102ba91906121ee565b6107bf565b005b3480156102cc575f80fd5b506102e760048036038101906102e291906123de565b6107de565b005b3480156102f4575f80fd5b5061030f600480360381019061030a9190612425565b6107f1565b005b34801561031c575f80fd5b5061033760048036038101906103329190612103565b6108ae565b604051610344919061216d565b60405180910390f35b348015610358575f80fd5b50610373600480360381019061036e919061247f565b6108bf565b60405161038091906124aa565b60405180910390f35b348015610394575f80fd5b5061039d610975565b6040516103aa91906124aa565b60405180910390f35b3480156103be575f80fd5b506103c761097b565b6040516103d491906120b0565b60405180910390f35b3480156103e8575f80fd5b5061040360048036038101906103fe91906124ed565b610a0b565b005b61041f600480360381019061041a9190612103565b610a21565b005b34801561042c575f80fd5b5061044760048036038101906104429190612103565b610bdc565b005b348015610454575f80fd5b5061046f600480360381019061046a91906125c9565b610cb9565b005b34801561047c575f80fd5b5061049760048036038101906104929190612103565b610cd6565b6040516104a491906120b0565b60405180910390f35b3480156104b8575f80fd5b506104c1610de1565b6040516104ce91906120b0565b60405180910390f35b3480156104e2575f80fd5b506104fd60048036038101906104f89190612649565b610e6d565b60405161050a919061200d565b60405180910390f35b5f634906490660e01b7bffffffffffffffffffffffffffffffffffffffffffffffffffffffff1916827bffffffffffffffffffffffffffffffffffffffffffffffffffffffff1916148061056c575061056b82610efb565b5b9050919050565b60605f8054610581906126b4565b80601f01602080910402602001604051908101604052809291908181526020018280546105ad906126b4565b80156105f85780601f106105cf576101008083540402835291602001916105f8565b820191905f5260205f20905b8154815290600101906020018083116105db57829003601f168201915b5050505050905090565b5f61060c82610fdc565b5061061682611062565b9050919050565b61062f828261062a61109b565b6110a2565b5050565b5f73ffffffffffffffffffffffffffffffffffffffff168273ffffffffffffffffffffffffffffffffffffffff16036106a3575f6040517f64a0ae9200000000000000000000000000000000000000000000000000000000815260040161069a919061216d565b60405180910390fd5b5f6106b683836106b161109b565b6110b4565b90508373ffffffffffffffffffffffffffffffffffffffff168173ffffffffffffffffffffffffffffffffffffffff161461072c578382826040517f64283d7b000000000000000000000000000000000000000000000000000000008152600401610723939291906126e4565b60405180910390fd5b50505050565b600c602052805f5260405f205f91509050805f015f9054906101000a900473ffffffffffffffffffffffffffffffffffffffff16908060010154905082565b5f805f6064600a54856107849190612746565b61078e91906127b4565b9050600b5f9054906101000a900473ffffffffffffffffffffffffffffffffffffffff168192509250509250929050565b6107d983838360405180602001604052805f815250610cb9565b505050565b80600990816107ed9190612981565b5050565b5f6107fc60076112bf565b905061080833826112cb565b61081281846112e8565b60405180604001604052803373ffffffffffffffffffffffffffffffffffffffff16815260200183815250600c5f8381526020019081526020015f205f820151815f015f6101000a81548173ffffffffffffffffffffffffffffffffffffffff021916908373ffffffffffffffffffffffffffffffffffffffff160217905550602082015181600101559050506108a96007611342565b505050565b5f6108b882610fdc565b9050919050565b5f8073ffffffffffffffffffffffffffffffffffffffff168273ffffffffffffffffffffffffffffffffffffffff1603610930575f6040517f89c62b64000000000000000000000000000000000000000000000000000000008152600401610927919061216d565b60405180910390fd5b60035f8373ffffffffffffffffffffffffffffffffffffffff1673ffffffffffffffffffffffffffffffffffffffff1681526020019081526020015f20549050919050565b600a5481565b60606001805461098a906126b4565b80601f01602080910402602001604051908101604052809291908181526020018280546109b6906126b4565b8015610a015780601f106109d857610100808354040283529160200191610a01565b820191905f5260205f20905b8154815290600101906020018083116109e457829003601f168201915b5050505050905090565b610a1d610a1661109b565b8383611356565b5050565b5f610a2b826108ae565b90505f3390505f600c5f8581526020019081526020015f206001015490508173ffffffffffffffffffffffffffffffffffffffff168373ffffffffffffffffffffffffffffffffffffffff1603610ab7576040517f08c379a0000000000000000000000000000000000000000000000000000000008152600401610aae90612a9a565b60405180910390fd5b803414610af9576040517f08c379a0000000000000000000000000000000000000000000000000000000008152600401610af090612b02565b60405180910390fd5b610b048383866114bf565b5f6064600a5483610b159190612746565b610b1f91906127b4565b9050600b5f9054906101000a900473ffffffffffffffffffffffffffffffffffffffff1673ffffffffffffffffffffffffffffffffffffffff166108fc8290811502906040515f60405180830381858888f19350505050158015610b85573d5f803e3d5ffd5b508373ffffffffffffffffffffffffffffffffffffffff166108fc8284610bac9190612b20565b90811502906040515f60405180830381858888f19350505050158015610bd4573d5f803e3d5ffd5b505050505050565b610be5816108ae565b73ffffffffffffffffffffffffffffffffffffffff163373ffffffffffffffffffffffffffffffffffffffff1614610c52576040517f08c379a0000000000000000000000000000000000000000000000000000000008152600401610c4990612b9d565b60405180910390fd5b600160085f3373ffffffffffffffffffffffffffffffffffffffff1673ffffffffffffffffffffffffffffffffffffffff1681526020019081526020015f205f8381526020019081526020015f205f6101000a81548160ff02191690831515021790555050565b610cc4848484610633565b610cd084848484611627565b50505050565b6060610ce182610fdc565b505f60065f8481526020019081526020015f208054610cff906126b4565b80601f0160208091040260200160405190810160405280929190818152602001828054610d2b906126b4565b8015610d765780601f10610d4d57610100808354040283529160200191610d76565b820191905f5260205f20905b815481529060010190602001808311610d5957829003601f168201915b505050505090505f610d866117d9565b90505f815103610d9a578192505050610ddc565b5f82511115610dce578082604051602001610db6929190612bf5565b60405160208183030381529060405292505050610ddc565b610dd7846117ef565b925050505b919050565b60098054610dee906126b4565b80601f0160208091040260200160405190810160405280929190818152602001828054610e1a906126b4565b8015610e655780601f10610e3c57610100808354040283529160200191610e65565b820191905f5260205f20905b815481529060010190602001808311610e4857829003601f168201915b505050505081565b5f60055f8473ffffffffffffffffffffffffffffffffffffffff1673ffffffffffffffffffffffffffffffffffffffff1681526020019081526020015f205f8373ffffffffffffffffffffffffffffffffffffffff1673ffffffffffffffffffffffffffffffffffffffff1681526020019081526020015f205f9054906101000a900460ff16905092915050565b5f7f80ac58cd000000000000000000000000000000000000000000000000000000007bffffffffffffffffffffffffffffffffffffffffffffffffffffffff1916827bffffffffffffffffffffffffffffffffffffffffffffffffffffffff19161480610fc557507f5b5e139f000000000000000000000000000000000000000000000000000000007bffffffffffffffffffffffffffffffffffffffffffffffffffffffff1916827bffffffffffffffffffffffffffffffffffffffffffffffffffffffff1916145b80610fd55750610fd482611855565b5b9050919050565b5f80610fe7836118be565b90505f73ffffffffffffffffffffffffffffffffffffffff168173ffffffffffffffffffffffffffffffffffffffff160361105957826040517f7e27328900000000000000000000000000000000000000000000000000000000815260040161105091906124aa565b60405180910390fd5b80915050919050565b5f60045f8381526020019081526020015f205f9054906101000a900473ffffffffffffffffffffffffffffffffffffffff169050919050565b5f33905090565b6110af83838360016118f7565b505050565b5f806110bf846118be565b90505f73ffffffffffffffffffffffffffffffffffffffff168373ffffffffffffffffffffffffffffffffffffffff1614611100576110ff818486611ab6565b5b5f73ffffffffffffffffffffffffffffffffffffffff168173ffffffffffffffffffffffffffffffffffffffff161461118b5761113f5f855f806118f7565b600160035f8373ffffffffffffffffffffffffffffffffffffffff1673ffffffffffffffffffffffffffffffffffffffff1681526020019081526020015f205f82825403925050819055505b5f73ffffffffffffffffffffffffffffffffffffffff168573ffffffffffffffffffffffffffffffffffffffff161461120a57600160035f8773ffffffffffffffffffffffffffffffffffffffff1673ffffffffffffffffffffffffffffffffffffffff1681526020019081526020015f205f82825401925050819055505b8460025f8681526020019081526020015f205f6101000a81548173ffffffffffffffffffffffffffffffffffffffff021916908373ffffffffffffffffffffffffffffffffffffffff160217905550838573ffffffffffffffffffffffffffffffffffffffff168273ffffffffffffffffffffffffffffffffffffffff167fddf252ad1be2c89b69c2b068fc378daa952ba7f163c4a11628f55a4df523b3ef60405160405180910390a4809150509392505050565b5f815f01549050919050565b6112e4828260405180602001604052805f815250611b79565b5050565b8060065f8481526020019081526020015f2090816113069190612981565b507ff8e1a15aba9398e019f0b49df1a4fde98ee17ae345cb5f6b5e2c27f5033e8ce78260405161133691906124aa565b60405180910390a15050565b6001815f015f828254019250508190555050565b5f73ffffffffffffffffffffffffffffffffffffffff168273ffffffffffffffffffffffffffffffffffffffff16036113c657816040517f5b08ba180000000000000000000000000000000000000000000000000000000081526004016113bd919061216d565b60405180910390fd5b8060055f8573ffffffffffffffffffffffffffffffffffffffff1673ffffffffffffffffffffffffffffffffffffffff1681526020019081526020015f205f8473ffffffffffffffffffffffffffffffffffffffff1673ffffffffffffffffffffffffffffffffffffffff1681526020019081526020015f205f6101000a81548160ff0219169083151502179055508173ffffffffffffffffffffffffffffffffffffffff168373ffffffffffffffffffffffffffffffffffffffff167f17307eab39ab6107e8899845ad3d59bd9653f200f220920489ca2b5937696c31836040516114b2919061200d565b60405180910390a3505050565b5f73ffffffffffffffffffffffffffffffffffffffff168273ffffffffffffffffffffffffffffffffffffffff160361152f575f6040517f64a0ae92000000000000000000000000000000000000000000000000000000008152600401611526919061216d565b60405180910390fd5b5f61153b83835f6110b4565b90505f73ffffffffffffffffffffffffffffffffffffffff168173ffffffffffffffffffffffffffffffffffffffff16036115ad57816040517f7e2732890000000000000000000000000000000000000000000000000000000081526004016115a491906124aa565b60405180910390fd5b8373ffffffffffffffffffffffffffffffffffffffff168173ffffffffffffffffffffffffffffffffffffffff1614611621578382826040517f64283d7b000000000000000000000000000000000000000000000000000000008152600401611618939291906126e4565b60405180910390fd5b50505050565b5f8373ffffffffffffffffffffffffffffffffffffffff163b11156117d3578273ffffffffffffffffffffffffffffffffffffffff1663150b7a0261166a61109b565b8685856040518563ffffffff1660e01b815260040161168c9493929190612c6a565b6020604051808303815f875af19250505080156116c757506040513d601f19601f820116820180604052508101906116c49190612cc8565b60015b611748573d805f81146116f5576040519150601f19603f3d011682016040523d82523d5f602084013e6116fa565b606091505b505f81510361174057836040517f64a0ae92000000000000000000000000000000000000000000000000000000008152600401611737919061216d565b60405180910390fd5b805181602001fd5b63150b7a0260e01b7bffffffffffffffffffffffffffffffffffffffffffffffffffffffff1916817bffffffffffffffffffffffffffffffffffffffffffffffffffffffff1916146117d157836040517f64a0ae920000000000000000000000000000000000000000000000000000000081526004016117c8919061216d565b60405180910390fd5b505b50505050565b606060405180602001604052805f815250905090565b60606117fa82610fdc565b505f6118046117d9565b90505f8151116118225760405180602001604052805f81525061184d565b8061182c84611b94565b60405160200161183d929190612bf5565b6040516020818303038152906040525b915050919050565b5f7f01ffc9a7000000000000000000000000000000000000000000000000000000007bffffffffffffffffffffffffffffffffffffffffffffffffffffffff1916827bffffffffffffffffffffffffffffffffffffffffffffffffffffffff1916149050919050565b5f60025f8381526020019081526020015f205f9054906101000a900473ffffffffffffffffffffffffffffffffffffffff169050919050565b808061192f57505f73ffffffffffffffffffffffffffffffffffffffff168273ffffffffffffffffffffffffffffffffffffffff1614155b15611a61575f61193e84610fdc565b90505f73ffffffffffffffffffffffffffffffffffffffff168373ffffffffffffffffffffffffffffffffffffffff16141580156119a857508273ffffffffffffffffffffffffffffffffffffffff168173ffffffffffffffffffffffffffffffffffffffff1614155b80156119bb57506119b98184610e6d565b155b156119fd57826040517fa9fbf51f0000000000000000000000000000000000000000000000000000000081526004016119f4919061216d565b60405180910390fd5b8115611a5f57838573ffffffffffffffffffffffffffffffffffffffff168273ffffffffffffffffffffffffffffffffffffffff167f8c5be1e5ebec7d5bd14f71427d1e84f3dd0314c0f7b2291e5b200ac8c7c3b92560405160405180910390a45b505b8360045f8581526020019081526020015f205f6101000a81548173ffffffffffffffffffffffffffffffffffffffff021916908373ffffffffffffffffffffffffffffffffffffffff16021790555050505050565b611ac1838383611c5e565b611b74575f73ffffffffffffffffffffffffffffffffffffffff168373ffffffffffffffffffffffffffffffffffffffff1603611b3557806040517f7e273289000000000000000000000000000000000000000000000000000000008152600401611b2c91906124aa565b60405180910390fd5b81816040517f177e802f000000000000000000000000000000000000000000000000000000008152600401611b6b92919061224d565b60405180910390fd5b505050565b611b838383611d1e565b611b8f5f848484611627565b505050565b60605f6001611ba284611e11565b0190505f8167ffffffffffffffff811115611bc057611bbf6122ba565b5b6040519080825280601f01601f191660200182016040528015611bf25781602001600182028036833780820191505090505b5090505f82602001820190505b600115611c53578080600190039150507f3031323334353637383961626364656600000000000000000000000000000000600a86061a8153600a8581611c4857611c47612787565b5b0494505f8503611bff575b819350505050919050565b5f8073ffffffffffffffffffffffffffffffffffffffff168373ffffffffffffffffffffffffffffffffffffffff1614158015611d1557508273ffffffffffffffffffffffffffffffffffffffff168473ffffffffffffffffffffffffffffffffffffffff161480611cd65750611cd58484610e6d565b5b80611d1457508273ffffffffffffffffffffffffffffffffffffffff16611cfc83611062565b73ffffffffffffffffffffffffffffffffffffffff16145b5b90509392505050565b5f73ffffffffffffffffffffffffffffffffffffffff168273ffffffffffffffffffffffffffffffffffffffff1603611d8e575f6040517f64a0ae92000000000000000000000000000000000000000000000000000000008152600401611d85919061216d565b60405180910390fd5b5f611d9a83835f6110b4565b90505f73ffffffffffffffffffffffffffffffffffffffff168173ffffffffffffffffffffffffffffffffffffffff1614611e0c575f6040517f73c6ac6e000000000000000000000000000000000000000000000000000000008152600401611e03919061216d565b60405180910390fd5b505050565b5f805f90507a184f03e93ff9f4daa797ed6e38ed64bf6a1f0100000000000000008310611e6d577a184f03e93ff9f4daa797ed6e38ed64bf6a1f0100000000000000008381611e6357611e62612787565b5b0492506040810190505b6d04ee2d6d415b85acef81000000008310611eaa576d04ee2d6d415b85acef81000000008381611ea057611e9f612787565b5b0492506020810190505b662386f26fc100008310611ed957662386f26fc100008381611ecf57611ece612787565b5b0492506010810190505b6305f5e1008310611f02576305f5e1008381611ef857611ef7612787565b5b0492506008810190505b6127108310611f27576127108381611f1d57611f1c612787565b5b0492506004810190505b60648310611f4a5760648381611f4057611f3f612787565b5b0492506002810190505b600a8310611f59576001810190505b80915050919050565b5f604051905090565b5f80fd5b5f80fd5b5f7fffffffff0000000000000000000000000000000000000000000000000000000082169050919050565b611fa781611f73565b8114611fb1575f80fd5b50565b5f81359050611fc281611f9e565b92915050565b5f60208284031215611fdd57611fdc611f6b565b5b5f611fea84828501611fb4565b91505092915050565b5f8115159050919050565b61200781611ff3565b82525050565b5f6020820190506120205f830184611ffe565b92915050565b5f81519050919050565b5f82825260208201905092915050565b5f5b8381101561205d578082015181840152602081019050612042565b5f8484015250505050565b5f601f19601f8301169050919050565b5f61208282612026565b61208c8185612030565b935061209c818560208601612040565b6120a581612068565b840191505092915050565b5f6020820190508181035f8301526120c88184612078565b905092915050565b5f819050919050565b6120e2816120d0565b81146120ec575f80fd5b50565b5f813590506120fd816120d9565b92915050565b5f6020828403121561211857612117611f6b565b5b5f612125848285016120ef565b91505092915050565b5f73ffffffffffffffffffffffffffffffffffffffff82169050919050565b5f6121578261212e565b9050919050565b6121678161214d565b82525050565b5f6020820190506121805f83018461215e565b92915050565b61218f8161214d565b8114612199575f80fd5b50565b5f813590506121aa81612186565b92915050565b5f80604083850312156121c6576121c5611f6b565b5b5f6121d38582860161219c565b92505060206121e4858286016120ef565b9150509250929050565b5f805f6060848603121561220557612204611f6b565b5b5f6122128682870161219c565b93505060206122238682870161219c565b9250506040612234868287016120ef565b9150509250925092565b612247816120d0565b82525050565b5f6040820190506122605f83018561215e565b61226d602083018461223e565b9392505050565b5f806040838503121561228a57612289611f6b565b5b5f612297858286016120ef565b92505060206122a8858286016120ef565b9150509250929050565b5f80fd5b5f80fd5b7f4e487b71000000000000000000000000000000000000000000000000000000005f52604160045260245ffd5b6122f082612068565b810181811067ffffffffffffffff8211171561230f5761230e6122ba565b5b80604052505050565b5f612321611f62565b905061232d82826122e7565b919050565b5f67ffffffffffffffff82111561234c5761234b6122ba565b5b61235582612068565b9050602081019050919050565b828183375f83830152505050565b5f61238261237d84612332565b612318565b90508281526020810184848401111561239e5761239d6122b6565b5b6123a9848285612362565b509392505050565b5f82601f8301126123c5576123c46122b2565b5b81356123d5848260208601612370565b91505092915050565b5f602082840312156123f3576123f2611f6b565b5b5f82013567ffffffffffffffff8111156124105761240f611f6f565b5b61241c848285016123b1565b91505092915050565b5f806040838503121561243b5761243a611f6b565b5b5f83013567ffffffffffffffff81111561245857612457611f6f565b5b612464858286016123b1565b9250506020612475858286016120ef565b9150509250929050565b5f6020828403121561249457612493611f6b565b5b5f6124a18482850161219c565b91505092915050565b5f6020820190506124bd5f83018461223e565b92915050565b6124cc81611ff3565b81146124d6575f80fd5b50565b5f813590506124e7816124c3565b92915050565b5f806040838503121561250357612502611f6b565b5b5f6125108582860161219c565b9250506020612521858286016124d9565b9150509250929050565b5f67ffffffffffffffff821115612545576125446122ba565b5b61254e82612068565b9050602081019050919050565b5f61256d6125688461252b565b612318565b905082815260208101848484011115612589576125886122b6565b5b612594848285612362565b509392505050565b5f82601f8301126125b0576125af6122b2565b5b81356125c084826020860161255b565b91505092915050565b5f805f80608085870312156125e1576125e0611f6b565b5b5f6125ee8782880161219c565b94505060206125ff8782880161219c565b9350506040612610878288016120ef565b925050606085013567ffffffffffffffff81111561263157612630611f6f565b5b61263d8782880161259c565b91505092959194509250565b5f806040838503121561265f5761265e611f6b565b5b5f61266c8582860161219c565b925050602061267d8582860161219c565b9150509250929050565b7f4e487b71000000000000000000000000000000000000000000000000000000005f52602260045260245ffd5b5f60028204905060018216806126cb57607f821691505b6020821081036126de576126dd612687565b5b50919050565b5f6060820190506126f75f83018661215e565b612704602083018561223e565b612711604083018461215e565b949350505050565b7f4e487b71000000000000000000000000000000000000000000000000000000005f52601160045260245ffd5b5f612750826120d0565b915061275b836120d0565b9250828202612769816120d0565b915082820484148315176127805761277f612719565b5b5092915050565b7f4e487b71000000000000000000000000000000000000000000000000000000005f52601260045260245ffd5b5f6127be826120d0565b91506127c9836120d0565b9250826127d9576127d8612787565b5b828204905092915050565b5f819050815f5260205f209050919050565b5f6020601f8301049050919050565b5f82821b905092915050565b5f600883026128407fffffffffffffffffffffffffffffffffffffffffffffffffffffffffffffffff82612805565b61284a8683612805565b95508019841693508086168417925050509392505050565b5f819050919050565b5f61288561288061287b846120d0565b612862565b6120d0565b9050919050565b5f819050919050565b61289e8361286b565b6128b26128aa8261288c565b848454612811565b825550505050565b5f90565b6128c66128ba565b6128d1818484612895565b505050565b5b818110156128f4576128e95f826128be565b6001810190506128d7565b5050565b601f8211156129395761290a816127e4565b612913846127f6565b81016020851015612922578190505b61293661292e856127f6565b8301826128d6565b50505b505050565b5f82821c905092915050565b5f6129595f198460080261293e565b1980831691505092915050565b5f612971838361294a565b9150826002028217905092915050565b61298a82612026565b67ffffffffffffffff8111156129a3576129a26122ba565b5b6129ad82546126b4565b6129b88282856128f8565b5f60209050601f8311600181146129e9575f84156129d7578287015190505b6129e18582612966565b865550612a48565b601f1984166129f7866127e4565b5f5b82811015612a1e578489015182556001820191506020850194506020810190506129f9565b86831015612a3b5784890151612a37601f89168261294a565b8355505b6001600288020188555050505b505050505050565b7f43616e6e6f742062757920796f7572206f776e204e46540000000000000000005f82015250565b5f612a84601783612030565b9150612a8f82612a50565b602082019050919050565b5f6020820190508181035f830152612ab181612a78565b9050919050565b7f537570706c792045786163742066756e640000000000000000000000000000005f82015250565b5f612aec601183612030565b9150612af782612ab8565b602082019050919050565b5f6020820190508181035f830152612b1981612ae0565b9050919050565b5f612b2a826120d0565b9150612b35836120d0565b9250828203905081811115612b4d57612b4c612719565b5b92915050565b7f596f75722061726520417574686f72697a6520746f2073656c6c0000000000005f82015250565b5f612b87601a83612030565b9150612b9282612b53565b602082019050919050565b5f6020820190508181035f830152612bb481612b7b565b9050919050565b5f81905092915050565b5f612bcf82612026565b612bd98185612bbb565b9350612be9818560208601612040565b80840191505092915050565b5f612c008285612bc5565b9150612c0c8284612bc5565b91508190509392505050565b5f81519050919050565b5f82825260208201905092915050565b5f612c3c82612c18565b612c468185612c22565b9350612c56818560208601612040565b612c5f81612068565b840191505092915050565b5f608082019050612c7d5f83018761215e565b612c8a602083018661215e565b612c97604083018561223e565b8181036060830152612ca98184612c32565b905095945050505050565b5f81519050612cc281611f9e565b92915050565b5f60208284031215612cdd57612cdc611f6b565b5b5f612cea84828501612cb4565b9150509291505056fea2646970667358221220caab471ef151c3114d96eeb33eca9148b99812c15db385317e9487cbae6ac48264736f6c63430008150033",
					"opcodes": "PUSH1 0x80 PUSH1 0x40 MSTORE PUSH1 0xA DUP1 SSTORE CALLVALUE DUP1 ISZERO PUSH3 0x14 JUMPI PUSH0 DUP1 REVERT JUMPDEST POP PUSH1 0x40 MLOAD DUP1 PUSH1 0x40 ADD PUSH1 0x40 MSTORE DUP1 PUSH1 0x6 DUP2 MSTORE PUSH1 0x20 ADD PUSH32 0x4D79204E66740000000000000000000000000000000000000000000000000000 DUP2 MSTORE POP PUSH1 0x40 MLOAD DUP1 PUSH1 0x40 ADD PUSH1 0x40 MSTORE DUP1 PUSH1 0x4 DUP2 MSTORE PUSH1 0x20 ADD PUSH32 0x4D4E465400000000000000000000000000000000000000000000000000000000 DUP2 MSTORE POP DUP2 PUSH0 SWAP1 DUP2 PUSH3 0x91 SWAP2 SWAP1 PUSH3 0x350 JUMP JUMPDEST POP DUP1 PUSH1 0x1 SWAP1 DUP2 PUSH3 0xA3 SWAP2 SWAP1 PUSH3 0x350 JUMP JUMPDEST POP POP POP CALLER PUSH1 0xB PUSH0 PUSH2 0x100 EXP DUP2 SLOAD DUP2 PUSH20 0xFFFFFFFFFFFFFFFFFFFFFFFFFFFFFFFFFFFFFFFF MUL NOT AND SWAP1 DUP4 PUSH20 0xFFFFFFFFFFFFFFFFFFFFFFFFFFFFFFFFFFFFFFFF AND MUL OR SWAP1 SSTORE POP PUSH3 0x434 JUMP JUMPDEST PUSH0 DUP2 MLOAD SWAP1 POP SWAP2 SWAP1 POP JUMP JUMPDEST PUSH32 0x4E487B7100000000000000000000000000000000000000000000000000000000 PUSH0 MSTORE PUSH1 0x41 PUSH1 0x4 MSTORE PUSH1 0x24 PUSH0 REVERT JUMPDEST PUSH32 0x4E487B7100000000000000000000000000000000000000000000000000000000 PUSH0 MSTORE PUSH1 0x22 PUSH1 0x4 MSTORE PUSH1 0x24 PUSH0 REVERT JUMPDEST PUSH0 PUSH1 0x2 DUP3 DIV SWAP1 POP PUSH1 0x1 DUP3 AND DUP1 PUSH3 0x168 JUMPI PUSH1 0x7F DUP3 AND SWAP2 POP JUMPDEST PUSH1 0x20 DUP3 LT DUP2 SUB PUSH3 0x17E JUMPI PUSH3 0x17D PUSH3 0x123 JUMP JUMPDEST JUMPDEST POP SWAP2 SWAP1 POP JUMP JUMPDEST PUSH0 DUP2 SWAP1 POP DUP2 PUSH0 MSTORE PUSH1 0x20 PUSH0 KECCAK256 SWAP1 POP SWAP2 SWAP1 POP JUMP JUMPDEST PUSH0 PUSH1 0x20 PUSH1 0x1F DUP4 ADD DIV SWAP1 POP SWAP2 SWAP1 POP JUMP JUMPDEST PUSH0 DUP3 DUP3 SHL SWAP1 POP SWAP3 SWAP2 POP POP JUMP JUMPDEST PUSH0 PUSH1 0x8 DUP4 MUL PUSH3 0x1E2 PUSH32 0xFFFFFFFFFFFFFFFFFFFFFFFFFFFFFFFFFFFFFFFFFFFFFFFFFFFFFFFFFFFFFFFF DUP3 PUSH3 0x1A5 JUMP JUMPDEST PUSH3 0x1EE DUP7 DUP4 PUSH3 0x1A5 JUMP JUMPDEST SWAP6 POP DUP1 NOT DUP5 AND SWAP4 POP DUP1 DUP7 AND DUP5 OR SWAP3 POP POP POP SWAP4 SWAP3 POP POP POP JUMP JUMPDEST PUSH0 DUP2 SWAP1 POP SWAP2 SWAP1 POP JUMP JUMPDEST PUSH0 DUP2 SWAP1 POP SWAP2 SWAP1 POP JUMP JUMPDEST PUSH0 PUSH3 0x238 PUSH3 0x232 PUSH3 0x22C DUP5 PUSH3 0x206 JUMP JUMPDEST PUSH3 0x20F JUMP JUMPDEST PUSH3 0x206 JUMP JUMPDEST SWAP1 POP SWAP2 SWAP1 POP JUMP JUMPDEST PUSH0 DUP2 SWAP1 POP SWAP2 SWAP1 POP JUMP JUMPDEST PUSH3 0x253 DUP4 PUSH3 0x218 JUMP JUMPDEST PUSH3 0x26B PUSH3 0x262 DUP3 PUSH3 0x23F JUMP JUMPDEST DUP5 DUP5 SLOAD PUSH3 0x1B1 JUMP JUMPDEST DUP3 SSTORE POP POP POP POP JUMP JUMPDEST PUSH0 SWAP1 JUMP JUMPDEST PUSH3 0x281 PUSH3 0x273 JUMP JUMPDEST PUSH3 0x28E DUP2 DUP5 DUP5 PUSH3 0x248 JUMP JUMPDEST POP POP POP JUMP JUMPDEST JUMPDEST DUP2 DUP2 LT ISZERO PUSH3 0x2B5 JUMPI PUSH3 0x2A9 PUSH0 DUP3 PUSH3 0x277 JUMP JUMPDEST PUSH1 0x1 DUP2 ADD SWAP1 POP PUSH3 0x294 JUMP JUMPDEST POP POP JUMP JUMPDEST PUSH1 0x1F DUP3 GT ISZERO PUSH3 0x304 JUMPI PUSH3 0x2CE DUP2 PUSH3 0x184 JUMP JUMPDEST PUSH3 0x2D9 DUP5 PUSH3 0x196 JUMP JUMPDEST DUP2 ADD PUSH1 0x20 DUP6 LT ISZERO PUSH3 0x2E9 JUMPI DUP2 SWAP1 POP JUMPDEST PUSH3 0x301 PUSH3 0x2F8 DUP6 PUSH3 0x196 JUMP JUMPDEST DUP4 ADD DUP3 PUSH3 0x293 JUMP JUMPDEST POP POP JUMPDEST POP POP POP JUMP JUMPDEST PUSH0 DUP3 DUP3 SHR SWAP1 POP SWAP3 SWAP2 POP POP JUMP JUMPDEST PUSH0 PUSH3 0x326 PUSH0 NOT DUP5 PUSH1 0x8 MUL PUSH3 0x309 JUMP JUMPDEST NOT DUP1 DUP4 AND SWAP2 POP POP SWAP3 SWAP2 POP POP JUMP JUMPDEST PUSH0 PUSH3 0x340 DUP4 DUP4 PUSH3 0x315 JUMP JUMPDEST SWAP2 POP DUP3 PUSH1 0x2 MUL DUP3 OR SWAP1 POP SWAP3 SWAP2 POP POP JUMP JUMPDEST PUSH3 0x35B DUP3 PUSH3 0xEC JUMP JUMPDEST PUSH8 0xFFFFFFFFFFFFFFFF DUP2 GT ISZERO PUSH3 0x377 JUMPI PUSH3 0x376 PUSH3 0xF6 JUMP JUMPDEST JUMPDEST PUSH3 0x383 DUP3 SLOAD PUSH3 0x150 JUMP JUMPDEST PUSH3 0x390 DUP3 DUP3 DUP6 PUSH3 0x2B9 JUMP JUMPDEST PUSH0 PUSH1 0x20 SWAP1 POP PUSH1 0x1F DUP4 GT PUSH1 0x1 DUP2 EQ PUSH3 0x3C6 JUMPI PUSH0 DUP5 ISZERO PUSH3 0x3B1 JUMPI DUP3 DUP8 ADD MLOAD SWAP1 POP JUMPDEST PUSH3 0x3BD DUP6 DUP3 PUSH3 0x333 JUMP JUMPDEST DUP7 SSTORE POP PUSH3 0x42C JUMP JUMPDEST PUSH1 0x1F NOT DUP5 AND PUSH3 0x3D6 DUP7 PUSH3 0x184 JUMP JUMPDEST PUSH0 JUMPDEST DUP3 DUP2 LT ISZERO PUSH3 0x3FF JUMPI DUP5 DUP10 ADD MLOAD DUP3 SSTORE PUSH1 0x1 DUP3 ADD SWAP2 POP PUSH1 0x20 DUP6 ADD SWAP5 POP PUSH1 0x20 DUP2 ADD SWAP1 POP PUSH3 0x3D8 JUMP JUMPDEST DUP7 DUP4 LT ISZERO PUSH3 0x41F JUMPI DUP5 DUP10 ADD MLOAD PUSH3 0x41B PUSH1 0x1F DUP10 AND DUP3 PUSH3 0x315 JUMP JUMPDEST DUP4 SSTORE POP JUMPDEST PUSH1 0x1 PUSH1 0x2 DUP9 MUL ADD DUP9 SSTORE POP POP POP JUMPDEST POP POP POP POP POP POP JUMP JUMPDEST PUSH2 0x2D29 DUP1 PUSH3 0x442 PUSH0 CODECOPY PUSH0 RETURN INVALID PUSH1 0x80 PUSH1 0x40 MSTORE PUSH1 0x4 CALLDATASIZE LT PUSH2 0x129 JUMPI PUSH0 CALLDATALOAD PUSH1 0xE0 SHR DUP1 PUSH4 0x6352211E GT PUSH2 0xAA JUMPI DUP1 PUSH4 0xA37365E0 GT PUSH2 0x6E JUMPI DUP1 PUSH4 0xA37365E0 EQ PUSH2 0x405 JUMPI DUP1 PUSH4 0xA90D14E2 EQ PUSH2 0x421 JUMPI DUP1 PUSH4 0xB88D4FDE EQ PUSH2 0x449 JUMPI DUP1 PUSH4 0xC87B56DD EQ PUSH2 0x471 JUMPI DUP1 PUSH4 0xD547CFB7 EQ PUSH2 0x4AD JUMPI DUP1 PUSH4 0xE985E9C5 EQ PUSH2 0x4D7 JUMPI PUSH2 0x129 JUMP JUMPDEST DUP1 PUSH4 0x6352211E EQ PUSH2 0x311 JUMPI DUP1 PUSH4 0x70A08231 EQ PUSH2 0x34D JUMPI DUP1 PUSH4 0x8A71BB2D EQ PUSH2 0x389 JUMPI DUP1 PUSH4 0x95D89B41 EQ PUSH2 0x3B3 JUMPI DUP1 PUSH4 0xA22CB465 EQ PUSH2 0x3DD JUMPI PUSH2 0x129 JUMP JUMPDEST DUP1 PUSH4 0x265AA621 GT PUSH2 0xF1 JUMPI DUP1 PUSH4 0x265AA621 EQ PUSH2 0x21F JUMPI DUP1 PUSH4 0x2A55205A EQ PUSH2 0x25C JUMPI DUP1 PUSH4 0x42842E0E EQ PUSH2 0x299 JUMPI DUP1 PUSH4 0x55F804B3 EQ PUSH2 0x2C1 JUMPI DUP1 PUSH4 0x5AFA3A72 EQ PUSH2 0x2E9 JUMPI PUSH2 0x129 JUMP JUMPDEST DUP1 PUSH4 0x1FFC9A7 EQ PUSH2 0x12D JUMPI DUP1 PUSH4 0x6FDDE03 EQ PUSH2 0x169 JUMPI DUP1 PUSH4 0x81812FC EQ PUSH2 0x193 JUMPI DUP1 PUSH4 0x95EA7B3 EQ PUSH2 0x1CF JUMPI DUP1 PUSH4 0x23B872DD EQ PUSH2 0x1F7 JUMPI JUMPDEST PUSH0 DUP1 REVERT JUMPDEST CALLVALUE DUP1 ISZERO PUSH2 0x138 JUMPI PUSH0 DUP1 REVERT JUMPDEST POP PUSH2 0x153 PUSH1 0x4 DUP1 CALLDATASIZE SUB DUP2 ADD SWAP1 PUSH2 0x14E SWAP2 SWAP1 PUSH2 0x1FC8 JUMP JUMPDEST PUSH2 0x513 JUMP JUMPDEST PUSH1 0x40 MLOAD PUSH2 0x160 SWAP2 SWAP1 PUSH2 0x200D JUMP JUMPDEST PUSH1 0x40 MLOAD DUP1 SWAP2 SUB SWAP1 RETURN JUMPDEST CALLVALUE DUP1 ISZERO PUSH2 0x174 JUMPI PUSH0 DUP1 REVERT JUMPDEST POP PUSH2 0x17D PUSH2 0x573 JUMP JUMPDEST PUSH1 0x40 MLOAD PUSH2 0x18A SWAP2 SWAP1 PUSH2 0x20B0 JUMP JUMPDEST PUSH1 0x40 MLOAD DUP1 SWAP2 SUB SWAP1 RETURN JUMPDEST CALLVALUE DUP1 ISZERO PUSH2 0x19E JUMPI PUSH0 DUP1 REVERT JUMPDEST POP PUSH2 0x1B9 PUSH1 0x4 DUP1 CALLDATASIZE SUB DUP2 ADD SWAP1 PUSH2 0x1B4 SWAP2 SWAP1 PUSH2 0x2103 JUMP JUMPDEST PUSH2 0x602 JUMP JUMPDEST PUSH1 0x40 MLOAD PUSH2 0x1C6 SWAP2 SWAP1 PUSH2 0x216D JUMP JUMPDEST PUSH1 0x40 MLOAD DUP1 SWAP2 SUB SWAP1 RETURN JUMPDEST CALLVALUE DUP1 ISZERO PUSH2 0x1DA JUMPI PUSH0 DUP1 REVERT JUMPDEST POP PUSH2 0x1F5 PUSH1 0x4 DUP1 CALLDATASIZE SUB DUP2 ADD SWAP1 PUSH2 0x1F0 SWAP2 SWAP1 PUSH2 0x21B0 JUMP JUMPDEST PUSH2 0x61D JUMP JUMPDEST STOP JUMPDEST CALLVALUE DUP1 ISZERO PUSH2 0x202 JUMPI PUSH0 DUP1 REVERT JUMPDEST POP PUSH2 0x21D PUSH1 0x4 DUP1 CALLDATASIZE SUB DUP2 ADD SWAP1 PUSH2 0x218 SWAP2 SWAP1 PUSH2 0x21EE JUMP JUMPDEST PUSH2 0x633 JUMP JUMPDEST STOP JUMPDEST CALLVALUE DUP1 ISZERO PUSH2 0x22A JUMPI PUSH0 DUP1 REVERT JUMPDEST POP PUSH2 0x245 PUSH1 0x4 DUP1 CALLDATASIZE SUB DUP2 ADD SWAP1 PUSH2 0x240 SWAP2 SWAP1 PUSH2 0x2103 JUMP JUMPDEST PUSH2 0x732 JUMP JUMPDEST PUSH1 0x40 MLOAD PUSH2 0x253 SWAP3 SWAP2 SWAP1 PUSH2 0x224D JUMP JUMPDEST PUSH1 0x40 MLOAD DUP1 SWAP2 SUB SWAP1 RETURN JUMPDEST CALLVALUE DUP1 ISZERO PUSH2 0x267 JUMPI PUSH0 DUP1 REVERT JUMPDEST POP PUSH2 0x282 PUSH1 0x4 DUP1 CALLDATASIZE SUB DUP2 ADD SWAP1 PUSH2 0x27D SWAP2 SWAP1 PUSH2 0x2274 JUMP JUMPDEST PUSH2 0x771 JUMP JUMPDEST PUSH1 0x40 MLOAD PUSH2 0x290 SWAP3 SWAP2 SWAP1 PUSH2 0x224D JUMP JUMPDEST PUSH1 0x40 MLOAD DUP1 SWAP2 SUB SWAP1 RETURN JUMPDEST CALLVALUE DUP1 ISZERO PUSH2 0x2A4 JUMPI PUSH0 DUP1 REVERT JUMPDEST POP PUSH2 0x2BF PUSH1 0x4 DUP1 CALLDATASIZE SUB DUP2 ADD SWAP1 PUSH2 0x2BA SWAP2 SWAP1 PUSH2 0x21EE JUMP JUMPDEST PUSH2 0x7BF JUMP JUMPDEST STOP JUMPDEST CALLVALUE DUP1 ISZERO PUSH2 0x2CC JUMPI PUSH0 DUP1 REVERT JUMPDEST POP PUSH2 0x2E7 PUSH1 0x4 DUP1 CALLDATASIZE SUB DUP2 ADD SWAP1 PUSH2 0x2E2 SWAP2 SWAP1 PUSH2 0x23DE JUMP JUMPDEST PUSH2 0x7DE JUMP JUMPDEST STOP JUMPDEST CALLVALUE DUP1 ISZERO PUSH2 0x2F4 JUMPI PUSH0 DUP1 REVERT JUMPDEST POP PUSH2 0x30F PUSH1 0x4 DUP1 CALLDATASIZE SUB DUP2 ADD SWAP1 PUSH2 0x30A SWAP2 SWAP1 PUSH2 0x2425 JUMP JUMPDEST PUSH2 0x7F1 JUMP JUMPDEST STOP JUMPDEST CALLVALUE DUP1 ISZERO PUSH2 0x31C JUMPI PUSH0 DUP1 REVERT JUMPDEST POP PUSH2 0x337 PUSH1 0x4 DUP1 CALLDATASIZE SUB DUP2 ADD SWAP1 PUSH2 0x332 SWAP2 SWAP1 PUSH2 0x2103 JUMP JUMPDEST PUSH2 0x8AE JUMP JUMPDEST PUSH1 0x40 MLOAD PUSH2 0x344 SWAP2 SWAP1 PUSH2 0x216D JUMP JUMPDEST PUSH1 0x40 MLOAD DUP1 SWAP2 SUB SWAP1 RETURN JUMPDEST CALLVALUE DUP1 ISZERO PUSH2 0x358 JUMPI PUSH0 DUP1 REVERT JUMPDEST POP PUSH2 0x373 PUSH1 0x4 DUP1 CALLDATASIZE SUB DUP2 ADD SWAP1 PUSH2 0x36E SWAP2 SWAP1 PUSH2 0x247F JUMP JUMPDEST PUSH2 0x8BF JUMP JUMPDEST PUSH1 0x40 MLOAD PUSH2 0x380 SWAP2 SWAP1 PUSH2 0x24AA JUMP JUMPDEST PUSH1 0x40 MLOAD DUP1 SWAP2 SUB SWAP1 RETURN JUMPDEST CALLVALUE DUP1 ISZERO PUSH2 0x394 JUMPI PUSH0 DUP1 REVERT JUMPDEST POP PUSH2 0x39D PUSH2 0x975 JUMP JUMPDEST PUSH1 0x40 MLOAD PUSH2 0x3AA SWAP2 SWAP1 PUSH2 0x24AA JUMP JUMPDEST PUSH1 0x40 MLOAD DUP1 SWAP2 SUB SWAP1 RETURN JUMPDEST CALLVALUE DUP1 ISZERO PUSH2 0x3BE JUMPI PUSH0 DUP1 REVERT JUMPDEST POP PUSH2 0x3C7 PUSH2 0x97B JUMP JUMPDEST PUSH1 0x40 MLOAD PUSH2 0x3D4 SWAP2 SWAP1 PUSH2 0x20B0 JUMP JUMPDEST PUSH1 0x40 MLOAD DUP1 SWAP2 SUB SWAP1 RETURN JUMPDEST CALLVALUE DUP1 ISZERO PUSH2 0x3E8 JUMPI PUSH0 DUP1 REVERT JUMPDEST POP PUSH2 0x403 PUSH1 0x4 DUP1 CALLDATASIZE SUB DUP2 ADD SWAP1 PUSH2 0x3FE SWAP2 SWAP1 PUSH2 0x24ED JUMP JUMPDEST PUSH2 0xA0B JUMP JUMPDEST STOP JUMPDEST PUSH2 0x41F PUSH1 0x4 DUP1 CALLDATASIZE SUB DUP2 ADD SWAP1 PUSH2 0x41A SWAP2 SWAP1 PUSH2 0x2103 JUMP JUMPDEST PUSH2 0xA21 JUMP JUMPDEST STOP JUMPDEST CALLVALUE DUP1 ISZERO PUSH2 0x42C JUMPI PUSH0 DUP1 REVERT JUMPDEST POP PUSH2 0x447 PUSH1 0x4 DUP1 CALLDATASIZE SUB DUP2 ADD SWAP1 PUSH2 0x442 SWAP2 SWAP1 PUSH2 0x2103 JUMP JUMPDEST PUSH2 0xBDC JUMP JUMPDEST STOP JUMPDEST CALLVALUE DUP1 ISZERO PUSH2 0x454 JUMPI PUSH0 DUP1 REVERT JUMPDEST POP PUSH2 0x46F PUSH1 0x4 DUP1 CALLDATASIZE SUB DUP2 ADD SWAP1 PUSH2 0x46A SWAP2 SWAP1 PUSH2 0x25C9 JUMP JUMPDEST PUSH2 0xCB9 JUMP JUMPDEST STOP JUMPDEST CALLVALUE DUP1 ISZERO PUSH2 0x47C JUMPI PUSH0 DUP1 REVERT JUMPDEST POP PUSH2 0x497 PUSH1 0x4 DUP1 CALLDATASIZE SUB DUP2 ADD SWAP1 PUSH2 0x492 SWAP2 SWAP1 PUSH2 0x2103 JUMP JUMPDEST PUSH2 0xCD6 JUMP JUMPDEST PUSH1 0x40 MLOAD PUSH2 0x4A4 SWAP2 SWAP1 PUSH2 0x20B0 JUMP JUMPDEST PUSH1 0x40 MLOAD DUP1 SWAP2 SUB SWAP1 RETURN JUMPDEST CALLVALUE DUP1 ISZERO PUSH2 0x4B8 JUMPI PUSH0 DUP1 REVERT JUMPDEST POP PUSH2 0x4C1 PUSH2 0xDE1 JUMP JUMPDEST PUSH1 0x40 MLOAD PUSH2 0x4CE SWAP2 SWAP1 PUSH2 0x20B0 JUMP JUMPDEST PUSH1 0x40 MLOAD DUP1 SWAP2 SUB SWAP1 RETURN JUMPDEST CALLVALUE DUP1 ISZERO PUSH2 0x4E2 JUMPI PUSH0 DUP1 REVERT JUMPDEST POP PUSH2 0x4FD PUSH1 0x4 DUP1 CALLDATASIZE SUB DUP2 ADD SWAP1 PUSH2 0x4F8 SWAP2 SWAP1 PUSH2 0x2649 JUMP JUMPDEST PUSH2 0xE6D JUMP JUMPDEST PUSH1 0x40 MLOAD PUSH2 0x50A SWAP2 SWAP1 PUSH2 0x200D JUMP JUMPDEST PUSH1 0x40 MLOAD DUP1 SWAP2 SUB SWAP1 RETURN JUMPDEST PUSH0 PUSH4 0x49064906 PUSH1 0xE0 SHL PUSH28 0xFFFFFFFFFFFFFFFFFFFFFFFFFFFFFFFFFFFFFFFFFFFFFFFFFFFFFFFF NOT AND DUP3 PUSH28 0xFFFFFFFFFFFFFFFFFFFFFFFFFFFFFFFFFFFFFFFFFFFFFFFFFFFFFFFF NOT AND EQ DUP1 PUSH2 0x56C JUMPI POP PUSH2 0x56B DUP3 PUSH2 0xEFB JUMP JUMPDEST JUMPDEST SWAP1 POP SWAP2 SWAP1 POP JUMP JUMPDEST PUSH1 0x60 PUSH0 DUP1 SLOAD PUSH2 0x581 SWAP1 PUSH2 0x26B4 JUMP JUMPDEST DUP1 PUSH1 0x1F ADD PUSH1 0x20 DUP1 SWAP2 DIV MUL PUSH1 0x20 ADD PUSH1 0x40 MLOAD SWAP1 DUP2 ADD PUSH1 0x40 MSTORE DUP1 SWAP3 SWAP2 SWAP1 DUP2 DUP2 MSTORE PUSH1 0x20 ADD DUP3 DUP1 SLOAD PUSH2 0x5AD SWAP1 PUSH2 0x26B4 JUMP JUMPDEST DUP1 ISZERO PUSH2 0x5F8 JUMPI DUP1 PUSH1 0x1F LT PUSH2 0x5CF JUMPI PUSH2 0x100 DUP1 DUP4 SLOAD DIV MUL DUP4 MSTORE SWAP2 PUSH1 0x20 ADD SWAP2 PUSH2 0x5F8 JUMP JUMPDEST DUP3 ADD SWAP2 SWAP1 PUSH0 MSTORE PUSH1 0x20 PUSH0 KECCAK256 SWAP1 JUMPDEST DUP2 SLOAD DUP2 MSTORE SWAP1 PUSH1 0x1 ADD SWAP1 PUSH1 0x20 ADD DUP1 DUP4 GT PUSH2 0x5DB JUMPI DUP3 SWAP1 SUB PUSH1 0x1F AND DUP3 ADD SWAP2 JUMPDEST POP POP POP POP POP SWAP1 POP SWAP1 JUMP JUMPDEST PUSH0 PUSH2 0x60C DUP3 PUSH2 0xFDC JUMP JUMPDEST POP PUSH2 0x616 DUP3 PUSH2 0x1062 JUMP JUMPDEST SWAP1 POP SWAP2 SWAP1 POP JUMP JUMPDEST PUSH2 0x62F DUP3 DUP3 PUSH2 0x62A PUSH2 0x109B JUMP JUMPDEST PUSH2 0x10A2 JUMP JUMPDEST POP POP JUMP JUMPDEST PUSH0 PUSH20 0xFFFFFFFFFFFFFFFFFFFFFFFFFFFFFFFFFFFFFFFF AND DUP3 PUSH20 0xFFFFFFFFFFFFFFFFFFFFFFFFFFFFFFFFFFFFFFFF AND SUB PUSH2 0x6A3 JUMPI PUSH0 PUSH1 0x40 MLOAD PUSH32 0x64A0AE9200000000000000000000000000000000000000000000000000000000 DUP2 MSTORE PUSH1 0x4 ADD PUSH2 0x69A SWAP2 SWAP1 PUSH2 0x216D JUMP JUMPDEST PUSH1 0x40 MLOAD DUP1 SWAP2 SUB SWAP1 REVERT JUMPDEST PUSH0 PUSH2 0x6B6 DUP4 DUP4 PUSH2 0x6B1 PUSH2 0x109B JUMP JUMPDEST PUSH2 0x10B4 JUMP JUMPDEST SWAP1 POP DUP4 PUSH20 0xFFFFFFFFFFFFFFFFFFFFFFFFFFFFFFFFFFFFFFFF AND DUP2 PUSH20 0xFFFFFFFFFFFFFFFFFFFFFFFFFFFFFFFFFFFFFFFF AND EQ PUSH2 0x72C JUMPI DUP4 DUP3 DUP3 PUSH1 0x40 MLOAD PUSH32 0x64283D7B00000000000000000000000000000000000000000000000000000000 DUP2 MSTORE PUSH1 0x4 ADD PUSH2 0x723 SWAP4 SWAP3 SWAP2 SWAP1 PUSH2 0x26E4 JUMP JUMPDEST PUSH1 0x40 MLOAD DUP1 SWAP2 SUB SWAP1 REVERT JUMPDEST POP POP POP POP JUMP JUMPDEST PUSH1 0xC PUSH1 0x20 MSTORE DUP1 PUSH0 MSTORE PUSH1 0x40 PUSH0 KECCAK256 PUSH0 SWAP2 POP SWAP1 POP DUP1 PUSH0 ADD PUSH0 SWAP1 SLOAD SWAP1 PUSH2 0x100 EXP SWAP1 DIV PUSH20 0xFFFFFFFFFFFFFFFFFFFFFFFFFFFFFFFFFFFFFFFF AND SWAP1 DUP1 PUSH1 0x1 ADD SLOAD SWAP1 POP DUP3 JUMP JUMPDEST PUSH0 DUP1 PUSH0 PUSH1 0x64 PUSH1 0xA SLOAD DUP6 PUSH2 0x784 SWAP2 SWAP1 PUSH2 0x2746 JUMP JUMPDEST PUSH2 0x78E SWAP2 SWAP1 PUSH2 0x27B4 JUMP JUMPDEST SWAP1 POP PUSH1 0xB PUSH0 SWAP1 SLOAD SWAP1 PUSH2 0x100 EXP SWAP1 DIV PUSH20 0xFFFFFFFFFFFFFFFFFFFFFFFFFFFFFFFFFFFFFFFF AND DUP2 SWAP3 POP SWAP3 POP POP SWAP3 POP SWAP3 SWAP1 POP JUMP JUMPDEST PUSH2 0x7D9 DUP4 DUP4 DUP4 PUSH1 0x40 MLOAD DUP1 PUSH1 0x20 ADD PUSH1 0x40 MSTORE DUP1 PUSH0 DUP2 MSTORE POP PUSH2 0xCB9 JUMP JUMPDEST POP POP POP JUMP JUMPDEST DUP1 PUSH1 0x9 SWAP1 DUP2 PUSH2 0x7ED SWAP2 SWAP1 PUSH2 0x2981 JUMP JUMPDEST POP POP JUMP JUMPDEST PUSH0 PUSH2 0x7FC PUSH1 0x7 PUSH2 0x12BF JUMP JUMPDEST SWAP1 POP PUSH2 0x808 CALLER DUP3 PUSH2 0x12CB JUMP JUMPDEST PUSH2 0x812 DUP2 DUP5 PUSH2 0x12E8 JUMP JUMPDEST PUSH1 0x40 MLOAD DUP1 PUSH1 0x40 ADD PUSH1 0x40 MSTORE DUP1 CALLER PUSH20 0xFFFFFFFFFFFFFFFFFFFFFFFFFFFFFFFFFFFFFFFF AND DUP2 MSTORE PUSH1 0x20 ADD DUP4 DUP2 MSTORE POP PUSH1 0xC PUSH0 DUP4 DUP2 MSTORE PUSH1 0x20 ADD SWAP1 DUP2 MSTORE PUSH1 0x20 ADD PUSH0 KECCAK256 PUSH0 DUP3 ADD MLOAD DUP2 PUSH0 ADD PUSH0 PUSH2 0x100 EXP DUP2 SLOAD DUP2 PUSH20 0xFFFFFFFFFFFFFFFFFFFFFFFFFFFFFFFFFFFFFFFF MUL NOT AND SWAP1 DUP4 PUSH20 0xFFFFFFFFFFFFFFFFFFFFFFFFFFFFFFFFFFFFFFFF AND MUL OR SWAP1 SSTORE POP PUSH1 0x20 DUP3 ADD MLOAD DUP2 PUSH1 0x1 ADD SSTORE SWAP1 POP POP PUSH2 0x8A9 PUSH1 0x7 PUSH2 0x1342 JUMP JUMPDEST POP POP POP JUMP JUMPDEST PUSH0 PUSH2 0x8B8 DUP3 PUSH2 0xFDC JUMP JUMPDEST SWAP1 POP SWAP2 SWAP1 POP JUMP JUMPDEST PUSH0 DUP1 PUSH20 0xFFFFFFFFFFFFFFFFFFFFFFFFFFFFFFFFFFFFFFFF AND DUP3 PUSH20 0xFFFFFFFFFFFFFFFFFFFFFFFFFFFFFFFFFFFFFFFF AND SUB PUSH2 0x930 JUMPI PUSH0 PUSH1 0x40 MLOAD PUSH32 0x89C62B6400000000000000000000000000000000000000000000000000000000 DUP2 MSTORE PUSH1 0x4 ADD PUSH2 0x927 SWAP2 SWAP1 PUSH2 0x216D JUMP JUMPDEST PUSH1 0x40 MLOAD DUP1 SWAP2 SUB SWAP1 REVERT JUMPDEST PUSH1 0x3 PUSH0 DUP4 PUSH20 0xFFFFFFFFFFFFFFFFFFFFFFFFFFFFFFFFFFFFFFFF AND PUSH20 0xFFFFFFFFFFFFFFFFFFFFFFFFFFFFFFFFFFFFFFFF AND DUP2 MSTORE PUSH1 0x20 ADD SWAP1 DUP2 MSTORE PUSH1 0x20 ADD PUSH0 KECCAK256 SLOAD SWAP1 POP SWAP2 SWAP1 POP JUMP JUMPDEST PUSH1 0xA SLOAD DUP2 JUMP JUMPDEST PUSH1 0x60 PUSH1 0x1 DUP1 SLOAD PUSH2 0x98A SWAP1 PUSH2 0x26B4 JUMP JUMPDEST DUP1 PUSH1 0x1F ADD PUSH1 0x20 DUP1 SWAP2 DIV MUL PUSH1 0x20 ADD PUSH1 0x40 MLOAD SWAP1 DUP2 ADD PUSH1 0x40 MSTORE DUP1 SWAP3 SWAP2 SWAP1 DUP2 DUP2 MSTORE PUSH1 0x20 ADD DUP3 DUP1 SLOAD PUSH2 0x9B6 SWAP1 PUSH2 0x26B4 JUMP JUMPDEST DUP1 ISZERO PUSH2 0xA01 JUMPI DUP1 PUSH1 0x1F LT PUSH2 0x9D8 JUMPI PUSH2 0x100 DUP1 DUP4 SLOAD DIV MUL DUP4 MSTORE SWAP2 PUSH1 0x20 ADD SWAP2 PUSH2 0xA01 JUMP JUMPDEST DUP3 ADD SWAP2 SWAP1 PUSH0 MSTORE PUSH1 0x20 PUSH0 KECCAK256 SWAP1 JUMPDEST DUP2 SLOAD DUP2 MSTORE SWAP1 PUSH1 0x1 ADD SWAP1 PUSH1 0x20 ADD DUP1 DUP4 GT PUSH2 0x9E4 JUMPI DUP3 SWAP1 SUB PUSH1 0x1F AND DUP3 ADD SWAP2 JUMPDEST POP POP POP POP POP SWAP1 POP SWAP1 JUMP JUMPDEST PUSH2 0xA1D PUSH2 0xA16 PUSH2 0x109B JUMP JUMPDEST DUP4 DUP4 PUSH2 0x1356 JUMP JUMPDEST POP POP JUMP JUMPDEST PUSH0 PUSH2 0xA2B DUP3 PUSH2 0x8AE JUMP JUMPDEST SWAP1 POP PUSH0 CALLER SWAP1 POP PUSH0 PUSH1 0xC PUSH0 DUP6 DUP2 MSTORE PUSH1 0x20 ADD SWAP1 DUP2 MSTORE PUSH1 0x20 ADD PUSH0 KECCAK256 PUSH1 0x1 ADD SLOAD SWAP1 POP DUP2 PUSH20 0xFFFFFFFFFFFFFFFFFFFFFFFFFFFFFFFFFFFFFFFF AND DUP4 PUSH20 0xFFFFFFFFFFFFFFFFFFFFFFFFFFFFFFFFFFFFFFFF AND SUB PUSH2 0xAB7 JUMPI PUSH1 0x40 MLOAD PUSH32 0x8C379A000000000000000000000000000000000000000000000000000000000 DUP2 MSTORE PUSH1 0x4 ADD PUSH2 0xAAE SWAP1 PUSH2 0x2A9A JUMP JUMPDEST PUSH1 0x40 MLOAD DUP1 SWAP2 SUB SWAP1 REVERT JUMPDEST DUP1 CALLVALUE EQ PUSH2 0xAF9 JUMPI PUSH1 0x40 MLOAD PUSH32 0x8C379A000000000000000000000000000000000000000000000000000000000 DUP2 MSTORE PUSH1 0x4 ADD PUSH2 0xAF0 SWAP1 PUSH2 0x2B02 JUMP JUMPDEST PUSH1 0x40 MLOAD DUP1 SWAP2 SUB SWAP1 REVERT JUMPDEST PUSH2 0xB04 DUP4 DUP4 DUP7 PUSH2 0x14BF JUMP JUMPDEST PUSH0 PUSH1 0x64 PUSH1 0xA SLOAD DUP4 PUSH2 0xB15 SWAP2 SWAP1 PUSH2 0x2746 JUMP JUMPDEST PUSH2 0xB1F SWAP2 SWAP1 PUSH2 0x27B4 JUMP JUMPDEST SWAP1 POP PUSH1 0xB PUSH0 SWAP1 SLOAD SWAP1 PUSH2 0x100 EXP SWAP1 DIV PUSH20 0xFFFFFFFFFFFFFFFFFFFFFFFFFFFFFFFFFFFFFFFF AND PUSH20 0xFFFFFFFFFFFFFFFFFFFFFFFFFFFFFFFFFFFFFFFF AND PUSH2 0x8FC DUP3 SWAP1 DUP2 ISZERO MUL SWAP1 PUSH1 0x40 MLOAD PUSH0 PUSH1 0x40 MLOAD DUP1 DUP4 SUB DUP2 DUP6 DUP9 DUP9 CALL SWAP4 POP POP POP POP ISZERO DUP1 ISZERO PUSH2 0xB85 JUMPI RETURNDATASIZE PUSH0 DUP1 RETURNDATACOPY RETURNDATASIZE PUSH0 REVERT JUMPDEST POP DUP4 PUSH20 0xFFFFFFFFFFFFFFFFFFFFFFFFFFFFFFFFFFFFFFFF AND PUSH2 0x8FC DUP3 DUP5 PUSH2 0xBAC SWAP2 SWAP1 PUSH2 0x2B20 JUMP JUMPDEST SWAP1 DUP2 ISZERO MUL SWAP1 PUSH1 0x40 MLOAD PUSH0 PUSH1 0x40 MLOAD DUP1 DUP4 SUB DUP2 DUP6 DUP9 DUP9 CALL SWAP4 POP POP POP POP ISZERO DUP1 ISZERO PUSH2 0xBD4 JUMPI RETURNDATASIZE PUSH0 DUP1 RETURNDATACOPY RETURNDATASIZE PUSH0 REVERT JUMPDEST POP POP POP POP POP POP JUMP JUMPDEST PUSH2 0xBE5 DUP2 PUSH2 0x8AE JUMP JUMPDEST PUSH20 0xFFFFFFFFFFFFFFFFFFFFFFFFFFFFFFFFFFFFFFFF AND CALLER PUSH20 0xFFFFFFFFFFFFFFFFFFFFFFFFFFFFFFFFFFFFFFFF AND EQ PUSH2 0xC52 JUMPI PUSH1 0x40 MLOAD PUSH32 0x8C379A000000000000000000000000000000000000000000000000000000000 DUP2 MSTORE PUSH1 0x4 ADD PUSH2 0xC49 SWAP1 PUSH2 0x2B9D JUMP JUMPDEST PUSH1 0x40 MLOAD DUP1 SWAP2 SUB SWAP1 REVERT JUMPDEST PUSH1 0x1 PUSH1 0x8 PUSH0 CALLER PUSH20 0xFFFFFFFFFFFFFFFFFFFFFFFFFFFFFFFFFFFFFFFF AND PUSH20 0xFFFFFFFFFFFFFFFFFFFFFFFFFFFFFFFFFFFFFFFF AND DUP2 MSTORE PUSH1 0x20 ADD SWAP1 DUP2 MSTORE PUSH1 0x20 ADD PUSH0 KECCAK256 PUSH0 DUP4 DUP2 MSTORE PUSH1 0x20 ADD SWAP1 DUP2 MSTORE PUSH1 0x20 ADD PUSH0 KECCAK256 PUSH0 PUSH2 0x100 EXP DUP2 SLOAD DUP2 PUSH1 0xFF MUL NOT AND SWAP1 DUP4 ISZERO ISZERO MUL OR SWAP1 SSTORE POP POP JUMP JUMPDEST PUSH2 0xCC4 DUP5 DUP5 DUP5 PUSH2 0x633 JUMP JUMPDEST PUSH2 0xCD0 DUP5 DUP5 DUP5 DUP5 PUSH2 0x1627 JUMP JUMPDEST POP POP POP POP JUMP JUMPDEST PUSH1 0x60 PUSH2 0xCE1 DUP3 PUSH2 0xFDC JUMP JUMPDEST POP PUSH0 PUSH1 0x6 PUSH0 DUP5 DUP2 MSTORE PUSH1 0x20 ADD SWAP1 DUP2 MSTORE PUSH1 0x20 ADD PUSH0 KECCAK256 DUP1 SLOAD PUSH2 0xCFF SWAP1 PUSH2 0x26B4 JUMP JUMPDEST DUP1 PUSH1 0x1F ADD PUSH1 0x20 DUP1 SWAP2 DIV MUL PUSH1 0x20 ADD PUSH1 0x40 MLOAD SWAP1 DUP2 ADD PUSH1 0x40 MSTORE DUP1 SWAP3 SWAP2 SWAP1 DUP2 DUP2 MSTORE PUSH1 0x20 ADD DUP3 DUP1 SLOAD PUSH2 0xD2B SWAP1 PUSH2 0x26B4 JUMP JUMPDEST DUP1 ISZERO PUSH2 0xD76 JUMPI DUP1 PUSH1 0x1F LT PUSH2 0xD4D JUMPI PUSH2 0x100 DUP1 DUP4 SLOAD DIV MUL DUP4 MSTORE SWAP2 PUSH1 0x20 ADD SWAP2 PUSH2 0xD76 JUMP JUMPDEST DUP3 ADD SWAP2 SWAP1 PUSH0 MSTORE PUSH1 0x20 PUSH0 KECCAK256 SWAP1 JUMPDEST DUP2 SLOAD DUP2 MSTORE SWAP1 PUSH1 0x1 ADD SWAP1 PUSH1 0x20 ADD DUP1 DUP4 GT PUSH2 0xD59 JUMPI DUP3 SWAP1 SUB PUSH1 0x1F AND DUP3 ADD SWAP2 JUMPDEST POP POP POP POP POP SWAP1 POP PUSH0 PUSH2 0xD86 PUSH2 0x17D9 JUMP JUMPDEST SWAP1 POP PUSH0 DUP2 MLOAD SUB PUSH2 0xD9A JUMPI DUP2 SWAP3 POP POP POP PUSH2 0xDDC JUMP JUMPDEST PUSH0 DUP3 MLOAD GT ISZERO PUSH2 0xDCE JUMPI DUP1 DUP3 PUSH1 0x40 MLOAD PUSH1 0x20 ADD PUSH2 0xDB6 SWAP3 SWAP2 SWAP1 PUSH2 0x2BF5 JUMP JUMPDEST PUSH1 0x40 MLOAD PUSH1 0x20 DUP2 DUP4 SUB SUB DUP2 MSTORE SWAP1 PUSH1 0x40 MSTORE SWAP3 POP POP POP PUSH2 0xDDC JUMP JUMPDEST PUSH2 0xDD7 DUP5 PUSH2 0x17EF JUMP JUMPDEST SWAP3 POP POP POP JUMPDEST SWAP2 SWAP1 POP JUMP JUMPDEST PUSH1 0x9 DUP1 SLOAD PUSH2 0xDEE SWAP1 PUSH2 0x26B4 JUMP JUMPDEST DUP1 PUSH1 0x1F ADD PUSH1 0x20 DUP1 SWAP2 DIV MUL PUSH1 0x20 ADD PUSH1 0x40 MLOAD SWAP1 DUP2 ADD PUSH1 0x40 MSTORE DUP1 SWAP3 SWAP2 SWAP1 DUP2 DUP2 MSTORE PUSH1 0x20 ADD DUP3 DUP1 SLOAD PUSH2 0xE1A SWAP1 PUSH2 0x26B4 JUMP JUMPDEST DUP1 ISZERO PUSH2 0xE65 JUMPI DUP1 PUSH1 0x1F LT PUSH2 0xE3C JUMPI PUSH2 0x100 DUP1 DUP4 SLOAD DIV MUL DUP4 MSTORE SWAP2 PUSH1 0x20 ADD SWAP2 PUSH2 0xE65 JUMP JUMPDEST DUP3 ADD SWAP2 SWAP1 PUSH0 MSTORE PUSH1 0x20 PUSH0 KECCAK256 SWAP1 JUMPDEST DUP2 SLOAD DUP2 MSTORE SWAP1 PUSH1 0x1 ADD SWAP1 PUSH1 0x20 ADD DUP1 DUP4 GT PUSH2 0xE48 JUMPI DUP3 SWAP1 SUB PUSH1 0x1F AND DUP3 ADD SWAP2 JUMPDEST POP POP POP POP POP DUP2 JUMP JUMPDEST PUSH0 PUSH1 0x5 PUSH0 DUP5 PUSH20 0xFFFFFFFFFFFFFFFFFFFFFFFFFFFFFFFFFFFFFFFF AND PUSH20 0xFFFFFFFFFFFFFFFFFFFFFFFFFFFFFFFFFFFFFFFF AND DUP2 MSTORE PUSH1 0x20 ADD SWAP1 DUP2 MSTORE PUSH1 0x20 ADD PUSH0 KECCAK256 PUSH0 DUP4 PUSH20 0xFFFFFFFFFFFFFFFFFFFFFFFFFFFFFFFFFFFFFFFF AND PUSH20 0xFFFFFFFFFFFFFFFFFFFFFFFFFFFFFFFFFFFFFFFF AND DUP2 MSTORE PUSH1 0x20 ADD SWAP1 DUP2 MSTORE PUSH1 0x20 ADD PUSH0 KECCAK256 PUSH0 SWAP1 SLOAD SWAP1 PUSH2 0x100 EXP SWAP1 DIV PUSH1 0xFF AND SWAP1 POP SWAP3 SWAP2 POP POP JUMP JUMPDEST PUSH0 PUSH32 0x80AC58CD00000000000000000000000000000000000000000000000000000000 PUSH28 0xFFFFFFFFFFFFFFFFFFFFFFFFFFFFFFFFFFFFFFFFFFFFFFFFFFFFFFFF NOT AND DUP3 PUSH28 0xFFFFFFFFFFFFFFFFFFFFFFFFFFFFFFFFFFFFFFFFFFFFFFFFFFFFFFFF NOT AND EQ DUP1 PUSH2 0xFC5 JUMPI POP PUSH32 0x5B5E139F00000000000000000000000000000000000000000000000000000000 PUSH28 0xFFFFFFFFFFFFFFFFFFFFFFFFFFFFFFFFFFFFFFFFFFFFFFFFFFFFFFFF NOT AND DUP3 PUSH28 0xFFFFFFFFFFFFFFFFFFFFFFFFFFFFFFFFFFFFFFFFFFFFFFFFFFFFFFFF NOT AND EQ JUMPDEST DUP1 PUSH2 0xFD5 JUMPI POP PUSH2 0xFD4 DUP3 PUSH2 0x1855 JUMP JUMPDEST JUMPDEST SWAP1 POP SWAP2 SWAP1 POP JUMP JUMPDEST PUSH0 DUP1 PUSH2 0xFE7 DUP4 PUSH2 0x18BE JUMP JUMPDEST SWAP1 POP PUSH0 PUSH20 0xFFFFFFFFFFFFFFFFFFFFFFFFFFFFFFFFFFFFFFFF AND DUP2 PUSH20 0xFFFFFFFFFFFFFFFFFFFFFFFFFFFFFFFFFFFFFFFF AND SUB PUSH2 0x1059 JUMPI DUP3 PUSH1 0x40 MLOAD PUSH32 0x7E27328900000000000000000000000000000000000000000000000000000000 DUP2 MSTORE PUSH1 0x4 ADD PUSH2 0x1050 SWAP2 SWAP1 PUSH2 0x24AA JUMP JUMPDEST PUSH1 0x40 MLOAD DUP1 SWAP2 SUB SWAP1 REVERT JUMPDEST DUP1 SWAP2 POP POP SWAP2 SWAP1 POP JUMP JUMPDEST PUSH0 PUSH1 0x4 PUSH0 DUP4 DUP2 MSTORE PUSH1 0x20 ADD SWAP1 DUP2 MSTORE PUSH1 0x20 ADD PUSH0 KECCAK256 PUSH0 SWAP1 SLOAD SWAP1 PUSH2 0x100 EXP SWAP1 DIV PUSH20 0xFFFFFFFFFFFFFFFFFFFFFFFFFFFFFFFFFFFFFFFF AND SWAP1 POP SWAP2 SWAP1 POP JUMP JUMPDEST PUSH0 CALLER SWAP1 POP SWAP1 JUMP JUMPDEST PUSH2 0x10AF DUP4 DUP4 DUP4 PUSH1 0x1 PUSH2 0x18F7 JUMP JUMPDEST POP POP POP JUMP JUMPDEST PUSH0 DUP1 PUSH2 0x10BF DUP5 PUSH2 0x18BE JUMP JUMPDEST SWAP1 POP PUSH0 PUSH20 0xFFFFFFFFFFFFFFFFFFFFFFFFFFFFFFFFFFFFFFFF AND DUP4 PUSH20 0xFFFFFFFFFFFFFFFFFFFFFFFFFFFFFFFFFFFFFFFF AND EQ PUSH2 0x1100 JUMPI PUSH2 0x10FF DUP2 DUP5 DUP7 PUSH2 0x1AB6 JUMP JUMPDEST JUMPDEST PUSH0 PUSH20 0xFFFFFFFFFFFFFFFFFFFFFFFFFFFFFFFFFFFFFFFF AND DUP2 PUSH20 0xFFFFFFFFFFFFFFFFFFFFFFFFFFFFFFFFFFFFFFFF AND EQ PUSH2 0x118B JUMPI PUSH2 0x113F PUSH0 DUP6 PUSH0 DUP1 PUSH2 0x18F7 JUMP JUMPDEST PUSH1 0x1 PUSH1 0x3 PUSH0 DUP4 PUSH20 0xFFFFFFFFFFFFFFFFFFFFFFFFFFFFFFFFFFFFFFFF AND PUSH20 0xFFFFFFFFFFFFFFFFFFFFFFFFFFFFFFFFFFFFFFFF AND DUP2 MSTORE PUSH1 0x20 ADD SWAP1 DUP2 MSTORE PUSH1 0x20 ADD PUSH0 KECCAK256 PUSH0 DUP3 DUP3 SLOAD SUB SWAP3 POP POP DUP2 SWAP1 SSTORE POP JUMPDEST PUSH0 PUSH20 0xFFFFFFFFFFFFFFFFFFFFFFFFFFFFFFFFFFFFFFFF AND DUP6 PUSH20 0xFFFFFFFFFFFFFFFFFFFFFFFFFFFFFFFFFFFFFFFF AND EQ PUSH2 0x120A JUMPI PUSH1 0x1 PUSH1 0x3 PUSH0 DUP8 PUSH20 0xFFFFFFFFFFFFFFFFFFFFFFFFFFFFFFFFFFFFFFFF AND PUSH20 0xFFFFFFFFFFFFFFFFFFFFFFFFFFFFFFFFFFFFFFFF AND DUP2 MSTORE PUSH1 0x20 ADD SWAP1 DUP2 MSTORE PUSH1 0x20 ADD PUSH0 KECCAK256 PUSH0 DUP3 DUP3 SLOAD ADD SWAP3 POP POP DUP2 SWAP1 SSTORE POP JUMPDEST DUP5 PUSH1 0x2 PUSH0 DUP7 DUP2 MSTORE PUSH1 0x20 ADD SWAP1 DUP2 MSTORE PUSH1 0x20 ADD PUSH0 KECCAK256 PUSH0 PUSH2 0x100 EXP DUP2 SLOAD DUP2 PUSH20 0xFFFFFFFFFFFFFFFFFFFFFFFFFFFFFFFFFFFFFFFF MUL NOT AND SWAP1 DUP4 PUSH20 0xFFFFFFFFFFFFFFFFFFFFFFFFFFFFFFFFFFFFFFFF AND MUL OR SWAP1 SSTORE POP DUP4 DUP6 PUSH20 0xFFFFFFFFFFFFFFFFFFFFFFFFFFFFFFFFFFFFFFFF AND DUP3 PUSH20 0xFFFFFFFFFFFFFFFFFFFFFFFFFFFFFFFFFFFFFFFF AND PUSH32 0xDDF252AD1BE2C89B69C2B068FC378DAA952BA7F163C4A11628F55A4DF523B3EF PUSH1 0x40 MLOAD PUSH1 0x40 MLOAD DUP1 SWAP2 SUB SWAP1 LOG4 DUP1 SWAP2 POP POP SWAP4 SWAP3 POP POP POP JUMP JUMPDEST PUSH0 DUP2 PUSH0 ADD SLOAD SWAP1 POP SWAP2 SWAP1 POP JUMP JUMPDEST PUSH2 0x12E4 DUP3 DUP3 PUSH1 0x40 MLOAD DUP1 PUSH1 0x20 ADD PUSH1 0x40 MSTORE DUP1 PUSH0 DUP2 MSTORE POP PUSH2 0x1B79 JUMP JUMPDEST POP POP JUMP JUMPDEST DUP1 PUSH1 0x6 PUSH0 DUP5 DUP2 MSTORE PUSH1 0x20 ADD SWAP1 DUP2 MSTORE PUSH1 0x20 ADD PUSH0 KECCAK256 SWAP1 DUP2 PUSH2 0x1306 SWAP2 SWAP1 PUSH2 0x2981 JUMP JUMPDEST POP PUSH32 0xF8E1A15ABA9398E019F0B49DF1A4FDE98EE17AE345CB5F6B5E2C27F5033E8CE7 DUP3 PUSH1 0x40 MLOAD PUSH2 0x1336 SWAP2 SWAP1 PUSH2 0x24AA JUMP JUMPDEST PUSH1 0x40 MLOAD DUP1 SWAP2 SUB SWAP1 LOG1 POP POP JUMP JUMPDEST PUSH1 0x1 DUP2 PUSH0 ADD PUSH0 DUP3 DUP3 SLOAD ADD SWAP3 POP POP DUP2 SWAP1 SSTORE POP POP JUMP JUMPDEST PUSH0 PUSH20 0xFFFFFFFFFFFFFFFFFFFFFFFFFFFFFFFFFFFFFFFF AND DUP3 PUSH20 0xFFFFFFFFFFFFFFFFFFFFFFFFFFFFFFFFFFFFFFFF AND SUB PUSH2 0x13C6 JUMPI DUP2 PUSH1 0x40 MLOAD PUSH32 0x5B08BA1800000000000000000000000000000000000000000000000000000000 DUP2 MSTORE PUSH1 0x4 ADD PUSH2 0x13BD SWAP2 SWAP1 PUSH2 0x216D JUMP JUMPDEST PUSH1 0x40 MLOAD DUP1 SWAP2 SUB SWAP1 REVERT JUMPDEST DUP1 PUSH1 0x5 PUSH0 DUP6 PUSH20 0xFFFFFFFFFFFFFFFFFFFFFFFFFFFFFFFFFFFFFFFF AND PUSH20 0xFFFFFFFFFFFFFFFFFFFFFFFFFFFFFFFFFFFFFFFF AND DUP2 MSTORE PUSH1 0x20 ADD SWAP1 DUP2 MSTORE PUSH1 0x20 ADD PUSH0 KECCAK256 PUSH0 DUP5 PUSH20 0xFFFFFFFFFFFFFFFFFFFFFFFFFFFFFFFFFFFFFFFF AND PUSH20 0xFFFFFFFFFFFFFFFFFFFFFFFFFFFFFFFFFFFFFFFF AND DUP2 MSTORE PUSH1 0x20 ADD SWAP1 DUP2 MSTORE PUSH1 0x20 ADD PUSH0 KECCAK256 PUSH0 PUSH2 0x100 EXP DUP2 SLOAD DUP2 PUSH1 0xFF MUL NOT AND SWAP1 DUP4 ISZERO ISZERO MUL OR SWAP1 SSTORE POP DUP2 PUSH20 0xFFFFFFFFFFFFFFFFFFFFFFFFFFFFFFFFFFFFFFFF AND DUP4 PUSH20 0xFFFFFFFFFFFFFFFFFFFFFFFFFFFFFFFFFFFFFFFF AND PUSH32 0x17307EAB39AB6107E8899845AD3D59BD9653F200F220920489CA2B5937696C31 DUP4 PUSH1 0x40 MLOAD PUSH2 0x14B2 SWAP2 SWAP1 PUSH2 0x200D JUMP JUMPDEST PUSH1 0x40 MLOAD DUP1 SWAP2 SUB SWAP1 LOG3 POP POP POP JUMP JUMPDEST PUSH0 PUSH20 0xFFFFFFFFFFFFFFFFFFFFFFFFFFFFFFFFFFFFFFFF AND DUP3 PUSH20 0xFFFFFFFFFFFFFFFFFFFFFFFFFFFFFFFFFFFFFFFF AND SUB PUSH2 0x152F JUMPI PUSH0 PUSH1 0x40 MLOAD PUSH32 0x64A0AE9200000000000000000000000000000000000000000000000000000000 DUP2 MSTORE PUSH1 0x4 ADD PUSH2 0x1526 SWAP2 SWAP1 PUSH2 0x216D JUMP JUMPDEST PUSH1 0x40 MLOAD DUP1 SWAP2 SUB SWAP1 REVERT JUMPDEST PUSH0 PUSH2 0x153B DUP4 DUP4 PUSH0 PUSH2 0x10B4 JUMP JUMPDEST SWAP1 POP PUSH0 PUSH20 0xFFFFFFFFFFFFFFFFFFFFFFFFFFFFFFFFFFFFFFFF AND DUP2 PUSH20 0xFFFFFFFFFFFFFFFFFFFFFFFFFFFFFFFFFFFFFFFF AND SUB PUSH2 0x15AD JUMPI DUP2 PUSH1 0x40 MLOAD PUSH32 0x7E27328900000000000000000000000000000000000000000000000000000000 DUP2 MSTORE PUSH1 0x4 ADD PUSH2 0x15A4 SWAP2 SWAP1 PUSH2 0x24AA JUMP JUMPDEST PUSH1 0x40 MLOAD DUP1 SWAP2 SUB SWAP1 REVERT JUMPDEST DUP4 PUSH20 0xFFFFFFFFFFFFFFFFFFFFFFFFFFFFFFFFFFFFFFFF AND DUP2 PUSH20 0xFFFFFFFFFFFFFFFFFFFFFFFFFFFFFFFFFFFFFFFF AND EQ PUSH2 0x1621 JUMPI DUP4 DUP3 DUP3 PUSH1 0x40 MLOAD PUSH32 0x64283D7B00000000000000000000000000000000000000000000000000000000 DUP2 MSTORE PUSH1 0x4 ADD PUSH2 0x1618 SWAP4 SWAP3 SWAP2 SWAP1 PUSH2 0x26E4 JUMP JUMPDEST PUSH1 0x40 MLOAD DUP1 SWAP2 SUB SWAP1 REVERT JUMPDEST POP POP POP POP JUMP JUMPDEST PUSH0 DUP4 PUSH20 0xFFFFFFFFFFFFFFFFFFFFFFFFFFFFFFFFFFFFFFFF AND EXTCODESIZE GT ISZERO PUSH2 0x17D3 JUMPI DUP3 PUSH20 0xFFFFFFFFFFFFFFFFFFFFFFFFFFFFFFFFFFFFFFFF AND PUSH4 0x150B7A02 PUSH2 0x166A PUSH2 0x109B JUMP JUMPDEST DUP7 DUP6 DUP6 PUSH1 0x40 MLOAD DUP6 PUSH4 0xFFFFFFFF AND PUSH1 0xE0 SHL DUP2 MSTORE PUSH1 0x4 ADD PUSH2 0x168C SWAP5 SWAP4 SWAP3 SWAP2 SWAP1 PUSH2 0x2C6A JUMP JUMPDEST PUSH1 0x20 PUSH1 0x40 MLOAD DUP1 DUP4 SUB DUP2 PUSH0 DUP8 GAS CALL SWAP3 POP POP POP DUP1 ISZERO PUSH2 0x16C7 JUMPI POP PUSH1 0x40 MLOAD RETURNDATASIZE PUSH1 0x1F NOT PUSH1 0x1F DUP3 ADD AND DUP3 ADD DUP1 PUSH1 0x40 MSTORE POP DUP2 ADD SWAP1 PUSH2 0x16C4 SWAP2 SWAP1 PUSH2 0x2CC8 JUMP JUMPDEST PUSH1 0x1 JUMPDEST PUSH2 0x1748 JUMPI RETURNDATASIZE DUP1 PUSH0 DUP2 EQ PUSH2 0x16F5 JUMPI PUSH1 0x40 MLOAD SWAP2 POP PUSH1 0x1F NOT PUSH1 0x3F RETURNDATASIZE ADD AND DUP3 ADD PUSH1 0x40 MSTORE RETURNDATASIZE DUP3 MSTORE RETURNDATASIZE PUSH0 PUSH1 0x20 DUP5 ADD RETURNDATACOPY PUSH2 0x16FA JUMP JUMPDEST PUSH1 0x60 SWAP2 POP JUMPDEST POP PUSH0 DUP2 MLOAD SUB PUSH2 0x1740 JUMPI DUP4 PUSH1 0x40 MLOAD PUSH32 0x64A0AE9200000000000000000000000000000000000000000000000000000000 DUP2 MSTORE PUSH1 0x4 ADD PUSH2 0x1737 SWAP2 SWAP1 PUSH2 0x216D JUMP JUMPDEST PUSH1 0x40 MLOAD DUP1 SWAP2 SUB SWAP1 REVERT JUMPDEST DUP1 MLOAD DUP2 PUSH1 0x20 ADD REVERT JUMPDEST PUSH4 0x150B7A02 PUSH1 0xE0 SHL PUSH28 0xFFFFFFFFFFFFFFFFFFFFFFFFFFFFFFFFFFFFFFFFFFFFFFFFFFFFFFFF NOT AND DUP2 PUSH28 0xFFFFFFFFFFFFFFFFFFFFFFFFFFFFFFFFFFFFFFFFFFFFFFFFFFFFFFFF NOT AND EQ PUSH2 0x17D1 JUMPI DUP4 PUSH1 0x40 MLOAD PUSH32 0x64A0AE9200000000000000000000000000000000000000000000000000000000 DUP2 MSTORE PUSH1 0x4 ADD PUSH2 0x17C8 SWAP2 SWAP1 PUSH2 0x216D JUMP JUMPDEST PUSH1 0x40 MLOAD DUP1 SWAP2 SUB SWAP1 REVERT JUMPDEST POP JUMPDEST POP POP POP POP JUMP JUMPDEST PUSH1 0x60 PUSH1 0x40 MLOAD DUP1 PUSH1 0x20 ADD PUSH1 0x40 MSTORE DUP1 PUSH0 DUP2 MSTORE POP SWAP1 POP SWAP1 JUMP JUMPDEST PUSH1 0x60 PUSH2 0x17FA DUP3 PUSH2 0xFDC JUMP JUMPDEST POP PUSH0 PUSH2 0x1804 PUSH2 0x17D9 JUMP JUMPDEST SWAP1 POP PUSH0 DUP2 MLOAD GT PUSH2 0x1822 JUMPI PUSH1 0x40 MLOAD DUP1 PUSH1 0x20 ADD PUSH1 0x40 MSTORE DUP1 PUSH0 DUP2 MSTORE POP PUSH2 0x184D JUMP JUMPDEST DUP1 PUSH2 0x182C DUP5 PUSH2 0x1B94 JUMP JUMPDEST PUSH1 0x40 MLOAD PUSH1 0x20 ADD PUSH2 0x183D SWAP3 SWAP2 SWAP1 PUSH2 0x2BF5 JUMP JUMPDEST PUSH1 0x40 MLOAD PUSH1 0x20 DUP2 DUP4 SUB SUB DUP2 MSTORE SWAP1 PUSH1 0x40 MSTORE JUMPDEST SWAP2 POP POP SWAP2 SWAP1 POP JUMP JUMPDEST PUSH0 PUSH32 0x1FFC9A700000000000000000000000000000000000000000000000000000000 PUSH28 0xFFFFFFFFFFFFFFFFFFFFFFFFFFFFFFFFFFFFFFFFFFFFFFFFFFFFFFFF NOT AND DUP3 PUSH28 0xFFFFFFFFFFFFFFFFFFFFFFFFFFFFFFFFFFFFFFFFFFFFFFFFFFFFFFFF NOT AND EQ SWAP1 POP SWAP2 SWAP1 POP JUMP JUMPDEST PUSH0 PUSH1 0x2 PUSH0 DUP4 DUP2 MSTORE PUSH1 0x20 ADD SWAP1 DUP2 MSTORE PUSH1 0x20 ADD PUSH0 KECCAK256 PUSH0 SWAP1 SLOAD SWAP1 PUSH2 0x100 EXP SWAP1 DIV PUSH20 0xFFFFFFFFFFFFFFFFFFFFFFFFFFFFFFFFFFFFFFFF AND SWAP1 POP SWAP2 SWAP1 POP JUMP JUMPDEST DUP1 DUP1 PUSH2 0x192F JUMPI POP PUSH0 PUSH20 0xFFFFFFFFFFFFFFFFFFFFFFFFFFFFFFFFFFFFFFFF AND DUP3 PUSH20 0xFFFFFFFFFFFFFFFFFFFFFFFFFFFFFFFFFFFFFFFF AND EQ ISZERO JUMPDEST ISZERO PUSH2 0x1A61 JUMPI PUSH0 PUSH2 0x193E DUP5 PUSH2 0xFDC JUMP JUMPDEST SWAP1 POP PUSH0 PUSH20 0xFFFFFFFFFFFFFFFFFFFFFFFFFFFFFFFFFFFFFFFF AND DUP4 PUSH20 0xFFFFFFFFFFFFFFFFFFFFFFFFFFFFFFFFFFFFFFFF AND EQ ISZERO DUP1 ISZERO PUSH2 0x19A8 JUMPI POP DUP3 PUSH20 0xFFFFFFFFFFFFFFFFFFFFFFFFFFFFFFFFFFFFFFFF AND DUP2 PUSH20 0xFFFFFFFFFFFFFFFFFFFFFFFFFFFFFFFFFFFFFFFF AND EQ ISZERO JUMPDEST DUP1 ISZERO PUSH2 0x19BB JUMPI POP PUSH2 0x19B9 DUP2 DUP5 PUSH2 0xE6D JUMP JUMPDEST ISZERO JUMPDEST ISZERO PUSH2 0x19FD JUMPI DUP3 PUSH1 0x40 MLOAD PUSH32 0xA9FBF51F00000000000000000000000000000000000000000000000000000000 DUP2 MSTORE PUSH1 0x4 ADD PUSH2 0x19F4 SWAP2 SWAP1 PUSH2 0x216D JUMP JUMPDEST PUSH1 0x40 MLOAD DUP1 SWAP2 SUB SWAP1 REVERT JUMPDEST DUP2 ISZERO PUSH2 0x1A5F JUMPI DUP4 DUP6 PUSH20 0xFFFFFFFFFFFFFFFFFFFFFFFFFFFFFFFFFFFFFFFF AND DUP3 PUSH20 0xFFFFFFFFFFFFFFFFFFFFFFFFFFFFFFFFFFFFFFFF AND PUSH32 0x8C5BE1E5EBEC7D5BD14F71427D1E84F3DD0314C0F7B2291E5B200AC8C7C3B925 PUSH1 0x40 MLOAD PUSH1 0x40 MLOAD DUP1 SWAP2 SUB SWAP1 LOG4 JUMPDEST POP JUMPDEST DUP4 PUSH1 0x4 PUSH0 DUP6 DUP2 MSTORE PUSH1 0x20 ADD SWAP1 DUP2 MSTORE PUSH1 0x20 ADD PUSH0 KECCAK256 PUSH0 PUSH2 0x100 EXP DUP2 SLOAD DUP2 PUSH20 0xFFFFFFFFFFFFFFFFFFFFFFFFFFFFFFFFFFFFFFFF MUL NOT AND SWAP1 DUP4 PUSH20 0xFFFFFFFFFFFFFFFFFFFFFFFFFFFFFFFFFFFFFFFF AND MUL OR SWAP1 SSTORE POP POP POP POP POP JUMP JUMPDEST PUSH2 0x1AC1 DUP4 DUP4 DUP4 PUSH2 0x1C5E JUMP JUMPDEST PUSH2 0x1B74 JUMPI PUSH0 PUSH20 0xFFFFFFFFFFFFFFFFFFFFFFFFFFFFFFFFFFFFFFFF AND DUP4 PUSH20 0xFFFFFFFFFFFFFFFFFFFFFFFFFFFFFFFFFFFFFFFF AND SUB PUSH2 0x1B35 JUMPI DUP1 PUSH1 0x40 MLOAD PUSH32 0x7E27328900000000000000000000000000000000000000000000000000000000 DUP2 MSTORE PUSH1 0x4 ADD PUSH2 0x1B2C SWAP2 SWAP1 PUSH2 0x24AA JUMP JUMPDEST PUSH1 0x40 MLOAD DUP1 SWAP2 SUB SWAP1 REVERT JUMPDEST DUP2 DUP2 PUSH1 0x40 MLOAD PUSH32 0x177E802F00000000000000000000000000000000000000000000000000000000 DUP2 MSTORE PUSH1 0x4 ADD PUSH2 0x1B6B SWAP3 SWAP2 SWAP1 PUSH2 0x224D JUMP JUMPDEST PUSH1 0x40 MLOAD DUP1 SWAP2 SUB SWAP1 REVERT JUMPDEST POP POP POP JUMP JUMPDEST PUSH2 0x1B83 DUP4 DUP4 PUSH2 0x1D1E JUMP JUMPDEST PUSH2 0x1B8F PUSH0 DUP5 DUP5 DUP5 PUSH2 0x1627 JUMP JUMPDEST POP POP POP JUMP JUMPDEST PUSH1 0x60 PUSH0 PUSH1 0x1 PUSH2 0x1BA2 DUP5 PUSH2 0x1E11 JUMP JUMPDEST ADD SWAP1 POP PUSH0 DUP2 PUSH8 0xFFFFFFFFFFFFFFFF DUP2 GT ISZERO PUSH2 0x1BC0 JUMPI PUSH2 0x1BBF PUSH2 0x22BA JUMP JUMPDEST JUMPDEST PUSH1 0x40 MLOAD SWAP1 DUP1 DUP3 MSTORE DUP1 PUSH1 0x1F ADD PUSH1 0x1F NOT AND PUSH1 0x20 ADD DUP3 ADD PUSH1 0x40 MSTORE DUP1 ISZERO PUSH2 0x1BF2 JUMPI DUP2 PUSH1 0x20 ADD PUSH1 0x1 DUP3 MUL DUP1 CALLDATASIZE DUP4 CALLDATACOPY DUP1 DUP3 ADD SWAP2 POP POP SWAP1 POP JUMPDEST POP SWAP1 POP PUSH0 DUP3 PUSH1 0x20 ADD DUP3 ADD SWAP1 POP JUMPDEST PUSH1 0x1 ISZERO PUSH2 0x1C53 JUMPI DUP1 DUP1 PUSH1 0x1 SWAP1 SUB SWAP2 POP POP PUSH32 0x3031323334353637383961626364656600000000000000000000000000000000 PUSH1 0xA DUP7 MOD BYTE DUP2 MSTORE8 PUSH1 0xA DUP6 DUP2 PUSH2 0x1C48 JUMPI PUSH2 0x1C47 PUSH2 0x2787 JUMP JUMPDEST JUMPDEST DIV SWAP5 POP PUSH0 DUP6 SUB PUSH2 0x1BFF JUMPI JUMPDEST DUP2 SWAP4 POP POP POP POP SWAP2 SWAP1 POP JUMP JUMPDEST PUSH0 DUP1 PUSH20 0xFFFFFFFFFFFFFFFFFFFFFFFFFFFFFFFFFFFFFFFF AND DUP4 PUSH20 0xFFFFFFFFFFFFFFFFFFFFFFFFFFFFFFFFFFFFFFFF AND EQ ISZERO DUP1 ISZERO PUSH2 0x1D15 JUMPI POP DUP3 PUSH20 0xFFFFFFFFFFFFFFFFFFFFFFFFFFFFFFFFFFFFFFFF AND DUP5 PUSH20 0xFFFFFFFFFFFFFFFFFFFFFFFFFFFFFFFFFFFFFFFF AND EQ DUP1 PUSH2 0x1CD6 JUMPI POP PUSH2 0x1CD5 DUP5 DUP5 PUSH2 0xE6D JUMP JUMPDEST JUMPDEST DUP1 PUSH2 0x1D14 JUMPI POP DUP3 PUSH20 0xFFFFFFFFFFFFFFFFFFFFFFFFFFFFFFFFFFFFFFFF AND PUSH2 0x1CFC DUP4 PUSH2 0x1062 JUMP JUMPDEST PUSH20 0xFFFFFFFFFFFFFFFFFFFFFFFFFFFFFFFFFFFFFFFF AND EQ JUMPDEST JUMPDEST SWAP1 POP SWAP4 SWAP3 POP POP POP JUMP JUMPDEST PUSH0 PUSH20 0xFFFFFFFFFFFFFFFFFFFFFFFFFFFFFFFFFFFFFFFF AND DUP3 PUSH20 0xFFFFFFFFFFFFFFFFFFFFFFFFFFFFFFFFFFFFFFFF AND SUB PUSH2 0x1D8E JUMPI PUSH0 PUSH1 0x40 MLOAD PUSH32 0x64A0AE9200000000000000000000000000000000000000000000000000000000 DUP2 MSTORE PUSH1 0x4 ADD PUSH2 0x1D85 SWAP2 SWAP1 PUSH2 0x216D JUMP JUMPDEST PUSH1 0x40 MLOAD DUP1 SWAP2 SUB SWAP1 REVERT JUMPDEST PUSH0 PUSH2 0x1D9A DUP4 DUP4 PUSH0 PUSH2 0x10B4 JUMP JUMPDEST SWAP1 POP PUSH0 PUSH20 0xFFFFFFFFFFFFFFFFFFFFFFFFFFFFFFFFFFFFFFFF AND DUP2 PUSH20 0xFFFFFFFFFFFFFFFFFFFFFFFFFFFFFFFFFFFFFFFF AND EQ PUSH2 0x1E0C JUMPI PUSH0 PUSH1 0x40 MLOAD PUSH32 0x73C6AC6E00000000000000000000000000000000000000000000000000000000 DUP2 MSTORE PUSH1 0x4 ADD PUSH2 0x1E03 SWAP2 SWAP1 PUSH2 0x216D JUMP JUMPDEST PUSH1 0x40 MLOAD DUP1 SWAP2 SUB SWAP1 REVERT JUMPDEST POP POP POP JUMP JUMPDEST PUSH0 DUP1 PUSH0 SWAP1 POP PUSH27 0x184F03E93FF9F4DAA797ED6E38ED64BF6A1F010000000000000000 DUP4 LT PUSH2 0x1E6D JUMPI PUSH27 0x184F03E93FF9F4DAA797ED6E38ED64BF6A1F010000000000000000 DUP4 DUP2 PUSH2 0x1E63 JUMPI PUSH2 0x1E62 PUSH2 0x2787 JUMP JUMPDEST JUMPDEST DIV SWAP3 POP PUSH1 0x40 DUP2 ADD SWAP1 POP JUMPDEST PUSH14 0x4EE2D6D415B85ACEF8100000000 DUP4 LT PUSH2 0x1EAA JUMPI PUSH14 0x4EE2D6D415B85ACEF8100000000 DUP4 DUP2 PUSH2 0x1EA0 JUMPI PUSH2 0x1E9F PUSH2 0x2787 JUMP JUMPDEST JUMPDEST DIV SWAP3 POP PUSH1 0x20 DUP2 ADD SWAP1 POP JUMPDEST PUSH7 0x2386F26FC10000 DUP4 LT PUSH2 0x1ED9 JUMPI PUSH7 0x2386F26FC10000 DUP4 DUP2 PUSH2 0x1ECF JUMPI PUSH2 0x1ECE PUSH2 0x2787 JUMP JUMPDEST JUMPDEST DIV SWAP3 POP PUSH1 0x10 DUP2 ADD SWAP1 POP JUMPDEST PUSH4 0x5F5E100 DUP4 LT PUSH2 0x1F02 JUMPI PUSH4 0x5F5E100 DUP4 DUP2 PUSH2 0x1EF8 JUMPI PUSH2 0x1EF7 PUSH2 0x2787 JUMP JUMPDEST JUMPDEST DIV SWAP3 POP PUSH1 0x8 DUP2 ADD SWAP1 POP JUMPDEST PUSH2 0x2710 DUP4 LT PUSH2 0x1F27 JUMPI PUSH2 0x2710 DUP4 DUP2 PUSH2 0x1F1D JUMPI PUSH2 0x1F1C PUSH2 0x2787 JUMP JUMPDEST JUMPDEST DIV SWAP3 POP PUSH1 0x4 DUP2 ADD SWAP1 POP JUMPDEST PUSH1 0x64 DUP4 LT PUSH2 0x1F4A JUMPI PUSH1 0x64 DUP4 DUP2 PUSH2 0x1F40 JUMPI PUSH2 0x1F3F PUSH2 0x2787 JUMP JUMPDEST JUMPDEST DIV SWAP3 POP PUSH1 0x2 DUP2 ADD SWAP1 POP JUMPDEST PUSH1 0xA DUP4 LT PUSH2 0x1F59 JUMPI PUSH1 0x1 DUP2 ADD SWAP1 POP JUMPDEST DUP1 SWAP2 POP POP SWAP2 SWAP1 POP JUMP JUMPDEST PUSH0 PUSH1 0x40 MLOAD SWAP1 POP SWAP1 JUMP JUMPDEST PUSH0 DUP1 REVERT JUMPDEST PUSH0 DUP1 REVERT JUMPDEST PUSH0 PUSH32 0xFFFFFFFF00000000000000000000000000000000000000000000000000000000 DUP3 AND SWAP1 POP SWAP2 SWAP1 POP JUMP JUMPDEST PUSH2 0x1FA7 DUP2 PUSH2 0x1F73 JUMP JUMPDEST DUP2 EQ PUSH2 0x1FB1 JUMPI PUSH0 DUP1 REVERT JUMPDEST POP JUMP JUMPDEST PUSH0 DUP2 CALLDATALOAD SWAP1 POP PUSH2 0x1FC2 DUP2 PUSH2 0x1F9E JUMP JUMPDEST SWAP3 SWAP2 POP POP JUMP JUMPDEST PUSH0 PUSH1 0x20 DUP3 DUP5 SUB SLT ISZERO PUSH2 0x1FDD JUMPI PUSH2 0x1FDC PUSH2 0x1F6B JUMP JUMPDEST JUMPDEST PUSH0 PUSH2 0x1FEA DUP5 DUP3 DUP6 ADD PUSH2 0x1FB4 JUMP JUMPDEST SWAP2 POP POP SWAP3 SWAP2 POP POP JUMP JUMPDEST PUSH0 DUP2 ISZERO ISZERO SWAP1 POP SWAP2 SWAP1 POP JUMP JUMPDEST PUSH2 0x2007 DUP2 PUSH2 0x1FF3 JUMP JUMPDEST DUP3 MSTORE POP POP JUMP JUMPDEST PUSH0 PUSH1 0x20 DUP3 ADD SWAP1 POP PUSH2 0x2020 PUSH0 DUP4 ADD DUP5 PUSH2 0x1FFE JUMP JUMPDEST SWAP3 SWAP2 POP POP JUMP JUMPDEST PUSH0 DUP2 MLOAD SWAP1 POP SWAP2 SWAP1 POP JUMP JUMPDEST PUSH0 DUP3 DUP3 MSTORE PUSH1 0x20 DUP3 ADD SWAP1 POP SWAP3 SWAP2 POP POP JUMP JUMPDEST PUSH0 JUMPDEST DUP4 DUP2 LT ISZERO PUSH2 0x205D JUMPI DUP1 DUP3 ADD MLOAD DUP2 DUP5 ADD MSTORE PUSH1 0x20 DUP2 ADD SWAP1 POP PUSH2 0x2042 JUMP JUMPDEST PUSH0 DUP5 DUP5 ADD MSTORE POP POP POP POP JUMP JUMPDEST PUSH0 PUSH1 0x1F NOT PUSH1 0x1F DUP4 ADD AND SWAP1 POP SWAP2 SWAP1 POP JUMP JUMPDEST PUSH0 PUSH2 0x2082 DUP3 PUSH2 0x2026 JUMP JUMPDEST PUSH2 0x208C DUP2 DUP6 PUSH2 0x2030 JUMP JUMPDEST SWAP4 POP PUSH2 0x209C DUP2 DUP6 PUSH1 0x20 DUP7 ADD PUSH2 0x2040 JUMP JUMPDEST PUSH2 0x20A5 DUP2 PUSH2 0x2068 JUMP JUMPDEST DUP5 ADD SWAP2 POP POP SWAP3 SWAP2 POP POP JUMP JUMPDEST PUSH0 PUSH1 0x20 DUP3 ADD SWAP1 POP DUP2 DUP2 SUB PUSH0 DUP4 ADD MSTORE PUSH2 0x20C8 DUP2 DUP5 PUSH2 0x2078 JUMP JUMPDEST SWAP1 POP SWAP3 SWAP2 POP POP JUMP JUMPDEST PUSH0 DUP2 SWAP1 POP SWAP2 SWAP1 POP JUMP JUMPDEST PUSH2 0x20E2 DUP2 PUSH2 0x20D0 JUMP JUMPDEST DUP2 EQ PUSH2 0x20EC JUMPI PUSH0 DUP1 REVERT JUMPDEST POP JUMP JUMPDEST PUSH0 DUP2 CALLDATALOAD SWAP1 POP PUSH2 0x20FD DUP2 PUSH2 0x20D9 JUMP JUMPDEST SWAP3 SWAP2 POP POP JUMP JUMPDEST PUSH0 PUSH1 0x20 DUP3 DUP5 SUB SLT ISZERO PUSH2 0x2118 JUMPI PUSH2 0x2117 PUSH2 0x1F6B JUMP JUMPDEST JUMPDEST PUSH0 PUSH2 0x2125 DUP5 DUP3 DUP6 ADD PUSH2 0x20EF JUMP JUMPDEST SWAP2 POP POP SWAP3 SWAP2 POP POP JUMP JUMPDEST PUSH0 PUSH20 0xFFFFFFFFFFFFFFFFFFFFFFFFFFFFFFFFFFFFFFFF DUP3 AND SWAP1 POP SWAP2 SWAP1 POP JUMP JUMPDEST PUSH0 PUSH2 0x2157 DUP3 PUSH2 0x212E JUMP JUMPDEST SWAP1 POP SWAP2 SWAP1 POP JUMP JUMPDEST PUSH2 0x2167 DUP2 PUSH2 0x214D JUMP JUMPDEST DUP3 MSTORE POP POP JUMP JUMPDEST PUSH0 PUSH1 0x20 DUP3 ADD SWAP1 POP PUSH2 0x2180 PUSH0 DUP4 ADD DUP5 PUSH2 0x215E JUMP JUMPDEST SWAP3 SWAP2 POP POP JUMP JUMPDEST PUSH2 0x218F DUP2 PUSH2 0x214D JUMP JUMPDEST DUP2 EQ PUSH2 0x2199 JUMPI PUSH0 DUP1 REVERT JUMPDEST POP JUMP JUMPDEST PUSH0 DUP2 CALLDATALOAD SWAP1 POP PUSH2 0x21AA DUP2 PUSH2 0x2186 JUMP JUMPDEST SWAP3 SWAP2 POP POP JUMP JUMPDEST PUSH0 DUP1 PUSH1 0x40 DUP4 DUP6 SUB SLT ISZERO PUSH2 0x21C6 JUMPI PUSH2 0x21C5 PUSH2 0x1F6B JUMP JUMPDEST JUMPDEST PUSH0 PUSH2 0x21D3 DUP6 DUP3 DUP7 ADD PUSH2 0x219C JUMP JUMPDEST SWAP3 POP POP PUSH1 0x20 PUSH2 0x21E4 DUP6 DUP3 DUP7 ADD PUSH2 0x20EF JUMP JUMPDEST SWAP2 POP POP SWAP3 POP SWAP3 SWAP1 POP JUMP JUMPDEST PUSH0 DUP1 PUSH0 PUSH1 0x60 DUP5 DUP7 SUB SLT ISZERO PUSH2 0x2205 JUMPI PUSH2 0x2204 PUSH2 0x1F6B JUMP JUMPDEST JUMPDEST PUSH0 PUSH2 0x2212 DUP7 DUP3 DUP8 ADD PUSH2 0x219C JUMP JUMPDEST SWAP4 POP POP PUSH1 0x20 PUSH2 0x2223 DUP7 DUP3 DUP8 ADD PUSH2 0x219C JUMP JUMPDEST SWAP3 POP POP PUSH1 0x40 PUSH2 0x2234 DUP7 DUP3 DUP8 ADD PUSH2 0x20EF JUMP JUMPDEST SWAP2 POP POP SWAP3 POP SWAP3 POP SWAP3 JUMP JUMPDEST PUSH2 0x2247 DUP2 PUSH2 0x20D0 JUMP JUMPDEST DUP3 MSTORE POP POP JUMP JUMPDEST PUSH0 PUSH1 0x40 DUP3 ADD SWAP1 POP PUSH2 0x2260 PUSH0 DUP4 ADD DUP6 PUSH2 0x215E JUMP JUMPDEST PUSH2 0x226D PUSH1 0x20 DUP4 ADD DUP5 PUSH2 0x223E JUMP JUMPDEST SWAP4 SWAP3 POP POP POP JUMP JUMPDEST PUSH0 DUP1 PUSH1 0x40 DUP4 DUP6 SUB SLT ISZERO PUSH2 0x228A JUMPI PUSH2 0x2289 PUSH2 0x1F6B JUMP JUMPDEST JUMPDEST PUSH0 PUSH2 0x2297 DUP6 DUP3 DUP7 ADD PUSH2 0x20EF JUMP JUMPDEST SWAP3 POP POP PUSH1 0x20 PUSH2 0x22A8 DUP6 DUP3 DUP7 ADD PUSH2 0x20EF JUMP JUMPDEST SWAP2 POP POP SWAP3 POP SWAP3 SWAP1 POP JUMP JUMPDEST PUSH0 DUP1 REVERT JUMPDEST PUSH0 DUP1 REVERT JUMPDEST PUSH32 0x4E487B7100000000000000000000000000000000000000000000000000000000 PUSH0 MSTORE PUSH1 0x41 PUSH1 0x4 MSTORE PUSH1 0x24 PUSH0 REVERT JUMPDEST PUSH2 0x22F0 DUP3 PUSH2 0x2068 JUMP JUMPDEST DUP2 ADD DUP2 DUP2 LT PUSH8 0xFFFFFFFFFFFFFFFF DUP3 GT OR ISZERO PUSH2 0x230F JUMPI PUSH2 0x230E PUSH2 0x22BA JUMP JUMPDEST JUMPDEST DUP1 PUSH1 0x40 MSTORE POP POP POP JUMP JUMPDEST PUSH0 PUSH2 0x2321 PUSH2 0x1F62 JUMP JUMPDEST SWAP1 POP PUSH2 0x232D DUP3 DUP3 PUSH2 0x22E7 JUMP JUMPDEST SWAP2 SWAP1 POP JUMP JUMPDEST PUSH0 PUSH8 0xFFFFFFFFFFFFFFFF DUP3 GT ISZERO PUSH2 0x234C JUMPI PUSH2 0x234B PUSH2 0x22BA JUMP JUMPDEST JUMPDEST PUSH2 0x2355 DUP3 PUSH2 0x2068 JUMP JUMPDEST SWAP1 POP PUSH1 0x20 DUP2 ADD SWAP1 POP SWAP2 SWAP1 POP JUMP JUMPDEST DUP3 DUP2 DUP4 CALLDATACOPY PUSH0 DUP4 DUP4 ADD MSTORE POP POP POP JUMP JUMPDEST PUSH0 PUSH2 0x2382 PUSH2 0x237D DUP5 PUSH2 0x2332 JUMP JUMPDEST PUSH2 0x2318 JUMP JUMPDEST SWAP1 POP DUP3 DUP2 MSTORE PUSH1 0x20 DUP2 ADD DUP5 DUP5 DUP5 ADD GT ISZERO PUSH2 0x239E JUMPI PUSH2 0x239D PUSH2 0x22B6 JUMP JUMPDEST JUMPDEST PUSH2 0x23A9 DUP5 DUP3 DUP6 PUSH2 0x2362 JUMP JUMPDEST POP SWAP4 SWAP3 POP POP POP JUMP JUMPDEST PUSH0 DUP3 PUSH1 0x1F DUP4 ADD SLT PUSH2 0x23C5 JUMPI PUSH2 0x23C4 PUSH2 0x22B2 JUMP JUMPDEST JUMPDEST DUP2 CALLDATALOAD PUSH2 0x23D5 DUP5 DUP3 PUSH1 0x20 DUP7 ADD PUSH2 0x2370 JUMP JUMPDEST SWAP2 POP POP SWAP3 SWAP2 POP POP JUMP JUMPDEST PUSH0 PUSH1 0x20 DUP3 DUP5 SUB SLT ISZERO PUSH2 0x23F3 JUMPI PUSH2 0x23F2 PUSH2 0x1F6B JUMP JUMPDEST JUMPDEST PUSH0 DUP3 ADD CALLDATALOAD PUSH8 0xFFFFFFFFFFFFFFFF DUP2 GT ISZERO PUSH2 0x2410 JUMPI PUSH2 0x240F PUSH2 0x1F6F JUMP JUMPDEST JUMPDEST PUSH2 0x241C DUP5 DUP3 DUP6 ADD PUSH2 0x23B1 JUMP JUMPDEST SWAP2 POP POP SWAP3 SWAP2 POP POP JUMP JUMPDEST PUSH0 DUP1 PUSH1 0x40 DUP4 DUP6 SUB SLT ISZERO PUSH2 0x243B JUMPI PUSH2 0x243A PUSH2 0x1F6B JUMP JUMPDEST JUMPDEST PUSH0 DUP4 ADD CALLDATALOAD PUSH8 0xFFFFFFFFFFFFFFFF DUP2 GT ISZERO PUSH2 0x2458 JUMPI PUSH2 0x2457 PUSH2 0x1F6F JUMP JUMPDEST JUMPDEST PUSH2 0x2464 DUP6 DUP3 DUP7 ADD PUSH2 0x23B1 JUMP JUMPDEST SWAP3 POP POP PUSH1 0x20 PUSH2 0x2475 DUP6 DUP3 DUP7 ADD PUSH2 0x20EF JUMP JUMPDEST SWAP2 POP POP SWAP3 POP SWAP3 SWAP1 POP JUMP JUMPDEST PUSH0 PUSH1 0x20 DUP3 DUP5 SUB SLT ISZERO PUSH2 0x2494 JUMPI PUSH2 0x2493 PUSH2 0x1F6B JUMP JUMPDEST JUMPDEST PUSH0 PUSH2 0x24A1 DUP5 DUP3 DUP6 ADD PUSH2 0x219C JUMP JUMPDEST SWAP2 POP POP SWAP3 SWAP2 POP POP JUMP JUMPDEST PUSH0 PUSH1 0x20 DUP3 ADD SWAP1 POP PUSH2 0x24BD PUSH0 DUP4 ADD DUP5 PUSH2 0x223E JUMP JUMPDEST SWAP3 SWAP2 POP POP JUMP JUMPDEST PUSH2 0x24CC DUP2 PUSH2 0x1FF3 JUMP JUMPDEST DUP2 EQ PUSH2 0x24D6 JUMPI PUSH0 DUP1 REVERT JUMPDEST POP JUMP JUMPDEST PUSH0 DUP2 CALLDATALOAD SWAP1 POP PUSH2 0x24E7 DUP2 PUSH2 0x24C3 JUMP JUMPDEST SWAP3 SWAP2 POP POP JUMP JUMPDEST PUSH0 DUP1 PUSH1 0x40 DUP4 DUP6 SUB SLT ISZERO PUSH2 0x2503 JUMPI PUSH2 0x2502 PUSH2 0x1F6B JUMP JUMPDEST JUMPDEST PUSH0 PUSH2 0x2510 DUP6 DUP3 DUP7 ADD PUSH2 0x219C JUMP JUMPDEST SWAP3 POP POP PUSH1 0x20 PUSH2 0x2521 DUP6 DUP3 DUP7 ADD PUSH2 0x24D9 JUMP JUMPDEST SWAP2 POP POP SWAP3 POP SWAP3 SWAP1 POP JUMP JUMPDEST PUSH0 PUSH8 0xFFFFFFFFFFFFFFFF DUP3 GT ISZERO PUSH2 0x2545 JUMPI PUSH2 0x2544 PUSH2 0x22BA JUMP JUMPDEST JUMPDEST PUSH2 0x254E DUP3 PUSH2 0x2068 JUMP JUMPDEST SWAP1 POP PUSH1 0x20 DUP2 ADD SWAP1 POP SWAP2 SWAP1 POP JUMP JUMPDEST PUSH0 PUSH2 0x256D PUSH2 0x2568 DUP5 PUSH2 0x252B JUMP JUMPDEST PUSH2 0x2318 JUMP JUMPDEST SWAP1 POP DUP3 DUP2 MSTORE PUSH1 0x20 DUP2 ADD DUP5 DUP5 DUP5 ADD GT ISZERO PUSH2 0x2589 JUMPI PUSH2 0x2588 PUSH2 0x22B6 JUMP JUMPDEST JUMPDEST PUSH2 0x2594 DUP5 DUP3 DUP6 PUSH2 0x2362 JUMP JUMPDEST POP SWAP4 SWAP3 POP POP POP JUMP JUMPDEST PUSH0 DUP3 PUSH1 0x1F DUP4 ADD SLT PUSH2 0x25B0 JUMPI PUSH2 0x25AF PUSH2 0x22B2 JUMP JUMPDEST JUMPDEST DUP2 CALLDATALOAD PUSH2 0x25C0 DUP5 DUP3 PUSH1 0x20 DUP7 ADD PUSH2 0x255B JUMP JUMPDEST SWAP2 POP POP SWAP3 SWAP2 POP POP JUMP JUMPDEST PUSH0 DUP1 PUSH0 DUP1 PUSH1 0x80 DUP6 DUP8 SUB SLT ISZERO PUSH2 0x25E1 JUMPI PUSH2 0x25E0 PUSH2 0x1F6B JUMP JUMPDEST JUMPDEST PUSH0 PUSH2 0x25EE DUP8 DUP3 DUP9 ADD PUSH2 0x219C JUMP JUMPDEST SWAP5 POP POP PUSH1 0x20 PUSH2 0x25FF DUP8 DUP3 DUP9 ADD PUSH2 0x219C JUMP JUMPDEST SWAP4 POP POP PUSH1 0x40 PUSH2 0x2610 DUP8 DUP3 DUP9 ADD PUSH2 0x20EF JUMP JUMPDEST SWAP3 POP POP PUSH1 0x60 DUP6 ADD CALLDATALOAD PUSH8 0xFFFFFFFFFFFFFFFF DUP2 GT ISZERO PUSH2 0x2631 JUMPI PUSH2 0x2630 PUSH2 0x1F6F JUMP JUMPDEST JUMPDEST PUSH2 0x263D DUP8 DUP3 DUP9 ADD PUSH2 0x259C JUMP JUMPDEST SWAP2 POP POP SWAP3 SWAP6 SWAP2 SWAP5 POP SWAP3 POP JUMP JUMPDEST PUSH0 DUP1 PUSH1 0x40 DUP4 DUP6 SUB SLT ISZERO PUSH2 0x265F JUMPI PUSH2 0x265E PUSH2 0x1F6B JUMP JUMPDEST JUMPDEST PUSH0 PUSH2 0x266C DUP6 DUP3 DUP7 ADD PUSH2 0x219C JUMP JUMPDEST SWAP3 POP POP PUSH1 0x20 PUSH2 0x267D DUP6 DUP3 DUP7 ADD PUSH2 0x219C JUMP JUMPDEST SWAP2 POP POP SWAP3 POP SWAP3 SWAP1 POP JUMP JUMPDEST PUSH32 0x4E487B7100000000000000000000000000000000000000000000000000000000 PUSH0 MSTORE PUSH1 0x22 PUSH1 0x4 MSTORE PUSH1 0x24 PUSH0 REVERT JUMPDEST PUSH0 PUSH1 0x2 DUP3 DIV SWAP1 POP PUSH1 0x1 DUP3 AND DUP1 PUSH2 0x26CB JUMPI PUSH1 0x7F DUP3 AND SWAP2 POP JUMPDEST PUSH1 0x20 DUP3 LT DUP2 SUB PUSH2 0x26DE JUMPI PUSH2 0x26DD PUSH2 0x2687 JUMP JUMPDEST JUMPDEST POP SWAP2 SWAP1 POP JUMP JUMPDEST PUSH0 PUSH1 0x60 DUP3 ADD SWAP1 POP PUSH2 0x26F7 PUSH0 DUP4 ADD DUP7 PUSH2 0x215E JUMP JUMPDEST PUSH2 0x2704 PUSH1 0x20 DUP4 ADD DUP6 PUSH2 0x223E JUMP JUMPDEST PUSH2 0x2711 PUSH1 0x40 DUP4 ADD DUP5 PUSH2 0x215E JUMP JUMPDEST SWAP5 SWAP4 POP POP POP POP JUMP JUMPDEST PUSH32 0x4E487B7100000000000000000000000000000000000000000000000000000000 PUSH0 MSTORE PUSH1 0x11 PUSH1 0x4 MSTORE PUSH1 0x24 PUSH0 REVERT JUMPDEST PUSH0 PUSH2 0x2750 DUP3 PUSH2 0x20D0 JUMP JUMPDEST SWAP2 POP PUSH2 0x275B DUP4 PUSH2 0x20D0 JUMP JUMPDEST SWAP3 POP DUP3 DUP3 MUL PUSH2 0x2769 DUP2 PUSH2 0x20D0 JUMP JUMPDEST SWAP2 POP DUP3 DUP3 DIV DUP5 EQ DUP4 ISZERO OR PUSH2 0x2780 JUMPI PUSH2 0x277F PUSH2 0x2719 JUMP JUMPDEST JUMPDEST POP SWAP3 SWAP2 POP POP JUMP JUMPDEST PUSH32 0x4E487B7100000000000000000000000000000000000000000000000000000000 PUSH0 MSTORE PUSH1 0x12 PUSH1 0x4 MSTORE PUSH1 0x24 PUSH0 REVERT JUMPDEST PUSH0 PUSH2 0x27BE DUP3 PUSH2 0x20D0 JUMP JUMPDEST SWAP2 POP PUSH2 0x27C9 DUP4 PUSH2 0x20D0 JUMP JUMPDEST SWAP3 POP DUP3 PUSH2 0x27D9 JUMPI PUSH2 0x27D8 PUSH2 0x2787 JUMP JUMPDEST JUMPDEST DUP3 DUP3 DIV SWAP1 POP SWAP3 SWAP2 POP POP JUMP JUMPDEST PUSH0 DUP2 SWAP1 POP DUP2 PUSH0 MSTORE PUSH1 0x20 PUSH0 KECCAK256 SWAP1 POP SWAP2 SWAP1 POP JUMP JUMPDEST PUSH0 PUSH1 0x20 PUSH1 0x1F DUP4 ADD DIV SWAP1 POP SWAP2 SWAP1 POP JUMP JUMPDEST PUSH0 DUP3 DUP3 SHL SWAP1 POP SWAP3 SWAP2 POP POP JUMP JUMPDEST PUSH0 PUSH1 0x8 DUP4 MUL PUSH2 0x2840 PUSH32 0xFFFFFFFFFFFFFFFFFFFFFFFFFFFFFFFFFFFFFFFFFFFFFFFFFFFFFFFFFFFFFFFF DUP3 PUSH2 0x2805 JUMP JUMPDEST PUSH2 0x284A DUP7 DUP4 PUSH2 0x2805 JUMP JUMPDEST SWAP6 POP DUP1 NOT DUP5 AND SWAP4 POP DUP1 DUP7 AND DUP5 OR SWAP3 POP POP POP SWAP4 SWAP3 POP POP POP JUMP JUMPDEST PUSH0 DUP2 SWAP1 POP SWAP2 SWAP1 POP JUMP JUMPDEST PUSH0 PUSH2 0x2885 PUSH2 0x2880 PUSH2 0x287B DUP5 PUSH2 0x20D0 JUMP JUMPDEST PUSH2 0x2862 JUMP JUMPDEST PUSH2 0x20D0 JUMP JUMPDEST SWAP1 POP SWAP2 SWAP1 POP JUMP JUMPDEST PUSH0 DUP2 SWAP1 POP SWAP2 SWAP1 POP JUMP JUMPDEST PUSH2 0x289E DUP4 PUSH2 0x286B JUMP JUMPDEST PUSH2 0x28B2 PUSH2 0x28AA DUP3 PUSH2 0x288C JUMP JUMPDEST DUP5 DUP5 SLOAD PUSH2 0x2811 JUMP JUMPDEST DUP3 SSTORE POP POP POP POP JUMP JUMPDEST PUSH0 SWAP1 JUMP JUMPDEST PUSH2 0x28C6 PUSH2 0x28BA JUMP JUMPDEST PUSH2 0x28D1 DUP2 DUP5 DUP5 PUSH2 0x2895 JUMP JUMPDEST POP POP POP JUMP JUMPDEST JUMPDEST DUP2 DUP2 LT ISZERO PUSH2 0x28F4 JUMPI PUSH2 0x28E9 PUSH0 DUP3 PUSH2 0x28BE JUMP JUMPDEST PUSH1 0x1 DUP2 ADD SWAP1 POP PUSH2 0x28D7 JUMP JUMPDEST POP POP JUMP JUMPDEST PUSH1 0x1F DUP3 GT ISZERO PUSH2 0x2939 JUMPI PUSH2 0x290A DUP2 PUSH2 0x27E4 JUMP JUMPDEST PUSH2 0x2913 DUP5 PUSH2 0x27F6 JUMP JUMPDEST DUP2 ADD PUSH1 0x20 DUP6 LT ISZERO PUSH2 0x2922 JUMPI DUP2 SWAP1 POP JUMPDEST PUSH2 0x2936 PUSH2 0x292E DUP6 PUSH2 0x27F6 JUMP JUMPDEST DUP4 ADD DUP3 PUSH2 0x28D6 JUMP JUMPDEST POP POP JUMPDEST POP POP POP JUMP JUMPDEST PUSH0 DUP3 DUP3 SHR SWAP1 POP SWAP3 SWAP2 POP POP JUMP JUMPDEST PUSH0 PUSH2 0x2959 PUSH0 NOT DUP5 PUSH1 0x8 MUL PUSH2 0x293E JUMP JUMPDEST NOT DUP1 DUP4 AND SWAP2 POP POP SWAP3 SWAP2 POP POP JUMP JUMPDEST PUSH0 PUSH2 0x2971 DUP4 DUP4 PUSH2 0x294A JUMP JUMPDEST SWAP2 POP DUP3 PUSH1 0x2 MUL DUP3 OR SWAP1 POP SWAP3 SWAP2 POP POP JUMP JUMPDEST PUSH2 0x298A DUP3 PUSH2 0x2026 JUMP JUMPDEST PUSH8 0xFFFFFFFFFFFFFFFF DUP2 GT ISZERO PUSH2 0x29A3 JUMPI PUSH2 0x29A2 PUSH2 0x22BA JUMP JUMPDEST JUMPDEST PUSH2 0x29AD DUP3 SLOAD PUSH2 0x26B4 JUMP JUMPDEST PUSH2 0x29B8 DUP3 DUP3 DUP6 PUSH2 0x28F8 JUMP JUMPDEST PUSH0 PUSH1 0x20 SWAP1 POP PUSH1 0x1F DUP4 GT PUSH1 0x1 DUP2 EQ PUSH2 0x29E9 JUMPI PUSH0 DUP5 ISZERO PUSH2 0x29D7 JUMPI DUP3 DUP8 ADD MLOAD SWAP1 POP JUMPDEST PUSH2 0x29E1 DUP6 DUP3 PUSH2 0x2966 JUMP JUMPDEST DUP7 SSTORE POP PUSH2 0x2A48 JUMP JUMPDEST PUSH1 0x1F NOT DUP5 AND PUSH2 0x29F7 DUP7 PUSH2 0x27E4 JUMP JUMPDEST PUSH0 JUMPDEST DUP3 DUP2 LT ISZERO PUSH2 0x2A1E JUMPI DUP5 DUP10 ADD MLOAD DUP3 SSTORE PUSH1 0x1 DUP3 ADD SWAP2 POP PUSH1 0x20 DUP6 ADD SWAP5 POP PUSH1 0x20 DUP2 ADD SWAP1 POP PUSH2 0x29F9 JUMP JUMPDEST DUP7 DUP4 LT ISZERO PUSH2 0x2A3B JUMPI DUP5 DUP10 ADD MLOAD PUSH2 0x2A37 PUSH1 0x1F DUP10 AND DUP3 PUSH2 0x294A JUMP JUMPDEST DUP4 SSTORE POP JUMPDEST PUSH1 0x1 PUSH1 0x2 DUP9 MUL ADD DUP9 SSTORE POP POP POP JUMPDEST POP POP POP POP POP POP JUMP JUMPDEST PUSH32 0x43616E6E6F742062757920796F7572206F776E204E4654000000000000000000 PUSH0 DUP3 ADD MSTORE POP JUMP JUMPDEST PUSH0 PUSH2 0x2A84 PUSH1 0x17 DUP4 PUSH2 0x2030 JUMP JUMPDEST SWAP2 POP PUSH2 0x2A8F DUP3 PUSH2 0x2A50 JUMP JUMPDEST PUSH1 0x20 DUP3 ADD SWAP1 POP SWAP2 SWAP1 POP JUMP JUMPDEST PUSH0 PUSH1 0x20 DUP3 ADD SWAP1 POP DUP2 DUP2 SUB PUSH0 DUP4 ADD MSTORE PUSH2 0x2AB1 DUP2 PUSH2 0x2A78 JUMP JUMPDEST SWAP1 POP SWAP2 SWAP1 POP JUMP JUMPDEST PUSH32 0x537570706C792045786163742066756E64000000000000000000000000000000 PUSH0 DUP3 ADD MSTORE POP JUMP JUMPDEST PUSH0 PUSH2 0x2AEC PUSH1 0x11 DUP4 PUSH2 0x2030 JUMP JUMPDEST SWAP2 POP PUSH2 0x2AF7 DUP3 PUSH2 0x2AB8 JUMP JUMPDEST PUSH1 0x20 DUP3 ADD SWAP1 POP SWAP2 SWAP1 POP JUMP JUMPDEST PUSH0 PUSH1 0x20 DUP3 ADD SWAP1 POP DUP2 DUP2 SUB PUSH0 DUP4 ADD MSTORE PUSH2 0x2B19 DUP2 PUSH2 0x2AE0 JUMP JUMPDEST SWAP1 POP SWAP2 SWAP1 POP JUMP JUMPDEST PUSH0 PUSH2 0x2B2A DUP3 PUSH2 0x20D0 JUMP JUMPDEST SWAP2 POP PUSH2 0x2B35 DUP4 PUSH2 0x20D0 JUMP JUMPDEST SWAP3 POP DUP3 DUP3 SUB SWAP1 POP DUP2 DUP2 GT ISZERO PUSH2 0x2B4D JUMPI PUSH2 0x2B4C PUSH2 0x2719 JUMP JUMPDEST JUMPDEST SWAP3 SWAP2 POP POP JUMP JUMPDEST PUSH32 0x596F75722061726520417574686F72697A6520746F2073656C6C000000000000 PUSH0 DUP3 ADD MSTORE POP JUMP JUMPDEST PUSH0 PUSH2 0x2B87 PUSH1 0x1A DUP4 PUSH2 0x2030 JUMP JUMPDEST SWAP2 POP PUSH2 0x2B92 DUP3 PUSH2 0x2B53 JUMP JUMPDEST PUSH1 0x20 DUP3 ADD SWAP1 POP SWAP2 SWAP1 POP JUMP JUMPDEST PUSH0 PUSH1 0x20 DUP3 ADD SWAP1 POP DUP2 DUP2 SUB PUSH0 DUP4 ADD MSTORE PUSH2 0x2BB4 DUP2 PUSH2 0x2B7B JUMP JUMPDEST SWAP1 POP SWAP2 SWAP1 POP JUMP JUMPDEST PUSH0 DUP2 SWAP1 POP SWAP3 SWAP2 POP POP JUMP JUMPDEST PUSH0 PUSH2 0x2BCF DUP3 PUSH2 0x2026 JUMP JUMPDEST PUSH2 0x2BD9 DUP2 DUP6 PUSH2 0x2BBB JUMP JUMPDEST SWAP4 POP PUSH2 0x2BE9 DUP2 DUP6 PUSH1 0x20 DUP7 ADD PUSH2 0x2040 JUMP JUMPDEST DUP1 DUP5 ADD SWAP2 POP POP SWAP3 SWAP2 POP POP JUMP JUMPDEST PUSH0 PUSH2 0x2C00 DUP3 DUP6 PUSH2 0x2BC5 JUMP JUMPDEST SWAP2 POP PUSH2 0x2C0C DUP3 DUP5 PUSH2 0x2BC5 JUMP JUMPDEST SWAP2 POP DUP2 SWAP1 POP SWAP4 SWAP3 POP POP POP JUMP JUMPDEST PUSH0 DUP2 MLOAD SWAP1 POP SWAP2 SWAP1 POP JUMP JUMPDEST PUSH0 DUP3 DUP3 MSTORE PUSH1 0x20 DUP3 ADD SWAP1 POP SWAP3 SWAP2 POP POP JUMP JUMPDEST PUSH0 PUSH2 0x2C3C DUP3 PUSH2 0x2C18 JUMP JUMPDEST PUSH2 0x2C46 DUP2 DUP6 PUSH2 0x2C22 JUMP JUMPDEST SWAP4 POP PUSH2 0x2C56 DUP2 DUP6 PUSH1 0x20 DUP7 ADD PUSH2 0x2040 JUMP JUMPDEST PUSH2 0x2C5F DUP2 PUSH2 0x2068 JUMP JUMPDEST DUP5 ADD SWAP2 POP POP SWAP3 SWAP2 POP POP JUMP JUMPDEST PUSH0 PUSH1 0x80 DUP3 ADD SWAP1 POP PUSH2 0x2C7D PUSH0 DUP4 ADD DUP8 PUSH2 0x215E JUMP JUMPDEST PUSH2 0x2C8A PUSH1 0x20 DUP4 ADD DUP7 PUSH2 0x215E JUMP JUMPDEST PUSH2 0x2C97 PUSH1 0x40 DUP4 ADD DUP6 PUSH2 0x223E JUMP JUMPDEST DUP2 DUP2 SUB PUSH1 0x60 DUP4 ADD MSTORE PUSH2 0x2CA9 DUP2 DUP5 PUSH2 0x2C32 JUMP JUMPDEST SWAP1 POP SWAP6 SWAP5 POP POP POP POP POP JUMP JUMPDEST PUSH0 DUP2 MLOAD SWAP1 POP PUSH2 0x2CC2 DUP2 PUSH2 0x1F9E JUMP JUMPDEST SWAP3 SWAP2 POP POP JUMP JUMPDEST PUSH0 PUSH1 0x20 DUP3 DUP5 SUB SLT ISZERO PUSH2 0x2CDD JUMPI PUSH2 0x2CDC PUSH2 0x1F6B JUMP JUMPDEST JUMPDEST PUSH0 PUSH2 0x2CEA DUP5 DUP3 DUP6 ADD PUSH2 0x2CB4 JUMP JUMPDEST SWAP2 POP POP SWAP3 SWAP2 POP POP JUMP INVALID LOG2 PUSH5 0x6970667358 0x22 SLT KECCAK256 0xCA 0xAB SELFBALANCE 0x1E CALL MLOAD 0xC3 GT 0x4D SWAP7 0xEE 0xB3 RETURNDATACOPY 0xCA SWAP2 BASEFEE 0xB9 SWAP9 SLT 0xC1 0x5D 0xB3 DUP6 BALANCE PUSH31 0x9487CBAE6AC48264736F6C6343000815003300000000000000000000000000 "
				},
				"gasEstimates": {
					"creation": {
						"codeDepositCost": "2312200",
						"executionCost": "infinite",
						"totalCost": "infinite"
					},
					"external": {
						"BuyNFT(uint256)": "infinite",
						"SellNft(uint256)": "infinite",
						"approve(address,uint256)": "infinite",
						"balanceOf(address)": "infinite",
						"baseTokenURI()": "infinite",
						"getApproved(uint256)": "infinite",
						"isApprovedForAll(address,address)": "infinite",
						"mintNFT(string,uint256)": "infinite",
						"name()": "infinite",
						"nfts(uint256)": "infinite",
						"ownerOf(uint256)": "infinite",
						"royaltyInfo(uint256,uint256)": "infinite",
						"royaltyPercentage()": "2492",
						"safeTransferFrom(address,address,uint256)": "infinite",
						"safeTransferFrom(address,address,uint256,bytes)": "infinite",
						"setApprovalForAll(address,bool)": "infinite",
						"setBaseURI(string)": "infinite",
						"supportsInterface(bytes4)": "881",
						"symbol()": "infinite",
						"tokenURI(uint256)": "infinite",
						"transferFrom(address,address,uint256)": "infinite"
					}
				},
				"methodIdentifiers": {
					"BuyNFT(uint256)": "a37365e0",
					"SellNft(uint256)": "a90d14e2",
					"approve(address,uint256)": "095ea7b3",
					"balanceOf(address)": "70a08231",
					"baseTokenURI()": "d547cfb7",
					"getApproved(uint256)": "081812fc",
					"isApprovedForAll(address,address)": "e985e9c5",
					"mintNFT(string,uint256)": "5afa3a72",
					"name()": "06fdde03",
					"nfts(uint256)": "265aa621",
					"ownerOf(uint256)": "6352211e",
					"royaltyInfo(uint256,uint256)": "2a55205a",
					"royaltyPercentage()": "8a71bb2d",
					"safeTransferFrom(address,address,uint256)": "42842e0e",
					"safeTransferFrom(address,address,uint256,bytes)": "b88d4fde",
					"setApprovalForAll(address,bool)": "a22cb465",
					"setBaseURI(string)": "55f804b3",
					"supportsInterface(bytes4)": "01ffc9a7",
					"symbol()": "95d89b41",
					"tokenURI(uint256)": "c87b56dd",
					"transferFrom(address,address,uint256)": "23b872dd"
				}
			},
			"storageLayout": {
				"storage": [
					{
						"astId": 221,
						"contract": "nftmarket.sol:NFTMarketplace",
						"label": "_name",
						"offset": 0,
						"slot": "0",
						"type": "t_string_storage"
					},
					{
						"astId": 223,
						"contract": "nftmarket.sol:NFTMarketplace",
						"label": "_symbol",
						"offset": 0,
						"slot": "1",
						"type": "t_string_storage"
					},
					{
						"astId": 227,
						"contract": "nftmarket.sol:NFTMarketplace",
						"label": "_owners",
						"offset": 0,
						"slot": "2",
						"type": "t_mapping(t_uint256,t_address)"
					},
					{
						"astId": 231,
						"contract": "nftmarket.sol:NFTMarketplace",
						"label": "_balances",
						"offset": 0,
						"slot": "3",
						"type": "t_mapping(t_address,t_uint256)"
					},
					{
						"astId": 235,
						"contract": "nftmarket.sol:NFTMarketplace",
						"label": "_tokenApprovals",
						"offset": 0,
						"slot": "4",
						"type": "t_mapping(t_uint256,t_address)"
					},
					{
						"astId": 241,
						"contract": "nftmarket.sol:NFTMarketplace",
						"label": "_operatorApprovals",
						"offset": 0,
						"slot": "5",
						"type": "t_mapping(t_address,t_mapping(t_address,t_bool))"
					},
					{
						"astId": 1360,
						"contract": "nftmarket.sol:NFTMarketplace",
						"label": "_tokenURIs",
						"offset": 0,
						"slot": "6",
						"type": "t_mapping(t_uint256,t_string_storage)"
					},
					{
						"astId": 3049,
						"contract": "nftmarket.sol:NFTMarketplace",
						"label": "_tokenIdCounter",
						"offset": 0,
						"slot": "7",
						"type": "t_struct(Counter)1514_storage"
					},
					{
						"astId": 3055,
						"contract": "nftmarket.sol:NFTMarketplace",
						"label": "isSell",
						"offset": 0,
						"slot": "8",
						"type": "t_mapping(t_address,t_mapping(t_uint256,t_bool))"
					},
					{
						"astId": 3057,
						"contract": "nftmarket.sol:NFTMarketplace",
						"label": "baseTokenURI",
						"offset": 0,
						"slot": "9",
						"type": "t_string_storage"
					},
					{
						"astId": 3060,
						"contract": "nftmarket.sol:NFTMarketplace",
						"label": "royaltyPercentage",
						"offset": 0,
						"slot": "10",
						"type": "t_uint256"
					},
					{
						"astId": 3062,
						"contract": "nftmarket.sol:NFTMarketplace",
						"label": "contractOwner",
						"offset": 0,
						"slot": "11",
						"type": "t_address"
					},
					{
						"astId": 3072,
						"contract": "nftmarket.sol:NFTMarketplace",
						"label": "nfts",
						"offset": 0,
						"slot": "12",
						"type": "t_mapping(t_uint256,t_struct(NFT)3067_storage)"
					}
				],
				"types": {
					"t_address": {
						"encoding": "inplace",
						"label": "address",
						"numberOfBytes": "20"
					},
					"t_bool": {
						"encoding": "inplace",
						"label": "bool",
						"numberOfBytes": "1"
					},
					"t_mapping(t_address,t_bool)": {
						"encoding": "mapping",
						"key": "t_address",
						"label": "mapping(address => bool)",
						"numberOfBytes": "32",
						"value": "t_bool"
					},
					"t_mapping(t_address,t_mapping(t_address,t_bool))": {
						"encoding": "mapping",
						"key": "t_address",
						"label": "mapping(address => mapping(address => bool))",
						"numberOfBytes": "32",
						"value": "t_mapping(t_address,t_bool)"
					},
					"t_mapping(t_address,t_mapping(t_uint256,t_bool))": {
						"encoding": "mapping",
						"key": "t_address",
						"label": "mapping(address => mapping(uint256 => bool))",
						"numberOfBytes": "32",
						"value": "t_mapping(t_uint256,t_bool)"
					},
					"t_mapping(t_address,t_uint256)": {
						"encoding": "mapping",
						"key": "t_address",
						"label": "mapping(address => uint256)",
						"numberOfBytes": "32",
						"value": "t_uint256"
					},
					"t_mapping(t_uint256,t_address)": {
						"encoding": "mapping",
						"key": "t_uint256",
						"label": "mapping(uint256 => address)",
						"numberOfBytes": "32",
						"value": "t_address"
					},
					"t_mapping(t_uint256,t_bool)": {
						"encoding": "mapping",
						"key": "t_uint256",
						"label": "mapping(uint256 => bool)",
						"numberOfBytes": "32",
						"value": "t_bool"
					},
					"t_mapping(t_uint256,t_string_storage)": {
						"encoding": "mapping",
						"key": "t_uint256",
						"label": "mapping(uint256 => string)",
						"numberOfBytes": "32",
						"value": "t_string_storage"
					},
					"t_mapping(t_uint256,t_struct(NFT)3067_storage)": {
						"encoding": "mapping",
						"key": "t_uint256",
						"label": "mapping(uint256 => struct NFTMarketplace.NFT)",
						"numberOfBytes": "32",
						"value": "t_struct(NFT)3067_storage"
					},
					"t_string_storage": {
						"encoding": "bytes",
						"label": "string",
						"numberOfBytes": "32"
					},
					"t_struct(Counter)1514_storage": {
						"encoding": "inplace",
						"label": "struct Counters.Counter",
						"members": [
							{
								"astId": 1513,
								"contract": "nftmarket.sol:NFTMarketplace",
								"label": "_value",
								"offset": 0,
								"slot": "0",
								"type": "t_uint256"
							}
						],
						"numberOfBytes": "32"
					},
					"t_struct(NFT)3067_storage": {
						"encoding": "inplace",
						"label": "struct NFTMarketplace.NFT",
						"members": [
							{
								"astId": 3064,
								"contract": "nftmarket.sol:NFTMarketplace",
								"label": "creator",
								"offset": 0,
								"slot": "0",
								"type": "t_address"
							},
							{
								"astId": 3066,
								"contract": "nftmarket.sol:NFTMarketplace",
								"label": "price",
								"offset": 0,
								"slot": "1",
								"type": "t_uint256"
							}
						],
						"numberOfBytes": "64"
					},
					"t_uint256": {
						"encoding": "inplace",
						"label": "uint256",
						"numberOfBytes": "32"
					}
				}
			},
			"userdoc": {
				"kind": "user",
				"methods": {},
				"version": 1
			}
		}
	}
}